{
  "contractName": "SyscoinMessageLibraryForTests",
  "abi": [
    {
      "constant": true,
      "inputs": [
        {
          "internalType": "bytes",
          "name": "input",
          "type": "bytes"
        }
      ],
      "name": "bytesToUint32Public",
      "outputs": [
        {
          "internalType": "uint32",
          "name": "result",
          "type": "uint32"
        }
      ],
      "payable": false,
      "stateMutability": "pure",
      "type": "function"
    },
    {
      "constant": true,
      "inputs": [
        {
          "internalType": "bytes",
          "name": "b",
          "type": "bytes"
        }
      ],
      "name": "bytesToBytes32Public",
      "outputs": [
        {
          "internalType": "bytes32",
          "name": "",
          "type": "bytes32"
        }
      ],
      "payable": false,
      "stateMutability": "pure",
      "type": "function"
    },
    {
      "constant": true,
      "inputs": [
        {
          "internalType": "bytes",
          "name": "_rawBytes",
          "type": "bytes"
        },
        {
          "internalType": "uint32",
          "name": "offset",
          "type": "uint32"
        },
        {
          "internalType": "uint32",
          "name": "_endIndex",
          "type": "uint32"
        }
      ],
      "name": "sliceArrayPublic",
      "outputs": [
        {
          "internalType": "bytes",
          "name": "",
          "type": "bytes"
        }
      ],
      "payable": false,
      "stateMutability": "view",
      "type": "function"
    },
    {
      "constant": true,
      "inputs": [
        {
          "internalType": "uint32",
          "name": "_bits",
          "type": "uint32"
        }
      ],
      "name": "targetFromBitsPublic",
      "outputs": [
        {
          "internalType": "uint256",
          "name": "",
          "type": "uint256"
        }
      ],
      "payable": false,
      "stateMutability": "pure",
      "type": "function"
    },
    {
      "constant": true,
      "inputs": [
        {
          "internalType": "bytes32[]",
          "name": "hashes2",
          "type": "bytes32[]"
        }
      ],
      "name": "makeMerklePublic",
      "outputs": [
        {
          "internalType": "bytes32",
          "name": "",
          "type": "bytes32"
        }
      ],
      "payable": false,
      "stateMutability": "pure",
      "type": "function"
    },
    {
      "constant": true,
      "inputs": [
        {
          "internalType": "uint256",
          "name": "input",
          "type": "uint256"
        }
      ],
      "name": "flip32BytesPublic",
      "outputs": [
        {
          "internalType": "uint256",
          "name": "",
          "type": "uint256"
        }
      ],
      "payable": false,
      "stateMutability": "pure",
      "type": "function"
    },
    {
      "constant": true,
      "inputs": [
        {
          "internalType": "bytes",
          "name": "txBytes",
          "type": "bytes"
        }
      ],
      "name": "parseTransaction",
      "outputs": [
        {
          "internalType": "uint256",
          "name": "",
          "type": "uint256"
        },
        {
          "internalType": "uint256",
          "name": "",
          "type": "uint256"
        },
        {
          "internalType": "address",
          "name": "",
          "type": "address"
        },
        {
          "internalType": "uint32",
          "name": "",
          "type": "uint32"
        },
        {
          "internalType": "uint8",
          "name": "",
          "type": "uint8"
        },
        {
          "internalType": "address",
          "name": "",
          "type": "address"
        }
      ],
      "payable": false,
      "stateMutability": "pure",
      "type": "function"
    }
  ],
  "bytecode": "0x608060405234801561001057600080fd5b506110c1806100206000396000f3fe608060405234801561001057600080fd5b506004361061007d5760003560e01c80635bbd3a361161005b5780635bbd3a36146102005780636750d35b146102a1578063e2e7351a14610389578063fb390e9a1461042d5761007d565b8063132fd0c9146100825780632b99c075146100b157806340907aab146101dd575b600080fd5b61009f6004803603602081101561009857600080fd5b50356104ea565b60408051918252519081900360200190f35b610168600480360360608110156100c757600080fd5b810190602081018135600160201b8111156100e157600080fd5b8201836020820111156100f357600080fd5b803590602001918460018302840111600160201b8311171561011457600080fd5b91908080601f0160208091040260200160405190810160405280939291908181526020018383808284376000920191909152509295505063ffffffff83358116945060209093013590921691506104fd9050565b6040805160208082528351818301528351919283929083019185019080838360005b838110156101a257818101518382015260200161018a565b50505050905090810190601f1680156101cf5780820380516001836020036101000a031916815260200191505b509250505060405180910390f35b61009f600480360360208110156101f357600080fd5b503563ffffffff1661055e565b61009f6004803603602081101561021657600080fd5b810190602081018135600160201b81111561023057600080fd5b82018360208201111561024257600080fd5b803590602001918460208302840111600160201b8311171561026357600080fd5b919080806020026020016040519081016040528093929190818152602001838360200280828437600092019190915250929550610581945050505050565b610345600480360360208110156102b757600080fd5b810190602081018135600160201b8111156102d157600080fd5b8201836020820111156102e357600080fd5b803590602001918460018302840111600160201b8311171561030457600080fd5b91908080601f01602080910402602001604051908101604052809392919081815260200183838082843760009201919091525092955061058c945050505050565b6040805196875260208701959095526001600160a01b039384168686015263ffffffff909216606086015260ff1660808501521660a0830152519081900360c00190f35b61009f6004803603602081101561039f57600080fd5b810190602081018135600160201b8111156103b957600080fd5b8201836020820111156103cb57600080fd5b803590602001918460018302840111600160201b831117156103ec57600080fd5b91908080601f0160208091040260200160405190810160405280939291908181526020018383808284376000920191909152509295506105b4945050505050565b6104d16004803603602081101561044357600080fd5b810190602081018135600160201b81111561045d57600080fd5b82018360208201111561046f57600080fd5b803590602001918460018302840111600160201b8311171561049057600080fd5b91908080601f0160208091040260200160405190810160405280939291908181526020018383808284376000920191909152509295506105c1945050505050565b6040805163ffffffff9092168252519081900360200190f35b60006104f5826105ce565b90505b919050565b6060600083830363ffffffff1690506060816040519080825280601f01601f191660200182016040528015610539576020820181803883390190505b5090508160208201838760208a010160045afa61055557600080fd5b95945050505050565b62ffffff8116630100000063ffffffff92831604909116600219016101000a0290565b60006104f5826106f8565b60008060008060008061059e876109b0565b9550955095509550955095505b91939550919395565b60006104f5826000610a46565b60006104f5826000610a4e565b60405160009060ff8316815382601e1a600182015382601d1a600282015382601c1a600382015382601b1a600482015382601a1a60058201538260191a60068201538260181a60078201538260171a60088201538260161a60098201538260151a600a8201538260141a600b8201538260131a600c8201538260121a600d8201538260111a600e8201538260101a600f82015382600f1a601082015382600e1a601182015382600d1a601282015382600c1a601382015382600b1a601482015382600a1a60158201538260091a60168201538260081a60178201538260071a60188201538260061a60198201538260051a601a8201538260041a601b8201538260031a601c8201538260021a601d8201538260011a601e8201538260001a601f8201535192915050565b80516000906001811415610723578260008151811061071357fe5b60200260200101519150506104f8565b6000811161076e576040805162461bcd60e51b81526020600482015260136024820152724d7573742070726f766964652068617368657360681b604482015290519081900360640190fd5b60005b818110156107ba5761079884828151811061078857fe5b602002602001015160001c6105ce565b60001b8482815181106107a757fe5b6020908102919091010152600101610771565b6000805b6001841115610996575060009150815b8383101561098e578383600101106107e957600184036107ee565b826001015b91506002808785815181106107ff57fe5b602002602001015188858151811061081357fe5b602002602001015160405160200180838152602001828152602001925050506040516020818303038152906040526040518082805190602001908083835b602083106108705780518252601f199092019160209182019101610851565b51815160209384036101000a60001901801990921691161790526040519190930194509192505080830381855afa1580156108af573d6000803e3d6000fd5b5050506040513d60208110156108c457600080fd5b50516040805160208181019390935281518082038401815290820191829052805190928291908401908083835b602083106109105780518252601f1990920191602091820191016108f1565b51815160209384036101000a60001901801990921691161790526040519190930194509192505080830381855afa15801561094f573d6000803e3d6000fd5b5050506040513d602081101561096457600080fd5b5051865187908390811061097457fe5b6020908102919091010152600292909201916001016107ce565b8093506107be565b6109a68660008151811061078857fe5b9695505050505050565b60008080808080808080808080806109c88e82610ade565b935063ffffffff8416617407146109f557506127ba9b509499509197509195509193509091506105ab9050565b610a008e6004610b1a565b9050610a0c8e82610b9c565b809750819650829a50839950849b505050505050600087868885878595509c509c509c509c509c509c505050505050505091939550919395565b016020015190565b6000828260030181518110610a5f57fe5b602001015160f81c60f81b60f81c60ff16838360020181518110610a7f57fe5b602001015160f81c60f81b60f81c60ff1661010002848460010181518110610aa357fe5b602001015160f81c60f81b60f81c60ff166201000002858581518110610ac557fe5b60209101015160f81c6301000000020101019392505050565b6000816020840101516040518160031a60008201538160021a60018201538160011a60028201538160001a60038201535160e01c949350505050565b6000806000610b298585610c40565b9450915081610b5957610b3c8585610c40565b9450915081610b4a57600080fd5b610b548585610c40565b945091505b60648210610b6657600080fd5b60005b82811015610b9257602485019450610b818686610c40565b810160040195509150600101610b69565b5092949350505050565b60008080808080808080808080610bb38e8e610c40565b9d509050600a8110610bc457600080fd5b60005b81811015610c295760088e019d50610bdf8f8f610c40565b9e509750610bed8f8f610cf3565b610bfe579c87019c60009650610c21565b60018e019d50610c0e8f8f610d22565b939a509098509096509094509250610c29565b600101610bc7565b50949d929c50929a50919850909650945050505050565b6000806000848481518110610c5157fe5b01602001516001949094019360f81c905060fd811015610c785760ff169150829050610cec565b8060ff1660fd1415610c9e57610c9085856010610e4d565b846002019250925050610cec565b8060ff1660fe1415610cc457610cb685856020610e4d565b846004019250925050610cec565b8060ff1660ff1415610cea57610cdc85856040610e4d565b846008019250925050610cec565b505b9250929050565b8151600090603560f91b90849084908110610d0a57fe5b01602001516001600160f81b03191614905092915050565b6000806000806000806000806000806000610d3d8d8d610e8f565b9c509050600460ff821614610d5157600080fd5b610d5b8d8d610ec1565b95508060ff168c019b50610d6f8d8d610e8f565b9c509050600860ff821614610d8357600080fd5b610d8d8d8d610f50565b67ffffffffffffffff1692508060ff168c019b50610dab8d8d610e8f565b9c509050601460ff821614610dbf57600080fd5b610dc98d8d611084565b94508060ff168c019b50610ddd8d8d610e8f565b9c509050600160ff821614610df157600080fd5b8c8c81518110610dfd57fe5b016020015160ff82169c909c019b60f81c9150610e1a8d8d610e8f565b9c509050601460ff821614610e2e57600080fd5b610e388d8d611084565b929d949c50949a509850965090945050505050565b6000805b60088304811015610e87578060080260020a8582860181518110610e7157fe5b016020015160f81c029190910190600101610e51565b509392505050565b60008083518310610e9f57600080fd5b838381518110610eab57fe5b016020015160f81c915050600182019250929050565b6000828281518110610ecf57fe5b602001015160f81c60f81b60f81c60ff16630100000002838360010181518110610ef557fe5b602001015160f81c60f81b60f81c60ff166201000002848460020181518110610f1a57fe5b602001015160f81c60f81b60f81c60ff1661010002858560030181518110610f3e57fe5b016020015160f81c0101019392505050565b6000828281518110610f5e57fe5b602001015160f81c60f81b60f81c60ff1667010000000000000002838360010181518110610f8857fe5b602001015160f81c60f81b60f81c60ff16660100000000000002848460020181518110610fb157fe5b602001015160f81c60f81b60f81c60ff166501000000000002858560030181518110610fd957fe5b602001015160f81c60f81b60f81c60ff16600160201b02868660040181518110610fff57fe5b602001015160f81c60f81b60f81c60ff1663010000000287876005018151811061102557fe5b602001015160f81c60f81b60f81c60ff16620100000288886006018151811061104a57fe5b602001015160f81c60f81b60f81c60ff166101000289896007018151811061106e57fe5b016020015160f81c010101010101019392505050565b01601401519056fea265627a7a7231582023978ef08ce0f53d21537820a5a92da34121f3f917263ffdc3f1934a8a61842c64736f6c634300050c0032",
  "source": "pragma solidity ^0.5.12;\n\nimport './SyscoinMessageLibrary.sol';\n// @dev - Manages a battle session between superblock submitter and challenger\ncontract SyscoinMessageLibraryForTests {\n\n    function bytesToUint32Public(bytes memory input) public pure returns (uint32 result) {\n        return bytesToUint32(input, 0);\n    }\n\n    function bytesToBytes32Public(bytes memory b) public pure returns (bytes32) {\n        return bytesToBytes32(b, 0);\n    }\n\n    function sliceArrayPublic(bytes memory _rawBytes, uint32 offset, uint32 _endIndex) public view returns (bytes memory) {\n        uint len = _endIndex - offset;\n        bytes memory result = new bytes(len);\n        assembly {\n            // Call precompiled contract to copy data\n            if iszero(staticcall(gas, 0x04, add(add(_rawBytes, 0x20), offset), len, add(result, 0x20), len)) {\n                revert(0, 0)\n            }\n        }\n        return result;\n    }\n\n    function targetFromBitsPublic(uint32 _bits) public pure returns (uint) {\n        uint exp = _bits / 0x1000000;  // 2**24\n        uint mant = _bits & 0xffffff;\n        return mant * 256**(exp - 3);\n    }\n\n    function makeMerklePublic(bytes32[] memory hashes2) public pure returns (bytes32) {\n        return SyscoinMessageLibrary.makeMerkle(hashes2);\n    }\n\n    function flip32BytesPublic(uint input) public pure returns (uint) {\n        return SyscoinMessageLibrary.flip32Bytes(input);\n    }\n\n    // @dev - Converts a bytes of size 4 to uint32,\n    // e.g. for input [0x01, 0x02, 0x03 0x04] returns 0x01020304\n    function bytesToUint32(bytes memory input, uint pos) private pure returns (uint32 result) {\n        result = uint32(uint8(input[pos]))*(2**24) + uint32(uint8(input[pos + 1]))*(2**16) + uint32(uint8(input[pos + 2]))*(2**8) + uint32(uint8(input[pos + 3]));\n    }\n\n    // @dev converts bytes of any length to bytes32.\n    // If `_rawBytes` is longer than 32 bytes, it truncates to the 32 leftmost bytes.\n    // If it is shorter, it pads with 0s on the left.\n    // Should be private, made internal for testing\n    //\n    // @param _rawBytes - arbitrary length bytes\n    // @return - leftmost 32 or less bytes of input value; padded if less than 32\n    function bytesToBytes32(bytes memory _rawBytes, uint pos) private pure returns (bytes32) {\n        bytes32 out;\n        assembly {\n            out := mload(add(add(_rawBytes, 0x20), pos))\n        }\n        return out;\n    }\n\n    function parseTransaction(bytes memory txBytes) public pure\n             returns (uint, uint, address, uint32, uint8, address) {\n        return SyscoinMessageLibrary.parseTransaction(txBytes);\n     }\n\n    //\n    // Error / failure codes\n    //\n\n    // error codes for storeBlockHeader\n    uint constant ERR_DIFFICULTY =  10010;  // difficulty didn't match current difficulty\n    uint constant ERR_RETARGET = 10020;  // difficulty didn't match retarget\n    uint constant ERR_NO_PREV_BLOCK = 10030;\n    uint constant ERR_BLOCK_ALREADY_EXISTS = 10040;\n    uint constant ERR_INVALID_HEADER = 10050;\n    uint constant ERR_COINBASE_INDEX = 10060; // coinbase tx index within Bitcoin merkle isn't 0\n    uint constant ERR_NOT_MERGE_MINED = 10070; // trying to check AuxPoW on a block that wasn't merge mined\n    uint constant ERR_FOUND_TWICE = 10080; // 0xfabe6d6d found twice\n    uint constant ERR_NO_MERGE_HEADER = 10090; // 0xfabe6d6d not found\n    uint constant ERR_NOT_IN_FIRST_20 = 10100; // chain Merkle root not within first 20 bytes of coinbase tx\n    uint constant ERR_CHAIN_MERKLE = 10110;\n    uint constant ERR_PARENT_MERKLE = 10120;\n    uint constant ERR_PROOF_OF_WORK = 10130;\n    uint constant ERR_INVALID_HEADER_HASH = 10140;\n    uint constant ERR_PROOF_OF_WORK_AUXPOW = 10150;\n    uint constant ERR_PARSE_TX_OUTPUT_LENGTH = 10160;\n    uint constant ERR_PARSE_TX_SYS = 10170;\n\n    // error codes for verifyTx\n    uint constant ERR_BAD_FEE = 20010;\n    uint constant ERR_CONFIRMATIONS = 20020;\n    uint constant ERR_CHAIN = 20030;\n    uint constant ERR_SUPERBLOCK = 20040;\n    uint constant ERR_MERKLE_ROOT = 20050;\n    uint constant ERR_TX_64BYTE = 20060;\n\n    // error codes for relayTx\n    uint constant ERR_RELAY_VERIFY = 30010;\n}",
  "sourcePath": "/Users/jsidhu/Documents/GitHub/sysethereum-contracts1/contracts/SyscoinParser/SyscoinMessageLibraryForTests.sol",
  "compiler": {
    "name": "solc",
    "version": "0.5.12+commit.7709ece9.Emscripten.clang"
  },
  "schemaVersion": "3.0.19",
  "updatedAt": "2019-11-18T21:52:07.302Z",
  "devdoc": {
    "methods": {}
  },
  "userdoc": {
    "methods": {}
  }
}