{
  "contractName": "SyscoinERC20Manager",
  "abi": [
    {
      "anonymous": false,
      "inputs": [
        {
          "indexed": false,
          "internalType": "address",
          "name": "canceller",
          "type": "address"
        },
        {
          "indexed": false,
          "internalType": "uint32",
          "name": "bridgetransferid",
          "type": "uint32"
        }
      ],
      "name": "CancelTransferFailed",
      "type": "event"
    },
    {
      "anonymous": false,
      "inputs": [
        {
          "indexed": false,
          "internalType": "address",
          "name": "canceller",
          "type": "address"
        },
        {
          "indexed": false,
          "internalType": "uint32",
          "name": "bridgetransferid",
          "type": "uint32"
        }
      ],
      "name": "CancelTransferRequest",
      "type": "event"
    },
    {
      "anonymous": false,
      "inputs": [
        {
          "indexed": false,
          "internalType": "address",
          "name": "canceller",
          "type": "address"
        },
        {
          "indexed": false,
          "internalType": "uint32",
          "name": "bridgetransferid",
          "type": "uint32"
        }
      ],
      "name": "CancelTransferSucceeded",
      "type": "event"
    },
    {
      "anonymous": false,
      "inputs": [
        {
          "indexed": false,
          "internalType": "address",
          "name": "freezer",
          "type": "address"
        },
        {
          "indexed": false,
          "internalType": "uint256",
          "name": "value",
          "type": "uint256"
        },
        {
          "indexed": false,
          "internalType": "uint32",
          "name": "bridgetransferid",
          "type": "uint32"
        }
      ],
      "name": "TokenFreeze",
      "type": "event"
    },
    {
      "anonymous": false,
      "inputs": [
        {
          "indexed": false,
          "internalType": "address",
          "name": "receipient",
          "type": "address"
        },
        {
          "indexed": false,
          "internalType": "uint256",
          "name": "value",
          "type": "uint256"
        }
      ],
      "name": "TokenUnfreeze",
      "type": "event"
    },
    {
      "anonymous": false,
      "inputs": [
        {
          "indexed": false,
          "internalType": "address",
          "name": "receipient",
          "type": "address"
        },
        {
          "indexed": false,
          "internalType": "uint256",
          "name": "value",
          "type": "uint256"
        }
      ],
      "name": "TokenUnfreezeFee",
      "type": "event"
    },
    {
      "constant": true,
      "inputs": [
        {
          "internalType": "uint32",
          "name": "",
          "type": "uint32"
        }
      ],
      "name": "assetBalances",
      "outputs": [
        {
          "internalType": "uint256",
          "name": "",
          "type": "uint256"
        }
      ],
      "payable": false,
      "stateMutability": "view",
      "type": "function"
    },
    {
      "constant": true,
      "inputs": [],
      "name": "trustedRelayerContract",
      "outputs": [
        {
          "internalType": "address",
          "name": "",
          "type": "address"
        }
      ],
      "payable": false,
      "stateMutability": "view",
      "type": "function"
    },
    {
      "constant": false,
      "inputs": [
        {
          "internalType": "enum SyscoinERC20Manager.Network",
          "name": "_network",
          "type": "uint8"
        },
        {
          "internalType": "address",
          "name": "_trustedRelayerContract",
          "type": "address"
        }
      ],
      "name": "init",
      "outputs": [],
      "payable": false,
      "stateMutability": "nonpayable",
      "type": "function"
    },
    {
      "constant": true,
      "inputs": [
        {
          "internalType": "uint256",
          "name": "txHash",
          "type": "uint256"
        }
      ],
      "name": "wasSyscoinTxProcessed",
      "outputs": [
        {
          "internalType": "bool",
          "name": "",
          "type": "bool"
        }
      ],
      "payable": false,
      "stateMutability": "view",
      "type": "function"
    },
    {
      "constant": false,
      "inputs": [
        {
          "internalType": "uint256",
          "name": "txHash",
          "type": "uint256"
        },
        {
          "internalType": "uint256",
          "name": "value",
          "type": "uint256"
        },
        {
          "internalType": "address",
          "name": "destinationAddress",
          "type": "address"
        },
        {
          "internalType": "address",
          "name": "superblockSubmitterAddress",
          "type": "address"
        },
        {
          "internalType": "address",
          "name": "erc20ContractAddress",
          "type": "address"
        },
        {
          "internalType": "uint32",
          "name": "assetGUID",
          "type": "uint32"
        },
        {
          "internalType": "uint8",
          "name": "precision",
          "type": "uint8"
        }
      ],
      "name": "processTransaction",
      "outputs": [],
      "payable": false,
      "stateMutability": "nonpayable",
      "type": "function"
    },
    {
      "constant": false,
      "inputs": [
        {
          "internalType": "uint32",
          "name": "bridgeTransferId",
          "type": "uint32"
        }
      ],
      "name": "cancelTransferRequest",
      "outputs": [],
      "payable": true,
      "stateMutability": "payable",
      "type": "function"
    },
    {
      "constant": false,
      "inputs": [
        {
          "internalType": "uint32",
          "name": "bridgeTransferId",
          "type": "uint32"
        }
      ],
      "name": "cancelTransferSuccess",
      "outputs": [],
      "payable": false,
      "stateMutability": "nonpayable",
      "type": "function"
    },
    {
      "constant": false,
      "inputs": [
        {
          "internalType": "uint32",
          "name": "bridgeTransferId",
          "type": "uint32"
        },
        {
          "internalType": "address payable",
          "name": "challengerAddress",
          "type": "address"
        }
      ],
      "name": "processCancelTransferFail",
      "outputs": [],
      "payable": false,
      "stateMutability": "nonpayable",
      "type": "function"
    },
    {
      "constant": false,
      "inputs": [
        {
          "internalType": "uint256",
          "name": "value",
          "type": "uint256"
        },
        {
          "internalType": "uint32",
          "name": "assetGUID",
          "type": "uint32"
        },
        {
          "internalType": "address",
          "name": "erc20ContractAddress",
          "type": "address"
        },
        {
          "internalType": "uint8",
          "name": "precision",
          "type": "uint8"
        },
        {
          "internalType": "bytes",
          "name": "syscoinAddress",
          "type": "bytes"
        }
      ],
      "name": "freezeBurnERC20",
      "outputs": [
        {
          "internalType": "bool",
          "name": "",
          "type": "bool"
        }
      ],
      "payable": false,
      "stateMutability": "nonpayable",
      "type": "function"
    },
    {
      "constant": true,
      "inputs": [
        {
          "internalType": "uint32",
          "name": "bridgeTransferId",
          "type": "uint32"
        }
      ],
      "name": "getBridgeTransfer",
      "outputs": [
        {
          "internalType": "uint256",
          "name": "_timestamp",
          "type": "uint256"
        },
        {
          "internalType": "uint256",
          "name": "_value",
          "type": "uint256"
        },
        {
          "internalType": "address",
          "name": "_erc20ContractAddress",
          "type": "address"
        },
        {
          "internalType": "address",
          "name": "_tokenFreezerAddress",
          "type": "address"
        },
        {
          "internalType": "uint32",
          "name": "_assetGUID",
          "type": "uint32"
        },
        {
          "internalType": "enum SyscoinERC20Manager.BridgeTransferStatus",
          "name": "_status",
          "type": "uint8"
        }
      ],
      "payable": false,
      "stateMutability": "view",
      "type": "function"
    }
  ],
  "bytecode": "0x608060405234801561001057600080fd5b506115da806100206000396000f3fe6080604052600436106100915760003560e01c8063a71d75ca11610059578063a71d75ca146102c2578063af56f158146102ec578063cf496b1014610351578063f7daeb8514610382578063fe2e9718146103be57610091565b8063085e7092146100965780631b7289201461013d5780632f3489c7146101625780635f959b69146101925780636cde8d6f14610283575b600080fd5b3480156100a257600080fd5b506100c6600480360360208110156100b957600080fd5b503563ffffffff16610400565b60405180878152602001868152602001856001600160a01b03166001600160a01b03168152602001846001600160a01b03166001600160a01b031681526020018363ffffffff1663ffffffff16815260200182600481111561012457fe5b60ff168152602001965050505050505060405180910390f35b6101606004803603602081101561015357600080fd5b503563ffffffff16610454565b005b34801561016e57600080fd5b506101606004803603602081101561018557600080fd5b503563ffffffff1661048c565b34801561019e57600080fd5b5061026f600480360360a08110156101b557600080fd5b81359163ffffffff602082013516916001600160a01b036040830135169160ff6060820135169181019060a0810160808201356401000000008111156101fa57600080fd5b82018360208201111561020c57600080fd5b8035906020019184600183028401116401000000008311171561022e57600080fd5b91908080601f0160208091040260200160405190810160405280939291908181526020018383808284376000920191909152509295506106fc945050505050565b604080519115158252519081900360200190f35b34801561028f57600080fd5b50610160600480360360408110156102a657600080fd5b50803563ffffffff1690602001356001600160a01b0316610b29565b3480156102ce57600080fd5b5061026f600480360360208110156102e557600080fd5b5035610cac565b3480156102f857600080fd5b50610160600480360360e081101561030f57600080fd5b5080359060208101359060408101356001600160a01b039081169160608101358216916080820135169060a081013563ffffffff169060c0013560ff16610cbf565b34801561035d57600080fd5b50610366611024565b604080516001600160a01b039092168252519081900360200190f35b34801561038e57600080fd5b50610160600480360360408110156103a557600080fd5b50803560ff1690602001356001600160a01b0316611033565b3480156103ca57600080fd5b506103ee600480360360208110156103e157600080fd5b503563ffffffff1661111d565b60408051918252519081900360200190f35b63ffffffff9081166000908152603760205260409020805460018201546002830154600390930154919490936001600160a01b0393841693831692600160a01b810490911691600160c01b90910460ff1690565b6040805162461bcd60e51b8152602060048201526008602482015267191a5cd8589b195960c21b604482015290519081900360640190fd5b63ffffffff8116600090815260376020526040902060026003820154600160c01b900460ff1660048111156104bd57fe5b146104f95760405162461bcd60e51b815260040180806020018281038252604c81526020018061155a604c913960600191505060405180910390fd5b610e10816000015442031161053f5760405162461bcd60e51b81526004018080602001828103825260488152602001806115126048913960600191505060405180910390fd5b60038101805460ff60c01b1916600160c21b17908190556002820154600183015463ffffffff600160a01b90930483166000908152603460205260409020546001600160a01b039092169261059692919061112f16565b600383018054600160a01b900463ffffffff1660009081526034602090815260408083209490945591546001860154845163a9059cbb60e01b81526001600160a01b039283166004820152602481019190915293519085169363a9059cbb936044808301949193928390030190829087803b15801561061457600080fd5b505af1158015610628573d6000803e3d6000fd5b505050506040513d602081101561063e57600080fd5b5050600382015463ffffffff84166000908152603860205260408082205490516001600160a01b0390931692839282156108fc02929190818181858888f19350505050158015610692573d6000803e3d6000fd5b5063ffffffff8416600081815260386020908152604080832092909255600386015482516001600160a01b0390911681529081019290925280517f558dcc0f85e822d51fb0c98b95ab299d76c136c9d1a34b9cb2e3ede1689cdcfe9281900390910190a150505050565b600083866000826001600160a01b031663313ce5676040518163ffffffff1660e01b815260040160206040518083038186803b15801561073b57600080fd5b505afa15801561074f573d6000803e3d6000fd5b505050506040513d602081101561076557600080fd5b505160ff169050610780600a82810a9063ffffffff61117816565b8210156107be5760405162461bcd60e51b815260040180806020018281038252602c815260200180611436602c913960400191505060405180910390fd5b6000855111610814576040805162461bcd60e51b815260206004820152601d60248201527f737973636f696e416464726573732063616e6e6f74206265207a65726f000000604482015290519081900360640190fd5b60008863ffffffff161161086f576040805162461bcd60e51b815260206004820152601860248201527f41737365742047554944206d757374206e6f7420626520300000000000000000604482015290519081900360640190fd5b6000879050806001600160a01b031663313ce5676040518163ffffffff1660e01b815260040160206040518083038186803b1580156108ad57600080fd5b505afa1580156108c1573d6000803e3d6000fd5b505050506040513d60208110156108d757600080fd5b505160ff88811691161461091c5760405162461bcd60e51b81526004018080602001828103825260318152602001806114056031913960400191505060405180910390fd5b63ffffffff808a1660009081526034602052604090205461093f918c906111ba16565b63ffffffff808b166000818152603460209081526040918290209490945560368054808516600190810190951663ffffffff19909116179055805160c0810182524281529384018e90526001600160a01b038c1690840152336060840152608083015260a082015260365463ffffffff90811660009081526037602090815260409182902084518155908401516001820155908301516002820180546001600160a01b03199081166001600160a01b0393841617909155606085015160038401805460808801519316919093161763ffffffff60a01b1916600160a01b91909416029290921780835560a084015191929060ff60c01b1916600160c01b836004811115610a4857fe5b021790555050604080516323b872dd60e01b8152336004820152306024820152604481018d905290516001600160a01b03841692506323b872dd916064808201926020929091908290030181600087803b158015610aa557600080fd5b505af1158015610ab9573d6000803e3d6000fd5b505050506040513d6020811015610acf57600080fd5b505060365460408051338152602081018d905263ffffffff90921682820152517faabab1db49e504b5156edf3f99042aeecb9607a08f392589571cd49743aaba8d9181900360600190a15060019998505050505050505050565b6033546001600160a01b03163314610b725760405162461bcd60e51b81526004018080602001828103825260218152602001806114c36021913960400191505060405180910390fd5b63ffffffff8216600090815260376020526040902060026003820154600160c01b900460ff166004811115610ba357fe5b14610bdf5760405162461bcd60e51b81526004018080602001828103825260618152602001806114626061913960800191505060405180910390fd5b63ffffffff83166000908152603860205260408082205490516001600160a01b0385169282156108fc02929190818181858888f19350505050158015610c29573d6000803e3d6000fd5b5063ffffffff83166000908152603860205260408120556003818101805460ff60c01b1916600160c01b8302179055506003810154604080516001600160a01b03909216825263ffffffff8516602083015280517f960e217c57581c52cdc4e321eb617416d051a348a2ecf62bb8023a3558e80e859281900390910190a1505050565b6000610cb782611214565b90505b919050565b6033546001600160a01b03163314610d085760405162461bcd60e51b81526004018080602001828103825260218152602001806114c36021913960400191505060405180910390fd5b60008390506000816001600160a01b031663313ce5676040518163ffffffff1660e01b815260040160206040518083038186803b158015610d4857600080fd5b505afa158015610d5c573d6000803e3d6000fd5b505050506040513d6020811015610d7257600080fd5b5051905060ff8084169082161115610d965782810360ff16600a0a88029750610db9565b8260ff168160ff161015610db95780830360ff16600a0a8881610db557fe5b0497505b610dc38189611229565b610dcc896112ca565b610e14576040805162461bcd60e51b8152602060048201526014602482015273151608185b1c9958591e481c1c9bd8d95cdcd95960621b604482015290519081900360640190fd5b63ffffffff808516600090815260346020526040902054610e37918a9061112f16565b63ffffffff808616600090815260346020526040812092909255610e61908a906127109061117816565b90506000610e758a8363ffffffff61112f16565b9050836001600160a01b031663a9059cbb89846040518363ffffffff1660e01b815260040180836001600160a01b03166001600160a01b0316815260200182815260200192505050602060405180830381600087803b158015610ed757600080fd5b505af1158015610eeb573d6000803e3d6000fd5b505050506040513d6020811015610f0157600080fd5b5050604080516001600160a01b038a1681526020810184905281517f378dbe173f6ed6e11630b29573f719ec4cefc9b49f430deed915911c5f78a080929181900390910190a1836001600160a01b031663a9059cbb8a836040518363ffffffff1660e01b815260040180836001600160a01b03166001600160a01b0316815260200182815260200192505050602060405180830381600087803b158015610fa757600080fd5b505af1158015610fbb573d6000803e3d6000fd5b505050506040513d6020811015610fd157600080fd5b5050604080516001600160a01b038b1681526020810183905281517fb925ba840e2f36bcb317f8179bd8b5ed01aba4a22abf5f169162c0894dea87ab929181900390910190a15050505050505050505050565b6033546001600160a01b031681565b600054610100900460ff168061104c575061104c611302565b8061105a575060005460ff16155b6110955760405162461bcd60e51b815260040180806020018281038252602e8152602001806114e4602e913960400191505060405180910390fd5b600054610100900460ff161580156110c0576000805460ff1961ff0019909116610100171660011790555b6039805484919060ff191660018360028111156110d957fe5b0217905550603380546001600160a01b0319166001600160a01b0384161790556036805463ffffffff191690558015611118576000805461ff00191690555b505050565b60346020526000908152604090205481565b600061117183836040518060400160405280601e81526020017f536166654d6174683a207375627472616374696f6e206f766572666c6f770000815250611308565b9392505050565b600061117183836040518060400160405280601a81526020017f536166654d6174683a206469766973696f6e206279207a65726f00000000000081525061139f565b600082820183811015611171576040805162461bcd60e51b815260206004820152601b60248201527f536166654d6174683a206164646974696f6e206f766572666c6f770000000000604482015290519081900360640190fd5b60009081526035602052604090205460ff1690565b60ff821681611278576040805162461bcd60e51b815260206004820152601660248201527556616c7565206d75737420626520706f73697469766560501b604482015290519081900360640190fd5b61128c600a82810a9063ffffffff61117816565b8210156111185760405162461bcd60e51b815260040180806020018281038252602c815260200180611436602c913960400191505060405180910390fd5b60006112d582611214565b156112e257506000610cba565b506000908152603560205260409020805460ff1916600190811790915590565b303b1590565b600081848411156113975760405162461bcd60e51b81526004018080602001828103825283818151815260200191508051906020019080838360005b8381101561135c578181015183820152602001611344565b50505050905090810190601f1680156113895780820380516001836020036101000a031916815260200191505b509250505060405180910390fd5b505050900390565b600081836113ee5760405162461bcd60e51b815260206004820181815283516024840152835190928392604490910191908501908083836000831561135c578181015183820152602001611344565b5060008385816113fa57fe5b049594505050505056fe446563696d616c732077657265206e6f742070726f766964656420776974682074686520636f72726563742076616c756556616c7565206d75737420626520626967676572206f7220657175616c204d494e5f4c4f434b5f56414c554523537973636f696e45524332304d616e616765722063616e63656c5472616e736665725375636365737328293a20537461747573206d7573742062652043616e63656c52657175657374656420746f204661696c20746865207472616e7366657243616c6c206d7573742062652066726f6d20747275737465642072656c61796572436f6e747261637420696e7374616e63652068617320616c7265616479206265656e20696e697469616c697a656423537973636f696e45524332304d616e616765722063616e63656c5472616e736665725375636365737328293a203120686f75722074696d656f757420697320726571756972656423537973636f696e45524332304d616e616765722063616e63656c5472616e736665725375636365737328293a20537461747573206d7573742062652043616e63656c526571756573746564a265627a7a723158209965729be00de6e057c4737690ab8a6b45a9be9e8dd49155683e97f571485d2164736f6c634300050d0032",
  "source": "pragma solidity ^0.5.13;\n\nimport \"openzeppelin-solidity/contracts/math/SafeMath.sol\";\nimport \"../interfaces/SyscoinERC20I.sol\";\nimport \"@openzeppelin/upgrades/contracts/Initializable.sol\";\n\ncontract SyscoinERC20Manager is Initializable {\n\n    using SafeMath for uint;\n    using SafeMath for uint8;\n\n    // Lock constants\n    uint private constant MIN_LOCK_VALUE = 10; // 0.1 token\n    uint private constant SUPERBLOCK_SUBMITTER_LOCK_FEE = 10000; // 10000 = 0.01%\n    uint private constant MIN_CANCEL_DEPOSIT = 3000000000000000000; // 3 eth\n    uint private constant CANCEL_TRANSFER_TIMEOUT = 3600; // 1 hour in seconds\n    uint private constant CANCEL_MINT_TIMEOUT = 907200; // 1.5 weeks in seconds\n    // Variables set by constructor\n\n    // Contract to trust for tx included in a syscoin block verification.\n    // Only syscoin txs relayed from trustedRelayerContract will be accepted.\n    address public trustedRelayerContract;\n\n\n    mapping(uint32 => uint256) public assetBalances;\n    // Syscoin transactions that were already processed by processTransaction()\n    mapping(uint => bool) private syscoinTxHashesAlreadyProcessed;\n\n    uint32 bridgeTransferIdCount;\n    \n    enum BridgeTransferStatus { Uninitialized, Ok, CancelRequested, CancelChallenged, CancelOk }\n    \n    struct BridgeTransfer {\n        uint timestamp;\n        uint value;\n        address erc20ContractAddress;\n        address tokenFreezerAddress;\n        uint32 assetGUID;\n        BridgeTransferStatus status;           \n    }\n\n    mapping(uint32 => BridgeTransfer) private bridgeTransfers;\n    mapping(uint32 => uint) private deposits;\n\n    // network that the stored blocks belong to\n    enum Network { MAINNET, TESTNET, REGTEST }\n    Network private net;\n\n    event TokenUnfreeze(address receipient, uint value);\n    event TokenUnfreezeFee(address receipient, uint value);\n    event TokenFreeze(address freezer, uint value, uint32 bridgetransferid);\n    event CancelTransferRequest(address canceller, uint32 bridgetransferid);\n    event CancelTransferSucceeded(address canceller, uint32 bridgetransferid);\n    event CancelTransferFailed(address canceller, uint32 bridgetransferid);\n    function contains(uint value) private view returns (bool) {\n        return syscoinTxHashesAlreadyProcessed[value];\n    }\n\n    function insert(uint value) private returns (bool) {\n        if (contains(value))\n            return false; // already there\n        syscoinTxHashesAlreadyProcessed[value] = true;\n        return true;\n    }\n    \n    function init(Network _network, address _trustedRelayerContract) public initializer {\n        net = _network;\n        trustedRelayerContract = _trustedRelayerContract;\n        bridgeTransferIdCount = 0;\n    }\n\n    modifier onlyTrustedRelayer() {\n        require(msg.sender == trustedRelayerContract, \"Call must be from trusted relayer\");\n        _;\n    }\n\n    modifier minimumValue(address erc20ContractAddress, uint value) {\n        uint256 decimals = SyscoinERC20I(erc20ContractAddress).decimals();\n        require(\n            value >= (uint256(10) ** decimals).div(MIN_LOCK_VALUE),\n            \"Value must be bigger or equal MIN_LOCK_VALUE\"\n        );\n        _;\n    }\n\n    function requireMinimumValue(uint8 decimalsIn, uint value) private pure {\n        uint256 decimals = uint256(decimalsIn);\n        require(value > 0, \"Value must be positive\");\n        require(\n            value >= (uint256(10) ** decimals).div(MIN_LOCK_VALUE),\n            \"Value must be bigger or equal MIN_LOCK_VALUE\"\n        );\n        \n    }\n\n    function wasSyscoinTxProcessed(uint txHash) public view returns (bool) {\n        return contains(txHash);\n    }\n\n    function processTransaction(\n        uint txHash,\n        uint value,\n        address destinationAddress,\n        address superblockSubmitterAddress,\n        address erc20ContractAddress,\n        uint32 assetGUID,\n        uint8 precision\n    ) public onlyTrustedRelayer {\n        SyscoinERC20I erc20 = SyscoinERC20I(erc20ContractAddress);\n        uint8 nLocalPrecision = erc20.decimals();\n        // see issue #372 on syscoin\n        if(nLocalPrecision > precision){\n            value *= uint(10)**(uint(nLocalPrecision - precision));\n        }else if(nLocalPrecision < precision){\n            value /= uint(10)**(uint(precision - nLocalPrecision));\n        }\n        requireMinimumValue(nLocalPrecision, value);\n        // Add tx to the syscoinTxHashesAlreadyProcessed and Check tx was not already processed\n        require(insert(txHash), \"TX already processed\");\n\n\n        assetBalances[assetGUID] = assetBalances[assetGUID].sub(value);\n\n        uint superblockSubmitterFee = value.div(SUPERBLOCK_SUBMITTER_LOCK_FEE);\n        uint userValue = value.sub(superblockSubmitterFee);\n\n        // pay the fee\n        erc20.transfer(superblockSubmitterAddress, superblockSubmitterFee);\n        emit TokenUnfreezeFee(superblockSubmitterAddress, superblockSubmitterFee);\n\n        // get your token\n        erc20.transfer(destinationAddress, userValue);\n        emit TokenUnfreeze(destinationAddress, userValue);\n    }\n    \n    function cancelTransferRequest(uint32 bridgeTransferId) public payable {\n        revert(\"disabled\");\n        // lookup state by bridgeTransferId\n        BridgeTransfer storage bridgeTransfer = bridgeTransfers[bridgeTransferId];\n        // ensure state is Ok\n        require(bridgeTransfer.status == BridgeTransferStatus.Ok,\n            \"#SyscoinERC20Manager cancelTransferRequest(): Status of bridge transfer must be Ok\");\n        // ensure msg.sender is same as tokenFreezerAddress\n        // we don't have to do this but we do it anyway so someone can't accidentily cancel a transfer they did not make\n        require(msg.sender == bridgeTransfer.tokenFreezerAddress, \"#SyscoinERC20Manager cancelTransferRequest(): Only msg.sender is allowed to cancel\");\n        // if freezeBurnERC20 was called less than 1.5 weeks ago then return error\n        // 0.5 week buffer since only 1 week of blocks are allowed to pass before cannot mint on sys\n        require((block.timestamp - bridgeTransfer.timestamp) > (net == Network.MAINNET? CANCEL_MINT_TIMEOUT: 36000), \"#SyscoinERC20Manager cancelTransferRequest(): Transfer must be at least 1.5 week old\");\n        // ensure min deposit paid\n        require(msg.value >= MIN_CANCEL_DEPOSIT,\n            \"#SyscoinERC20Manager cancelTransferRequest(): Cancel deposit incorrect\");\n        deposits[bridgeTransferId] = msg.value;\n        // set height for cancel time begin to enforce a delay to wait for challengers\n        bridgeTransfer.timestamp = block.timestamp;\n        // set state of bridge transfer to CancelRequested\n        bridgeTransfer.status = BridgeTransferStatus.CancelRequested;\n        emit CancelTransferRequest(msg.sender, bridgeTransferId);\n    }\n\n    function cancelTransferSuccess(uint32 bridgeTransferId) public {\n        // lookup state by bridgeTransferId\n        BridgeTransfer storage bridgeTransfer = bridgeTransfers[bridgeTransferId];\n        // ensure state is CancelRequested to avoid people trying to claim multiple times \n        // and that it has to be on an active cancel request\n        require(bridgeTransfer.status == BridgeTransferStatus.CancelRequested,\n            \"#SyscoinERC20Manager cancelTransferSuccess(): Status must be CancelRequested\");\n        // check if timeout period passed (atleast 1 hour of blocks have to have passed)\n        require((block.timestamp - bridgeTransfer.timestamp) > CANCEL_TRANSFER_TIMEOUT, \"#SyscoinERC20Manager cancelTransferSuccess(): 1 hour timeout is required\");\n        // set state of bridge transfer to CancelOk\n        bridgeTransfer.status = BridgeTransferStatus.CancelOk;\n        // refund erc20 to the tokenFreezerAddress\n        SyscoinERC20I erc20 = SyscoinERC20I(bridgeTransfer.erc20ContractAddress);\n        assetBalances[bridgeTransfer.assetGUID] = assetBalances[bridgeTransfer.assetGUID].sub(bridgeTransfer.value);\n        erc20.transfer(bridgeTransfer.tokenFreezerAddress, bridgeTransfer.value);\n        // pay back deposit\n        address payable tokenFreezeAddressPayable = address(uint160(bridgeTransfer.tokenFreezerAddress));\n        tokenFreezeAddressPayable.transfer(deposits[bridgeTransferId]);\n        delete deposits[bridgeTransferId];\n        emit CancelTransferSucceeded(bridgeTransfer.tokenFreezerAddress, bridgeTransferId);\n    }\n\n    function processCancelTransferFail(uint32 bridgeTransferId, address payable challengerAddress)\n        public\n        onlyTrustedRelayer\n    {\n        // lookup state by bridgeTransferId\n        BridgeTransfer storage bridgeTransfer = bridgeTransfers[bridgeTransferId];\n        // ensure state is CancelRequested\n        require(bridgeTransfer.status == BridgeTransferStatus.CancelRequested,\n            \"#SyscoinERC20Manager cancelTransferSuccess(): Status must be CancelRequested to Fail the transfer\");\n        // pay deposit to challenger\n        challengerAddress.transfer(deposits[bridgeTransferId]);\n        delete deposits[bridgeTransferId];\n        // set state of bridge transfer to CancelChallenged\n        bridgeTransfer.status = BridgeTransferStatus.CancelChallenged;\n        emit CancelTransferFailed(bridgeTransfer.tokenFreezerAddress, bridgeTransferId);\n    }\n\n    // keyhash or scripthash for syscoinWitnessProgram\n    function freezeBurnERC20(\n        uint value,\n        uint32 assetGUID,\n        address erc20ContractAddress,\n        uint8 precision,\n        bytes memory syscoinAddress\n    )\n        public\n        minimumValue(erc20ContractAddress, value)\n        returns (bool)\n    {\n        require(syscoinAddress.length > 0, \"syscoinAddress cannot be zero\");\n        require(assetGUID > 0, \"Asset GUID must not be 0\");\n        \n\n        SyscoinERC20I erc20 = SyscoinERC20I(erc20ContractAddress);\n        require(precision == erc20.decimals(), \"Decimals were not provided with the correct value\");\n        assetBalances[assetGUID] = assetBalances[assetGUID].add(value);\n\n        // store some state needed for potential bridge transfer cancellation\n        // create bridgeTransferId mapping structure with status + height + value + erc20ContractAddress + assetGUID + tokenFreezerAddress\n        bridgeTransferIdCount++;\n        bridgeTransfers[bridgeTransferIdCount] = BridgeTransfer({\n            status: BridgeTransferStatus.Ok,\n            value: value,\n            erc20ContractAddress: erc20ContractAddress,\n            assetGUID: assetGUID,\n            timestamp: block.timestamp,\n            tokenFreezerAddress: msg.sender\n        });\n        erc20.transferFrom(msg.sender, address(this), value);\n        emit TokenFreeze(msg.sender, value, bridgeTransferIdCount);\n        return true;\n    }\n\n    // @dev - Returns the bridge transfer data for the supplied bridge transfer ID\n    //\n    function getBridgeTransfer(uint32 bridgeTransferId) external view returns (\n        uint _timestamp,\n        uint _value,\n        address _erc20ContractAddress,\n        address _tokenFreezerAddress,\n        uint32 _assetGUID,\n        BridgeTransferStatus _status\n    ) {\n        BridgeTransfer storage bridgeTransfer = bridgeTransfers[bridgeTransferId];\n        return (\n            bridgeTransfer.timestamp,\n            bridgeTransfer.value,\n            bridgeTransfer.erc20ContractAddress,\n            bridgeTransfer.tokenFreezerAddress,\n            bridgeTransfer.assetGUID,\n            bridgeTransfer.status\n        );\n    }\n}\n",
  "sourcePath": "/Users/jsidhu/Documents/GitHub/sysethereum-contracts1/contracts/token/SyscoinERC20Manager.sol",
  "compiler": {
    "name": "solc",
    "version": "0.5.13+commit.5b0b510c.Emscripten.clang"
  },
  "schemaVersion": "3.0.20",
  "updatedAt": "2020-02-25T22:42:05.535Z",
  "devdoc": {
    "methods": {}
  },
  "userdoc": {
    "methods": {}
  }
}