{
  "contractName": "SyscoinMessageLibrary",
  "abi": [
    {
      "constant": true,
      "inputs": [
        {
          "internalType": "bytes",
          "name": "_blockHeader",
          "type": "bytes"
        }
      ],
      "name": "getHeaderMerkleRoot",
      "outputs": [
        {
          "internalType": "uint256",
          "name": "",
          "type": "uint256"
        }
      ],
      "payable": false,
      "stateMutability": "pure",
      "type": "function"
    }
  ],
  "bytecode": "0x610269610026600b82828239805160001a60731461001957fe5b30600052607381538281f3fe73000000000000000000000000000000000000000030146080604052600436106100355760003560e01c80636823c56b1461003a575b600080fd5b6100e06004803603602081101561005057600080fd5b81019060208101813564010000000081111561006b57600080fd5b82018360208201111561007d57600080fd5b8035906020019184600183028401116401000000008311171561009f57600080fd5b91908080601f0160208091040260200160405190810160405280939291908181526020018383808284376000920191909152509295506100f2945050505050565b60408051918252519081900360200190f35b60448101516000906101038161010a565b9392505050565b60405160009060ff8316815382601e1a600182015382601d1a600282015382601c1a600382015382601b1a600482015382601a1a60058201538260191a60068201538260181a60078201538260171a60088201538260161a60098201538260151a600a8201538260141a600b8201538260131a600c8201538260121a600d8201538260111a600e8201538260101a600f82015382600f1a601082015382600e1a601182015382600d1a601282015382600c1a601382015382600b1a601482015382600a1a60158201538260091a60168201538260081a60178201538260071a60188201538260061a60198201538260051a601a8201538260041a601b8201538260031a601c8201538260021a601d8201538260011a601e8201538260001a601f820153519291505056fea265627a7a72315820796103aaf1ec6735fb6b6a8202c697093fdec38d562df599887edce22fba5d6164736f6c634300050d0032",
  "source": "pragma solidity ^0.5.13;\n\n// parse a raw Syscoin transaction byte array\nlibrary SyscoinMessageLibrary {\n\n    uint constant ERR_PARSE_TX_SYS = 10170;\n    enum Network { MAINNET, TESTNET, REGTEST }\n    uint32 constant SYSCOIN_TX_VERSION_ASSET_ALLOCATION_BURN = 0x7407;\n \n\n    // Convert a variable integer into something useful and return it and\n    // the index to after it.\n    function parseVarInt(bytes memory txBytes, uint pos) private pure returns (uint, uint) {\n        // the first byte tells us how big the integer is\n        uint8 ibit = uint8(txBytes[pos]);\n        pos += 1;  // skip ibit\n\n        if (ibit < 0xfd) {\n            return (ibit, pos);\n        } else if (ibit == 0xfd) {\n            return (getBytesLE(txBytes, pos, 16), pos + 2);\n        } else if (ibit == 0xfe) {\n            return (getBytesLE(txBytes, pos, 32), pos + 4);\n        } else if (ibit == 0xff) {\n            return (getBytesLE(txBytes, pos, 64), pos + 8);\n        }\n    }\n    // convert little endian bytes to uint\n    function getBytesLE(bytes memory data, uint pos, uint bits) internal pure returns (uint256 result) {\n        for (uint256 i = 0; i < bits / 8; i++) {\n            result += uint256(uint8(data[pos + i])) * 2 ** (i * 8);\n        }\n    }\n    \n\n    // @dev - Parses a syscoin tx\n    //\n    // @param txBytes - tx byte array\n    // Outputs\n    // @return output_value - amount sent to the lock address in satoshis\n    // @return destinationAddress - ethereum destination address\n\n\n    function parseTransaction(bytes memory txBytes) internal pure\n             returns (uint, uint, address, uint32, uint8, address)\n    {\n        \n        uint output_value;\n        uint32 assetGUID;\n        address destinationAddress;\n        uint32 version;\n        address erc20Address;\n        uint8 precision;\n        uint pos = 0;\n        version = bytesToUint32Flipped(txBytes, pos);\n        if(version != SYSCOIN_TX_VERSION_ASSET_ALLOCATION_BURN){\n            return (ERR_PARSE_TX_SYS, output_value, destinationAddress, assetGUID, precision, erc20Address);\n        }\n        pos = skipInputs(txBytes, 4);\n            \n        (output_value, destinationAddress, assetGUID, precision, erc20Address) = scanBurns(txBytes, pos);\n        return (0, output_value, destinationAddress, assetGUID, precision, erc20Address);\n    }\n  \n\n    function skipInputs(bytes memory txBytes, uint pos) private pure\n             returns (uint)\n    {\n        uint n_inputs;\n        uint script_len;\n        (n_inputs, pos) = parseVarInt(txBytes, pos);\n        // if dummy 0x00 is present this is a witness transaction\n        if(n_inputs == 0x00){\n            (n_inputs, pos) = parseVarInt(txBytes, pos); // flag\n            require(n_inputs != 0x00);\n            // after dummy/flag the real var int comes for txins\n            (n_inputs, pos) = parseVarInt(txBytes, pos);\n        }\n        require(n_inputs < 100);\n\n        for (uint i = 0; i < n_inputs; i++) {\n            pos += 36;  // skip outpoint\n            (script_len, pos) = parseVarInt(txBytes, pos);\n            pos += script_len + 4;  // skip sig_script, seq\n        }\n\n        return pos;\n    }           \n    // scan the burn outputs and return the value and script data of first burned output.\n    function scanBurns(bytes memory txBytes, uint pos) private pure\n             returns (uint, address, uint32, uint8, address)\n    {\n        uint script_len;\n        uint output_value;\n        uint32 assetGUID = 0;\n        address destinationAddress;\n        address erc20Address;\n        uint8 precision;\n        uint n_outputs;\n        (n_outputs, pos) = parseVarInt(txBytes, pos);\n        require(n_outputs < 10);\n        for (uint i = 0; i < n_outputs; i++) {\n            pos += 8;\n            // varint\n            (script_len, pos) = parseVarInt(txBytes, pos);\n            if(!isOpReturn(txBytes, pos)){\n                // output script\n                pos += script_len;\n                output_value = 0;\n                continue;\n            }\n            // skip opreturn marker\n            pos += 1;\n            (output_value, destinationAddress, assetGUID, precision, erc20Address) = scanAssetDetails(txBytes, pos);  \n            // only one opreturn data allowed per transaction\n            break;\n        }\n\n        return (output_value, destinationAddress, assetGUID, precision, erc20Address);\n    }\n    \n    \n    // Returns true if the tx output is an OP_RETURN output\n    function isOpReturn(bytes memory txBytes, uint pos) private pure\n             returns (bool) {\n        // scriptPub format is\n        // 0x6a OP_RETURN\n        return \n            txBytes[pos] == byte(0x6a);\n    }  \n    // Returns asset data parsed from the op_return data output from syscoin asset burn transaction\n    function scanAssetDetails(bytes memory txBytes, uint pos) private pure\n             returns (uint, address, uint32, uint8, address) {\n                 \n        uint32 assetGUID;\n        address destinationAddress;\n        address erc20Address;\n        uint output_value;\n        uint8 precision;\n        uint8 op;\n        // vchAsset\n        (op, pos) = getOpcode(txBytes, pos);\n        // guid length should be 4 bytes\n        require(op == 0x04);\n        assetGUID = bytesToUint32(txBytes, pos);\n        pos += op;\n        // amount\n        (op, pos) = getOpcode(txBytes, pos);\n        require(op == 0x08);\n        output_value = bytesToUint64(txBytes, pos);\n        pos += op;\n         // destination address\n        (op, pos) = getOpcode(txBytes, pos);\n        // ethereum contracts are 20 bytes (without the 0x)\n        require(op == 0x14);\n        destinationAddress = readEthereumAddress(txBytes, pos);\n        pos += op;\n        // precision\n        (op, pos) = getOpcode(txBytes, pos);\n        require(op == 0x01);\n        precision = uint8(txBytes[pos]);\n        pos += op;\n        // erc20Address\n        (op, pos) = getOpcode(txBytes, pos);\n        require(op == 0x14);\n        erc20Address = readEthereumAddress(txBytes, pos);\n        return (output_value, destinationAddress, assetGUID, precision, erc20Address);\n    }         \n    // Read the ethereum address embedded in the tx output\n    function readEthereumAddress(bytes memory txBytes, uint pos) private pure\n             returns (address) {\n        uint256 data;\n        assembly {\n            data := mload(add(add(txBytes, 20), pos))\n        }\n        return address(uint160(data));\n    }\n\n    // Read next opcode from script\n    function getOpcode(bytes memory txBytes, uint pos) private pure\n             returns (uint8, uint)\n    {\n        require(pos < txBytes.length);\n        return (uint8(txBytes[pos]), pos + 1);\n    }\n\n\n\n    // @dev - Converts a bytes of size 4 to uint32,\n    // e.g. for input [0x01, 0x02, 0x03 0x04] returns 0x01020304\n    function bytesToUint32Flipped(bytes memory input, uint pos) internal pure returns (uint32 result) {\n        assembly {\n            let data := mload(add(add(input, 0x20), pos))\n            let flip := mload(0x40)\n            mstore8(add(flip, 0), byte(3, data))\n            mstore8(add(flip, 1), byte(2, data))\n            mstore8(add(flip, 2), byte(1, data))\n            mstore8(add(flip, 3), byte(0, data))\n            result := shr(mul(8, 28), mload(flip))\n        }\n    }\n    // @dev - Bitcoin-way of hashing\n    // @param _dataBytes - raw data to be hashed\n    // @return - result of applying SHA-256 twice to raw data and then flipping the bytes\n    function dblShaFlip(bytes memory _dataBytes) internal pure returns (uint) {\n        return flip32Bytes(uint(sha256(abi.encodePacked(sha256(abi.encodePacked(_dataBytes))))));\n    }\n    function sha256mem(bytes memory _rawBytes, uint offset, uint len) internal view returns (bytes32 result) {\n        assembly {\n            // Call sha256 precompiled contract (located in address 0x02) to copy data.\n            // Assign to ptr the next available memory position (stored in memory position 0x40).\n            let ptr := mload(0x40)\n            if iszero(staticcall(gas, 0x02, add(add(_rawBytes, 0x20), offset), len, ptr, 0x20)) {\n                revert(0, 0)\n            }\n            result := mload(ptr)\n        }\n    }\n    // @dev - Bitcoin-way of hashing\n    // @param _dataBytes - raw data to be hashed\n    // @return - result of applying SHA-256 twice to raw data and then flipping the bytes\n    function dblShaFlipMem(bytes memory _rawBytes, uint offset, uint len) internal view returns (uint) {\n        return flip32Bytes(uint(sha256(abi.encodePacked(sha256mem(_rawBytes, offset, len)))));\n    }\n    function bytesToUint64(bytes memory input, uint pos) internal pure returns (uint64 result) {\n        result = uint64(uint8(input[pos+7])) + uint64(uint8(input[pos + 6]))*(2**8) + uint64(uint8(input[pos + 5]))*(2**16) + uint64(uint8(input[pos + 4]))*(2**24) + uint64(uint8(input[pos + 3]))*(2**32) + uint64(uint8(input[pos + 2]))*(2**40) + uint64(uint8(input[pos + 1]))*(2**48) + uint64(uint8(input[pos]))*(2**56);\n    }\n     function bytesToUint32(bytes memory input, uint pos) internal pure returns (uint32 result) {\n        result = uint32(uint8(input[pos+3])) + uint32(uint8(input[pos + 2]))*(2**8) + uint32(uint8(input[pos + 1]))*(2**16) + uint32(uint8(input[pos]))*(2**24);\n    }  \n    // @dev - convert an unsigned integer from little-endian to big-endian representation\n    //\n    // @param _input - little-endian value\n    // @return - input value in big-endian format\n    function flip32Bytes(uint _input) internal pure returns (uint result) {\n        assembly {\n            let pos := mload(0x40)\n            mstore8(add(pos, 0), byte(31, _input))\n            mstore8(add(pos, 1), byte(30, _input))\n            mstore8(add(pos, 2), byte(29, _input))\n            mstore8(add(pos, 3), byte(28, _input))\n            mstore8(add(pos, 4), byte(27, _input))\n            mstore8(add(pos, 5), byte(26, _input))\n            mstore8(add(pos, 6), byte(25, _input))\n            mstore8(add(pos, 7), byte(24, _input))\n            mstore8(add(pos, 8), byte(23, _input))\n            mstore8(add(pos, 9), byte(22, _input))\n            mstore8(add(pos, 10), byte(21, _input))\n            mstore8(add(pos, 11), byte(20, _input))\n            mstore8(add(pos, 12), byte(19, _input))\n            mstore8(add(pos, 13), byte(18, _input))\n            mstore8(add(pos, 14), byte(17, _input))\n            mstore8(add(pos, 15), byte(16, _input))\n            mstore8(add(pos, 16), byte(15, _input))\n            mstore8(add(pos, 17), byte(14, _input))\n            mstore8(add(pos, 18), byte(13, _input))\n            mstore8(add(pos, 19), byte(12, _input))\n            mstore8(add(pos, 20), byte(11, _input))\n            mstore8(add(pos, 21), byte(10, _input))\n            mstore8(add(pos, 22), byte(9, _input))\n            mstore8(add(pos, 23), byte(8, _input))\n            mstore8(add(pos, 24), byte(7, _input))\n            mstore8(add(pos, 25), byte(6, _input))\n            mstore8(add(pos, 26), byte(5, _input))\n            mstore8(add(pos, 27), byte(4, _input))\n            mstore8(add(pos, 28), byte(3, _input))\n            mstore8(add(pos, 29), byte(2, _input))\n            mstore8(add(pos, 30), byte(1, _input))\n            mstore8(add(pos, 31), byte(0, _input))\n            result := mload(pos)\n        }\n    }    \n  \n    // @dev - Evaluate the merkle root\n    //\n    // Given an array of hashes it calculates the\n    // root of the merkle tree.\n    //\n    // @return root of merkle tree\n    function makeMerkle(bytes32[] memory hashes) internal pure returns (bytes32) {\n        uint length = hashes.length;\n\n        if (length == 1) return hashes[0];\n        require(length > 0, \"Must provide hashes\");\n\n        uint i;\n        for (i = 0; i < length; i++) {\n            hashes[i] = bytes32(flip32Bytes(uint(hashes[i])));\n        }\n\n        uint j;\n        uint k;\n\n        while (length > 1) {\n            k = 0;\n            for (i = 0; i < length; i += 2) {\n                j = (i + 1 < length) ? i + 1 : length - 1;\n                hashes[k] = sha256(abi.encodePacked(sha256(abi.encodePacked(hashes[i], hashes[j]))));\n                k += 1;\n            }\n            length = k;\n        }\n        return bytes32(flip32Bytes(uint(hashes[0])));\n    }\n    \n    // @dev - For a valid proof, returns the root of the Merkle tree.\n    //\n    // @param _txHash - transaction hash\n    // @param _txIndex - transaction's index within the block it's assumed to be in\n    // @param _siblings - transaction's Merkle siblings\n    // @return - Merkle tree root of the block the transaction belongs to if the proof is valid,\n    // garbage if it's invalid\n    function computeMerkle(uint _txHash, uint _txIndex, uint[] memory _siblings) internal pure returns (uint) {\n        \n        uint length = _siblings.length;\n        uint i;\n        for (i = 0; i < length; i++) {\n            _siblings[i] = flip32Bytes(_siblings[i]);\n        }\n\n        i = 0;\n        uint resultHash = flip32Bytes(_txHash);        \n\n        while (i < length) {\n            uint proofHex = _siblings[i];\n\n            uint left;\n            uint right;\n            if (_txIndex % 2 == 1) { // 0 means _siblings is on the right; 1 means left\n                left = proofHex;\n                right = resultHash;\n            } else {\n                left = resultHash;\n                right = proofHex;\n            }\n            resultHash = uint(sha256(abi.encodePacked(sha256(abi.encodePacked(left, right)))));\n\n            _txIndex /= 2;\n            i += 1;\n        }\n\n        return flip32Bytes(resultHash);\n    }\n\n    // @dev - extract Merkle root field from a raw Syscoin block header\n    //\n    // @param _blockHeader - Syscoin block header bytes\n    // @param pos - where to start reading root from\n    // @return - block's Merkle root in big endian format\n    function getHeaderMerkleRoot(bytes memory _blockHeader) public pure returns (uint) {\n        uint merkle;\n        assembly {\n            merkle := mload(add(add(_blockHeader, 32), 0x24))\n        }\n        return flip32Bytes(merkle);\n    }\n}\n",
  "sourcePath": "/Users/jsidhu/Documents/GitHub/sysethereum-contracts1/contracts/SyscoinParser/SyscoinMessageLibrary.sol",
  "compiler": {
    "name": "solc",
    "version": "0.5.13+commit.5b0b510c.Emscripten.clang"
  },
  "schemaVersion": "3.0.19",
  "updatedAt": "2019-11-28T18:32:20.442Z",
  "devdoc": {
    "methods": {}
  },
  "userdoc": {
    "methods": {}
  }
}