{
  "contractName": "SyscoinSuperblocks",
  "abi": [
    {
      "anonymous": false,
      "inputs": [
        {
          "indexed": false,
          "internalType": "bytes32",
          "name": "superblockHash",
          "type": "bytes32"
        },
        {
          "indexed": false,
          "internalType": "address",
          "name": "who",
          "type": "address"
        }
      ],
      "name": "ApprovedSuperblock",
      "type": "event"
    },
    {
      "anonymous": false,
      "inputs": [
        {
          "indexed": false,
          "internalType": "uint256",
          "name": "returnCode",
          "type": "uint256"
        }
      ],
      "name": "ChallengeCancelTransferRequest",
      "type": "event"
    },
    {
      "anonymous": false,
      "inputs": [
        {
          "indexed": false,
          "internalType": "bytes32",
          "name": "superblockHash",
          "type": "bytes32"
        },
        {
          "indexed": false,
          "internalType": "address",
          "name": "who",
          "type": "address"
        }
      ],
      "name": "ChallengeSuperblock",
      "type": "event"
    },
    {
      "anonymous": false,
      "inputs": [
        {
          "indexed": false,
          "internalType": "bytes32",
          "name": "superblockHash",
          "type": "bytes32"
        },
        {
          "indexed": false,
          "internalType": "uint256",
          "name": "err",
          "type": "uint256"
        }
      ],
      "name": "ErrorSuperblock",
      "type": "event"
    },
    {
      "anonymous": false,
      "inputs": [
        {
          "indexed": false,
          "internalType": "bytes32",
          "name": "superblockHash",
          "type": "bytes32"
        },
        {
          "indexed": false,
          "internalType": "address",
          "name": "who",
          "type": "address"
        }
      ],
      "name": "InvalidSuperblock",
      "type": "event"
    },
    {
      "anonymous": false,
      "inputs": [
        {
          "indexed": false,
          "internalType": "bytes32",
          "name": "superblockHash",
          "type": "bytes32"
        },
        {
          "indexed": false,
          "internalType": "address",
          "name": "who",
          "type": "address"
        }
      ],
      "name": "NewSuperblock",
      "type": "event"
    },
    {
      "anonymous": false,
      "inputs": [
        {
          "indexed": false,
          "internalType": "bytes32",
          "name": "txHash",
          "type": "bytes32"
        },
        {
          "indexed": false,
          "internalType": "uint256",
          "name": "returnCode",
          "type": "uint256"
        }
      ],
      "name": "RelayTransaction",
      "type": "event"
    },
    {
      "anonymous": false,
      "inputs": [
        {
          "indexed": false,
          "internalType": "bytes32",
          "name": "superblockHash",
          "type": "bytes32"
        },
        {
          "indexed": false,
          "internalType": "address",
          "name": "who",
          "type": "address"
        }
      ],
      "name": "SemiApprovedSuperblock",
      "type": "event"
    },
    {
      "anonymous": false,
      "inputs": [
        {
          "indexed": false,
          "internalType": "bytes32",
          "name": "txHash",
          "type": "bytes32"
        },
        {
          "indexed": false,
          "internalType": "uint256",
          "name": "returnCode",
          "type": "uint256"
        }
      ],
      "name": "VerifyTransaction",
      "type": "event"
    },
    {
      "constant": true,
      "inputs": [
        {
          "internalType": "bytes",
          "name": "_rawBytes",
          "type": "bytes"
        },
        {
          "internalType": "uint256",
          "name": "pos",
          "type": "uint256"
        }
      ],
      "name": "bytesToBytes32",
      "outputs": [
        {
          "internalType": "bytes32",
          "name": "",
          "type": "bytes32"
        }
      ],
      "payable": false,
      "stateMutability": "pure",
      "type": "function"
    },
    {
      "constant": true,
      "inputs": [
        {
          "internalType": "bytes",
          "name": "input",
          "type": "bytes"
        },
        {
          "internalType": "uint256",
          "name": "pos",
          "type": "uint256"
        }
      ],
      "name": "bytesToUint16",
      "outputs": [
        {
          "internalType": "uint16",
          "name": "result",
          "type": "uint16"
        }
      ],
      "payable": false,
      "stateMutability": "pure",
      "type": "function"
    },
    {
      "constant": true,
      "inputs": [
        {
          "internalType": "bytes",
          "name": "input",
          "type": "bytes"
        },
        {
          "internalType": "uint256",
          "name": "pos",
          "type": "uint256"
        }
      ],
      "name": "bytesToUint32",
      "outputs": [
        {
          "internalType": "uint32",
          "name": "result",
          "type": "uint32"
        }
      ],
      "payable": false,
      "stateMutability": "pure",
      "type": "function"
    },
    {
      "constant": true,
      "inputs": [
        {
          "internalType": "bytes",
          "name": "input",
          "type": "bytes"
        },
        {
          "internalType": "uint256",
          "name": "pos",
          "type": "uint256"
        }
      ],
      "name": "bytesToUint32Flipped",
      "outputs": [
        {
          "internalType": "uint32",
          "name": "result",
          "type": "uint32"
        }
      ],
      "payable": false,
      "stateMutability": "pure",
      "type": "function"
    },
    {
      "constant": true,
      "inputs": [
        {
          "internalType": "bytes",
          "name": "input",
          "type": "bytes"
        },
        {
          "internalType": "uint256",
          "name": "pos",
          "type": "uint256"
        }
      ],
      "name": "bytesToUint64",
      "outputs": [
        {
          "internalType": "uint64",
          "name": "result",
          "type": "uint64"
        }
      ],
      "payable": false,
      "stateMutability": "pure",
      "type": "function"
    },
    {
      "constant": true,
      "inputs": [
        {
          "internalType": "uint256",
          "name": "_txHash",
          "type": "uint256"
        },
        {
          "internalType": "uint256",
          "name": "_txIndex",
          "type": "uint256"
        },
        {
          "internalType": "uint256[]",
          "name": "_siblings",
          "type": "uint256[]"
        }
      ],
      "name": "computeMerkle",
      "outputs": [
        {
          "internalType": "uint256",
          "name": "",
          "type": "uint256"
        }
      ],
      "payable": false,
      "stateMutability": "pure",
      "type": "function"
    },
    {
      "constant": true,
      "inputs": [
        {
          "internalType": "bytes",
          "name": "_dataBytes",
          "type": "bytes"
        }
      ],
      "name": "dblShaFlip",
      "outputs": [
        {
          "internalType": "uint256",
          "name": "",
          "type": "uint256"
        }
      ],
      "payable": false,
      "stateMutability": "pure",
      "type": "function"
    },
    {
      "constant": true,
      "inputs": [
        {
          "internalType": "bytes",
          "name": "_rawBytes",
          "type": "bytes"
        },
        {
          "internalType": "uint256",
          "name": "offset",
          "type": "uint256"
        },
        {
          "internalType": "uint256",
          "name": "len",
          "type": "uint256"
        }
      ],
      "name": "dblShaFlipMem",
      "outputs": [
        {
          "internalType": "uint256",
          "name": "",
          "type": "uint256"
        }
      ],
      "payable": false,
      "stateMutability": "view",
      "type": "function"
    },
    {
      "constant": true,
      "inputs": [
        {
          "internalType": "uint256",
          "name": "_input",
          "type": "uint256"
        }
      ],
      "name": "flip32Bytes",
      "outputs": [
        {
          "internalType": "uint256",
          "name": "result",
          "type": "uint256"
        }
      ],
      "payable": false,
      "stateMutability": "pure",
      "type": "function"
    },
    {
      "constant": true,
      "inputs": [
        {
          "internalType": "bytes",
          "name": "logValues",
          "type": "bytes"
        }
      ],
      "name": "getBridgeTransactionId",
      "outputs": [
        {
          "internalType": "uint256",
          "name": "value",
          "type": "uint256"
        }
      ],
      "payable": false,
      "stateMutability": "pure",
      "type": "function"
    },
    {
      "constant": true,
      "inputs": [
        {
          "internalType": "bytes",
          "name": "data",
          "type": "bytes"
        },
        {
          "internalType": "uint256",
          "name": "pos",
          "type": "uint256"
        },
        {
          "internalType": "uint256",
          "name": "bits",
          "type": "uint256"
        }
      ],
      "name": "getBytesLE",
      "outputs": [
        {
          "internalType": "uint256",
          "name": "result",
          "type": "uint256"
        }
      ],
      "payable": false,
      "stateMutability": "pure",
      "type": "function"
    },
    {
      "constant": true,
      "inputs": [
        {
          "internalType": "bytes",
          "name": "txBytes",
          "type": "bytes"
        },
        {
          "internalType": "uint256",
          "name": "pos",
          "type": "uint256"
        }
      ],
      "name": "getEthReceipt",
      "outputs": [
        {
          "internalType": "bytes",
          "name": "",
          "type": "bytes"
        }
      ],
      "payable": false,
      "stateMutability": "view",
      "type": "function"
    },
    {
      "constant": true,
      "inputs": [
        {
          "internalType": "bytes",
          "name": "ethTxReceipt",
          "type": "bytes"
        },
        {
          "internalType": "bytes32",
          "name": "expectedTopic",
          "type": "bytes32"
        }
      ],
      "name": "getLogValuesForTopic",
      "outputs": [
        {
          "internalType": "bytes",
          "name": "",
          "type": "bytes"
        }
      ],
      "payable": false,
      "stateMutability": "pure",
      "type": "function"
    },
    {
      "constant": true,
      "inputs": [
        {
          "internalType": "bytes",
          "name": "txBytes",
          "type": "bytes"
        },
        {
          "internalType": "uint256",
          "name": "pos",
          "type": "uint256"
        }
      ],
      "name": "getOpReturnPos",
      "outputs": [
        {
          "internalType": "uint256",
          "name": "",
          "type": "uint256"
        }
      ],
      "payable": false,
      "stateMutability": "pure",
      "type": "function"
    },
    {
      "constant": true,
      "inputs": [
        {
          "internalType": "bytes32[]",
          "name": "hashes",
          "type": "bytes32[]"
        }
      ],
      "name": "makeMerkle",
      "outputs": [
        {
          "internalType": "bytes32",
          "name": "",
          "type": "bytes32"
        }
      ],
      "payable": false,
      "stateMutability": "pure",
      "type": "function"
    },
    {
      "constant": true,
      "inputs": [],
      "name": "minProposalDeposit",
      "outputs": [
        {
          "internalType": "uint256",
          "name": "",
          "type": "uint256"
        }
      ],
      "payable": false,
      "stateMutability": "view",
      "type": "function"
    },
    {
      "constant": true,
      "inputs": [
        {
          "internalType": "bytes",
          "name": "txBytes",
          "type": "bytes"
        }
      ],
      "name": "parseBurnTx",
      "outputs": [
        {
          "internalType": "uint256",
          "name": "",
          "type": "uint256"
        },
        {
          "internalType": "uint256",
          "name": "",
          "type": "uint256"
        },
        {
          "internalType": "address",
          "name": "",
          "type": "address"
        },
        {
          "internalType": "uint32",
          "name": "",
          "type": "uint32"
        },
        {
          "internalType": "uint8",
          "name": "",
          "type": "uint8"
        },
        {
          "internalType": "address",
          "name": "",
          "type": "address"
        }
      ],
      "payable": false,
      "stateMutability": "pure",
      "type": "function"
    },
    {
      "constant": true,
      "inputs": [
        {
          "internalType": "bytes",
          "name": "txBytes",
          "type": "bytes"
        },
        {
          "internalType": "uint256",
          "name": "pos",
          "type": "uint256"
        }
      ],
      "name": "parseVarInt",
      "outputs": [
        {
          "internalType": "uint256",
          "name": "",
          "type": "uint256"
        },
        {
          "internalType": "uint256",
          "name": "",
          "type": "uint256"
        }
      ],
      "payable": false,
      "stateMutability": "pure",
      "type": "function"
    },
    {
      "constant": true,
      "inputs": [
        {
          "internalType": "bytes",
          "name": "_rawBytes",
          "type": "bytes"
        },
        {
          "internalType": "uint256",
          "name": "offset",
          "type": "uint256"
        },
        {
          "internalType": "uint256",
          "name": "len",
          "type": "uint256"
        }
      ],
      "name": "sha256mem",
      "outputs": [
        {
          "internalType": "bytes32",
          "name": "result",
          "type": "bytes32"
        }
      ],
      "payable": false,
      "stateMutability": "view",
      "type": "function"
    },
    {
      "constant": true,
      "inputs": [
        {
          "internalType": "bytes",
          "name": "_rawBytes",
          "type": "bytes"
        },
        {
          "internalType": "uint256",
          "name": "offset",
          "type": "uint256"
        },
        {
          "internalType": "uint256",
          "name": "_endIndex",
          "type": "uint256"
        }
      ],
      "name": "sliceArray",
      "outputs": [
        {
          "internalType": "bytes",
          "name": "",
          "type": "bytes"
        }
      ],
      "payable": false,
      "stateMutability": "view",
      "type": "function"
    },
    {
      "constant": true,
      "inputs": [],
      "name": "syscoinERC20Manager",
      "outputs": [
        {
          "internalType": "contract SyscoinTransactionProcessor",
          "name": "",
          "type": "address"
        }
      ],
      "payable": false,
      "stateMutability": "view",
      "type": "function"
    },
    {
      "constant": true,
      "inputs": [
        {
          "internalType": "uint32",
          "name": "_bits",
          "type": "uint32"
        }
      ],
      "name": "targetFromBits",
      "outputs": [
        {
          "internalType": "uint256",
          "name": "",
          "type": "uint256"
        }
      ],
      "payable": false,
      "stateMutability": "pure",
      "type": "function"
    },
    {
      "constant": true,
      "inputs": [],
      "name": "trustedClaimManager",
      "outputs": [
        {
          "internalType": "address",
          "name": "",
          "type": "address"
        }
      ],
      "payable": false,
      "stateMutability": "view",
      "type": "function"
    },
    {
      "constant": false,
      "inputs": [
        {
          "internalType": "address",
          "name": "_syscoinERC20Manager",
          "type": "address"
        },
        {
          "internalType": "address",
          "name": "_claimManager",
          "type": "address"
        }
      ],
      "name": "init",
      "outputs": [],
      "payable": false,
      "stateMutability": "nonpayable",
      "type": "function"
    },
    {
      "constant": true,
      "inputs": [
        {
          "internalType": "bytes",
          "name": "txBytes",
          "type": "bytes"
        }
      ],
      "name": "parseMintTx",
      "outputs": [
        {
          "internalType": "uint256",
          "name": "errorCode",
          "type": "uint256"
        },
        {
          "internalType": "uint32",
          "name": "bridgeTransferId",
          "type": "uint32"
        }
      ],
      "payable": false,
      "stateMutability": "view",
      "type": "function"
    },
    {
      "constant": true,
      "inputs": [
        {
          "internalType": "bytes",
          "name": "_blockHeader",
          "type": "bytes"
        }
      ],
      "name": "getHeaderMerkleRoot",
      "outputs": [
        {
          "internalType": "uint256",
          "name": "",
          "type": "uint256"
        }
      ],
      "payable": false,
      "stateMutability": "pure",
      "type": "function"
    },
    {
      "constant": false,
      "inputs": [
        {
          "internalType": "bytes32",
          "name": "_blocksMerkleRoot",
          "type": "bytes32"
        },
        {
          "internalType": "uint256",
          "name": "_timestamp",
          "type": "uint256"
        },
        {
          "internalType": "uint256",
          "name": "_mtpTimestamp",
          "type": "uint256"
        },
        {
          "internalType": "bytes32",
          "name": "_lastHash",
          "type": "bytes32"
        },
        {
          "internalType": "uint32",
          "name": "_lastBits",
          "type": "uint32"
        },
        {
          "internalType": "bytes32",
          "name": "_parentId",
          "type": "bytes32"
        }
      ],
      "name": "initialize",
      "outputs": [
        {
          "internalType": "uint256",
          "name": "",
          "type": "uint256"
        },
        {
          "internalType": "bytes32",
          "name": "",
          "type": "bytes32"
        }
      ],
      "payable": false,
      "stateMutability": "nonpayable",
      "type": "function"
    },
    {
      "constant": false,
      "inputs": [
        {
          "internalType": "bytes32",
          "name": "_blocksMerkleRoot",
          "type": "bytes32"
        },
        {
          "internalType": "uint256",
          "name": "_timestamp",
          "type": "uint256"
        },
        {
          "internalType": "uint256",
          "name": "_mtpTimestamp",
          "type": "uint256"
        },
        {
          "internalType": "bytes32",
          "name": "_lastHash",
          "type": "bytes32"
        },
        {
          "internalType": "uint32",
          "name": "_lastBits",
          "type": "uint32"
        },
        {
          "internalType": "bytes32",
          "name": "_parentId",
          "type": "bytes32"
        },
        {
          "internalType": "address",
          "name": "submitter",
          "type": "address"
        }
      ],
      "name": "propose",
      "outputs": [
        {
          "internalType": "uint256",
          "name": "",
          "type": "uint256"
        },
        {
          "internalType": "bytes32",
          "name": "",
          "type": "bytes32"
        }
      ],
      "payable": false,
      "stateMutability": "nonpayable",
      "type": "function"
    },
    {
      "constant": false,
      "inputs": [
        {
          "internalType": "bytes32",
          "name": "_superblockHash",
          "type": "bytes32"
        },
        {
          "internalType": "address",
          "name": "_validator",
          "type": "address"
        }
      ],
      "name": "confirm",
      "outputs": [
        {
          "internalType": "uint256",
          "name": "",
          "type": "uint256"
        }
      ],
      "payable": false,
      "stateMutability": "nonpayable",
      "type": "function"
    },
    {
      "constant": false,
      "inputs": [
        {
          "internalType": "bytes32",
          "name": "_superblockHash",
          "type": "bytes32"
        },
        {
          "internalType": "address",
          "name": "_challenger",
          "type": "address"
        }
      ],
      "name": "challenge",
      "outputs": [
        {
          "internalType": "uint256",
          "name": "",
          "type": "uint256"
        }
      ],
      "payable": false,
      "stateMutability": "nonpayable",
      "type": "function"
    },
    {
      "constant": false,
      "inputs": [
        {
          "internalType": "bytes32",
          "name": "_superblockHash",
          "type": "bytes32"
        },
        {
          "internalType": "address",
          "name": "_validator",
          "type": "address"
        }
      ],
      "name": "semiApprove",
      "outputs": [
        {
          "internalType": "uint256",
          "name": "",
          "type": "uint256"
        }
      ],
      "payable": false,
      "stateMutability": "nonpayable",
      "type": "function"
    },
    {
      "constant": false,
      "inputs": [
        {
          "internalType": "bytes32",
          "name": "_superblockHash",
          "type": "bytes32"
        },
        {
          "internalType": "address",
          "name": "_validator",
          "type": "address"
        }
      ],
      "name": "invalidate",
      "outputs": [
        {
          "internalType": "uint256",
          "name": "",
          "type": "uint256"
        }
      ],
      "payable": false,
      "stateMutability": "nonpayable",
      "type": "function"
    },
    {
      "constant": false,
      "inputs": [
        {
          "internalType": "bytes",
          "name": "_txBytes",
          "type": "bytes"
        },
        {
          "internalType": "uint256",
          "name": "_txIndex",
          "type": "uint256"
        },
        {
          "internalType": "uint256[]",
          "name": "_txSiblings",
          "type": "uint256[]"
        },
        {
          "internalType": "bytes",
          "name": "_syscoinBlockHeader",
          "type": "bytes"
        },
        {
          "internalType": "uint256",
          "name": "_syscoinBlockIndex",
          "type": "uint256"
        },
        {
          "internalType": "uint256[]",
          "name": "_syscoinBlockSiblings",
          "type": "uint256[]"
        },
        {
          "internalType": "bytes32",
          "name": "_superblockHash",
          "type": "bytes32"
        }
      ],
      "name": "relayTx",
      "outputs": [
        {
          "internalType": "uint256",
          "name": "",
          "type": "uint256"
        }
      ],
      "payable": false,
      "stateMutability": "nonpayable",
      "type": "function"
    },
    {
      "constant": false,
      "inputs": [
        {
          "internalType": "bytes",
          "name": "_txBytes",
          "type": "bytes"
        },
        {
          "internalType": "uint256",
          "name": "_txIndex",
          "type": "uint256"
        },
        {
          "internalType": "uint256[]",
          "name": "_txSiblings",
          "type": "uint256[]"
        },
        {
          "internalType": "bytes",
          "name": "_syscoinBlockHeader",
          "type": "bytes"
        },
        {
          "internalType": "uint256",
          "name": "_syscoinBlockIndex",
          "type": "uint256"
        },
        {
          "internalType": "uint256[]",
          "name": "_syscoinBlockSiblings",
          "type": "uint256[]"
        },
        {
          "internalType": "bytes32",
          "name": "_superblockHash",
          "type": "bytes32"
        }
      ],
      "name": "challengeCancelTransfer",
      "outputs": [
        {
          "internalType": "uint256",
          "name": "",
          "type": "uint256"
        }
      ],
      "payable": false,
      "stateMutability": "nonpayable",
      "type": "function"
    },
    {
      "constant": true,
      "inputs": [
        {
          "internalType": "bytes32",
          "name": "_blocksMerkleRoot",
          "type": "bytes32"
        },
        {
          "internalType": "uint256",
          "name": "_timestamp",
          "type": "uint256"
        },
        {
          "internalType": "uint256",
          "name": "_mtpTimestamp",
          "type": "uint256"
        },
        {
          "internalType": "bytes32",
          "name": "_lastHash",
          "type": "bytes32"
        },
        {
          "internalType": "uint32",
          "name": "_lastBits",
          "type": "uint32"
        },
        {
          "internalType": "bytes32",
          "name": "_parentId",
          "type": "bytes32"
        }
      ],
      "name": "calcSuperblockHash",
      "outputs": [
        {
          "internalType": "bytes32",
          "name": "",
          "type": "bytes32"
        }
      ],
      "payable": false,
      "stateMutability": "pure",
      "type": "function"
    },
    {
      "constant": true,
      "inputs": [],
      "name": "getBestSuperblock",
      "outputs": [
        {
          "internalType": "bytes32",
          "name": "",
          "type": "bytes32"
        }
      ],
      "payable": false,
      "stateMutability": "view",
      "type": "function"
    },
    {
      "constant": true,
      "inputs": [
        {
          "internalType": "bytes32",
          "name": "superblockHash",
          "type": "bytes32"
        }
      ],
      "name": "getSuperblock",
      "outputs": [
        {
          "internalType": "bytes32",
          "name": "_blocksMerkleRoot",
          "type": "bytes32"
        },
        {
          "internalType": "uint256",
          "name": "_timestamp",
          "type": "uint256"
        },
        {
          "internalType": "uint256",
          "name": "_mtpTimestamp",
          "type": "uint256"
        },
        {
          "internalType": "bytes32",
          "name": "_lastHash",
          "type": "bytes32"
        },
        {
          "internalType": "uint32",
          "name": "_lastBits",
          "type": "uint32"
        },
        {
          "internalType": "bytes32",
          "name": "_parentId",
          "type": "bytes32"
        },
        {
          "internalType": "address",
          "name": "_submitter",
          "type": "address"
        },
        {
          "internalType": "enum SyscoinSuperblocksI.Status",
          "name": "_status",
          "type": "uint8"
        },
        {
          "internalType": "uint32",
          "name": "_height",
          "type": "uint32"
        }
      ],
      "payable": false,
      "stateMutability": "view",
      "type": "function"
    },
    {
      "constant": true,
      "inputs": [
        {
          "internalType": "bytes32",
          "name": "superblockHash",
          "type": "bytes32"
        }
      ],
      "name": "getSuperblockHeight",
      "outputs": [
        {
          "internalType": "uint32",
          "name": "",
          "type": "uint32"
        }
      ],
      "payable": false,
      "stateMutability": "view",
      "type": "function"
    },
    {
      "constant": true,
      "inputs": [
        {
          "internalType": "bytes32",
          "name": "_superblockHash",
          "type": "bytes32"
        }
      ],
      "name": "getSuperblockTimestamp",
      "outputs": [
        {
          "internalType": "uint256",
          "name": "",
          "type": "uint256"
        }
      ],
      "payable": false,
      "stateMutability": "view",
      "type": "function"
    },
    {
      "constant": true,
      "inputs": [
        {
          "internalType": "bytes32",
          "name": "_superblockHash",
          "type": "bytes32"
        }
      ],
      "name": "getSuperblockMedianTimestamp",
      "outputs": [
        {
          "internalType": "uint256",
          "name": "",
          "type": "uint256"
        }
      ],
      "payable": false,
      "stateMutability": "view",
      "type": "function"
    },
    {
      "constant": true,
      "inputs": [
        {
          "internalType": "bytes32",
          "name": "_superblockHash",
          "type": "bytes32"
        }
      ],
      "name": "getSuperblockParentId",
      "outputs": [
        {
          "internalType": "bytes32",
          "name": "",
          "type": "bytes32"
        }
      ],
      "payable": false,
      "stateMutability": "view",
      "type": "function"
    },
    {
      "constant": true,
      "inputs": [
        {
          "internalType": "bytes32",
          "name": "_superblockHash",
          "type": "bytes32"
        }
      ],
      "name": "getSuperblockStatus",
      "outputs": [
        {
          "internalType": "enum SyscoinSuperblocksI.Status",
          "name": "",
          "type": "uint8"
        }
      ],
      "payable": false,
      "stateMutability": "view",
      "type": "function"
    },
    {
      "constant": true,
      "inputs": [],
      "name": "getChainHeight",
      "outputs": [
        {
          "internalType": "uint256",
          "name": "",
          "type": "uint256"
        }
      ],
      "payable": false,
      "stateMutability": "view",
      "type": "function"
    },
    {
      "constant": true,
      "inputs": [
        {
          "internalType": "uint256",
          "name": "_height",
          "type": "uint256"
        }
      ],
      "name": "getSuperblockAt",
      "outputs": [
        {
          "internalType": "bytes32",
          "name": "",
          "type": "bytes32"
        }
      ],
      "payable": false,
      "stateMutability": "view",
      "type": "function"
    }
  ],
  "bytecode": "0x608060405234801561001057600080fd5b5061412f806100206000396000f3fe608060405234801561001057600080fd5b50600436106102745760003560e01c8063828fa8b411610151578063cae0581e116100c3578063f06d520d11610087578063f06d520d1461169f578063f09a4016146116a7578063f91f681f146116d7578063f9b5d7c0146116fa578063fbb381a71461179b578063fc96c3961461184157610274565b8063cae0581e146113df578063d0f9410b14611420578063d5c9712f146114cd578063e8f421df14611576578063ed8609761461165e57610274565b8063b79bbf4611610115578063b79bbf4614610f49578063b7a8121814610fef578063c0dde98b14611095578063c1f67ab3146110b2578063c63128aa146110de578063c8bd7768146111a057610274565b8063828fa8b414610e5257806395b45ee714610e935780639e20c80314610ebf578063a76a9b0f14610f0f578063b6f6580a14610f2c57610274565b80634b6986fd116101ea57806355e018ce116101ae57806355e018ce14610cb85780635b57281214610cd55780635ec0aedd14610cdd5780636823c56b14610ce55780636e5b707114610d895780637420578614610e2657610274565b80634b6986fd146109485780634d7dcfbd14610a0b5780635358493914610aca57806353a3273d14610b70578063543a86f614610c1457610274565b80632da8cffd1161023c5780632da8cffd146106825780632e4001911461069f5780632ef955e4146106bc5780633e0e8a2014610765578063455e616614610883578063484162be1461088b57610274565b8063029c5e2a146102795780630c9897d214610338578063155ee894146103f3578063244430381461041757806327426f7514610656575b600080fd5b61031f6004803603604081101561028f57600080fd5b810190602081018135600160201b8111156102a957600080fd5b8201836020820111156102bb57600080fd5b803590602001918460018302840111600160201b831117156102dc57600080fd5b91908080601f01602080910402602001604051908101604052809392919081815260200183838082843760009201919091525092955050913592506118e7915050565b6040805163ffffffff9092168252519081900360200190f35b6103e16004803603606081101561034e57600080fd5b810190602081018135600160201b81111561036857600080fd5b82018360208201111561037a57600080fd5b803590602001918460018302840111600160201b8311171561039b57600080fd5b91908080601f0160208091040260200160405190810160405280939291908181526020018383808284376000920191909152509295505082359350505060200135611923565b60408051918252519081900360200190f35b6103fb6119e6565b604080516001600160a01b039092168252519081900360200190f35b6103e1600480360360e081101561042d57600080fd5b810190602081018135600160201b81111561044757600080fd5b82018360208201111561045957600080fd5b803590602001918460018302840111600160201b8311171561047a57600080fd5b91908080601f01602080910402602001604051908101604052809392919081815260200183838082843760009201919091525092958435959094909350604081019250602001359050600160201b8111156104d457600080fd5b8201836020820111156104e657600080fd5b803590602001918460208302840111600160201b8311171561050757600080fd5b9190808060200260200160405190810160405280939291908181526020018383602002808284376000920191909152509295949360208101935035915050600160201b81111561055657600080fd5b82018360208201111561056857600080fd5b803590602001918460018302840111600160201b8311171561058957600080fd5b91908080601f01602080910402602001604051908101604052809392919081815260200183838082843760009201919091525092958435959094909350604081019250602001359050600160201b8111156105e357600080fd5b8201836020820111156105f557600080fd5b803590602001918460208302840111600160201b8311171561061657600080fd5b91908080602002602001604051908101604052809392919081815260200183836020028082843760009201919091525092955050913592506119f5915050565b6103e16004803603604081101561066c57600080fd5b50803590602001356001600160a01b0316611b85565b6103e16004803603602081101561069857600080fd5b5035611cbd565b61031f600480360360208110156106b557600080fd5b5035611cd5565b6103e1600480360360608110156106d257600080fd5b810190602081018135600160201b8111156106ec57600080fd5b8201836020820111156106fe57600080fd5b803590602001918460018302840111600160201b8311171561071f57600080fd5b91908080601f0160208091040260200160405190810160405280939291908181526020018383808284376000920191909152509295505082359350505060200135611cf7565b61080e6004803603606081101561077b57600080fd5b810190602081018135600160201b81111561079557600080fd5b8201836020820111156107a757600080fd5b803590602001918460018302840111600160201b831117156107c857600080fd5b91908080601f0160208091040260200160405190810160405280939291908181526020018383808284376000920191909152509295505082359350505060200135611d1c565b6040805160208082528351818301528351919283929083019185019080838360005b83811015610848578181015183820152602001610830565b50505050905090810190601f1680156108755780820380516001836020036101000a031916815260200191505b509250505060405180910390f35b6103e1611d77565b610931600480360360408110156108a157600080fd5b810190602081018135600160201b8111156108bb57600080fd5b8201836020820111156108cd57600080fd5b803590602001918460018302840111600160201b831117156108ee57600080fd5b91908080601f0160208091040260200160405190810160405280939291908181526020018383808284376000920191909152509295505091359250611d83915050565b6040805161ffff9092168252519081900360200190f35b6109ee6004803603604081101561095e57600080fd5b810190602081018135600160201b81111561097857600080fd5b82018360208201111561098a57600080fd5b803590602001918460018302840111600160201b831117156109ab57600080fd5b91908080601f0160208091040260200160405190810160405280939291908181526020018383808284376000920191909152509295505091359250611dc5915050565b6040805167ffffffffffffffff9092168252519081900360200190f35b610ab160048036036040811015610a2157600080fd5b810190602081018135600160201b811115610a3b57600080fd5b820183602082011115610a4d57600080fd5b803590602001918460018302840111600160201b83111715610a6e57600080fd5b91908080601f0160208091040260200160405190810160405280939291908181526020018383808284376000920191909152509295505091359250611ef9915050565b6040805192835260208301919091528051918290030190f35b6103e160048036036040811015610ae057600080fd5b810190602081018135600160201b811115610afa57600080fd5b820183602082011115610b0c57600080fd5b803590602001918460018302840111600160201b83111715610b2d57600080fd5b91908080601f0160208091040260200160405190810160405280939291908181526020018383808284376000920191909152509295505091359250611fac915050565b6103e160048036036020811015610b8657600080fd5b810190602081018135600160201b811115610ba057600080fd5b820183602082011115610bb257600080fd5b803590602001918460018302840111600160201b83111715610bd357600080fd5b91908080601f016020809104026020016040519081016040528093929190818152602001838380828437600092019190915250929550611fb4945050505050565b6103e160048036036020811015610c2a57600080fd5b810190602081018135600160201b811115610c4457600080fd5b820183602082011115610c5657600080fd5b803590602001918460018302840111600160201b83111715610c7757600080fd5b91908080601f016020809104026020016040519081016040528093929190818152602001838380828437600092019190915250929550611fbb945050505050565b6103e160048036036020811015610cce57600080fd5b50356120f8565b6103e161210d565b6103fb612132565b6103e160048036036020811015610cfb57600080fd5b810190602081018135600160201b811115610d1557600080fd5b820183602082011115610d2757600080fd5b803590602001918460018302840111600160201b83111715610d4857600080fd5b91908080601f016020809104026020016040519081016040528093929190818152602001838380828437600092019190915250929550612141945050505050565b610da660048036036020811015610d9f57600080fd5b5035612159565b604051808a81526020018981526020018881526020018781526020018663ffffffff1663ffffffff168152602001858152602001846001600160a01b03166001600160a01b03168152602001836005811115610dfe57fe5b60ff16815263ffffffff90921660208301525060408051918290030198509650505050505050f35b6103e160048036036040811015610e3c57600080fd5b50803590602001356001600160a01b03166121be565b6103e1600480360360c0811015610e6857600080fd5b5080359060208101359060408101359060608101359063ffffffff6080820135169060a001356122f4565b6103e160048036036040811015610ea957600080fd5b50803590602001356001600160a01b031661234c565b610ab1600480360360e0811015610ed557600080fd5b50803590602081013590604081013590606081013590608081013563ffffffff169060a08101359060c001356001600160a01b0316612546565b6103e160048036036020811015610f2557600080fd5b50356127e2565b6103e160048036036020811015610f4257600080fd5b50356127f7565b6103e160048036036040811015610f5f57600080fd5b810190602081018135600160201b811115610f7957600080fd5b820183602082011115610f8b57600080fd5b803590602001918460018302840111600160201b83111715610fac57600080fd5b91908080601f0160208091040260200160405190810160405280939291908181526020018383808284376000920191909152509295505091359250612921915050565b61080e6004803603604081101561100557600080fd5b810190602081018135600160201b81111561101f57600080fd5b82018360208201111561103157600080fd5b803590602001918460018302840111600160201b8311171561105257600080fd5b91908080601f0160208091040260200160405190810160405280939291908181526020018383808284376000920191909152509295505091359250612adb915050565b6103e1600480360360208110156110ab57600080fd5b5035612b9f565b6103e1600480360360408110156110c857600080fd5b50803590602001356001600160a01b0316612bd3565b611182600480360360208110156110f457600080fd5b810190602081018135600160201b81111561110e57600080fd5b82018360208201111561112057600080fd5b803590602001918460018302840111600160201b8311171561114157600080fd5b91908080601f016020809104026020016040519081016040528093929190818152602001838380828437600092019190915250929550612d56945050505050565b6040805192835263ffffffff90911660208301528051918290030190f35b6103e1600480360360e08110156111b657600080fd5b810190602081018135600160201b8111156111d057600080fd5b8201836020820111156111e257600080fd5b803590602001918460018302840111600160201b8311171561120357600080fd5b91908080601f01602080910402602001604051908101604052809392919081815260200183838082843760009201919091525092958435959094909350604081019250602001359050600160201b81111561125d57600080fd5b82018360208201111561126f57600080fd5b803590602001918460208302840111600160201b8311171561129057600080fd5b9190808060200260200160405190810160405280939291908181526020018383602002808284376000920191909152509295949360208101935035915050600160201b8111156112df57600080fd5b8201836020820111156112f157600080fd5b803590602001918460018302840111600160201b8311171561131257600080fd5b91908080601f01602080910402602001604051908101604052809392919081815260200183838082843760009201919091525092958435959094909350604081019250602001359050600160201b81111561136c57600080fd5b82018360208201111561137e57600080fd5b803590602001918460208302840111600160201b8311171561139f57600080fd5b9190808060200260200160405190810160405280939291908181526020018383602002808284376000920191909152509295505091359250612dda915050565b6113fc600480360360208110156113f557600080fd5b5035612f10565b6040518082600581111561140c57fe5b60ff16815260200191505060405180910390f35b6103e16004803603606081101561143657600080fd5b813591602081013591810190606081016040820135600160201b81111561145c57600080fd5b82018360208201111561146e57600080fd5b803590602001918460208302840111600160201b8311171561148f57600080fd5b919080806020026020016040519081016040528093929190818152602001838360200280828437600092019190915250929550612f2f945050505050565b6103e1600480360360608110156114e357600080fd5b810190602081018135600160201b8111156114fd57600080fd5b82018360208201111561150f57600080fd5b803590602001918460018302840111600160201b8311171561153057600080fd5b91908080601f016020809104026020016040519081016040528093929190818152602001838380828437600092019190915250929550508235935050506020013561313e565b61161a6004803603602081101561158c57600080fd5b810190602081018135600160201b8111156115a657600080fd5b8201836020820111156115b857600080fd5b803590602001918460018302840111600160201b831117156115d957600080fd5b91908080601f016020809104026020016040519081016040528093929190818152602001838380828437600092019190915250929550613178945050505050565b6040805196875260208701959095526001600160a01b039384168686015263ffffffff909216606086015260ff1660808501521660a0830152519081900360c00190f35b610ab1600480360360c081101561167457600080fd5b5080359060208101359060408101359060608101359063ffffffff6080820135169060a0013561320f565b6103e1613368565b6116d5600480360360408110156116bd57600080fd5b506001600160a01b038135811691602001351661336e565b005b6103e1600480360360208110156116ed57600080fd5b503563ffffffff16613499565b6103e16004803603602081101561171057600080fd5b810190602081018135600160201b81111561172a57600080fd5b82018360208201111561173c57600080fd5b803590602001918460208302840111600160201b8311171561175d57600080fd5b9190808060200260200160405190810160405280939291908181526020018383602002808284376000920191909152509295506134bc945050505050565b61080e600480360360408110156117b157600080fd5b810190602081018135600160201b8111156117cb57600080fd5b8201836020820111156117dd57600080fd5b803590602001918460018302840111600160201b831117156117fe57600080fd5b91908080601f0160208091040260200160405190810160405280939291908181526020018383808284376000920191909152509295505091359250613774915050565b61031f6004803603604081101561185757600080fd5b810190602081018135600160201b81111561187157600080fd5b82018360208201111561188357600080fd5b803590602001918460018302840111600160201b831117156118a457600080fd5b91908080601f016020809104026020016040519081016040528093929190818152602001838380828437600092019190915250929550509135925061386a915050565b6000816020840101516040518160031a60008201538160021a60018201538160011a60028201538160001a60038201535160e01c949350505050565b60006119de6002611935868686611cf7565b604051602001808281526020019150506040516020818303038152906040526040518082805190602001908083835b602083106119835780518252601f199092019160209182019101611964565b51815160209384036101000a60001901801990921691161790526040519190930194509192505080830381855afa1580156119c2573d6000803e3d6000fd5b5050506040513d60208110156119d757600080fd5b50516127f7565b949350505050565b6036546001600160a01b031681565b600080611a07868686868d8d8d6138f9565b90508015611b3657600080600080600080611a218f613178565b939a50919850929650919450925090508315611a8157604080518881526020810186905281517f4e64138cc499eb1adf9edff9ef69bd45c56ac4bfd307540952e4c9d51eab55c1929181900390910190a183975050505050505050611b7a565b60355460008a8152603360205260408082206005015481516315eade2b60e31b8152600481018c9052602481018b90526001600160a01b038a811660448301529182166064820152868216608482015263ffffffff881660a482015260ff861660c4820152915193169263af56f1589260e48084019391929182900301818387803b158015611b0f57600080fd5b505af1158015611b23573d6000803e3d6000fd5b5050505085975050505050505050611b7a565b604080516000815261753a602082015281517f4e64138cc499eb1adf9edff9ef69bd45c56ac4bfd307540952e4c9d51eab55c1929181900390910190a161753a9150505b979650505050505050565b6036546000906001600160a01b03163314611bcd576040805184815261c39660208201528151600080516020613fae833981519152929181900390910190a15061c396611cb7565b60008381526033602052604090206002600582810154600160e01b900460ff1690811115611bf757fe5b14158015611c1f57506001600582810154600160e01b900460ff1690811115611c1c57fe5b14155b15611c59576040805185815261c36460208201528151600080516020613fae833981519152929181900390910190a161c364915050611cb7565b60058101805460ff60e01b1916600360e01b179055604080518581526001600160a01b038516602082015281517f87f54f5eb3dd119fe71af0915af693e64a5bfd4acaa19a6c944c47cff8eec9e6929181900390910190a160009150505b92915050565b6000818152603360205260409020600101545b919050565b600090815260336020526040902060050154600160c01b900463ffffffff1690565b60006040516020818486602089010160025afa611d1357600080fd5b51949350505050565b6060600083830390506060816040519080825280601f01601f191660200182016040528015611d52576020820181803883390190505b5090508160208201838760208a010160045afa611d6e57600080fd5b95945050505050565b6729a2241af62c000081565b6000828281518110611d9157fe5b602001015160f81c60f81b60f81c60ff1661010002838360010181518110611db557fe5b016020015160f81c019392505050565b6000828281518110611dd357fe5b602001015160f81c60f81b60f81c60ff1667010000000000000002838360010181518110611dfd57fe5b602001015160f81c60f81b60f81c60ff16660100000000000002848460020181518110611e2657fe5b602001015160f81c60f81b60f81c60ff166501000000000002858560030181518110611e4e57fe5b602001015160f81c60f81b60f81c60ff16600160201b02868660040181518110611e7457fe5b602001015160f81c60f81b60f81c60ff16630100000002878760050181518110611e9a57fe5b602001015160f81c60f81b60f81c60ff166201000002888860060181518110611ebf57fe5b602001015160f81c60f81b60f81c60ff1661010002898960070181518110611ee357fe5b016020015160f81c010101010101019392505050565b6000806000848481518110611f0a57fe5b01602001516001949094019360f81c905060fd811015611f315760ff169150829050611fa5565b8060ff1660fd1415611f5757611f498585601061313e565b846002019250925050611fa5565b8060ff1660fe1415611f7d57611f6f8585602061313e565b846004019250925050611fa5565b8060ff1660ff1415611fa357611f958585604061313e565b846008019250925050611fa5565b505b9250929050565b016020015190565b6060015190565b6000611cb7600280846040516020018082805190602001908083835b60208310611ff65780518252601f199092019160209182019101611fd7565b6001836020036101000a0380198251168184511680821785525050505050509050019150506040516020818303038152906040526040518082805190602001908083835b602083106120595780518252601f19909201916020918201910161203a565b51815160209384036101000a60001901801990921691161790526040519190930194509192505080830381855afa158015612098573d6000803e3d6000fd5b5050506040513d60208110156120ad57600080fd5b5051604080516020818101939093528151808203840181529082019182905280519092829190840190808383602083106119835780518252601f199092019160209182019101611964565b60009081526033602052604090206004015490565b603454600090815260336020526040902060050154600160c01b900463ffffffff1690565b6035546001600160a01b031681565b6044810151600090612152816127f7565b9392505050565b600090815260336020526040902080546001820154600283015460038401546005850154600490950154939592949193909263ffffffff600160a01b84048116936001600160a01b0381169260ff600160e01b83041692600160c01b90920490911690565b6036546000906001600160a01b03163314612206576040805184815261c39660208201528151600080516020613fae833981519152929181900390910190a15061c396611cb7565b60008381526033602052604090206002600582810154600160e01b900460ff169081111561223057fe5b1415801561225857506003600582810154600160e01b900460ff169081111561225557fe5b14155b15612292576040805185815261c36460208201528151600080516020613fae833981519152929181900390910190a161c364915050611cb7565b60058101805460ff60e01b1916600560e01b179055604080518581526001600160a01b038516602082015281517f64297372062dfcb21d6f7385f68d4656e993be2bb674099e3de73128d4911a91929181900390910190a15060009392505050565b60408051602080820198909852808201969096526060860194909452608085019290925260e01b6001600160e01b03191660a084015260a4808401919091528151808403909101815260c49092019052805191012090565b6036546000906001600160a01b03163314612394576040805184815261c39660208201528151600080516020613fae833981519152929181900390910190a15061c396611cb7565b60008381526033602052604090206001600582810154600160e01b900460ff16908111156123be57fe5b141580156123e657506003600582810154600160e01b900460ff16908111156123e357fe5b14155b15612420576040805185815261c36460208201528151600080516020613fae833981519152929181900390910190a161c364915050611cb7565b61242861210d565b6005820154600160c01b900463ffffffff1611612474576040805185815261c3fa60208201528151600080516020613fae833981519152929181900390910190a161c3fa915050611cb7565b600480820154600090815260336020526040902090600582810154600160e01b900460ff16908111156124a357fe5b146124de576040805186815261c37860208201528151600080516020613fae833981519152929181900390910190a161c37892505050611cb7565b60058201805460ff60e01b1916600160e21b1790556034859055604080518681526001600160a01b038616602082015281517ff2dbbf0abb1ab1870a5e4d02746747c91d167c855255440b573ba3b5529dc901929181900390910190a1506000949350505050565b60365460009081906001600160a01b0316331461259557604080516000815261c39660208201528151600080516020613fae833981519152929181900390910190a15061c396905060006127d6565b60008481526033602052604090206003600582810154600160e01b900460ff16908111156125bf57fe5b141580156125e757506004600582810154600160e01b900460ff16908111156125e457fe5b14155b1561266057600080516020613fae8339815191528582600501601c9054906101000a900460ff16600581111561261957fe5b6040805192835261c3789190910160208301528051918290030190a1600581810154600160e01b900460ff169081111561264f57fe5b61c378019250600091506127d69050565b61266861210d565b6005820154600160c01b900463ffffffff1610156126b9576040805186815261c3fa60208201528151600080516020613fae833981519152929181900390910190a15061c3fa9150600090506127d6565b60006126c98b8b8b8b8b8b6122f4565b6000818152603360205260408120919250600582810154600160e01b900460ff16908111156126f457fe5b1415612765578b815560018082018c9055600282018b9055600382018a905560048201889055600580850154908301805463ffffffff8c8116600160a01b0263ffffffff60a01b19600160c01b95869004831690960190911690930263ffffffff60c01b1990911617929092161790555b60058101805460ff60e01b1916600160e01b176001600160a01b0319166001600160a01b03881690811790915560408051848152602081019290925280517f64951c9008bba9f4663c12662e7a9b6412a7c4757869fdac09285564ae923fa19281900390910190a150600093509150505b97509795505050505050565b60009081526033602052604090206002015490565b60405160009060ff8316815382601e1a600182015382601d1a600282015382601c1a600382015382601b1a600482015382601a1a60058201538260191a60068201538260181a60078201538260171a60088201538260161a60098201538260151a600a8201538260141a600b8201538260131a600c8201538260121a600d8201538260111a600e8201538260101a600f82015382600f1a601082015382600e1a601182015382600d1a601282015382600c1a601382015382600b1a601482015382600a1a60158201538260091a60168201538260081a60178201538260071a60188201538260061a60198201538260051a601a8201538260041a601b8201538260031a601c8201538260021a601d8201538260011a601e8201538260001a601f8201535192915050565b60008060008060006129338787611ef9565b9650935083612995576129468787611ef9565b96509350836129865760405162461bcd60e51b815260040180806020018281038252603e815260200180614036603e913960400191505060405180910390fd5b6129908787611ef9565b965093505b606484106129d45760405162461bcd60e51b81526004018080602001828103825260438152602001806140b86043913960600191505060405180910390fd5b60005b84811015612a00576024870196506129ef8888611ef9565b8101600401975093506001016129d7565b50612a0b8787611ef9565b96509050600a8110612a4e5760405162461bcd60e51b81526004018080602001828103825260448152602001806140746044913960600191505060405180910390fd5b60005b81811015612aa357600887019650612a698888611ef9565b97509350612a778888613941565b612a88579583019560009250612a9b565b6001870196508695505050505050611cb7565b600101612a51565b5060405162461bcd60e51b815260040180806020018281038252603a815260200180613fce603a913960400191505060405180910390fd5b60408051600080825260208201909252606091612af88585611ef9565b810194509050612b088585611ef9565b810194509050612b188585611ef9565b810194509050612b288585611ef9565b810194509050612b388585611ef9565b945090506002811415612b87576000612b518686611d83565b948201949050612b618686611ef9565b61ffff83169081019650909250612b7f908790879085038101611d1c565b925050612b97565b612b948585838701611d1c565b91505b509392505050565b6034546000905b82612bb082611cd5565b63ffffffff161115611cb757600090815260336020526040902060040154612ba6565b6036546000906001600160a01b03163314612c1b576040805184815261c39660208201528151600080516020613fae833981519152929181900390910190a15061c396611cb7565b60008381526033602052604090206001600582810154600160e01b900460ff1690811115612c4557fe5b14158015612c6d57506002600582810154600160e01b900460ff1690811115612c6a57fe5b14155b15612ca7576040805185815261c36460208201528151600080516020613fae833981519152929181900390910190a161c364915050611cb7565b60058101546001600160a01b0384811691161415612cf4576040805185815261c38760208201528151600080516020613fae833981519152929181900390910190a161c387915050611cb7565b60058101805460ff60e01b1916600160e11b179055604080518581526001600160a01b038516602082015281517f09cdaca254aa177f759fe7a0968fe696ee9baf7d2a1d4714ed24b83d1f09518e929181900390910190a15060009392505050565b6000808080612d6585826118e7565b915063ffffffff821661740614612d8357506127ba9250612dd59050565b612d8e856004612921565b60030190507faabab1db49e504b5156edf3f99042aeecb9607a08f392589571cd49743aaba8d612dcf612dca612dc48885612adb565b83613774565b611fb4565b93505050505b915091565b600080612dec868686868d8d8d6138f9565b90508015612ecb57600080612e008b612d56565b925090508015612e4f57604080518481526020810183905281517f4e64138cc499eb1adf9edff9ef69bd45c56ac4bfd307540952e4c9d51eab55c1929181900390910190a19250611b7a915050565b60355460408051636cde8d6f60e01b815263ffffffff8516600482015233602482015290516001600160a01b0390921691636cde8d6f9160448082019260009290919082900301818387803b158015612ea757600080fd5b505af1158015612ebb573d6000803e3d6000fd5b5050505060009350505050611b7a565b60408051617544815290517f52fd0c7e41cb237ece28ba61808cab7bb72873b2dba5b827c5b65bb092102d379181900360200190a15061754498975050505050505050565b600090815260336020526040902060050154600160e01b900460ff1690565b8051600090815b81811015612f7957612f5a848281518110612f4d57fe5b60200260200101516127f7565b848281518110612f6657fe5b6020908102919091010152600101612f36565b50600080612f86876127f7565b90505b82821015613135576000858381518110612f9f57fe5b6020026020010151905060008060028981612fb657fe5b0660011415612fc9575081905082612fcf565b50829050815b600280838360405160200180838152602001828152602001925050506040516020818303038152906040526040518082805190602001908083835b602083106130295780518252601f19909201916020918201910161300a565b51815160209384036101000a60001901801990921691161790526040519190930194509192505080830381855afa158015613068573d6000803e3d6000fd5b5050506040513d602081101561307d57600080fd5b50516040805160208181019390935281518082038401815290820191829052805190928291908401908083835b602083106130c95780518252601f1990920191602091820191016130aa565b51815160209384036101000a60001901801990921691161790526040519190930194509192505080830381855afa158015613108573d6000803e3d6000fd5b5050506040513d602081101561311d57600080fd5b50519350600289049850600185019450505050612f89565b611b7a816127f7565b6000805b60088304811015612b97578060080260020a858286018151811061316257fe5b016020015160f81c029190910190600101613142565b60008080808080808080808080806131908e826118e7565b935063ffffffff8416617407146131bd57506127ba9b509499509197509195509193509091506132069050565b6131c88e6004612921565b90506131d48e82613970565b809750819650829a50839950849b505050505050600087868885878595509c509c509c509c509c509c50505050505050505b91939550919395565b60345460009081901561322157600080fd5b821561322c57600080fd5b600061323c8989898989896122f4565b6000818152603360205260408120919250600582810154600160e01b900460ff169081111561326757fe5b1461327157600080fd5b89815560018101899055600281018890556003810187905560048101859055600581018054600160c01b336001600160a01b0319909216821763ffffffff60c01b19161763ffffffff60a01b1916600160a01b63ffffffff8a16021760ff60e01b1916600160e21b1790915560408051848152602081019290925280517f64951c9008bba9f4663c12662e7a9b6412a7c4757869fdac09285564ae923fa19281900390910190a160348290556040805183815233602082015281517ff2dbbf0abb1ab1870a5e4d02746747c91d167c855255440b573ba3b5529dc901929181900390910190a1506000999098509650505050505050565b60345490565b600054610100900460ff16806133875750613387613a9b565b80613395575060005460ff16155b6133d05760405162461bcd60e51b815260040180806020018281038252602e815260200180614008602e913960400191505060405180910390fd5b600054610100900460ff161580156133fb576000805460ff1961ff0019909116610100171660011790555b6035546001600160a01b031615801561341c57506001600160a01b03831615155b61342557600080fd5b603580546001600160a01b0319166001600160a01b03858116919091179091556036541615801561345e57506001600160a01b03821615155b61346757600080fd5b603680546001600160a01b0319166001600160a01b0384161790558015613494576000805461ff00191690555b505050565b62ffffff8116630100000063ffffffff92831604909116600219016101000a0290565b805160009060018114156134e757826000815181106134d757fe5b6020026020010151915050611cd0565b60008111613532576040805162461bcd60e51b81526020600482015260136024820152724d7573742070726f766964652068617368657360681b604482015290519081900360640190fd5b60005b8181101561357e5761355c84828151811061354c57fe5b602002602001015160001c6127f7565b60001b84828151811061356b57fe5b6020908102919091010152600101613535565b6000805b600184111561375a575060009150815b83831015613752578383600101106135ad57600184036135b2565b826001015b91506002808785815181106135c357fe5b60200260200101518885815181106135d757fe5b602002602001015160405160200180838152602001828152602001925050506040516020818303038152906040526040518082805190602001908083835b602083106136345780518252601f199092019160209182019101613615565b51815160209384036101000a60001901801990921691161790526040519190930194509192505080830381855afa158015613673573d6000803e3d6000fd5b5050506040513d602081101561368857600080fd5b50516040805160208181019390935281518082038401815290820191829052805190928291908401908083835b602083106136d45780518252601f1990920191602091820191016136b5565b51815160209384036101000a60001901801990921691161790526040519190930194509192505080830381855afa158015613713573d6000803e3d6000fd5b5050506040513d602081101561372857600080fd5b5051865187908390811061373857fe5b602090810291909101015260029290920191600101613592565b809350613582565b61376a8660008151811061354c57fe5b9695505050505050565b60608061378861378385613aa1565b613ac6565b905060606137a98260038151811061379c57fe5b6020026020010151613ac6565b905060005b815181101561382a5760606137c883838151811061379c57fe5b905060606137e9826001815181106137dc57fe5b6020026020010151613b97565b905060006137f8826001611fac565b90508781141561381f57613812836002815181106137dc57fe5b9650505050505050611cb7565b5050506001016137ae565b506040805162461bcd60e51b815260206004820152600f60248201526e151bdc1a58c81b9bdd08199bdd5b99608a1b604482015290519081900360640190fd5b600082828151811061387857fe5b602001015160f81c60f81b60f81c60ff1663010000000283836001018151811061389e57fe5b602001015160f81c60f81b60f81c60ff1662010000028484600201815181106138c357fe5b602001015160f81c60f81b60f81c60ff16610100028585600301815181106138e757fe5b016020015160f81c0101019392505050565b60008481526033602052604081205461391b6139148a611fbb565b8989612f2f565b1461392857506000611b7a565b6139358484848b89613c10565b98975050505050505050565b8151600090603560f91b9084908490811061395857fe5b01602001516001600160f81b03191614905092915050565b600080600080600080600080600080600061398b8d8d613c97565b9c509050600460ff82161461399f57600080fd5b6139a98d8d61386a565b95508060ff168c019b506139bd8d8d613c97565b9c509050600860ff8216146139d157600080fd5b6139db8d8d611dc5565b67ffffffffffffffff1692508060ff168c019b506139f98d8d613c97565b9c509050601460ff821614613a0d57600080fd5b613a178d8d613cc9565b94508060ff168c019b50613a2b8d8d613c97565b9c509050600160ff821614613a3f57600080fd5b8c8c81518110613a4b57fe5b016020015160ff82169c909c019b60f81c9150613a688d8d613c97565b9c509050601460ff821614613a7c57600080fd5b613a868d8d613cc9565b929d949c50949a509850965090945050505050565b303b1590565b613aa9613f93565b506040805180820190915281518152602082810190820152919050565b6060613ad182613cd1565b613ada57600080fd5b6000613ae583613d0b565b9050606081604051908082528060200260200182016040528015613b2357816020015b613b10613f93565b815260200190600190039081613b085790505b5090506000613b358560200151613d67565b60208601510190506000805b84811015613b8c57613b5283613dca565b9150604051806040016040528083815260200184815250848281518110613b7557fe5b602090810291909101015291810191600101613b41565b509195945050505050565b8051606090613ba557600080fd5b6000613bb48360200151613d67565b83516040805191839003808352601f19601f8201168301602001909152919250606090828015613beb576020820181803883390190505b5090506000816020019050613c07848760200151018285613e63565b50949350505050565b600080613c1c87611fbb565b9050865160401415613c6e5760408051828152614e5c602082015281517f65bd72698b9ffcfb3c7cb4c7414e13225cabd57fb690e183ae8c01c8ec268ebd929181900390910190a16000915050611d6e565b613c7b8187878787613eae565b60011415613c8a579050611d6e565b5060009695505050505050565b60008083518310613ca757600080fd5b838381518110613cb357fe5b016020015160f81c915050600182019250929050565b016014015190565b8051600090613ce257506000611cd0565b6020820151805160001a9060c0821015613d0157600092505050611cd0565b5060019392505050565b8051600090613d1c57506000611cd0565b60008090506000613d308460200151613d67565b602085015185519181019250015b80821015613d5e57613d4f82613dca565b60019093019290910190613d3e565b50909392505050565b8051600090811a6080811015613d81576000915050611cd0565b60b8811080613d9c575060c08110801590613d9c575060f881105b15613dab576001915050611cd0565b60c0811015613dbf5760b519019050611cd0565b60f519019050611cd0565b80516000908190811a6080811015613de55760019150613e5c565b60b8811015613dfa57607e1981019150613e5c565b60c0811015613e275760b78103600185019450806020036101000a85510460018201810193505050613e5c565b60f8811015613e3c5760be1981019150613e5c565b60f78103600185019450806020036101000a855104600182018101935050505b5092915050565b80613e6d57613494565b5b60208110613e8d578251825260209283019290910190601f1901613e6e565b915181516020939093036101000a6000190180199091169216919091179052565b6000613eb982613f74565b613f025760408051878152614e3e602082015281517f65bd72698b9ffcfb3c7cb4c7414e13225cabd57fb690e183ae8c01c8ec268ebd929181900390910190a150614e3e611d6e565b6000613f0d84612141565b905080613f1b888888612f2f565b14613f675760408051888152614e52602082015281517f65bd72698b9ffcfb3c7cb4c7414e13225cabd57fb690e183ae8c01c8ec268ebd929181900390910190a1614e52915050611d6e565b5060019695505050505050565b60006004613f8183612f10565b6005811115613f8c57fe5b1492915050565b60405180604001604052806000815260200160008152509056fea57c1ba4cf2c89b3558cfeeca4339e04551f0fc1a12cf63f1923c2eed8a5be8b23537973636f696e4d6573736167654c696272617279206765744f7052657475726e506f7328293a204e6f204f7052657475726e20666f756e64436f6e747261637420696e7374616e63652068617320616c7265616479206265656e20696e697469616c697a656423537973636f696e4d6573736167654c696272617279206765744f7052657475726e506f7328293a20556e65787065637465642064756d6d792f666c616723537973636f696e4d6573736167654c696272617279206765744f7052657475726e506f7328293a20496e636f72726563742073697a65206f66206e5f6f75747075747323537973636f696e4d6573736167654c696272617279206765744f7052657475726e506f7328293a20496e636f72726563742073697a65206f66206e5f696e70757473a265627a7a7231582048d87f23c8dfdbaac44c06f726246520fc172692f96467917d699d6073c448f564736f6c634300050d0032",
  "source": "pragma solidity ^0.5.13;\n\nimport './interfaces/SyscoinSuperblocksI.sol';\nimport \"./SyscoinErrorCodes.sol\";\nimport \"./SyscoinTransactionProcessor.sol\";\nimport \"@openzeppelin/upgrades/contracts/Initializable.sol\";\nimport \"./SyscoinParser/SyscoinMessageLibrary.sol\";\n\n// @dev - Manages superblocks\n//\n// Management of superblocks and status transitions\ncontract SyscoinSuperblocks is Initializable, SyscoinSuperblocksI, SyscoinErrorCodes, SyscoinMessageLibrary {\n\n    uint constant ERR_PARSE_TX_SYS = 10170;\n\n    uint32 constant SYSCOIN_TX_VERSION_ALLOCATION_BURN_TO_ETHEREUM = 0x7407;\n    uint32 constant SYSCOIN_TX_VERSION_ALLOCATION_MINT = 0x7406;\n    \n    // Mapping superblock id => superblock data\n    mapping (bytes32 => SuperblockInfo) private superblocks;\n\n    bytes32 private bestSuperblock;\n\n    SyscoinTransactionProcessor public syscoinERC20Manager;\n\n    event NewSuperblock(bytes32 superblockHash, address who);\n    event ApprovedSuperblock(bytes32 superblockHash, address who);\n    event ChallengeSuperblock(bytes32 superblockHash, address who);\n    event SemiApprovedSuperblock(bytes32 superblockHash, address who);\n    event InvalidSuperblock(bytes32 superblockHash, address who);\n\n    event ErrorSuperblock(bytes32 superblockHash, uint err);\n\n    event VerifyTransaction(bytes32 txHash, uint returnCode);\n    event RelayTransaction(bytes32 txHash, uint returnCode);\n    event ChallengeCancelTransferRequest(uint returnCode);\n    // SyscoinClaimManager\n    address public trustedClaimManager;\n\n    modifier onlyClaimManager() {\n        require(msg.sender == trustedClaimManager);\n        _;\n    }\n\n    // @param _syscoinERC20Manager - address of the SyscoinERC20Manager contract to be associated with\n    // @param _claimManager - address of the ClaimManager contract to be associated with\n    function init(address _syscoinERC20Manager, address _claimManager) public initializer {\n        require(address(syscoinERC20Manager) == address(0) && _syscoinERC20Manager != address(0));\n        syscoinERC20Manager = SyscoinTransactionProcessor(_syscoinERC20Manager);\n\n        require(address(trustedClaimManager) == address(0) && _claimManager != address(0));\n        trustedClaimManager = _claimManager;\n    }\n\n    // Returns true if the tx output is an OP_RETURN output\n    function isOpReturn(bytes memory txBytes, uint pos) private pure returns (bool) {\n        // scriptPub format is\n        // 0x6a OP_RETURN\n        return txBytes[pos] == byte(0x6a);\n    }\n    // Returns asset data parsed from the op_return data output from syscoin asset burn transaction\n    function scanAssetDetails(bytes memory txBytes, uint pos)\n        private\n        pure\n        returns (uint, address, uint32, uint8, address)\n    {\n        uint32 assetGUID;\n        address destinationAddress;\n        address erc20Address;\n        uint output_value;\n        uint8 precision;\n        uint8 op;\n        // vchAsset\n        (op, pos) = getOpcode(txBytes, pos);\n        // guid length should be 4 bytes\n        require(op == 0x04);\n        assetGUID = bytesToUint32(txBytes, pos);\n        pos += op;\n        // amount\n        (op, pos) = getOpcode(txBytes, pos);\n        require(op == 0x08);\n        output_value = bytesToUint64(txBytes, pos);\n        pos += op;\n         // destination address\n        (op, pos) = getOpcode(txBytes, pos);\n        // ethereum contracts are 20 bytes (without the 0x)\n        require(op == 0x14);\n        destinationAddress = readEthereumAddress(txBytes, pos);\n        pos += op;\n        // precision\n        (op, pos) = getOpcode(txBytes, pos);\n        require(op == 0x01);\n        precision = uint8(txBytes[pos]);\n        pos += op;\n        // erc20Address\n        (op, pos) = getOpcode(txBytes, pos);\n        require(op == 0x14);\n        erc20Address = readEthereumAddress(txBytes, pos);\n        return (output_value, destinationAddress, assetGUID, precision, erc20Address);\n    }\n\n    // Read the ethereum address embedded in the tx output\n    function readEthereumAddress(bytes memory txBytes, uint pos) private pure\n             returns (address) {\n        uint256 data;\n        assembly {\n            data := mload(add(add(txBytes, 20), pos))\n        }\n        return address(uint160(data));\n    }\n\n    // Read next opcode from script\n    function getOpcode(bytes memory txBytes, uint pos) private pure\n             returns (uint8, uint)\n    {\n        require(pos < txBytes.length);\n        return (uint8(txBytes[pos]), pos + 1);\n    }\n\n    /**\n     * @dev Parse syscoin mint transaction to recover bridgeTransferId\n     * @param txBytes syscoin raw transaction\n     * @return errorCode, bridgeTransferId\n     */\n    function parseMintTx(bytes memory txBytes)\n        public\n        view\n        returns (uint errorCode, uint32 bridgeTransferId)\n    {\n        uint32 version;\n        uint pos = 0;\n        version = bytesToUint32Flipped(txBytes, pos);\n        if(version != SYSCOIN_TX_VERSION_ALLOCATION_MINT){\n            return (ERR_PARSE_TX_SYS, bridgeTransferId);\n        }\n        pos = getOpReturnPos(txBytes, 4);\n        pos += 3; // skip pushdata2 + 2 bytes for opreturn varint\n\n        // SHA3 of TokenFreeze(address,uint256,uin32)\n        bytes32 tokenFreezeTopic = 0xaabab1db49e504b5156edf3f99042aeecb9607a08f392589571cd49743aaba8d;\n        bridgeTransferId = uint32(\n            getBridgeTransactionId(\n                getLogValuesForTopic(\n                    getEthReceipt(txBytes, pos), tokenFreezeTopic\n                )\n            )\n        );\n    }\n\n    // @dev - extract Merkle root field from a raw Syscoin block header\n    //\n    // @param _blockHeader - Syscoin block header bytes\n    // @param pos - where to start reading root from\n    // @return - block's Merkle root in big endian format\n    function getHeaderMerkleRoot(bytes memory _blockHeader) public pure returns (uint) {\n        uint merkle;\n        assembly {\n            merkle := mload(add(add(_blockHeader, 32), 0x24))\n        }\n        return flip32Bytes(merkle);\n    }\n\n    // @dev - Initializes superblocks contract\n    //\n    // Initializes the superblock contract. It can only be called once.\n    //\n    // @param _blocksMerkleRoot Root of the merkle tree of blocks contained in a superblock\n    // @param _timestamp Timestamp of the last block in the superblock\n    // @param _mtpTimestamp Median Timestamp of the last block in the superblock\n    // @param _lastHash Hash of the last block in the superblock\n    // @param _lastBits Difficulty bits of the last block in the superblock bits\n    // @param _parentId Id of the parent superblock\n    // @param _blockHeight Block height of last block in superblock\n    // @return Error code and superblockHash\n    function initialize(\n        bytes32 _blocksMerkleRoot,\n        uint _timestamp,\n        uint _mtpTimestamp,\n        bytes32 _lastHash,\n        uint32 _lastBits,\n        bytes32 _parentId\n    ) external returns (uint, bytes32) {\n        require(bestSuperblock == 0);\n        require(_parentId == 0);\n\n        bytes32 superblockHash = calcSuperblockHash(_blocksMerkleRoot, _timestamp, _mtpTimestamp, _lastHash, _lastBits, _parentId);\n        SuperblockInfo storage superblock = superblocks[superblockHash];\n\n        require(superblock.status == Status.Uninitialized);\n\n        superblock.blocksMerkleRoot = _blocksMerkleRoot;\n        superblock.timestamp = _timestamp;\n        superblock.mtpTimestamp = _mtpTimestamp;\n        superblock.lastHash = _lastHash;\n        superblock.parentId = _parentId;\n        superblock.submitter = msg.sender;\n        superblock.height = 1;\n        superblock.lastBits = _lastBits;\n        superblock.status = Status.Approved;\n\n        emit NewSuperblock(superblockHash, msg.sender);\n\n        bestSuperblock = superblockHash;\n        emit ApprovedSuperblock(superblockHash, msg.sender);\n\n        return (ERR_SUPERBLOCK_OK, superblockHash);\n    }\n\n    // @dev - Proposes a new superblock\n    //\n    // To be accepted, a new superblock needs to have its parent\n    // either approved or semi-approved.\n    //\n    // @param _blocksMerkleRoot Root of the merkle tree of blocks contained in a superblock\n    // @param _timestamp Timestamp of the last block in the superblock\n    // @param _mtpTimestamp Median Timestamp of the last block in the superblock\n    // @param _lastHash Hash of the last block in the superblock\n    // @param _lastBits Difficulty bits of the last block in the superblock bits\n    // @param _parentId Id of the parent superblock\n    // @return Error code and superblockHash\n    function propose(\n        bytes32 _blocksMerkleRoot,\n        uint _timestamp,\n        uint _mtpTimestamp,\n        bytes32 _lastHash,\n        uint32 _lastBits,\n        bytes32 _parentId,\n        address submitter\n    ) external returns (uint, bytes32) {\n        if (msg.sender != trustedClaimManager) {\n            emit ErrorSuperblock(0, ERR_SUPERBLOCK_NOT_CLAIMMANAGER);\n            return (ERR_SUPERBLOCK_NOT_CLAIMMANAGER, 0);\n        }\n\n        SuperblockInfo storage parent = superblocks[_parentId];\n        if (parent.status != Status.SemiApproved && parent.status != Status.Approved) {\n            emit ErrorSuperblock(_parentId, ERR_SUPERBLOCK_BAD_PARENT + uint(parent.status));\n            return (ERR_SUPERBLOCK_BAD_PARENT + uint(parent.status), 0);\n        }\n\n        if (parent.height < getChainHeight()) {\n            emit ErrorSuperblock(_parentId, ERR_SUPERBLOCK_BAD_BLOCKHEIGHT);\n            return (ERR_SUPERBLOCK_BAD_BLOCKHEIGHT, 0);\n        }\n\n        bytes32 superblockHash = calcSuperblockHash(_blocksMerkleRoot, _timestamp, _mtpTimestamp, _lastHash, _lastBits, _parentId);\n        SuperblockInfo storage superblock = superblocks[superblockHash];\n        if (superblock.status == Status.Uninitialized) {\n            superblock.blocksMerkleRoot = _blocksMerkleRoot;\n            superblock.timestamp = _timestamp;\n            superblock.mtpTimestamp = _mtpTimestamp;\n            superblock.lastHash = _lastHash;\n            superblock.parentId = _parentId;\n            superblock.height = parent.height + 1;\n            superblock.lastBits = _lastBits;\n        }\n        superblock.status = Status.New;\n        superblock.submitter = submitter;\n        emit NewSuperblock(superblockHash, submitter);\n        return (ERR_SUPERBLOCK_OK, superblockHash);\n    }\n\n    // @dev - Confirm a proposed superblock\n    //\n    // An unchallenged superblock can be confirmed after a timeout.\n    // A challenged superblock is confirmed if it has enough descendants\n    // in the main chain.\n    //\n    // @param _superblockHash Id of the superblock to confirm\n    // @param _validator Address requesting superblock confirmation\n    // @return Error code and superblockHash\n    function confirm(bytes32 _superblockHash, address _validator) external returns (uint) {\n        if (msg.sender != trustedClaimManager) {\n            emit ErrorSuperblock(_superblockHash, ERR_SUPERBLOCK_NOT_CLAIMMANAGER);\n            return ERR_SUPERBLOCK_NOT_CLAIMMANAGER;\n        }\n        SuperblockInfo storage superblock = superblocks[_superblockHash];\n        if (superblock.status != Status.New && superblock.status != Status.SemiApproved) {\n            emit ErrorSuperblock(_superblockHash, ERR_SUPERBLOCK_BAD_STATUS);\n            return ERR_SUPERBLOCK_BAD_STATUS;\n        }\n\n        if (superblock.height <= getChainHeight()) {\n            emit ErrorSuperblock(_superblockHash, ERR_SUPERBLOCK_BAD_BLOCKHEIGHT);\n            return ERR_SUPERBLOCK_BAD_BLOCKHEIGHT;\n        }\n\n        SuperblockInfo storage parent = superblocks[superblock.parentId];\n        if (parent.status != Status.Approved) {\n            emit ErrorSuperblock(_superblockHash, ERR_SUPERBLOCK_BAD_PARENT);\n            return ERR_SUPERBLOCK_BAD_PARENT;\n        }\n\n        superblock.status = Status.Approved;\n        bestSuperblock = _superblockHash;\n\n        emit ApprovedSuperblock(_superblockHash, _validator);\n        return ERR_SUPERBLOCK_OK;\n    }\n\n    // @dev - Challenge a proposed superblock\n    //\n    // A new superblock can be challenged to start a battle\n    // to verify the correctness of the data submitted.\n    //\n    // @param _superblockHash Id of the superblock to challenge\n    // @param _challenger Address requesting a challenge\n    // @return Error code and superblockHash\n    function challenge(bytes32 _superblockHash, address _challenger) external returns (uint) {\n        if (msg.sender != trustedClaimManager) {\n            emit ErrorSuperblock(_superblockHash, ERR_SUPERBLOCK_NOT_CLAIMMANAGER);\n            return ERR_SUPERBLOCK_NOT_CLAIMMANAGER;\n        }\n        SuperblockInfo storage superblock = superblocks[_superblockHash];\n        if (superblock.status != Status.New && superblock.status != Status.InBattle) {\n            emit ErrorSuperblock(_superblockHash, ERR_SUPERBLOCK_BAD_STATUS);\n            return ERR_SUPERBLOCK_BAD_STATUS;\n        }\n        if(superblock.submitter == _challenger){\n            emit ErrorSuperblock(_superblockHash, ERR_SUPERBLOCK_OWN_CHALLENGE);\n            return ERR_SUPERBLOCK_OWN_CHALLENGE;\n        }\n        superblock.status = Status.InBattle;\n        emit ChallengeSuperblock(_superblockHash, _challenger);\n        return ERR_SUPERBLOCK_OK;\n    }\n\n    // @dev - Semi-approve a challenged superblock\n    //\n    // A challenged superblock can be marked as semi-approved\n    // if it satisfies all the queries or when all challengers have\n    // stopped participating.\n    //\n    // @param _superblockHash Id of the superblock to semi-approve\n    // @param _validator Address requesting semi approval\n    // @return Error code and superblockHash\n    function semiApprove(bytes32 _superblockHash, address _validator) external returns (uint) {\n        if (msg.sender != trustedClaimManager) {\n            emit ErrorSuperblock(_superblockHash, ERR_SUPERBLOCK_NOT_CLAIMMANAGER);\n            return ERR_SUPERBLOCK_NOT_CLAIMMANAGER;\n        }\n        SuperblockInfo storage superblock = superblocks[_superblockHash];\n\n        if (superblock.status != Status.InBattle && superblock.status != Status.New) {\n            emit ErrorSuperblock(_superblockHash, ERR_SUPERBLOCK_BAD_STATUS);\n            return ERR_SUPERBLOCK_BAD_STATUS;\n        }\n        superblock.status = Status.SemiApproved;\n\n        emit SemiApprovedSuperblock(_superblockHash, _validator);\n        return ERR_SUPERBLOCK_OK;\n    }\n\n    // @dev - Invalidates a superblock\n    //\n    // A superblock with incorrect data can be invalidated immediately.\n    // Superblocks that are not in the main chain can be invalidated\n    // if not enough superblocks follow them, i.e. they don't have\n    // enough descendants.\n    //\n    // @param _superblockHash Id of the superblock to invalidate\n    // @param _validator Address requesting superblock invalidation\n    // @return Error code and superblockHash\n    function invalidate(bytes32 _superblockHash, address _validator) external returns (uint) {\n        if (msg.sender != trustedClaimManager) {\n            emit ErrorSuperblock(_superblockHash, ERR_SUPERBLOCK_NOT_CLAIMMANAGER);\n            return ERR_SUPERBLOCK_NOT_CLAIMMANAGER;\n        }\n        SuperblockInfo storage superblock = superblocks[_superblockHash];\n        if (superblock.status != Status.InBattle && superblock.status != Status.SemiApproved) {\n            emit ErrorSuperblock(_superblockHash, ERR_SUPERBLOCK_BAD_STATUS);\n            return ERR_SUPERBLOCK_BAD_STATUS;\n        }\n        superblock.status = Status.Invalid;\n        emit InvalidSuperblock(_superblockHash, _validator);\n        return ERR_SUPERBLOCK_OK;\n    }\n\n    // @dev - Verify TX SPV to Block proof as well as Block SPV proof to Superblock\n    // @param _txBytes - transaction bytes\n    // @param _txIndex - transaction's index within the block\n    // @param _txSiblings - transaction's Merkle siblings\n    // @param _syscoinBlockHeader - block header containing transaction\n    // @param _syscoinBlockIndex - block's index within superblock\n    // @param _syscoinBlockSiblings - block's merkle siblings\n    // @param _superblockHash - superblock containing block header\n    function verifySPVProofs(\n        bytes memory _syscoinBlockHeader,\n        uint _syscoinBlockIndex,\n        uint[] memory _syscoinBlockSiblings,\n        bytes32 _superblockHash,\n        bytes memory _txBytes,\n        uint _txIndex,\n        uint[] memory _txSiblings\n    ) private returns (uint) {\n                // Check if Syscoin block belongs to given superblock\n        if (bytes32(computeMerkle(dblShaFlip(_syscoinBlockHeader), _syscoinBlockIndex, _syscoinBlockSiblings))\n            != superblocks[_superblockHash].blocksMerkleRoot) {\n            // Syscoin block is not in superblock\n            return 0;\n        }\n        return verifyTx(_txBytes, _txIndex, _txSiblings, _syscoinBlockHeader, _superblockHash);\n    }\n\n    // @dev - relays transaction `_txBytes` to ERC20Manager's processTransaction() method.\n    // Also logs the value of processTransaction.\n    // Note: callers cannot be 100% certain when an ERR_RELAY_VERIFY occurs because\n    // it may also have been returned by processTransaction(). Callers should be\n    // aware of the contract that they are relaying transactions to and\n    // understand what that contract's processTransaction method returns.\n    //\n    // @param _txBytes - transaction bytes\n    // @param _txIndex - transaction's index within the block\n    // @param _txSiblings - transaction's Merkle siblings\n    // @param _syscoinBlockHeader - block header containing transaction\n    // @param _syscoinBlockIndex - block's index within superblock\n    // @param _syscoinBlockSiblings - block's merkle siblings\n    // @param _superblockHash - superblock containing block header\n    function relayTx(\n        bytes memory _txBytes,\n        uint _txIndex,\n        uint[] memory _txSiblings,\n        bytes memory _syscoinBlockHeader,\n        uint _syscoinBlockIndex,\n        uint[] memory _syscoinBlockSiblings,\n        bytes32 _superblockHash\n    ) public returns (uint) {\n        uint txHash = verifySPVProofs(_syscoinBlockHeader, _syscoinBlockIndex, _syscoinBlockSiblings, _superblockHash, _txBytes, _txIndex, _txSiblings);\n        if (txHash != 0) {\n            uint value;\n            address destinationAddress;\n            uint ret;\n            uint32 assetGUID;\n            address erc20ContractAddress;\n            uint8 precision;\n            (ret, value, destinationAddress, assetGUID, precision, erc20ContractAddress) = parseBurnTx(_txBytes);\n            if(ret != 0){\n                emit RelayTransaction(bytes32(txHash), ret);\n                return ret;\n            }\n            syscoinERC20Manager.processTransaction(txHash, value, destinationAddress, superblocks[_superblockHash].submitter, erc20ContractAddress, assetGUID, precision);\n            return value;\n        }\n        emit RelayTransaction(bytes32(0), ERR_RELAY_VERIFY);\n        return(ERR_RELAY_VERIFY);\n    }\n\n    // Challenges a bridge cancellation request with SPV proofs linking tx to superblock and showing that a valid\n    // cancellation request exists. If challenge fails, the cancellation request continues until timeout at which point erc20 is refunded\n    //\n    // @param _txBytes - transaction bytes\n    // @param _txIndex - transaction's index within the block\n    // @param _txSiblings - transaction's Merkle siblings\n    // @param _syscoinBlockHeader - block header containing transaction\n    // @param _syscoinBlockIndex - block's index within superblock\n    // @param _syscoinBlockSiblings - block's merkle siblings\n    // @param _superblockHash - superblock containing block header\n    function challengeCancelTransfer(\n        bytes memory _txBytes,\n        uint _txIndex,\n        uint[] memory _txSiblings,\n        bytes memory _syscoinBlockHeader,\n        uint _syscoinBlockIndex,\n        uint[] memory _syscoinBlockSiblings,\n        bytes32 _superblockHash\n    ) public returns (uint) {\n        uint txHash = verifySPVProofs(_syscoinBlockHeader, _syscoinBlockIndex, _syscoinBlockSiblings, _superblockHash, _txBytes, _txIndex, _txSiblings);\n        if (txHash != 0) {\n            uint32 bridgeTransferId;\n            uint ret;\n            (ret, bridgeTransferId) = parseMintTx(_txBytes);\n            if(ret != 0){\n                emit RelayTransaction(bytes32(txHash), ret);\n                return ret;\n            }\n            // check if cancellation request exists in valid state\n            // cancel cancellation request if challenger wins, challenger gets paid cancellors deposit\n            syscoinERC20Manager.processCancelTransferFail(bridgeTransferId, msg.sender);\n            return 0;\n        }\n        emit ChallengeCancelTransferRequest(ERR_CANCEL_TRANSFER_VERIFY);\n        return(ERR_CANCEL_TRANSFER_VERIFY);\n    }\n\n    // @dev - Checks whether the transaction given by `_txBytes` is in the block identified by `_txBlockHeaderBytes`.\n    // First it guards against a Merkle tree collision attack by raising an error if the transaction is exactly 64 bytes long,\n    // then it calls helperVerifyHash to do the actual check.\n    //\n    // @param _txBytes - transaction bytes\n    // @param _txIndex - transaction's index within the block\n    // @param _siblings - transaction's Merkle siblings\n    // @param _txBlockHeaderBytes - block header containing transaction\n    // @param _txsuperblockHash - superblock containing block header\n    // @return - SHA-256 hash of _txBytes if the transaction is in the block, 0 otherwise\n    function verifyTx(\n        bytes memory _txBytes,\n        uint _txIndex,\n        uint[] memory _siblings,\n        bytes memory _txBlockHeaderBytes,\n        bytes32 _txsuperblockHash\n    ) private returns (uint) {\n        uint txHash = dblShaFlip(_txBytes);\n\n        if (_txBytes.length == 64) {  // todo: is check 32 also needed?\n            emit VerifyTransaction(bytes32(txHash), ERR_TX_64BYTE);\n            return 0;\n        }\n\n        if (helperVerifyHash(txHash, _txIndex, _siblings, _txBlockHeaderBytes, _txsuperblockHash) == 1) {\n            return txHash;\n        } else {\n            // log is done via helperVerifyHash\n            return 0;\n        }\n    }\n\n    // @dev - Checks whether the transaction identified by `_txHash` is in the block identified by `_blockHeaderBytes`\n    // and whether the block is in the Syscoin main chain. Transaction check is done via Merkle proof.\n    // Note: no verification is performed to prevent txHash from just being an\n    // internal hash in the Merkle tree. Thus this helper method should NOT be used\n    // directly and is intended to be private.\n    //\n    // @param _txHash - transaction hash\n    // @param _txIndex - transaction's index within the block\n    // @param _siblings - transaction's Merkle siblings\n    // @param _blockHeaderBytes - block header containing transaction\n    // @param _txsuperblockHash - superblock containing block header\n    // @return - 1 if the transaction is in the block and the block is in the main chain,\n    // 20020 (ERR_CONFIRMATIONS) if the block is not in the main chain,\n    // 20050 (ERR_MERKLE_ROOT) if the block is in the main chain but the Merkle proof fails.\n    function helperVerifyHash(\n        uint256 _txHash,\n        uint _txIndex,\n        uint[] memory _siblings,\n        bytes memory _blockHeaderBytes,\n        bytes32 _txsuperblockHash\n    ) private returns (uint) {\n\n        if (!isApproved(_txsuperblockHash)) {\n            emit VerifyTransaction(bytes32(_txHash), ERR_CHAIN);\n            return (ERR_CHAIN);\n        }\n\n        // Verify tx Merkle root\n        uint merkle = getHeaderMerkleRoot(_blockHeaderBytes);\n        if (computeMerkle(_txHash, _txIndex, _siblings) != merkle) {\n            emit VerifyTransaction(bytes32(_txHash), ERR_MERKLE_ROOT);\n            return (ERR_MERKLE_ROOT);\n        }\n        return (1);\n    }\n\n    // @dev - Calculate superblock hash from superblock data\n    //\n    // @param _blocksMerkleRoot Root of the merkle tree of blocks contained in a superblock\n    // @param _timestamp Timestamp of the last block in the superblock\n    // @param _mtpTimestamp Median Timestamp of the last block in the superblock\n    // @param _lastHash Hash of the last block in the superblock\n    // @param _lastBits Difficulty bits of the last block in the superblock bits\n    // @param _parentId Id of the parent superblock\n    // @return Superblock id\n    function calcSuperblockHash(\n        bytes32 _blocksMerkleRoot,\n        uint _timestamp,\n        uint _mtpTimestamp,\n        bytes32 _lastHash,\n        uint32 _lastBits,\n        bytes32 _parentId\n    ) public pure returns (bytes32) {\n        return keccak256(abi.encodePacked(\n            _blocksMerkleRoot,\n            _timestamp,\n            _mtpTimestamp,\n            _lastHash,\n            _lastBits,\n            _parentId\n        ));\n    }\n\n    // @dev - Returns the confirmed superblock with the most accumulated work\n    //\n    // @return Best superblock hash\n    function getBestSuperblock() external view returns (bytes32) {\n        return bestSuperblock;\n    }\n\n    // @dev - Returns the superblock data for the supplied superblock hash\n    //\n    function getSuperblock(bytes32 superblockHash) external view returns (\n        bytes32 _blocksMerkleRoot,\n        uint _timestamp,\n        uint _mtpTimestamp,\n        bytes32 _lastHash,\n        uint32 _lastBits,\n        bytes32 _parentId,\n        address _submitter,\n        Status _status,\n        uint32 _height\n    ) {\n        SuperblockInfo storage superblock = superblocks[superblockHash];\n        return (\n            superblock.blocksMerkleRoot,\n            superblock.timestamp,\n            superblock.mtpTimestamp,\n            superblock.lastHash,\n            superblock.lastBits,\n            superblock.parentId,\n            superblock.submitter,\n            superblock.status,\n            superblock.height\n        );\n    }\n\n    // @dev - Returns superblock height\n    function getSuperblockHeight(bytes32 superblockHash) public view returns (uint32) {\n        return superblocks[superblockHash].height;\n    }\n\n    // @dev - Return superblock timestamp\n    function getSuperblockTimestamp(bytes32 _superblockHash) external view returns (uint) {\n        return superblocks[_superblockHash].timestamp;\n    }\n\n    // @dev - Return superblock median timestamp\n    function getSuperblockMedianTimestamp(bytes32 _superblockHash) external view returns (uint) {\n        return superblocks[_superblockHash].mtpTimestamp;\n    }\n\n    // @dev - Return superblock parent\n    function getSuperblockParentId(bytes32 _superblockHash) external view returns (bytes32) {\n        return superblocks[_superblockHash].parentId;\n    }\n\n\n    // @dev - Return superblock status\n    function getSuperblockStatus(bytes32 _superblockHash) public view returns (Status) {\n        return superblocks[_superblockHash].status;\n    }\n\n    function isApproved(bytes32 _superblockHash) private view returns (bool) {\n        return (getSuperblockStatus(_superblockHash) == Status.Approved);\n    }\n    function getChainHeight() public view returns (uint) {\n        return superblocks[bestSuperblock].height;\n    }\n\n    // @dev - return superblock hash at a given height in superblock main chain\n    //\n    // @param _height - superblock height\n    // @return - hash corresponding to block of height _height\n    function getSuperblockAt(uint _height) external view returns (bytes32) {\n        bytes32 superblockHash = bestSuperblock;\n\n        while (getSuperblockHeight(superblockHash) > _height) {\n            superblockHash = superblocks[superblockHash].parentId;\n        }\n\n        return superblockHash;\n    }\n}\n",
  "sourcePath": "/Users/jsidhu/Documents/GitHub/sysethereum-contracts1/contracts/SyscoinSuperblocks.sol",
  "compiler": {
    "name": "solc",
    "version": "0.5.13+commit.5b0b510c.Emscripten.clang"
  },
  "schemaVersion": "3.0.19",
  "updatedAt": "2019-12-11T00:04:06.601Z",
  "devdoc": {
    "methods": {
      "getBridgeTransactionId(bytes)": {
        "params": {
          "logValues": "log values"
        },
        "return": "bridgeTransactionId"
      },
      "getEthReceipt(bytes,uint256)": {
        "params": {
          "pos": "position at where to start parsing",
          "txBytes": "syscoin raw transaction"
        },
        "return": "ethTxReceipt ethereum tx receipt"
      },
      "getLogValuesForTopic(bytes,bytes32)": {
        "params": {
          "ethTxReceipt": "ethereum transaction receipt"
        },
        "return": "logs bloom"
      },
      "parseMintTx(bytes)": {
        "details": "Parse syscoin mint transaction to recover bridgeTransferId",
        "params": {
          "txBytes": "syscoin raw transaction"
        },
        "return": "errorCode, bridgeTransferId"
      }
    }
  },
  "userdoc": {
    "methods": {
      "getBridgeTransactionId(bytes)": {
        "notice": "Get bridgeTransactionId from logs bloom"
      },
      "getEthReceipt(bytes,uint256)": {
        "notice": "Parse txBytes and returns ethereum tx receipt"
      },
      "getLogValuesForTopic(bytes,bytes32)": {
        "notice": "Return logs for given ethereum transaction receipt"
      }
    }
  }
}