{
  "contractName": "SyscoinMessageLibraryForTests",
  "abi": [
    {
      "constant": true,
      "inputs": [
        {
          "internalType": "bytes",
          "name": "_rawBytes",
          "type": "bytes"
        },
        {
          "internalType": "uint256",
          "name": "pos",
          "type": "uint256"
        }
      ],
      "name": "bytesToBytes32",
      "outputs": [
        {
          "internalType": "bytes32",
          "name": "",
          "type": "bytes32"
        }
      ],
      "payable": false,
      "stateMutability": "pure",
      "type": "function"
    },
    {
      "constant": true,
      "inputs": [
        {
          "internalType": "bytes",
          "name": "input",
          "type": "bytes"
        },
        {
          "internalType": "uint256",
          "name": "pos",
          "type": "uint256"
        }
      ],
      "name": "bytesToUint16",
      "outputs": [
        {
          "internalType": "uint16",
          "name": "result",
          "type": "uint16"
        }
      ],
      "payable": false,
      "stateMutability": "pure",
      "type": "function"
    },
    {
      "constant": true,
      "inputs": [
        {
          "internalType": "bytes",
          "name": "input",
          "type": "bytes"
        },
        {
          "internalType": "uint256",
          "name": "pos",
          "type": "uint256"
        }
      ],
      "name": "bytesToUint32",
      "outputs": [
        {
          "internalType": "uint32",
          "name": "result",
          "type": "uint32"
        }
      ],
      "payable": false,
      "stateMutability": "pure",
      "type": "function"
    },
    {
      "constant": true,
      "inputs": [
        {
          "internalType": "bytes",
          "name": "input",
          "type": "bytes"
        },
        {
          "internalType": "uint256",
          "name": "pos",
          "type": "uint256"
        }
      ],
      "name": "bytesToUint32Flipped",
      "outputs": [
        {
          "internalType": "uint32",
          "name": "result",
          "type": "uint32"
        }
      ],
      "payable": false,
      "stateMutability": "pure",
      "type": "function"
    },
    {
      "constant": true,
      "inputs": [
        {
          "internalType": "bytes",
          "name": "input",
          "type": "bytes"
        },
        {
          "internalType": "uint256",
          "name": "pos",
          "type": "uint256"
        }
      ],
      "name": "bytesToUint64",
      "outputs": [
        {
          "internalType": "uint64",
          "name": "result",
          "type": "uint64"
        }
      ],
      "payable": false,
      "stateMutability": "pure",
      "type": "function"
    },
    {
      "constant": true,
      "inputs": [
        {
          "internalType": "uint256",
          "name": "_txHash",
          "type": "uint256"
        },
        {
          "internalType": "uint256",
          "name": "_txIndex",
          "type": "uint256"
        },
        {
          "internalType": "uint256[]",
          "name": "_siblings",
          "type": "uint256[]"
        }
      ],
      "name": "computeMerkle",
      "outputs": [
        {
          "internalType": "uint256",
          "name": "",
          "type": "uint256"
        }
      ],
      "payable": false,
      "stateMutability": "pure",
      "type": "function"
    },
    {
      "constant": true,
      "inputs": [
        {
          "internalType": "bytes",
          "name": "_dataBytes",
          "type": "bytes"
        }
      ],
      "name": "dblShaFlip",
      "outputs": [
        {
          "internalType": "uint256",
          "name": "",
          "type": "uint256"
        }
      ],
      "payable": false,
      "stateMutability": "pure",
      "type": "function"
    },
    {
      "constant": true,
      "inputs": [
        {
          "internalType": "bytes",
          "name": "_rawBytes",
          "type": "bytes"
        },
        {
          "internalType": "uint256",
          "name": "offset",
          "type": "uint256"
        },
        {
          "internalType": "uint256",
          "name": "len",
          "type": "uint256"
        }
      ],
      "name": "dblShaFlipMem",
      "outputs": [
        {
          "internalType": "uint256",
          "name": "",
          "type": "uint256"
        }
      ],
      "payable": false,
      "stateMutability": "view",
      "type": "function"
    },
    {
      "constant": true,
      "inputs": [
        {
          "internalType": "uint256",
          "name": "_input",
          "type": "uint256"
        }
      ],
      "name": "flip32Bytes",
      "outputs": [
        {
          "internalType": "uint256",
          "name": "result",
          "type": "uint256"
        }
      ],
      "payable": false,
      "stateMutability": "pure",
      "type": "function"
    },
    {
      "constant": true,
      "inputs": [
        {
          "internalType": "bytes",
          "name": "logValues",
          "type": "bytes"
        }
      ],
      "name": "getBridgeTransactionId",
      "outputs": [
        {
          "internalType": "uint256",
          "name": "value",
          "type": "uint256"
        }
      ],
      "payable": false,
      "stateMutability": "pure",
      "type": "function"
    },
    {
      "constant": true,
      "inputs": [
        {
          "internalType": "bytes",
          "name": "data",
          "type": "bytes"
        },
        {
          "internalType": "uint256",
          "name": "pos",
          "type": "uint256"
        },
        {
          "internalType": "uint256",
          "name": "bits",
          "type": "uint256"
        }
      ],
      "name": "getBytesLE",
      "outputs": [
        {
          "internalType": "uint256",
          "name": "result",
          "type": "uint256"
        }
      ],
      "payable": false,
      "stateMutability": "pure",
      "type": "function"
    },
    {
      "constant": true,
      "inputs": [
        {
          "internalType": "bytes",
          "name": "txBytes",
          "type": "bytes"
        },
        {
          "internalType": "uint256",
          "name": "pos",
          "type": "uint256"
        }
      ],
      "name": "getEthReceipt",
      "outputs": [
        {
          "internalType": "bytes",
          "name": "",
          "type": "bytes"
        }
      ],
      "payable": false,
      "stateMutability": "view",
      "type": "function"
    },
    {
      "constant": true,
      "inputs": [
        {
          "internalType": "bytes",
          "name": "_blockHeader",
          "type": "bytes"
        }
      ],
      "name": "getHeaderMerkleRoot",
      "outputs": [
        {
          "internalType": "uint256",
          "name": "",
          "type": "uint256"
        }
      ],
      "payable": false,
      "stateMutability": "pure",
      "type": "function"
    },
    {
      "constant": true,
      "inputs": [
        {
          "internalType": "bytes",
          "name": "ethTxReceipt",
          "type": "bytes"
        },
        {
          "internalType": "bytes32",
          "name": "expectedTopic",
          "type": "bytes32"
        }
      ],
      "name": "getLogValuesForTopic",
      "outputs": [
        {
          "internalType": "bytes",
          "name": "",
          "type": "bytes"
        }
      ],
      "payable": false,
      "stateMutability": "pure",
      "type": "function"
    },
    {
      "constant": true,
      "inputs": [
        {
          "internalType": "bytes",
          "name": "txBytes",
          "type": "bytes"
        },
        {
          "internalType": "uint256",
          "name": "pos",
          "type": "uint256"
        }
      ],
      "name": "getOpReturnPos",
      "outputs": [
        {
          "internalType": "uint256",
          "name": "",
          "type": "uint256"
        }
      ],
      "payable": false,
      "stateMutability": "pure",
      "type": "function"
    },
    {
      "constant": true,
      "inputs": [
        {
          "internalType": "bytes32[]",
          "name": "hashes",
          "type": "bytes32[]"
        }
      ],
      "name": "makeMerkle",
      "outputs": [
        {
          "internalType": "bytes32",
          "name": "",
          "type": "bytes32"
        }
      ],
      "payable": false,
      "stateMutability": "pure",
      "type": "function"
    },
    {
      "constant": true,
      "inputs": [],
      "name": "minProposalDeposit",
      "outputs": [
        {
          "internalType": "uint256",
          "name": "",
          "type": "uint256"
        }
      ],
      "payable": false,
      "stateMutability": "view",
      "type": "function"
    },
    {
      "constant": true,
      "inputs": [
        {
          "internalType": "bytes",
          "name": "txBytes",
          "type": "bytes"
        }
      ],
      "name": "parseBurnTx",
      "outputs": [
        {
          "internalType": "uint256",
          "name": "",
          "type": "uint256"
        },
        {
          "internalType": "uint256",
          "name": "",
          "type": "uint256"
        },
        {
          "internalType": "address",
          "name": "",
          "type": "address"
        },
        {
          "internalType": "uint32",
          "name": "",
          "type": "uint32"
        },
        {
          "internalType": "uint8",
          "name": "",
          "type": "uint8"
        },
        {
          "internalType": "address",
          "name": "",
          "type": "address"
        }
      ],
      "payable": false,
      "stateMutability": "pure",
      "type": "function"
    },
    {
      "constant": true,
      "inputs": [
        {
          "internalType": "bytes",
          "name": "txBytes",
          "type": "bytes"
        },
        {
          "internalType": "uint256",
          "name": "pos",
          "type": "uint256"
        }
      ],
      "name": "parseVarInt",
      "outputs": [
        {
          "internalType": "uint256",
          "name": "",
          "type": "uint256"
        },
        {
          "internalType": "uint256",
          "name": "",
          "type": "uint256"
        }
      ],
      "payable": false,
      "stateMutability": "pure",
      "type": "function"
    },
    {
      "constant": true,
      "inputs": [
        {
          "internalType": "bytes",
          "name": "_rawBytes",
          "type": "bytes"
        },
        {
          "internalType": "uint256",
          "name": "offset",
          "type": "uint256"
        },
        {
          "internalType": "uint256",
          "name": "len",
          "type": "uint256"
        }
      ],
      "name": "sha256mem",
      "outputs": [
        {
          "internalType": "bytes32",
          "name": "result",
          "type": "bytes32"
        }
      ],
      "payable": false,
      "stateMutability": "view",
      "type": "function"
    },
    {
      "constant": true,
      "inputs": [
        {
          "internalType": "bytes",
          "name": "_rawBytes",
          "type": "bytes"
        },
        {
          "internalType": "uint256",
          "name": "offset",
          "type": "uint256"
        },
        {
          "internalType": "uint256",
          "name": "_endIndex",
          "type": "uint256"
        }
      ],
      "name": "sliceArray",
      "outputs": [
        {
          "internalType": "bytes",
          "name": "",
          "type": "bytes"
        }
      ],
      "payable": false,
      "stateMutability": "view",
      "type": "function"
    },
    {
      "constant": true,
      "inputs": [
        {
          "internalType": "uint32",
          "name": "_bits",
          "type": "uint32"
        }
      ],
      "name": "targetFromBits",
      "outputs": [
        {
          "internalType": "uint256",
          "name": "",
          "type": "uint256"
        }
      ],
      "payable": false,
      "stateMutability": "pure",
      "type": "function"
    }
  ],
  "bytecode": "0x608060405234801561001057600080fd5b5061255f806100206000396000f3fe608060405234801561001057600080fd5b50600436106101425760003560e01c80636823c56b116100b8578063d5c9712f1161007c578063d5c9712f14610b77578063e8f421df14610c20578063f91f681f14610d08578063f9b5d7c014610d2b578063fbb381a714610dcc578063fc96c39614610e7257610142565b80636823c56b146108bd578063b6f6580a14610961578063b79bbf461461097e578063b7a8121814610a24578063d0f9410b14610aca57610142565b8063484162be1161010a578063484162be146104905780634b6986fd1461054d5780634d7dcfbd1461061057806353584939146106cf57806353a3273d14610775578063543a86f61461081957610142565b8063029c5e2a146101475780630c9897d2146102065780632ef955e4146102c15780633e0e8a201461036a578063455e616614610488575b600080fd5b6101ed6004803603604081101561015d57600080fd5b810190602081018135600160201b81111561017757600080fd5b82018360208201111561018957600080fd5b803590602001918460018302840111600160201b831117156101aa57600080fd5b91908080601f0160208091040260200160405190810160405280939291908181526020018383808284376000920191909152509295505091359250610f18915050565b6040805163ffffffff9092168252519081900360200190f35b6102af6004803603606081101561021c57600080fd5b810190602081018135600160201b81111561023657600080fd5b82018360208201111561024857600080fd5b803590602001918460018302840111600160201b8311171561026957600080fd5b91908080601f0160208091040260200160405190810160405280939291908181526020018383808284376000920191909152509295505082359350505060200135610f54565b60408051918252519081900360200190f35b6102af600480360360608110156102d757600080fd5b810190602081018135600160201b8111156102f157600080fd5b82018360208201111561030357600080fd5b803590602001918460018302840111600160201b8311171561032457600080fd5b91908080601f0160208091040260200160405190810160405280939291908181526020018383808284376000920191909152509295505082359350505060200135611017565b6104136004803603606081101561038057600080fd5b810190602081018135600160201b81111561039a57600080fd5b8201836020820111156103ac57600080fd5b803590602001918460018302840111600160201b831117156103cd57600080fd5b91908080601f016020809104026020016040519081016040528093929190818152602001838380828437600092019190915250929550508235935050506020013561103c565b6040805160208082528351818301528351919283929083019185019080838360005b8381101561044d578181015183820152602001610435565b50505050905090810190601f16801561047a5780820380516001836020036101000a031916815260200191505b509250505060405180910390f35b6102af611097565b610536600480360360408110156104a657600080fd5b810190602081018135600160201b8111156104c057600080fd5b8201836020820111156104d257600080fd5b803590602001918460018302840111600160201b831117156104f357600080fd5b91908080601f01602080910402602001604051908101604052809392919081815260200183838082843760009201919091525092955050913592506110a3915050565b6040805161ffff9092168252519081900360200190f35b6105f36004803603604081101561056357600080fd5b810190602081018135600160201b81111561057d57600080fd5b82018360208201111561058f57600080fd5b803590602001918460018302840111600160201b831117156105b057600080fd5b91908080601f01602080910402602001604051908101604052809392919081815260200183838082843760009201919091525092955050913592506110e5915050565b6040805167ffffffffffffffff9092168252519081900360200190f35b6106b66004803603604081101561062657600080fd5b810190602081018135600160201b81111561064057600080fd5b82018360208201111561065257600080fd5b803590602001918460018302840111600160201b8311171561067357600080fd5b91908080601f0160208091040260200160405190810160405280939291908181526020018383808284376000920191909152509295505091359250611219915050565b6040805192835260208301919091528051918290030190f35b6102af600480360360408110156106e557600080fd5b810190602081018135600160201b8111156106ff57600080fd5b82018360208201111561071157600080fd5b803590602001918460018302840111600160201b8311171561073257600080fd5b91908080601f01602080910402602001604051908101604052809392919081815260200183838082843760009201919091525092955050913592506112cc915050565b6102af6004803603602081101561078b57600080fd5b810190602081018135600160201b8111156107a557600080fd5b8201836020820111156107b757600080fd5b803590602001918460018302840111600160201b831117156107d857600080fd5b91908080601f0160208091040260200160405190810160405280939291908181526020018383808284376000920191909152509295506112da945050505050565b6102af6004803603602081101561082f57600080fd5b810190602081018135600160201b81111561084957600080fd5b82018360208201111561085b57600080fd5b803590602001918460018302840111600160201b8311171561087c57600080fd5b91908080601f0160208091040260200160405190810160405280939291908181526020018383808284376000920191909152509295506112e1945050505050565b6102af600480360360208110156108d357600080fd5b810190602081018135600160201b8111156108ed57600080fd5b8201836020820111156108ff57600080fd5b803590602001918460018302840111600160201b8311171561092057600080fd5b91908080601f016020809104026020016040519081016040528093929190818152602001838380828437600092019190915250929550611426945050505050565b6102af6004803603602081101561097757600080fd5b503561143e565b6102af6004803603604081101561099457600080fd5b810190602081018135600160201b8111156109ae57600080fd5b8201836020820111156109c057600080fd5b803590602001918460018302840111600160201b831117156109e157600080fd5b91908080601f0160208091040260200160405190810160405280939291908181526020018383808284376000920191909152509295505091359250611568915050565b61041360048036036040811015610a3a57600080fd5b810190602081018135600160201b811115610a5457600080fd5b820183602082011115610a6657600080fd5b803590602001918460018302840111600160201b83111715610a8757600080fd5b91908080601f0160208091040260200160405190810160405280939291908181526020018383808284376000920191909152509295505091359250611722915050565b6102af60048036036060811015610ae057600080fd5b813591602081013591810190606081016040820135600160201b811115610b0657600080fd5b820183602082011115610b1857600080fd5b803590602001918460208302840111600160201b83111715610b3957600080fd5b9190808060200260200160405190810160405280939291908181526020018383602002808284376000920191909152509295506117e6945050505050565b6102af60048036036060811015610b8d57600080fd5b810190602081018135600160201b811115610ba757600080fd5b820183602082011115610bb957600080fd5b803590602001918460018302840111600160201b83111715610bda57600080fd5b91908080601f0160208091040260200160405190810160405280939291908181526020018383808284376000920191909152509295505082359350505060200135611a00565b610cc460048036036020811015610c3657600080fd5b810190602081018135600160201b811115610c5057600080fd5b820183602082011115610c6257600080fd5b803590602001918460018302840111600160201b83111715610c8357600080fd5b91908080601f016020809104026020016040519081016040528093929190818152602001838380828437600092019190915250929550611a3a945050505050565b6040805196875260208701959095526001600160a01b039384168686015263ffffffff909216606086015260ff1660808501521660a0830152519081900360c00190f35b6102af60048036036020811015610d1e57600080fd5b503563ffffffff16611ad1565b6102af60048036036020811015610d4157600080fd5b810190602081018135600160201b811115610d5b57600080fd5b820183602082011115610d6d57600080fd5b803590602001918460208302840111600160201b83111715610d8e57600080fd5b919080806020026020016040519081016040528093929190818152602001838360200280828437600092019190915250929550611af4945050505050565b61041360048036036040811015610de257600080fd5b810190602081018135600160201b811115610dfc57600080fd5b820183602082011115610e0e57600080fd5b803590602001918460018302840111600160201b83111715610e2f57600080fd5b91908080601f0160208091040260200160405190810160405280939291908181526020018383808284376000920191909152509295505091359250611dac915050565b6101ed60048036036040811015610e8857600080fd5b810190602081018135600160201b811115610ea257600080fd5b820183602082011115610eb457600080fd5b803590602001918460018302840111600160201b83111715610ed557600080fd5b91908080601f0160208091040260200160405190810160405280939291908181526020018383808284376000920191909152509295505091359250611ea2915050565b6000816020840101516040518160031a60008201538160021a60018201538160011a60028201538160001a60038201535160e01c949350505050565b600061100f6002610f66868686611017565b604051602001808281526020019150506040516020818303038152906040526040518082805190602001908083835b60208310610fb45780518252601f199092019160209182019101610f95565b51815160209384036101000a60001901801990921691161790526040519190930194509192505080830381855afa158015610ff3573d6000803e3d6000fd5b5050506040513d602081101561100857600080fd5b505161143e565b949350505050565b60006040516020818486602089010160025afa61103357600080fd5b51949350505050565b6060600083830390506060816040519080825280601f01601f191660200182016040528015611072576020820181803883390190505b5090508160208201838760208a010160045afa61108e57600080fd5b95945050505050565b6729a2241af62c000081565b60008282815181106110b157fe5b602001015160f81c60f81b60f81c60ff16610100028383600101815181106110d557fe5b016020015160f81c019392505050565b60008282815181106110f357fe5b602001015160f81c60f81b60f81c60ff166701000000000000000283836001018151811061111d57fe5b602001015160f81c60f81b60f81c60ff1666010000000000000284846002018151811061114657fe5b602001015160f81c60f81b60f81c60ff16650100000000000285856003018151811061116e57fe5b602001015160f81c60f81b60f81c60ff16600160201b0286866004018151811061119457fe5b602001015160f81c60f81b60f81c60ff166301000000028787600501815181106111ba57fe5b602001015160f81c60f81b60f81c60ff1662010000028888600601815181106111df57fe5b602001015160f81c60f81b60f81c60ff166101000289896007018151811061120357fe5b016020015160f81c010101010101019392505050565b600080600084848151811061122a57fe5b01602001516001949094019360f81c905060fd8110156112515760ff1691508290506112c5565b8060ff1660fd14156112775761126985856010611a00565b8460020192509250506112c5565b8060ff1660fe141561129d5761128f85856020611a00565b8460040192509250506112c5565b8060ff1660ff14156112c3576112b585856040611a00565b8460080192509250506112c5565b505b9250929050565b818101602001515b92915050565b6060015190565b600061141e600280846040516020018082805190602001908083835b6020831061131c5780518252601f1990920191602091820191016112fd565b6001836020036101000a0380198251168184511680821785525050505050509050019150506040516020818303038152906040526040518082805190602001908083835b6020831061137f5780518252601f199092019160209182019101611360565b51815160209384036101000a60001901801990921691161790526040519190930194509192505080830381855afa1580156113be573d6000803e3d6000fd5b5050506040513d60208110156113d357600080fd5b505160408051602081810193909352815180820384018152908201918290528051909282919084019080838360208310610fb45780518252601f199092019160209182019101610f95565b90505b919050565b60448101516000906114378161143e565b9392505050565b60405160009060ff8316815382601e1a600182015382601d1a600282015382601c1a600382015382601b1a600482015382601a1a60058201538260191a60068201538260181a60078201538260171a60088201538260161a60098201538260151a600a8201538260141a600b8201538260131a600c8201538260121a600d8201538260111a600e8201538260101a600f82015382600f1a601082015382600e1a601182015382600d1a601282015382600c1a601382015382600b1a601482015382600a1a60158201538260091a60168201538260081a60178201538260071a60188201538260061a60198201538260051a601a8201538260041a601b8201538260031a601c8201538260021a601d8201538260011a601e8201538260001a601f8201535192915050565b600080600080600061157a8787611219565b96509350836115dc5761158d8787611219565b96509350836115cd5760405162461bcd60e51b815260040180806020018281038252603e815260200180612466603e913960400191505060405180910390fd5b6115d78787611219565b965093505b6064841061161b5760405162461bcd60e51b81526004018080602001828103825260438152602001806124e86043913960600191505060405180910390fd5b60005b84811015611647576024870196506116368888611219565b81016004019750935060010161161e565b506116528787611219565b96509050600a81106116955760405162461bcd60e51b81526004018080602001828103825260448152602001806124a46044913960600191505060405180910390fd5b60005b818110156116ea576008870196506116b08888611219565b975093506116be8888611f31565b6116cf5795830195600092506116e2565b60018701965086955050505050506112d4565b600101611698565b5060405162461bcd60e51b815260040180806020018281038252603a81526020018061242c603a913960400191505060405180910390fd5b6040805160008082526020820190925260609161173f8585611219565b81019450905061174f8585611219565b81019450905061175f8585611219565b81019450905061176f8585611219565b81019450905061177f8585611219565b9450905060028114156117ce57600061179886866110a3565b9482019490506117a88686611219565b61ffff831690810196509092506117c690879087908503810161103c565b9250506117de565b6117db858583870161103c565b91505b509392505050565b8051600090815b818110156118305761181184828151811061180457fe5b602002602001015161143e565b84828151811061181d57fe5b60209081029190910101526001016117ed565b5060008061183d8761143e565b90505b828210156119ec57600085838151811061185657fe5b602002602001015190506000806002898161186d57fe5b0660011415611880575081905082611886565b50829050815b600280838360405160200180838152602001828152602001925050506040516020818303038152906040526040518082805190602001908083835b602083106118e05780518252601f1990920191602091820191016118c1565b51815160209384036101000a60001901801990921691161790526040519190930194509192505080830381855afa15801561191f573d6000803e3d6000fd5b5050506040513d602081101561193457600080fd5b50516040805160208181019390935281518082038401815290820191829052805190928291908401908083835b602083106119805780518252601f199092019160209182019101611961565b51815160209384036101000a60001901801990921691161790526040519190930194509192505080830381855afa1580156119bf573d6000803e3d6000fd5b5050506040513d60208110156119d457600080fd5b50519350600289049850600185019450505050611840565b6119f58161143e565b979650505050505050565b6000805b600883048110156117de578060080260020a8582860181518110611a2457fe5b016020015160f81c029190910190600101611a04565b6000808080808080808080808080611a528e82610f18565b935063ffffffff841661740714611a7f57506127ba9b50949950919750919550919350909150611ac89050565b611a8a8e6004611568565b9050611a968e82611f60565b809750819650829a50839950849b505050505050600087868885878595509c509c509c509c509c509c50505050505050505b91939550919395565b62ffffff8116630100000063ffffffff92831604909116600219016101000a0290565b80516000906001811415611b1f5782600081518110611b0f57fe5b6020026020010151915050611421565b60008111611b6a576040805162461bcd60e51b81526020600482015260136024820152724d7573742070726f766964652068617368657360681b604482015290519081900360640190fd5b60005b81811015611bb657611b94848281518110611b8457fe5b602002602001015160001c61143e565b60001b848281518110611ba357fe5b6020908102919091010152600101611b6d565b6000805b6001841115611d92575060009150815b83831015611d8a57838360010110611be55760018403611bea565b826001015b9150600280878581518110611bfb57fe5b6020026020010151888581518110611c0f57fe5b602002602001015160405160200180838152602001828152602001925050506040516020818303038152906040526040518082805190602001908083835b60208310611c6c5780518252601f199092019160209182019101611c4d565b51815160209384036101000a60001901801990921691161790526040519190930194509192505080830381855afa158015611cab573d6000803e3d6000fd5b5050506040513d6020811015611cc057600080fd5b50516040805160208181019390935281518082038401815290820191829052805190928291908401908083835b60208310611d0c5780518252601f199092019160209182019101611ced565b51815160209384036101000a60001901801990921691161790526040519190930194509192505080830381855afa158015611d4b573d6000803e3d6000fd5b5050506040513d6020811015611d6057600080fd5b50518651879083908110611d7057fe5b602090810291909101015260029290920191600101611bca565b809350611bba565b611da286600081518110611b8457fe5b9695505050505050565b606080611dc0611dbb8561208b565b6120b0565b90506060611de182600381518110611dd457fe5b60200260200101516120b0565b905060005b8151811015611e62576060611e00838381518110611dd457fe5b90506060611e2182600181518110611e1457fe5b6020026020010151612181565b90506000611e308260016112cc565b905087811415611e5757611e4a83600281518110611e1457fe5b96505050505050506112d4565b505050600101611de6565b506040805162461bcd60e51b815260206004820152600f60248201526e151bdc1a58c81b9bdd08199bdd5b99608a1b604482015290519081900360640190fd5b6000828281518110611eb057fe5b602001015160f81c60f81b60f81c60ff16630100000002838360010181518110611ed657fe5b602001015160f81c60f81b60f81c60ff166201000002848460020181518110611efb57fe5b602001015160f81c60f81b60f81c60ff1661010002858560030181518110611f1f57fe5b016020015160f81c0101019392505050565b8151600090603560f91b90849084908110611f4857fe5b01602001516001600160f81b03191614905092915050565b6000806000806000806000806000806000611f7b8d8d6121fa565b9c509050600460ff821614611f8f57600080fd5b611f998d8d611ea2565b95508060ff168c019b50611fad8d8d6121fa565b9c509050600860ff821614611fc157600080fd5b611fcb8d8d6110e5565b67ffffffffffffffff1692508060ff168c019b50611fe98d8d6121fa565b9c509050601460ff821614611ffd57600080fd5b6120078d8d61222c565b94508060ff168c019b5061201b8d8d6121fa565b9c509050600160ff82161461202f57600080fd5b8c8c8151811061203b57fe5b016020015160ff82169c909c019b60f81c91506120588d8d6121fa565b9c509050601460ff82161461206c57600080fd5b6120768d8d61222c565b929d949c50949a509850965090945050505050565b612093612411565b506040805180820190915281518152602082810190820152919050565b60606120bb82612234565b6120c457600080fd5b60006120cf8361226e565b905060608160405190808252806020026020018201604052801561210d57816020015b6120fa612411565b8152602001906001900390816120f25790505b509050600061211f85602001516122ca565b60208601510190506000805b848110156121765761213c8361232d565b915060405180604001604052808381526020018481525084828151811061215f57fe5b60209081029190910101529181019160010161212b565b509195945050505050565b805160609061218f57600080fd5b600061219e83602001516122ca565b83516040805191839003808352601f19601f82011683016020019091529192506060908280156121d5576020820181803883390190505b50905060008160200190506121f18487602001510182856123c6565b50949350505050565b6000808351831061220a57600080fd5b83838151811061221657fe5b016020015160f81c915050600182019250929050565b016014015190565b805160009061224557506000611421565b6020820151805160001a9060c082101561226457600092505050611421565b5060019392505050565b805160009061227f57506000611421565b6000809050600061229384602001516122ca565b602085015185519181019250015b808210156122c1576122b28261232d565b600190930192909101906122a1565b50909392505050565b8051600090811a60808110156122e4576000915050611421565b60b88110806122ff575060c081108015906122ff575060f881105b1561230e576001915050611421565b60c08110156123225760b519019050611421565b60f519019050611421565b80516000908190811a608081101561234857600191506123bf565b60b881101561235d57607e19810191506123bf565b60c081101561238a5760b78103600185019450806020036101000a855104600182018101935050506123bf565b60f881101561239f5760be19810191506123bf565b60f78103600185019450806020036101000a855104600182018101935050505b5092915050565b806123d05761240c565b5b602081106123f0578251825260209283019290910190601f19016123d1565b8251825160208390036101000a60001901801990921691161782525b505050565b60405180604001604052806000815260200160008152509056fe23537973636f696e4d6573736167654c696272617279206765744f7052657475726e506f7328293a204e6f204f7052657475726e20666f756e6423537973636f696e4d6573736167654c696272617279206765744f7052657475726e506f7328293a20556e65787065637465642064756d6d792f666c616723537973636f696e4d6573736167654c696272617279206765744f7052657475726e506f7328293a20496e636f72726563742073697a65206f66206e5f6f75747075747323537973636f696e4d6573736167654c696272617279206765744f7052657475726e506f7328293a20496e636f72726563742073697a65206f66206e5f696e70757473a265627a7a723158203a049c3dc2a87cdf52dc0983d03c2f8653da7b8b1e9f945ea10b40623b8fc70764736f6c634300050d0032",
  "source": "pragma solidity ^0.5.13;\n\nimport './SyscoinMessageLibrary.sol';\nimport '../SyscoinErrorCodes.sol';\n// @dev - Manages a battle session between superblock submitter and challenger\ncontract SyscoinMessageLibraryForTests is SyscoinErrorCodes, SyscoinMessageLibrary {\n\n//     function bytesToUint32Public(bytes memory input) public pure returns (uint32 result) {\n//         return bytesToUint32(input, 0);\n//     }\n\n//     function bytesToBytes32Public(bytes memory b) public pure returns (bytes32) {\n//         return bytesToBytes32(b, 0);\n//     }\n//     function bytesToUint16Public(bytes memory input) public pure returns (uint32 result) {\n//         return bytesToUint16(input, 0);\n//     }\n//     function sliceArrayPublic(bytes memory _rawBytes, uint offset, uint _endIndex) public view returns (bytes memory) {\n//         uint len = _endIndex - offset;\n//         bytes memory result = new bytes(len);\n//         assembly {\n//             // Call precompiled contract to copy data\n//             if iszero(staticcall(gas, 0x04, add(add(_rawBytes, 0x20), offset), len, add(result, 0x20), len)) {\n//                 revert(0, 0)\n//             }\n//         }\n//         return result;\n//     }\n\n//     function targetFromBitsPublic(uint32 _bits) public pure returns (uint) {\n//         uint exp = _bits / 0x1000000;  // 2**24\n//         uint mant = _bits & 0xffffff;\n//         return mant * 256**(exp - 3);\n//     }\n\n//     function makeMerklePublic(bytes32[] memory hashes2) public pure returns (bytes32) {\n//         return SyscoinMessageLibrary.makeMerkle(hashes2);\n//     }\n\n//     function flip32BytesPublic(uint input) public pure returns (uint) {\n//         return SyscoinMessageLibrary.flip32Bytes(input);\n//     }\n\n//     // @dev - Converts a bytes of size 4 to uint32,\n//     // e.g. for input [0x01, 0x02, 0x03 0x04] returns 0x01020304\n//     function bytesToUint32(bytes memory input, uint pos) private pure returns (uint32 result) {\n//         result = uint32(uint8(input[pos]))*(2**24) + uint32(uint8(input[pos + 1]))*(2**16) + uint32(uint8(input[pos + 2]))*(2**8) + uint32(uint8(input[pos + 3]));\n//     }\n\n//     // @dev converts bytes of any length to bytes32.\n//     // If `_rawBytes` is longer than 32 bytes, it truncates to the 32 leftmost bytes.\n//     // If it is shorter, it pads with 0s on the left.\n//     // Should be private, made internal for testing\n//     //\n//     // @param _rawBytes - arbitrary length bytes\n//     // @return - leftmost 32 or less bytes of input value; padded if less than 32\n//     function bytesToBytes32(bytes memory _rawBytes, uint pos) private pure returns (bytes32) {\n//         bytes32 out;\n//         assembly {\n//             out := mload(add(add(_rawBytes, 0x20), pos))\n//         }\n//         return out;\n//     }\n\n//     function parseTransaction(bytes memory txBytes) public pure\n//              returns (uint, uint, address, uint32, uint8, address) {\n//         return SyscoinMessageLibrary.parseTransaction(txBytes);\n//     }\n//     // Returns true if the tx output is an OP_RETURN output\n//     function isOpReturn(bytes memory txBytes, uint pos) public pure\n//              returns (bool) {\n//         // scriptPub format is\n//         // 0x6a OP_RETURN\n//         return \n//             txBytes[pos] == byte(0x6a);\n//     }  \n//     function getOpReturnPos(bytes memory txBytes, uint pos) public pure returns (uint) {\n//         uint n_inputs;\n//         uint script_len;\n//         uint output_value;\n//         uint n_outputs;\n\n//         (n_inputs, pos) = SyscoinMessageLibrary.parseVarInt(txBytes, pos);\n//         // if dummy 0x00 is present this is a witness transaction\n//         if(n_inputs == 0x00){\n//             (n_inputs, pos) = SyscoinMessageLibrary.parseVarInt(txBytes, pos); // flag\n//             require(n_inputs != 0x00, \"#SyscoinSuperblocks getOpReturnPos(): Unexpected dummy/flag\");\n//             // after dummy/flag the real var int comes for txins\n//             (n_inputs, pos) = SyscoinMessageLibrary.parseVarInt(txBytes, pos);\n//         }\n//         require(n_inputs < 100, \"#SyscoinSuperblocks getOpReturnPos(): Incorrect size of n_inputs\");\n\n//         for (uint i = 0; i < n_inputs; i++) {\n//             pos += 36;  // skip outpoint\n//             (script_len, pos) = SyscoinMessageLibrary.parseVarInt(txBytes, pos);\n//             pos += script_len + 4;  // skip sig_script, seq\n//         }\n        \n//         (n_outputs, pos) = SyscoinMessageLibrary.parseVarInt(txBytes, pos);\n//         require(n_outputs < 10, \"#SyscoinSuperblocks getOpReturnPos(): Incorrect size of n_outputs\");\n//         for (uint i = 0; i < n_outputs; i++) {\n//             pos += 8;\n//             // varint\n//             (script_len, pos) = SyscoinMessageLibrary.parseVarInt(txBytes, pos);\n//             if(!isOpReturn(txBytes, pos)){\n//                 // output script\n//                 pos += script_len;\n//                 output_value = 0;\n//                 continue;\n//             }\n//             // skip opreturn marker\n//             pos += 1;\n//             return pos;\n//         }\n//         revert(\"#SyscoinSuperblocks getOpReturnPos(): No OpReturn found\");\n//     }\n//     function bytesToUint16(bytes memory input, uint pos) public pure returns (uint16 result) {\n//         result = uint16(uint8(input[pos+1])) + uint16(uint8(input[pos]))*(2**8);\n//     }\n//     /**\n//      * Parse txBytes and returns ethereum tx receipt\n//      * @param txBytes syscoin raw transaction\n//      * @param pos position at where to start parsing\n//      * @return ethTxReceipt ethereum tx receipt\n//      */\n//     function getEthReceipt(bytes memory txBytes, uint pos)\n//         public\n//         returns (bytes memory)\n//     {\n//         bytes memory ethTxReceipt = new bytes(0);\n//         uint bytesToRead;\n//         // skip vchTxValue\n//         (bytesToRead, pos) = SyscoinMessageLibrary.parseVarInt(txBytes, pos);\n//         pos += bytesToRead;\n//         // skip vchTxParentNodes\n//         (bytesToRead, pos) = SyscoinMessageLibrary.parseVarInt(txBytes, pos);\n//         pos += bytesToRead;\n//         // skip vchTxRoot\n//         (bytesToRead, pos) = SyscoinMessageLibrary.parseVarInt(txBytes, pos);\n//         pos += bytesToRead;\n//         // skip vchTxPath\n//         (bytesToRead, pos) = SyscoinMessageLibrary.parseVarInt(txBytes, pos);\n//         pos += bytesToRead;\n//         // get vchReceiptValue\n//         (bytesToRead, pos) = SyscoinMessageLibrary.parseVarInt(txBytes, pos);\n//         // if position is encoded in receipt value, decode position and read the value from next field (parent nodes)\n//         if(bytesToRead == 2){\n//             uint16 positionOfValue = bytesToUint16(txBytes, pos);\n//             pos += bytesToRead;\n//             // get vchReceiptParentNodes\n//             (bytesToRead, pos) = SyscoinMessageLibrary.parseVarInt(txBytes, pos);\n//             pos += positionOfValue;\n//             ethTxReceipt = sliceArrayPublic(txBytes, pos, pos+(bytesToRead-positionOfValue));\n//         }\n//         // size > 2 means receipt value is fully serialized in this field and no need to get parent nodes field\n//         else{\n//             ethTxReceipt = sliceArrayPublic(txBytes, pos, pos+bytesToRead);      \n//         }\n//         return ethTxReceipt;\n//     }\n//     //\n//     // Error / failure codes\n//     //\n\n//     // error codes for storeBlockHeader\n//     uint constant ERR_DIFFICULTY =  10010;  // difficulty didn't match current difficulty\n//     uint constant ERR_RETARGET = 10020;  // difficulty didn't match retarget\n//     uint constant ERR_NO_PREV_BLOCK = 10030;\n//     uint constant ERR_BLOCK_ALREADY_EXISTS = 10040;\n//     uint constant ERR_INVALID_HEADER = 10050;\n//     uint constant ERR_COINBASE_INDEX = 10060; // coinbase tx index within Bitcoin merkle isn't 0\n//     uint constant ERR_NOT_MERGE_MINED = 10070; // trying to check AuxPoW on a block that wasn't merge mined\n//     uint constant ERR_FOUND_TWICE = 10080; // 0xfabe6d6d found twice\n//     uint constant ERR_NO_MERGE_HEADER = 10090; // 0xfabe6d6d not found\n//     uint constant ERR_NOT_IN_FIRST_20 = 10100; // chain Merkle root not within first 20 bytes of coinbase tx\n//     uint constant ERR_CHAIN_MERKLE = 10110;\n//     uint constant ERR_PARENT_MERKLE = 10120;\n//     uint constant ERR_PROOF_OF_WORK = 10130;\n//     uint constant ERR_INVALID_HEADER_HASH = 10140;\n//     uint constant ERR_PROOF_OF_WORK_AUXPOW = 10150;\n//     uint constant ERR_PARSE_TX_OUTPUT_LENGTH = 10160;\n//     uint constant ERR_PARSE_TX_SYS = 10170;\n\n//     // error codes for verifyTx\n//     uint constant ERR_BAD_FEE = 20010;\n//     uint constant ERR_CONFIRMATIONS = 20020;\n//     uint constant ERR_CHAIN = 20030;\n//     uint constant ERR_SUPERBLOCK = 20040;\n//     uint constant ERR_MERKLE_ROOT = 20050;\n//     uint constant ERR_TX_64BYTE = 20060;\n\n//     // error codes for relayTx\n//     uint constant ERR_RELAY_VERIFY = 30010;\n}",
  "sourcePath": "/Users/jsidhu/Documents/GitHub/sysethereum-contracts1/contracts/SyscoinParser/SyscoinMessageLibraryForTests.sol",
  "compiler": {
    "name": "solc",
    "version": "0.5.13+commit.5b0b510c.Emscripten.clang"
  },
  "schemaVersion": "3.0.19",
  "updatedAt": "2019-12-11T00:04:06.600Z",
  "devdoc": {
    "methods": {
      "getBridgeTransactionId(bytes)": {
        "params": {
          "logValues": "log values"
        },
        "return": "bridgeTransactionId"
      },
      "getEthReceipt(bytes,uint256)": {
        "params": {
          "pos": "position at where to start parsing",
          "txBytes": "syscoin raw transaction"
        },
        "return": "ethTxReceipt ethereum tx receipt"
      },
      "getLogValuesForTopic(bytes,bytes32)": {
        "params": {
          "ethTxReceipt": "ethereum transaction receipt"
        },
        "return": "logs bloom"
      }
    }
  },
  "userdoc": {
    "methods": {
      "getBridgeTransactionId(bytes)": {
        "notice": "Get bridgeTransactionId from logs bloom"
      },
      "getEthReceipt(bytes,uint256)": {
        "notice": "Parse txBytes and returns ethereum tx receipt"
      },
      "getLogValuesForTopic(bytes,bytes32)": {
        "notice": "Return logs for given ethereum transaction receipt"
      }
    }
  }
}