{
  "contractName": "SyscoinErrorCodes",
  "abi": [
    {
      "constant": true,
      "inputs": [],
      "name": "minProposalDeposit",
      "outputs": [
        {
          "internalType": "uint256",
          "name": "",
          "type": "uint256"
        }
      ],
      "payable": false,
      "stateMutability": "view",
      "type": "function"
    }
  ],
  "bytecode": "0x6080604052348015600f57600080fd5b5060868061001e6000396000f3fe6080604052348015600f57600080fd5b506004361060285760003560e01c8063455e616614602d575b600080fd5b60336045565b60408051918252519081900360200190f35b6729a2241af62c00008156fea265627a7a72315820929f3b676195f71588b6ad9f8a79d1f1915764a7c353f65f8319879a0bb3365864736f6c634300050d0032",
  "source": "pragma solidity ^0.5.13;\n\n// @dev - SyscoinSuperblocks error codes\ncontract SyscoinErrorCodes {\n    // Error codes\n    uint constant ERR_INVALID_HEADER = 10050;\n    uint constant ERR_COINBASE_INDEX = 10060; // coinbase tx index within Bitcoin merkle isn't 0\n    uint constant ERR_NOT_MERGE_MINED = 10070; // trying to check AuxPoW on a block that wasn't merge mined\n    uint constant ERR_FOUND_TWICE = 10080; // 0xfabe6d6d found twice\n    uint constant ERR_NO_MERGE_HEADER = 10090; // 0xfabe6d6d not found\n    uint constant ERR_CHAIN_MERKLE = 10110;\n    uint constant ERR_PARENT_MERKLE = 10120;\n    uint constant ERR_PROOF_OF_WORK = 10130;\n    uint constant ERR_INVALID_HEADER_HASH = 10140;\n    uint constant ERR_PROOF_OF_WORK_AUXPOW = 10150;\n    uint constant ERR_PARSE_TX_OUTPUT_LENGTH = 10160;\n\n\n    uint constant ERR_SUPERBLOCK_OK = 0;\n    uint constant ERR_SUPERBLOCK_MISSING_BLOCKS = 1;\n    uint constant ERR_SUPERBLOCK_BAD_STATUS = 50020;\n    uint constant ERR_SUPERBLOCK_BAD_SYSCOIN_STATUS = 50025;\n    uint constant ERR_SUPERBLOCK_TIMEOUT = 50026;\n    uint constant ERR_SUPERBLOCK_NO_TIMEOUT = 50030;\n    uint constant ERR_SUPERBLOCK_BAD_TIMESTAMP = 50035;\n    uint constant ERR_SUPERBLOCK_INVALID_TIMESTAMP = 50036;\n    uint constant ERR_SUPERBLOCK_INVALID_MERKLE = 50038;\n\n    // The error codes \"ERR_SUPERBLOCK_BAD_PARENT_*\" corresponds to ERR_SUPERBLOCK_BAD_PARENT + superblock.status\n    uint constant ERR_SUPERBLOCK_BAD_PARENT = 50040;\n    uint constant ERR_SUPERBLOCK_BAD_PARENT_UNINITIALIZED = 50040;\n    uint constant ERR_SUPERBLOCK_BAD_PARENT_NEW = 50041;\n    uint constant ERR_SUPERBLOCK_BAD_PARENT_INBATTLE = 50042;\n    uint constant ERR_SUPERBLOCK_BAD_PARENT_INVALID = 50045;\n\n    uint constant ERR_SUPERBLOCK_OWN_CHALLENGE = 50055;\n    uint constant ERR_SUPERBLOCK_BAD_PREV_TIMESTAMP = 50056;\n    uint constant ERR_SUPERBLOCK_BITS_SUPERBLOCK = 50057;\n    uint constant ERR_SUPERBLOCK_BITS_PREVBLOCK = 50058;\n    uint constant ERR_SUPERBLOCK_HASH_SUPERBLOCK = 50059;\n    uint constant ERR_SUPERBLOCK_HASH_PREVBLOCK = 50060;\n    uint constant ERR_SUPERBLOCK_HASH_PREVSUPERBLOCK = 50061;\n    uint constant ERR_SUPERBLOCK_MAX_INPROGRESS = 50062;\n    uint constant ERR_SUPERBLOCK_BITS_LASTBLOCK = 50064;\n    uint constant ERR_SUPERBLOCK_MIN_DEPOSIT = 50065;\n    uint constant ERR_SUPERBLOCK_BITS_INTERIM_PREVBLOCK = 50066;\n    uint constant ERR_SUPERBLOCK_HASH_INTERIM_PREVBLOCK = 50067;\n    uint constant ERR_SUPERBLOCK_BAD_TIMESTAMP_AVERAGE = 50068;\n    uint constant ERR_SUPERBLOCK_BAD_TIMESTAMP_MTP = 50069;\n\n    uint constant ERR_SUPERBLOCK_NOT_CLAIMMANAGER = 50070;\n    uint constant ERR_SUPERBLOCK_MISMATCH_TIMESTAMP_MTP = 50071;\n    uint constant ERR_SUPERBLOCK_TOOSMALL_TIMESTAMP_MTP = 50072;\n\n    uint constant ERR_SUPERBLOCK_BAD_CLAIM = 50080;\n    uint constant ERR_SUPERBLOCK_VERIFICATION_PENDING = 50090;\n    uint constant ERR_SUPERBLOCK_CLAIM_DECIDED = 50100;\n    uint constant ERR_SUPERBLOCK_CHALLENGE_EXISTS = 50110;\n\n    uint constant ERR_SUPERBLOCK_BAD_ACCUMULATED_WORK = 50120;\n    uint constant ERR_SUPERBLOCK_BAD_BITS = 50130;\n    uint constant ERR_SUPERBLOCK_MISSING_CONFIRMATIONS = 50140;\n    uint constant ERR_SUPERBLOCK_BAD_LASTBLOCK = 50150;\n    uint constant ERR_SUPERBLOCK_BAD_LASTBLOCK_STATUS = 50160;\n    uint constant ERR_SUPERBLOCK_BAD_BLOCKHEIGHT = 50170;\n    uint constant ERR_SUPERBLOCK_BAD_PREVBLOCK = 50190;\n    uint constant ERR_SUPERBLOCK_CLAIM_ALREADY_DEFENDED = 50200;\n    uint constant ERR_SUPERBLOCK_BAD_MISMATCH = 50210;\n    uint constant ERR_SUPERBLOCK_INTERIMBLOCK_MISSING = 50220;\n    uint constant ERR_SUPERBLOCK_BAD_INTERIM_PREVHASH = 50230;\n    uint constant ERR_SUPERBLOCK_BAD_INTERIM_BLOCKINDEX = 50240;\n\n\n    // error codes for verifyTx\n    uint constant ERR_BAD_FEE = 20010;\n    uint constant ERR_CONFIRMATIONS = 20020;\n    uint constant ERR_CHAIN = 20030;\n    uint constant ERR_SUPERBLOCK = 20040;\n    uint constant ERR_MERKLE_ROOT = 20050;\n    uint constant ERR_TX_64BYTE = 20060;\n    // error codes for relayTx\n    uint constant ERR_RELAY_VERIFY = 30010;\n    uint constant ERR_CANCEL_TRANSFER_VERIFY = 30020;\n    uint constant public minProposalDeposit = 3000000000000000000;\n}\n",
  "sourcePath": "/Users/jsidhu/Documents/GitHub/sysethereum-contracts1/contracts/SyscoinErrorCodes.sol",
  "compiler": {
    "name": "solc",
    "version": "0.5.13+commit.5b0b510c.Emscripten.clang"
  },
  "schemaVersion": "3.0.19",
  "updatedAt": "2019-12-11T00:04:06.577Z",
  "devdoc": {
    "methods": {}
  },
  "userdoc": {
    "methods": {}
  }
}