{
  "contractName": "SyscoinERC20Manager",
  "abi": [
    {
      "anonymous": false,
      "inputs": [
        {
          "indexed": false,
          "internalType": "address",
          "name": "canceller",
          "type": "address"
        },
        {
          "indexed": false,
          "internalType": "uint256",
          "name": "bridgetransferid",
          "type": "uint256"
        }
      ],
      "name": "CancelTransferFailed",
      "type": "event"
    },
    {
      "anonymous": false,
      "inputs": [
        {
          "indexed": false,
          "internalType": "address",
          "name": "canceller",
          "type": "address"
        },
        {
          "indexed": false,
          "internalType": "uint256",
          "name": "bridgetransferid",
          "type": "uint256"
        }
      ],
      "name": "CancelTransferRequest",
      "type": "event"
    },
    {
      "anonymous": false,
      "inputs": [
        {
          "indexed": false,
          "internalType": "address",
          "name": "canceller",
          "type": "address"
        },
        {
          "indexed": false,
          "internalType": "uint256",
          "name": "bridgetransferid",
          "type": "uint256"
        }
      ],
      "name": "CancelTransferSucceeded",
      "type": "event"
    },
    {
      "anonymous": false,
      "inputs": [
        {
          "indexed": false,
          "internalType": "address",
          "name": "freezer",
          "type": "address"
        },
        {
          "indexed": false,
          "internalType": "uint256",
          "name": "value",
          "type": "uint256"
        },
        {
          "indexed": false,
          "internalType": "uint32",
          "name": "bridgetransferid",
          "type": "uint32"
        }
      ],
      "name": "TokenFreeze",
      "type": "event"
    },
    {
      "anonymous": false,
      "inputs": [
        {
          "indexed": false,
          "internalType": "address",
          "name": "receipient",
          "type": "address"
        },
        {
          "indexed": false,
          "internalType": "uint256",
          "name": "value",
          "type": "uint256"
        }
      ],
      "name": "TokenUnfreeze",
      "type": "event"
    },
    {
      "anonymous": false,
      "inputs": [
        {
          "indexed": false,
          "internalType": "address",
          "name": "receipient",
          "type": "address"
        },
        {
          "indexed": false,
          "internalType": "uint256",
          "name": "value",
          "type": "uint256"
        }
      ],
      "name": "TokenUnfreezeFee",
      "type": "event"
    },
    {
      "constant": true,
      "inputs": [
        {
          "internalType": "uint32",
          "name": "",
          "type": "uint32"
        }
      ],
      "name": "assetBalances",
      "outputs": [
        {
          "internalType": "uint256",
          "name": "",
          "type": "uint256"
        }
      ],
      "payable": false,
      "stateMutability": "view",
      "type": "function"
    },
    {
      "constant": true,
      "inputs": [],
      "name": "trustedRelayerContract",
      "outputs": [
        {
          "internalType": "address",
          "name": "",
          "type": "address"
        }
      ],
      "payable": false,
      "stateMutability": "view",
      "type": "function"
    },
    {
      "constant": false,
      "inputs": [
        {
          "internalType": "address",
          "name": "_trustedRelayerContract",
          "type": "address"
        }
      ],
      "name": "init",
      "outputs": [],
      "payable": false,
      "stateMutability": "nonpayable",
      "type": "function"
    },
    {
      "constant": true,
      "inputs": [
        {
          "internalType": "uint256",
          "name": "txHash",
          "type": "uint256"
        }
      ],
      "name": "wasSyscoinTxProcessed",
      "outputs": [
        {
          "internalType": "bool",
          "name": "",
          "type": "bool"
        }
      ],
      "payable": false,
      "stateMutability": "view",
      "type": "function"
    },
    {
      "constant": false,
      "inputs": [
        {
          "internalType": "uint256",
          "name": "txHash",
          "type": "uint256"
        },
        {
          "internalType": "uint256",
          "name": "value",
          "type": "uint256"
        },
        {
          "internalType": "address",
          "name": "destinationAddress",
          "type": "address"
        },
        {
          "internalType": "address",
          "name": "superblockSubmitterAddress",
          "type": "address"
        },
        {
          "internalType": "address",
          "name": "erc20ContractAddress",
          "type": "address"
        },
        {
          "internalType": "uint32",
          "name": "assetGUID",
          "type": "uint32"
        },
        {
          "internalType": "uint8",
          "name": "precision",
          "type": "uint8"
        }
      ],
      "name": "processTransaction",
      "outputs": [],
      "payable": false,
      "stateMutability": "nonpayable",
      "type": "function"
    },
    {
      "constant": false,
      "inputs": [
        {
          "internalType": "uint32",
          "name": "bridgeTransferId",
          "type": "uint32"
        }
      ],
      "name": "cancelTransferRequest",
      "outputs": [],
      "payable": true,
      "stateMutability": "payable",
      "type": "function"
    },
    {
      "constant": false,
      "inputs": [
        {
          "internalType": "uint32",
          "name": "bridgeTransferId",
          "type": "uint32"
        }
      ],
      "name": "cancelTransferSuccess",
      "outputs": [],
      "payable": false,
      "stateMutability": "nonpayable",
      "type": "function"
    },
    {
      "constant": false,
      "inputs": [
        {
          "internalType": "uint32",
          "name": "bridgeTransferId",
          "type": "uint32"
        },
        {
          "internalType": "address payable",
          "name": "challengerAddress",
          "type": "address"
        }
      ],
      "name": "processCancelTransferFail",
      "outputs": [],
      "payable": false,
      "stateMutability": "nonpayable",
      "type": "function"
    },
    {
      "constant": false,
      "inputs": [
        {
          "internalType": "uint256",
          "name": "value",
          "type": "uint256"
        },
        {
          "internalType": "uint32",
          "name": "assetGUID",
          "type": "uint32"
        },
        {
          "internalType": "address",
          "name": "erc20ContractAddress",
          "type": "address"
        },
        {
          "internalType": "uint8",
          "name": "precision",
          "type": "uint8"
        },
        {
          "internalType": "bytes",
          "name": "syscoinAddress",
          "type": "bytes"
        }
      ],
      "name": "freezeBurnERC20",
      "outputs": [
        {
          "internalType": "bool",
          "name": "",
          "type": "bool"
        }
      ],
      "payable": false,
      "stateMutability": "nonpayable",
      "type": "function"
    }
  ],
  "bytecode": "0x608060405234801561001057600080fd5b50611816806100206000396000f3fe6080604052600436106100865760003560e01c80636cde8d6f116100595780636cde8d6f14610204578063a71d75ca14610243578063af56f1581461026d578063cf496b10146102d2578063fe2e97181461030357610086565b806319ab453c1461008b5780631b728920146100c05780632f3489c7146100e35780635f959b6914610113575b600080fd5b34801561009757600080fd5b506100be600480360360208110156100ae57600080fd5b50356001600160a01b0316610345565b005b6100be600480360360208110156100d657600080fd5b503563ffffffff16610410565b3480156100ef57600080fd5b506100be6004803603602081101561010657600080fd5b503563ffffffff1661063b565b34801561011f57600080fd5b506101f0600480360360a081101561013657600080fd5b81359163ffffffff602082013516916001600160a01b036040830135169160ff6060820135169181019060a08101608082013564010000000081111561017b57600080fd5b82018360208201111561018d57600080fd5b803590602001918460018302840111640100000000831117156101af57600080fd5b91908080601f0160208091040260200160405190810160405280939291908181526020018383808284376000920191909152509295506108ab945050505050565b604080519115158252519081900360200190f35b34801561021057600080fd5b506100be6004803603604081101561022757600080fd5b50803563ffffffff1690602001356001600160a01b0316610cd8565b34801561024f57600080fd5b506101f06004803603602081101561026657600080fd5b5035610e5b565b34801561027957600080fd5b506100be600480360360e081101561029057600080fd5b5080359060208101359060408101356001600160a01b039081169160608101358216916080820135169060a081013563ffffffff169060c0013560ff16610e6e565b3480156102de57600080fd5b506102e76111d3565b604080516001600160a01b039092168252519081900360200190f35b34801561030f57600080fd5b506103336004803603602081101561032657600080fd5b503563ffffffff166111e2565b60408051918252519081900360200190f35b600054610100900460ff168061035e575061035e6111f4565b8061036c575060005460ff16155b6103a75760405162461bcd60e51b815260040180806020018281038252602e81526020018061171f602e913960400191505060405180910390fd5b600054610100900460ff161580156103d2576000805460ff1961ff0019909116610100171660011790555b603380546001600160a01b0319166001600160a01b0384161790556036805463ffffffff19169055801561040c576000805461ff00191690555b5050565b6104186114ce565b63ffffffff828116600090815260376020908152604091829020825160c0810184528154815260018201549281019290925260028101546001600160a01b039081169383019390935260038101549283166060830152600160a01b83049093166080820152919060a0830190600160c01b900460ff16600481111561049957fe5b60048111156104a457fe5b905250905060018160a0015160048111156104bb57fe5b146104f75760405162461bcd60e51b815260040180806020018281038252605281526020018061155f6052913960600191505060405180910390fd5b80606001516001600160a01b0316336001600160a01b03161461054b5760405162461bcd60e51b81526004018080602001828103825260528152602001806116ac6052913960600191505060405180910390fd5b620dd7c081600001514203116105925760405162461bcd60e51b81526004018080602001828103825260548152602001806116586054913960600191505060405180910390fd5b6729a2241af62c00003410156105d95760405162461bcd60e51b81526004018080602001828103825260468152602001806116126046913960600191505060405180910390fd5b63ffffffff8216600081815260386020908152604091829020349055428452600260a085015281513381529081019290925280517ffa49c42faee222f56f4a7de9d6e17dfd571332d3fab6c383edf2f464867c5f209281900390910190a15050565b63ffffffff8116600090815260376020526040902060026003820154600160c01b900460ff16600481111561066c57fe5b146106a85760405162461bcd60e51b815260040180806020018281038252604c815260200180611796604c913960600191505060405180910390fd5b610e1081600001544203116106ee5760405162461bcd60e51b815260040180806020018281038252604981526020018061174d6049913960600191505060405180910390fd5b60028101546001820154600383015463ffffffff600160a01b90910481166000908152603460205260409020546001600160a01b03909316926107339290916111fa16565b600383018054600160a01b900463ffffffff1660009081526034602090815260408083209490945591546001860154845163a9059cbb60e01b81526001600160a01b039283166004820152602481019190915293519085169363a9059cbb936044808301949193928390030190829087803b1580156107b157600080fd5b505af11580156107c5573d6000803e3d6000fd5b505050506040513d60208110156107db57600080fd5b5050600382015463ffffffff84166000908152603860205260408082205490516001600160a01b0390931692839282156108fc02929190818181858888f1935050505015801561082f573d6000803e3d6000fd5b5063ffffffff841660008181526038602090815260408083209290925560038601805460ff60c01b1916600160c21b179081905582516001600160a01b0390911681529081019290925280517f6c950e0b2166dbed51acd0a7af66348be36451263beb93beead37a3773b9412b9281900390910190a150505050565b600083866000826001600160a01b031663313ce5676040518163ffffffff1660e01b815260040160206040518083038186803b1580156108ea57600080fd5b505afa1580156108fe573d6000803e3d6000fd5b505050506040513d602081101561091457600080fd5b505160ff16905061092f600a82810a9063ffffffff61124316565b82101561096d5760405162461bcd60e51b815260040180806020018281038252602c815260200180611533602c913960400191505060405180910390fd5b60008551116109c3576040805162461bcd60e51b815260206004820152601d60248201527f737973636f696e416464726573732063616e6e6f74206265207a65726f000000604482015290519081900360640190fd5b60008863ffffffff1611610a1e576040805162461bcd60e51b815260206004820152601860248201527f41737365742047554944206d757374206e6f7420626520300000000000000000604482015290519081900360640190fd5b6000879050806001600160a01b031663313ce5676040518163ffffffff1660e01b815260040160206040518083038186803b158015610a5c57600080fd5b505afa158015610a70573d6000803e3d6000fd5b505050506040513d6020811015610a8657600080fd5b505160ff888116911614610acb5760405162461bcd60e51b81526004018080602001828103825260318152602001806115026031913960400191505060405180910390fd5b604080516323b872dd60e01b8152336004820152306024820152604481018c905290516001600160a01b038316916323b872dd9160648083019260209291908290030181600087803b158015610b2057600080fd5b505af1158015610b34573d6000803e3d6000fd5b505050506040513d6020811015610b4a57600080fd5b505063ffffffff808a16600090815260346020526040902054610b6f918c9061128516565b63ffffffff808b166000818152603460209081526040918290209490945560368054808516600190810190951663ffffffff19909116179055805160c0810182524281529384018e90526001600160a01b038c1690840152336060840152608083015260a082015260365463ffffffff90811660009081526037602090815260409182902084518155908401516001820155908301516002820180546001600160a01b03199081166001600160a01b0393841617909155606085015160038401805460808801519316919093161763ffffffff60a01b1916600160a01b91909416029290921780835560a084015191929060ff60c01b1916600160c01b836004811115610c7857fe5b02179055505060365460408051338152602081018e905263ffffffff90921682820152517faabab1db49e504b5156edf3f99042aeecb9607a08f392589571cd49743aaba8d92509081900360600190a15060019998505050505050505050565b6033546001600160a01b03163314610d215760405162461bcd60e51b81526004018080602001828103825260218152602001806116fe6021913960400191505060405180910390fd5b63ffffffff8216600090815260376020526040902060026003820154600160c01b900460ff166004811115610d5257fe5b14610d8e5760405162461bcd60e51b81526004018080602001828103825260618152602001806115b16061913960800191505060405180910390fd5b63ffffffff83166000908152603860205260408082205490516001600160a01b0385169282156108fc02929190818181858888f19350505050158015610dd8573d6000803e3d6000fd5b5063ffffffff83166000908152603860205260408120556003818101805460ff60c01b1916600160c01b8302179055506003810154604080516001600160a01b03909216825263ffffffff8516602083015280517f442e8919dce47afac94e041e6fa11453c36d3c81f0035ca6236e292ca60721249281900390910190a1505050565b6000610e66826112df565b90505b919050565b6033546001600160a01b03163314610eb75760405162461bcd60e51b81526004018080602001828103825260218152602001806116fe6021913960400191505060405180910390fd5b60008390506000816001600160a01b031663313ce5676040518163ffffffff1660e01b815260040160206040518083038186803b158015610ef757600080fd5b505afa158015610f0b573d6000803e3d6000fd5b505050506040513d6020811015610f2157600080fd5b5051905060ff8084169082161115610f455782810360ff16600a0a88029750610f68565b8260ff168160ff161015610f685780830360ff16600a0a8881610f6457fe5b0497505b610f7281896112f4565b610f7b8961139a565b610fc3576040805162461bcd60e51b8152602060048201526014602482015273151608185b1c9958591e481c1c9bd8d95cdcd95960621b604482015290519081900360640190fd5b63ffffffff808516600090815260346020526040902054610fe6918a906111fa16565b63ffffffff808616600090815260346020526040812092909255611010908a906127109061124316565b905060006110248a8363ffffffff6111fa16565b9050836001600160a01b031663a9059cbb89846040518363ffffffff1660e01b815260040180836001600160a01b03166001600160a01b0316815260200182815260200192505050602060405180830381600087803b15801561108657600080fd5b505af115801561109a573d6000803e3d6000fd5b505050506040513d60208110156110b057600080fd5b5050604080516001600160a01b038a1681526020810184905281517f378dbe173f6ed6e11630b29573f719ec4cefc9b49f430deed915911c5f78a080929181900390910190a1836001600160a01b031663a9059cbb8a836040518363ffffffff1660e01b815260040180836001600160a01b03166001600160a01b0316815260200182815260200192505050602060405180830381600087803b15801561115657600080fd5b505af115801561116a573d6000803e3d6000fd5b505050506040513d602081101561118057600080fd5b5050604080516001600160a01b038b1681526020810183905281517fb925ba840e2f36bcb317f8179bd8b5ed01aba4a22abf5f169162c0894dea87ab929181900390910190a15050505050505050505050565b6033546001600160a01b031681565b60346020526000908152604090205481565b303b1590565b600061123c83836040518060400160405280601e81526020017f536166654d6174683a207375627472616374696f6e206f766572666c6f7700008152506113d2565b9392505050565b600061123c83836040518060400160405280601a81526020017f536166654d6174683a206469766973696f6e206279207a65726f000000000000815250611469565b60008282018381101561123c576040805162461bcd60e51b815260206004820152601b60248201527f536166654d6174683a206164646974696f6e206f766572666c6f770000000000604482015290519081900360640190fd5b60009081526035602052604090205460ff1690565b60ff821681611343576040805162461bcd60e51b815260206004820152601660248201527556616c7565206d75737420626520706f73697469766560501b604482015290519081900360640190fd5b611357600a82810a9063ffffffff61124316565b8210156113955760405162461bcd60e51b815260040180806020018281038252602c815260200180611533602c913960400191505060405180910390fd5b505050565b60006113a5826112df565b156113b257506000610e69565b506000908152603560205260409020805460ff1916600190811790915590565b600081848411156114615760405162461bcd60e51b81526004018080602001828103825283818151815260200191508051906020019080838360005b8381101561142657818101518382015260200161140e565b50505050905090810190601f1680156114535780820380516001836020036101000a031916815260200191505b509250505060405180910390fd5b505050900390565b600081836114b85760405162461bcd60e51b815260206004820181815283516024840152835190928392604490910191908501908083836000831561142657818101518382015260200161140e565b5060008385816114c457fe5b0495945050505050565b6040805160c08101825260008082526020820181905291810182905260608101829052608081018290529060a08201529056fe446563696d616c732077657265206e6f742070726f766964656420776974682074686520636f72726563742076616c756556616c7565206d75737420626520626967676572206f7220657175616c204d494e5f4c4f434b5f56414c554523537973636f696e45524332304d616e616765722063616e63656c5472616e736665725265717565737428293a20537461747573206f6620627269646765207472616e73666572206d757374206265204f6b23537973636f696e45524332304d616e616765722063616e63656c5472616e736665725375636365737328293a20537461747573206d7573742062652043616e63656c52657175657374656420746f204661696c20746865207472616e7366657223537973636f696e45524332304d616e616765722063616e63656c5472616e736665725375636365737328293a2043616e63656c206465706f73697420696e636f727265637423537973636f696e45524332304d616e616765722063616e63656c5472616e736665725265717565737428293a205472616e73666572206d757374206265206174206c6561737420312e35207765656b206f6c6423537973636f696e45524332304d616e616765722063616e63656c5472616e736665725265717565737428293a204f6e6c79206d73672e73656e64657220697320616c6c6f77656420746f2063616e63656c43616c6c206d7573742062652066726f6d20747275737465642072656c61796572436f6e747261637420696e7374616e63652068617320616c7265616479206265656e20696e697469616c697a656423537973636f696e45524332304d616e616765722063616e63656c5472616e736665725375636365737328293a203120686f7572732074696d656f757420697320726571756972656423537973636f696e45524332304d616e616765722063616e63656c5472616e736665725375636365737328293a20537461747573206d7573742062652043616e63656c526571756573746564a265627a7a72315820dee7a08171f02904d17cbbeb2db3ff354e06e42a1a073a5abf67110fd26bc85064736f6c634300050d0032",
  "source": "pragma solidity ^0.5.13;\n\nimport \"../SyscoinTransactionProcessor.sol\";\nimport \"openzeppelin-solidity/contracts/math/SafeMath.sol\";\nimport \"../interfaces/SyscoinERC20I.sol\";\nimport \"@openzeppelin/upgrades/contracts/Initializable.sol\";\n\ncontract SyscoinERC20Manager is Initializable {\n\n    using SafeMath for uint;\n    using SafeMath for uint8;\n\n    // Lock constants\n    uint private constant MIN_LOCK_VALUE = 10; // 0.1 token\n    uint private constant SUPERBLOCK_SUBMITTER_LOCK_FEE = 10000; // 10000 = 0.01%\n    uint private constant MIN_CANCEL_DEPOSIT = 3000000000000000000; // 3 eth\n    uint private constant CANCEL_TRANSFER_TIMEOUT = 3600; // 1 hour in seconds\n    uint private constant CANCEL_MINT_TIMEOUT = 907200; // 1.5 weeks in seconds\n    // Variables set by constructor\n\n    // Contract to trust for tx included in a syscoin block verification.\n    // Only syscoin txs relayed from trustedRelayerContract will be accepted.\n    address public trustedRelayerContract;\n\n\n    mapping(uint32 => uint256) public assetBalances;\n    // Syscoin transactions that were already processed by processTransaction()\n    mapping(uint => bool) private syscoinTxHashesAlreadyProcessed;\n\n    uint32 bridgeTransferIdCount;\n    \n    enum BridgeTransferStatus { Uninitialized, Ok, CancelRequested, CancelChallenged, CancelOk }\n    \n    struct BridgeTransfer {\n        uint timestamp;\n        uint value;\n        address erc20ContractAddress;\n        address tokenFreezerAddress;\n        uint32 assetGUID;\n        BridgeTransferStatus status;           \n    }\n\n    mapping(uint32 => BridgeTransfer) private bridgeTransfers;\n    mapping(uint32 => uint) private deposits;\n\n    event TokenUnfreeze(address receipient, uint value);\n    event TokenUnfreezeFee(address receipient, uint value);\n    event TokenFreeze(address freezer, uint value, uint32 bridgetransferid);\n    event CancelTransferRequest(address canceller, uint bridgetransferid);\n    event CancelTransferSucceeded(address canceller, uint bridgetransferid);\n    event CancelTransferFailed(address canceller, uint bridgetransferid);\n    function contains(uint value) private view returns (bool) {\n        return syscoinTxHashesAlreadyProcessed[value];\n    }\n\n    function insert(uint value) private returns (bool) {\n        if (contains(value))\n            return false; // already there\n        syscoinTxHashesAlreadyProcessed[value] = true;\n        return true;\n    }\n    \n    function init(address _trustedRelayerContract) public initializer {\n        trustedRelayerContract = _trustedRelayerContract;\n        bridgeTransferIdCount = 0;\n    }\n\n    modifier onlyTrustedRelayer() {\n        require(msg.sender == trustedRelayerContract, \"Call must be from trusted relayer\");\n        _;\n    }\n\n    modifier minimumValue(address erc20ContractAddress, uint value) {\n        uint256 decimals = SyscoinERC20I(erc20ContractAddress).decimals();\n        require(\n            value >= (uint256(10) ** decimals).div(MIN_LOCK_VALUE),\n            \"Value must be bigger or equal MIN_LOCK_VALUE\"\n        );\n        _;\n    }\n\n    function requireMinimumValue(uint8 decimalsIn, uint value) private pure {\n        uint256 decimals = uint256(decimalsIn);\n        require(value > 0, \"Value must be positive\");\n        require(\n            value >= (uint256(10) ** decimals).div(MIN_LOCK_VALUE),\n            \"Value must be bigger or equal MIN_LOCK_VALUE\"\n        );\n        \n    }\n\n    function wasSyscoinTxProcessed(uint txHash) public view returns (bool) {\n        return contains(txHash);\n    }\n\n    function processTransaction(\n        uint txHash,\n        uint value,\n        address destinationAddress,\n        address superblockSubmitterAddress,\n        address erc20ContractAddress,\n        uint32 assetGUID,\n        uint8 precision\n    ) public onlyTrustedRelayer {\n        SyscoinERC20I erc20 = SyscoinERC20I(erc20ContractAddress);\n        uint8 nLocalPrecision = erc20.decimals();\n        // see issue #372 on syscoin\n        if(nLocalPrecision > precision){\n            value *= uint(10)**(uint(nLocalPrecision - precision));\n        }else if(nLocalPrecision < precision){\n            value /= uint(10)**(uint(precision - nLocalPrecision));\n        }\n        requireMinimumValue(nLocalPrecision, value);\n        // Add tx to the syscoinTxHashesAlreadyProcessed and Check tx was not already processed\n        require(insert(txHash), \"TX already processed\");\n\n\n        assetBalances[assetGUID] = assetBalances[assetGUID].sub(value);\n\n        uint superblockSubmitterFee = value.div(SUPERBLOCK_SUBMITTER_LOCK_FEE);\n        uint userValue = value.sub(superblockSubmitterFee);\n\n        // pay the fee\n        erc20.transfer(superblockSubmitterAddress, superblockSubmitterFee);\n        emit TokenUnfreezeFee(superblockSubmitterAddress, superblockSubmitterFee);\n\n        // get your token\n        erc20.transfer(destinationAddress, userValue);\n        emit TokenUnfreeze(destinationAddress, userValue);\n    }\n    \n    function cancelTransferRequest(uint32 bridgeTransferId) public payable {\n        // lookup state by bridgeTransferId\n        BridgeTransfer memory bridgeTransfer = bridgeTransfers[bridgeTransferId];\n        // ensure state is Ok\n        require(bridgeTransfer.status == BridgeTransferStatus.Ok,\n            \"#SyscoinERC20Manager cancelTransferRequest(): Status of bridge transfer must be Ok\");\n        // ensure msg.sender is same as tokenFreezerAddress\n        // we don't have to do this but we do it anyway so someone can't accidentily cancel a transfer they did not make\n        require(msg.sender == bridgeTransfer.tokenFreezerAddress, \"#SyscoinERC20Manager cancelTransferRequest(): Only msg.sender is allowed to cancel\");\n        // if freezeBurnERC20 was called less than 1.5 weeks ago then return error\n        // 0.5 week buffer since only 1 week of blocks are allowed to pass before cannot mint on sys\n        require((block.timestamp - bridgeTransfer.timestamp) > CANCEL_MINT_TIMEOUT, \"#SyscoinERC20Manager cancelTransferRequest(): Transfer must be at least 1.5 week old\");\n        // ensure min deposit paid\n        require(msg.value >= MIN_CANCEL_DEPOSIT,\n            \"#SyscoinERC20Manager cancelTransferSuccess(): Cancel deposit incorrect\");\n        deposits[bridgeTransferId] = msg.value;\n        // set height for cancel time begin to enforce a delay to wait for challengers\n        bridgeTransfer.timestamp = block.timestamp;\n        // set state of bridge transfer to CancelRequested\n        bridgeTransfer.status = BridgeTransferStatus.CancelRequested;\n        emit CancelTransferRequest(msg.sender, bridgeTransferId);\n    }\n\n    function cancelTransferSuccess(uint32 bridgeTransferId) public {\n        // lookup state by bridgeTransferId\n        BridgeTransfer storage bridgeTransfer = bridgeTransfers[bridgeTransferId];\n        // ensure state is CancelRequested to avoid people trying to claim multiple times \n        // and that it has to be on an active cancel request\n        require(bridgeTransfer.status == BridgeTransferStatus.CancelRequested,\n            \"#SyscoinERC20Manager cancelTransferSuccess(): Status must be CancelRequested\");\n        // check if timeout period passed (atleast 1 hour of blocks have to have passed)\n        require((block.timestamp - bridgeTransfer.timestamp) > CANCEL_TRANSFER_TIMEOUT, \"#SyscoinERC20Manager cancelTransferSuccess(): 1 hours timeout is required\");\n        // refund erc20 to the tokenFreezerAddress\n        SyscoinERC20I erc20 = SyscoinERC20I(bridgeTransfer.erc20ContractAddress);\n        assetBalances[bridgeTransfer.assetGUID] = assetBalances[bridgeTransfer.assetGUID].sub(bridgeTransfer.value);\n        erc20.transfer(bridgeTransfer.tokenFreezerAddress, bridgeTransfer.value);\n        // pay back deposit\n        address payable tokenFreezeAddressPayable = address(uint160(bridgeTransfer.tokenFreezerAddress));\n        tokenFreezeAddressPayable.transfer(deposits[bridgeTransferId]);\n        delete deposits[bridgeTransferId];\n        // set state of bridge transfer to CancelOk\n        bridgeTransfer.status = BridgeTransferStatus.CancelOk;\n        emit CancelTransferSucceeded(bridgeTransfer.tokenFreezerAddress, bridgeTransferId);\n    }\n\n    function processCancelTransferFail(uint32 bridgeTransferId, address payable challengerAddress)\n        public\n        onlyTrustedRelayer\n    {\n        // lookup state by bridgeTransferId\n        BridgeTransfer storage bridgeTransfer = bridgeTransfers[bridgeTransferId];\n        // ensure state is CancelRequested\n        require(bridgeTransfer.status == BridgeTransferStatus.CancelRequested,\n            \"#SyscoinERC20Manager cancelTransferSuccess(): Status must be CancelRequested to Fail the transfer\");\n        // pay deposit to challenger\n        challengerAddress.transfer(deposits[bridgeTransferId]);\n        delete deposits[bridgeTransferId];\n        // set state of bridge transfer to CancelChallenged\n        bridgeTransfer.status = BridgeTransferStatus.CancelChallenged;\n        emit CancelTransferFailed(bridgeTransfer.tokenFreezerAddress, bridgeTransferId);\n    }\n\n    // keyhash or scripthash for syscoinWitnessProgram\n    function freezeBurnERC20(\n        uint value,\n        uint32 assetGUID,\n        address erc20ContractAddress,\n        uint8 precision,\n        bytes memory syscoinAddress\n    )\n        public\n        minimumValue(erc20ContractAddress, value)\n        returns (bool)\n    {\n        require(syscoinAddress.length > 0, \"syscoinAddress cannot be zero\");\n        require(assetGUID > 0, \"Asset GUID must not be 0\");\n        \n\n        SyscoinERC20I erc20 = SyscoinERC20I(erc20ContractAddress);\n        require(precision == erc20.decimals(), \"Decimals were not provided with the correct value\");\n        erc20.transferFrom(msg.sender, address(this), value);\n        assetBalances[assetGUID] = assetBalances[assetGUID].add(value);\n\n        // store some state needed for potential bridge transfer cancellation\n        // create bridgeTransferId mapping structure with status + height + value + erc20ContractAddress + assetGUID + tokenFreezerAddress\n        bridgeTransferIdCount++;\n        bridgeTransfers[bridgeTransferIdCount] = BridgeTransfer({\n            status: BridgeTransferStatus.Ok,\n            value: value,\n            erc20ContractAddress: erc20ContractAddress,\n            assetGUID: assetGUID,\n            timestamp: block.timestamp,\n            tokenFreezerAddress: msg.sender\n        });\n        emit TokenFreeze(msg.sender, value, bridgeTransferIdCount);\n        return true;\n    }\n}\n",
  "sourcePath": "/Users/jsidhu/Documents/GitHub/sysethereum-contracts1/contracts/token/SyscoinERC20Manager.sol",
  "compiler": {
    "name": "solc",
    "version": "0.5.13+commit.5b0b510c.Emscripten.clang"
  },
  "schemaVersion": "3.0.19",
  "updatedAt": "2019-12-11T00:04:06.621Z",
  "devdoc": {
    "methods": {}
  },
  "userdoc": {
    "methods": {}
  }
}