{
  "contractName": "SyscoinERC20Manager",
  "abi": [
    {
      "anonymous": false,
      "inputs": [
        {
          "indexed": false,
          "internalType": "address",
          "name": "canceller",
          "type": "address"
        },
        {
          "indexed": false,
          "internalType": "uint32",
          "name": "bridgetransferid",
          "type": "uint32"
        }
      ],
      "name": "CancelTransferFailed",
      "type": "event"
    },
    {
      "anonymous": false,
      "inputs": [
        {
          "indexed": false,
          "internalType": "address",
          "name": "canceller",
          "type": "address"
        },
        {
          "indexed": false,
          "internalType": "uint32",
          "name": "bridgetransferid",
          "type": "uint32"
        }
      ],
      "name": "CancelTransferRequest",
      "type": "event"
    },
    {
      "anonymous": false,
      "inputs": [
        {
          "indexed": false,
          "internalType": "address",
          "name": "canceller",
          "type": "address"
        },
        {
          "indexed": false,
          "internalType": "uint32",
          "name": "bridgetransferid",
          "type": "uint32"
        }
      ],
      "name": "CancelTransferSucceeded",
      "type": "event"
    },
    {
      "anonymous": false,
      "inputs": [
        {
          "indexed": false,
          "internalType": "address",
          "name": "freezer",
          "type": "address"
        },
        {
          "indexed": false,
          "internalType": "uint256",
          "name": "value",
          "type": "uint256"
        },
        {
          "indexed": false,
          "internalType": "uint32",
          "name": "bridgetransferid",
          "type": "uint32"
        }
      ],
      "name": "TokenFreeze",
      "type": "event"
    },
    {
      "anonymous": false,
      "inputs": [
        {
          "indexed": false,
          "internalType": "uint32",
          "name": "assetGuid",
          "type": "uint32"
        },
        {
          "indexed": false,
          "internalType": "address",
          "name": "erc20ContractAddress",
          "type": "address"
        }
      ],
      "name": "TokenRegistry",
      "type": "event"
    },
    {
      "anonymous": false,
      "inputs": [
        {
          "indexed": false,
          "internalType": "address",
          "name": "receipient",
          "type": "address"
        },
        {
          "indexed": false,
          "internalType": "uint256",
          "name": "value",
          "type": "uint256"
        }
      ],
      "name": "TokenUnfreeze",
      "type": "event"
    },
    {
      "anonymous": false,
      "inputs": [
        {
          "indexed": false,
          "internalType": "address",
          "name": "receipient",
          "type": "address"
        },
        {
          "indexed": false,
          "internalType": "uint256",
          "name": "value",
          "type": "uint256"
        }
      ],
      "name": "TokenUnfreezeFee",
      "type": "event"
    },
    {
      "constant": true,
      "inputs": [
        {
          "internalType": "uint32",
          "name": "",
          "type": "uint32"
        }
      ],
      "name": "assetBalances",
      "outputs": [
        {
          "internalType": "uint256",
          "name": "",
          "type": "uint256"
        }
      ],
      "payable": false,
      "stateMutability": "view",
      "type": "function"
    },
    {
      "constant": true,
      "inputs": [
        {
          "internalType": "uint32",
          "name": "",
          "type": "uint32"
        }
      ],
      "name": "assetRegistry",
      "outputs": [
        {
          "internalType": "address",
          "name": "erc20ContractAddress",
          "type": "address"
        },
        {
          "internalType": "uint32",
          "name": "height",
          "type": "uint32"
        }
      ],
      "payable": false,
      "stateMutability": "view",
      "type": "function"
    },
    {
      "constant": true,
      "inputs": [],
      "name": "trustedRelayerContract",
      "outputs": [
        {
          "internalType": "address",
          "name": "",
          "type": "address"
        }
      ],
      "payable": false,
      "stateMutability": "view",
      "type": "function"
    },
    {
      "constant": false,
      "inputs": [
        {
          "internalType": "enum SyscoinERC20Manager.Network",
          "name": "_network",
          "type": "uint8"
        },
        {
          "internalType": "address",
          "name": "_trustedRelayerContract",
          "type": "address"
        }
      ],
      "name": "init",
      "outputs": [],
      "payable": false,
      "stateMutability": "nonpayable",
      "type": "function"
    },
    {
      "constant": true,
      "inputs": [
        {
          "internalType": "uint256",
          "name": "txHash",
          "type": "uint256"
        }
      ],
      "name": "wasSyscoinTxProcessed",
      "outputs": [
        {
          "internalType": "bool",
          "name": "",
          "type": "bool"
        }
      ],
      "payable": false,
      "stateMutability": "view",
      "type": "function"
    },
    {
      "constant": false,
      "inputs": [
        {
          "internalType": "uint256",
          "name": "txHash",
          "type": "uint256"
        },
        {
          "internalType": "uint256",
          "name": "value",
          "type": "uint256"
        },
        {
          "internalType": "address",
          "name": "destinationAddress",
          "type": "address"
        },
        {
          "internalType": "address",
          "name": "superblockSubmitterAddress",
          "type": "address"
        },
        {
          "internalType": "address",
          "name": "erc20ContractAddress",
          "type": "address"
        },
        {
          "internalType": "uint32",
          "name": "assetGUID",
          "type": "uint32"
        },
        {
          "internalType": "uint8",
          "name": "precision",
          "type": "uint8"
        }
      ],
      "name": "processTransaction",
      "outputs": [],
      "payable": false,
      "stateMutability": "nonpayable",
      "type": "function"
    },
    {
      "constant": false,
      "inputs": [
        {
          "internalType": "uint256",
          "name": "_txHash",
          "type": "uint256"
        },
        {
          "internalType": "uint32",
          "name": "_assetGUID",
          "type": "uint32"
        },
        {
          "internalType": "uint32",
          "name": "_height",
          "type": "uint32"
        },
        {
          "internalType": "address",
          "name": "_erc20ContractAddress",
          "type": "address"
        }
      ],
      "name": "processAsset",
      "outputs": [],
      "payable": false,
      "stateMutability": "nonpayable",
      "type": "function"
    },
    {
      "constant": false,
      "inputs": [
        {
          "internalType": "uint32",
          "name": "bridgeTransferId",
          "type": "uint32"
        }
      ],
      "name": "cancelTransferRequest",
      "outputs": [],
      "payable": true,
      "stateMutability": "payable",
      "type": "function"
    },
    {
      "constant": false,
      "inputs": [
        {
          "internalType": "uint32",
          "name": "bridgeTransferId",
          "type": "uint32"
        }
      ],
      "name": "cancelTransferSuccess",
      "outputs": [],
      "payable": false,
      "stateMutability": "nonpayable",
      "type": "function"
    },
    {
      "constant": false,
      "inputs": [
        {
          "internalType": "uint32",
          "name": "bridgeTransferId",
          "type": "uint32"
        },
        {
          "internalType": "address payable",
          "name": "challengerAddress",
          "type": "address"
        }
      ],
      "name": "processCancelTransferFail",
      "outputs": [],
      "payable": false,
      "stateMutability": "nonpayable",
      "type": "function"
    },
    {
      "constant": false,
      "inputs": [
        {
          "internalType": "uint256",
          "name": "value",
          "type": "uint256"
        },
        {
          "internalType": "uint32",
          "name": "assetGUID",
          "type": "uint32"
        },
        {
          "internalType": "address",
          "name": "erc20ContractAddress",
          "type": "address"
        },
        {
          "internalType": "uint8",
          "name": "precision",
          "type": "uint8"
        },
        {
          "internalType": "bytes",
          "name": "syscoinAddress",
          "type": "bytes"
        }
      ],
      "name": "freezeBurnERC20",
      "outputs": [
        {
          "internalType": "bool",
          "name": "",
          "type": "bool"
        }
      ],
      "payable": false,
      "stateMutability": "nonpayable",
      "type": "function"
    },
    {
      "constant": true,
      "inputs": [
        {
          "internalType": "uint32",
          "name": "bridgeTransferId",
          "type": "uint32"
        }
      ],
      "name": "getBridgeTransfer",
      "outputs": [
        {
          "internalType": "uint256",
          "name": "_timestamp",
          "type": "uint256"
        },
        {
          "internalType": "uint256",
          "name": "_value",
          "type": "uint256"
        },
        {
          "internalType": "address",
          "name": "_erc20ContractAddress",
          "type": "address"
        },
        {
          "internalType": "address",
          "name": "_tokenFreezerAddress",
          "type": "address"
        },
        {
          "internalType": "uint32",
          "name": "_assetGUID",
          "type": "uint32"
        },
        {
          "internalType": "enum SyscoinERC20Manager.BridgeTransferStatus",
          "name": "_status",
          "type": "uint8"
        }
      ],
      "payable": false,
      "stateMutability": "view",
      "type": "function"
    }
  ],
  "bytecode": "0x608060405234801561001057600080fd5b50611d66806100206000396000f3fe6080604052600436106100a75760003560e01c80638b502b7a116100645780638b502b7a14610328578063a71d75ca14610380578063af56f158146103aa578063cf496b101461040f578063f7daeb8514610440578063fe2e97181461047c576100a7565b8063085e7092146100ac57806317c047e1146101535780631b728920146101a55780632f3489c7146101c85780635f959b69146101f85780636cde8d6f146102e9575b600080fd5b3480156100b857600080fd5b506100dc600480360360208110156100cf57600080fd5b503563ffffffff166104be565b60405180878152602001868152602001856001600160a01b03166001600160a01b03168152602001846001600160a01b03166001600160a01b031681526020018363ffffffff1663ffffffff16815260200182600481111561013a57fe5b60ff168152602001965050505050505060405180910390f35b34801561015f57600080fd5b506101a36004803603608081101561017657600080fd5b50803590602081013563ffffffff90811691604081013590911690606001356001600160a01b0316610512565b005b6101a3600480360360208110156101bb57600080fd5b503563ffffffff166106b8565b3480156101d457600080fd5b506101a3600480360360208110156101eb57600080fd5b503563ffffffff1661088c565b34801561020457600080fd5b506102d5600480360360a081101561021b57600080fd5b81359163ffffffff602082013516916001600160a01b036040830135169160ff6060820135169181019060a08101608082013564010000000081111561026057600080fd5b82018360208201111561027257600080fd5b8035906020019184600183028401116401000000008311171561029457600080fd5b91908080601f016020809104026020016040519081016040528093929190818152602001838380828437600092019190915250929550610aa5945050505050565b604080519115158252519081900360200190f35b3480156102f557600080fd5b506101a36004803603604081101561030c57600080fd5b50803563ffffffff1690602001356001600160a01b0316610ee3565b34801561033457600080fd5b506103586004803603602081101561034b57600080fd5b503563ffffffff1661106e565b604080516001600160a01b03909316835263ffffffff90911660208301528051918290030190f35b34801561038c57600080fd5b506102d5600480360360208110156103a357600080fd5b5035611098565b3480156103b657600080fd5b506101a3600480360360e08110156103cd57600080fd5b5080359060208101359060408101356001600160a01b039081169160608101358216916080820135169060a081013563ffffffff169060c0013560ff166110ab565b34801561041b57600080fd5b5061042461132c565b604080516001600160a01b039092168252519081900360200190f35b34801561044c57600080fd5b506101a36004803603604081101561046357600080fd5b50803560ff1690602001356001600160a01b031661133b565b34801561048857600080fd5b506104ac6004803603602081101561049f57600080fd5b503563ffffffff16611425565b60408051918252519081900360200190f35b63ffffffff9081166000908152603760205260409020805460018201546002830154600390930154919490936001600160a01b0393841693831692600160a01b810490911691600160c01b90910460ff1690565b6033546001600160a01b0316331461055b5760405162461bcd60e51b8152600401808060200182810382526021815260200180611baf6021913960400191505060405180910390fd5b63ffffffff8381166000908152603a6020526040902054818416600160a01b909104909116106105bc5760405162461bcd60e51b8152600401808060200182810382526031815260200180611cb56031913960400191505060405180910390fd5b6105c584611437565b61060d576040805162461bcd60e51b8152602060048201526014602482015273151608185b1c9958591e481c1c9bd8d95cdcd95960621b604482015290519081900360640190fd5b6040805180820182526001600160a01b0383811680835263ffffffff86811660208086019182528983166000818152603a83528890209651875493516001600160a01b031990941696169590951763ffffffff60a01b1916600160a01b92909316919091029190911790935583519182529181019190915281517f5276cc41288d98dae7d6e7ca6412b8335adfb3bd319f2e1dfc3933901d173033929181900390910190a150505050565b63ffffffff8116600090815260376020526040902060016003820154600160c01b900460ff1660048111156106e957fe5b146107255760405162461bcd60e51b8152600401808060200182810382526052815260200180611a106052913960600191505060405180910390fd5b60038101546001600160a01b031633146107705760405162461bcd60e51b8152600401808060200182810382526052815260200180611b5d6052913960600191505060405180910390fd5b600060395460ff16600281111561078357fe5b1461079057618ca0610795565b620dd7c05b81544203116107d55760405162461bcd60e51b8152600401808060200182810382526054815260200180611b096054913960600191505060405180910390fd5b6729a2241af62c000034101561081c5760405162461bcd60e51b8152600401808060200182810382526046815260200180611ac36046913960600191505060405180910390fd5b63ffffffff821660008181526038602090815260409182902034905542845560038401805460ff60c01b1916600160c11b17905581513381529081019290925280517f1bd938c0559acc36703807b71652dec64b2eed0d54f1716803e65cedc4f55a129281900390910190a15050565b63ffffffff8116600090815260376020526040902060026003820154600160c01b900460ff1660048111156108bd57fe5b146108f95760405162461bcd60e51b815260040180806020018281038252604c815260200180611ce6604c913960600191505060405180910390fd5b610e10816000015442031161093f5760405162461bcd60e51b8152600401808060200182810382526048815260200180611c436048913960600191505060405180910390fd5b60038101805460ff60c01b1916600160c21b17908190556002820154600183015463ffffffff600160a01b90930483166000908152603460205260409020546001600160a01b039092169261099692919061146f16565b60038301805463ffffffff600160a01b90910481166000908152603460205260409020929092555460018401546109dc926001600160a01b03858116931691906114b816565b600382015463ffffffff841660009081526038602052604080822080549083905590516001600160a01b039093169290918391839181818185875af1925050503d8060008114610a48576040519150601f19603f3d011682016040523d82523d6000602084013e610a4d565b606091505b5050506003840154604080516001600160a01b03909216825263ffffffff8716602083015280517f558dcc0f85e822d51fb0c98b95ab299d76c136c9d1a34b9cb2e3ede1689cdcfe9281900390910190a15050505050565b600083866000826001600160a01b031663313ce5676040518163ffffffff1660e01b815260040160206040518083038186803b158015610ae457600080fd5b505afa158015610af8573d6000803e3d6000fd5b505050506040513d6020811015610b0e57600080fd5b505160ff169050610b29600a82810a9063ffffffff61150a16565b821015610b675760405162461bcd60e51b815260040180806020018281038252602c8152602001806119e4602c913960400191505060405180910390fd5b6000855111610bbd576040805162461bcd60e51b815260206004820152601d60248201527f737973636f696e416464726573732063616e6e6f74206265207a65726f000000604482015290519081900360640190fd5b60008863ffffffff1611610c18576040805162461bcd60e51b815260206004820152601860248201527f41737365742047554944206d757374206e6f7420626520300000000000000000604482015290519081900360640190fd5b600260395460ff166002811115610c2b57fe5b14610c8f5763ffffffff88166000908152603a60205260409020546001600160a01b03888116911614610c8f5760405162461bcd60e51b8152600401808060200182810382526045815260200180611bfe6045913960600191505060405180910390fd5b6000879050806001600160a01b031663313ce5676040518163ffffffff1660e01b815260040160206040518083038186803b158015610ccd57600080fd5b505afa158015610ce1573d6000803e3d6000fd5b505050506040513d6020811015610cf757600080fd5b505160ff888116911614610d3c5760405162461bcd60e51b81526004018080602001828103825260318152602001806119b36031913960400191505060405180910390fd5b610d576001600160a01b03821633308d63ffffffff61154c16565b63ffffffff808a16600090815260346020526040902054610d7a918c906115ac16565b63ffffffff808b166000818152603460209081526040918290209490945560368054808516600190810190951663ffffffff19909116179055805160c0810182524281529384018e90526001600160a01b038c1690840152336060840152608083015260a082015260365463ffffffff90811660009081526037602090815260409182902084518155908401516001820155908301516002820180546001600160a01b03199081166001600160a01b0393841617909155606085015160038401805460808801519316919093161763ffffffff60a01b1916600160a01b91909416029290921780835560a084015191929060ff60c01b1916600160c01b836004811115610e8357fe5b02179055505060365460408051338152602081018e905263ffffffff90921682820152517faabab1db49e504b5156edf3f99042aeecb9607a08f392589571cd49743aaba8d92509081900360600190a15060019998505050505050505050565b6033546001600160a01b03163314610f2c5760405162461bcd60e51b8152600401808060200182810382526021815260200180611baf6021913960400191505060405180910390fd5b63ffffffff8216600090815260376020526040902060026003820154600160c01b900460ff166004811115610f5d57fe5b14610f995760405162461bcd60e51b8152600401808060200182810382526061815260200180611a626061913960800191505060405180910390fd5b60038101805460ff60c01b1916600360c01b17905563ffffffff8316600090815260386020526040808220805490839055905190916001600160a01b03851691839181818185875af1925050503d8060008114611012576040519150601f19603f3d011682016040523d82523d6000602084013e611017565b606091505b5050506003820154604080516001600160a01b03909216825263ffffffff8616602083015280517f960e217c57581c52cdc4e321eb617416d051a348a2ecf62bb8023a3558e80e859281900390910190a150505050565b603a602052600090815260409020546001600160a01b03811690600160a01b900463ffffffff1682565b60006110a382611606565b90505b919050565b6033546001600160a01b031633146110f45760405162461bcd60e51b8152600401808060200182810382526021815260200180611baf6021913960400191505060405180910390fd5b60008390506000816001600160a01b031663313ce5676040518163ffffffff1660e01b815260040160206040518083038186803b15801561113457600080fd5b505afa158015611148573d6000803e3d6000fd5b505050506040513d602081101561115e57600080fd5b5051905060ff80841690821611156111825782810360ff16600a0a880297506111a5565b8260ff168160ff1610156111a55780830360ff16600a0a88816111a157fe5b0497505b6111af818961161b565b6111b889611437565b611200576040805162461bcd60e51b8152602060048201526014602482015273151608185b1c9958591e481c1c9bd8d95cdcd95960621b604482015290519081900360640190fd5b63ffffffff808516600090815260346020526040902054611223918a9061146f16565b63ffffffff80861660009081526034602052604081209290925561124d908a906127109061150a16565b905060006112618a8363ffffffff61146f16565b905061127d6001600160a01b038516898463ffffffff6114b816565b604080516001600160a01b038a1681526020810184905281517f378dbe173f6ed6e11630b29573f719ec4cefc9b49f430deed915911c5f78a080929181900390910190a16112db6001600160a01b0385168a8363ffffffff6114b816565b604080516001600160a01b038b1681526020810183905281517fb925ba840e2f36bcb317f8179bd8b5ed01aba4a22abf5f169162c0894dea87ab929181900390910190a15050505050505050505050565b6033546001600160a01b031681565b600054610100900460ff168061135457506113546116bc565b80611362575060005460ff16155b61139d5760405162461bcd60e51b815260040180806020018281038252602e815260200180611bd0602e913960400191505060405180910390fd5b600054610100900460ff161580156113c8576000805460ff1961ff0019909116610100171660011790555b6039805484919060ff191660018360028111156113e157fe5b0217905550603380546001600160a01b0319166001600160a01b0384161790556036805463ffffffff191690558015611420576000805461ff00191690555b505050565b60346020526000908152604090205481565b600061144282611606565b1561144f575060006110a6565b506000908152603560205260409020805460ff1916600190811790915590565b60006114b183836040518060400160405280601e81526020017f536166654d6174683a207375627472616374696f6e206f766572666c6f7700008152506116c2565b9392505050565b604080516001600160a01b038416602482015260448082018490528251808303909101815260649091019091526020810180516001600160e01b031663a9059cbb60e01b179052611420908490611759565b60006114b183836040518060400160405280601a81526020017f536166654d6174683a206469766973696f6e206279207a65726f000000000000815250611911565b604080516001600160a01b0385811660248301528416604482015260648082018490528251808303909101815260849091019091526020810180516001600160e01b03166323b872dd60e01b1790526115a6908590611759565b50505050565b6000828201838110156114b1576040805162461bcd60e51b815260206004820152601b60248201527f536166654d6174683a206164646974696f6e206f766572666c6f770000000000604482015290519081900360640190fd5b60009081526035602052604090205460ff1690565b60ff82168161166a576040805162461bcd60e51b815260206004820152601660248201527556616c7565206d75737420626520706f73697469766560501b604482015290519081900360640190fd5b61167e600a82810a9063ffffffff61150a16565b8210156114205760405162461bcd60e51b815260040180806020018281038252602c8152602001806119e4602c913960400191505060405180910390fd5b303b1590565b600081848411156117515760405162461bcd60e51b81526004018080602001828103825283818151815260200191508051906020019080838360005b838110156117165781810151838201526020016116fe565b50505050905090810190601f1680156117435780820380516001836020036101000a031916815260200191505b509250505060405180910390fd5b505050900390565b61176b826001600160a01b0316611976565b6117bc576040805162461bcd60e51b815260206004820152601f60248201527f5361666545524332303a2063616c6c20746f206e6f6e2d636f6e747261637400604482015290519081900360640190fd5b60006060836001600160a01b0316836040518082805190602001908083835b602083106117fa5780518252601f1990920191602091820191016117db565b6001836020036101000a0380198251168184511680821785525050505050509050019150506000604051808303816000865af19150503d806000811461185c576040519150601f19603f3d011682016040523d82523d6000602084013e611861565b606091505b5091509150816118b8576040805162461bcd60e51b815260206004820181905260248201527f5361666545524332303a206c6f772d6c6576656c2063616c6c206661696c6564604482015290519081900360640190fd5b8051156115a6578080602001905160208110156118d457600080fd5b50516115a65760405162461bcd60e51b815260040180806020018281038252602a815260200180611c8b602a913960400191505060405180910390fd5b600081836119605760405162461bcd60e51b81526020600482018181528351602484015283519092839260449091019190850190808383600083156117165781810151838201526020016116fe565b50600083858161196c57fe5b0495945050505050565b6000813f7fc5d2460186f7233c927e7db2dcc703c0e500b653ca82273b7bfad8045d85a47081158015906119aa5750808214155b94935050505056fe446563696d616c732077657265206e6f742070726f766964656420776974682074686520636f72726563742076616c756556616c7565206d75737420626520626967676572206f7220657175616c204d494e5f4c4f434b5f56414c554523537973636f696e45524332304d616e616765722063616e63656c5472616e736665725265717565737428293a20537461747573206f6620627269646765207472616e73666572206d757374206265204f6b23537973636f696e45524332304d616e616765722063616e63656c5472616e736665725375636365737328293a20537461747573206d7573742062652043616e63656c52657175657374656420746f204661696c20746865207472616e7366657223537973636f696e45524332304d616e616765722063616e63656c5472616e736665725265717565737428293a2043616e63656c206465706f73697420696e636f727265637423537973636f696e45524332304d616e616765722063616e63656c5472616e736665725265717565737428293a205472616e73666572206d757374206265206174206c6561737420312e35207765656b206f6c6423537973636f696e45524332304d616e616765722063616e63656c5472616e736665725265717565737428293a204f6e6c79206d73672e73656e64657220697320616c6c6f77656420746f2063616e63656c43616c6c206d7573742062652066726f6d20747275737465642072656c61796572436f6e747261637420696e7374616e63652068617320616c7265616479206265656e20696e697469616c697a6564417373657420726567697374727920636f6e747261637420646f6573206e6f74206d617463682077686174207761732070726f766964656420746f20746869732063616c6c23537973636f696e45524332304d616e616765722063616e63656c5472616e736665725375636365737328293a203120686f75722074696d656f75742069732072657175697265645361666545524332303a204552433230206f7065726174696f6e20646964206e6f742073756363656564486569676874206d75737420696e637265617365207768656e207570646174696e6720617373657420726567697374727923537973636f696e45524332304d616e616765722063616e63656c5472616e736665725375636365737328293a20537461747573206d7573742062652043616e63656c526571756573746564a265627a7a72315820c4c1b087d95c1b469e4b0159cf74a91845953f47ebb8d7d5adac63fafa3dd21364736f6c634300050d0032",
  "source": "pragma solidity ^0.5.13;\n\nimport \"openzeppelin-solidity/contracts/math/SafeMath.sol\";\nimport \"../interfaces/SyscoinERC20I.sol\";\nimport \"@openzeppelin/upgrades/contracts/Initializable.sol\";\n\ncontract SyscoinERC20Manager is Initializable {\n    using SafeMath for uint;\n    using SafeMath for uint8;\n\n    // Lock constants\n    uint private constant MIN_LOCK_VALUE = 10; // 0.1 token\n    uint private constant SUPERBLOCK_SUBMITTER_LOCK_FEE = 10000; // 10000 = 0.01%\n    uint private constant MIN_CANCEL_DEPOSIT = 3000000000000000000; // 3 eth\n    uint private constant CANCEL_TRANSFER_TIMEOUT = 3600; // 1 hour in seconds\n    uint private constant CANCEL_MINT_TIMEOUT = 907200; // 1.5 weeks in seconds\n    // Variables set by constructor\n\n    // Contract to trust for tx included in a syscoin block verification.\n    // Only syscoin txs relayed from trustedRelayerContract will be accepted.\n    address public trustedRelayerContract;\n\n\n    mapping(uint32 => uint256) public assetBalances;\n    // Syscoin transactions that were already processed by processTransaction()\n    mapping(uint => bool) private syscoinTxHashesAlreadyProcessed;\n\n    uint32 bridgeTransferIdCount;\n    \n    enum BridgeTransferStatus { Uninitialized, Ok, CancelRequested, CancelChallenged, CancelOk }\n    \n    struct BridgeTransfer {\n        uint timestamp;\n        uint value;\n        address erc20ContractAddress;\n        address tokenFreezerAddress;\n        uint32 assetGUID;\n        BridgeTransferStatus status;           \n    }\n\n    mapping(uint32 => BridgeTransfer) private bridgeTransfers;\n    mapping(uint32 => uint) private deposits;\n\n    // network that the stored blocks belong to\n    enum Network { MAINNET, TESTNET, REGTEST }\n    Network private net;\n\n    event TokenUnfreeze(address receipient, uint value);\n    event TokenUnfreezeFee(address receipient, uint value);\n    event TokenFreeze(address freezer, uint value, uint32 bridgetransferid);\n    event CancelTransferRequest(address canceller, uint32 bridgetransferid);\n    event CancelTransferSucceeded(address canceller, uint32 bridgetransferid);\n    event CancelTransferFailed(address canceller, uint32 bridgetransferid);\n\n    struct AssetRegistryItem {\n        address erc20ContractAddress;\n        uint32 height;     \n    }\n    mapping(uint32 => AssetRegistryItem) public assetRegistry;\n    event TokenRegistry(uint32 assetGuid, address erc20ContractAddress);\n    using SafeERC20 for SyscoinERC20I;\n    function contains(uint value) private view returns (bool) {\n        return syscoinTxHashesAlreadyProcessed[value];\n    }\n\n    function insert(uint value) private returns (bool) {\n        if (contains(value))\n            return false; // already there\n        syscoinTxHashesAlreadyProcessed[value] = true;\n        return true;\n    }\n    \n    function init(Network _network, address _trustedRelayerContract) public initializer {\n        net = _network;\n        trustedRelayerContract = _trustedRelayerContract;\n        bridgeTransferIdCount = 0;\n    }\n\n    modifier onlyTrustedRelayer() {\n        require(msg.sender == trustedRelayerContract, \"Call must be from trusted relayer\");\n        _;\n    }\n\n    modifier minimumValue(address erc20ContractAddress, uint value) {\n        uint256 decimals = SyscoinERC20I(erc20ContractAddress).decimals();\n        require(\n            value >= (uint256(10) ** decimals).div(MIN_LOCK_VALUE),\n            \"Value must be bigger or equal MIN_LOCK_VALUE\"\n        );\n        _;\n    }\n\n    function requireMinimumValue(uint8 decimalsIn, uint value) private pure {\n        uint256 decimals = uint256(decimalsIn);\n        require(value > 0, \"Value must be positive\");\n        require(\n            value >= (uint256(10) ** decimals).div(MIN_LOCK_VALUE),\n            \"Value must be bigger or equal MIN_LOCK_VALUE\"\n        );\n        \n    }\n\n    function wasSyscoinTxProcessed(uint txHash) public view returns (bool) {\n        return contains(txHash);\n    }\n\n    function processTransaction(\n        uint txHash,\n        uint value,\n        address destinationAddress,\n        address superblockSubmitterAddress,\n        address erc20ContractAddress,\n        uint32 assetGUID,\n        uint8 precision\n    ) public onlyTrustedRelayer {\n        SyscoinERC20I erc20 = SyscoinERC20I(erc20ContractAddress);\n        uint8 nLocalPrecision = erc20.decimals();\n        // see issue #372 on syscoin\n        if(nLocalPrecision > precision){\n            value *= uint(10)**(uint(nLocalPrecision - precision));\n        }else if(nLocalPrecision < precision){\n            value /= uint(10)**(uint(precision - nLocalPrecision));\n        }\n        requireMinimumValue(nLocalPrecision, value);\n        // Add tx to the syscoinTxHashesAlreadyProcessed and Check tx was not already processed\n        require(insert(txHash), \"TX already processed\");\n\n\n        assetBalances[assetGUID] = assetBalances[assetGUID].sub(value);\n\n        uint superblockSubmitterFee = value.div(SUPERBLOCK_SUBMITTER_LOCK_FEE);\n        uint userValue = value.sub(superblockSubmitterFee);\n\n        // pay the fee\n        erc20.safeTransfer(superblockSubmitterAddress, superblockSubmitterFee);\n        emit TokenUnfreezeFee(superblockSubmitterAddress, superblockSubmitterFee);\n\n        // get your token\n        erc20.safeTransfer(destinationAddress, userValue);\n        emit TokenUnfreeze(destinationAddress, userValue);\n    }\n\n    function processAsset(\n        uint _txHash,\n        uint32 _assetGUID,\n        uint32 _height,\n        address _erc20ContractAddress\n    ) public onlyTrustedRelayer {\n        // ensure height increases over asset updates\n        require(assetRegistry[_assetGUID].height < _height, \"Height must increase when updating asset registry\");\n        // Add tx to the syscoinTxHashesAlreadyProcessed and Check tx was not already processed\n        require(insert(_txHash), \"TX already processed\");\n        assetRegistry[_assetGUID] = AssetRegistryItem({erc20ContractAddress:_erc20ContractAddress, height:_height});\n        emit TokenRegistry(_assetGUID, _erc20ContractAddress);\n    }\n    \n    function cancelTransferRequest(uint32 bridgeTransferId) public payable {\n        // lookup state by bridgeTransferId\n        BridgeTransfer storage bridgeTransfer = bridgeTransfers[bridgeTransferId];\n        // ensure state is Ok\n        require(bridgeTransfer.status == BridgeTransferStatus.Ok,\n            \"#SyscoinERC20Manager cancelTransferRequest(): Status of bridge transfer must be Ok\");\n        // ensure msg.sender is same as tokenFreezerAddress\n        // we don't have to do this but we do it anyway so someone can't accidentily cancel a transfer they did not make\n        require(msg.sender == bridgeTransfer.tokenFreezerAddress, \"#SyscoinERC20Manager cancelTransferRequest(): Only msg.sender is allowed to cancel\");\n        // if freezeBurnERC20 was called less than 1.5 weeks ago then return error\n        // 0.5 week buffer since only 1 week of blocks are allowed to pass before cannot mint on sys\n        require((block.timestamp - bridgeTransfer.timestamp) > (net == Network.MAINNET? CANCEL_MINT_TIMEOUT: 36000), \"#SyscoinERC20Manager cancelTransferRequest(): Transfer must be at least 1.5 week old\");\n        // ensure min deposit paid\n        require(msg.value >= MIN_CANCEL_DEPOSIT,\n            \"#SyscoinERC20Manager cancelTransferRequest(): Cancel deposit incorrect\");\n        deposits[bridgeTransferId] = msg.value;\n        // set height for cancel time begin to enforce a delay to wait for challengers\n        bridgeTransfer.timestamp = block.timestamp;\n        // set state of bridge transfer to CancelRequested\n        bridgeTransfer.status = BridgeTransferStatus.CancelRequested;\n        emit CancelTransferRequest(msg.sender, bridgeTransferId);\n    }\n\n    function cancelTransferSuccess(uint32 bridgeTransferId) public {\n        // lookup state by bridgeTransferId\n        BridgeTransfer storage bridgeTransfer = bridgeTransfers[bridgeTransferId];\n        // ensure state is CancelRequested to avoid people trying to claim multiple times \n        // and that it has to be on an active cancel request\n        require(bridgeTransfer.status == BridgeTransferStatus.CancelRequested,\n            \"#SyscoinERC20Manager cancelTransferSuccess(): Status must be CancelRequested\");\n        // check if timeout period passed (atleast 1 hour of blocks have to have passed)\n        require((block.timestamp - bridgeTransfer.timestamp) > CANCEL_TRANSFER_TIMEOUT, \"#SyscoinERC20Manager cancelTransferSuccess(): 1 hour timeout is required\");\n        // set state of bridge transfer to CancelOk\n        bridgeTransfer.status = BridgeTransferStatus.CancelOk;\n        // refund erc20 to the tokenFreezerAddress\n        SyscoinERC20I erc20 = SyscoinERC20I(bridgeTransfer.erc20ContractAddress);\n        assetBalances[bridgeTransfer.assetGUID] = assetBalances[bridgeTransfer.assetGUID].sub(bridgeTransfer.value);\n        erc20.safeTransfer(bridgeTransfer.tokenFreezerAddress, bridgeTransfer.value);\n        // pay back deposit\n        address payable tokenFreezeAddressPayable = address(uint160(bridgeTransfer.tokenFreezerAddress));\n        uint d = deposits[bridgeTransferId];\n        delete deposits[bridgeTransferId];\n        // stop using .transfer() because of gas issue after ethereum upgrade\n        tokenFreezeAddressPayable.call.value(d)(\"\");\n        emit CancelTransferSucceeded(bridgeTransfer.tokenFreezerAddress, bridgeTransferId);\n    }\n\n    function processCancelTransferFail(uint32 bridgeTransferId, address payable challengerAddress)\n        public\n        onlyTrustedRelayer\n    {\n        // lookup state by bridgeTransferId\n        BridgeTransfer storage bridgeTransfer = bridgeTransfers[bridgeTransferId];\n        // ensure state is CancelRequested\n        require(bridgeTransfer.status == BridgeTransferStatus.CancelRequested,\n            \"#SyscoinERC20Manager cancelTransferSuccess(): Status must be CancelRequested to Fail the transfer\");\n        // set state of bridge transfer to CancelChallenged\n        bridgeTransfer.status = BridgeTransferStatus.CancelChallenged;\n        // pay deposit to challenger\n        uint d = deposits[bridgeTransferId];\n        delete deposits[bridgeTransferId];\n        // stop using .transfer() because of gas issue after ethereum upgrade\n        challengerAddress.call.value(d)(\"\");\n        emit CancelTransferFailed(bridgeTransfer.tokenFreezerAddress, bridgeTransferId);\n    }\n\n    // keyhash or scripthash for syscoinWitnessProgram\n    function freezeBurnERC20(\n        uint value,\n        uint32 assetGUID,\n        address erc20ContractAddress,\n        uint8 precision,\n        bytes memory syscoinAddress\n    )\n        public\n        minimumValue(erc20ContractAddress, value)\n        returns (bool)\n    {\n        require(syscoinAddress.length > 0, \"syscoinAddress cannot be zero\");\n        require(assetGUID > 0, \"Asset GUID must not be 0\");\n        if (net != Network.REGTEST) {\n            require(assetRegistry[assetGUID].erc20ContractAddress == erc20ContractAddress, \"Asset registry contract does not match what was provided to this call\");\n        }\n\n        SyscoinERC20I erc20 = SyscoinERC20I(erc20ContractAddress);\n        require(precision == erc20.decimals(), \"Decimals were not provided with the correct value\");\n        erc20.safeTransferFrom(msg.sender, address(this), value);\n        assetBalances[assetGUID] = assetBalances[assetGUID].add(value);\n\n        // store some state needed for potential bridge transfer cancellation\n        // create bridgeTransferId mapping structure with status + height + value + erc20ContractAddress + assetGUID + tokenFreezerAddress\n        bridgeTransferIdCount++;\n        bridgeTransfers[bridgeTransferIdCount] = BridgeTransfer({\n            status: BridgeTransferStatus.Ok,\n            value: value,\n            erc20ContractAddress: erc20ContractAddress,\n            assetGUID: assetGUID,\n            timestamp: block.timestamp,\n            tokenFreezerAddress: msg.sender\n        });\n        emit TokenFreeze(msg.sender, value, bridgeTransferIdCount);\n        return true;\n    }\n\n    // @dev - Returns the bridge transfer data for the supplied bridge transfer ID\n    //\n    function getBridgeTransfer(uint32 bridgeTransferId) external view returns (\n        uint _timestamp,\n        uint _value,\n        address _erc20ContractAddress,\n        address _tokenFreezerAddress,\n        uint32 _assetGUID,\n        BridgeTransferStatus _status\n    ) {\n        BridgeTransfer storage bridgeTransfer = bridgeTransfers[bridgeTransferId];\n        return (\n            bridgeTransfer.timestamp,\n            bridgeTransfer.value,\n            bridgeTransfer.erc20ContractAddress,\n            bridgeTransfer.tokenFreezerAddress,\n            bridgeTransfer.assetGUID,\n            bridgeTransfer.status\n        );\n    }\n}\n",
  "sourcePath": "/Users/jsidhu/Documents/GitHub/sysethereum-contracts1/contracts/token/SyscoinERC20Manager.sol",
  "compiler": {
    "name": "solc",
    "version": "0.5.13+commit.5b0b510c.Emscripten.clang"
  },
  "schemaVersion": "3.0.20",
  "updatedAt": "2020-06-04T03:16:07.459Z",
  "devdoc": {
    "methods": {}
  },
  "userdoc": {
    "methods": {}
  }
}