{
  "contractName": "SyscoinERC20ManagerForTests",
  "abi": [
    {
      "anonymous": false,
      "inputs": [
        {
          "indexed": false,
          "internalType": "address",
          "name": "freezer",
          "type": "address"
        },
        {
          "indexed": false,
          "internalType": "uint256",
          "name": "value",
          "type": "uint256"
        }
      ],
      "name": "TokenFreeze",
      "type": "event"
    },
    {
      "anonymous": false,
      "inputs": [
        {
          "indexed": false,
          "internalType": "address",
          "name": "receipient",
          "type": "address"
        },
        {
          "indexed": false,
          "internalType": "uint256",
          "name": "value",
          "type": "uint256"
        }
      ],
      "name": "TokenUnfreeze",
      "type": "event"
    },
    {
      "anonymous": false,
      "inputs": [
        {
          "indexed": false,
          "internalType": "address",
          "name": "receipient",
          "type": "address"
        },
        {
          "indexed": false,
          "internalType": "uint256",
          "name": "value",
          "type": "uint256"
        }
      ],
      "name": "TokenUnfreezeFee",
      "type": "event"
    },
    {
      "constant": true,
      "inputs": [],
      "name": "MIN_LOCK_VALUE",
      "outputs": [
        {
          "internalType": "uint256",
          "name": "",
          "type": "uint256"
        }
      ],
      "payable": false,
      "stateMutability": "view",
      "type": "function"
    },
    {
      "constant": true,
      "inputs": [],
      "name": "SUPERBLOCK_SUBMITTER_LOCK_FEE",
      "outputs": [
        {
          "internalType": "uint256",
          "name": "",
          "type": "uint256"
        }
      ],
      "payable": false,
      "stateMutability": "view",
      "type": "function"
    },
    {
      "constant": true,
      "inputs": [
        {
          "internalType": "uint32",
          "name": "",
          "type": "uint32"
        }
      ],
      "name": "assetBalances",
      "outputs": [
        {
          "internalType": "uint256",
          "name": "",
          "type": "uint256"
        }
      ],
      "payable": false,
      "stateMutability": "view",
      "type": "function"
    },
    {
      "constant": false,
      "inputs": [
        {
          "internalType": "address",
          "name": "_trustedRelayerContract",
          "type": "address"
        }
      ],
      "name": "init",
      "outputs": [],
      "payable": false,
      "stateMutability": "nonpayable",
      "type": "function"
    },
    {
      "constant": false,
      "inputs": [
        {
          "internalType": "uint256",
          "name": "txHash",
          "type": "uint256"
        },
        {
          "internalType": "uint256",
          "name": "value",
          "type": "uint256"
        },
        {
          "internalType": "address",
          "name": "destinationAddress",
          "type": "address"
        },
        {
          "internalType": "address",
          "name": "superblockSubmitterAddress",
          "type": "address"
        },
        {
          "internalType": "address",
          "name": "erc20ContractAddress",
          "type": "address"
        },
        {
          "internalType": "uint32",
          "name": "assetGUID",
          "type": "uint32"
        },
        {
          "internalType": "uint8",
          "name": "precision",
          "type": "uint8"
        }
      ],
      "name": "processTransaction",
      "outputs": [],
      "payable": false,
      "stateMutability": "nonpayable",
      "type": "function"
    },
    {
      "constant": true,
      "inputs": [],
      "name": "trustedRelayerContract",
      "outputs": [
        {
          "internalType": "address",
          "name": "",
          "type": "address"
        }
      ],
      "payable": false,
      "stateMutability": "view",
      "type": "function"
    },
    {
      "constant": true,
      "inputs": [
        {
          "internalType": "uint256",
          "name": "txHash",
          "type": "uint256"
        }
      ],
      "name": "wasSyscoinTxProcessed",
      "outputs": [
        {
          "internalType": "bool",
          "name": "",
          "type": "bool"
        }
      ],
      "payable": false,
      "stateMutability": "view",
      "type": "function"
    },
    {
      "constant": false,
      "inputs": [
        {
          "internalType": "uint256",
          "name": "value",
          "type": "uint256"
        },
        {
          "internalType": "uint32",
          "name": "assetGUID",
          "type": "uint32"
        },
        {
          "internalType": "address",
          "name": "erc20ContractAddress",
          "type": "address"
        },
        {
          "internalType": "uint8",
          "name": "precision",
          "type": "uint8"
        },
        {
          "internalType": "bytes",
          "name": "",
          "type": "bytes"
        }
      ],
      "name": "freezeBurnERC20",
      "outputs": [
        {
          "internalType": "bool",
          "name": "",
          "type": "bool"
        }
      ],
      "payable": false,
      "stateMutability": "nonpayable",
      "type": "function"
    }
  ],
  "bytecode": "0x608060405234801561001057600080fd5b50610c54806100206000396000f3fe608060405234801561001057600080fd5b50600436106100885760003560e01c8063b52d521d1161005b578063b52d521d1461020e578063b85278a914610228578063cf496b1014610230578063fe2e97181461025457610088565b806319ab453c1461008d5780635f959b69146100b5578063a71d75ca14610199578063af56f158146101b6575b600080fd5b6100b3600480360360208110156100a357600080fd5b50356001600160a01b0316610277565b005b610185600480360360a08110156100cb57600080fd5b81359163ffffffff602082013516916001600160a01b036040830135169160ff6060820135169181019060a08101608082013564010000000081111561011057600080fd5b82018360208201111561012257600080fd5b8035906020019184600183028401116401000000008311171561014457600080fd5b91908080601f016020809104026020016040519081016040528093929190818152602001838380828437600092019190915250929550610335945050505050565b604080519115158252519081900360200190f35b610185600480360360208110156101af57600080fd5b50356105ae565b6100b3600480360360e08110156101cc57600080fd5b5080359060208101359060408101356001600160a01b039081169160608101358216916080820135169060a081013563ffffffff169060c0013560ff166105c1565b610216610926565b60408051918252519081900360200190f35b61021661092b565b610238610931565b604080516001600160a01b039092168252519081900360200190f35b6102166004803603602081101561026a57600080fd5b503563ffffffff16610940565b600054610100900460ff16806102905750610290610952565b8061029e575060005460ff16155b6102d95760405162461bcd60e51b815260040180806020018281038252602e815260200180610bf2602e913960400191505060405180910390fd5b600054610100900460ff16158015610304576000805460ff1961ff0019909116610100171660011790555b603380546001600160a01b0319166001600160a01b0384161790558015610331576000805461ff00191690555b5050565b600083866000826001600160a01b031663313ce5676040518163ffffffff1660e01b815260040160206040518083038186803b15801561037457600080fd5b505afa158015610388573d6000803e3d6000fd5b505050506040513d602081101561039e57600080fd5b505160ff1690506103b9600a82810a9063ffffffff61095816565b8210156103f75760405162461bcd60e51b815260040180806020018281038252602c815260200180610ba5602c913960400191505060405180910390fd5b63ffffffff80891660009081526034602052604090205461041a918b906109c216565b63ffffffff891660009081526034602090815260409182902092909255805163313ce56760e01b8152905189926001600160a01b0384169263313ce5679260048083019392829003018186803b15801561047357600080fd5b505afa158015610487573d6000803e3d6000fd5b505050506040513d602081101561049d57600080fd5b505160ff8881169116146104e25760405162461bcd60e51b8152600401808060200182810382526031815260200180610b746031913960400191505060405180910390fd5b604080516323b872dd60e01b8152336004820152306024820152604481018c905290516001600160a01b038316916323b872dd9160648083019260209291908290030181600087803b15801561053757600080fd5b505af115801561054b573d6000803e3d6000fd5b505050506040513d602081101561056157600080fd5b505060408051338152602081018c905281517f7def9f73ac6a7ac8fe4dc55f5257d48aed7e3f9d5247b0020598b87a5c369d82929181900390910190a15060019998505050505050505050565b60006105b982610a23565b90505b919050565b6033546001600160a01b0316331461060a5760405162461bcd60e51b8152600401808060200182810382526021815260200180610bd16021913960400191505060405180910390fd5b60008390506000816001600160a01b031663313ce5676040518163ffffffff1660e01b815260040160206040518083038186803b15801561064a57600080fd5b505afa15801561065e573d6000803e3d6000fd5b505050506040513d602081101561067457600080fd5b5051905060ff80841690821611156106985782810360ff16600a0a880297506106bb565b8260ff168160ff1610156106bb5780830360ff16600a0a88816106b757fe5b0497505b6106c58189610a38565b6106ce89610ade565b610716576040805162461bcd60e51b8152602060048201526014602482015273151608185b1c9958591e481c1c9bd8d95cdcd95960621b604482015290519081900360640190fd5b63ffffffff808516600090815260346020526040902054610739918a90610b1616565b63ffffffff808616600090815260346020526040812092909255610763908a906127109061095816565b905060006107778a8363ffffffff610b1616565b9050836001600160a01b031663a9059cbb89846040518363ffffffff1660e01b815260040180836001600160a01b03166001600160a01b0316815260200182815260200192505050602060405180830381600087803b1580156107d957600080fd5b505af11580156107ed573d6000803e3d6000fd5b505050506040513d602081101561080357600080fd5b5050604080516001600160a01b038a1681526020810184905281517f378dbe173f6ed6e11630b29573f719ec4cefc9b49f430deed915911c5f78a080929181900390910190a1836001600160a01b031663a9059cbb8a836040518363ffffffff1660e01b815260040180836001600160a01b03166001600160a01b0316815260200182815260200192505050602060405180830381600087803b1580156108a957600080fd5b505af11580156108bd573d6000803e3d6000fd5b505050506040513d60208110156108d357600080fd5b5050604080516001600160a01b038b1681526020810183905281517fb925ba840e2f36bcb317f8179bd8b5ed01aba4a22abf5f169162c0894dea87ab929181900390910190a15050505050505050505050565b600a81565b61271081565b6033546001600160a01b031681565b60346020526000908152604090205481565b303b1590565b60008082116109ae576040805162461bcd60e51b815260206004820152601a60248201527f536166654d6174683a206469766973696f6e206279207a65726f000000000000604482015290519081900360640190fd5b60008284816109b957fe5b04949350505050565b600082820183811015610a1c576040805162461bcd60e51b815260206004820152601b60248201527f536166654d6174683a206164646974696f6e206f766572666c6f770000000000604482015290519081900360640190fd5b9392505050565b60009081526035602052604090205460ff1690565b60ff821681610a87576040805162461bcd60e51b815260206004820152601660248201527556616c7565206d75737420626520706f73697469766560501b604482015290519081900360640190fd5b610a9b600a82810a9063ffffffff61095816565b821015610ad95760405162461bcd60e51b815260040180806020018281038252602c815260200180610ba5602c913960400191505060405180910390fd5b505050565b6000610ae982610a23565b15610af6575060006105bc565b506000908152603560205260409020805460ff1916600190811790915590565b600082821115610b6d576040805162461bcd60e51b815260206004820152601e60248201527f536166654d6174683a207375627472616374696f6e206f766572666c6f770000604482015290519081900360640190fd5b5090039056fe446563696d616c732077657265206e6f742070726f766964656420776974682074686520636f72726563742076616c756556616c7565206d75737420626520626967676572206f7220657175616c204d494e5f4c4f434b5f56414c554543616c6c206d7573742062652066726f6d20747275737465642072656c61796572436f6e747261637420696e7374616e63652068617320616c7265616479206265656e20696e697469616c697a6564a265627a7a72315820a4dd9f73676527cb6e394b9ecf5f0662fc482f45516fd312fc252253ea23430264736f6c634300050c0032",
  "source": "pragma solidity ^0.5.12;\n\nimport \"./SyscoinERC20Manager.sol\";\n\n// DONOT USE IN PRODUCTION\ncontract SyscoinERC20ManagerForTests is SyscoinERC20Manager {\n    // keyhash or scripthash for syscoinWitnessProgram\n    function freezeBurnERC20(\n        uint value,\n        uint32 assetGUID,\n        address erc20ContractAddress,\n        uint8 precision,\n        bytes memory\n    )\n        public\n        minimumValue(erc20ContractAddress, value)\n        returns (bool)\n    {\n        // commented out on purpose\n        // require(syscoinAddress.length > 0, \"syscoinAddress cannot be zero\");\n\n        // commented out on purpose\n        // require(assetGUID > 0, \"Asset GUID must not be 0\");\n        \n        assetBalances[assetGUID] = assetBalances[assetGUID].add(value);\n\n        SyscoinERC20I erc20 = SyscoinERC20I(erc20ContractAddress);\n        require(precision == erc20.decimals(), \"Decimals were not provided with the correct value\");\n        erc20.transferFrom(msg.sender, address(this), value);\n        emit TokenFreeze(msg.sender, value);\n\n        return true;\n    }\n}\n",
  "sourcePath": "/Users/jsidhu/Documents/GitHub/sysethereum-contracts1/contracts/token/SyscoinERC20ManagerForTests.sol",
  "compiler": {
    "name": "solc",
    "version": "0.5.12+commit.7709ece9.Emscripten.clang"
  },
  "schemaVersion": "3.0.16",
  "updatedAt": "2019-11-01T17:28:08.001Z",
  "devdoc": {
    "methods": {}
  },
  "userdoc": {
    "methods": {}
  }
}