{
  "contractName": "SyscoinBattleManager",
  "abi": [
    {
      "anonymous": false,
      "inputs": [
        {
          "indexed": false,
          "internalType": "bytes32",
          "name": "superblockHash",
          "type": "bytes32"
        },
        {
          "indexed": false,
          "internalType": "bytes32",
          "name": "sessionId",
          "type": "bytes32"
        },
        {
          "indexed": false,
          "internalType": "uint256",
          "name": "err",
          "type": "uint256"
        },
        {
          "indexed": false,
          "internalType": "address",
          "name": "challenger",
          "type": "address"
        }
      ],
      "name": "ChallengerConvicted",
      "type": "event"
    },
    {
      "anonymous": false,
      "inputs": [
        {
          "indexed": false,
          "internalType": "bytes32",
          "name": "superblockHash",
          "type": "bytes32"
        },
        {
          "indexed": false,
          "internalType": "bytes32",
          "name": "sessionId",
          "type": "bytes32"
        },
        {
          "indexed": false,
          "internalType": "address",
          "name": "submitter",
          "type": "address"
        },
        {
          "indexed": false,
          "internalType": "address",
          "name": "challenger",
          "type": "address"
        }
      ],
      "name": "NewBattle",
      "type": "event"
    },
    {
      "anonymous": false,
      "inputs": [
        {
          "indexed": false,
          "internalType": "bytes32",
          "name": "superblockHash",
          "type": "bytes32"
        },
        {
          "indexed": false,
          "internalType": "bytes32",
          "name": "sessionId",
          "type": "bytes32"
        },
        {
          "indexed": false,
          "internalType": "uint256",
          "name": "merkleHashCount",
          "type": "uint256"
        },
        {
          "indexed": false,
          "internalType": "address",
          "name": "submitter",
          "type": "address"
        }
      ],
      "name": "RespondBlockHeaders",
      "type": "event"
    },
    {
      "anonymous": false,
      "inputs": [
        {
          "indexed": false,
          "internalType": "bytes32",
          "name": "superblockHash",
          "type": "bytes32"
        },
        {
          "indexed": false,
          "internalType": "bytes32",
          "name": "sessionId",
          "type": "bytes32"
        },
        {
          "indexed": false,
          "internalType": "uint256",
          "name": "err",
          "type": "uint256"
        },
        {
          "indexed": false,
          "internalType": "address",
          "name": "submitter",
          "type": "address"
        }
      ],
      "name": "SubmitterConvicted",
      "type": "event"
    },
    {
      "constant": true,
      "inputs": [],
      "name": "minProposalDeposit",
      "outputs": [
        {
          "internalType": "uint256",
          "name": "",
          "type": "uint256"
        }
      ],
      "payable": false,
      "stateMutability": "view",
      "type": "function"
    },
    {
      "constant": true,
      "inputs": [],
      "name": "superblockDuration",
      "outputs": [
        {
          "internalType": "uint256",
          "name": "",
          "type": "uint256"
        }
      ],
      "payable": false,
      "stateMutability": "view",
      "type": "function"
    },
    {
      "constant": true,
      "inputs": [],
      "name": "superblockTimeout",
      "outputs": [
        {
          "internalType": "uint256",
          "name": "",
          "type": "uint256"
        }
      ],
      "payable": false,
      "stateMutability": "view",
      "type": "function"
    },
    {
      "constant": false,
      "inputs": [
        {
          "internalType": "enum SyscoinBattleManager.Network",
          "name": "_network",
          "type": "uint8"
        },
        {
          "internalType": "contract SyscoinSuperblocksI",
          "name": "_superblocks",
          "type": "address"
        },
        {
          "internalType": "uint256",
          "name": "_superblockDuration",
          "type": "uint256"
        },
        {
          "internalType": "uint256",
          "name": "_superblockTimeout",
          "type": "uint256"
        }
      ],
      "name": "init",
      "outputs": [],
      "payable": false,
      "stateMutability": "nonpayable",
      "type": "function"
    },
    {
      "constant": false,
      "inputs": [
        {
          "internalType": "contract SyscoinClaimManagerI",
          "name": "_syscoinClaimManager",
          "type": "address"
        }
      ],
      "name": "setSyscoinClaimManager",
      "outputs": [],
      "payable": false,
      "stateMutability": "nonpayable",
      "type": "function"
    },
    {
      "constant": false,
      "inputs": [
        {
          "internalType": "bytes32",
          "name": "superblockHash",
          "type": "bytes32"
        },
        {
          "internalType": "address",
          "name": "submitter",
          "type": "address"
        },
        {
          "internalType": "address",
          "name": "challenger",
          "type": "address"
        }
      ],
      "name": "beginBattleSession",
      "outputs": [
        {
          "internalType": "bytes32",
          "name": "",
          "type": "bytes32"
        }
      ],
      "payable": false,
      "stateMutability": "nonpayable",
      "type": "function"
    },
    {
      "constant": false,
      "inputs": [
        {
          "internalType": "bytes32",
          "name": "sessionId",
          "type": "bytes32"
        },
        {
          "internalType": "bytes",
          "name": "blockHeaders",
          "type": "bytes"
        },
        {
          "internalType": "uint256",
          "name": "numHeaders",
          "type": "uint256"
        }
      ],
      "name": "respondBlockHeaders",
      "outputs": [],
      "payable": false,
      "stateMutability": "nonpayable",
      "type": "function"
    },
    {
      "constant": false,
      "inputs": [
        {
          "internalType": "bytes32",
          "name": "sessionId",
          "type": "bytes32"
        }
      ],
      "name": "timeout",
      "outputs": [
        {
          "internalType": "uint256",
          "name": "",
          "type": "uint256"
        }
      ],
      "payable": false,
      "stateMutability": "nonpayable",
      "type": "function"
    },
    {
      "constant": true,
      "inputs": [
        {
          "internalType": "bytes32",
          "name": "sessionId",
          "type": "bytes32"
        }
      ],
      "name": "getSubmitterHitTimeout",
      "outputs": [
        {
          "internalType": "bool",
          "name": "",
          "type": "bool"
        }
      ],
      "payable": false,
      "stateMutability": "view",
      "type": "function"
    },
    {
      "constant": true,
      "inputs": [
        {
          "internalType": "bytes32",
          "name": "sessionId",
          "type": "bytes32"
        }
      ],
      "name": "getNumMerkleHashesBySession",
      "outputs": [
        {
          "internalType": "uint256",
          "name": "",
          "type": "uint256"
        }
      ],
      "payable": false,
      "stateMutability": "view",
      "type": "function"
    },
    {
      "constant": true,
      "inputs": [
        {
          "internalType": "bytes32",
          "name": "sessionId",
          "type": "bytes32"
        }
      ],
      "name": "sessionExists",
      "outputs": [
        {
          "internalType": "bool",
          "name": "",
          "type": "bool"
        }
      ],
      "payable": false,
      "stateMutability": "view",
      "type": "function"
    }
  ],
  "bytecode": "0x608060405234801561001057600080fd5b506124ce806100206000396000f3fe608060405234801561001057600080fd5b50600436106100a95760003560e01c8063795ea18e11610071578063795ea18e146101d8578063d1daeede146101f5578063df23ceb214610229578063e177321614610264578063f1afcfa614610281578063f871dfe814610289576100a9565b806318b011de146100ae5780633678c143146100c8578063455e6166146100f057806351fcf431146100f857806371a8c18a146101a7575b600080fd5b6100b66102a6565b60408051918252519081900360200190f35b6100ee600480360360208110156100de57600080fd5b50356001600160a01b03166102ac565b005b6100b6610303565b6100ee6004803603606081101561010e57600080fd5b8135919081019060408101602082013564010000000081111561013057600080fd5b82018360208201111561014257600080fd5b8035906020019184600183028401116401000000008311171561016457600080fd5b91908080601f016020809104026020016040519081016040528093929190818152602001838380828437600092019190915250929550509135925061030f915050565b6101c4600480360360208110156101bd57600080fd5b5035610771565b604080519115158252519081900360200190f35b6100b6600480360360208110156101ee57600080fd5b5035610791565b6100b66004803603606081101561020b57600080fd5b508035906001600160a01b0360208201358116916040013516610804565b6100ee6004803603608081101561023f57600080fd5b5060ff813516906001600160a01b03602082013516906040810135906060013561092b565b6101c46004803603602081101561027a57600080fd5b5035610a14565b6100b6610a34565b6100b66004803603602081101561029f57600080fd5b5035610a3a565b60355481565b60365461010090046001600160a01b03161580156102d257506001600160a01b03811615155b6102db57600080fd5b603680546001600160a01b0390921661010002610100600160a81b0319909216919091179055565b6729a2241af62c000081565b600083815260336020526040902060018101546001600160a01b031633811461033757600080fd5b6005820154600260365460ff16600281111561034f57fe5b146103875760028111158015610366575083601014155b8061037d575080600314801561037d575083600c14155b1561038757600080fd5b61038f6122e7565b835460375460408051636e5b707160e01b81526004810184905290516001600160a01b0390921691636e5b70719160248082019261012092909190829003018186803b1580156103de57600080fd5b505afa1580156103f2573d6000803e3d6000fd5b505050506040513d61012081101561040957600080fd5b50805160208083015160408085015160608087015160808089015160a08a0151610100909a015163ffffffff90811660e08e0152918c019990995290971660c08a0152888101969096528782015286830191909152918552815189815289820281019091019091526000919088801561048c578160200160208202803883390190505b5090506060886040519080825280602002602001820160405280156104cb57816020015b6104b8612331565b8152602001906001900390816104b05790505b5090506000805b825181101561060e576104e58c86610b23565b8382815181106104f157fe5b6020026020010181905250600061051e84838151811061050d57fe5b602002602001015160000151610b78565b905061052a8d87610b9b565b156105a257610537612358565b6105418e88610bbe565b9050818160000151111561055b576127a69350505061060e565b600061058186858151811061056c57fe5b60200260200101516060015160001c83610cbc565b90508060011461059557935061060e915050565b50610140015195506105d6565b808483815181106105af57fe5b60200260200101516060015160001c11156105cf5761279292505061060e565b8560500195505b8382815181106105e257fe5b6020026020010151606001518583815181106105fa57fe5b6020908102919091010152506001016104d2565b508015610641576002890154610633908d9087908b906001600160a01b031685610d2d565b50505050505050505061076c565b61066c898761064f86610e08565b8560018751038151811061065f57fe5b60200260200101516110c0565b90508015610697576002890154610692908d9087908b906001600160a01b031685610d2d565b610762565b4260038a01556106a8898784611226565b905080156106ce576002890154610633908d9087908b906001600160a01b031685610d2d565b89600c14806106ed5750600260365460ff1660028111156106eb57fe5b145b15610710576002890154610633908d9087908b906001600160a01b0316856115c7565b60408051868152602081018e905260018901818301526001600160a01b038a16606082015290517f0e660e6e65ec52c9dda40ab02165320c09e799891feae8fed08191cb2150b45b9181900360800190a15b5050505050505050505b505050565b60008181526033602052604090206035546003909101540142115b919050565b600081815260336020526040812060018101546001600160a01b03166107b657600080fd5b6035548160030154014211156107fa578054600182015460028301546107ef92869290916001600160a01b03918216911661c36a610d2d565b61c36a91505061078c565b5061c36e92915050565b60365460009061010090046001600160a01b031633811461082457600080fd5b60408051602080820188905233828401526001600160a01b0380871660608085019190915284518085039091018152608090930184528251928201929092206000818152603390925292902060018101549091161561088257600080fd5b8681556001810180546001600160a01b038089166001600160a01b0319928316179092556002830180549288169290911691909117905560006108c860058301826123b2565b5042600382015560408051888152602081018490526001600160a01b03808916828401528716606082015290517f403956bdc140717d54d4573786b4e9e773ef2e6e325e2c061476eb47711770de9181900360800190a15091505b509392505050565b600054610100900460ff168061094457506109446116a2565b80610952575060005460ff16155b61098d5760405162461bcd60e51b815260040180806020018281038252602e81526020018061246c602e913960400191505060405180910390fd5b600054610100900460ff161580156109b8576000805460ff1961ff0019909116610100171660011790555b6036805486919060ff191660018360028111156109d157fe5b0217905550603780546001600160a01b0319166001600160a01b038616179055603483905560358290558015610a0d576000805461ff00191690555b5050505050565b6000908152603360205260409020600101546001600160a01b0316151590565b60345481565b6000610a446123d6565b600083815260336020908152604091829020825160c0810184528154815260018201546001600160a01b03908116828501526002830154168185015260038201546060820152600482015460808201526005820180548551818602810186019096528086529194929360a08601939290830182828015610ae357602002820191906000526020600020905b815481526020019060010190808311610acf575b5050509190925250505060208101519091506001600160a01b0316610b0c57600091505061078c565b505060009081526033602052604090206005015490565b610b2b612331565b610b3583836116a9565b63ffffffff168152610b49838360506116b8565b6060820152610b588383611773565b63ffffffff166040820152610b6d8383611782565b602082015292915050565b62ffffff8116630100000063ffffffff92831604909116600219016101000a0290565b6000610100610baa84846117a2565b1663ffffffff166000141590505b92915050565b610bc6612358565b60606000605084019350610bda85856117de565b92509050610beb85858084036116b8565b60208085019190915281019350610c048585600061180a565b60e08501919091529350610c1a858560206118ba565b61010084015260049390930192610c338585600061180a565b60608501919091529350610c49858560206118ba565b608084015260049390930192610c61858560506116b8565b835260249390930192610c7485856118f4565b60c084015260289390930192610c8c858560206118ba565b610120840152600484016101408401526000610ca7836118fc565b60a08701525060408501525091949350505050565b6000816101000151600014610cd4575061274c610bb8565b8160a00151600114610ceb575060a0810151610bb8565b8160400151610cfa84846119c5565b14610d08575061277e610bb8565b8160c00151610d16836119da565b14610d245750612788610bb8565b50600192915050565b60365460408051633a45007160e11b815260048101889052602481018790526001600160a01b038581166044830152868116606483015291516101009093049091169163748a00e29160848082019260009290919082900301818387803b158015610d9757600080fd5b505af1158015610dab573d6000803e3d6000fd5b505060408051878152602081018990528082018590526001600160a01b038716606082015290517fae4f7410342e27aa0df7167c691dfd96c5d906aff82fbe0279985e0cf48be5e39350908190036080019150a1610a0d856119f7565b80516000906001811415610e335782600081518110610e2357fe5b602002602001015191505061078c565b60008111610e7e576040805162461bcd60e51b81526020600482015260136024820152724d7573742070726f766964652068617368657360681b604482015290519081900360640190fd5b60005b81811015610eca57610ea8848281518110610e9857fe5b602002602001015160001c611a44565b60001b848281518110610eb757fe5b6020908102919091010152600101610e81565b6000805b60018411156110a6575060009150815b8383101561109e57838360010110610ef95760018403610efe565b826001015b9150600280878581518110610f0f57fe5b6020026020010151888581518110610f2357fe5b602002602001015160405160200180838152602001828152602001925050506040516020818303038152906040526040518082805190602001908083835b60208310610f805780518252601f199092019160209182019101610f61565b51815160209384036101000a60001901801990921691161790526040519190930194509192505080830381855afa158015610fbf573d6000803e3d6000fd5b5050506040513d6020811015610fd457600080fd5b50516040805160208181019390935281518082038401815290820191829052805190928291908401908083835b602083106110205780518252601f199092019160209182019101611001565b51815160209384036101000a60001901801990921691161790526040519190930194509192505080830381855afa15801561105f573d6000803e3d6000fd5b5050506040513d602081101561107457600080fd5b5051865187908390811061108457fe5b602090810291909101015260029290920191600101610ede565b809350610ece565b6110b686600081518110610e9857fe5b9695505050505050565b6005840154600090600314806110e65750600260365460ff1660028111156110e457fe5b145b156111ff576060600260365460ff16600281111561110057fe5b141561110d576001611110565b60045b60ff1660405190808252806020026020018201604052801561113c578160200160208202803883390190505b50905060005b60058701548110156111875786600501818154811061115d57fe5b906000526020600020015482828151811061117457fe5b6020908102919091010152600101611142565b8482828151811061119457fe5b6020026020010181815250506111a982610e08565b8651146111bc5761c3769250505061121e565b836040015163ffffffff168660200151146111dd5761c3749250505061121e565b85606001518460600151146111f85761c38b9250505061121e565b505061121a565b60058501805460018101825560009182526020909120018390555b5060005b949350505050565b60006112306122e7565b611238612331565b8360018551038151811061124857fe5b60200260200101519050603760009054906101000a90046001600160a01b03166001600160a01b0316636e5b707186608001516040518263ffffffff1660e01b8152600401808281526020019150506101206040518083038186803b1580156112b057600080fd5b505afa1580156112c4573d6000803e3d6000fd5b505050506040513d6101208110156112db57600080fd5b5060408082015160608084015160809094015163ffffffff1660c0870152850192909252830152600586015460011061133d5781606001518460008151811061132057fe5b6020026020010151602001511461133d5761c38d925050506115c0565b600061134e87868560c00151611b6e565b905080156113605792506115c0915050565b8451600c1461137857606082015160048801556115b8565b600061138386611c92565b90508660400151811461139e5761c3979450505050506115c0565b836040015181116113b75761c3989450505050506115c0565b600260365460ff1660028111156113ca57fe5b146115b657600660018860e001510363ffffffff16816113e657fe5b0663ffffffff1660001415611564576113fd612331565b8660028851038151811061140d57fe5b60209081029190910181015160375460e08b01516040805163c0dde98b60e01b815260051990920163ffffffff166004830152519294506001600160a01b0390911692632da8cffd92849263c0dde98b926024808301939192829003018186803b15801561147a57600080fd5b505afa15801561148e573d6000803e3d6000fd5b505050506040513d60208110156114a457600080fd5b5051604080516001600160e01b031960e085901b1681526004810192909252516024808301926020929190829003018186803b1580156114e357600080fd5b505afa1580156114f7573d6000803e3d6000fd5b505050506040513d602081101561150d57600080fd5b505160208901819052604082015160c08701516000926115349263ffffffff160390611cf6565b90508063ffffffff168960c0015163ffffffff161461155d5761c38996505050505050506115c0565b505061158d565b8360c0015163ffffffff168760c0015163ffffffff161461158d5761c3909450505050506115c0565b826000015163ffffffff168760c0015163ffffffff16146115b65761c3909450505050506115c0565b505b600093505050505b9392505050565b60365460408051633a45007160e11b815260048101889052602481018790526001600160a01b038681166044830152858116606483015291516101009093049091169163748a00e29160848082019260009290919082900301818387803b15801561163157600080fd5b505af1158015611645573d6000803e3d6000fd5b505060408051878152602081018990528082018590526001600160a01b038616606082015290517f766980202352ff259a9ea889942266c29c1ca6260254f21cd529af44aeb5637c9350908190036080019150a1610a0d856119f7565b303b155b90565b60006115c083836048016117a2565b600061121e60026116ca868686611d51565b604051602001808281526020019150506040516020818303038152906040526040518082805190602001908083835b602083106117185780518252601f1990920191602091820191016116f9565b51815160209384036101000a60001901801990921691161790526040519190930194509192505080830381855afa158015611757573d6000803e3d6000fd5b5050506040513d602081101561176c57600080fd5b5051611a44565b60006115c083836044016117a2565b602482820101516000906004830161179982611a44565b95945050505050565b6000816020840101516040518160031a60008201538160021a60018201538160011a60028201538160001a60038201535160e01c949350505050565b600060606117ef8484600401611d76565b90925090506117fe8483611dfe565b60040194909350915050565b6060600080600061181b8787611e51565b9650915084158061182b57508185115b1561183757508061183a565b50835b606081604051908082528060200260200182016040528015611866578160200160208202803883390190505b50905060005b828110156118ae576118866118818a8a6118f4565b611a44565b82828151811061189257fe5b602090810291909101810191909152979097019660010161186c565b50979596505050505050565b6000805b60088304811015610923578060080260020a85828601815181106118de57fe5b016020015160f81c0291909101906001016118be565b016020015190565b6000806000806000809050600063fabe6d6d60e01b905060006001600160e01b031990508751602089018181015b8082101561195f5784848351161415611954578561194d57600482820384030196505b6001860195505b60018201915061192a565b50505060028310611981575060009550505060031901915061276090506119be565b82600114156119ab5761199488856118f4565b9650506003199092019350600192506119be915050565b5060009550505060031901915061276a90505b9193909250565b60006115c08383608001518460600151611f03565b6000610bb861188183602001518461010001518560e00151611f03565b60008181526033602052604081208181556001810180546001600160a01b0319908116909155600282018054909116905560038101829055600481018290559061076c600583018261240d565b60405160009060ff8316815382601e1a600182015382601d1a600282015382601c1a600382015382601b1a600482015382601a1a60058201538260191a60068201538260181a60078201538260171a60088201538260161a60098201538260151a600a8201538260141a600b8201538260131a600c8201538260121a600d8201538260111a600e8201538260101a600f82015382600f1a601082015382600e1a601182015382600d1a601282015382600c1a601382015382600b1a601482015382600a1a60158201538260091a60168201538260081a60178201538260071a60188201538260061a60198201538260051a601a8201538260041a601b8201538260031a601c8201538260021a601d8201538260011a601e8201538260001a601f8201535192915050565b8151600090600019015b8015611c1b57611b86612331565b848281518110611b9257fe5b60200260200101519050611ba4612331565b856001840381518110611bb357fe5b602002602001015190508551600c141580611bd15750600186510383105b15611bf457815163ffffffff868116911614611bf45761c38a93505050506115c0565b8160200151816060015114611c105761c38c93505050506115c0565b505060001901611b78565b5082600081518110611c2957fe5b60200260200101516000015163ffffffff168263ffffffff1614611c50575061c38a6115c0565b6005840154600211611c885782600081518110611c6957fe5b602002602001015160200151846004015414611c88575061c3936115c0565b5060009392505050565b6000611c9c61242e565b60005b600b811015611ce257838160010181518110611cb757fe5b60200260200101516040015163ffffffff168282600b8110611cd557fe5b6020020152600101611c9f565b50611cec8161211d565b60a0015192915050565b600082614380811015611d0c5750614380611d1b565b616978811115611d1b57506169785b6000611d2684610b78565b6154609083020490506001600160ec1b03811115611d4857506001600160ec1b035b611799816121bf565b60006040516020818486602089010160025afa611d6d57600080fd5b51949350505050565b60006060600080611d878686611e51565b9550915081611db757611d9a8686611e51565b9550915081611da857600080fd5b611db28686611e51565b955091505b81600114611dc457600080fd5b602485019450611dd48686611e51565b955090506060611de78787848101612250565b9590910160040194859450925050505b9250929050565b6000806000611e0d8585611e51565b94509150600a8210611e1e57600080fd5b60005b82811015611e4757600885019450611e398686611e51565b810195509150600101611e21565b5092949350505050565b6000806000848481518110611e6257fe5b01602001516001949094019360f81c905060fd811015611e895760ff169150829050611df7565b8060ff1660fd1415611eaf57611ea1858560106118ba565b846002019250925050611df7565b8060ff1660fe1415611ed557611ec7858560206118ba565b846004019250925050611df7565b8060ff1660ff1415611efb57611eed858560406118ba565b846008019250925050611df7565b509250929050565b8051600090815b81811015611f4d57611f2e848281518110611f2157fe5b6020026020010151611a44565b848281518110611f3a57fe5b6020908102919091010152600101611f0a565b50600080611f5a87611a44565b90505b82821015612109576000858381518110611f7357fe5b6020026020010151905060008060028981611f8a57fe5b0660011415611f9d575081905082611fa3565b50829050815b600280838360405160200180838152602001828152602001925050506040516020818303038152906040526040518082805190602001908083835b60208310611ffd5780518252601f199092019160209182019101611fde565b51815160209384036101000a60001901801990921691161790526040519190930194509192505080830381855afa15801561203c573d6000803e3d6000fd5b5050506040513d602081101561205157600080fd5b50516040805160208181019390935281518082038401815290820191829052805190928291908401908083835b6020831061209d5780518252601f19909201916020918201910161207e565b51815160209384036101000a60001901801990921691161790526040519190930194509192505080830381855afa1580156120dc573d6000803e3d6000fd5b5050506040513d60208110156120f157600080fd5b50519350600289049850600185019450505050611f5d565b61211281611a44565b979650505050505050565b60005b600b8110156121bb57600181015b600b8110156121b2578281600b811061214357fe5b60200201518383600b811061215457fe5b602002015111156121aa5760008383600b811061216d57fe5b602002015190508382600b811061218057fe5b60200201518484600b811061219157fe5b6020020152808483600b81106121a357fe5b6020020152505b60010161212e565b50600101612120565b5050565b6000806121d86121ce846122a2565b60070160036122ca565b9050600060038211612200576121f98462ffffff16836003036008026122e0565b9050612218565b61221084600384036008026122ca565b62ffffff1690505b6280000081161561223d576122348163ffffffff1660086122ca565b90506001820191505b6122488260186122e0565b179392505050565b6060600083830390506060816040519080825280601f01601f191660200182016040528015612286576020820181803883390190505b5090508160208201838760208a010160045afa61179957600080fd5b6000815b80156122c4576122b78160016122ca565b90506001820191506122a6565b50919050565b60008160020a83816122d857fe5b049392505050565b60020a0290565b6040805161012081018252600080825260208201819052918101829052606081018290526080810182905260a0810182905260c0810182905260e081018290529061010082015290565b60408051608081018252600080825260208201819052918101829052606081019190915290565b60405180610160016040528060008152602001600081526020016000815260200160608152602001600081526020016000815260200160008152602001606081526020016000815260200160008152602001600081525090565b81548183558181111561076c5760008381526020902061076c91810190830161244d565b6040805160c0810182526000808252602082018190529181018290526060808201839052608082019290925260a081019190915290565b508054600082559060005260206000209081019061242b919061244d565b50565b604051806101600160405280600b906020820280388339509192915050565b6116a691905b808211156124675760008155600101612453565b509056fe436f6e747261637420696e7374616e63652068617320616c7265616479206265656e20696e697469616c697a6564a265627a7a723158204cceff20a5c8fbc106692ffa25994ae07793cf780736d5659e1c4e296aedcc3f64736f6c634300050c0032",
  "source": "pragma solidity ^0.5.12;\n\nimport './interfaces/SyscoinClaimManagerI.sol';\nimport './interfaces/SyscoinSuperblocksI.sol';\nimport './SyscoinErrorCodes.sol';\nimport \"@openzeppelin/upgrades/contracts/Initializable.sol\";\n\n// @dev - Manages a battle session between superblock submitter and challenger\ncontract SyscoinBattleManager is Initializable, SyscoinErrorCodes {\n\n    // For verifying Syscoin difficulty\n    uint constant TARGET_TIMESPAN =  21600;\n    uint constant TARGET_TIMESPAN_MIN = 17280; // TARGET_TIMESPAN * (8/10);\n    uint constant TARGET_TIMESPAN_MAX = 27000; // TARGET_TIMESPAN * (10/8);\n    uint constant TARGET_TIMESPAN_ADJUSTMENT =  360;  // 6 hour\n    uint constant POW_LIMIT =    0x00000fffffffffffffffffffffffffffffffffffffffffffffffffffffffffff;\n\n    struct BattleSession {\n        bytes32 superblockHash;\n        address submitter;\n        address challenger;\n        uint lastActionTimestamp;         // Last action timestamp\n        bytes32 prevSubmitBlockhash;\n        bytes32[] merkleRoots;            // interim merkle roots to recreate final root hash on last set of headers\n    }\n    // AuxPoW block fields\n    struct AuxPoW {\n        uint blockHash;\n\n        uint txHash;\n\n        uint coinbaseMerkleRoot; // Merkle root of auxiliary block hash tree; stored in coinbase tx field\n        uint[] chainMerkleProof; // proves that a given Syscoin block hash belongs to a tree with the above root\n        uint syscoinHashIndex; // index of Syscoin block hash within block hash tree\n        uint coinbaseMerkleRootCode; // encodes whether or not the root was found properly\n\n        uint parentMerkleRoot; // Merkle root of transaction tree from parent Bitcoin block header\n        uint[] parentMerkleProof; // proves that coinbase tx belongs to a tree with the above root\n        uint coinbaseTxIndex; // index of coinbase tx within Bitcoin tx tree\n\n        uint parentNonce;\n        uint pos;\n    }\n    // Syscoin block header stored as a struct, mostly for readability purposes.\n    // BlockHeader structs can be obtained by parsing a block header's first 80 bytes\n    // with parseHeaderBytes.\n    struct BlockHeader {\n        uint32 bits;\n        bytes32 prevBlock;\n        uint32 timestamp;\n        bytes32 blockHash;\n    }\n    mapping (bytes32 => BattleSession) sessions;\n\n    enum Network { MAINNET, TESTNET, REGTEST }\n\n    uint public superblockDuration;         // Superblock duration (in blocks)\n    uint public superblockTimeout;          // Timeout action (in seconds)\n\n\n    // network that the stored blocks belong to\n    Network private net;\n\n\n    // Syscoin claim manager\n    SyscoinClaimManagerI trustedSyscoinClaimManager;\n\n    // Superblocks contract\n    SyscoinSuperblocksI trustedSuperblocks;\n\n    event NewBattle(bytes32 superblockHash, bytes32 sessionId, address submitter, address challenger);\n    event ChallengerConvicted(bytes32 superblockHash, bytes32 sessionId, uint err, address challenger);\n    event SubmitterConvicted(bytes32 superblockHash, bytes32 sessionId, uint err, address submitter);\n    event RespondBlockHeaders(bytes32 superblockHash, bytes32 sessionId, uint merkleHashCount, address submitter);\n    modifier onlyFrom(address sender) {\n        require(msg.sender == sender);\n        _;\n    }\n\n    modifier onlyChallenger(bytes32 sessionId) {\n        require(msg.sender == sessions[sessionId].challenger);\n        _;\n    }\n\n    // @dev  Configures the contract managing superblocks battles\n    // @param _network Network type to use for block difficulty validation\n    // @param _superblocks Contract that manages superblocks\n    // @param _superblockDuration Superblock duration (in blocks)\n    // @param _superblockTimeout Time to wait for challenges (in seconds)\n    function init(\n        Network _network,\n        SyscoinSuperblocksI _superblocks,\n        uint _superblockDuration,\n        uint _superblockTimeout\n    ) external initializer {\n        net = _network;\n        trustedSuperblocks = _superblocks;\n        superblockDuration = _superblockDuration;\n        superblockTimeout = _superblockTimeout;\n    }\n\n    function setSyscoinClaimManager(SyscoinClaimManagerI _syscoinClaimManager) external {\n        require(address(trustedSyscoinClaimManager) == address(0) && address(_syscoinClaimManager) != address(0));\n        trustedSyscoinClaimManager = _syscoinClaimManager;\n    }\n\n    // @dev - Start a battle session\n    function beginBattleSession(bytes32 superblockHash, address submitter, address challenger)\n        external onlyFrom(address(trustedSyscoinClaimManager)) returns (bytes32) {\n        bytes32 sessionId = keccak256(abi.encode(superblockHash, msg.sender, challenger));\n        BattleSession storage session = sessions[sessionId];\n\n        require(session.submitter == address(0));\n\n        session.superblockHash = superblockHash;\n        session.submitter = submitter;\n        session.challenger = challenger;\n        session.merkleRoots.length = 0;\n        session.lastActionTimestamp = block.timestamp;\n\n        emit NewBattle(superblockHash, sessionId, submitter, challenger);\n        return sessionId;\n    }\n    // 0x00 version\n    // 0x04 prev block hash\n    // 0x24 merkle root\n    // 0x44 timestamp\n    // 0x48 bits\n    // 0x4c nonce\n\n    // @dev - extract previous block field from a raw Syscoin block header\n    //\n    // @param _blockHeader - Syscoin block header bytes\n    // @param pos - where to start reading hash from\n    // @return - hash of block's parent in big endian format\n    function getHashPrevBlock(bytes memory _blockHeader, uint pos) private pure returns (uint) {\n        uint hashPrevBlock;\n        uint index = 0x04+pos;\n        assembly {\n            hashPrevBlock := mload(add(add(_blockHeader, 32), index))\n        }\n        return flip32Bytes(hashPrevBlock);\n    }\n\n\n    // @dev - extract timestamp field from a raw Syscoin block header\n    //\n    // @param _blockHeader - Syscoin block header bytes\n    // @param pos - where to start reading bits from\n    // @return - block's timestamp in big-endian format\n    function getTimestamp(bytes memory _blockHeader, uint pos) private pure returns (uint32 time) {\n        return bytesToUint32Flipped(_blockHeader, 0x44+pos);\n    }\n\n    // @dev - extract bits field from a raw Syscoin block header\n    //\n    // @param _blockHeader - Syscoin block header bytes\n    // @param pos - where to start reading bits from\n    // @return - block's difficulty in bits format, also big-endian\n    function getBits(bytes memory _blockHeader, uint pos) private pure returns (uint32 bits) {\n        return bytesToUint32Flipped(_blockHeader, 0x48+pos);\n    }\n    // @dev - converts raw bytes representation of a Syscoin block header to struct representation\n    //\n    // @param _rawBytes - first 80 bytes of a block header\n    // @return - exact same header information in BlockHeader struct form\n    function parseHeaderBytes(bytes memory _rawBytes, uint pos) private view returns (BlockHeader memory bh) {\n        bh.bits = getBits(_rawBytes, pos);\n        bh.blockHash = bytes32(dblShaFlipMem(_rawBytes, pos, 80));\n        bh.timestamp = getTimestamp(_rawBytes, pos);\n        bh.prevBlock = bytes32(getHashPrevBlock(_rawBytes, pos));\n    }\n    // Convert a variable integer into something useful and return it and\n    // the index to after it.\n    function parseVarInt(bytes memory txBytes, uint pos) private pure returns (uint, uint) {\n        // the first byte tells us how big the integer is\n        uint8 ibit = uint8(txBytes[pos]);\n        pos += 1;  // skip ibit\n\n        if (ibit < 0xfd) {\n            return (ibit, pos);\n        } else if (ibit == 0xfd) {\n            return (getBytesLE(txBytes, pos, 16), pos + 2);\n        } else if (ibit == 0xfe) {\n            return (getBytesLE(txBytes, pos, 32), pos + 4);\n        } else if (ibit == 0xff) {\n            return (getBytesLE(txBytes, pos, 64), pos + 8);\n        }\n    }\n    // convert little endian bytes to uint\n    function getBytesLE(bytes memory data, uint pos, uint bits) private pure returns (uint256 result) {\n        for (uint256 i = 0; i < bits / 8; i++) {\n            result += uint256(uint8(data[pos + i])) * 2 ** (i * 8);\n        }\n    }\n    function parseAuxPoW(bytes memory rawBytes, uint pos) private view\n             returns (AuxPoW memory auxpow)\n    {\n        bytes memory coinbaseScript;\n        uint slicePos;\n        // we need to traverse the bytes with a pointer because some fields are of variable length\n        pos += 80; // skip non-AuxPoW header\n\n        (slicePos, coinbaseScript) = getSlicePos(rawBytes, pos);\n        auxpow.txHash = dblShaFlipMem(rawBytes, pos, slicePos - pos);\n        pos = slicePos;\n        // parent block hash, skip and manually hash below\n        pos += 32;\n        (auxpow.parentMerkleProof, pos) = scanMerkleBranch(rawBytes, pos, 0);\n        auxpow.coinbaseTxIndex = getBytesLE(rawBytes, pos, 32);\n        pos += 4;\n        (auxpow.chainMerkleProof, pos) = scanMerkleBranch(rawBytes, pos, 0);\n        auxpow.syscoinHashIndex = getBytesLE(rawBytes, pos, 32);\n        pos += 4;\n        // calculate block hash instead of reading it above, as some are LE and some are BE, we cannot know endianness and have to calculate from parent block header\n        auxpow.blockHash = dblShaFlipMem(rawBytes, pos, 80);\n        pos += 36; // skip parent version and prev block\n        auxpow.parentMerkleRoot = sliceBytes32Int(rawBytes, pos);\n        pos += 40; // skip root that was just read, parent block timestamp and bits\n        auxpow.parentNonce = getBytesLE(rawBytes, pos, 32);\n        auxpow.pos = pos+4;\n        uint coinbaseMerkleRootPosition;\n        (auxpow.coinbaseMerkleRoot, coinbaseMerkleRootPosition, auxpow.coinbaseMerkleRootCode) = findCoinbaseMerkleRoot(coinbaseScript);\n    }\n   function skipOutputs(bytes memory txBytes, uint pos) private pure\n             returns (uint)\n    {\n        uint n_outputs;\n        uint script_len;\n\n        (n_outputs, pos) = parseVarInt(txBytes, pos);\n\n        require(n_outputs < 10);\n\n        for (uint i = 0; i < n_outputs; i++) {\n            pos += 8;\n            (script_len, pos) = parseVarInt(txBytes, pos);\n            pos += script_len;\n        }\n\n        return pos;\n    }\n    // get final position of inputs, outputs and lock time\n    // this is a helper function to slice a byte array and hash the inputs, outputs and lock time\n    function getSlicePos(bytes memory txBytes, uint pos) private view\n             returns (uint slicePos, bytes memory coinbaseScript)\n    {\n\n        (slicePos, coinbaseScript) = skipInputsCoinbase(txBytes, pos + 4);\n        slicePos = skipOutputs(txBytes, slicePos);\n        slicePos += 4; // skip lock time\n    }\n    // scan a Merkle branch.\n    // return array of values and the end position of the sibling hashes.\n    // takes a 'stop' argument which sets the maximum number of\n    // siblings to scan through. stop=0 => scan all.\n    function scanMerkleBranch(bytes memory txBytes, uint pos, uint stop) private pure\n             returns (uint[] memory, uint)\n    {\n        uint n_siblings;\n        uint halt;\n\n        (n_siblings, pos) = parseVarInt(txBytes, pos);\n\n        if (stop == 0 || stop > n_siblings) {\n            halt = n_siblings;\n        } else {\n            halt = stop;\n        }\n\n        uint[] memory sibling_values = new uint[](halt);\n\n        for (uint i = 0; i < halt; i++) {\n            sibling_values[i] = flip32Bytes(sliceBytes32Int(txBytes, pos));\n            pos += 32;\n        }\n\n        return (sibling_values, pos);\n    }\n\n    // Slice 32 contiguous bytes from bytes `data`, starting at `start`\n    function sliceBytes32Int(bytes memory data, uint start) private pure returns (uint slice) {\n        assembly {\n            slice := mload(add(data, add(0x20, start)))\n        }\n    }\n\n    // @dev returns a portion of a given byte array specified by its starting and ending points\n    // Breaks underscore naming convention for parameters because it raises a compiler error\n    // if `offset` is changed to `_offset`.\n    //\n    // @param _rawBytes - array to be sliced\n    // @param offset - first byte of sliced array\n    // @param _endIndex - last byte of sliced array\n    function sliceArray(bytes memory _rawBytes, uint offset, uint _endIndex) private view returns (bytes memory) {\n        uint len = _endIndex - offset;\n        bytes memory result = new bytes(len);\n        assembly {\n            // Call precompiled contract to copy data\n            if iszero(staticcall(gas, 0x04, add(add(_rawBytes, 0x20), offset), len, add(result, 0x20), len)) {\n                revert(0, 0)\n            }\n        }\n        return result;\n    }\n    function skipInputsCoinbase(bytes memory txBytes, uint pos) private view\n             returns (uint, bytes memory)\n    {\n        uint n_inputs;\n        uint script_len;\n        (n_inputs, pos) = parseVarInt(txBytes, pos);\n        // if dummy 0x00 is present this is a witness transaction\n        if(n_inputs == 0x00){\n            (n_inputs, pos) = parseVarInt(txBytes, pos); // flag\n            require(n_inputs != 0x00);\n            // after dummy/flag the real var int comes for txins\n            (n_inputs, pos) = parseVarInt(txBytes, pos);\n        }\n        require(n_inputs == 1);\n\n        pos += 36;  // skip outpoint\n        (script_len, pos) = parseVarInt(txBytes, pos);\n        bytes memory coinbaseScript;\n        coinbaseScript = sliceArray(txBytes, pos, pos+script_len);\n        pos += script_len + 4;  // skip sig_script, seq\n\n        return (pos, coinbaseScript);\n    }\n    // @dev - looks for {0xfa, 0xbe, 'm', 'm'} byte sequence\n    // returns the following 32 bytes if it appears once and only once,\n    // 0 otherwise\n    // also returns the position where the bytes first appear\n    function findCoinbaseMerkleRoot(bytes memory rawBytes) private pure\n             returns (uint, uint, uint)\n    {\n        uint position;\n        uint found = 0;\n        uint target = 0xfabe6d6d00000000000000000000000000000000000000000000000000000000;\n        uint mask = 0xffffffff00000000000000000000000000000000000000000000000000000000;\n        assembly {\n            let len := mload(rawBytes)\n            let data := add(rawBytes, 0x20)\n            let end := add(data, len)\n\n            for { } lt(data, end) { } {     // while(i < end)\n                if eq(and(mload(data), mask), target) {\n                    if eq(found, 0x0) {\n                        position := add(sub(len, sub(end, data)), 4)\n                    }\n                    found := add(found, 1)\n                }\n                data := add(data, 0x1)\n            }\n        }\n\n        if (found >= 2) {\n            return (0, position - 4, ERR_FOUND_TWICE);\n        } else if (found == 1) {\n            return (sliceBytes32Int(rawBytes, position), position - 4, 1);\n        } else { // no merge mining header\n            return (0, position - 4, ERR_NO_MERGE_HEADER);\n        }\n    }\n\n    // @dev - For a valid proof, returns the root of the Merkle tree.\n    //\n    // @param _txHash - transaction hash\n    // @param _txIndex - transaction's index within the block it's assumed to be in\n    // @param _siblings - transaction's Merkle siblings\n    // @return - Merkle tree root of the block the transaction belongs to if the proof is valid,\n    // garbage if it's invalid\n    function computeMerkle(uint _txHash, uint _txIndex, uint[] memory _siblings) private pure returns (uint) {\n        \n        uint length = _siblings.length;\n        uint i;\n        for (i = 0; i < length; i++) {\n            _siblings[i] = flip32Bytes(_siblings[i]);\n        }\n\n        i = 0;\n        uint resultHash = flip32Bytes(_txHash);        \n\n        while (i < length) {\n            uint proofHex = _siblings[i];\n\n            uint left;\n            uint right;\n            if (_txIndex % 2 == 1) { // 0 means _siblings is on the right; 1 means left\n                left = proofHex;\n                right = resultHash;\n            } else {\n                left = resultHash;\n                right = proofHex;\n            }\n            resultHash = uint(sha256(abi.encodePacked(sha256(abi.encodePacked(left, right)))));\n\n            _txIndex /= 2;\n            i += 1;\n        }\n\n        return flip32Bytes(resultHash);\n    }\n\n    // @dev - convert an unsigned integer from little-endian to big-endian representation\n    //\n    // @param _input - little-endian value\n    // @return - input value in big-endian format\n    function flip32Bytes(uint _input) private pure returns (uint result) {\n        assembly {\n            let pos := mload(0x40)\n            mstore8(add(pos, 0), byte(31, _input))\n            mstore8(add(pos, 1), byte(30, _input))\n            mstore8(add(pos, 2), byte(29, _input))\n            mstore8(add(pos, 3), byte(28, _input))\n            mstore8(add(pos, 4), byte(27, _input))\n            mstore8(add(pos, 5), byte(26, _input))\n            mstore8(add(pos, 6), byte(25, _input))\n            mstore8(add(pos, 7), byte(24, _input))\n            mstore8(add(pos, 8), byte(23, _input))\n            mstore8(add(pos, 9), byte(22, _input))\n            mstore8(add(pos, 10), byte(21, _input))\n            mstore8(add(pos, 11), byte(20, _input))\n            mstore8(add(pos, 12), byte(19, _input))\n            mstore8(add(pos, 13), byte(18, _input))\n            mstore8(add(pos, 14), byte(17, _input))\n            mstore8(add(pos, 15), byte(16, _input))\n            mstore8(add(pos, 16), byte(15, _input))\n            mstore8(add(pos, 17), byte(14, _input))\n            mstore8(add(pos, 18), byte(13, _input))\n            mstore8(add(pos, 19), byte(12, _input))\n            mstore8(add(pos, 20), byte(11, _input))\n            mstore8(add(pos, 21), byte(10, _input))\n            mstore8(add(pos, 22), byte(9, _input))\n            mstore8(add(pos, 23), byte(8, _input))\n            mstore8(add(pos, 24), byte(7, _input))\n            mstore8(add(pos, 25), byte(6, _input))\n            mstore8(add(pos, 26), byte(5, _input))\n            mstore8(add(pos, 27), byte(4, _input))\n            mstore8(add(pos, 28), byte(3, _input))\n            mstore8(add(pos, 29), byte(2, _input))\n            mstore8(add(pos, 30), byte(1, _input))\n            mstore8(add(pos, 31), byte(0, _input))\n            result := mload(pos)\n        }\n    }\n    // @dev - calculates the Merkle root of a tree containing Bitcoin transactions\n    // in order to prove that `ap`'s coinbase tx is in that Bitcoin block.\n    //\n    // @param _ap - AuxPoW information\n    // @return - Merkle root of Bitcoin block that the Syscoin block\n    // with this info was mined in if AuxPoW Merkle proof is correct,\n    // garbage otherwise\n    function computeParentMerkle(AuxPoW memory _ap) private pure returns (uint) {\n        return flip32Bytes(computeMerkle(_ap.txHash,\n                                         _ap.coinbaseTxIndex,\n                                         _ap.parentMerkleProof));\n    }\n\n    // @dev - calculates the Merkle root of a tree containing auxiliary block hashes\n    // in order to prove that the Syscoin block identified by _blockHash\n    // was merge-mined in a Bitcoin block.\n    //\n    // @param _blockHash - SHA-256 hash of a certain Syscoin block\n    // @param _ap - AuxPoW information corresponding to said block\n    // @return - Merkle root of auxiliary chain tree\n    // if AuxPoW Merkle proof is correct, garbage otherwise\n    function computeChainMerkle(uint _blockHash, AuxPoW memory _ap) private pure returns (uint) {\n        return computeMerkle(_blockHash,\n                             _ap.syscoinHashIndex,\n                             _ap.chainMerkleProof);\n    }    \n\n    // @dev - checks if a merge-mined block's Merkle proofs are correct,\n    // i.e. Syscoin block hash is in coinbase Merkle tree\n    // and coinbase transaction is in parent Merkle tree.\n    //\n    // @param _blockHash - SHA-256 hash of the block whose Merkle proofs are being checked\n    // @param _ap - AuxPoW struct corresponding to the block\n    // @return 1 if block was merge-mined and coinbase index, chain Merkle root and Merkle proofs are correct,\n    // respective error code otherwise\n    function checkAuxPoW(uint _blockHash, AuxPoW memory _ap) private pure returns (uint) {\n        if (_ap.coinbaseTxIndex != 0) {\n            return ERR_COINBASE_INDEX;\n        }\n\n        if (_ap.coinbaseMerkleRootCode != 1) {\n            return _ap.coinbaseMerkleRootCode;\n        }\n\n        if (computeChainMerkle(_blockHash, _ap) != _ap.coinbaseMerkleRoot) {\n            return ERR_CHAIN_MERKLE;\n        }\n\n        if (computeParentMerkle(_ap) != _ap.parentMerkleRoot) {\n            return ERR_PARENT_MERKLE;\n        }\n\n        return 1;\n    }\n\n    function sha256mem(bytes memory _rawBytes, uint offset, uint len) private view returns (bytes32 result) {\n        assembly {\n            // Call sha256 precompiled contract (located in address 0x02) to copy data.\n            // Assign to ptr the next available memory position (stored in memory position 0x40).\n            let ptr := mload(0x40)\n            if iszero(staticcall(gas, 0x02, add(add(_rawBytes, 0x20), offset), len, ptr, 0x20)) {\n                revert(0, 0)\n            }\n            result := mload(ptr)\n        }\n    }\n\n    // @dev - Bitcoin-way of hashing\n    // @param _dataBytes - raw data to be hashed\n    // @return - result of applying SHA-256 twice to raw data and then flipping the bytes\n    function dblShaFlip(bytes memory _dataBytes) private pure returns (uint) {\n        return flip32Bytes(uint(sha256(abi.encodePacked(sha256(abi.encodePacked(_dataBytes))))));\n    }\n\n    // @dev - Bitcoin-way of hashing\n    // @param _dataBytes - raw data to be hashed\n    // @return - result of applying SHA-256 twice to raw data and then flipping the bytes\n    function dblShaFlipMem(bytes memory _rawBytes, uint offset, uint len) private view returns (uint) {\n        return flip32Bytes(uint(sha256(abi.encodePacked(sha256mem(_rawBytes, offset, len)))));\n    }\n\n    // @dev - Bitcoin-way of computing the target from the 'bits' field of a block header\n    // based on http://www.righto.com/2014/02/bitcoin-mining-hard-way-algorithms.html//ref3\n    //\n    // @param _bits - difficulty in bits format\n    // @return - difficulty in target format\n    function targetFromBits(uint32 _bits) private pure returns (uint) {\n        uint exp = _bits / 0x1000000;  // 2**24\n        uint mant = _bits & 0xffffff;\n        return mant * 256**(exp - 3);\n    }\n    \n    // @param _actualTimespan - time elapsed from previous block creation til current block creation;\n    // i.e., how much time it took to mine the current block\n    // @param _bits - previous block header difficulty (in bits)\n    // @return - expected difficulty for the next block\n    function calculateDifficulty(uint _actualTimespan, uint32 _bits) private pure returns (uint32 result) {\n        uint actualTimespan = _actualTimespan;\n        // Limit adjustment step\n        if (actualTimespan < TARGET_TIMESPAN_MIN) {\n            actualTimespan = TARGET_TIMESPAN_MIN;\n        } else if (actualTimespan > TARGET_TIMESPAN_MAX) {\n            actualTimespan = TARGET_TIMESPAN_MAX;\n        }\n\n        // Retarget\n        uint bnNew = targetFromBits(_bits);\n        bnNew = bnNew * actualTimespan;\n        bnNew = bnNew / TARGET_TIMESPAN;\n\n        if (bnNew > POW_LIMIT) {\n            bnNew = POW_LIMIT;\n        }\n\n        return toCompactBits(bnNew);\n    }\n\n    // @dev - shift information to the right by a specified number of bits\n    //\n    // @param _val - value to be shifted\n    // @param _shift - number of bits to shift\n    // @return - `_val` shifted `_shift` bits to the right, i.e. divided by 2**`_shift`\n    function shiftRight(uint _val, uint _shift) private pure returns (uint) {\n        return _val / uint(2)**_shift;\n    }\n\n    // @dev - shift information to the left by a specified number of bits\n    //\n    // @param _val - value to be shifted\n    // @param _shift - number of bits to shift\n    // @return - `_val` shifted `_shift` bits to the left, i.e. multiplied by 2**`_shift`\n    function shiftLeft(uint _val, uint _shift) private pure returns (uint) {\n        return _val * uint(2)**_shift;\n    }\n\n    // @dev - get the number of bits required to represent a given integer value without losing information\n    //\n    // @param _val - unsigned integer value\n    // @return - given value's bit length\n    function bitLen(uint _val) private pure returns (uint length) {\n        uint int_type = _val;\n        while (int_type > 0) {\n            int_type = shiftRight(int_type, 1);\n            length += 1;\n        }\n    }\n\n    // @dev - Convert uint256 to compact encoding\n    // based on https://github.com/petertodd/python-bitcoinlib/blob/2a5dda45b557515fb12a0a18e5dd48d2f5cd13c2/bitcoin/core/serialize.py\n    // Analogous to arith_uint256::GetCompact from C++ implementation\n    //\n    // @param _val - difficulty in target format\n    // @return - difficulty in bits format\n    function toCompactBits(uint _val) private pure returns (uint32) {\n        uint nbytes = uint (shiftRight((bitLen(_val) + 7), 3));\n        uint32 compact = 0;\n        if (nbytes <= 3) {\n            compact = uint32 (shiftLeft((_val & 0xFFFFFF), 8 * (3 - nbytes)));\n        } else {\n            compact = uint32 (shiftRight(_val, 8 * (nbytes - 3)));\n            compact = uint32 (compact & 0xFFFFFF);\n        }\n\n        // If the sign bit (0x00800000) is set, divide the mantissa by 256 and\n        // increase the exponent to get an encoding without it set.\n        if ((compact & 0x00800000) > 0) {\n            compact = uint32(shiftRight(compact, 8));\n            nbytes += 1;\n        }\n\n        return compact | uint32(shiftLeft(nbytes, 24));\n    }\n    // @dev - Verify block headers sent by challenger\n    function doRespondBlockHeaders(\n        BattleSession storage session,\n        SyscoinSuperblocksI.SuperblockInfo memory superblockInfo,\n        bytes32 merkleRoot,\n        BlockHeader memory lastHeader\n    ) private returns (uint) {\n        if (session.merkleRoots.length == 3 || net == Network.REGTEST) {\n            bytes32[] memory merkleRoots = new bytes32[](net != Network.REGTEST ? 4 : 1);\n            uint i;\n            for (i = 0; i < session.merkleRoots.length; i++) {\n                merkleRoots[i] = session.merkleRoots[i];\n            }\n            merkleRoots[i] = merkleRoot;\n            if (superblockInfo.blocksMerkleRoot != makeMerkle(merkleRoots)) {\n                return ERR_SUPERBLOCK_INVALID_MERKLE;\n            }\n\n            // if you have the last set of headers we can enfoce checks against the end\n            // ensure the last block's timestamp matches the superblock's proposed timestamp\n            if (superblockInfo.timestamp != lastHeader.timestamp) {\n                return ERR_SUPERBLOCK_INVALID_TIMESTAMP;\n            }\n            // ensure last headers hash matches the last hash of the superblock\n            if (lastHeader.blockHash != superblockInfo.lastHash) {\n                return ERR_SUPERBLOCK_HASH_SUPERBLOCK;\n            }\n        } else {\n            session.merkleRoots.push(merkleRoot);\n        }\n\n        return ERR_SUPERBLOCK_OK;\n    }\n\n    function respondBlockHeaders (\n        bytes32 sessionId,\n        bytes memory blockHeaders,\n        uint numHeaders\n    ) public {\n        BattleSession storage session = sessions[sessionId];\n        address submitter = session.submitter;\n\n        require(msg.sender == submitter);\n\n        uint merkleRootsLen = session.merkleRoots.length;\n\n        if (net != Network.REGTEST) {\n            if ((merkleRootsLen <= 2 && numHeaders != 16) || (merkleRootsLen == 3 && numHeaders != 12)) {\n                revert();\n            }\n        }\n\n        SyscoinSuperblocksI.SuperblockInfo memory superblockInfo;\n        bytes32 superblockHash = session.superblockHash;\n        (superblockInfo.blocksMerkleRoot, superblockInfo.timestamp,superblockInfo.mtpTimestamp,superblockInfo.lastHash,superblockInfo.lastBits,superblockInfo.parentId,,,superblockInfo.height) =\n            trustedSuperblocks.getSuperblock(superblockHash);\n\n        uint pos = 0;\n        bytes32[] memory blockHashes = new bytes32[](numHeaders);\n        BlockHeader[] memory parsedBlockHeaders = new BlockHeader[](numHeaders);\n\n        uint err = ERR_SUPERBLOCK_OK;\n\n        for (uint i = 0; i < parsedBlockHeaders.length; i++){\n            parsedBlockHeaders[i] = parseHeaderBytes(blockHeaders, pos);\n            uint target = targetFromBits(parsedBlockHeaders[i].bits);\n\n            if (isMergeMined(blockHeaders, pos)) {\n                AuxPoW memory ap = parseAuxPoW(blockHeaders, pos);\n                if (ap.blockHash > target) {\n                    err = ERR_PROOF_OF_WORK_AUXPOW;\n                    break;\n                }\n\n                uint auxPoWCode = checkAuxPoW(uint(parsedBlockHeaders[i].blockHash), ap);\n                if (auxPoWCode != 1) {\n                    err = auxPoWCode;\n                    break;\n                }\n\n                pos = ap.pos;\n            } else {\n                if (uint(parsedBlockHeaders[i].blockHash) > target) {\n                    err = ERR_PROOF_OF_WORK;\n                    break;\n                }\n\n                pos = pos+80;\n            }\n\n            blockHashes[i] = parsedBlockHeaders[i].blockHash;\n        }\n\n        if (err != ERR_SUPERBLOCK_OK) {\n            convictSubmitter(sessionId, superblockHash, submitter, session.challenger, err);\n            return;\n        }\n\n        err = doRespondBlockHeaders(\n            session,\n            superblockInfo,\n            makeMerkle(blockHashes),\n            parsedBlockHeaders[parsedBlockHeaders.length-1]\n        );\n        if (err != ERR_SUPERBLOCK_OK) {\n            convictSubmitter(sessionId, superblockHash, submitter, session.challenger, err);\n        } else {\n            session.lastActionTimestamp = block.timestamp;\n            err = validateHeaders(session, superblockInfo, parsedBlockHeaders);\n            if (err != ERR_SUPERBLOCK_OK) {\n                convictSubmitter(sessionId, superblockHash, submitter, session.challenger, err);\n                return;\n            }\n            // only convict challenger at the end if all headers have been provided\n            if(numHeaders == 12 || net == Network.REGTEST){\n                convictChallenger(sessionId, superblockHash, submitter, session.challenger, err);\n                return;\n            }\n            emit RespondBlockHeaders(superblockHash, sessionId, merkleRootsLen + 1, submitter);\n        }\n    }\n    // @dev - Converts a bytes of size 4 to uint32,\n    // e.g. for input [0x01, 0x02, 0x03 0x04] returns 0x01020304\n    function bytesToUint32Flipped(bytes memory input, uint pos) private pure returns (uint32 result) {\n        assembly {\n            let data := mload(add(add(input, 0x20), pos))\n            let flip := mload(0x40)\n            mstore8(add(flip, 0), byte(3, data))\n            mstore8(add(flip, 1), byte(2, data))\n            mstore8(add(flip, 2), byte(1, data))\n            mstore8(add(flip, 3), byte(0, data))\n            result := shr(mul(8, 28), mload(flip))\n        }\n    }\n    uint32 constant VERSION_AUXPOW = (1 << 8);\n    // @dev - checks version to determine if a block has merge mining information\n    function isMergeMined(bytes memory _rawBytes, uint pos) private pure returns (bool) {\n        return bytesToUint32Flipped(_rawBytes, pos) & VERSION_AUXPOW != 0;\n    }\n    \n    // @dev - Evaluate the merkle root\n    //\n    // Given an array of hashes it calculates the\n    // root of the merkle tree.\n    //\n    // @return root of merkle tree\n    function makeMerkle(bytes32[] memory hashes) private pure returns (bytes32) {\n        uint length = hashes.length;\n\n        if (length == 1) return hashes[0];\n        require(length > 0, \"Must provide hashes\");\n\n        uint i;\n        for (i = 0; i < length; i++) {\n            hashes[i] = bytes32(flip32Bytes(uint(hashes[i])));\n        }\n\n        uint j;\n        uint k;\n\n        while (length > 1) {\n            k = 0;\n            for (i = 0; i < length; i += 2) {\n                j = (i + 1 < length) ? i + 1 : length - 1;\n                hashes[k] = sha256(abi.encodePacked(sha256(abi.encodePacked(hashes[i], hashes[j]))));\n                k += 1;\n            }\n            length = k;\n        }\n        return bytes32(flip32Bytes(uint(hashes[0])));\n    }\n\n    // @dev - Validate prev bits, prev hash of block header\n    function checkBlocks(BattleSession storage session, BlockHeader[] memory blockHeadersParsed, uint32 prevBits) private view returns (uint) {\n        for(uint i = blockHeadersParsed.length-1;i>0;i--){\n            BlockHeader memory thisHeader = blockHeadersParsed[i];\n            BlockHeader memory prevHeader = blockHeadersParsed[i-1];\n            // except for the last header except all the bits to match\n            // last chunk has 12 headers which is the only time we care to skip the last header\n            if (blockHeadersParsed.length != 12 || i < (blockHeadersParsed.length-1)){\n                if (prevBits != thisHeader.bits)\n                    return ERR_SUPERBLOCK_BITS_PREVBLOCK;\n            }\n            if(prevHeader.blockHash != thisHeader.prevBlock)\n                return ERR_SUPERBLOCK_HASH_PREVBLOCK;\n        }\n\n        if (prevBits != blockHeadersParsed[0].bits) {\n            return ERR_SUPERBLOCK_BITS_PREVBLOCK;\n        }\n\n        // enforce linking against previous submitted batch of blocks\n        if (session.merkleRoots.length >= 2) {\n            if (session.prevSubmitBlockhash != blockHeadersParsed[0].prevBlock)\n                return ERR_SUPERBLOCK_HASH_INTERIM_PREVBLOCK;\n        }\n        return ERR_SUPERBLOCK_OK;\n    }\n    function sort_array(uint[11] memory arr) private pure {\n        for(uint i = 0; i < 11; i++) {\n            for(uint j = i+1; j < 11 ;j++) {\n                if(arr[i] > arr[j]) {\n                    uint temp = arr[i];\n                    arr[i] = arr[j];\n                    arr[j] = temp;\n                }\n            }\n        }\n    }\n\n    // @dev - Gets the median timestamp of the last 11 blocks\n    function getMedianTimestamp(BlockHeader[] memory blockHeadersParsed) private pure returns (uint){\n        uint[11] memory timestamps;\n        // timestamps 0->10 = blockHeadersParsed 1->11\n        for(uint i=0;i<11;i++){\n            timestamps[i] = blockHeadersParsed[i+1].timestamp;\n        }\n        sort_array(timestamps);\n        return timestamps[5];\n    }\n    // @dev - Validate superblock accumulated work + other block header fields\n    function validateHeaders(BattleSession storage session, SyscoinSuperblocksI.SuperblockInfo memory superblockInfo, BlockHeader[] memory blockHeadersParsed) private returns (uint) {\n        SyscoinSuperblocksI.SuperblockInfo memory prevSuperblockInfo;\n        BlockHeader memory lastHeader = blockHeadersParsed[blockHeadersParsed.length-1];\n        (,,prevSuperblockInfo.mtpTimestamp,prevSuperblockInfo.lastHash,prevSuperblockInfo.lastBits,,,,) =\n            trustedSuperblocks.getSuperblock(superblockInfo.parentId);\n        // for blocks 0 -> 16 we can check the first header\n        if(session.merkleRoots.length <= 1){\n            // ensure first headers prev block matches the last hash of the prev superblock\n            if(blockHeadersParsed[0].prevBlock != prevSuperblockInfo.lastHash)\n                return ERR_SUPERBLOCK_HASH_PREVSUPERBLOCK;\n\n        }\n        // make sure all bits are the same and timestamps are within range as well as headers are all linked\n        uint err = checkBlocks(session, blockHeadersParsed, prevSuperblockInfo.lastBits);\n        if(err != ERR_SUPERBLOCK_OK)\n            return err;\n        // for every batch of blocks up to the last one (at superblockDuration blocks we have all the headers so we can complete the game)\n        if(blockHeadersParsed.length != 12){\n            // set the last block header details in the session for subsequent batch of blocks to validate it connects to this header\n            session.prevSubmitBlockhash = lastHeader.blockHash;\n        }\n        // once all the headers are received we can check merkle and enforce difficulty\n        else{\n            uint mtpTimestamp = getMedianTimestamp(blockHeadersParsed);\n\n            // make sure calculated MTP is same as superblock MTP\n            if(mtpTimestamp != superblockInfo.mtpTimestamp)\n                 return ERR_SUPERBLOCK_MISMATCH_TIMESTAMP_MTP;\n\n            // ensure MTP of this SB is > than last SB MTP\n            if(mtpTimestamp <= prevSuperblockInfo.mtpTimestamp)\n                return ERR_SUPERBLOCK_TOOSMALL_TIMESTAMP_MTP;\n\n\n            // make sure every 6th superblock adjusts difficulty\n            // calculate the new work from prevBits minus one as if its an adjustment we need to account for new bits, if not then just add one more prevBits work\n            if (net != Network.REGTEST) {\n                if (((superblockInfo.height-1) % 6) == 0) {\n                    BlockHeader memory prevToLastHeader = blockHeadersParsed[blockHeadersParsed.length-2];\n\n                    // ie: superblockHeight = 7 meaning blocks 661->720, we need to check timestamp from block 719 - to block 360\n                    // get 6 superblocks previous for second timestamp (for example block 360 has the timetamp 6 superblocks ago on second adjustment)\n                    superblockInfo.timestamp = trustedSuperblocks.getSuperblockTimestamp(trustedSuperblocks.getSuperblockAt(superblockInfo.height - 6));\n                    uint32 newBits = calculateDifficulty(prevToLastHeader.timestamp - superblockInfo.timestamp, prevSuperblockInfo.lastBits);\n\n                    // ensure bits of superblock match derived bits from calculateDifficulty\n                    if (superblockInfo.lastBits != newBits) {\n                        return ERR_SUPERBLOCK_BITS_SUPERBLOCK;\n                    }\n                } else {\n                    if (superblockInfo.lastBits != prevSuperblockInfo.lastBits) {\n                        return ERR_SUPERBLOCK_BITS_LASTBLOCK;\n                    }\n                }\n\n                // make sure superblock bits match that of the last block\n                if (superblockInfo.lastBits != lastHeader.bits)\n                    return ERR_SUPERBLOCK_BITS_LASTBLOCK;\n            }\n        }\n\n        return ERR_SUPERBLOCK_OK;\n    }\n\n\n    // @dev - Trigger conviction if response is not received in time\n    function timeout(bytes32 sessionId) external returns (uint) {\n        BattleSession storage session = sessions[sessionId];\n        require(session.submitter != address(0));\n\n        if (block.timestamp > session.lastActionTimestamp + superblockTimeout) {\n            convictSubmitter(sessionId, session.superblockHash, session.submitter, session.challenger, ERR_SUPERBLOCK_TIMEOUT);\n            return ERR_SUPERBLOCK_TIMEOUT;\n        }\n        return ERR_SUPERBLOCK_NO_TIMEOUT;\n    }\n\n    // @dev - To be called when a challenger is convicted\n    function convictChallenger(bytes32 sessionId, bytes32 superblockHash, address submitter, address challenger, uint err) private {\n        trustedSyscoinClaimManager.sessionDecided(sessionId, superblockHash, submitter, challenger);\n        emit ChallengerConvicted(superblockHash, sessionId, err, challenger);\n        disable(sessionId);\n    }\n\n    // @dev - To be called when a submitter is convicted\n    function convictSubmitter(bytes32 sessionId, bytes32 superblockHash, address submitter, address challenger, uint err) private {\n        trustedSyscoinClaimManager.sessionDecided(sessionId, superblockHash, challenger, submitter);\n        emit SubmitterConvicted(superblockHash, sessionId, err, submitter);\n        disable(sessionId);\n    }\n\n    // @dev - Disable session\n    // It should be called only when either the submitter or the challenger were convicted.\n    function disable(bytes32 sessionId) private {\n        delete sessions[sessionId];\n    }\n\n    // @dev - Check if a session's submitter did not respond before timeout\n    function getSubmitterHitTimeout(bytes32 sessionId) external view returns (bool) {\n        BattleSession storage session = sessions[sessionId];\n        return (block.timestamp > session.lastActionTimestamp + superblockTimeout);\n    }\n    function getNumMerkleHashesBySession(bytes32 sessionId) external view returns (uint) {\n        BattleSession memory session = sessions[sessionId];\n        if (session.submitter == address(0))\n            return 0;\n        return sessions[sessionId].merkleRoots.length;\n    }\n    function sessionExists(bytes32 sessionId) external view returns (bool) {\n        return sessions[sessionId].submitter != address(0);\n    }\n}\n",
  "sourcePath": "/Users/jsidhu/Documents/GitHub/sysethereum-contracts1/contracts/SyscoinBattleManager.sol",
  "compiler": {
    "name": "solc",
    "version": "0.5.12+commit.7709ece9.Emscripten.clang"
  },
  "schemaVersion": "3.0.16",
  "updatedAt": "2019-11-01T17:28:07.819Z",
  "devdoc": {
    "methods": {}
  },
  "userdoc": {
    "methods": {}
  }
}