{
  "contractName": "SyscoinRelay",
  "abi": [
    {
      "anonymous": false,
      "inputs": [
        {
          "indexed": false,
          "internalType": "bytes32",
          "name": "txHash",
          "type": "bytes32"
        },
        {
          "indexed": false,
          "internalType": "uint256",
          "name": "returnCode",
          "type": "uint256"
        }
      ],
      "name": "RelayTransaction",
      "type": "event"
    },
    {
      "anonymous": false,
      "inputs": [
        {
          "indexed": false,
          "internalType": "bytes32",
          "name": "txHash",
          "type": "bytes32"
        },
        {
          "indexed": false,
          "internalType": "uint256",
          "name": "returnCode",
          "type": "uint256"
        }
      ],
      "name": "VerifyTransaction",
      "type": "event"
    },
    {
      "inputs": [
        {
          "internalType": "bytes",
          "name": "input",
          "type": "bytes"
        },
        {
          "internalType": "uint256",
          "name": "pos",
          "type": "uint256"
        }
      ],
      "name": "bytesToUint32Flipped",
      "outputs": [
        {
          "internalType": "uint32",
          "name": "result",
          "type": "uint32"
        }
      ],
      "stateMutability": "pure",
      "type": "function",
      "constant": true
    },
    {
      "inputs": [
        {
          "internalType": "uint256",
          "name": "_txHash",
          "type": "uint256"
        },
        {
          "internalType": "uint256",
          "name": "_txIndex",
          "type": "uint256"
        },
        {
          "internalType": "uint256[]",
          "name": "_siblings",
          "type": "uint256[]"
        }
      ],
      "name": "computeMerkle",
      "outputs": [
        {
          "internalType": "uint256",
          "name": "",
          "type": "uint256"
        }
      ],
      "stateMutability": "pure",
      "type": "function",
      "constant": true
    },
    {
      "inputs": [
        {
          "internalType": "uint256",
          "name": "_input",
          "type": "uint256"
        }
      ],
      "name": "flip32Bytes",
      "outputs": [
        {
          "internalType": "uint256",
          "name": "result",
          "type": "uint256"
        }
      ],
      "stateMutability": "pure",
      "type": "function",
      "constant": true
    },
    {
      "inputs": [
        {
          "internalType": "bytes",
          "name": "data",
          "type": "bytes"
        },
        {
          "internalType": "uint256",
          "name": "pos",
          "type": "uint256"
        },
        {
          "internalType": "uint256",
          "name": "bits",
          "type": "uint256"
        }
      ],
      "name": "getBytesLE",
      "outputs": [
        {
          "internalType": "uint256",
          "name": "result",
          "type": "uint256"
        }
      ],
      "stateMutability": "pure",
      "type": "function",
      "constant": true
    },
    {
      "inputs": [
        {
          "internalType": "bytes",
          "name": "txBytes",
          "type": "bytes"
        },
        {
          "internalType": "uint256",
          "name": "pos",
          "type": "uint256"
        }
      ],
      "name": "parseCompactSize",
      "outputs": [
        {
          "internalType": "uint256",
          "name": "",
          "type": "uint256"
        },
        {
          "internalType": "uint256",
          "name": "",
          "type": "uint256"
        }
      ],
      "stateMutability": "pure",
      "type": "function",
      "constant": true
    },
    {
      "inputs": [
        {
          "internalType": "bytes",
          "name": "txBytes",
          "type": "bytes"
        },
        {
          "internalType": "uint256",
          "name": "pos",
          "type": "uint256"
        },
        {
          "internalType": "uint256",
          "name": "max",
          "type": "uint256"
        }
      ],
      "name": "parseVarInt",
      "outputs": [
        {
          "internalType": "uint256",
          "name": "",
          "type": "uint256"
        },
        {
          "internalType": "uint256",
          "name": "",
          "type": "uint256"
        }
      ],
      "stateMutability": "pure",
      "type": "function",
      "constant": true
    },
    {
      "inputs": [],
      "name": "syscoinERC20Manager",
      "outputs": [
        {
          "internalType": "contract SyscoinTransactionProcessorI",
          "name": "",
          "type": "address"
        }
      ],
      "stateMutability": "view",
      "type": "function",
      "constant": true
    },
    {
      "inputs": [
        {
          "internalType": "address",
          "name": "_syscoinERC20Manager",
          "type": "address"
        }
      ],
      "name": "init",
      "outputs": [],
      "stateMutability": "nonpayable",
      "type": "function"
    },
    {
      "inputs": [
        {
          "internalType": "bytes",
          "name": "input",
          "type": "bytes"
        },
        {
          "internalType": "uint256",
          "name": "pos",
          "type": "uint256"
        }
      ],
      "name": "bytesToUint32",
      "outputs": [
        {
          "internalType": "uint32",
          "name": "result",
          "type": "uint32"
        }
      ],
      "stateMutability": "pure",
      "type": "function",
      "constant": true
    },
    {
      "inputs": [
        {
          "internalType": "bytes",
          "name": "txBytes",
          "type": "bytes"
        },
        {
          "internalType": "uint256",
          "name": "opIndex",
          "type": "uint256"
        },
        {
          "internalType": "uint256",
          "name": "pos",
          "type": "uint256"
        }
      ],
      "name": "scanBurnTx",
      "outputs": [
        {
          "internalType": "uint256",
          "name": "",
          "type": "uint256"
        },
        {
          "internalType": "address",
          "name": "",
          "type": "address"
        },
        {
          "internalType": "uint32",
          "name": "",
          "type": "uint32"
        }
      ],
      "stateMutability": "pure",
      "type": "function",
      "constant": true
    },
    {
      "inputs": [
        {
          "internalType": "bytes",
          "name": "txBytes",
          "type": "bytes"
        },
        {
          "internalType": "uint256",
          "name": "pos",
          "type": "uint256"
        }
      ],
      "name": "getOpReturnPos",
      "outputs": [
        {
          "internalType": "uint256",
          "name": "",
          "type": "uint256"
        },
        {
          "internalType": "uint256",
          "name": "",
          "type": "uint256"
        }
      ],
      "stateMutability": "pure",
      "type": "function",
      "constant": true
    },
    {
      "inputs": [
        {
          "internalType": "bytes",
          "name": "txBytes",
          "type": "bytes"
        }
      ],
      "name": "parseAssetTx",
      "outputs": [
        {
          "internalType": "uint256",
          "name": "errorCode",
          "type": "uint256"
        },
        {
          "internalType": "uint32",
          "name": "assetGuid",
          "type": "uint32"
        },
        {
          "internalType": "address",
          "name": "erc20Address",
          "type": "address"
        },
        {
          "internalType": "uint8",
          "name": "precision",
          "type": "uint8"
        }
      ],
      "stateMutability": "pure",
      "type": "function",
      "constant": true
    },
    {
      "inputs": [
        {
          "internalType": "bytes",
          "name": "txBytes",
          "type": "bytes"
        },
        {
          "internalType": "uint256",
          "name": "pos",
          "type": "uint256"
        }
      ],
      "name": "scanAssetTx",
      "outputs": [
        {
          "internalType": "uint32",
          "name": "",
          "type": "uint32"
        },
        {
          "internalType": "address",
          "name": "",
          "type": "address"
        },
        {
          "internalType": "uint8",
          "name": "",
          "type": "uint8"
        }
      ],
      "stateMutability": "pure",
      "type": "function",
      "constant": true
    },
    {
      "inputs": [
        {
          "internalType": "uint64",
          "name": "_blockNumber",
          "type": "uint64"
        },
        {
          "internalType": "bytes",
          "name": "_txBytes",
          "type": "bytes"
        },
        {
          "internalType": "uint256",
          "name": "_txIndex",
          "type": "uint256"
        },
        {
          "internalType": "uint256[]",
          "name": "_txSiblings",
          "type": "uint256[]"
        },
        {
          "internalType": "bytes",
          "name": "_syscoinBlockHeader",
          "type": "bytes"
        }
      ],
      "name": "relayTx",
      "outputs": [
        {
          "internalType": "uint256",
          "name": "",
          "type": "uint256"
        }
      ],
      "stateMutability": "nonpayable",
      "type": "function"
    },
    {
      "inputs": [
        {
          "internalType": "uint64",
          "name": "_blockNumber",
          "type": "uint64"
        },
        {
          "internalType": "bytes",
          "name": "_txBytes",
          "type": "bytes"
        },
        {
          "internalType": "uint256",
          "name": "_txIndex",
          "type": "uint256"
        },
        {
          "internalType": "uint256[]",
          "name": "_txSiblings",
          "type": "uint256[]"
        },
        {
          "internalType": "bytes",
          "name": "_syscoinBlockHeader",
          "type": "bytes"
        }
      ],
      "name": "relayAssetTx",
      "outputs": [
        {
          "internalType": "uint256",
          "name": "",
          "type": "uint256"
        }
      ],
      "stateMutability": "nonpayable",
      "type": "function"
    },
    {
      "inputs": [
        {
          "internalType": "bytes",
          "name": "txBytes",
          "type": "bytes"
        }
      ],
      "name": "parseBurnTx",
      "outputs": [
        {
          "internalType": "uint256",
          "name": "errorCode",
          "type": "uint256"
        },
        {
          "internalType": "uint256",
          "name": "output_value",
          "type": "uint256"
        },
        {
          "internalType": "address",
          "name": "destinationAddress",
          "type": "address"
        },
        {
          "internalType": "uint32",
          "name": "assetGuid",
          "type": "uint32"
        }
      ],
      "stateMutability": "pure",
      "type": "function",
      "constant": true
    },
    {
      "inputs": [
        {
          "internalType": "bytes",
          "name": "_dataBytes",
          "type": "bytes"
        }
      ],
      "name": "dblSha",
      "outputs": [
        {
          "internalType": "uint256",
          "name": "",
          "type": "uint256"
        }
      ],
      "stateMutability": "pure",
      "type": "function",
      "constant": true
    },
    {
      "inputs": [
        {
          "internalType": "bytes",
          "name": "_dataBytes",
          "type": "bytes"
        }
      ],
      "name": "dblShaFlip",
      "outputs": [
        {
          "internalType": "uint256",
          "name": "",
          "type": "uint256"
        }
      ],
      "stateMutability": "pure",
      "type": "function",
      "constant": true
    },
    {
      "inputs": [
        {
          "internalType": "bytes",
          "name": "_blockHeader",
          "type": "bytes"
        }
      ],
      "name": "getHeaderMerkleRoot",
      "outputs": [
        {
          "internalType": "uint256",
          "name": "",
          "type": "uint256"
        }
      ],
      "stateMutability": "pure",
      "type": "function",
      "constant": true
    }
  ],
  "bytecode": "0x608060405234801561001057600080fd5b50612019806100206000396000f3fe608060405234801561001057600080fd5b50600436106101205760003560e01c806395663f05116100ad578063bc60df5311610071578063bc60df5314610312578063d0f9410b14610325578063d5c9712f14610338578063e8f421df1461034b578063fc96c3961461039357600080fd5b806395663f0514610268578063b18037fd14610290578063b6f6580a146102a3578063b79bbf46146102b6578063bb3bf22e146102c957600080fd5b80633f0f234b116100f45780633f0f234b1461019b578063543a86f6146101d75780635ec0aedd146101ea5780636823c56b1461021557806391c9375c1461022857600080fd5b8062f0e8d314610125578063029c5e2a1461014b5780630491cb1e1461017357806319ab453c14610186575b600080fd5b610138610133366004611b49565b6103a6565b6040519081526020015b60405180910390f35b61015e610159366004611a50565b6104c4565b60405163ffffffff9091168152602001610142565b610138610181366004611a1c565b610500565b6101996101943660046119da565b6105e2565b005b6101ae6101a9366004611a94565b61062e565b604080519384526001600160a01b03909216602084015263ffffffff1690820152606001610142565b6101386101e5366004611a1c565b6106e7565b6000546101fd906001600160a01b031681565b6040516001600160a01b039091168152602001610142565b610138610223366004611a1c565b6106f5565b61023b610236366004611a50565b61070d565b6040805163ffffffff90941684526001600160a01b03909216602084015260ff1690820152606001610142565b61027b610276366004611a94565b6108d0565b60408051928352602083019190915201610142565b61027b61029e366004611a50565b610985565b6101386102b1366004611ae1565b610aad565b61027b6102c4366004611a50565b610bd7565b6102dc6102d7366004611a1c565b610eca565b6040805194855263ffffffff90931660208501526001600160a01b039091169183019190915260ff166060820152608001610142565b610138610320366004611b49565b610fb0565b610138610333366004611afa565b6110b8565b610138610346366004611a94565b611293565b61035e610359366004611a1c565b611312565b604051610142949392919093845260208401929092526001600160a01b0316604083015263ffffffff16606082015260800190565b61015e6103a1366004611a50565b61136e565b6000806103b6878488888861143b565b9050806103c257600080fd5b6000806000806103d18a610eca565b9296509094509250905083156104275760408051868152602081018690527f4e64138cc499eb1adf9edff9ef69bd45c56ac4bfd307540952e4c9d51eab55c1910160405180910390a183955050505050506104bb565b600054604051630d333f8560e11b81526004810187905263ffffffff851660248201526001600160401b038d1660448201526001600160a01b03848116606483015260ff8416608483015290911690631a667f0a9060a401600060405180830381600087803b15801561049957600080fd5b505af11580156104ad573d6000803e3d6000fd5b505050506000955050505050505b95945050505050565b6000816020840101516040518160031a60008201538160021a60018201538160011a60028201538160001a60038201535160e01c949350505050565b6000600280836040516020016105169190611bf4565b60408051601f198184030181529082905261053091611bf4565b602060405180830381855afa15801561054d573d6000803e3d6000fd5b5050506040513d601f19601f820116820180604052508101906105709190611a03565b60405160200161058291815260200190565b60408051601f198184030181529082905261059c91611bf4565b602060405180830381855afa1580156105b9573d6000803e3d6000fd5b5050506040513d601f19601f820116820180604052508101906105dc9190611a03565b92915050565b6000546001600160a01b031615801561060357506001600160a01b03811615155b61060c57600080fd5b600080546001600160a01b0319166001600160a01b0392909216919091179055565b60008060008060008060006106448a898b6114cd565b9950945091506106548a896116c9565b985060ff169050601481146106cf5760405162461bcd60e51b815260206004820152603660248201527f23537973636f696e52656c6179207363616e4275726e547828293a20496e76616044820152756c69642064657374696e6174696f6e4164647265737360501b60648201526084015b60405180910390fd5b878a0160140151919a91995092975095505050505050565b60006105dc6102b183610500565b604481015160009061070681610aad565b9392505050565b600080808080808080600160401b6107288b8b6000196114cd565b8d51909c509097508c91508b90811061074357610743611f4f565b016020015160f81c935061075860018b611cb3565b99508a8a8151811061076c5761076c611f4f565b016020015160f81c915061078160018b611cb3565b9950600282166108045760405162461bcd60e51b815260206004820152604260248201527f7363616e4173736574547828293a2055706461746520666c616773206d61736b60448201527f20646964207365742041535345545f5550444154455f434f4e545241435420626064820152611a5d60f21b608482015260a4016106c6565b6080821615610836576108178b8b610985565b9a509250610825838b611cb3565b99506108328b8b836108d0565b9a50505b6108408b8b610985565b9a509250601483146108ba5760405162461bcd60e51b815260206004820152603e60248201527f7363616e4173736574547828293a20496e76616c6964206e756d626572206f6660448201527f206279746573207265616420666f7220636f6e7472616374206669656c64000060648201526084016106c6565b5050509590960160140151909690955092505050565b60008060005b60008686815181106108ea576108ea611f4f565b016020015160f81c9050600785901c8211156109185760405162461bcd60e51b81526004016106c690611c2f565b610923600187611cb3565b955060079190911b607f82161790608081161561096c578482141561095a5760405162461bcd60e51b81526004016106c690611c2f565b8161096481611ece565b925050610977565b50915083905061097d565b506108d6565b935093915050565b600080600084848151811061099c5761099c611f4f565b016020015160f81c90506109b1600185611cb3565b935060fd8160ff1610156109cc5760ff169150829050610aa6565b8060ff1660fd14156109f9576109e485856010611293565b6109ef856002611cb3565b9250925050610aa6565b8060ff1660fe1415610a1c57610a1185856020611293565b6109ef856004611cb3565b8060ff1660ff1415610a3f57610a3485856040611293565b6109ef856008611cb3565b60405162461bcd60e51b815260206004820152603660248201527f23537973636f696e4d6573736167654c696272617279207061727365436f6d7060448201527561637453697a6520696e76616c6964206f70636f646560501b60648201526084016106c6565b9250929050565b60405160009060ff8316815382601e1a600182015382601d1a600282015382601c1a600382015382601b1a600482015382601a1a60058201538260191a60068201538260181a60078201538260171a60088201538260161a60098201538260151a600a8201538260141a600b8201538260131a600c8201538260121a600d8201538260111a600e8201538260101a600f82015382600f1a601082015382600e1a601182015382600d1a601282015382600c1a601382015382600b1a601482015382600a1a60158201538260091a60168201538260081a60178201538260071a60188201538260061a60198201538260051a601a8201538260041a601b8201538260031a601c8201538260021a601d8201538260011a601e8201538260001a601f8201535192915050565b600080600080600080610bea8888610985565b9750935083610c6957610bfd8888610985565b9750935083610c5a5760405162461bcd60e51b81526020600482015260356024820152600080516020611f9c833981519152604482015274556e65787065637465642064756d6d792f666c616760581b60648201526084016106c6565b610c648888610985565b975093505b60648410610ccd5760405162461bcd60e51b815260206004820152603a6024820152600080516020611f9c83398151915260448201527f496e636f72726563742073697a65206f66206e5f696e7075747300000000000060648201526084016106c6565b60005b84811015610d1c57610ce3602489611cb3565b9750610cef8989610985565b98509350610cfe846004611cb3565b610d089089611cb3565b975080610d1481611ece565b915050610cd0565b50610d278888610985565b97509050600a8110610d8f5760405162461bcd60e51b815260206004820152603b6024820152600080516020611f9c83398151915260448201527f496e636f72726563742073697a65206f66206e5f6f757470757473000000000060648201526084016106c6565b60005b81811015610e7957610da5600889611cb3565b9750610db18989610985565b98509350610dbf8989611709565b610dd857610dcd8489611cb3565b975060009250610e67565b610de3600189611cb3565b97506000898981518110610df957610df9611f4f565b01602001516001600160f81b0319169050601360fa1b811415610e2857610e2160028a611cb3565b9850610e57565b6001600160f81b03198116604d60f81b1415610e4957610e2160038a611cb3565b610e5460018a611cb3565b98505b509550869450610aa69350505050565b80610e7181611ece565b915050610d92565b5060405162461bcd60e51b81526020600482015260316024820152600080516020611f9c833981519152604482015270139bc813dc14995d1d5c9b88199bdd5b99607a1b60648201526084016106c6565b60008080808080610edb87826104c4565b915063ffffffff8216608214801590610efb575063ffffffff8216608314155b15610f1757612724600080600095509550955095505050610fa9565b610f22876004610bd7565b9150610f309050878261070d565b919650945092506001600160a01b038416610fa25760405162461bcd60e51b815260206004820152602c60248201527f70617273654173736574547828293a206572633230416464726573732063616e60448201526b6e6f7420626520656d70747960a01b60648201526084016106c6565b6000955050505b9193509193565b600080610fc0878488888861143b565b905080610fcc57600080fd5b600080600080610fdb8a611312565b9196509450909250905081156110305760408051868152602081018490527f4e64138cc499eb1adf9edff9ef69bd45c56ac4bfd307540952e4c9d51eab55c1910160405180910390a15093506104bb92505050565b600054604051630feda1e360e31b815260048101879052602481018690526001600160a01b03858116604483015263ffffffff8416606483015290911690637f6d0f1890608401600060405180830381600087803b15801561109157600080fd5b505af11580156110a5573d6000803e3d6000fd5b50959d9c50505050505050505050505050565b8051600090815b81811015611118576110e98482815181106110dc576110dc611f4f565b6020026020010151610aad565b8482815181106110fb576110fb611f4f565b60209081029190910101528061111081611ece565b9150506110bf565b5060008061112587610aad565b90505b8282101561127f57600085838151811061114457611144611f4f565b6020026020010151905060008060028961115e9190611ee9565b60011415611170575081905082611176565b50829050815b6002808383604051602001611195929190918252602082015260400190565b60408051601f19818403018152908290526111af91611bf4565b602060405180830381855afa1580156111cc573d6000803e3d6000fd5b5050506040513d601f19601f820116820180604052508101906111ef9190611a03565b60405160200161120191815260200190565b60408051601f198184030181529082905261121b91611bf4565b602060405180830381855afa158015611238573d6000803e3d6000fd5b5050506040513d601f19601f8201168201806040525081019061125b9190611a03565b935061126860028a611d15565b9850611275600186611cb3565b9450505050611128565b61128881610aad565b979650505050505050565b6000805b6112a2600884611d15565b81101561130a576112b4816008611e3a565b6112bf906002611d92565b856112ca8387611cb3565b815181106112da576112da611f4f565b01602001516112ec919060f81c611e3a565b6112f69083611cb3565b91508061130281611ece565b915050611297565b509392505050565b600080808080808061132488826104c4565b925063ffffffff8316608614611341576127249650505050610fa9565b61134c886004610bd7565b9250905061135b88828461062e565b60009b929a509098509650945050505050565b600082828151811061138257611382611f4f565b01602001516113989060f81c6301000000611e59565b836113a4846001611cb3565b815181106113b4576113b4611f4f565b01602001516113c99060f81c62010000611e59565b846113d5856002611cb3565b815181106113e5576113e5611f4f565b01602001516113f99060f81c610100611e59565b85611405866003611cb3565b8151811061141557611415611f4f565b0160200151611427919060f81c611ccb565b6114319190611ccb565b6107069190611ccb565b600084516050146114785760408051600081526127106020820152600080516020611f7c83398151915291015b60405180910390a15060006104bb565b61148185610500565b6001600160401b0387164f146114b757604080516000815261271a6020820152600080516020611f7c8339815191529101611468565b6114c38484848861173e565b9695505050505050565b60008080808080808080600160401b6114e68d8d610985565b9c50965060005b878110156116b65780611631576115058e8e846108d0565b9d5096508695506115168e8e610985565b9d50935060005b848110156115705761152f8f8f610985565b9e5095508c86141561154f576115468f8f856108d0565b9e50935061155e565b61155a8f8f856108d0565b9e50505b8061156881611ece565b91505061151d565b5061157b8e8e610985565b9d509450611589858e611cb3565b9c5060008c1261162c57600083116116175760405162461bcd60e51b815260206004820152604560248201527f23537973636f696e52656c617920706172736546697273744173736574436f6d60448201527f6d69746d656e74496e547828293a206f757470757420696e646578206e6f7420606482015264199bdd5b9960da1b608482015260a4016106c6565b611620836117b1565b6001600160401b031692505b6116a4565b61163c8e8e846108d0565b9d5061164a90508e8e610985565b9d50935060005b84811015611688576116638f8f610985565b9e5061167290508f8f856108d0565b9e5081905061168081611ece565b915050611651565b506116938e8e610985565b9d5094506116a1858e611cb3565b9c505b806116ae81611ece565b9150506114ed565b50909c939b509298505050505050505050565b600080835183106116d957600080fd5b8383815181106116eb576116eb611f4f565b016020015160f81c6116fe846001611cb3565b915091509250929050565b8151600090603560f91b9084908490811061172657611726611f4f565b01602001516001600160f81b03191614905092915050565b60008061174a866106e7565b905085516040141561178857604080518281526127386020820152600080516020611f7c833981519152910160405180910390a160009150506117a9565b61179481868686611888565b600114156117a35790506117a9565b60009150505b949350505050565b60006001600160401b0382166117c957506000919050565b816117d381611eab565b9250600090506117e4600a84611efd565b90506117f1600a84611d29565b925060006009826001600160401b0316101561184c576000611814600986611efd565b61181f906001611cf3565b905061182c600986611d29565b94508061183a86600a611e85565b6118449190611cf3565b91505061185a565b611857846001611cf3565b90505b6001600160401b0382161561070657611874600a82611e85565b90508161188081611eab565b92505061185a565b600080611894836106f5565b9050806118a28787876110b8565b146118da576040805187815261272e6020820152600080516020611f7c833981519152910160405180910390a161272e9150506117a9565b50600195945050505050565b600082601f8301126118f757600080fd5b813560206001600160401b0382111561191257611912611f65565b8160051b611921828201611c83565b83815282810190868401838801850189101561193c57600080fd5b600093505b8584101561195f578035835260019390930192918401918401611941565b50979650505050505050565b600082601f83011261197c57600080fd5b81356001600160401b0381111561199557611995611f65565b6119a8601f8201601f1916602001611c83565b8181528460208386010111156119bd57600080fd5b816020850160208301376000918101602001919091529392505050565b6000602082840312156119ec57600080fd5b81356001600160a01b038116811461070657600080fd5b600060208284031215611a1557600080fd5b5051919050565b600060208284031215611a2e57600080fd5b81356001600160401b03811115611a4457600080fd5b6117a98482850161196b565b60008060408385031215611a6357600080fd5b82356001600160401b03811115611a7957600080fd5b611a858582860161196b565b95602094909401359450505050565b600080600060608486031215611aa957600080fd5b83356001600160401b03811115611abf57600080fd5b611acb8682870161196b565b9660208601359650604090950135949350505050565b600060208284031215611af357600080fd5b5035919050565b600080600060608486031215611b0f57600080fd5b833592506020840135915060408401356001600160401b03811115611b3357600080fd5b611b3f868287016118e6565b9150509250925092565b600080600080600060a08688031215611b6157600080fd5b85356001600160401b038082168214611b7957600080fd5b90955060208701359080821115611b8f57600080fd5b611b9b89838a0161196b565b9550604088013594506060880135915080821115611bb857600080fd5b611bc489838a016118e6565b93506080880135915080821115611bda57600080fd5b50611be78882890161196b565b9150509295509295909350565b6000825160005b81811015611c155760208186018101518583015201611bfb565b81811115611c24576000828501525b509190910192915050565b60208082526034908201527f23537973636f696e4d6573736167654c696272617279207061727365566172496040820152736e7428293a2073697a6520746f6f206c6172676560601b606082015260800190565b604051601f8201601f191681016001600160401b0381118282101715611cab57611cab611f65565b604052919050565b60008219821115611cc657611cc6611f23565b500190565b600063ffffffff808316818516808303821115611cea57611cea611f23565b01949350505050565b60006001600160401b03808316818516808303821115611cea57611cea611f23565b600082611d2457611d24611f39565b500490565b60006001600160401b0380841680611d4357611d43611f39565b92169190910492915050565b600181815b80851115611d8a578160001904821115611d7057611d70611f23565b80851615611d7d57918102915b93841c9390800290611d54565b509250929050565b60006107068383600082611da8575060016105dc565b81611db5575060006105dc565b8160018114611dcb5760028114611dd557611df1565b60019150506105dc565b60ff841115611de657611de6611f23565b50506001821b6105dc565b5060208310610133831016604e8410600b8410161715611e14575081810a6105dc565b611e1e8383611d4f565b8060001904821115611e3257611e32611f23565b029392505050565b6000816000190483118215151615611e5457611e54611f23565b500290565b600063ffffffff80831681851681830481118215151615611e7c57611e7c611f23565b02949350505050565b60006001600160401b0380831681851681830481118215151615611e7c57611e7c611f23565b60006001600160401b03821680611ec457611ec4611f23565b6000190192915050565b6000600019821415611ee257611ee2611f23565b5060010190565b600082611ef857611ef8611f39565b500690565b60006001600160401b0380841680611f1757611f17611f39565b92169190910692915050565b634e487b7160e01b600052601160045260246000fd5b634e487b7160e01b600052601260045260246000fd5b634e487b7160e01b600052603260045260246000fd5b634e487b7160e01b600052604160045260246000fdfe65bd72698b9ffcfb3c7cb4c7414e13225cabd57fb690e183ae8c01c8ec268ebd23537973636f696e52656c6179206765744f7052657475726e506f7328293a20a26469706673582212203645d75f4aa637c080a0df02bea24b7d522fba02ad2a96a79e218696ca203bb664736f6c63782a302e382e372d646576656c6f702e323032312e372e372b636f6d6d69742e34363531346666612e6d6f64005b",
  "immutableReferences": {},
  "source": "// SPDX-License-Identifier: MIT\npragma solidity ^0.8.6;\n\nimport './interfaces/SyscoinRelayI.sol';\nimport \"./interfaces/SyscoinTransactionProcessorI.sol\";\nimport \"./SyscoinErrorCodes.sol\";\nimport \"./SyscoinParser/SyscoinMessageLibrary.sol\";\n\ncontract SyscoinRelay is SyscoinRelayI, SyscoinErrorCodes, SyscoinMessageLibrary {\n    uint32 constant SYSCOIN_TX_VERSION_ASSET_ACTIVATE = 130;\n    uint32 constant SYSCOIN_TX_VERSION_ASSET_UPDATE = 131;\n    uint32 constant SYSCOIN_TX_VERSION_ALLOCATION_BURN_TO_NEVM = 134;\n    bytes1 constant OP_PUSHDATA1 = 0x4c;\n    bytes1 constant OP_PUSHDATA2 = 0x4d;\n    uint32 constant ASSET_UPDATE_CONTRACT = 2;\n    uint32 constant ASSET_INIT = 128;\n    SyscoinTransactionProcessorI public syscoinERC20Manager;\n    event VerifyTransaction(bytes32 txHash, uint returnCode);\n    event RelayTransaction(bytes32 txHash, uint returnCode);\n\n    // @param _syscoinERC20Manager - address of the SyscoinERC20Manager contract to be associated with\n    function init(address _syscoinERC20Manager) public {\n        require(address(syscoinERC20Manager) == address(0) && _syscoinERC20Manager != address(0));\n        syscoinERC20Manager = SyscoinTransactionProcessorI(_syscoinERC20Manager);\n    }\n\n    // Returns true if the tx output is an OP_RETURN output\n    function isOpReturn(bytes memory txBytes, uint pos) internal pure returns (bool) {\n        // scriptPub format is\n        // 0x6a OP_RETURN\n        return txBytes[pos] == bytes1(0x6a);\n    }\n\n\n    function bytesToUint32(bytes memory input, uint pos) public pure returns (uint32 result) {\n        result = uint32(uint8(input[pos+3])) + uint32(uint8(input[pos + 2]))*(2**8) + uint32(uint8(input[pos + 1]))*(2**16) + uint32(uint8(input[pos]))*(2**24);\n    }\n\n    function DecompressAmount(uint64 x) internal pure returns (uint64) {\n        // x = 0  OR  x = 1+10*(9*n + d - 1) + e  OR  x = 1+10*(n - 1) + 9\n        if (x == 0)\n            return 0;\n        x--;\n        // x = 10*(9*n + d - 1) + e\n        uint64 e = x % 10;\n        x /= 10;\n        uint64 n = 0;\n        if (e < 9) {\n            // x = 9*n + d - 1\n            uint64 d = x % 9 + 1;\n            x /= 9;\n            // x = n\n            n = x*10 + d;\n        } else {\n            n = x+1;\n        }\n        while (e > 0) {\n            n *= 10;\n            e--;\n        }\n        return n;\n    }\n\n    function parseFirstAssetCommitmentInTx(bytes memory txBytes, uint pos, int opIndex) internal pure returns (uint, uint32, uint) {\n        uint numAssets;\n        uint assetGuid;\n        uint32 assetGuid32;\n        uint bytesToRead;\n        uint numOutputs;\n        uint output_value;\n        uint maxVal = 2**64;\n        (numAssets, pos) = parseCompactSize(txBytes, pos);\n        // loop through all assets in tx\n        for (uint assetIndex = 0; assetIndex < numAssets; assetIndex++) {\n            // the first asset is the one we care about\n            if(assetIndex == 0) {\n                // get nAsset\n                (assetGuid, pos) = parseVarInt(txBytes, pos, maxVal);\n                assetGuid32 = uint32(assetGuid);\n                (numOutputs, pos) = parseCompactSize(txBytes, pos);\n                // find output that is connected to the burn output (opIndex)\n                for (uint i = 0; i < numOutputs; i++) {\n                    // output index\n                    (bytesToRead, pos) = parseCompactSize(txBytes, pos);\n                    // get compressed amount\n                    if(int(bytesToRead) == opIndex) {\n                        (output_value, pos) = parseVarInt(txBytes, pos, maxVal);\n                    } else {\n                        (, pos) = parseVarInt(txBytes, pos, maxVal);\n                    }\n                }\n                // skip notary sig\n                (bytesToRead, pos) = parseCompactSize(txBytes, pos);\n                pos += bytesToRead;\n                if(opIndex >= 0) {\n                    require(output_value > 0, \"#SyscoinRelay parseFirstAssetCommitmentInTx(): output index not found\");\n                    output_value = DecompressAmount(uint64(output_value));\n                }\n            // skip over all other assets\n            } else {\n                // get nAsset\n                (, pos) = parseVarInt(txBytes, pos, maxVal);\n                (numOutputs, pos) = parseCompactSize(txBytes, pos);\n                // find output that is connected to the burn output (opIndex)\n                for (uint i = 0; i < numOutputs; i++) {\n                    // skip output index\n                    (, pos) = parseCompactSize(txBytes, pos);\n                    // skip compressed amount\n                    (, pos) = parseVarInt(txBytes, pos, maxVal);\n                }\n                // skip notary sig\n                (bytesToRead, pos) = parseCompactSize(txBytes, pos);\n                pos += bytesToRead;\n            }\n        }\n        return (output_value, assetGuid32, pos);\n    }\n    // Returns asset data parsed from the op_return data output from syscoin asset burn transaction\n    function scanBurnTx(bytes memory txBytes, uint opIndex, uint pos)\n        public\n        pure\n        returns (uint, address, uint32)\n    {\n        uint32 assetGuid;\n        address destinationAddress;\n        uint output_value;\n        uint numBytesInAddress;\n        // return burned amount of an asset from the first asset output (opIndex is the index we are looking for inside of the first asset)\n        (output_value, assetGuid, pos) = parseFirstAssetCommitmentInTx(txBytes, pos, int(opIndex));\n        // destination address\n        (numBytesInAddress, pos) = getOpcode(txBytes, pos);\n        // ethereum contracts are 20 bytes (without the 0x)\n        require(numBytesInAddress == 0x14, \"#SyscoinRelay scanBurnTx(): Invalid destinationAddress\");\n        destinationAddress = readEthereumAddress(txBytes, pos);\n        return (output_value, destinationAddress, assetGuid);\n    }\n\n    // Read the ethereum address embedded in the tx output\n    function readEthereumAddress(bytes memory txBytes, uint pos) internal pure returns (address) {\n        uint256 data;\n        assembly {\n            data := mload(add(add(txBytes, 20), pos))\n        }\n        return address(uint160(data));\n    }\n\n    // Read next opcode from script\n    function getOpcode(bytes memory txBytes, uint pos) private pure returns (uint8, uint) {\n        require(pos < txBytes.length);\n        return (uint8(txBytes[pos]), pos + 1);\n    }\n\n    function getOpReturnPos(bytes memory txBytes, uint pos) public pure returns (uint, uint) {\n        uint n_inputs;\n        uint script_len;\n        uint output_value;\n        uint n_outputs;\n\n        (n_inputs, pos) = parseCompactSize(txBytes, pos);\n        // if dummy 0x00 is present this is a witness transaction\n        if(n_inputs == 0x00){\n            (n_inputs, pos) = parseCompactSize(txBytes, pos); // flag\n            require(n_inputs != 0x00, \"#SyscoinRelay getOpReturnPos(): Unexpected dummy/flag\");\n            // after dummy/flag the real var int comes for txins\n            (n_inputs, pos) = parseCompactSize(txBytes, pos);\n        }\n        require(n_inputs < 100, \"#SyscoinRelay getOpReturnPos(): Incorrect size of n_inputs\");\n\n        for (uint i = 0; i < n_inputs; i++) {\n            pos += 36;  // skip outpoint\n            (script_len, pos) = parseCompactSize(txBytes, pos);\n            pos += script_len + 4;  // skip sig_script, seq\n        }\n        \n        (n_outputs, pos) = parseCompactSize(txBytes, pos);\n        require(n_outputs < 10, \"#SyscoinRelay getOpReturnPos(): Incorrect size of n_outputs\");\n        for (uint i = 0; i < n_outputs; i++) {\n            pos += 8;\n            // varint\n            (script_len, pos) = parseCompactSize(txBytes, pos);\n            if(!isOpReturn(txBytes, pos)){\n                // output script\n                pos += script_len;\n                output_value = 0;\n                continue;\n            }\n            // skip opreturn marker\n            pos += 1;\n            bytes1 pushDataOp = txBytes[pos];\n            // if payload >= OP_PUSHDATA1 && <= 0xff bytes skip 2 bytes (push data + 1 byte varint)\n            if (pushDataOp == OP_PUSHDATA1){\n                pos += 2;\n            }\n            // if payload > 0xff && <= 0xffff then skip 3 bytes (push data + 2 byte varint)\n            else if (pushDataOp == OP_PUSHDATA2){\n                pos += 3;\n            } else {\n                pos += 1; // skip 1 byte varint\n            }\n            return (i, pos);\n        }\n        revert(\"#SyscoinRelay getOpReturnPos(): No OpReturn found\");\n    }\n\n\n     /** @dev Parse syscoin asset transaction to recover asset guid and contract, for purposes of updating asset registry in erc20manager\n     * @param txBytes syscoin raw transaction\n     */\n    function parseAssetTx(bytes memory txBytes)\n        public\n        pure\n        returns (uint errorCode, uint32 assetGuid, address erc20Address, uint8 precision)\n    {\n        uint32 version;\n        uint pos = 0;\n        version = bytesToUint32Flipped(txBytes, pos);\n        if(version != SYSCOIN_TX_VERSION_ASSET_ACTIVATE && version != SYSCOIN_TX_VERSION_ASSET_UPDATE){\n            return (ERR_PARSE_TX_SYS, 0, address(0), 0);\n        }\n        (, pos) = getOpReturnPos(txBytes, 4);\n        (assetGuid, erc20Address, precision) = scanAssetTx(txBytes, pos);\n        require(erc20Address != address(0),\n        \"parseAssetTx(): erc20Address cannot be empty\");\n        return (0, assetGuid, erc20Address, precision);\n    }\n\n\n     /**\n     * Parse txBytes and returns assetGuid + contract address\n     * @param txBytes syscoin raw transaction\n     * @param pos position at where to start parsing\n     * @return asset guid (uint32), erc20 address and precision linked to the asset guid to update registry in erc20manager\n     */\n    function scanAssetTx(bytes memory txBytes, uint pos)\n        public\n        pure\n        returns (uint32, address, uint8)\n    {\n        uint32 assetGuid;\n        address erc20Address;\n        uint8 precision;\n        uint bytesToRead;\n        uint8 nUpdateFlags;\n        uint maxVal = 2**64;\n        \n        // return asset from the first asset output\n        (, assetGuid, pos) = parseFirstAssetCommitmentInTx(txBytes, pos, -1);\n        \n        // nPrecision\n        precision = uint8(txBytes[pos]);\n        pos += 1;\n        // update flags\n        nUpdateFlags = uint8(txBytes[pos]);\n        pos += 1;\n        require((nUpdateFlags & ASSET_UPDATE_CONTRACT) > 0, \"scanAssetTx(): Update flags mask did set ASSET_UPDATE_CONTRACT bit\");\n        if((nUpdateFlags & ASSET_INIT) > 0) {\n            // skip symbol\n            (bytesToRead, pos) = parseCompactSize(txBytes, pos);\n            pos += bytesToRead;\n            // skip over max supply\n            (, pos) = parseVarInt(txBytes, pos, maxVal);\n        }\n        // get vchContract\n        (bytesToRead, pos) = parseCompactSize(txBytes, pos);\n        require(bytesToRead == 0x14,\n        \"scanAssetTx(): Invalid number of bytes read for contract field\");\n        erc20Address = readEthereumAddress(txBytes, pos);\n        return (assetGuid, erc20Address, precision);\n    }\n\n\n    // @dev - Verify TX SPV to Block proof\n    // @param _blockNumber - NEVM block number which is associated with a Syscoin Block with burned SPT (_txBytes)\n    // @param _txBytes - transaction bytes\n    // @param _txIndex - transaction's index within the block\n    // @param _txSiblings - transaction's Merkle siblings\n    // @param _syscoinBlockHeader - block header containing transaction\n    function verifySPVProofs(\n        uint64 _blockNumber,\n        bytes memory _syscoinBlockHeader,\n        bytes memory _txBytes,\n        uint _txIndex,\n        uint[] memory _txSiblings\n    ) private returns (uint) {\n        if (_syscoinBlockHeader.length != 80) {  \n            emit VerifyTransaction(0, ERR_INVALID_HEADER);\n            return 0;\n        }\n        // ensure the NEVM block number can lookup a valid syscoin block hash\n        if (uint(sysblockhash(_blockNumber)) != dblSha(_syscoinBlockHeader)) {\n            emit VerifyTransaction(0, ERR_INVALID_HEADER_HASH);\n            return 0;\n        }\n        // then ensure that the SPV proof against this validated syscoin block header is also valid\n        return verifyTx(_txBytes, _txIndex, _txSiblings, _syscoinBlockHeader);\n    }\n\n    // @dev - relays transaction `_txBytes` to ERC20Manager's processTransaction() method.\n    // Also logs the value of processTransaction.\n    // Note: callers cannot be 100% certain when an error occurs because\n    // it may also have been returned by processTransaction(). Callers should be\n    // aware of the contract that they are relaying transactions to and\n    // understand what that contract's processTransaction method returns.\n    //\n    // @param _blockNumber - NEVM block number which is associated with a Syscoin Block with burned SPT (_txBytes)\n    // @param _txBytes - transaction bytes\n    // @param _txIndex - transaction's index within the block\n    // @param _txSiblings - transaction's Merkle siblings\n    // @param _syscoinBlockHeader - block header containing transaction\n    function relayTx(\n        uint64 _blockNumber,\n        bytes memory _txBytes,\n        uint _txIndex,\n        uint[] memory _txSiblings,\n        bytes memory _syscoinBlockHeader\n    ) public override returns (uint) {\n        uint txHash = verifySPVProofs(_blockNumber, _syscoinBlockHeader, _txBytes, _txIndex, _txSiblings);\n        require(txHash != 0);\n        uint value;\n        address destinationAddress;\n        uint ret;\n        uint32 assetGuid;\n        (ret, value, destinationAddress, assetGuid) = parseBurnTx(_txBytes);\n        if(ret != 0){\n            emit RelayTransaction(bytes32(txHash), ret);\n            return ret;\n        }\n        syscoinERC20Manager.processTransaction(txHash, value, destinationAddress, assetGuid);\n        return value;\n    }\n\n    // @dev - relays asset transaction(new or update) `_txBytes` to ERC20Manager's processAsset() method.\n    // Also logs the value of processAsset.\n    // Note: callers cannot be 100% certain when an error occurs because\n    // it may also have been returned by processAsset(). Callers should be\n    // aware of the contract that they are relaying transactions to and\n    // understand what that contract's processTransaction method returns.\n    //\n    // @param _blockNumber - NEVM block number which is associated with a Syscoin Block with burned SPT (_txBytes)\n    // @param _txBytes - transaction bytes\n    // @param _txIndex - transaction's index within the block\n    // @param _txSiblings - transaction's Merkle siblings\n    // @param _syscoinBlockHeader - block header containing transaction\n    function relayAssetTx(\n        uint64 _blockNumber,\n        bytes memory _txBytes,\n        uint _txIndex,\n        uint[] memory _txSiblings,\n        bytes memory _syscoinBlockHeader\n    ) public override returns (uint) {\n        uint txHash = verifySPVProofs(_blockNumber, _syscoinBlockHeader, _txBytes, _txIndex, _txSiblings);\n        require(txHash != 0);\n        uint ret;\n        uint32 assetGuid;\n        address erc20ContractAddress;\n        uint8 precision;\n        (ret, assetGuid, erc20ContractAddress, precision) = parseAssetTx(_txBytes);\n        if(ret != 0){\n            emit RelayTransaction(bytes32(txHash), ret);\n            return ret;\n        }\n        syscoinERC20Manager.processAsset(txHash, assetGuid, _blockNumber, erc20ContractAddress, precision);\n        return 0;\n       \n    }\n\n    // @dev - Parses a syscoin tx\n    //\n    // @param txBytes - tx byte array\n    // Outputs\n    // @return output_value - amount sent to the lock address in satoshis\n    // @return destinationAddress - ethereum destination address\n    function parseBurnTx(bytes memory txBytes)\n        public\n        pure\n        returns (uint errorCode, uint output_value, address destinationAddress, uint32 assetGuid)\n    {\n        uint32 version;\n        uint pos = 0;\n        uint opIndex = 0;\n        version = bytesToUint32Flipped(txBytes, pos);\n        if(version != SYSCOIN_TX_VERSION_ALLOCATION_BURN_TO_NEVM){\n            return (ERR_PARSE_TX_SYS, output_value, destinationAddress, assetGuid);\n        }\n        (opIndex, pos) = getOpReturnPos(txBytes, 4);\n        (output_value, destinationAddress, assetGuid) = scanBurnTx(txBytes, opIndex, pos);\n        return (0, output_value, destinationAddress, assetGuid);\n    }\n\n    // @dev - Checks whether the transaction given by `_txBytes` is in the block identified by `_txBlockHeaderBytes`.\n    // First it guards against a Merkle tree collision attack by raising an error if the transaction is exactly 64 bytes long,\n    // then it calls helperVerifyHash to do the actual check.\n    //\n    // @param _txBytes - transaction bytes\n    // @param _txIndex - transaction's index within the block\n    // @param _siblings - transaction's Merkle siblings\n    // @param _txBlockHeaderBytes - block header containing transaction\n    // @return - SHA-256 hash of _txBytes if the transaction is in the block, 0 otherwise\n    function verifyTx(\n        bytes memory _txBytes,\n        uint _txIndex,\n        uint[] memory _siblings,\n        bytes memory _txBlockHeaderBytes\n    ) private returns (uint) {\n        uint txHash = dblShaFlip(_txBytes);\n\n        if (_txBytes.length == 64) {  // todo: is check 32 also needed?\n            emit VerifyTransaction(bytes32(txHash), ERR_TX_64BYTE);\n            return 0;\n        }\n\n        if (helperVerifyHash(txHash, _txIndex, _siblings, _txBlockHeaderBytes) == 1) {\n            return txHash;\n        } else {\n            // log is done via helperVerifyHash\n            return 0;\n        }\n    }\n    function dblSha(bytes memory _dataBytes) public pure returns (uint) {\n        return uint(sha256(abi.encodePacked(sha256(abi.encodePacked(_dataBytes)))));\n    }\n\n    // @dev - Bitcoin-way of hashing\n    // @param _dataBytes - raw data to be hashed\n    // @return - result of applying SHA-256 twice to raw data and then flipping the bytes\n    function dblShaFlip(bytes memory _dataBytes) public pure returns (uint) {\n        return flip32Bytes(dblSha(_dataBytes));\n    }\n\n    // @dev - extract Merkle root field from a raw Syscoin block header\n    //\n    // @param _blockHeader - Syscoin block header bytes\n    // @param pos - where to start reading root from\n    // @return - block's Merkle root in big endian format\n    function getHeaderMerkleRoot(bytes memory _blockHeader) public pure returns (uint) {\n        uint merkle;\n        assembly {\n            merkle := mload(add(add(_blockHeader, 32), 0x24))\n        }\n        return flip32Bytes(merkle);\n    }\n\n    // @dev - Checks whether the transaction identified by `_txHash` is in the block identified by `_blockHeaderBytes`\n    // and whether the block is in the Syscoin main chain. Transaction check is done via Merkle proof.\n    // Note: no verification is performed to prevent txHash from just being an\n    // internal hash in the Merkle tree. Thus this helper method should NOT be used\n    // directly and is intended to be private.\n    //\n    // @param _txHash - transaction hash\n    // @param _txIndex - transaction's index within the block\n    // @param _siblings - transaction's Merkle siblings\n    // @param _blockHeaderBytes - block header containing transaction\n    // @return - 1 if the transaction is in the block and the block is in the main chain,\n    // 20050 (ERR_MERKLE_ROOT) if the Merkle proof fails.\n    function helperVerifyHash(\n        uint256 _txHash,\n        uint _txIndex,\n        uint[] memory _siblings,\n        bytes memory _blockHeaderBytes\n    ) private returns (uint) {\n\n        // Verify tx Merkle root\n        uint merkle = getHeaderMerkleRoot(_blockHeaderBytes);\n        if (computeMerkle(_txHash, _txIndex, _siblings) != merkle) {\n            emit VerifyTransaction(bytes32(_txHash), ERR_MERKLE_ROOT);\n            return (ERR_MERKLE_ROOT);\n        }\n        return (1);\n    }\n}\n",
  "sourcePath": "/Users/jagsidhu/work/Documents/GitHub/sysethereum-contracts/contracts/SyscoinRelay.sol",
  "compiler": {
    "name": "solc",
    "version": "0.8.7-develop.2021.7.7+commit.46514ffa.mod.Darwin.appleclang"
  },
  "schemaVersion": "3.4.3",
  "updatedAt": "2021-09-21T18:59:41.593Z",
  "networkType": "ethereum",
  "devdoc": {
    "kind": "dev",
    "methods": {
      "parseAssetTx(bytes)": {
        "details": "Parse syscoin asset transaction to recover asset guid and contract, for purposes of updating asset registry in erc20manager",
        "params": {
          "txBytes": "syscoin raw transaction"
        }
      },
      "scanAssetTx(bytes,uint256)": {
        "params": {
          "pos": "position at where to start parsing",
          "txBytes": "syscoin raw transaction"
        },
        "returns": {
          "_0": "asset guid (uint32), erc20 address and precision linked to the asset guid to update registry in erc20manager"
        }
      }
    },
    "version": 1
  },
  "userdoc": {
    "kind": "user",
    "methods": {
      "scanAssetTx(bytes,uint256)": {
        "notice": "Parse txBytes and returns assetGuid + contract address"
      }
    },
    "version": 1
  }
}