{
  "contractName": "SyscoinERC20ManagerForTests",
  "abi": [
    {
      "anonymous": false,
      "inputs": [
        {
          "indexed": false,
          "internalType": "address",
          "name": "canceller",
          "type": "address"
        },
        {
          "indexed": false,
          "internalType": "uint32",
          "name": "bridgetransferid",
          "type": "uint32"
        }
      ],
      "name": "CancelTransferFailed",
      "type": "event"
    },
    {
      "anonymous": false,
      "inputs": [
        {
          "indexed": false,
          "internalType": "address",
          "name": "canceller",
          "type": "address"
        },
        {
          "indexed": false,
          "internalType": "uint32",
          "name": "bridgetransferid",
          "type": "uint32"
        }
      ],
      "name": "CancelTransferRequest",
      "type": "event"
    },
    {
      "anonymous": false,
      "inputs": [
        {
          "indexed": false,
          "internalType": "address",
          "name": "canceller",
          "type": "address"
        },
        {
          "indexed": false,
          "internalType": "uint32",
          "name": "bridgetransferid",
          "type": "uint32"
        }
      ],
      "name": "CancelTransferSucceeded",
      "type": "event"
    },
    {
      "anonymous": false,
      "inputs": [
        {
          "indexed": false,
          "internalType": "address",
          "name": "freezer",
          "type": "address"
        },
        {
          "indexed": false,
          "internalType": "uint256",
          "name": "value",
          "type": "uint256"
        },
        {
          "indexed": false,
          "internalType": "uint32",
          "name": "bridgetransferid",
          "type": "uint32"
        }
      ],
      "name": "TokenFreeze",
      "type": "event"
    },
    {
      "anonymous": false,
      "inputs": [
        {
          "indexed": false,
          "internalType": "uint32",
          "name": "assetGuid",
          "type": "uint32"
        },
        {
          "indexed": false,
          "internalType": "address",
          "name": "erc20ContractAddress",
          "type": "address"
        }
      ],
      "name": "TokenRegistry",
      "type": "event"
    },
    {
      "anonymous": false,
      "inputs": [
        {
          "indexed": false,
          "internalType": "address",
          "name": "receipient",
          "type": "address"
        },
        {
          "indexed": false,
          "internalType": "uint256",
          "name": "value",
          "type": "uint256"
        }
      ],
      "name": "TokenUnfreeze",
      "type": "event"
    },
    {
      "anonymous": false,
      "inputs": [
        {
          "indexed": false,
          "internalType": "address",
          "name": "receipient",
          "type": "address"
        },
        {
          "indexed": false,
          "internalType": "uint256",
          "name": "value",
          "type": "uint256"
        }
      ],
      "name": "TokenUnfreezeFee",
      "type": "event"
    },
    {
      "constant": true,
      "inputs": [
        {
          "internalType": "uint32",
          "name": "",
          "type": "uint32"
        }
      ],
      "name": "assetBalances",
      "outputs": [
        {
          "internalType": "uint256",
          "name": "",
          "type": "uint256"
        }
      ],
      "payable": false,
      "stateMutability": "view",
      "type": "function"
    },
    {
      "constant": true,
      "inputs": [
        {
          "internalType": "uint32",
          "name": "",
          "type": "uint32"
        }
      ],
      "name": "assetRegistry",
      "outputs": [
        {
          "internalType": "address",
          "name": "erc20ContractAddress",
          "type": "address"
        },
        {
          "internalType": "uint32",
          "name": "height",
          "type": "uint32"
        }
      ],
      "payable": false,
      "stateMutability": "view",
      "type": "function"
    },
    {
      "constant": false,
      "inputs": [
        {
          "internalType": "uint32",
          "name": "bridgeTransferId",
          "type": "uint32"
        }
      ],
      "name": "cancelTransferRequest",
      "outputs": [],
      "payable": true,
      "stateMutability": "payable",
      "type": "function"
    },
    {
      "constant": false,
      "inputs": [
        {
          "internalType": "uint32",
          "name": "bridgeTransferId",
          "type": "uint32"
        }
      ],
      "name": "cancelTransferSuccess",
      "outputs": [],
      "payable": false,
      "stateMutability": "nonpayable",
      "type": "function"
    },
    {
      "constant": true,
      "inputs": [
        {
          "internalType": "uint32",
          "name": "bridgeTransferId",
          "type": "uint32"
        }
      ],
      "name": "getBridgeTransfer",
      "outputs": [
        {
          "internalType": "uint256",
          "name": "_timestamp",
          "type": "uint256"
        },
        {
          "internalType": "uint256",
          "name": "_value",
          "type": "uint256"
        },
        {
          "internalType": "address",
          "name": "_erc20ContractAddress",
          "type": "address"
        },
        {
          "internalType": "address",
          "name": "_tokenFreezerAddress",
          "type": "address"
        },
        {
          "internalType": "uint32",
          "name": "_assetGUID",
          "type": "uint32"
        },
        {
          "internalType": "enum SyscoinERC20Manager.BridgeTransferStatus",
          "name": "_status",
          "type": "uint8"
        }
      ],
      "payable": false,
      "stateMutability": "view",
      "type": "function"
    },
    {
      "constant": false,
      "inputs": [
        {
          "internalType": "enum SyscoinERC20Manager.Network",
          "name": "_network",
          "type": "uint8"
        },
        {
          "internalType": "address",
          "name": "_trustedRelayerContract",
          "type": "address"
        }
      ],
      "name": "init",
      "outputs": [],
      "payable": false,
      "stateMutability": "nonpayable",
      "type": "function"
    },
    {
      "constant": false,
      "inputs": [
        {
          "internalType": "uint256",
          "name": "_txHash",
          "type": "uint256"
        },
        {
          "internalType": "uint32",
          "name": "_assetGUID",
          "type": "uint32"
        },
        {
          "internalType": "uint32",
          "name": "_height",
          "type": "uint32"
        },
        {
          "internalType": "address",
          "name": "_erc20ContractAddress",
          "type": "address"
        }
      ],
      "name": "processAsset",
      "outputs": [],
      "payable": false,
      "stateMutability": "nonpayable",
      "type": "function"
    },
    {
      "constant": false,
      "inputs": [
        {
          "internalType": "uint32",
          "name": "bridgeTransferId",
          "type": "uint32"
        },
        {
          "internalType": "address payable",
          "name": "challengerAddress",
          "type": "address"
        }
      ],
      "name": "processCancelTransferFail",
      "outputs": [],
      "payable": false,
      "stateMutability": "nonpayable",
      "type": "function"
    },
    {
      "constant": false,
      "inputs": [
        {
          "internalType": "uint256",
          "name": "txHash",
          "type": "uint256"
        },
        {
          "internalType": "uint256",
          "name": "value",
          "type": "uint256"
        },
        {
          "internalType": "address",
          "name": "destinationAddress",
          "type": "address"
        },
        {
          "internalType": "address",
          "name": "superblockSubmitterAddress",
          "type": "address"
        },
        {
          "internalType": "address",
          "name": "erc20ContractAddress",
          "type": "address"
        },
        {
          "internalType": "uint32",
          "name": "assetGUID",
          "type": "uint32"
        },
        {
          "internalType": "uint8",
          "name": "precision",
          "type": "uint8"
        }
      ],
      "name": "processTransaction",
      "outputs": [],
      "payable": false,
      "stateMutability": "nonpayable",
      "type": "function"
    },
    {
      "constant": true,
      "inputs": [],
      "name": "trustedRelayerContract",
      "outputs": [
        {
          "internalType": "address",
          "name": "",
          "type": "address"
        }
      ],
      "payable": false,
      "stateMutability": "view",
      "type": "function"
    },
    {
      "constant": true,
      "inputs": [
        {
          "internalType": "uint256",
          "name": "txHash",
          "type": "uint256"
        }
      ],
      "name": "wasSyscoinTxProcessed",
      "outputs": [
        {
          "internalType": "bool",
          "name": "",
          "type": "bool"
        }
      ],
      "payable": false,
      "stateMutability": "view",
      "type": "function"
    },
    {
      "constant": false,
      "inputs": [
        {
          "internalType": "uint256",
          "name": "value",
          "type": "uint256"
        },
        {
          "internalType": "uint32",
          "name": "assetGUID",
          "type": "uint32"
        },
        {
          "internalType": "address",
          "name": "erc20ContractAddress",
          "type": "address"
        },
        {
          "internalType": "uint8",
          "name": "precision",
          "type": "uint8"
        },
        {
          "internalType": "bytes",
          "name": "",
          "type": "bytes"
        }
      ],
      "name": "freezeBurnERC20",
      "outputs": [
        {
          "internalType": "bool",
          "name": "",
          "type": "bool"
        }
      ],
      "payable": false,
      "stateMutability": "nonpayable",
      "type": "function"
    }
  ],
  "bytecode": "0x608060405234801561001057600080fd5b506119d9806100206000396000f3fe6080604052600436106100a75760003560e01c80638b502b7a116100645780638b502b7a14610328578063a71d75ca14610380578063af56f158146103aa578063cf496b101461040f578063f7daeb8514610440578063fe2e97181461047c576100a7565b8063085e7092146100ac57806317c047e1146101535780631b728920146101a55780632f3489c7146101c85780635f959b69146101f85780636cde8d6f146102e9575b600080fd5b3480156100b857600080fd5b506100dc600480360360208110156100cf57600080fd5b503563ffffffff166104be565b60405180878152602001868152602001856001600160a01b03166001600160a01b03168152602001846001600160a01b03166001600160a01b031681526020018363ffffffff1663ffffffff16815260200182600481111561013a57fe5b60ff168152602001965050505050505060405180910390f35b34801561015f57600080fd5b506101a36004803603608081101561017657600080fd5b50803590602081013563ffffffff90811691604081013590911690606001356001600160a01b0316610512565b005b6101a3600480360360208110156101bb57600080fd5b503563ffffffff166106b8565b3480156101d457600080fd5b506101a3600480360360208110156101eb57600080fd5b503563ffffffff1661088c565b34801561020457600080fd5b506102d5600480360360a081101561021b57600080fd5b81359163ffffffff602082013516916001600160a01b036040830135169160ff6060820135169181019060a08101608082013564010000000081111561026057600080fd5b82018360208201111561027257600080fd5b8035906020019184600183028401116401000000008311171561029457600080fd5b91908080601f016020809104026020016040519081016040528093929190818152602001838380828437600092019190915250929550610b09945050505050565b604080519115158252519081900360200190f35b3480156102f557600080fd5b506101a36004803603604081101561030c57600080fd5b50803563ffffffff1690602001356001600160a01b0316610d87565b34801561033457600080fd5b506103586004803603602081101561034b57600080fd5b503563ffffffff16610f12565b604080516001600160a01b03909316835263ffffffff90911660208301528051918290030190f35b34801561038c57600080fd5b506102d5600480360360208110156103a357600080fd5b5035610f3c565b3480156103b657600080fd5b506101a3600480360360e08110156103cd57600080fd5b5080359060208101359060408101356001600160a01b039081169160608101358216916080820135169060a081013563ffffffff169060c0013560ff16610f4f565b34801561041b57600080fd5b506104246112b4565b604080516001600160a01b039092168252519081900360200190f35b34801561044c57600080fd5b506101a36004803603604081101561046357600080fd5b50803560ff1690602001356001600160a01b03166112c3565b34801561048857600080fd5b506104ac6004803603602081101561049f57600080fd5b503563ffffffff166113ad565b60408051918252519081900360200190f35b63ffffffff9081166000908152603760205260409020805460018201546002830154600390930154919490936001600160a01b0393841693831692600160a01b810490911691600160c01b90910460ff1690565b6033546001600160a01b0316331461055b5760405162461bcd60e51b81526004018080602001828103825260218152602001806118916021913960400191505060405180910390fd5b63ffffffff8381166000908152603a6020526040902054818416600160a01b909104909116106105bc5760405162461bcd60e51b81526004018080602001828103825260318152602001806119286031913960400191505060405180910390fd5b6105c5846113bf565b61060d576040805162461bcd60e51b8152602060048201526014602482015273151608185b1c9958591e481c1c9bd8d95cdcd95960621b604482015290519081900360640190fd5b6040805180820182526001600160a01b0383811680835263ffffffff86811660208086019182528983166000818152603a83528890209651875493516001600160a01b031990941696169590951763ffffffff60a01b1916600160a01b92909316919091029190911790935583519182529181019190915281517f5276cc41288d98dae7d6e7ca6412b8335adfb3bd319f2e1dfc3933901d173033929181900390910190a150505050565b63ffffffff8116600090815260376020526040902060016003820154600160c01b900460ff1660048111156106e957fe5b146107255760405162461bcd60e51b81526004018080602001828103825260528152602001806116f26052913960600191505060405180910390fd5b60038101546001600160a01b031633146107705760405162461bcd60e51b815260040180806020018281038252605281526020018061183f6052913960600191505060405180910390fd5b600060395460ff16600281111561078357fe5b1461079057618ca0610795565b620dd7c05b81544203116107d55760405162461bcd60e51b81526004018080602001828103825260548152602001806117eb6054913960600191505060405180910390fd5b6729a2241af62c000034101561081c5760405162461bcd60e51b81526004018080602001828103825260468152602001806117a56046913960600191505060405180910390fd5b63ffffffff821660008181526038602090815260409182902034905542845560038401805460ff60c01b1916600160c11b17905581513381529081019290925280517f1bd938c0559acc36703807b71652dec64b2eed0d54f1716803e65cedc4f55a129281900390910190a15050565b63ffffffff8116600090815260376020526040902060026003820154600160c01b900460ff1660048111156108bd57fe5b146108f95760405162461bcd60e51b815260040180806020018281038252604c815260200180611959604c913960600191505060405180910390fd5b610e10816000015442031161093f5760405162461bcd60e51b81526004018080602001828103825260488152602001806118e06048913960600191505060405180910390fd5b60038101805460ff60c01b1916600160c21b17908190556002820154600183015463ffffffff600160a01b90930483166000908152603460205260409020546001600160a01b03909216926109969291906113f716565b600383018054600160a01b900463ffffffff1660009081526034602090815260408083209490945591546001860154845163a9059cbb60e01b81526001600160a01b039283166004820152602481019190915293519085169363a9059cbb936044808301949193928390030190829087803b158015610a1457600080fd5b505af1158015610a28573d6000803e3d6000fd5b505050506040513d6020811015610a3e57600080fd5b5050600382015463ffffffff841660009081526038602052604080822080549083905590516001600160a01b039093169290918391839181818185875af1925050503d8060008114610aac576040519150601f19603f3d011682016040523d82523d6000602084013e610ab1565b606091505b5050506003840154604080516001600160a01b03909216825263ffffffff8716602083015280517f558dcc0f85e822d51fb0c98b95ab299d76c136c9d1a34b9cb2e3ede1689cdcfe9281900390910190a15050505050565b600083866000826001600160a01b031663313ce5676040518163ffffffff1660e01b815260040160206040518083038186803b158015610b4857600080fd5b505afa158015610b5c573d6000803e3d6000fd5b505050506040513d6020811015610b7257600080fd5b505160ff169050610b8d600a82810a9063ffffffff61144016565b821015610bcb5760405162461bcd60e51b815260040180806020018281038252602c8152602001806116c6602c913960400191505060405180910390fd5b63ffffffff808916600090815260346020526040902054610bee918b9061148216565b63ffffffff891660009081526034602090815260409182902092909255805163313ce56760e01b8152905189926001600160a01b0384169263313ce5679260048083019392829003018186803b158015610c4757600080fd5b505afa158015610c5b573d6000803e3d6000fd5b505050506040513d6020811015610c7157600080fd5b505160ff888116911614610cb65760405162461bcd60e51b81526004018080602001828103825260318152602001806116956031913960400191505060405180910390fd5b604080516323b872dd60e01b8152336004820152306024820152604481018c905290516001600160a01b038316916323b872dd9160648083019260209291908290030181600087803b158015610d0b57600080fd5b505af1158015610d1f573d6000803e3d6000fd5b505050506040513d6020811015610d3557600080fd5b505060408051338152602081018c905260008183015290517faabab1db49e504b5156edf3f99042aeecb9607a08f392589571cd49743aaba8d9181900360600190a15060019998505050505050505050565b6033546001600160a01b03163314610dd05760405162461bcd60e51b81526004018080602001828103825260218152602001806118916021913960400191505060405180910390fd5b63ffffffff8216600090815260376020526040902060026003820154600160c01b900460ff166004811115610e0157fe5b14610e3d5760405162461bcd60e51b81526004018080602001828103825260618152602001806117446061913960800191505060405180910390fd5b60038101805460ff60c01b1916600360c01b17905563ffffffff8316600090815260386020526040808220805490839055905190916001600160a01b03851691839181818185875af1925050503d8060008114610eb6576040519150601f19603f3d011682016040523d82523d6000602084013e610ebb565b606091505b5050506003820154604080516001600160a01b03909216825263ffffffff8616602083015280517f960e217c57581c52cdc4e321eb617416d051a348a2ecf62bb8023a3558e80e859281900390910190a150505050565b603a602052600090815260409020546001600160a01b03811690600160a01b900463ffffffff1682565b6000610f47826114dc565b90505b919050565b6033546001600160a01b03163314610f985760405162461bcd60e51b81526004018080602001828103825260218152602001806118916021913960400191505060405180910390fd5b60008390506000816001600160a01b031663313ce5676040518163ffffffff1660e01b815260040160206040518083038186803b158015610fd857600080fd5b505afa158015610fec573d6000803e3d6000fd5b505050506040513d602081101561100257600080fd5b5051905060ff80841690821611156110265782810360ff16600a0a88029750611049565b8260ff168160ff1610156110495780830360ff16600a0a888161104557fe5b0497505b61105381896114f1565b61105c896113bf565b6110a4576040805162461bcd60e51b8152602060048201526014602482015273151608185b1c9958591e481c1c9bd8d95cdcd95960621b604482015290519081900360640190fd5b63ffffffff8085166000908152603460205260409020546110c7918a906113f716565b63ffffffff8086166000908152603460205260408120929092556110f1908a906127109061144016565b905060006111058a8363ffffffff6113f716565b9050836001600160a01b031663a9059cbb89846040518363ffffffff1660e01b815260040180836001600160a01b03166001600160a01b0316815260200182815260200192505050602060405180830381600087803b15801561116757600080fd5b505af115801561117b573d6000803e3d6000fd5b505050506040513d602081101561119157600080fd5b5050604080516001600160a01b038a1681526020810184905281517f378dbe173f6ed6e11630b29573f719ec4cefc9b49f430deed915911c5f78a080929181900390910190a1836001600160a01b031663a9059cbb8a836040518363ffffffff1660e01b815260040180836001600160a01b03166001600160a01b0316815260200182815260200192505050602060405180830381600087803b15801561123757600080fd5b505af115801561124b573d6000803e3d6000fd5b505050506040513d602081101561126157600080fd5b5050604080516001600160a01b038b1681526020810183905281517fb925ba840e2f36bcb317f8179bd8b5ed01aba4a22abf5f169162c0894dea87ab929181900390910190a15050505050505050505050565b6033546001600160a01b031681565b600054610100900460ff16806112dc57506112dc611592565b806112ea575060005460ff16155b6113255760405162461bcd60e51b815260040180806020018281038252602e8152602001806118b2602e913960400191505060405180910390fd5b600054610100900460ff16158015611350576000805460ff1961ff0019909116610100171660011790555b6039805484919060ff1916600183600281111561136957fe5b0217905550603380546001600160a01b0319166001600160a01b0384161790556036805463ffffffff1916905580156113a8576000805461ff00191690555b505050565b60346020526000908152604090205481565b60006113ca826114dc565b156113d757506000610f4a565b506000908152603560205260409020805460ff1916600190811790915590565b600061143983836040518060400160405280601e81526020017f536166654d6174683a207375627472616374696f6e206f766572666c6f770000815250611598565b9392505050565b600061143983836040518060400160405280601a81526020017f536166654d6174683a206469766973696f6e206279207a65726f00000000000081525061162f565b600082820183811015611439576040805162461bcd60e51b815260206004820152601b60248201527f536166654d6174683a206164646974696f6e206f766572666c6f770000000000604482015290519081900360640190fd5b60009081526035602052604090205460ff1690565b60ff821681611540576040805162461bcd60e51b815260206004820152601660248201527556616c7565206d75737420626520706f73697469766560501b604482015290519081900360640190fd5b611554600a82810a9063ffffffff61144016565b8210156113a85760405162461bcd60e51b815260040180806020018281038252602c8152602001806116c6602c913960400191505060405180910390fd5b303b1590565b600081848411156116275760405162461bcd60e51b81526004018080602001828103825283818151815260200191508051906020019080838360005b838110156115ec5781810151838201526020016115d4565b50505050905090810190601f1680156116195780820380516001836020036101000a031916815260200191505b509250505060405180910390fd5b505050900390565b6000818361167e5760405162461bcd60e51b81526020600482018181528351602484015283519092839260449091019190850190808383600083156115ec5781810151838201526020016115d4565b50600083858161168a57fe5b049594505050505056fe446563696d616c732077657265206e6f742070726f766964656420776974682074686520636f72726563742076616c756556616c7565206d75737420626520626967676572206f7220657175616c204d494e5f4c4f434b5f56414c554523537973636f696e45524332304d616e616765722063616e63656c5472616e736665725265717565737428293a20537461747573206f6620627269646765207472616e73666572206d757374206265204f6b23537973636f696e45524332304d616e616765722063616e63656c5472616e736665725375636365737328293a20537461747573206d7573742062652043616e63656c52657175657374656420746f204661696c20746865207472616e7366657223537973636f696e45524332304d616e616765722063616e63656c5472616e736665725265717565737428293a2043616e63656c206465706f73697420696e636f727265637423537973636f696e45524332304d616e616765722063616e63656c5472616e736665725265717565737428293a205472616e73666572206d757374206265206174206c6561737420312e35207765656b206f6c6423537973636f696e45524332304d616e616765722063616e63656c5472616e736665725265717565737428293a204f6e6c79206d73672e73656e64657220697320616c6c6f77656420746f2063616e63656c43616c6c206d7573742062652066726f6d20747275737465642072656c61796572436f6e747261637420696e7374616e63652068617320616c7265616479206265656e20696e697469616c697a656423537973636f696e45524332304d616e616765722063616e63656c5472616e736665725375636365737328293a203120686f75722074696d656f7574206973207265717569726564486569676874206d75737420696e637265617365207768656e207570646174696e6720617373657420726567697374727923537973636f696e45524332304d616e616765722063616e63656c5472616e736665725375636365737328293a20537461747573206d7573742062652043616e63656c526571756573746564a265627a7a723158201188bdd2b7b39752f2b147a4cc795a19c501d963cbf42bd35f830bc3ad62698b64736f6c634300050d0032",
  "source": "pragma solidity ^0.5.13;\n\nimport \"./SyscoinERC20Manager.sol\";\n\n// DONOT USE IN PRODUCTION\ncontract SyscoinERC20ManagerForTests is SyscoinERC20Manager {\n    // keyhash or scripthash for syscoinWitnessProgram\n    function freezeBurnERC20(\n        uint value,\n        uint32 assetGUID,\n        address erc20ContractAddress,\n        uint8 precision,\n        bytes memory\n    )\n        public\n        minimumValue(erc20ContractAddress, value)\n        returns (bool)\n    {\n        // commented out on purpose\n        // require(syscoinAddress.length > 0, \"syscoinAddress cannot be zero\");\n\n        // commented out on purpose\n        // require(assetGUID > 0, \"Asset GUID must not be 0\");\n        \n        assetBalances[assetGUID] = assetBalances[assetGUID].add(value);\n\n        SyscoinERC20I erc20 = SyscoinERC20I(erc20ContractAddress);\n        require(precision == erc20.decimals(), \"Decimals were not provided with the correct value\");\n        erc20.transferFrom(msg.sender, address(this), value);\n        emit TokenFreeze(msg.sender, value, 0);\n\n        return true;\n    }\n}\n",
  "sourcePath": "/Users/jsidhu/Documents/GitHub/sysethereum-contracts1/contracts/token/SyscoinERC20ManagerForTests.sol",
  "compiler": {
    "name": "solc",
    "version": "0.5.13+commit.5b0b510c.Emscripten.clang"
  },
  "schemaVersion": "3.0.20",
  "updatedAt": "2020-03-05T20:15:12.983Z",
  "devdoc": {
    "methods": {}
  },
  "userdoc": {
    "methods": {}
  }
}