{
  "contractName": "SyscoinDepositsManager",
  "abi": [
    {
      "anonymous": false,
      "inputs": [
        {
          "indexed": false,
          "internalType": "address",
          "name": "who",
          "type": "address"
        },
        {
          "indexed": false,
          "internalType": "uint256",
          "name": "amount",
          "type": "uint256"
        }
      ],
      "name": "DepositMade",
      "type": "event"
    },
    {
      "anonymous": false,
      "inputs": [
        {
          "indexed": false,
          "internalType": "address",
          "name": "who",
          "type": "address"
        },
        {
          "indexed": false,
          "internalType": "uint256",
          "name": "amount",
          "type": "uint256"
        }
      ],
      "name": "DepositWithdrawn",
      "type": "event"
    },
    {
      "payable": true,
      "stateMutability": "payable",
      "type": "fallback"
    },
    {
      "constant": true,
      "inputs": [
        {
          "internalType": "address",
          "name": "",
          "type": "address"
        }
      ],
      "name": "deposits",
      "outputs": [
        {
          "internalType": "uint256",
          "name": "",
          "type": "uint256"
        }
      ],
      "payable": false,
      "stateMutability": "view",
      "type": "function"
    },
    {
      "constant": true,
      "inputs": [
        {
          "internalType": "address",
          "name": "who",
          "type": "address"
        }
      ],
      "name": "getDeposit",
      "outputs": [
        {
          "internalType": "uint256",
          "name": "",
          "type": "uint256"
        }
      ],
      "payable": false,
      "stateMutability": "view",
      "type": "function"
    },
    {
      "constant": false,
      "inputs": [],
      "name": "makeDeposit",
      "outputs": [
        {
          "internalType": "uint256",
          "name": "",
          "type": "uint256"
        }
      ],
      "payable": true,
      "stateMutability": "payable",
      "type": "function"
    },
    {
      "constant": false,
      "inputs": [
        {
          "internalType": "uint256",
          "name": "amount",
          "type": "uint256"
        }
      ],
      "name": "withdrawDeposit",
      "outputs": [
        {
          "internalType": "uint256",
          "name": "",
          "type": "uint256"
        }
      ],
      "payable": false,
      "stateMutability": "nonpayable",
      "type": "function"
    }
  ],
  "bytecode": "0x608060405234801561001057600080fd5b506103fe806100206000396000f3fe60806040526004361061003f5760003560e01c806333289a461461004a57806340732c8914610086578063e1254fba1461008e578063fc7e286d146100c1575b6100476100f4565b50005b34801561005657600080fd5b506100746004803603602081101561006d57600080fd5b5035610114565b60408051918252519081900360200190f35b6100746100f4565b34801561009a57600080fd5b50610074600480360360208110156100b157600080fd5b50356001600160a01b03166101df565b3480156100cd57600080fd5b50610074600480360360208110156100e457600080fd5b50356001600160a01b03166101fa565b6000610100333461020c565b503360009081526020819052604090205490565b3360009081526020819052604081205482111561013057600080fd5b33600090815260208190526040902054610150908363ffffffff61028f16565b33600081815260208190526040808220939093559151909184156108fc02918591818181858888f1935050505015801561018e573d6000803e3d6000fd5b50604080513381526020810184905281517f4482101800a5c2e900f4156e57e05e19ffd7b366cde579553d723fd3abb2180e929181900390910190a150503360009081526020819052604090205490565b6001600160a01b031660009081526020819052604090205490565b60006020819052908152604090205481565b6001600160a01b038216600090815260208190526040902054610235908263ffffffff6102d816565b6001600160a01b0383166000818152602081815260409182902093909355805191825291810183905281517fd15c9547ea5c06670c0010ce19bc32d54682a4b3801ece7f3ab0c3f17106b4bb929181900390910190a15050565b60006102d183836040518060400160405280601e81526020017f536166654d6174683a207375627472616374696f6e206f766572666c6f770000815250610332565b9392505050565b6000828201838110156102d1576040805162461bcd60e51b815260206004820152601b60248201527f536166654d6174683a206164646974696f6e206f766572666c6f770000000000604482015290519081900360640190fd5b600081848411156103c15760405162461bcd60e51b81526004018080602001828103825283818151815260200191508051906020019080838360005b8381101561038657818101518382015260200161036e565b50505050905090810190601f1680156103b35780820380516001836020036101000a031916815260200191505b509250505060405180910390fd5b50505090039056fea265627a7a72315820c154563b47a4ae6b031c8f109a0f8698549cef9580d2c59b5865bc7852615e6264736f6c634300050d0032",
  "source": "pragma solidity ^0.5.13;\n\nimport 'openzeppelin-solidity/contracts/math/SafeMath.sol';\n\ncontract SyscoinDepositsManager {\n\n    using SafeMath for uint;\n\n    mapping(address => uint) public deposits;\n\n    event DepositMade(address who, uint amount);\n    event DepositWithdrawn(address who, uint amount);\n\n    // @dev – fallback to calling makeDeposit when ether is sent directly to contract.\n    function() external payable {\n        makeDeposit();\n    }\n\n    // @dev – returns an account's deposit\n    // @param who – the account's address.\n    // @return – the account's deposit.\n    function getDeposit(address who) external view returns (uint) {\n        return deposits[who];\n    }\n\n    // @dev – allows a user to deposit eth.\n    // @return – sender's updated deposit amount.\n    function makeDeposit() public payable returns (uint) {\n        increaseDeposit(msg.sender, msg.value);\n        return deposits[msg.sender];\n    }\n\n    // @dev – increases an account's deposit.\n    // @return – the given user's updated deposit amount.\n    function increaseDeposit(address who, uint amount) private {\n        deposits[who] = deposits[who].add(amount);\n        emit DepositMade(who, amount);\n    }\n\n    // @dev – allows a user to withdraw eth from their deposit.\n    // @param amount – how much eth to withdraw\n    // @return – sender's updated deposit amount.\n    function withdrawDeposit(uint amount) external returns (uint) {\n        require(deposits[msg.sender] >= amount);\n\n        deposits[msg.sender] = deposits[msg.sender].sub(amount);\n        msg.sender.transfer(amount);\n\n        emit DepositWithdrawn(msg.sender, amount);\n        return deposits[msg.sender];\n    }\n}\n",
  "sourcePath": "/Users/jsidhu/Documents/GitHub/sysethereum-contracts1/contracts/SyscoinDepositsManager.sol",
  "compiler": {
    "name": "solc",
    "version": "0.5.13+commit.5b0b510c.Emscripten.clang"
  },
  "schemaVersion": "3.0.20",
  "updatedAt": "2020-02-22T04:23:02.976Z",
  "devdoc": {
    "methods": {}
  },
  "userdoc": {
    "methods": {}
  }
}