{
  "contractName": "SyscoinERC20Manager",
  "abi": [
    {
      "inputs": [
        {
          "internalType": "address",
          "name": "_trustedRelayerContract",
          "type": "address"
        },
        {
          "internalType": "uint32",
          "name": "_sysxGuid",
          "type": "uint32"
        },
        {
          "internalType": "address",
          "name": "_erc20ContractAddress",
          "type": "address"
        }
      ],
      "stateMutability": "nonpayable",
      "type": "constructor"
    },
    {
      "anonymous": false,
      "inputs": [
        {
          "indexed": false,
          "internalType": "uint32",
          "name": "assetGuid",
          "type": "uint32"
        },
        {
          "indexed": false,
          "internalType": "address",
          "name": "freezer",
          "type": "address"
        },
        {
          "indexed": false,
          "internalType": "uint256",
          "name": "value",
          "type": "uint256"
        },
        {
          "indexed": false,
          "internalType": "uint256",
          "name": "precisions",
          "type": "uint256"
        }
      ],
      "name": "TokenFreeze",
      "type": "event"
    },
    {
      "anonymous": false,
      "inputs": [
        {
          "indexed": false,
          "internalType": "uint32",
          "name": "assetGuid",
          "type": "uint32"
        },
        {
          "indexed": false,
          "internalType": "address",
          "name": "erc20ContractAddress",
          "type": "address"
        }
      ],
      "name": "TokenRegistry",
      "type": "event"
    },
    {
      "anonymous": false,
      "inputs": [
        {
          "indexed": false,
          "internalType": "uint32",
          "name": "assetGuid",
          "type": "uint32"
        },
        {
          "indexed": false,
          "internalType": "address",
          "name": "receipient",
          "type": "address"
        },
        {
          "indexed": false,
          "internalType": "uint256",
          "name": "value",
          "type": "uint256"
        }
      ],
      "name": "TokenUnfreeze",
      "type": "event"
    },
    {
      "inputs": [
        {
          "internalType": "uint32",
          "name": "",
          "type": "uint32"
        }
      ],
      "name": "assetBalances",
      "outputs": [
        {
          "internalType": "uint256",
          "name": "",
          "type": "uint256"
        }
      ],
      "stateMutability": "view",
      "type": "function",
      "constant": true
    },
    {
      "inputs": [
        {
          "internalType": "uint32",
          "name": "",
          "type": "uint32"
        }
      ],
      "name": "assetRegistry",
      "outputs": [
        {
          "internalType": "address",
          "name": "erc20ContractAddress",
          "type": "address"
        },
        {
          "internalType": "uint64",
          "name": "height",
          "type": "uint64"
        },
        {
          "internalType": "uint8",
          "name": "precision",
          "type": "uint8"
        }
      ],
      "stateMutability": "view",
      "type": "function",
      "constant": true
    },
    {
      "inputs": [],
      "name": "trustedRelayerContract",
      "outputs": [
        {
          "internalType": "address",
          "name": "",
          "type": "address"
        }
      ],
      "stateMutability": "view",
      "type": "function",
      "constant": true
    },
    {
      "inputs": [
        {
          "internalType": "uint256",
          "name": "txHash",
          "type": "uint256"
        }
      ],
      "name": "wasSyscoinTxProcessed",
      "outputs": [
        {
          "internalType": "bool",
          "name": "",
          "type": "bool"
        }
      ],
      "stateMutability": "view",
      "type": "function",
      "constant": true
    },
    {
      "inputs": [
        {
          "internalType": "uint256",
          "name": "txHash",
          "type": "uint256"
        },
        {
          "internalType": "uint256",
          "name": "value",
          "type": "uint256"
        },
        {
          "internalType": "address",
          "name": "destinationAddress",
          "type": "address"
        },
        {
          "internalType": "uint32",
          "name": "assetGuid",
          "type": "uint32"
        }
      ],
      "name": "processTransaction",
      "outputs": [],
      "stateMutability": "nonpayable",
      "type": "function"
    },
    {
      "inputs": [
        {
          "internalType": "uint256",
          "name": "_txHash",
          "type": "uint256"
        },
        {
          "internalType": "uint32",
          "name": "_assetGuid",
          "type": "uint32"
        },
        {
          "internalType": "uint64",
          "name": "_height",
          "type": "uint64"
        },
        {
          "internalType": "address",
          "name": "_erc20ContractAddress",
          "type": "address"
        },
        {
          "internalType": "uint8",
          "name": "_precision",
          "type": "uint8"
        }
      ],
      "name": "processAsset",
      "outputs": [],
      "stateMutability": "nonpayable",
      "type": "function"
    },
    {
      "inputs": [
        {
          "internalType": "uint256",
          "name": "value",
          "type": "uint256"
        },
        {
          "internalType": "uint32",
          "name": "assetGuid",
          "type": "uint32"
        },
        {
          "internalType": "string",
          "name": "syscoinAddress",
          "type": "string"
        }
      ],
      "name": "freezeBurnERC20",
      "outputs": [
        {
          "internalType": "bool",
          "name": "",
          "type": "bool"
        }
      ],
      "stateMutability": "payable",
      "type": "function",
      "payable": true
    }
  ],
  "bytecode": "0x60c06040523480156200001157600080fd5b50604051620017453803806200174583398101604081905262000034916200013b565b600080546001600160a01b038086166001600160a01b0319909216821783556001600160e01b031960e086901b811660805284821615801560f81b60a0526040805160608101825294855260016020808701918252600887840190815263ffffffff8b168952600390915291909620945185549651915160ff16600160e01b0260ff60e01b196001600160401b0393909316600160a01b02979094169416939093179490941791909116179055620001155763ffffffff8216600090815260036020526040902080546001600160a01b0319166001600160a01b0383161790555b5050506200018f565b80516001600160a01b03811681146200013657600080fd5b919050565b6000806000606084860312156200015157600080fd5b6200015c846200011e565b9250602084015163ffffffff811681146200017657600080fd5b915062000186604085016200011e565b90509250925092565b60805160e01c60a05160f81c61156e620001d7600039600081816105990152818161083e0152610a50015260008181610563015281816108080152610a1a015261156e6000f3fe6080604052600436106100705760003560e01c80638b502b7a1161004e5780638b502b7a146100df578063a71d75ca14610164578063cf496b1014610184578063fe2e9718146101bc57600080fd5b80631a667f0a1461007557806354c988ff146100975780637f6d0f18146100bf575b600080fd5b34801561008157600080fd5b50610095610090366004611206565b6101f7565b005b6100aa6100a536600461113b565b6103d0565b60405190151581526020015b60405180910390f35b3480156100cb57600080fd5b506100956100da3660046110f5565b610738565b3480156100eb57600080fd5b506101336100fa366004611277565b6003602052600090815260409020546001600160a01b03811690600160a01b810467ffffffffffffffff1690600160e01b900460ff1683565b604080516001600160a01b03909416845267ffffffffffffffff909216602084015260ff16908201526060016100b6565b34801561017057600080fd5b506100aa61017f3660046110dc565b610ae9565b34801561019057600080fd5b506000546101a4906001600160a01b031681565b6040516001600160a01b0390911681526020016100b6565b3480156101c857600080fd5b506101e96101d7366004611277565b60016020526000908152604090205481565b6040519081526020016100b6565b6000546001600160a01b0316331461022a5760405162461bcd60e51b8152600401610221906112fe565b60405180910390fd5b63ffffffff841660009081526003602052604090205467ffffffffffffffff808516600160a01b90920416106102bc5760405162461bcd60e51b815260206004820152603160248201527f486569676874206d75737420696e637265617365207768656e207570646174696044820152706e6720617373657420726567697374727960781b6064820152608401610221565b6102c585610b02565b6103085760405162461bcd60e51b8152602060048201526014602482015273151608185b1c9958591e481c1c9bd8d95cdcd95960621b6044820152606401610221565b604080516060810182526001600160a01b0384811680835267ffffffffffffffff878116602080860191825260ff88811687890190815263ffffffff8d166000818152600385528a9020985189549551925198166001600160e01b031990951694909417600160a01b91909516029390931760ff60e01b1916600160e01b9590931694909402919091179093558351928352908201527f5276cc41288d98dae7d6e7ca6412b8335adfb3bd319f2e1dfc3933901d173033910160405180910390a15050505050565b6000808251116104225760405162461bcd60e51b815260206004820152601d60248201527f737973636f696e416464726573732063616e6e6f74206265207a65726f0000006044820152606401610221565b60008363ffffffff16116104785760405162461bcd60e51b815260206004820152601860248201527f41737365742047756964206d757374206e6f74206265203000000000000000006044820152606401610221565b63ffffffff8316600090815260036020526040902080546001600160a01b03166105165760405162461bcd60e51b815260206004820152604360248201527f23537973636f696e45524332304d616e6167657220667265657a654275726e4560448201527f5243323028293a204173736574206e6f7420666f756e6420696e20726567697360648201526274727960e81b608482015260a401610221565b6000851161055f5760405162461bcd60e51b815260206004820152601660248201527556616c7565206d75737420626520706f73697469766560501b6044820152606401610221565b60007f000000000000000000000000000000000000000000000000000000000000000063ffffffff168563ffffffff161480156105ba57507f0000000000000000000000000000000000000000000000000000000000000000155b156106225750601234861461061d5760405162461bcd60e51b815260206004820152602360248201527f6d73672e76616c7565206d757374206265207468652073616d652061732076616044820152626c756560e81b6064820152608401610221565b6106ae565b81546040805163313ce56760e01b815290516001600160a01b0390921691829163313ce567916004808301926020929190829003018186803b15801561066757600080fd5b505afa15801561067b573d6000803e3d6000fd5b505050506040513d601f19601f8201168201806040525081019061069f9190611292565b91506106ac818789610b41565b505b81546000906106cc90600160e01b900460ff16640100000000611464565b6106d99060ff841661133f565b6040805163ffffffff89168152336020820152908101899052606081018290529091507f7ca654cf9212e4c3cf0164a529dd6159fc71113f867d0b09fdeb10aa657807329060800160405180910390a1600193505050505b9392505050565b6000546001600160a01b031633146107625760405162461bcd60e51b8152600401610221906112fe565b63ffffffff8116600090815260036020526040902080546001600160a01b03166108035760405162461bcd60e51b815260206004820152604660248201527f23537973636f696e45524332304d616e616765722070726f636573735472616e60448201527f73616374696f6e28293a204173736574206e6f7420666f756e6420696e20726560648201526567697374727960d01b608482015260a401610221565b6000807f000000000000000000000000000000000000000000000000000000000000000063ffffffff168463ffffffff1614801561085f57507f0000000000000000000000000000000000000000000000000000000000000000155b1561086c575060126108ee565b82546040805163313ce56760e01b815290516001600160a01b039092169350839163313ce56791600480820192602092909190829003018186803b1580156108b357600080fd5b505afa1580156108c7573d6000803e3d6000fd5b505050506040513d601f19601f820116820180604052508101906108eb9190611292565b90505b825460ff600160e01b9091048116908216111561093a57825461091b90600160e01b900460ff1682611483565b6109299060ff16600a6113bc565b6109339087611464565b9550610983565b825460ff600160e01b90910481169082161015610983578254610968908290600160e01b900460ff16611483565b6109769060ff16600a6113bc565b6109809087611357565b95505b600086116109cc5760405162461bcd60e51b815260206004820152601660248201527556616c7565206d75737420626520706f73697469766560501b6044820152606401610221565b6109d587610b02565b610a185760405162461bcd60e51b8152602060048201526014602482015273151608185b1c9958591e481c1c9bd8d95cdcd95960621b6044820152606401610221565b7f000000000000000000000000000000000000000000000000000000000000000063ffffffff168463ffffffff16148015610a7157507f0000000000000000000000000000000000000000000000000000000000000000155b15610a8557610a808686610b7c565b610a91565b610a9182858888610cc8565b6040805163ffffffff861681526001600160a01b03871660208201529081018790527f8561b3bd1c885cb9cea8df62881a35fe7335336cd5450fd96d14176100c4657d9060600160405180910390a150505050505050565b60008181526002602052604081205460ff165b92915050565b60008181526002602052604081205460ff1615610b2157506000919050565b506000908152600260205260409020805460ff1916600190811790915590565b610b4d83333084610da5565b63ffffffff821660009081526001602052604081208054839290610b7290849061133f565b9091555050505050565b814710158015610b8c5750600082115b610c105760405162461bcd60e51b815260206004820152604960248201527f56616c7565206d75737420626520706f73697469766520616e6420636f6e747260448201527f6163742068617320746f20686176652073756666696369656e742062616c616e6064820152686365206f662053595360b81b608482015260a401610221565b6000816001600160a01b03168360405160006040518083038185875af1925050503d8060008114610c5d576040519150601f19603f3d011682016040523d82523d6000602084013e610c62565b606091505b5050905080610cc35760405162461bcd60e51b815260206004820152602760248201527f436f756c64206e6f742065786563757465206d73672e73656e6465722e63616c6044820152666c2e76616c756560c81b6064820152608401610221565b505050565b63ffffffff83166000908152600160205260409020548211801590610ced5750600082115b610d785760405162461bcd60e51b815260206004820152605060248201527f56616c7565206d75737420626520706f73697469766520616e6420636f6e747260448201527f6163742068617320746f20686176652073756666696369656e742062616c616e60648201526f18d9481bd9881d1a1a5cc8185cdcd95d60821b608482015260a401610221565b63ffffffff8316600090815260016020526040902080548390039055610d9f848284610e10565b50505050565b6040516001600160a01b0380851660248301528316604482015260648101829052610d9f9085906323b872dd60e01b906084015b60408051601f198184030181529190526020810180516001600160e01b03166001600160e01b031990931692909217909152610e40565b6040516001600160a01b038316602482015260448101829052610cc390849063a9059cbb60e01b90606401610dd9565b6000610e95826040518060400160405280602081526020017f5361666545524332303a206c6f772d6c6576656c2063616c6c206661696c6564815250856001600160a01b0316610f129092919063ffffffff16565b805190915015610cc35780806020019051810190610eb391906110ba565b610cc35760405162461bcd60e51b815260206004820152602a60248201527f5361666545524332303a204552433230206f7065726174696f6e20646964206e6044820152691bdd081cdd58d8d9595960b21b6064820152608401610221565b6060610f218484600085610f29565b949350505050565b606082471015610f8a5760405162461bcd60e51b815260206004820152602660248201527f416464726573733a20696e73756666696369656e742062616c616e636520666f6044820152651c8818d85b1b60d21b6064820152608401610221565b843b610fd85760405162461bcd60e51b815260206004820152601d60248201527f416464726573733a2063616c6c20746f206e6f6e2d636f6e74726163740000006044820152606401610221565b600080866001600160a01b03168587604051610ff491906112af565b60006040518083038185875af1925050503d8060008114611031576040519150601f19603f3d011682016040523d82523d6000602084013e611036565b606091505b5091509150611046828286611051565b979650505050505050565b60608315611060575081610731565b8251156110705782518084602001fd5b8160405162461bcd60e51b815260040161022191906112cb565b80356001600160a01b03811681146110a157600080fd5b919050565b803563ffffffff811681146110a157600080fd5b6000602082840312156110cc57600080fd5b8151801515811461073157600080fd5b6000602082840312156110ee57600080fd5b5035919050565b6000806000806080858703121561110b57600080fd5b84359350602085013592506111226040860161108a565b9150611130606086016110a6565b905092959194509250565b60008060006060848603121561115057600080fd5b83359250611160602085016110a6565b9150604084013567ffffffffffffffff8082111561117d57600080fd5b818601915086601f83011261119157600080fd5b8135818111156111a3576111a36114e8565b604051601f8201601f19908116603f011681019083821181831017156111cb576111cb6114e8565b816040528281528960208487010111156111e457600080fd5b8260208601602083013760006020848301015280955050505050509250925092565b600080600080600060a0868803121561121e57600080fd5b8535945061122e602087016110a6565b9350604086013567ffffffffffffffff8116811461124b57600080fd5b92506112596060870161108a565b91506080860135611269816114fe565b809150509295509295909350565b60006020828403121561128957600080fd5b610731826110a6565b6000602082840312156112a457600080fd5b8151610731816114fe565b600082516112c18184602087016114a6565b9190910192915050565b60208152600082518060208401526112ea8160408501602087016114a6565b601f01601f19169190910160400192915050565b60208082526021908201527f43616c6c206d7573742062652066726f6d20747275737465642072656c6179656040820152603960f91b606082015260800190565b60008219821115611352576113526114d2565b500190565b60008261137457634e487b7160e01b600052601260045260246000fd5b500490565b600181815b808511156113b457816000190482111561139a5761139a6114d2565b808516156113a757918102915b93841c939080029061137e565b509250929050565b600061073183836000826113d257506001610afc565b816113df57506000610afc565b81600181146113f557600281146113ff5761141b565b6001915050610afc565b60ff841115611410576114106114d2565b50506001821b610afc565b5060208310610133831016604e8410600b841016171561143e575081810a610afc565b6114488383611379565b806000190482111561145c5761145c6114d2565b029392505050565b600081600019048311821515161561147e5761147e6114d2565b500290565b600060ff821660ff84168082101561149d5761149d6114d2565b90039392505050565b60005b838110156114c15781810151838201526020016114a9565b83811115610d9f5750506000910152565b634e487b7160e01b600052601160045260246000fd5b634e487b7160e01b600052604160045260246000fd5b60ff8116811461150d57600080fd5b5056fea26469706673582212208cef9773217280ce52014611a0337322b4a7ad9b852e204151ddb52587f3b4a364736f6c63782a302e382e372d646576656c6f702e323032312e372e372b636f6d6d69742e34363531346666612e6d6f64005b",
  "immutableReferences": {
    "3341": [
      {
        "length": 32,
        "start": 1379
      },
      {
        "length": 32,
        "start": 2056
      },
      {
        "length": 32,
        "start": 2586
      }
    ],
    "3343": [
      {
        "length": 32,
        "start": 1433
      },
      {
        "length": 32,
        "start": 2110
      },
      {
        "length": 32,
        "start": 2640
      }
    ]
  },
  "source": "// SPDX-License-Identifier: MIT\npragma solidity ^0.8.6;\n\nimport \"@openzeppelin/contracts/token/ERC20/extensions/IERC20Metadata.sol\";\nimport \"@openzeppelin/contracts/token/ERC20/utils/SafeERC20.sol\";\n\nimport \"../interfaces/SyscoinTransactionProcessorI.sol\";\n\ncontract SyscoinERC20Manager is SyscoinTransactionProcessorI {\n\n    using SafeERC20 for IERC20Metadata;\n\n    // Contract to trust for tx included in a syscoin block verification.\n    // Only syscoin txs relayed from trustedRelayerContract will be accepted.\n    address public trustedRelayerContract;\n    mapping(uint32 => uint256) public assetBalances;\n    uint32 immutable SYSAssetGuid;\n    // network that the stored blocks belong to\n    bool private immutable testNetwork;\n    // Syscoin transactions that were already processed by processTransaction()\n    mapping(uint => bool) private syscoinTxHashesAlreadyProcessed;\n\n    event TokenUnfreeze(uint32 assetGuid, address receipient, uint value);\n    event TokenFreeze(uint32 assetGuid, address freezer, uint value, uint precisions);\n    struct AssetRegistryItem {\n        address erc20ContractAddress;\n        uint64 height;\n        uint8 precision;   \n    }\n    mapping(uint32 => AssetRegistryItem) public assetRegistry;\n    event TokenRegistry(uint32 assetGuid, address erc20ContractAddress);\n    function contains(uint value) private view returns (bool) {\n        return syscoinTxHashesAlreadyProcessed[value];\n    }\n\n    function insert(uint value) private returns (bool) {\n        if (contains(value))\n            return false; // already there\n        syscoinTxHashesAlreadyProcessed[value] = true;\n        return true;\n    }\n    \n    constructor (address _trustedRelayerContract, uint32 _sysxGuid, address _erc20ContractAddress) {\n        trustedRelayerContract = _trustedRelayerContract;\n        SYSAssetGuid = _sysxGuid;\n        testNetwork = _erc20ContractAddress != address(0);\n        assetRegistry[_sysxGuid] = AssetRegistryItem({erc20ContractAddress:_trustedRelayerContract, height:1, precision: 8});\n        // override erc20ContractAddress field if running tests, because erc20 is passed in some tests to the constructor for SYSX\n        // but in deployment _erc20ContractAddress is empty so in that case we need it to be set to a non-empty field we just use _trustedRelayerContract (could be anything thats not empty)\n        if (_erc20ContractAddress != address(0)) {\n            assetRegistry[_sysxGuid].erc20ContractAddress = _erc20ContractAddress;\n        }\n    }\n\n    modifier onlyTrustedRelayer() {\n        require(msg.sender == trustedRelayerContract, \"Call must be from trusted relayer\");\n        _;\n    }\n\n    function wasSyscoinTxProcessed(uint txHash) public view returns (bool) {\n        return contains(txHash);\n    }\n\n    function processTransaction(\n        uint txHash,\n        uint value,\n        address destinationAddress,\n        uint32 assetGuid\n    ) public override onlyTrustedRelayer {\n        // lookup asset from registry\n        AssetRegistryItem storage assetRegistryItem = assetRegistry[assetGuid];\n        // ensure state is Ok\n        require(assetRegistryItem.erc20ContractAddress != address(0),\n            \"#SyscoinERC20Manager processTransaction(): Asset not found in registry\");\n        IERC20Metadata erc20;\n        uint8 nLocalPrecision;\n        if (assetGuid == SYSAssetGuid && !testNetwork) {\n            nLocalPrecision = 18;\n        } else {\n            erc20 = IERC20Metadata(assetRegistryItem.erc20ContractAddress);\n            nLocalPrecision = erc20.decimals();\n        } \n        // see issue #372 on syscoin\n        if(nLocalPrecision > assetRegistryItem.precision){\n            value *= uint(10)**(uint(nLocalPrecision - assetRegistryItem.precision));\n        } else if(nLocalPrecision < assetRegistryItem.precision){\n            value /= uint(10)**(uint(assetRegistryItem.precision - nLocalPrecision));\n        }\n        require(value > 0, \"Value must be positive\");\n        // Add tx to the syscoinTxHashesAlreadyProcessed and Check tx was not already processed\n        require(insert(txHash), \"TX already processed\");\n        if (assetGuid == SYSAssetGuid && !testNetwork) {\n            withdrawSYS(value, payable(destinationAddress));\n        } else {\n            withdrawAsset(erc20, assetGuid, value, destinationAddress);\n        }\n        emit TokenUnfreeze(assetGuid, destinationAddress, value);\n    }\n\n    function processAsset(\n        uint _txHash,\n        uint32 _assetGuid,\n        uint64 _height,\n        address _erc20ContractAddress,\n        uint8 _precision\n    ) public override onlyTrustedRelayer {\n        // ensure height increases over asset updates\n        require(assetRegistry[_assetGuid].height < _height, \"Height must increase when updating asset registry\");\n        // Add tx to the syscoinTxHashesAlreadyProcessed and Check tx was not already processed\n        require(insert(_txHash), \"TX already processed\");\n        assetRegistry[_assetGuid] = AssetRegistryItem({erc20ContractAddress:_erc20ContractAddress, height:_height, precision: _precision});\n        emit TokenRegistry(_assetGuid, _erc20ContractAddress);\n    }\n\n    function freezeBurnERC20(\n        uint value,\n        uint32 assetGuid,\n        string memory syscoinAddress\n    ) public payable override returns (bool)\n    {\n        require(bytes(syscoinAddress).length > 0, \"syscoinAddress cannot be zero\");\n        require(assetGuid > 0, \"Asset Guid must not be 0\");\n        // lookup asset from registry\n        AssetRegistryItem storage assetRegistryItem = assetRegistry[assetGuid];\n        // ensure state is Ok\n        require(assetRegistryItem.erc20ContractAddress != address(0),\n            \"#SyscoinERC20Manager freezeBurnERC20(): Asset not found in registry\");\n        require(value > 0, \"Value must be positive\");\n        uint8 nLocalPrecision;\n        if (assetGuid == SYSAssetGuid && !testNetwork) {\n            nLocalPrecision = 18;\n            require(value == msg.value, \"msg.value must be the same as value\");\n        } else {\n            IERC20Metadata erc20 = IERC20Metadata(assetRegistryItem.erc20ContractAddress);\n            nLocalPrecision = erc20.decimals();\n            depositAsset(erc20, assetGuid, value);\n        }\n        uint precisions = nLocalPrecision + uint(assetRegistryItem.precision)*(2**32);\n        emit TokenFreeze(assetGuid, msg.sender, value, precisions);\n        return true;\n    }\n    function withdrawAsset(IERC20Metadata erc20, uint32 assetGuid, uint value, address destinationAddress) private {\n        require(assetBalances[assetGuid] >= value && value > 0, \"Value must be positive and contract has to have sufficient balance of this asset\");\n        unchecked {\n            assetBalances[assetGuid] -= value;\n        }\n        SafeERC20.safeTransfer(erc20, destinationAddress, value);\n    }\n    function withdrawSYS(uint value, address payable destinationAddress) private {\n        require(address(this).balance >= value && value > 0, \"Value must be positive and contract has to have sufficient balance of SYS\");\n        // stop using .transfer() because of gas issue after ethereum upgrade\n        (bool success, ) = destinationAddress.call{value: value}(\"\");\n        require(success, \"Could not execute msg.sender.call.value\");\n    }\n    function depositAsset(IERC20Metadata erc20, uint32 assetGuid, uint value) private {\n        SafeERC20.safeTransferFrom(erc20, msg.sender, address(this), value);\n        assetBalances[assetGuid] += value;\n    }\n}\n",
  "sourcePath": "/Users/jagsidhu/work/Documents/GitHub/sysethereum-contracts/contracts/token/SyscoinERC20Manager.sol",
  "compiler": {
    "name": "solc",
    "version": "0.8.7-develop.2021.7.7+commit.46514ffa.mod.Darwin.appleclang"
  },
  "schemaVersion": "3.4.3",
  "updatedAt": "2021-09-27T20:59:35.411Z",
  "networkType": "ethereum",
  "devdoc": {
    "kind": "dev",
    "methods": {},
    "version": 1
  },
  "userdoc": {
    "kind": "user",
    "methods": {},
    "version": 1
  }
}