{
  "contractName": "SyscoinClaimManager",
  "abi": [
    {
      "anonymous": false,
      "inputs": [
        {
          "indexed": false,
          "internalType": "bytes32",
          "name": "superblockHash",
          "type": "bytes32"
        },
        {
          "indexed": false,
          "internalType": "address",
          "name": "account",
          "type": "address"
        },
        {
          "indexed": false,
          "internalType": "uint256",
          "name": "amount",
          "type": "uint256"
        }
      ],
      "name": "DepositBonded",
      "type": "event"
    },
    {
      "anonymous": false,
      "inputs": [
        {
          "indexed": false,
          "internalType": "address",
          "name": "who",
          "type": "address"
        },
        {
          "indexed": false,
          "internalType": "uint256",
          "name": "amount",
          "type": "uint256"
        }
      ],
      "name": "DepositMade",
      "type": "event"
    },
    {
      "anonymous": false,
      "inputs": [
        {
          "indexed": false,
          "internalType": "bytes32",
          "name": "superblockHash",
          "type": "bytes32"
        },
        {
          "indexed": false,
          "internalType": "address",
          "name": "account",
          "type": "address"
        },
        {
          "indexed": false,
          "internalType": "uint256",
          "name": "amount",
          "type": "uint256"
        }
      ],
      "name": "DepositUnbonded",
      "type": "event"
    },
    {
      "anonymous": false,
      "inputs": [
        {
          "indexed": false,
          "internalType": "address",
          "name": "who",
          "type": "address"
        },
        {
          "indexed": false,
          "internalType": "uint256",
          "name": "amount",
          "type": "uint256"
        }
      ],
      "name": "DepositWithdrawn",
      "type": "event"
    },
    {
      "anonymous": false,
      "inputs": [
        {
          "indexed": false,
          "internalType": "bytes32",
          "name": "superblockHash",
          "type": "bytes32"
        },
        {
          "indexed": false,
          "internalType": "uint256",
          "name": "err",
          "type": "uint256"
        }
      ],
      "name": "ErrorClaim",
      "type": "event"
    },
    {
      "anonymous": false,
      "inputs": [
        {
          "indexed": false,
          "internalType": "bytes32",
          "name": "superblockHash",
          "type": "bytes32"
        },
        {
          "indexed": false,
          "internalType": "address",
          "name": "winner",
          "type": "address"
        },
        {
          "indexed": false,
          "internalType": "address",
          "name": "loser",
          "type": "address"
        }
      ],
      "name": "SuperblockBattleDecided",
      "type": "event"
    },
    {
      "anonymous": false,
      "inputs": [
        {
          "indexed": false,
          "internalType": "bytes32",
          "name": "superblockHash",
          "type": "bytes32"
        },
        {
          "indexed": false,
          "internalType": "address",
          "name": "challenger",
          "type": "address"
        }
      ],
      "name": "SuperblockClaimChallenged",
      "type": "event"
    },
    {
      "anonymous": false,
      "inputs": [
        {
          "indexed": false,
          "internalType": "bytes32",
          "name": "superblockHash",
          "type": "bytes32"
        },
        {
          "indexed": false,
          "internalType": "address",
          "name": "submitter",
          "type": "address"
        },
        {
          "indexed": false,
          "internalType": "uint256",
          "name": "processCounter",
          "type": "uint256"
        }
      ],
      "name": "SuperblockClaimCreated",
      "type": "event"
    },
    {
      "anonymous": false,
      "inputs": [
        {
          "indexed": false,
          "internalType": "bytes32",
          "name": "superblockHash",
          "type": "bytes32"
        },
        {
          "indexed": false,
          "internalType": "address",
          "name": "challenger",
          "type": "address"
        },
        {
          "indexed": false,
          "internalType": "uint256",
          "name": "processCounter",
          "type": "uint256"
        }
      ],
      "name": "SuperblockClaimFailed",
      "type": "event"
    },
    {
      "anonymous": false,
      "inputs": [
        {
          "indexed": false,
          "internalType": "bytes32",
          "name": "superblockHash",
          "type": "bytes32"
        },
        {
          "indexed": false,
          "internalType": "address",
          "name": "submitter",
          "type": "address"
        }
      ],
      "name": "SuperblockClaimPending",
      "type": "event"
    },
    {
      "anonymous": false,
      "inputs": [
        {
          "indexed": false,
          "internalType": "bytes32",
          "name": "superblockHash",
          "type": "bytes32"
        },
        {
          "indexed": false,
          "internalType": "address",
          "name": "submitter",
          "type": "address"
        },
        {
          "indexed": false,
          "internalType": "uint256",
          "name": "processCounter",
          "type": "uint256"
        }
      ],
      "name": "SuperblockClaimSuccessful",
      "type": "event"
    },
    {
      "anonymous": false,
      "inputs": [
        {
          "indexed": false,
          "internalType": "bytes32",
          "name": "superblockHash",
          "type": "bytes32"
        },
        {
          "indexed": false,
          "internalType": "address",
          "name": "submitter",
          "type": "address"
        },
        {
          "indexed": false,
          "internalType": "address",
          "name": "challenger",
          "type": "address"
        }
      ],
      "name": "VerificationGameStarted",
      "type": "event"
    },
    {
      "payable": true,
      "stateMutability": "payable",
      "type": "fallback"
    },
    {
      "constant": true,
      "inputs": [
        {
          "internalType": "bytes32",
          "name": "",
          "type": "bytes32"
        }
      ],
      "name": "claims",
      "outputs": [
        {
          "internalType": "bytes32",
          "name": "superblockHash",
          "type": "bytes32"
        },
        {
          "internalType": "address",
          "name": "submitter",
          "type": "address"
        },
        {
          "internalType": "address",
          "name": "challenger",
          "type": "address"
        },
        {
          "internalType": "uint256",
          "name": "createdAt",
          "type": "uint256"
        },
        {
          "internalType": "uint256",
          "name": "challengeTimeout",
          "type": "uint256"
        },
        {
          "internalType": "bool",
          "name": "verificationOngoing",
          "type": "bool"
        },
        {
          "internalType": "bool",
          "name": "decided",
          "type": "bool"
        },
        {
          "internalType": "bool",
          "name": "invalid",
          "type": "bool"
        },
        {
          "internalType": "bool",
          "name": "challengeDefended",
          "type": "bool"
        }
      ],
      "payable": false,
      "stateMutability": "view",
      "type": "function"
    },
    {
      "constant": true,
      "inputs": [
        {
          "internalType": "address",
          "name": "",
          "type": "address"
        }
      ],
      "name": "deposits",
      "outputs": [
        {
          "internalType": "uint256",
          "name": "",
          "type": "uint256"
        }
      ],
      "payable": false,
      "stateMutability": "view",
      "type": "function"
    },
    {
      "constant": true,
      "inputs": [
        {
          "internalType": "address",
          "name": "who",
          "type": "address"
        }
      ],
      "name": "getDeposit",
      "outputs": [
        {
          "internalType": "uint256",
          "name": "",
          "type": "uint256"
        }
      ],
      "payable": false,
      "stateMutability": "view",
      "type": "function"
    },
    {
      "constant": true,
      "inputs": [],
      "name": "inProcessCounter",
      "outputs": [
        {
          "internalType": "uint256",
          "name": "",
          "type": "uint256"
        }
      ],
      "payable": false,
      "stateMutability": "view",
      "type": "function"
    },
    {
      "constant": false,
      "inputs": [],
      "name": "makeDeposit",
      "outputs": [
        {
          "internalType": "uint256",
          "name": "",
          "type": "uint256"
        }
      ],
      "payable": true,
      "stateMutability": "payable",
      "type": "function"
    },
    {
      "constant": true,
      "inputs": [],
      "name": "minProposalDeposit",
      "outputs": [
        {
          "internalType": "uint256",
          "name": "",
          "type": "uint256"
        }
      ],
      "payable": false,
      "stateMutability": "view",
      "type": "function"
    },
    {
      "constant": true,
      "inputs": [],
      "name": "superblockConfirmations",
      "outputs": [
        {
          "internalType": "uint256",
          "name": "",
          "type": "uint256"
        }
      ],
      "payable": false,
      "stateMutability": "view",
      "type": "function"
    },
    {
      "constant": true,
      "inputs": [],
      "name": "superblockDelay",
      "outputs": [
        {
          "internalType": "uint256",
          "name": "",
          "type": "uint256"
        }
      ],
      "payable": false,
      "stateMutability": "view",
      "type": "function"
    },
    {
      "constant": true,
      "inputs": [],
      "name": "superblockTimeout",
      "outputs": [
        {
          "internalType": "uint256",
          "name": "",
          "type": "uint256"
        }
      ],
      "payable": false,
      "stateMutability": "view",
      "type": "function"
    },
    {
      "constant": true,
      "inputs": [],
      "name": "trustedSuperblocks",
      "outputs": [
        {
          "internalType": "contract SyscoinSuperblocksI",
          "name": "",
          "type": "address"
        }
      ],
      "payable": false,
      "stateMutability": "view",
      "type": "function"
    },
    {
      "constant": true,
      "inputs": [],
      "name": "trustedSyscoinBattleManager",
      "outputs": [
        {
          "internalType": "contract SyscoinBattleManagerI",
          "name": "",
          "type": "address"
        }
      ],
      "payable": false,
      "stateMutability": "view",
      "type": "function"
    },
    {
      "constant": false,
      "inputs": [
        {
          "internalType": "uint256",
          "name": "amount",
          "type": "uint256"
        }
      ],
      "name": "withdrawDeposit",
      "outputs": [
        {
          "internalType": "uint256",
          "name": "",
          "type": "uint256"
        }
      ],
      "payable": false,
      "stateMutability": "nonpayable",
      "type": "function"
    },
    {
      "constant": false,
      "inputs": [
        {
          "internalType": "contract SyscoinSuperblocksI",
          "name": "_superblocks",
          "type": "address"
        },
        {
          "internalType": "contract SyscoinBattleManagerI",
          "name": "_syscoinBattleManager",
          "type": "address"
        },
        {
          "internalType": "uint256",
          "name": "_superblockDelay",
          "type": "uint256"
        },
        {
          "internalType": "uint256",
          "name": "_superblockTimeout",
          "type": "uint256"
        },
        {
          "internalType": "uint256",
          "name": "_superblockConfirmations",
          "type": "uint256"
        }
      ],
      "name": "init",
      "outputs": [],
      "payable": false,
      "stateMutability": "nonpayable",
      "type": "function"
    },
    {
      "constant": false,
      "inputs": [
        {
          "internalType": "bytes32",
          "name": "superblockHash",
          "type": "bytes32"
        },
        {
          "internalType": "address",
          "name": "account",
          "type": "address"
        },
        {
          "internalType": "uint256",
          "name": "amount",
          "type": "uint256"
        }
      ],
      "name": "bondDeposit",
      "outputs": [
        {
          "internalType": "uint256",
          "name": "",
          "type": "uint256"
        }
      ],
      "payable": false,
      "stateMutability": "nonpayable",
      "type": "function"
    },
    {
      "constant": true,
      "inputs": [
        {
          "internalType": "bytes32",
          "name": "superblockHash",
          "type": "bytes32"
        },
        {
          "internalType": "address",
          "name": "account",
          "type": "address"
        }
      ],
      "name": "getBondedDeposit",
      "outputs": [
        {
          "internalType": "uint256",
          "name": "",
          "type": "uint256"
        }
      ],
      "payable": false,
      "stateMutability": "view",
      "type": "function"
    },
    {
      "constant": false,
      "inputs": [
        {
          "internalType": "bytes32",
          "name": "superblockHash",
          "type": "bytes32"
        },
        {
          "internalType": "address",
          "name": "account",
          "type": "address"
        }
      ],
      "name": "unbondDeposit",
      "outputs": [
        {
          "internalType": "uint256",
          "name": "",
          "type": "uint256"
        },
        {
          "internalType": "uint256",
          "name": "",
          "type": "uint256"
        }
      ],
      "payable": false,
      "stateMutability": "nonpayable",
      "type": "function"
    },
    {
      "constant": false,
      "inputs": [
        {
          "internalType": "bytes32",
          "name": "_blocksMerkleRoot",
          "type": "bytes32"
        },
        {
          "internalType": "uint256",
          "name": "_timestamp",
          "type": "uint256"
        },
        {
          "internalType": "uint256",
          "name": "_mtpTimestamp",
          "type": "uint256"
        },
        {
          "internalType": "bytes32",
          "name": "_lastHash",
          "type": "bytes32"
        },
        {
          "internalType": "uint32",
          "name": "_lastBits",
          "type": "uint32"
        },
        {
          "internalType": "bytes32",
          "name": "_parentHash",
          "type": "bytes32"
        }
      ],
      "name": "proposeSuperblock",
      "outputs": [
        {
          "internalType": "uint256",
          "name": "",
          "type": "uint256"
        },
        {
          "internalType": "bytes32",
          "name": "",
          "type": "bytes32"
        }
      ],
      "payable": false,
      "stateMutability": "nonpayable",
      "type": "function"
    },
    {
      "constant": false,
      "inputs": [
        {
          "internalType": "bytes32",
          "name": "superblockHash",
          "type": "bytes32"
        }
      ],
      "name": "challengeSuperblock",
      "outputs": [
        {
          "internalType": "uint256",
          "name": "",
          "type": "uint256"
        },
        {
          "internalType": "bytes32",
          "name": "",
          "type": "bytes32"
        }
      ],
      "payable": false,
      "stateMutability": "nonpayable",
      "type": "function"
    },
    {
      "constant": false,
      "inputs": [
        {
          "internalType": "bytes32",
          "name": "superblockHash",
          "type": "bytes32"
        },
        {
          "internalType": "bytes32",
          "name": "descendantId",
          "type": "bytes32"
        }
      ],
      "name": "confirmClaim",
      "outputs": [
        {
          "internalType": "bool",
          "name": "",
          "type": "bool"
        }
      ],
      "payable": false,
      "stateMutability": "nonpayable",
      "type": "function"
    },
    {
      "constant": false,
      "inputs": [
        {
          "internalType": "bytes32",
          "name": "superblockHash",
          "type": "bytes32"
        }
      ],
      "name": "rejectClaim",
      "outputs": [
        {
          "internalType": "bool",
          "name": "",
          "type": "bool"
        }
      ],
      "payable": false,
      "stateMutability": "nonpayable",
      "type": "function"
    },
    {
      "constant": false,
      "inputs": [
        {
          "internalType": "bytes32",
          "name": "superblockHash",
          "type": "bytes32"
        }
      ],
      "name": "checkClaimFinished",
      "outputs": [
        {
          "internalType": "bool",
          "name": "",
          "type": "bool"
        }
      ],
      "payable": false,
      "stateMutability": "nonpayable",
      "type": "function"
    },
    {
      "constant": false,
      "inputs": [
        {
          "internalType": "bytes32",
          "name": "superblockHash",
          "type": "bytes32"
        },
        {
          "internalType": "address",
          "name": "winner",
          "type": "address"
        },
        {
          "internalType": "address",
          "name": "loser",
          "type": "address"
        }
      ],
      "name": "sessionDecided",
      "outputs": [],
      "payable": false,
      "stateMutability": "nonpayable",
      "type": "function"
    },
    {
      "constant": true,
      "inputs": [
        {
          "internalType": "bytes32",
          "name": "superblockHash",
          "type": "bytes32"
        }
      ],
      "name": "getInBattleAndSemiApprovable",
      "outputs": [
        {
          "internalType": "bool",
          "name": "",
          "type": "bool"
        }
      ],
      "payable": false,
      "stateMutability": "view",
      "type": "function"
    },
    {
      "constant": true,
      "inputs": [
        {
          "internalType": "bytes32",
          "name": "superblockHash",
          "type": "bytes32"
        }
      ],
      "name": "getClaimSubmitter",
      "outputs": [
        {
          "internalType": "address",
          "name": "",
          "type": "address"
        }
      ],
      "payable": false,
      "stateMutability": "view",
      "type": "function"
    },
    {
      "constant": true,
      "inputs": [
        {
          "internalType": "bytes32",
          "name": "superblockHash",
          "type": "bytes32"
        }
      ],
      "name": "getNewSuperblockEventTimestamp",
      "outputs": [
        {
          "internalType": "uint256",
          "name": "",
          "type": "uint256"
        }
      ],
      "payable": false,
      "stateMutability": "view",
      "type": "function"
    },
    {
      "constant": true,
      "inputs": [
        {
          "internalType": "bytes32",
          "name": "superblockHash",
          "type": "bytes32"
        }
      ],
      "name": "getClaimExists",
      "outputs": [
        {
          "internalType": "bool",
          "name": "",
          "type": "bool"
        }
      ],
      "payable": false,
      "stateMutability": "view",
      "type": "function"
    },
    {
      "constant": true,
      "inputs": [
        {
          "internalType": "bytes32",
          "name": "superblockHash",
          "type": "bytes32"
        }
      ],
      "name": "getClaimDecided",
      "outputs": [
        {
          "internalType": "bool",
          "name": "",
          "type": "bool"
        }
      ],
      "payable": false,
      "stateMutability": "view",
      "type": "function"
    },
    {
      "constant": true,
      "inputs": [
        {
          "internalType": "bytes32",
          "name": "superblockHash",
          "type": "bytes32"
        }
      ],
      "name": "getClaimInvalid",
      "outputs": [
        {
          "internalType": "bool",
          "name": "",
          "type": "bool"
        }
      ],
      "payable": false,
      "stateMutability": "view",
      "type": "function"
    },
    {
      "constant": true,
      "inputs": [
        {
          "internalType": "bytes32",
          "name": "superblockHash",
          "type": "bytes32"
        }
      ],
      "name": "getClaimChallenger",
      "outputs": [
        {
          "internalType": "address",
          "name": "",
          "type": "address"
        }
      ],
      "payable": false,
      "stateMutability": "view",
      "type": "function"
    }
  ],
  "bytecode": "0x608060405234801561001057600080fd5b50612af1806100206000396000f3fe6080604052600436106101c25760003560e01c806355e4286b116100f7578063c2569e5a11610095578063e1254fba11610064578063e1254fba14610603578063eff0f59214610636578063f934436e146106b9578063fc7e286d14610708576101c2565b8063c2569e5a14610546578063c3d3290f14610585578063c44205e3146105af578063dac1d764146105d9576101c2565b80635bf7d5db116100d15780635bf7d5db1461049a57806390a14aea146104c4578063a4cbce7b146104d9578063a8b4633f1461051c576101c2565b806355e4286b1461044657806357872488146104705780635ac4e02c14610485576101c2565b806329118a9b1161016457806333289a461161013e57806333289a46146103d55780633352f1a4146103ff57806340732c8914610429578063455e616614610431576101c2565b806329118a9b146103395780632bcf947e14610372578063329af83f146103c0576101c2565b806318a10ca6116101a057806318a10ca61461026557806318b011de146102b75780631fed7b85146102de57806327b425a614610324576101c2565b8063040aa57a146101cd5780630ac0d9c91461021157806313be4f9e1461023b575b6101ca61073b565b50005b3480156101d957600080fd5b506101fd600480360360408110156101f057600080fd5b508035906020013561075b565b604080519115158252519081900360200190f35b34801561021d57600080fd5b506101fd6004803603602081101561023457600080fd5b5035610d86565b34801561024757600080fd5b506101fd6004803603602081101561025e57600080fd5b5035610da5565b34801561027157600080fd5b5061029e6004803603604081101561028857600080fd5b50803590602001356001600160a01b0316611148565b6040805192835260208301919091528051918290030190f35b3480156102c357600080fd5b506102cc61123c565b60408051918252519081900360200190f35b3480156102ea57600080fd5b506103086004803603602081101561030157600080fd5b5035611242565b604080516001600160a01b039092168252519081900360200190f35b34801561033057600080fd5b506102cc611260565b34801561034557600080fd5b506102cc6004803603604081101561035c57600080fd5b50803590602001356001600160a01b0316611266565b34801561037e57600080fd5b5061029e600480360360c081101561039557600080fd5b5080359060208101359060408101359060608101359063ffffffff6080820135169060a001356112aa565b3480156103cc57600080fd5b50610308611677565b3480156103e157600080fd5b506102cc600480360360208110156103f857600080fd5b5035611686565b34801561040b57600080fd5b506101fd6004803603602081101561042257600080fd5b5035611778565b6102cc61073b565b34801561043d57600080fd5b506102cc611ca9565b34801561045257600080fd5b5061029e6004803603602081101561046957600080fd5b5035611cb5565b34801561047c57600080fd5b506102cc612101565b34801561049157600080fd5b506102cc612107565b3480156104a657600080fd5b50610308600480360360208110156104bd57600080fd5b503561210d565b3480156104d057600080fd5b5061030861212b565b3480156104e557600080fd5b5061051a600480360360608110156104fc57600080fd5b508035906001600160a01b036020820135811691604001351661213a565b005b34801561052857600080fd5b506101fd6004803603602081101561053f57600080fd5b5035612238565b34801561055257600080fd5b506102cc6004803603606081101561056957600080fd5b508035906001600160a01b036020820135169060400135612322565b34801561059157600080fd5b506102cc600480360360208110156105a857600080fd5b5035612461565b3480156105bb57600080fd5b506101fd600480360360208110156105d257600080fd5b5035612476565b3480156105e557600080fd5b506101fd600480360360208110156105fc57600080fd5b5035612493565b34801561060f57600080fd5b506102cc6004803603602081101561062657600080fd5b50356001600160a01b03166124b1565b34801561064257600080fd5b506106606004803603602081101561065957600080fd5b50356124cc565b60408051998a526001600160a01b0398891660208b0152969097168887015260608801949094526080870192909252151560a0860152151560c0850152151560e084015290151561010083015251908190036101200190f35b3480156106c557600080fd5b5061051a600480360360a08110156106dc57600080fd5b506001600160a01b0381358116916020810135909116906040810135906060810135906080013561252d565b34801561071457600080fd5b506102cc6004803603602081101561072b57600080fd5b50356001600160a01b0316612618565b6000610747333461262a565b503360009081526033602052604090205490565b6000818152603460205260408120819060019084905b86821461094c57610781816126af565b15806107975750600681015462010000900460ff165b156107d3576040805188815261c3a060208201528151600080516020612a6f833981519152929181900390910190a16000945050505050610d80565b603554604080516365702c0f60e11b81526004810185905290516003926001600160a01b03169163cae0581e916024808301926020929190829003018186803b15801561081f57600080fd5b505afa158015610833573d6000803e3d6000fd5b505050506040513d602081101561084957600080fd5b5051600581111561085657fe5b14610892576040805188815261c36460208201528151600080516020612a6f833981519152929181900390910190a16000945050505050610d80565b8280156108ab575060028101546001600160a01b031615155b156108b557600092505b60355460408051632af00c6760e11b81526004810185905290516001600160a01b03909216916355e018ce91602480820192602092909190829003018186803b15801561090157600080fd5b505afa158015610915573d6000803e3d6000fd5b505050506040513d602081101561092b57600080fd5b50516000818152603460205260409020600195909501949092509050610771565b60375484101561098d576040805188815261c3dc60208201528151600080516020612a6f833981519152929181900390910190a16000945050505050610d80565b603554604080516365702c0f60e11b81526004810185905290516003926001600160a01b03169163cae0581e916024808301926020929190829003018186803b1580156109d957600080fd5b505afa1580156109ed573d6000803e3d6000fd5b505050506040513d6020811015610a0357600080fd5b50516005811115610a1057fe5b14610a4c576040805188815261c36460208201528151600080516020612a6f833981519152929181900390910190a16000945050505050610d80565b603554604080516395b45ee760e01b8152600481018a905233602482015290516000926001600160a01b0316916395b45ee791604480830192602092919082900301818787803b158015610a9f57600080fd5b505af1158015610ab3573d6000803e3d6000fd5b505050506040513d6020811015610ac957600080fd5b505190508015610b0a5760408051898152602081018390528151600080516020612a6f833981519152929181900390910190a1600095505050505050610d80565b610b1488836126c1565b8315610d1b57606085604051908082528060200260200182016040528015610b46578160200160208202803883390190505b50889450905060005b898514610bee5784828281518110610b6357fe5b60209081029190910181019190915260355460408051632af00c6760e11b81526004810189905290516001600160a01b03909216926355e018ce92602480840193829003018186803b158015610bb857600080fd5b505afa158015610bcc573d6000803e3d6000fd5b505050506040513d6020811015610be257600080fd5b50519450600101610b4f565b8015610d1857600181039050818181518110610c0657fe5b602090810291909101810151600081815260348352604080822060355482516395b45ee760e01b8152600481018690523360248201529251949a509098506001600160a01b0316936395b45ee79360448084019492939192918390030190829087803b158015610c7557600080fd5b505af1158015610c89573d6000803e3d6000fd5b505050506040513d6020811015610c9f57600080fd5b505192508215610cae57600080fd5b610cb885856126c1565b603a805460001901908190556001850154604080518881526001600160a01b0390921660208301528181019290925290517f761ed2ea8db827133836a35e2fdc1cf23fcfe723b817ceffebb1d571439aad8e9181900360600190a1610bee565b50505b603a805460001901908190556001830154604080518b81526001600160a01b0390921660208301528181019290925290517f761ed2ea8db827133836a35e2fdc1cf23fcfe723b817ceffebb1d571439aad8e9181900360600190a16001955050505050505b92915050565b6000818152603460205260408120610d9d906126af565b90505b919050565b6000818152603460205260408120610dbc816126af565b610df4576040805184815261c3a060208201528151600080516020612a6f833981519152929181900390910190a16000915050610da0565b60355460408051632e40019160e01b81526004810186905290516000926001600160a01b031691632e400191916024808301926020929190829003018186803b158015610e4057600080fd5b505afa158015610e54573d6000803e3d6000fd5b505050506040513d6020811015610e6a57600080fd5b505160355460408051632dab940960e11b8152905163ffffffff90931693506001600160a01b0390911691635b57281291600480820192602092909190829003018186803b158015610ebb57600080fd5b505afa158015610ecf573d6000803e3d6000fd5b505050506040513d6020811015610ee557600080fd5b5051811115610f23576040805185815261c3fa60208201528151600080516020612a6f833981519152929181900390910190a1600092505050610da0565b603554604080516365702c0f60e11b81526004810187905290516000926001600160a01b03169163cae0581e916024808301926020929190829003018186803b158015610f6f57600080fd5b505afa158015610f83573d6000803e3d6000fd5b505050506040513d6020811015610f9957600080fd5b505190506003816005811115610fab57fe5b14610fe6576040805186815261c36460208201528151600080516020612a6f833981519152929181900390910190a160009350505050610da0565b6006830154610100900460ff1661102d576040805186815261c3b460208201528151600080516020612a6f833981519152929181900390910190a160009350505050610da0565b603554600184015460408051633a102bc360e11b8152600481018990526001600160a01b0392831660248201529051600093929092169163742057869160448082019260209290919082900301818787803b15801561108b57600080fd5b505af115801561109f573d6000803e3d6000fd5b505050506040513d60208110156110b557600080fd5b5051905080156110c457600080fd5b6110ce868561275d565b60068401805462ff0000191662010000179055603a805460001901908190556002850154604080518981526001600160a01b0390921660208301528181019290925290517f6ebb2f466d4c07e002cf7da3bf393c34f5c693c635dfd53295a724e2c03ad7e99181900360600190a150600195945050505050565b60008281526034602052604081208190611161816126af565b611174575061c3a0915060009050611235565b6006810154610100900460ff16611194575061c364915060009050611235565b6001600160a01b038416600090815260048201602090815260408083208054908490556033909252909120546111d0908263ffffffff61293516565b6001600160a01b03861660008181526033602090815260409182902093909355805189815292830191909152818101839052517faafcd902e5217659ba924addbacae78ebf6a7c77409df0d0065b9ebca01298739181900360600190a1600093509150505b9250929050565b60395481565b6000908152603460205260409020600201546001600160a01b031690565b60375481565b600082815260346020526040812061127d816126af565b61128657600080fd5b6001600160a01b038316600090815260049091016020526040902054905092915050565b60355460009081906001600160a01b03166112c457600080fd5b600a603a541061130657604080516000815261c38e60208201528151600080516020612a6f833981519152929181900390910190a15061c38e9050600061166c565b336000908152603360205260409020546729a2241af62c0000111561135d57604080516000815261c39160208201528151600080516020612a6f833981519152929181900390910190a15061c3919050600061166c565b42603854870111156113a157604080516000815261c39560208201528151600080516020612a6f833981519152929181900390910190a15061c3959050600061166c565b611c2f420187106113e457604080516000815261c37360208201528151600080516020612a6f833981519152929181900390910190a15061c3739050600061166c565b60355460408051639e20c80360e01b8152600481018b9052602481018a9052604481018990526064810188905263ffffffff8716608482015260a481018690523360c4820152815160009384936001600160a01b0390911692639e20c8039260e4808301939282900301818787803b15801561145f57600080fd5b505af1158015611473573d6000803e3d6000fd5b505050506040513d604081101561148957600080fd5b508051602090910151909250905081156114d05760408051828152602081018490528151600080516020612a6f833981519152929181900390910190a1909250905061166c565b60008181526034602052604090206114e7816126af565b1561153c57600681015462010000900460ff161515600114801561151a5750600681015460ff6101009091041615156001145b8015611533575060018101546001600160a01b03163314155b61153c57600080fd5b818155600181018054336001600160a01b03199182168117909255600283018054909116905560068201805462ffffff1981168255426003850181905560395401600585015563ffffffff191690556040805163612b4f2d60e11b81526004810185905260248101929092526729a2241af62c0000604483015251309163c2569e5a9160648083019260209291908290030181600087803b1580156115e057600080fd5b505af11580156115f4573d6000803e3d6000fd5b505050506040513d602081101561160a57600080fd5b50519250821561161957600080fd5b603a8054600101908190556040805184815233602082015280820192909252517f5f53357548142db44904e21464dc5ffa3e092fb7b155299341125bd259906e309181900360600190a150600093509150505b965096945050505050565b6036546001600160a01b031681565b3360009081526033602052604081205482118015906116a55750600082115b6116ae57600080fd5b336000908152603360205260409020546116ce908363ffffffff61298f16565b33600081815260336020526040808220939093559151909184919081818185875af1925050503d8060008114611720576040519150601f19603f3d011682016040523d82523d6000602084013e611725565b606091505b5050604080513381526020810185905281517f4482101800a5c2e900f4156e57e05e19ffd7b366cde579553d723fd3abb2180e93509081900390910190a150503360009081526033602052604090205490565b600081815260346020526040812061178f816126af565b15806117a457506006810154610100900460ff165b156117dd576040805184815261c3a060208201528151600080516020612a6f833981519152929181900390910190a16000915050610da0565b600681015460ff161561181e576040805184815261c3aa60208201528151600080516020612a6f833981519152929181900390910190a16000915050610da0565b600681015462010000900460ff16156119495760068101805461ff001916610100179055603554600182015460408051633a102bc360e11b8152600481018790526001600160a01b0392831660248201529051600093929092169163742057869160448082019260209290919082900301818787803b1580156118a057600080fd5b505af11580156118b4573d6000803e3d6000fd5b505050506040513d60208110156118ca57600080fd5b5051905080156118d957600080fd5b6118e3848361275d565b603a805460001901908190556002830154604080518781526001600160a01b0390921660208301528181019290925290517f6ebb2f466d4c07e002cf7da3bf393c34f5c693c635dfd53295a724e2c03ad7e99181900360600190a1600092505050610da0565b80600501544211611988576040805184815261c36e60208201528151600080516020612a6f833981519152929181900390910190a16000915050610da0565b60068101805461ff00191661010017905560028101546000906001600160a01b0316611ac25760355460408051632af00c6760e11b81526004810187905290516000926001600160a01b0316916355e018ce916024808301926020929190829003018186803b1580156119fa57600080fd5b505afa158015611a0e573d6000803e3d6000fd5b505050506040513d6020811015611a2457600080fd5b5051603554604080516365702c0f60e11b81526004810184905290519293506000926001600160a01b039092169163cae0581e91602480820192602092909190829003018186803b158015611a7857600080fd5b505afa158015611a8c573d6000803e3d6000fd5b505050506040513d6020811015611aa257600080fd5b505190506004816005811115611ab457fe5b1415611abf57600192505b50505b8015611bc957603554604080516395b45ee760e01b81526004810187905233602482015290516000926001600160a01b0316916395b45ee791604480830192602092919082900301818787803b158015611b1b57600080fd5b505af1158015611b2f573d6000803e3d6000fd5b505050506040513d6020811015611b4557600080fd5b505190508015611b5457600080fd5b60018301546001600160a01b0316611b6c8682611148565b5050603a80546000190190819055604080518881526001600160a01b038416602082015280820192909252517f761ed2ea8db827133836a35e2fdc1cf23fcfe723b817ceffebb1d571439aad8e9181900360600190a15050611c9f565b603554604080516327426f7560e01b81526004810187905233602482015290516000926001600160a01b0316916327426f7591604480830192602092919082900301818787803b158015611c1c57600080fd5b505af1158015611c30573d6000803e3d6000fd5b505050506040513d6020811015611c4657600080fd5b505190508015611c5557600080fd5b6001830154604080518781526001600160a01b03909216602083015280517f68c34be3e9c7221898bee267017dda5f7344326a8825b2d4427dfeaba0fa19299281900390910190a1505b5060019392505050565b6729a2241af62c000081565b60355460009081906001600160a01b0316611ccf57600080fd5b6000838152603460205260409020611ce6816126af565b611d22576040805185815261c3a060208201528151600080516020612a6f833981519152929181900390910190a161c3a08492509250506120fc565b60068101546301000000900460ff16151560011415611d73576040805185815261c41860208201528151600080516020612a6f833981519152929181900390910190a161c4188492509250506120fc565b6006810154610100900460ff1680611d955750600681015462010000900460ff165b15611dd2576040805185815261c3b460208201528151600080516020612a6f833981519152929181900390910190a161c3b48492509250506120fc565b600681015460ff1615611e17576040805185815261c3be60208201528151600080516020612a6f833981519152929181900390910190a161c3be8492509250506120fc565b336000908152603360205260409020546729a2241af62c00001115611e6e576040805185815261c39160208201528151600080516020612a6f833981519152929181900390910190a161c3918492509250506120fc565b6035546040805163c1f67ab360e01b81526004810187905233602482015290516000926001600160a01b03169163c1f67ab391604480830192602092919082900301818787803b158015611ec157600080fd5b505af1158015611ed5573d6000803e3d6000fd5b505050506040513d6020811015611eeb57600080fd5b505190508015611f2b5760408051868152602081018390528151600080516020612a6f833981519152929181900390910190a19250600091506120fc9050565b6040805163612b4f2d60e11b8152600481018790523360248201526729a2241af62c000060448201529051309163c2569e5a9160648083019260209291908290030181600087803b158015611f7f57600080fd5b505af1158015611f93573d6000803e3d6000fd5b505050506040513d6020811015611fa957600080fd5b505190508015611fb857600080fd5b603954420160058301556002820180546001600160a01b0319163390811790915560408051878152602081019290925280517f4e4ec862758a1fd984d86a07836cbea0bb7aec069cc98cd7a543266b270e42e49281900390910190a160365460018301546002840154604080516368ed776f60e11b8152600481018a90526001600160a01b039384166024820152918316604483015251919092169163d1daeede91606480830192600092919082900301818387803b15801561207a57600080fd5b505af115801561208e573d6000803e3d6000fd5b5050505060018201546002830154604080518881526001600160a01b0393841660208201529290911682820152517f39232966947bb72bddd01335ecadedd95920ea1e1f044f9913a5f35e34275d9c9181900360600190a150600601805460ff191660011790555060009050815b915091565b60385481565b603a5481565b6000908152603460205260409020600101546001600160a01b031690565b6035546001600160a01b031681565b6036546001600160a01b0316331461215157600080fd5b6000838152603460205260409020612168816126af565b61217157600080fd5b60068101805460ff1916905560018101546001600160a01b039081169083168114156121af5760068201805462ff00001916620100001790556121e8565b836001600160a01b0316816001600160a01b031614156121e35760068201805463ff000000191663010000001790556121e8565b600080fd5b604080518681526001600160a01b03808716602083015285168183015290517f1a6e323d263407d13632ff217899ae9353a07223d311df6db8d80cad6a57c2d59181900360600190a15050505050565b60008181526034602052604081206002603554604080516365702c0f60e11b81526004810187905290516001600160a01b039092169163cae0581e91602480820192602092909190829003018186803b15801561229457600080fd5b505afa1580156122a8573d6000803e3d6000fd5b505050506040513d60208110156122be57600080fd5b505160058111156122cb57fe5b1480156122e35750600681015462010000900460ff16155b80156122f45750600681015460ff16155b80156123035750806005015442115b801561231b575060028101546001600160a01b031615155b9392505050565b6036546000906001600160a01b031633148061233d57503330145b61234657600080fd5b600084815260346020526040902061235d816126af565b61236c5761c3a091505061231b565b6001600160a01b0384166000908152603360205260409020548311156123975761c39191505061231b565b6001600160a01b0384166000908152603360205260409020546123c0908463ffffffff61298f16565b6001600160a01b03851660009081526033602090815260408083209390935560048401905220546123f7908463ffffffff61293516565b6001600160a01b038516600081815260048401602090815260409182902093909355805188815292830191909152818101859052517ff49b89a01f8b7e79e855801f268b5df3d7c88c4bc61293934fc1f9c52ddfeb319181900360600190a1506000949350505050565b60009081526034602052604090206003015490565b600090815260346020526040902060060154610100900460ff1690565b60009081526034602052604090206006015462010000900460ff1690565b6001600160a01b031660009081526033602052604090205490565b60346020526000908152604090208054600182015460028301546003840154600585015460069095015493946001600160a01b03938416949290931692909160ff808216916101008104821691620100008204811691630100000090041689565b600054610100900460ff168061254657506125466129d1565b80612554575060005460ff16155b61258f5760405162461bcd60e51b815260040180806020018281038252602e815260200180612a8f602e913960400191505060405180910390fd5b600054610100900460ff161580156125ba576000805460ff1961ff0019909116610100171660011790555b603580546001600160a01b038089166001600160a01b03199283161790925560368054928816929091169190911790556038849055603983905560378290556000603a558015612610576000805461ff00191690555b505050505050565b60336020526000908152604090205481565b6001600160a01b038216600090815260336020526040902054612653908263ffffffff61293516565b6001600160a01b03831660008181526033602090815260409182902093909355805191825291810183905281517fd15c9547ea5c06670c0010ce19bc32d54682a4b3801ece7f3ab0c3f17106b4bb929181900390910190a15050565b600101546001600160a01b0316151590565b600281015460018201546001600160a01b039182169116811561273e576001600160a01b038083166000908152600485016020526040808220549284168252902054612713908263ffffffff61293516565b6001600160a01b03808416600090815260048701602052604080822093909355908516815290812055505b6001600160a01b03811615612757576126108482611148565b50505050565b600281015460018201546001600160a01b039182169116811580159061278b57506001600160a01b03811615155b15612757576001600160a01b038082166000908152600485016020526040808220549285168252902054670de0b6b3a763ffff19909101906127d3908263ffffffff61293516565b6001600160a01b03841660009081526004860160205260409020556127f88584611148565b50506001600160a01b0382166000908152600485016020526040812081905580805b600783101561292b5760355460408051636e5b707160e01b8152600481018b905290516001600160a01b0390921691636e5b70719160248082019261012092909190829003018186803b15801561287057600080fd5b505afa158015612884573d6000803e3d6000fd5b505050506040513d61012081101561289b57600080fd5b5060a081015160c082015160e0909201519099509092509050876128be5761292b565b60048160058111156128cc57fe5b146128d65761281a565b6001600160a01b0382166000908152603360205260409020546129079067016345785d8a000063ffffffff61293516565b6001600160a01b03831660009081526033602052604090205560019092019161281a565b5050505050505050565b60008282018381101561231b576040805162461bcd60e51b815260206004820152601b60248201527f536166654d6174683a206164646974696f6e206f766572666c6f770000000000604482015290519081900360640190fd5b600061231b83836040518060400160405280601e81526020017f536166654d6174683a207375627472616374696f6e206f766572666c6f7700008152506129d7565b303b1590565b60008184841115612a665760405162461bcd60e51b81526004018080602001828103825283818151815260200191508051906020019080838360005b83811015612a2b578181015183820152602001612a13565b50505050905090810190601f168015612a585780820380516001836020036101000a031916815260200191505b509250505060405180910390fd5b50505090039056fe94bc311f1c6f4ed382aae7a5df5a4917f0ef0289f84bad39fee69c943e85fa33436f6e747261637420696e7374616e63652068617320616c7265616479206265656e20696e697469616c697a6564a265627a7a7231582037834c87d187e26196217ad7119b4c6d8512d2e5ba4d2362a5b716746a39015a64736f6c634300050d0032",
  "source": "pragma solidity ^0.5.13;\n\nimport './interfaces/SyscoinSuperblocksI.sol';\nimport './interfaces/SyscoinClaimManagerI.sol';\nimport './interfaces/SyscoinBattleManagerI.sol';\nimport './SyscoinDepositsManager.sol';\nimport './SyscoinErrorCodes.sol';\nimport 'openzeppelin-solidity/contracts/math/SafeMath.sol';\nimport \"@openzeppelin/upgrades/contracts/Initializable.sol\";\n\n// @dev - Manager of superblock claims\n//\n// Manages superblocks proposal and challenges\ncontract SyscoinClaimManager is Initializable, SyscoinDepositsManager, SyscoinErrorCodes {\n\n    using SafeMath for uint;\n\n    uint constant MAX_FUTURE_BLOCK_TIME_SYSCOIN = 7200;\n    uint constant MAX_FUTURE_BLOCK_TIME_ETHEREUM = 15;\n    struct SuperblockClaim {\n        bytes32 superblockHash;                       // Superblock Id\n        address submitter;                           // Superblock submitter\n        address challenger;                         // Superblock challenger\n        uint createdAt;                             // Superblock creation time\n\n        mapping (address => uint) bondedDeposits;   // Deposit associated to submitter+challenger\n\n        uint challengeTimeout;                      // Claim timeout\n\n        bool verificationOngoing;                   // Challenge session has started\n\n        bool decided;                               // If the claim was decided\n        bool invalid;                               // If superblock is invalid\n        bool challengeDefended;                     // has this challenge been defended already, not allowed to re-defend\n    }\n\n    // Active superblock claims\n    mapping (bytes32 => SuperblockClaim) public claims;\n\n    // Superblocks contract\n    SyscoinSuperblocksI public trustedSuperblocks;\n\n    // Battle manager contract\n    SyscoinBattleManagerI public trustedSyscoinBattleManager;\n\n    // Confirmations required to confirm semi approved superblocks\n    uint public superblockConfirmations;\n\n    uint public superblockDelay;    // Delay required to submit superblocks (in seconds)\n    uint public superblockTimeout;  // Timeout for action (in seconds)\n    uint public inProcessCounter;   // how many in progress superblocks do we have? should be below 10 for 10 max commitments of deposits\n    event DepositBonded(bytes32 superblockHash, address account, uint amount);\n    event DepositUnbonded(bytes32 superblockHash, address account, uint amount);\n    event SuperblockClaimCreated(bytes32 superblockHash, address submitter, uint processCounter);\n    event SuperblockClaimChallenged(bytes32 superblockHash, address challenger);\n    event SuperblockBattleDecided(bytes32 superblockHash, address winner, address loser);\n    event SuperblockClaimSuccessful(bytes32 superblockHash, address submitter, uint processCounter);\n    event SuperblockClaimPending(bytes32 superblockHash, address submitter);\n    event SuperblockClaimFailed(bytes32 superblockHash, address challenger, uint processCounter);\n    event VerificationGameStarted(bytes32 superblockHash, address submitter, address challenger);\n\n    event ErrorClaim(bytes32 superblockHash, uint err);\n\n    modifier onlyBattleManager() {\n        require(msg.sender == address(trustedSyscoinBattleManager));\n        _;\n    }\n\n    modifier onlyMeOrBattleManager() {\n        require(msg.sender == address(trustedSyscoinBattleManager) || msg.sender == address(this));\n        _;\n    }\n    \n    // @dev  Sets up the contract managing superblock challenges\n    // @param _superblocks Contract that manages superblocks\n    // @param _battleManager Contract that manages battles\n    // @param _superblockDelay Delay to accept a superblock submission (in seconds)\n    // @param _superblockTimeout Time to wait for challenges (in seconds)\n    // @param _superblockConfirmations Confirmations required to confirm semi approved superblocks\n    function init(\n        SyscoinSuperblocksI _superblocks,\n        SyscoinBattleManagerI _syscoinBattleManager,\n        uint _superblockDelay,\n        uint _superblockTimeout,\n        uint _superblockConfirmations\n    ) public initializer {\n        trustedSuperblocks = _superblocks;\n        trustedSyscoinBattleManager = _syscoinBattleManager;\n        superblockDelay = _superblockDelay;\n        superblockTimeout = _superblockTimeout;\n        superblockConfirmations = _superblockConfirmations;\n        inProcessCounter = 0;\n    }\n\n    // @dev  locks up part of a user's deposit into a claim.\n    // @param superblockHash  claim id.\n    // @param account  user's address.\n    // @param amount  amount of deposit to lock up.\n    // @return  user's deposit bonded for the claim.\n    function bondDeposit(bytes32 superblockHash, address account, uint amount) external onlyMeOrBattleManager returns (uint) {\n        SuperblockClaim storage claim = claims[superblockHash];\n\n        if (!claimExists(claim)) {\n            return ERR_SUPERBLOCK_BAD_CLAIM;\n        }\n\n        if (deposits[account] < amount) {\n            return ERR_SUPERBLOCK_MIN_DEPOSIT;\n        }\n\n        deposits[account] = deposits[account].sub(amount);\n        claim.bondedDeposits[account] = claim.bondedDeposits[account].add(amount);\n        emit DepositBonded(superblockHash, account, amount);\n\n        return ERR_SUPERBLOCK_OK;\n    }\n\n    // @dev  accessor for a claim's bonded deposits.\n    // @param superblockHash  claim id.\n    // @param account  user's address.\n    // @return  user's deposit bonded for the claim.\n    function getBondedDeposit(bytes32 superblockHash, address account) external view returns (uint) {\n        SuperblockClaim storage claim = claims[superblockHash];\n        require(claimExists(claim));\n        return claim.bondedDeposits[account];\n    }\n\n    // @dev  unlocks a user's bonded deposits from a claim.\n    // @param superblockHash  claim id.\n    // @param account  user's address.\n    // @return  user's deposit which was unbonded from the claim.\n    function unbondDeposit(bytes32 superblockHash, address account) public returns (uint, uint) {\n        SuperblockClaim storage claim = claims[superblockHash];\n        if (!claimExists(claim)) {\n            return (ERR_SUPERBLOCK_BAD_CLAIM, 0);\n        }\n        if (!claim.decided) {\n            return (ERR_SUPERBLOCK_BAD_STATUS, 0);\n        }\n\n        uint bondedDeposit = claim.bondedDeposits[account];\n\n        delete claim.bondedDeposits[account];\n        deposits[account] = deposits[account].add(bondedDeposit);\n\n        emit DepositUnbonded(superblockHash, account, bondedDeposit);\n\n        return (ERR_SUPERBLOCK_OK, bondedDeposit);\n    }\n\n    // @dev  Propose a new superblock.\n    //\n    // @param _blocksMerkleRoot Root of the merkle tree of blocks contained in a superblock\n    // @param _timestamp Timestamp of the last block in the superblock\n    // @param _mtpTimestamp Median Timestamp of the last block in the superblock\n    // @param _lastHash Hash of the last block in the superblock\n    // @param _lastBits Difficulty bits of the last block in the superblock bits\n    // @param _parentHash Id of the parent superblock\n    // @return Error code and superblockHash\n    function proposeSuperblock(\n        bytes32 _blocksMerkleRoot,\n        uint _timestamp,\n        uint _mtpTimestamp,\n        bytes32 _lastHash,\n        uint32 _lastBits,\n        bytes32 _parentHash\n    ) external returns (uint, bytes32) {\n        require(address(trustedSuperblocks) != address(0));\n        \n        if (inProcessCounter >= 10){\n            emit ErrorClaim(0, ERR_SUPERBLOCK_MAX_INPROGRESS);\n            return (ERR_SUPERBLOCK_MAX_INPROGRESS, 0);            \n        }\n        if (deposits[msg.sender] < minProposalDeposit) {\n            emit ErrorClaim(0, ERR_SUPERBLOCK_MIN_DEPOSIT);\n            return (ERR_SUPERBLOCK_MIN_DEPOSIT, 0);\n        }\n\n        if (_mtpTimestamp + superblockDelay > block.timestamp) {\n            emit ErrorClaim(0, ERR_SUPERBLOCK_BAD_TIMESTAMP_MTP);\n            return (ERR_SUPERBLOCK_BAD_TIMESTAMP_MTP, 0);\n        }\n\n        if (block.timestamp + MAX_FUTURE_BLOCK_TIME_SYSCOIN + MAX_FUTURE_BLOCK_TIME_ETHEREUM <= _timestamp) {\n            emit ErrorClaim(0, ERR_SUPERBLOCK_BAD_TIMESTAMP);\n            return (ERR_SUPERBLOCK_BAD_TIMESTAMP, 0);\n        }\n\n        uint err;\n        bytes32 superblockHash;\n        (err, superblockHash) = trustedSuperblocks.propose(_blocksMerkleRoot, _timestamp, _mtpTimestamp, _lastHash, _lastBits, _parentHash, msg.sender);\n        if (err != 0) {\n            emit ErrorClaim(superblockHash, err);\n            return (err, superblockHash);\n        }\n\n\n        SuperblockClaim storage claim = claims[superblockHash];\n        // allow to propose an existing claim only if its invalid and decided and its a different submitter or not on the tip\n        // those are the ones that may actually be stuck and need to be proposed again,\n        // but we want to ensure its not the same submitter submitting the same thing\n        if (claimExists(claim)) {\n            require(claim.invalid == true && claim.decided == true && claim.submitter != msg.sender);\n        }\n\n        claim.superblockHash = superblockHash;\n        claim.submitter = msg.sender;\n        claim.challenger = address(0);\n        claim.decided = false;\n        claim.invalid = false;\n        claim.verificationOngoing = false;\n        claim.createdAt = block.timestamp;\n        claim.challengeTimeout = block.timestamp + superblockTimeout;\n        claim.challengeDefended = false;\n        err = this.bondDeposit(superblockHash, msg.sender, minProposalDeposit);\n        require(err == ERR_SUPERBLOCK_OK);\n        inProcessCounter++;\n        emit SuperblockClaimCreated(superblockHash, msg.sender, inProcessCounter);\n        return (ERR_SUPERBLOCK_OK, superblockHash);\n    }\n\n    // @dev  challenge a superblock claim.\n    // @param superblockHash  Id of the superblock to challenge.\n    // @return - Error code and claim Id\n    function challengeSuperblock(bytes32 superblockHash) external returns (uint, bytes32) {\n        require(address(trustedSuperblocks) != address(0));\n\n        SuperblockClaim storage claim = claims[superblockHash];\n\n        if (!claimExists(claim)) {\n            emit ErrorClaim(superblockHash, ERR_SUPERBLOCK_BAD_CLAIM);\n            return (ERR_SUPERBLOCK_BAD_CLAIM, superblockHash);\n        }\n        if(claim.challengeDefended == true){\n            emit ErrorClaim(superblockHash, ERR_SUPERBLOCK_CLAIM_ALREADY_DEFENDED);\n            return (ERR_SUPERBLOCK_CLAIM_ALREADY_DEFENDED, superblockHash);           \n        }\n        if (claim.decided || claim.invalid) {\n            emit ErrorClaim(superblockHash, ERR_SUPERBLOCK_CLAIM_DECIDED);\n            return (ERR_SUPERBLOCK_CLAIM_DECIDED, superblockHash);\n        }\n        if (claim.verificationOngoing) {\n            emit ErrorClaim(superblockHash, ERR_SUPERBLOCK_CHALLENGE_EXISTS);\n            return (ERR_SUPERBLOCK_CHALLENGE_EXISTS, superblockHash);\n        }\n        if (deposits[msg.sender] < minProposalDeposit) {\n            emit ErrorClaim(superblockHash, ERR_SUPERBLOCK_MIN_DEPOSIT);\n            return (ERR_SUPERBLOCK_MIN_DEPOSIT, superblockHash);\n        }\n    \n        uint err = trustedSuperblocks.challenge(superblockHash, msg.sender);\n        if (err != 0) {\n            emit ErrorClaim(superblockHash, err);\n            return (err, 0);\n        }\n\n        err = this.bondDeposit(superblockHash, msg.sender, minProposalDeposit);\n        require(err == ERR_SUPERBLOCK_OK);\n\n        claim.challengeTimeout = block.timestamp + superblockTimeout;\n        claim.challenger = msg.sender;\n        emit SuperblockClaimChallenged(superblockHash, msg.sender);\n\n        trustedSyscoinBattleManager.beginBattleSession(superblockHash, claim.submitter,\n            claim.challenger);\n\n        emit VerificationGameStarted(superblockHash, claim.submitter,\n            claim.challenger);\n\n        claim.verificationOngoing = true;\n        return (ERR_SUPERBLOCK_OK, superblockHash);\n    }\n\n    // @dev  confirm semi approved superblock.\n    //\n    // A semi approved superblock can be confirmed if it has several descendant\n    // superblocks that are also semi-approved.\n    // If none of the descendants were challenged they will also be confirmed.\n    //\n    // @param superblockHash  the claim ID.\n    // @param descendantId - claim ID descendants\n    function confirmClaim(bytes32 superblockHash, bytes32 descendantId) external returns (bool) {\n        uint numSuperblocks = 0;\n        bool confirmDescendants = true;\n        bytes32 id = descendantId;\n        SuperblockClaim storage claim = claims[id];\n        while (id != superblockHash) {\n            if (!claimExists(claim) || claim.invalid) {\n                emit ErrorClaim(superblockHash, ERR_SUPERBLOCK_BAD_CLAIM);\n                return false;\n            }\n            if (trustedSuperblocks.getSuperblockStatus(id) != SyscoinSuperblocksI.Status.SemiApproved) {\n                emit ErrorClaim(superblockHash, ERR_SUPERBLOCK_BAD_STATUS);\n                return false;\n            }\n            if (confirmDescendants && claim.challenger != address(0)) {\n                confirmDescendants = false;\n            }\n            id = trustedSuperblocks.getSuperblockParentId(id);\n            claim = claims[id];\n            numSuperblocks += 1;\n        }\n\n        if (numSuperblocks < superblockConfirmations) {\n            emit ErrorClaim(superblockHash, ERR_SUPERBLOCK_MISSING_CONFIRMATIONS);\n            return false;\n        }\n        if (trustedSuperblocks.getSuperblockStatus(id) != SyscoinSuperblocksI.Status.SemiApproved) {\n            emit ErrorClaim(superblockHash, ERR_SUPERBLOCK_BAD_STATUS);\n            return false;\n        }\n\n        uint err = trustedSuperblocks.confirm(superblockHash, msg.sender);\n        if (err != ERR_SUPERBLOCK_OK) {\n            emit ErrorClaim(superblockHash, err);\n            return false;\n        }\n        doPaySubmitter(superblockHash, claim);\n\n        if (confirmDescendants) {\n            bytes32[] memory descendants = new bytes32[](numSuperblocks);\n            id = descendantId;\n            uint idx = 0;\n            while (id != superblockHash) {\n                descendants[idx] = id;\n                id = trustedSuperblocks.getSuperblockParentId(id);\n                idx += 1;\n            }\n            while (idx > 0) {\n                idx -= 1;\n                id = descendants[idx];\n                claim = claims[id];\n                err = trustedSuperblocks.confirm(id, msg.sender);\n                require(err == ERR_SUPERBLOCK_OK);\n                doPaySubmitter(id, claim);\n                inProcessCounter--;\n                emit SuperblockClaimSuccessful(id, claim.submitter, inProcessCounter);\n            }\n        }\n        inProcessCounter--;\n        emit SuperblockClaimSuccessful(superblockHash, claim.submitter, inProcessCounter);\n        return true;\n    }\n\n    // @dev  Reject a semi approved superblock.\n    //\n    // Superblocks that are not in the main chain can be marked as\n    // invalid.\n    //\n    // @param superblockHash  the claim ID.\n    function rejectClaim(bytes32 superblockHash) external returns (bool) {\n        SuperblockClaim storage claim = claims[superblockHash];\n        if (!claimExists(claim)) {\n            emit ErrorClaim(superblockHash, ERR_SUPERBLOCK_BAD_CLAIM);\n            return false;\n        }\n\n        uint height = trustedSuperblocks.getSuperblockHeight(superblockHash);\n\n        if (height > trustedSuperblocks.getChainHeight()) {\n            emit ErrorClaim(superblockHash, ERR_SUPERBLOCK_BAD_BLOCKHEIGHT);\n            return false;\n        }\n\n        SyscoinSuperblocksI.Status status = trustedSuperblocks.getSuperblockStatus(superblockHash);\n\n        if (status != SyscoinSuperblocksI.Status.SemiApproved) {\n            emit ErrorClaim(superblockHash, ERR_SUPERBLOCK_BAD_STATUS);\n            return false;\n        }\n\n        if (!claim.decided) {\n            emit ErrorClaim(superblockHash, ERR_SUPERBLOCK_CLAIM_DECIDED);\n            return false;\n        }\n\n        uint err = trustedSuperblocks.invalidate(superblockHash, claim.submitter);\n        require(err == ERR_SUPERBLOCK_OK);\n        doPayChallenger(superblockHash, claim);\n        claim.invalid = true;\n        inProcessCounter--;\n        emit SuperblockClaimFailed(superblockHash, claim.challenger, inProcessCounter);\n        return true;\n    }\n\n    // @dev  check whether a claim has successfully withstood all challenges.\n    // If successful without challenges, it will mark the superblock as confirmed.\n    // If successful with at least one challenge, it will mark the superblock as semi-approved.\n    // If verification failed, it will mark the superblock as invalid.\n    //\n    // @param superblockHash  claim ID.\n    function checkClaimFinished(bytes32 superblockHash) external returns (bool) {\n        SuperblockClaim storage claim = claims[superblockHash];\n\n        if (!claimExists(claim) || claim.decided) {\n            emit ErrorClaim(superblockHash, ERR_SUPERBLOCK_BAD_CLAIM);\n            return false;\n        }\n\n        // check that there is no ongoing verification game.\n        if (claim.verificationOngoing) {\n            emit ErrorClaim(superblockHash, ERR_SUPERBLOCK_VERIFICATION_PENDING);\n            return false;\n        }\n\n        // an invalid superblock can be rejected immediately\n        if (claim.invalid) {\n            // The superblock is invalid, submitter abandoned\n            // or superblock data is inconsistent\n            claim.decided = true;\n            uint err = trustedSuperblocks.invalidate(superblockHash, claim.submitter);\n            require(err == ERR_SUPERBLOCK_OK);\n            doPayChallenger(superblockHash, claim);\n            inProcessCounter--;\n            emit SuperblockClaimFailed(superblockHash, claim.challenger, inProcessCounter);\n            return false;\n        }\n\n        // check that the claim has exceeded the claim's specific challenge timeout.\n        if (block.timestamp <= claim.challengeTimeout) {\n            emit ErrorClaim(superblockHash, ERR_SUPERBLOCK_NO_TIMEOUT);\n            return false;\n        }\n\n        claim.decided = true;\n\n        bool confirmImmediately = false;\n        // No challenger and parent approved; confirm immediately\n        if (claim.challenger == address(0)) {\n            bytes32 parentId = trustedSuperblocks.getSuperblockParentId(superblockHash);\n            SyscoinSuperblocksI.Status status = trustedSuperblocks.getSuperblockStatus(parentId);\n            if (status == SyscoinSuperblocksI.Status.Approved) {\n                confirmImmediately = true;\n            }\n        }\n\n        if (confirmImmediately) {\n            uint err = trustedSuperblocks.confirm(superblockHash, msg.sender);\n            require(err == ERR_SUPERBLOCK_OK);\n            address submitter = claim.submitter;\n            unbondDeposit(superblockHash, submitter);\n            inProcessCounter--;\n            emit SuperblockClaimSuccessful(superblockHash, submitter, inProcessCounter);\n        } else {\n            uint err = trustedSuperblocks.semiApprove(superblockHash, msg.sender);\n            require(err == ERR_SUPERBLOCK_OK);\n            emit SuperblockClaimPending(superblockHash, claim.submitter);\n        }\n        return true;\n    }\n\n\n    // @dev  called when a battle session has ended.\n    //\n    // @param superblockHash - claim Id\n    // @param winner  winner of verification game.\n    // @param loser  loser of verification game.\n    function sessionDecided(bytes32 superblockHash, address winner, address loser) external onlyBattleManager {\n        SuperblockClaim storage claim = claims[superblockHash];\n\n        require(claimExists(claim));\n\n        claim.verificationOngoing = false;\n        address submitter = claim.submitter;\n\n        if (submitter == loser) {\n            claim.invalid = true;\n        } else if (submitter == winner) {\n            claim.challengeDefended = true;\n        }\n        else{\n            revert();\n        }\n        emit SuperblockBattleDecided(superblockHash, winner, loser);\n    }\n\n    // @dev - Pay challenger 2 eth and 0.7 to previous submitters, leave 0.3 effectively unspendable\n    function doPayChallenger(bytes32 superblockHash, SuperblockClaim storage claim) private {\n        address challenger = claim.challenger;\n        address submitter = claim.submitter;\n\n        if (challenger != address(0) && submitter != address(0)) {\n            uint reward = claim.bondedDeposits[submitter];\n            reward -= 1000000000000000000; // 1 ether\n            claim.bondedDeposits[challenger] = claim.bondedDeposits[challenger].add(reward);\n            unbondDeposit(superblockHash, challenger);\n            delete claim.bondedDeposits[submitter];\n            // distribute 0.7 eth to last 7 approved superblock submitters (0.1 each)\n            uint numPaid = 0;\n            address prevSubmitter;\n            SyscoinSuperblocksI.Status status;\n            while (numPaid < 7) {\n                (,,,,,superblockHash,prevSubmitter,status,) = trustedSuperblocks.getSuperblock(superblockHash);\n                if(superblockHash == 0x0)\n                    break;\n                if (status != SyscoinSuperblocksI.Status.Approved) {\n                    continue;\n                }\n                deposits[prevSubmitter] = deposits[prevSubmitter].add(100000000000000000); // 0.1 ether\n                numPaid++;\n            } \n        }\n    }\n\n    // @dev - Pay submitter with challenger deposit\n    function doPaySubmitter(bytes32 superblockHash, SuperblockClaim storage claim) private {\n        address challenger = claim.challenger;\n        address submitter = claim.submitter;\n        if (challenger != address(0)) {\n            uint reward = claim.bondedDeposits[challenger];\n            claim.bondedDeposits[submitter] = claim.bondedDeposits[submitter].add(reward);\n            delete claim.bondedDeposits[challenger];\n        }\n        if (submitter != address(0)) {\n            unbondDeposit(superblockHash, submitter);\n        }\n    }\n\n    // @dev - Check if a superblock can be semi approved by calling checkClaimFinished\n    function getInBattleAndSemiApprovable(bytes32 superblockHash) external view returns (bool) {\n        SuperblockClaim storage claim = claims[superblockHash];\n        return (trustedSuperblocks.getSuperblockStatus(superblockHash) == SyscoinSuperblocksI.Status.InBattle &&\n            !claim.invalid && !claim.verificationOngoing && block.timestamp > claim.challengeTimeout\n            && claim.challenger != address(0));\n    }\n\n    // @dev  Check if a claim exists\n    function claimExists(SuperblockClaim storage claim) private view returns (bool) {\n        return (claim.submitter != address(0));\n    }\n\n    // @dev - Return a given superblock's submitter\n    function getClaimSubmitter(bytes32 superblockHash) external view returns (address) {\n        return claims[superblockHash].submitter;\n    }\n\n    // @dev - Return superblock submission timestamp\n    function getNewSuperblockEventTimestamp(bytes32 superblockHash) external view returns (uint) {\n        return claims[superblockHash].createdAt;\n    }\n\n    // @dev - Return whether or not a claim has already been made\n    function getClaimExists(bytes32 superblockHash) external view returns (bool) {\n        return claimExists(claims[superblockHash]);\n    }\n\n    // @dev - Return claim status\n    function getClaimDecided(bytes32 superblockHash) external view returns (bool) {\n        return claims[superblockHash].decided;\n    }\n\n    // @dev - Check if a claim is invalid\n    function getClaimInvalid(bytes32 superblockHash) external view returns (bool) {\n        return claims[superblockHash].invalid;\n    }\n\n\n    function getClaimChallenger(bytes32 superblockHash) external view returns (address) {\n        SuperblockClaim storage claim = claims[superblockHash];\n        return claim.challenger;\n    }\n}\n",
  "sourcePath": "/Users/jsidhu/Documents/GitHub/sysethereum-contracts1/contracts/SyscoinClaimManager.sol",
  "compiler": {
    "name": "solc",
    "version": "0.5.13+commit.5b0b510c.Emscripten.clang"
  },
  "schemaVersion": "3.0.20",
  "updatedAt": "2020-03-05T20:15:12.862Z",
  "devdoc": {
    "methods": {}
  },
  "userdoc": {
    "methods": {}
  }
}