{
  "contractName": "SyscoinClaimManager",
  "abi": [
    {
      "anonymous": false,
      "inputs": [
        {
          "indexed": false,
          "internalType": "bytes32",
          "name": "superblockHash",
          "type": "bytes32"
        },
        {
          "indexed": false,
          "internalType": "address",
          "name": "account",
          "type": "address"
        },
        {
          "indexed": false,
          "internalType": "uint256",
          "name": "amount",
          "type": "uint256"
        }
      ],
      "name": "DepositBonded",
      "type": "event"
    },
    {
      "anonymous": false,
      "inputs": [
        {
          "indexed": false,
          "internalType": "address",
          "name": "who",
          "type": "address"
        },
        {
          "indexed": false,
          "internalType": "uint256",
          "name": "amount",
          "type": "uint256"
        }
      ],
      "name": "DepositMade",
      "type": "event"
    },
    {
      "anonymous": false,
      "inputs": [
        {
          "indexed": false,
          "internalType": "bytes32",
          "name": "superblockHash",
          "type": "bytes32"
        },
        {
          "indexed": false,
          "internalType": "address",
          "name": "account",
          "type": "address"
        },
        {
          "indexed": false,
          "internalType": "uint256",
          "name": "amount",
          "type": "uint256"
        }
      ],
      "name": "DepositUnbonded",
      "type": "event"
    },
    {
      "anonymous": false,
      "inputs": [
        {
          "indexed": false,
          "internalType": "address",
          "name": "who",
          "type": "address"
        },
        {
          "indexed": false,
          "internalType": "uint256",
          "name": "amount",
          "type": "uint256"
        }
      ],
      "name": "DepositWithdrawn",
      "type": "event"
    },
    {
      "anonymous": false,
      "inputs": [
        {
          "indexed": false,
          "internalType": "bytes32",
          "name": "superblockHash",
          "type": "bytes32"
        },
        {
          "indexed": false,
          "internalType": "uint256",
          "name": "err",
          "type": "uint256"
        }
      ],
      "name": "ErrorClaim",
      "type": "event"
    },
    {
      "anonymous": false,
      "inputs": [
        {
          "indexed": false,
          "internalType": "bytes32",
          "name": "superblockHash",
          "type": "bytes32"
        },
        {
          "indexed": false,
          "internalType": "address",
          "name": "winner",
          "type": "address"
        },
        {
          "indexed": false,
          "internalType": "address",
          "name": "loser",
          "type": "address"
        }
      ],
      "name": "SuperblockBattleDecided",
      "type": "event"
    },
    {
      "anonymous": false,
      "inputs": [
        {
          "indexed": false,
          "internalType": "bytes32",
          "name": "superblockHash",
          "type": "bytes32"
        },
        {
          "indexed": false,
          "internalType": "address",
          "name": "challenger",
          "type": "address"
        }
      ],
      "name": "SuperblockClaimChallenged",
      "type": "event"
    },
    {
      "anonymous": false,
      "inputs": [
        {
          "indexed": false,
          "internalType": "bytes32",
          "name": "superblockHash",
          "type": "bytes32"
        },
        {
          "indexed": false,
          "internalType": "address",
          "name": "submitter",
          "type": "address"
        }
      ],
      "name": "SuperblockClaimCreated",
      "type": "event"
    },
    {
      "anonymous": false,
      "inputs": [
        {
          "indexed": false,
          "internalType": "bytes32",
          "name": "superblockHash",
          "type": "bytes32"
        },
        {
          "indexed": false,
          "internalType": "address",
          "name": "submitter",
          "type": "address"
        }
      ],
      "name": "SuperblockClaimFailed",
      "type": "event"
    },
    {
      "anonymous": false,
      "inputs": [
        {
          "indexed": false,
          "internalType": "bytes32",
          "name": "superblockHash",
          "type": "bytes32"
        },
        {
          "indexed": false,
          "internalType": "address",
          "name": "submitter",
          "type": "address"
        }
      ],
      "name": "SuperblockClaimPending",
      "type": "event"
    },
    {
      "anonymous": false,
      "inputs": [
        {
          "indexed": false,
          "internalType": "bytes32",
          "name": "superblockHash",
          "type": "bytes32"
        },
        {
          "indexed": false,
          "internalType": "address",
          "name": "submitter",
          "type": "address"
        }
      ],
      "name": "SuperblockClaimSuccessful",
      "type": "event"
    },
    {
      "anonymous": false,
      "inputs": [
        {
          "indexed": false,
          "internalType": "bytes32",
          "name": "superblockHash",
          "type": "bytes32"
        },
        {
          "indexed": false,
          "internalType": "address",
          "name": "submitter",
          "type": "address"
        },
        {
          "indexed": false,
          "internalType": "address",
          "name": "challenger",
          "type": "address"
        }
      ],
      "name": "VerificationGameStarted",
      "type": "event"
    },
    {
      "payable": true,
      "stateMutability": "payable",
      "type": "fallback"
    },
    {
      "constant": true,
      "inputs": [
        {
          "internalType": "bytes32",
          "name": "",
          "type": "bytes32"
        }
      ],
      "name": "claims",
      "outputs": [
        {
          "internalType": "bytes32",
          "name": "superblockHash",
          "type": "bytes32"
        },
        {
          "internalType": "address",
          "name": "submitter",
          "type": "address"
        },
        {
          "internalType": "address",
          "name": "challenger",
          "type": "address"
        },
        {
          "internalType": "uint256",
          "name": "createdAt",
          "type": "uint256"
        },
        {
          "internalType": "uint256",
          "name": "challengeTimeout",
          "type": "uint256"
        },
        {
          "internalType": "bool",
          "name": "verificationOngoing",
          "type": "bool"
        },
        {
          "internalType": "bool",
          "name": "decided",
          "type": "bool"
        },
        {
          "internalType": "bool",
          "name": "invalid",
          "type": "bool"
        }
      ],
      "payable": false,
      "stateMutability": "view",
      "type": "function"
    },
    {
      "constant": true,
      "inputs": [
        {
          "internalType": "address",
          "name": "",
          "type": "address"
        }
      ],
      "name": "deposits",
      "outputs": [
        {
          "internalType": "uint256",
          "name": "",
          "type": "uint256"
        }
      ],
      "payable": false,
      "stateMutability": "view",
      "type": "function"
    },
    {
      "constant": true,
      "inputs": [
        {
          "internalType": "address",
          "name": "who",
          "type": "address"
        }
      ],
      "name": "getDeposit",
      "outputs": [
        {
          "internalType": "uint256",
          "name": "",
          "type": "uint256"
        }
      ],
      "payable": false,
      "stateMutability": "view",
      "type": "function"
    },
    {
      "constant": false,
      "inputs": [],
      "name": "makeDeposit",
      "outputs": [
        {
          "internalType": "uint256",
          "name": "",
          "type": "uint256"
        }
      ],
      "payable": true,
      "stateMutability": "payable",
      "type": "function"
    },
    {
      "constant": true,
      "inputs": [],
      "name": "minProposalDeposit",
      "outputs": [
        {
          "internalType": "uint256",
          "name": "",
          "type": "uint256"
        }
      ],
      "payable": false,
      "stateMutability": "view",
      "type": "function"
    },
    {
      "constant": true,
      "inputs": [],
      "name": "superblockConfirmations",
      "outputs": [
        {
          "internalType": "uint256",
          "name": "",
          "type": "uint256"
        }
      ],
      "payable": false,
      "stateMutability": "view",
      "type": "function"
    },
    {
      "constant": true,
      "inputs": [],
      "name": "superblockDelay",
      "outputs": [
        {
          "internalType": "uint256",
          "name": "",
          "type": "uint256"
        }
      ],
      "payable": false,
      "stateMutability": "view",
      "type": "function"
    },
    {
      "constant": true,
      "inputs": [],
      "name": "superblockTimeout",
      "outputs": [
        {
          "internalType": "uint256",
          "name": "",
          "type": "uint256"
        }
      ],
      "payable": false,
      "stateMutability": "view",
      "type": "function"
    },
    {
      "constant": true,
      "inputs": [],
      "name": "trustedSuperblocks",
      "outputs": [
        {
          "internalType": "contract SyscoinSuperblocksI",
          "name": "",
          "type": "address"
        }
      ],
      "payable": false,
      "stateMutability": "view",
      "type": "function"
    },
    {
      "constant": true,
      "inputs": [],
      "name": "trustedSyscoinBattleManager",
      "outputs": [
        {
          "internalType": "contract SyscoinBattleManagerI",
          "name": "",
          "type": "address"
        }
      ],
      "payable": false,
      "stateMutability": "view",
      "type": "function"
    },
    {
      "constant": false,
      "inputs": [
        {
          "internalType": "uint256",
          "name": "amount",
          "type": "uint256"
        }
      ],
      "name": "withdrawDeposit",
      "outputs": [
        {
          "internalType": "uint256",
          "name": "",
          "type": "uint256"
        }
      ],
      "payable": false,
      "stateMutability": "nonpayable",
      "type": "function"
    },
    {
      "constant": false,
      "inputs": [
        {
          "internalType": "contract SyscoinSuperblocksI",
          "name": "_superblocks",
          "type": "address"
        },
        {
          "internalType": "contract SyscoinBattleManagerI",
          "name": "_syscoinBattleManager",
          "type": "address"
        },
        {
          "internalType": "uint256",
          "name": "_superblockDelay",
          "type": "uint256"
        },
        {
          "internalType": "uint256",
          "name": "_superblockTimeout",
          "type": "uint256"
        },
        {
          "internalType": "uint256",
          "name": "_superblockConfirmations",
          "type": "uint256"
        }
      ],
      "name": "init",
      "outputs": [],
      "payable": false,
      "stateMutability": "nonpayable",
      "type": "function"
    },
    {
      "constant": false,
      "inputs": [
        {
          "internalType": "bytes32",
          "name": "superblockHash",
          "type": "bytes32"
        },
        {
          "internalType": "address",
          "name": "account",
          "type": "address"
        },
        {
          "internalType": "uint256",
          "name": "amount",
          "type": "uint256"
        }
      ],
      "name": "bondDeposit",
      "outputs": [
        {
          "internalType": "uint256",
          "name": "",
          "type": "uint256"
        }
      ],
      "payable": false,
      "stateMutability": "nonpayable",
      "type": "function"
    },
    {
      "constant": true,
      "inputs": [
        {
          "internalType": "bytes32",
          "name": "superblockHash",
          "type": "bytes32"
        },
        {
          "internalType": "address",
          "name": "account",
          "type": "address"
        }
      ],
      "name": "getBondedDeposit",
      "outputs": [
        {
          "internalType": "uint256",
          "name": "",
          "type": "uint256"
        }
      ],
      "payable": false,
      "stateMutability": "view",
      "type": "function"
    },
    {
      "constant": false,
      "inputs": [
        {
          "internalType": "bytes32",
          "name": "_blocksMerkleRoot",
          "type": "bytes32"
        },
        {
          "internalType": "uint256",
          "name": "_timestamp",
          "type": "uint256"
        },
        {
          "internalType": "uint256",
          "name": "_mtpTimestamp",
          "type": "uint256"
        },
        {
          "internalType": "bytes32",
          "name": "_lastHash",
          "type": "bytes32"
        },
        {
          "internalType": "uint32",
          "name": "_lastBits",
          "type": "uint32"
        },
        {
          "internalType": "bytes32",
          "name": "_parentHash",
          "type": "bytes32"
        }
      ],
      "name": "proposeSuperblock",
      "outputs": [
        {
          "internalType": "uint256",
          "name": "",
          "type": "uint256"
        },
        {
          "internalType": "bytes32",
          "name": "",
          "type": "bytes32"
        }
      ],
      "payable": false,
      "stateMutability": "nonpayable",
      "type": "function"
    },
    {
      "constant": false,
      "inputs": [
        {
          "internalType": "bytes32",
          "name": "superblockHash",
          "type": "bytes32"
        }
      ],
      "name": "challengeSuperblock",
      "outputs": [
        {
          "internalType": "uint256",
          "name": "",
          "type": "uint256"
        },
        {
          "internalType": "bytes32",
          "name": "",
          "type": "bytes32"
        }
      ],
      "payable": false,
      "stateMutability": "nonpayable",
      "type": "function"
    },
    {
      "constant": false,
      "inputs": [
        {
          "internalType": "bytes32",
          "name": "superblockHash",
          "type": "bytes32"
        },
        {
          "internalType": "bytes32",
          "name": "descendantId",
          "type": "bytes32"
        }
      ],
      "name": "confirmClaim",
      "outputs": [
        {
          "internalType": "bool",
          "name": "",
          "type": "bool"
        }
      ],
      "payable": false,
      "stateMutability": "nonpayable",
      "type": "function"
    },
    {
      "constant": false,
      "inputs": [
        {
          "internalType": "bytes32",
          "name": "superblockHash",
          "type": "bytes32"
        }
      ],
      "name": "rejectClaim",
      "outputs": [
        {
          "internalType": "bool",
          "name": "",
          "type": "bool"
        }
      ],
      "payable": false,
      "stateMutability": "nonpayable",
      "type": "function"
    },
    {
      "constant": false,
      "inputs": [
        {
          "internalType": "bytes32",
          "name": "superblockHash",
          "type": "bytes32"
        }
      ],
      "name": "checkClaimFinished",
      "outputs": [
        {
          "internalType": "bool",
          "name": "",
          "type": "bool"
        }
      ],
      "payable": false,
      "stateMutability": "nonpayable",
      "type": "function"
    },
    {
      "constant": false,
      "inputs": [
        {
          "internalType": "bytes32",
          "name": "superblockHash",
          "type": "bytes32"
        },
        {
          "internalType": "address",
          "name": "winner",
          "type": "address"
        },
        {
          "internalType": "address",
          "name": "loser",
          "type": "address"
        }
      ],
      "name": "sessionDecided",
      "outputs": [],
      "payable": false,
      "stateMutability": "nonpayable",
      "type": "function"
    },
    {
      "constant": true,
      "inputs": [
        {
          "internalType": "bytes32",
          "name": "superblockHash",
          "type": "bytes32"
        }
      ],
      "name": "getInBattleAndSemiApprovable",
      "outputs": [
        {
          "internalType": "bool",
          "name": "",
          "type": "bool"
        }
      ],
      "payable": false,
      "stateMutability": "view",
      "type": "function"
    },
    {
      "constant": true,
      "inputs": [
        {
          "internalType": "bytes32",
          "name": "superblockHash",
          "type": "bytes32"
        }
      ],
      "name": "getClaimSubmitter",
      "outputs": [
        {
          "internalType": "address",
          "name": "",
          "type": "address"
        }
      ],
      "payable": false,
      "stateMutability": "view",
      "type": "function"
    },
    {
      "constant": true,
      "inputs": [
        {
          "internalType": "bytes32",
          "name": "superblockHash",
          "type": "bytes32"
        }
      ],
      "name": "getNewSuperblockEventTimestamp",
      "outputs": [
        {
          "internalType": "uint256",
          "name": "",
          "type": "uint256"
        }
      ],
      "payable": false,
      "stateMutability": "view",
      "type": "function"
    },
    {
      "constant": true,
      "inputs": [
        {
          "internalType": "bytes32",
          "name": "superblockHash",
          "type": "bytes32"
        }
      ],
      "name": "getClaimExists",
      "outputs": [
        {
          "internalType": "bool",
          "name": "",
          "type": "bool"
        }
      ],
      "payable": false,
      "stateMutability": "view",
      "type": "function"
    },
    {
      "constant": true,
      "inputs": [
        {
          "internalType": "bytes32",
          "name": "superblockHash",
          "type": "bytes32"
        }
      ],
      "name": "getClaimDecided",
      "outputs": [
        {
          "internalType": "bool",
          "name": "",
          "type": "bool"
        }
      ],
      "payable": false,
      "stateMutability": "view",
      "type": "function"
    },
    {
      "constant": true,
      "inputs": [
        {
          "internalType": "bytes32",
          "name": "superblockHash",
          "type": "bytes32"
        }
      ],
      "name": "getClaimInvalid",
      "outputs": [
        {
          "internalType": "bool",
          "name": "",
          "type": "bool"
        }
      ],
      "payable": false,
      "stateMutability": "view",
      "type": "function"
    },
    {
      "constant": true,
      "inputs": [
        {
          "internalType": "bytes32",
          "name": "superblockHash",
          "type": "bytes32"
        }
      ],
      "name": "getClaimChallenger",
      "outputs": [
        {
          "internalType": "address",
          "name": "",
          "type": "address"
        }
      ],
      "payable": false,
      "stateMutability": "view",
      "type": "function"
    }
  ],
  "bytecode": "0x608060405234801561001057600080fd5b506127c3806100206000396000f3fe60806040526004361061019c5760003560e01c806355e4286b116100ec578063c3d3290f1161008a578063e1254fba11610064578063e1254fba1461058f578063eff0f592146105c2578063f934436e1461063d578063fc7e286d1461068c5761019c565b8063c3d3290f14610511578063c44205e31461053b578063dac1d764146105655761019c565b806390a14aea116100c657806390a14aea14610450578063a4cbce7b14610465578063a8b4633f146104a8578063c2569e5a146104d25761019c565b806355e4286b146103e757806357872488146104115780635bf7d5db146104265761019c565b806329118a9b1161015957806333289a461161013357806333289a46146103765780633352f1a4146103a057806340732c89146103ca578063455e6166146103d25761019c565b806329118a9b146102c15780632bcf947e146102fa578063329af83f146103615761019c565b8063040aa57a146101a75780630ac0d9c9146101eb57806313be4f9e1461021557806318b011de1461023f5780631fed7b851461026657806327b425a6146102ac575b6101a46106bf565b50005b3480156101b357600080fd5b506101d7600480360360408110156101ca57600080fd5b50803590602001356106df565b604080519115158252519081900360200190f35b3480156101f757600080fd5b506101d76004803603602081101561020e57600080fd5b5035610ce4565b34801561022157600080fd5b506101d76004803603602081101561023857600080fd5b5035610d03565b34801561024b57600080fd5b50610254611091565b60408051918252519081900360200190f35b34801561027257600080fd5b506102906004803603602081101561028957600080fd5b5035611097565b604080516001600160a01b039092168252519081900360200190f35b3480156102b857600080fd5b506102546110b5565b3480156102cd57600080fd5b50610254600480360360408110156102e457600080fd5b50803590602001356001600160a01b03166110bb565b34801561030657600080fd5b50610348600480360360c081101561031d57600080fd5b5080359060208101359060408101359060608101359063ffffffff6080820135169060a001356110ff565b6040805192835260208301919091528051918290030190f35b34801561036d57600080fd5b50610290611470565b34801561038257600080fd5b506102546004803603602081101561039957600080fd5b503561147f565b3480156103ac57600080fd5b506101d7600480360360208110156103c357600080fd5b503561154a565b6102546106bf565b3480156103de57600080fd5b50610254611a57565b3480156103f357600080fd5b506103486004803603602081101561040a57600080fd5b5035611a63565b34801561041d57600080fd5b50610254611e5e565b34801561043257600080fd5b506102906004803603602081101561044957600080fd5b5035611e64565b34801561045c57600080fd5b50610290611e82565b34801561047157600080fd5b506104a66004803603606081101561048857600080fd5b508035906001600160a01b0360208201358116916040013516611e91565b005b3480156104b457600080fd5b506101d7600480360360208110156104cb57600080fd5b5035611f74565b3480156104de57600080fd5b50610254600480360360608110156104f557600080fd5b508035906001600160a01b03602082013516906040013561205e565b34801561051d57600080fd5b506102546004803603602081101561053457600080fd5b503561219d565b34801561054757600080fd5b506101d76004803603602081101561055e57600080fd5b50356121b2565b34801561057157600080fd5b506101d76004803603602081101561058857600080fd5b50356121cf565b34801561059b57600080fd5b50610254600480360360208110156105b257600080fd5b50356001600160a01b03166121ed565b3480156105ce57600080fd5b506105ec600480360360208110156105e557600080fd5b5035612208565b604080519889526001600160a01b0397881660208a0152959096168786015260608701939093526080860191909152151560a0850152151560c084015290151560e083015251908190036101000190f35b34801561064957600080fd5b506104a6600480360360a081101561066057600080fd5b506001600160a01b03813581169160208101359091169060408101359060608101359060800135612260565b34801561069857600080fd5b50610254600480360360208110156106af57600080fd5b50356001600160a01b0316612346565b60006106cb3334612358565b503360009081526033602052604090205490565b6000818152603460205260408120819060019084905b8682146108d057610705816123dd565b158061071b5750600681015462010000900460ff165b15610757576040805188815261c3a060208201528151600080516020612741833981519152929181900390910190a16000945050505050610cde565b603554604080516365702c0f60e11b81526004810185905290516003926001600160a01b03169163cae0581e916024808301926020929190829003018186803b1580156107a357600080fd5b505afa1580156107b7573d6000803e3d6000fd5b505050506040513d60208110156107cd57600080fd5b505160058111156107da57fe5b14610816576040805188815261c36460208201528151600080516020612741833981519152929181900390910190a16000945050505050610cde565b82801561082f575060028101546001600160a01b031615155b1561083957600092505b60355460408051632af00c6760e11b81526004810185905290516001600160a01b03909216916355e018ce91602480820192602092909190829003018186803b15801561088557600080fd5b505afa158015610899573d6000803e3d6000fd5b505050506040513d60208110156108af57600080fd5b505160008181526034602052604090206001959095019490925090506106f5565b603754841015610911576040805188815261c3dc60208201528151600080516020612741833981519152929181900390910190a16000945050505050610cde565b603554604080516365702c0f60e11b81526004810185905290516003926001600160a01b03169163cae0581e916024808301926020929190829003018186803b15801561095d57600080fd5b505afa158015610971573d6000803e3d6000fd5b505050506040513d602081101561098757600080fd5b5051600581111561099457fe5b146109d0576040805188815261c36460208201528151600080516020612741833981519152929181900390910190a16000945050505050610cde565b603554604080516395b45ee760e01b8152600481018a905233602482015290516000926001600160a01b0316916395b45ee791604480830192602092919082900301818787803b158015610a2357600080fd5b505af1158015610a37573d6000803e3d6000fd5b505050506040513d6020811015610a4d57600080fd5b505190508015610a8e5760408051898152602081018390528151600080516020612741833981519152929181900390910190a1600095505050505050610cde565b6001820154604080518a81526001600160a01b03909216602083015280517fd2d92ada663f6bc7872c4132f968080a631f3d0faa9310ba1c86d1c54e470b289281900390910190a1610ae088836123ef565b8315610cd457606085604051908082528060200260200182016040528015610b12578160200160208202803883390190505b50889450905060005b898514610bba5784828281518110610b2f57fe5b60209081029190910181019190915260355460408051632af00c6760e11b81526004810189905290516001600160a01b03909216926355e018ce92602480840193829003018186803b158015610b8457600080fd5b505afa158015610b98573d6000803e3d6000fd5b505050506040513d6020811015610bae57600080fd5b50519450600101610b1b565b8015610cd157600181039050818181518110610bd257fe5b602090810291909101810151600081815260348352604080822060355482516395b45ee760e01b8152600481018690523360248201529251949a509098506001600160a01b0316936395b45ee79360448084019492939192918390030190829087803b158015610c4157600080fd5b505af1158015610c55573d6000803e3d6000fd5b505050506040513d6020811015610c6b57600080fd5b505192508215610c7a57600080fd5b6001840154604080518781526001600160a01b03909216602083015280517fd2d92ada663f6bc7872c4132f968080a631f3d0faa9310ba1c86d1c54e470b289281900390910190a1610ccc85856123ef565b610bba565b50505b6001955050505050505b92915050565b6000818152603460205260408120610cfb906123dd565b90505b919050565b6000818152603460205260408120610d1a816123dd565b610d52576040805184815261c3a060208201528151600080516020612741833981519152929181900390910190a16000915050610cfe565b60355460408051632e40019160e01b81526004810186905290516000926001600160a01b031691632e400191916024808301926020929190829003018186803b158015610d9e57600080fd5b505afa158015610db2573d6000803e3d6000fd5b505050506040513d6020811015610dc857600080fd5b505160355460408051632dab940960e11b8152905163ffffffff90931693506001600160a01b0390911691635b57281291600480820192602092909190829003018186803b158015610e1957600080fd5b505afa158015610e2d573d6000803e3d6000fd5b505050506040513d6020811015610e4357600080fd5b5051811115610e81576040805185815261c3fa60208201528151600080516020612741833981519152929181900390910190a1600092505050610cfe565b603554604080516365702c0f60e11b81526004810187905290516000926001600160a01b03169163cae0581e916024808301926020929190829003018186803b158015610ecd57600080fd5b505afa158015610ee1573d6000803e3d6000fd5b505050506040513d6020811015610ef757600080fd5b505190506003816005811115610f0957fe5b14610f44576040805186815261c36460208201528151600080516020612741833981519152929181900390910190a160009350505050610cfe565b6006830154610100900460ff16610f8b576040805186815261c3b460208201528151600080516020612741833981519152929181900390910190a160009350505050610cfe565b603554600184015460408051633a102bc360e11b8152600481018990526001600160a01b0392831660248201529051600093929092169163742057869160448082019260209290919082900301818787803b158015610fe957600080fd5b505af1158015610ffd573d6000803e3d6000fd5b505050506040513d602081101561101357600080fd5b50519050801561102257600080fd5b6001840154604080518881526001600160a01b03909216602083015280517f944668cff98bcc4e0c3851b8682999d1e5c0bf2b32e8e035d71db8f40fd0ded79281900390910190a16110748685612479565b505050600601805462ff0000191662010000179055506001919050565b60395481565b6000908152603460205260409020600201546001600160a01b031690565b60375481565b60008281526034602052604081206110d2816123dd565b6110db57600080fd5b6001600160a01b038316600090815260049091016020526040902054905092915050565b60355460009081906001600160a01b031661111957600080fd5b336000908152603360205260409020546729a2241af62c0000111561117057604080516000815261c39160208201528151600080516020612741833981519152929181900390910190a15061c39190506000611465565b42603854870111156111b457604080516000815261c39560208201528151600080516020612741833981519152929181900390910190a15061c39590506000611465565b611c2f420187106111f757604080516000815261c37360208201528151600080516020612741833981519152929181900390910190a15061c37390506000611465565b60355460408051639e20c80360e01b8152600481018b9052602481018a9052604481018990526064810188905263ffffffff8716608482015260a481018690523360c4820152815160009384936001600160a01b0390911692639e20c8039260e4808301939282900301818787803b15801561127257600080fd5b505af1158015611286573d6000803e3d6000fd5b505050506040513d604081101561129c57600080fd5b508051602090910151909250905081156112e35760408051828152602081018490528151600080516020612741833981519152929181900390910190a19092509050611465565b60008181526034602052604090206112fa816123dd565b1561134f57600681015462010000900460ff161515600114801561132d5750600681015460ff6101009091041615156001145b8015611346575060018101546001600160a01b03163314155b61134f57600080fd5b818155600181018054336001600160a01b03199182168117909255600283018054909116905560068201805462ffffff1916905542600383018190556039540160058301556040805163612b4f2d60e11b81526004810185905260248101929092526729a2241af62c0000604483015251309163c2569e5a9160648083019260209291908290030181600087803b1580156113e957600080fd5b505af11580156113fd573d6000803e3d6000fd5b505050506040513d602081101561141357600080fd5b50519250821561142257600080fd5b6040805183815233602082015281517fb3a62becdc21cd20cda5d5537311e57b217d497022fa1d6fa233fe5d736011ad929181900390910190a150600093509150505b965096945050505050565b6036546001600160a01b031681565b3360009081526033602052604081205482111561149b57600080fd5b336000908152603360205260409020546114bb908363ffffffff61251316565b33600081815260336020526040808220939093559151909184156108fc02918591818181858888f193505050501580156114f9573d6000803e3d6000fd5b50604080513381526020810184905281517f4482101800a5c2e900f4156e57e05e19ffd7b366cde579553d723fd3abb2180e929181900390910190a150503360009081526033602052604090205490565b6000818152603460205260408120611561816123dd565b158061157657506006810154610100900460ff165b156115af576040805184815261c3a060208201528151600080516020612741833981519152929181900390910190a16000915050610cfe565b600681015460ff16156115f0576040805184815261c3aa60208201528151600080516020612741833981519152929181900390910190a16000915050610cfe565b600681015462010000900460ff16156117085760068101805461ff001916610100179055603554600182015460408051633a102bc360e11b8152600481018790526001600160a01b0392831660248201529051600093929092169163742057869160448082019260209290919082900301818787803b15801561167257600080fd5b505af1158015611686573d6000803e3d6000fd5b505050506040513d602081101561169c57600080fd5b5051905080156116ab57600080fd5b6001820154604080518681526001600160a01b03909216602083015280517f944668cff98bcc4e0c3851b8682999d1e5c0bf2b32e8e035d71db8f40fd0ded79281900390910190a16116fd8483612479565b600092505050610cfe565b80600501544211611747576040805184815261c36e60208201528151600080516020612741833981519152929181900390910190a16000915050610cfe565b60068101805461ff00191661010017905560028101546000906001600160a01b03166118815760355460408051632af00c6760e11b81526004810187905290516000926001600160a01b0316916355e018ce916024808301926020929190829003018186803b1580156117b957600080fd5b505afa1580156117cd573d6000803e3d6000fd5b505050506040513d60208110156117e357600080fd5b5051603554604080516365702c0f60e11b81526004810184905290519293506000926001600160a01b039092169163cae0581e91602480820192602092909190829003018186803b15801561183757600080fd5b505afa15801561184b573d6000803e3d6000fd5b505050506040513d602081101561186157600080fd5b50519050600481600581111561187357fe5b141561187e57600192505b50505b801561197757603554604080516395b45ee760e01b81526004810187905233602482015290516000926001600160a01b0316916395b45ee791604480830192602092919082900301818787803b1580156118da57600080fd5b505af11580156118ee573d6000803e3d6000fd5b505050506040513d602081101561190457600080fd5b50519050801561191357600080fd5b60018301546001600160a01b031661192b8682612555565b5050604080518781526001600160a01b038316602082015281517fd2d92ada663f6bc7872c4132f968080a631f3d0faa9310ba1c86d1c54e470b28929181900390910190a15050611a4d565b603554604080516327426f7560e01b81526004810187905233602482015290516000926001600160a01b0316916327426f7591604480830192602092919082900301818787803b1580156119ca57600080fd5b505af11580156119de573d6000803e3d6000fd5b505050506040513d60208110156119f457600080fd5b505190508015611a0357600080fd5b6001830154604080518781526001600160a01b03909216602083015280517f68c34be3e9c7221898bee267017dda5f7344326a8825b2d4427dfeaba0fa19299281900390910190a1505b5060019392505050565b6729a2241af62c000081565b60355460009081906001600160a01b0316611a7d57600080fd5b6000838152603460205260409020611a94816123dd565b611ad0576040805185815261c3a060208201528151600080516020612741833981519152929181900390910190a161c3a0849250925050611e59565b6006810154610100900460ff1680611af25750600681015462010000900460ff165b15611b2f576040805185815261c3b460208201528151600080516020612741833981519152929181900390910190a161c3b4849250925050611e59565b600681015460ff1615611b74576040805185815261c3be60208201528151600080516020612741833981519152929181900390910190a161c3be849250925050611e59565b336000908152603360205260409020546729a2241af62c00001115611bcb576040805185815261c39160208201528151600080516020612741833981519152929181900390910190a161c391849250925050611e59565b6035546040805163c1f67ab360e01b81526004810187905233602482015290516000926001600160a01b03169163c1f67ab391604480830192602092919082900301818787803b158015611c1e57600080fd5b505af1158015611c32573d6000803e3d6000fd5b505050506040513d6020811015611c4857600080fd5b505190508015611c885760408051868152602081018390528151600080516020612741833981519152929181900390910190a1925060009150611e599050565b6040805163612b4f2d60e11b8152600481018790523360248201526729a2241af62c000060448201529051309163c2569e5a9160648083019260209291908290030181600087803b158015611cdc57600080fd5b505af1158015611cf0573d6000803e3d6000fd5b505050506040513d6020811015611d0657600080fd5b505190508015611d1557600080fd5b603954420160058301556002820180546001600160a01b0319163390811790915560408051878152602081019290925280517f4e4ec862758a1fd984d86a07836cbea0bb7aec069cc98cd7a543266b270e42e49281900390910190a160365460018301546002840154604080516368ed776f60e11b8152600481018a90526001600160a01b039384166024820152918316604483015251919092169163d1daeede91606480830192600092919082900301818387803b158015611dd757600080fd5b505af1158015611deb573d6000803e3d6000fd5b5050505060018201546002830154604080518881526001600160a01b0393841660208201529290911682820152517f39232966947bb72bddd01335ecadedd95920ea1e1f044f9913a5f35e34275d9c9181900360600190a150600601805460ff191660011790555060009050815b915091565b60385481565b6000908152603460205260409020600101546001600160a01b031690565b6035546001600160a01b031681565b6036546001600160a01b03163314611ea857600080fd5b6000838152603460205260409020611ebf816123dd565b611ec857600080fd5b60068101805460ff1916905560018101546001600160a01b03908116908316811415611f065760068201805462ff0000191662010000179055611f24565b836001600160a01b0316816001600160a01b031614611f2457600080fd5b604080518681526001600160a01b03808716602083015285168183015290517f1a6e323d263407d13632ff217899ae9353a07223d311df6db8d80cad6a57c2d59181900360600190a15050505050565b60008181526034602052604081206002603554604080516365702c0f60e11b81526004810187905290516001600160a01b039092169163cae0581e91602480820192602092909190829003018186803b158015611fd057600080fd5b505afa158015611fe4573d6000803e3d6000fd5b505050506040513d6020811015611ffa57600080fd5b5051600581111561200757fe5b14801561201f5750600681015462010000900460ff16155b80156120305750600681015460ff16155b801561203f5750806005015442115b8015612057575060028101546001600160a01b031615155b9392505050565b6036546000906001600160a01b031633148061207957503330145b61208257600080fd5b6000848152603460205260409020612099816123dd565b6120a85761c3a0915050612057565b6001600160a01b0384166000908152603360205260409020548311156120d35761c391915050612057565b6001600160a01b0384166000908152603360205260409020546120fc908463ffffffff61251316565b6001600160a01b0385166000908152603360209081526040808320939093556004840190522054612133908463ffffffff61264916565b6001600160a01b038516600081815260048401602090815260409182902093909355805188815292830191909152818101859052517ff49b89a01f8b7e79e855801f268b5df3d7c88c4bc61293934fc1f9c52ddfeb319181900360600190a1506000949350505050565b60009081526034602052604090206003015490565b600090815260346020526040902060060154610100900460ff1690565b60009081526034602052604090206006015462010000900460ff1690565b6001600160a01b031660009081526033602052604090205490565b60346020526000908152604090208054600182015460028301546003840154600585015460069095015493946001600160a01b03938416949290931692909160ff808216916101008104821691620100009091041688565b600054610100900460ff168061227957506122796126a3565b80612287575060005460ff16155b6122c25760405162461bcd60e51b815260040180806020018281038252602e815260200180612761602e913960400191505060405180910390fd5b600054610100900460ff161580156122ed576000805460ff1961ff0019909116610100171660011790555b603580546001600160a01b038089166001600160a01b0319928316179092556036805492881692909116919091179055603884905560398390556037829055801561233e576000805461ff00191690555b505050505050565b60336020526000908152604090205481565b6001600160a01b038216600090815260336020526040902054612381908263ffffffff61264916565b6001600160a01b03831660008181526033602090815260409182902093909355805191825291810183905281517fd15c9547ea5c06670c0010ce19bc32d54682a4b3801ece7f3ab0c3f17106b4bb929181900390910190a15050565b600101546001600160a01b0316151590565b600281015460018201546001600160a01b039182169116811561246f576001600160a01b0380831660009081526004850160205260408082208054908390559284168252902054612446908263ffffffff61264916565b6001600160a01b038316600090815260048601602052604090205561246b8584612555565b5050505b61233e8482612555565b600281015460018201546001600160a01b03918216911681156124f4576001600160a01b0380821660009081526004850160205260408082205492851682529020546124cb908263ffffffff61264916565b6001600160a01b03841660009081526004860160205260409020556124f08584612555565b5050505b6001600160a01b03166000908152600490920160205250604081205550565b600061205783836040518060400160405280601e81526020017f536166654d6174683a207375627472616374696f6e206f766572666c6f7700008152506126a9565b6000828152603460205260408120819061256e816123dd565b612581575061c3a0915060009050612642565b6006810154610100900460ff166125a1575061c364915060009050612642565b6001600160a01b038416600090815260048201602090815260408083208054908490556033909252909120546125dd908263ffffffff61264916565b6001600160a01b03861660008181526033602090815260409182902093909355805189815292830191909152818101839052517faafcd902e5217659ba924addbacae78ebf6a7c77409df0d0065b9ebca01298739181900360600190a1600093509150505b9250929050565b600082820183811015612057576040805162461bcd60e51b815260206004820152601b60248201527f536166654d6174683a206164646974696f6e206f766572666c6f770000000000604482015290519081900360640190fd5b303b1590565b600081848411156127385760405162461bcd60e51b81526004018080602001828103825283818151815260200191508051906020019080838360005b838110156126fd5781810151838201526020016126e5565b50505050905090810190601f16801561272a5780820380516001836020036101000a031916815260200191505b509250505060405180910390fd5b50505090039056fe94bc311f1c6f4ed382aae7a5df5a4917f0ef0289f84bad39fee69c943e85fa33436f6e747261637420696e7374616e63652068617320616c7265616479206265656e20696e697469616c697a6564a265627a7a72315820f1c683aff6522f7c8c17edff251c58829d89ba5e25160d78c760b9d8e17ef23964736f6c634300050d0032",
  "source": "pragma solidity ^0.5.13;\n\nimport './interfaces/SyscoinSuperblocksI.sol';\nimport './interfaces/SyscoinClaimManagerI.sol';\nimport './interfaces/SyscoinBattleManagerI.sol';\nimport './SyscoinDepositsManager.sol';\nimport './SyscoinErrorCodes.sol';\nimport 'openzeppelin-solidity/contracts/math/SafeMath.sol';\nimport \"@openzeppelin/upgrades/contracts/Initializable.sol\";\n\n// @dev - Manager of superblock claims\n//\n// Manages superblocks proposal and challenges\ncontract SyscoinClaimManager is Initializable, SyscoinDepositsManager, SyscoinErrorCodes {\n\n    using SafeMath for uint;\n\n    uint constant MAX_FUTURE_BLOCK_TIME_SYSCOIN = 7200;\n    uint constant MAX_FUTURE_BLOCK_TIME_ETHEREUM = 15;\n\n    struct SuperblockClaim {\n        bytes32 superblockHash;                       // Superblock Id\n        address submitter;                           // Superblock submitter\n        address challenger;                         // Superblock challenger\n        uint createdAt;                             // Superblock creation time\n\n        mapping (address => uint) bondedDeposits;   // Deposit associated to submitter+challenger\n\n        uint challengeTimeout;                      // Claim timeout\n\n        bool verificationOngoing;                   // Challenge session has started\n\n        bool decided;                               // If the claim was decided\n        bool invalid;                               // If superblock is invalid\n    }\n\n    // Active superblock claims\n    mapping (bytes32 => SuperblockClaim) public claims;\n\n    // Superblocks contract\n    SyscoinSuperblocksI public trustedSuperblocks;\n\n    // Battle manager contract\n    SyscoinBattleManagerI public trustedSyscoinBattleManager;\n\n    // Confirmations required to confirm semi approved superblocks\n    uint public superblockConfirmations;\n\n    uint public superblockDelay;    // Delay required to submit superblocks (in seconds)\n    uint public superblockTimeout;  // Timeout for action (in seconds)\n\n    event DepositBonded(bytes32 superblockHash, address account, uint amount);\n    event DepositUnbonded(bytes32 superblockHash, address account, uint amount);\n    event SuperblockClaimCreated(bytes32 superblockHash, address submitter);\n    event SuperblockClaimChallenged(bytes32 superblockHash, address challenger);\n    event SuperblockBattleDecided(bytes32 superblockHash, address winner, address loser);\n    event SuperblockClaimSuccessful(bytes32 superblockHash, address submitter);\n    event SuperblockClaimPending(bytes32 superblockHash, address submitter);\n    event SuperblockClaimFailed(bytes32 superblockHash, address submitter);\n    event VerificationGameStarted(bytes32 superblockHash, address submitter, address challenger);\n\n    event ErrorClaim(bytes32 superblockHash, uint err);\n\n    modifier onlyBattleManager() {\n        require(msg.sender == address(trustedSyscoinBattleManager));\n        _;\n    }\n\n    modifier onlyMeOrBattleManager() {\n        require(msg.sender == address(trustedSyscoinBattleManager) || msg.sender == address(this));\n        _;\n    }\n\n    // @dev  Sets up the contract managing superblock challenges\n    // @param _superblocks Contract that manages superblocks\n    // @param _battleManager Contract that manages battles\n    // @param _superblockDelay Delay to accept a superblock submission (in seconds)\n    // @param _superblockTimeout Time to wait for challenges (in seconds)\n    // @param _superblockConfirmations Confirmations required to confirm semi approved superblocks\n    function init(\n        SyscoinSuperblocksI _superblocks,\n        SyscoinBattleManagerI _syscoinBattleManager,\n        uint _superblockDelay,\n        uint _superblockTimeout,\n        uint _superblockConfirmations\n    ) public initializer {\n        trustedSuperblocks = _superblocks;\n        trustedSyscoinBattleManager = _syscoinBattleManager;\n        superblockDelay = _superblockDelay;\n        superblockTimeout = _superblockTimeout;\n        superblockConfirmations = _superblockConfirmations;\n    }\n\n    // @dev  locks up part of a user's deposit into a claim.\n    // @param superblockHash  claim id.\n    // @param account  user's address.\n    // @param amount  amount of deposit to lock up.\n    // @return  user's deposit bonded for the claim.\n    function bondDeposit(bytes32 superblockHash, address account, uint amount) external onlyMeOrBattleManager returns (uint) {\n        SuperblockClaim storage claim = claims[superblockHash];\n\n        if (!claimExists(claim)) {\n            return ERR_SUPERBLOCK_BAD_CLAIM;\n        }\n\n        if (deposits[account] < amount) {\n            return ERR_SUPERBLOCK_MIN_DEPOSIT;\n        }\n\n        deposits[account] = deposits[account].sub(amount);\n        claim.bondedDeposits[account] = claim.bondedDeposits[account].add(amount);\n        emit DepositBonded(superblockHash, account, amount);\n\n        return ERR_SUPERBLOCK_OK;\n    }\n\n    // @dev  accessor for a claim's bonded deposits.\n    // @param superblockHash  claim id.\n    // @param account  user's address.\n    // @return  user's deposit bonded for the claim.\n    function getBondedDeposit(bytes32 superblockHash, address account) external view returns (uint) {\n        SuperblockClaim storage claim = claims[superblockHash];\n        require(claimExists(claim));\n        return claim.bondedDeposits[account];\n    }\n\n    // @dev  unlocks a user's bonded deposits from a claim.\n    // @param superblockHash  claim id.\n    // @param account  user's address.\n    // @return  user's deposit which was unbonded from the claim.\n    function unbondDeposit(bytes32 superblockHash, address account) private returns (uint, uint) {\n        SuperblockClaim storage claim = claims[superblockHash];\n        if (!claimExists(claim)) {\n            return (ERR_SUPERBLOCK_BAD_CLAIM, 0);\n        }\n        if (!claim.decided) {\n            return (ERR_SUPERBLOCK_BAD_STATUS, 0);\n        }\n\n        uint bondedDeposit = claim.bondedDeposits[account];\n\n        delete claim.bondedDeposits[account];\n        deposits[account] = deposits[account].add(bondedDeposit);\n\n        emit DepositUnbonded(superblockHash, account, bondedDeposit);\n\n        return (ERR_SUPERBLOCK_OK, bondedDeposit);\n    }\n\n    // @dev  Propose a new superblock.\n    //\n    // @param _blocksMerkleRoot Root of the merkle tree of blocks contained in a superblock\n    // @param _timestamp Timestamp of the last block in the superblock\n    // @param _mtpTimestamp Median Timestamp of the last block in the superblock\n    // @param _lastHash Hash of the last block in the superblock\n    // @param _lastBits Difficulty bits of the last block in the superblock bits\n    // @param _parentHash Id of the parent superblock\n    // @return Error code and superblockHash\n    function proposeSuperblock(\n        bytes32 _blocksMerkleRoot,\n        uint _timestamp,\n        uint _mtpTimestamp,\n        bytes32 _lastHash,\n        uint32 _lastBits,\n        bytes32 _parentHash\n    ) external returns (uint, bytes32) {\n        require(address(trustedSuperblocks) != address(0));\n\n        if (deposits[msg.sender] < minProposalDeposit) {\n            emit ErrorClaim(0, ERR_SUPERBLOCK_MIN_DEPOSIT);\n            return (ERR_SUPERBLOCK_MIN_DEPOSIT, 0);\n        }\n\n        if (_mtpTimestamp + superblockDelay > block.timestamp) {\n            emit ErrorClaim(0, ERR_SUPERBLOCK_BAD_TIMESTAMP_MTP);\n            return (ERR_SUPERBLOCK_BAD_TIMESTAMP_MTP, 0);\n        }\n\n        if (block.timestamp + MAX_FUTURE_BLOCK_TIME_SYSCOIN + MAX_FUTURE_BLOCK_TIME_ETHEREUM <= _timestamp) {\n            emit ErrorClaim(0, ERR_SUPERBLOCK_BAD_TIMESTAMP);\n            return (ERR_SUPERBLOCK_BAD_TIMESTAMP, 0);\n        }\n\n        uint err;\n        bytes32 superblockHash;\n        (err, superblockHash) = trustedSuperblocks.propose(_blocksMerkleRoot, _timestamp, _mtpTimestamp, _lastHash, _lastBits, _parentHash, msg.sender);\n        if (err != 0) {\n            emit ErrorClaim(superblockHash, err);\n            return (err, superblockHash);\n        }\n\n\n        SuperblockClaim storage claim = claims[superblockHash];\n        // allow to propose an existing claim only if its invalid and decided and its a different submitter or not on the tip\n        // those are the ones that may actually be stuck and need to be proposed again,\n        // but we want to ensure its not the same submitter submitting the same thing\n        if (claimExists(claim)) {\n            require(claim.invalid == true && claim.decided == true && claim.submitter != msg.sender);\n        }\n\n        claim.superblockHash = superblockHash;\n        claim.submitter = msg.sender;\n        claim.challenger = address(0);\n        claim.decided = false;\n        claim.invalid = false;\n        claim.verificationOngoing = false;\n        claim.createdAt = block.timestamp;\n        claim.challengeTimeout = block.timestamp + superblockTimeout;\n\n        err = this.bondDeposit(superblockHash, msg.sender, minProposalDeposit);\n        require(err == ERR_SUPERBLOCK_OK);\n\n        emit SuperblockClaimCreated(superblockHash, msg.sender);\n\n        return (ERR_SUPERBLOCK_OK, superblockHash);\n    }\n\n    // @dev  challenge a superblock claim.\n    // @param superblockHash  Id of the superblock to challenge.\n    // @return - Error code and claim Id\n    function challengeSuperblock(bytes32 superblockHash) external returns (uint, bytes32) {\n        require(address(trustedSuperblocks) != address(0));\n\n        SuperblockClaim storage claim = claims[superblockHash];\n\n        if (!claimExists(claim)) {\n            emit ErrorClaim(superblockHash, ERR_SUPERBLOCK_BAD_CLAIM);\n            return (ERR_SUPERBLOCK_BAD_CLAIM, superblockHash);\n        }\n        if (claim.decided || claim.invalid) {\n            emit ErrorClaim(superblockHash, ERR_SUPERBLOCK_CLAIM_DECIDED);\n            return (ERR_SUPERBLOCK_CLAIM_DECIDED, superblockHash);\n        }\n        if (claim.verificationOngoing) {\n            emit ErrorClaim(superblockHash, ERR_SUPERBLOCK_CHALLENGE_EXISTS);\n            return (ERR_SUPERBLOCK_CHALLENGE_EXISTS, superblockHash);\n        }\n        if (deposits[msg.sender] < minProposalDeposit) {\n            emit ErrorClaim(superblockHash, ERR_SUPERBLOCK_MIN_DEPOSIT);\n            return (ERR_SUPERBLOCK_MIN_DEPOSIT, superblockHash);\n        }\n    \n        uint err = trustedSuperblocks.challenge(superblockHash, msg.sender);\n        if (err != 0) {\n            emit ErrorClaim(superblockHash, err);\n            return (err, 0);\n        }\n\n        err = this.bondDeposit(superblockHash, msg.sender, minProposalDeposit);\n        require(err == ERR_SUPERBLOCK_OK);\n\n        claim.challengeTimeout = block.timestamp + superblockTimeout;\n        claim.challenger = msg.sender;\n        emit SuperblockClaimChallenged(superblockHash, msg.sender);\n\n        trustedSyscoinBattleManager.beginBattleSession(superblockHash, claim.submitter,\n            claim.challenger);\n\n        emit VerificationGameStarted(superblockHash, claim.submitter,\n            claim.challenger);\n\n        claim.verificationOngoing = true;\n        return (ERR_SUPERBLOCK_OK, superblockHash);\n    }\n\n    // @dev  confirm semi approved superblock.\n    //\n    // A semi approved superblock can be confirmed if it has several descendant\n    // superblocks that are also semi-approved.\n    // If none of the descendants were challenged they will also be confirmed.\n    //\n    // @param superblockHash  the claim ID.\n    // @param descendantId - claim ID descendants\n    function confirmClaim(bytes32 superblockHash, bytes32 descendantId) external returns (bool) {\n        uint numSuperblocks = 0;\n        bool confirmDescendants = true;\n        bytes32 id = descendantId;\n        SuperblockClaim storage claim = claims[id];\n        while (id != superblockHash) {\n            if (!claimExists(claim) || claim.invalid) {\n                emit ErrorClaim(superblockHash, ERR_SUPERBLOCK_BAD_CLAIM);\n                return false;\n            }\n            if (trustedSuperblocks.getSuperblockStatus(id) != SyscoinSuperblocksI.Status.SemiApproved) {\n                emit ErrorClaim(superblockHash, ERR_SUPERBLOCK_BAD_STATUS);\n                return false;\n            }\n            if (confirmDescendants && claim.challenger != address(0)) {\n                confirmDescendants = false;\n            }\n            id = trustedSuperblocks.getSuperblockParentId(id);\n            claim = claims[id];\n            numSuperblocks += 1;\n        }\n\n        if (numSuperblocks < superblockConfirmations) {\n            emit ErrorClaim(superblockHash, ERR_SUPERBLOCK_MISSING_CONFIRMATIONS);\n            return false;\n        }\n        if (trustedSuperblocks.getSuperblockStatus(id) != SyscoinSuperblocksI.Status.SemiApproved) {\n            emit ErrorClaim(superblockHash, ERR_SUPERBLOCK_BAD_STATUS);\n            return false;\n        }\n\n        uint err = trustedSuperblocks.confirm(superblockHash, msg.sender);\n        if (err != ERR_SUPERBLOCK_OK) {\n            emit ErrorClaim(superblockHash, err);\n            return false;\n        }\n        emit SuperblockClaimSuccessful(superblockHash, claim.submitter);\n        doPaySubmitter(superblockHash, claim);\n\n        if (confirmDescendants) {\n            bytes32[] memory descendants = new bytes32[](numSuperblocks);\n            id = descendantId;\n            uint idx = 0;\n            while (id != superblockHash) {\n                descendants[idx] = id;\n                id = trustedSuperblocks.getSuperblockParentId(id);\n                idx += 1;\n            }\n            while (idx > 0) {\n                idx -= 1;\n                id = descendants[idx];\n                claim = claims[id];\n                err = trustedSuperblocks.confirm(id, msg.sender);\n                require(err == ERR_SUPERBLOCK_OK);\n                emit SuperblockClaimSuccessful(id, claim.submitter);\n                doPaySubmitter(id, claim);\n            }\n        }\n\n        return true;\n    }\n\n    // @dev  Reject a semi approved superblock.\n    //\n    // Superblocks that are not in the main chain can be marked as\n    // invalid.\n    //\n    // @param superblockHash  the claim ID.\n    function rejectClaim(bytes32 superblockHash) external returns (bool) {\n        SuperblockClaim storage claim = claims[superblockHash];\n        if (!claimExists(claim)) {\n            emit ErrorClaim(superblockHash, ERR_SUPERBLOCK_BAD_CLAIM);\n            return false;\n        }\n\n        uint height = trustedSuperblocks.getSuperblockHeight(superblockHash);\n\n        if (height > trustedSuperblocks.getChainHeight()) {\n            emit ErrorClaim(superblockHash, ERR_SUPERBLOCK_BAD_BLOCKHEIGHT);\n            return false;\n        }\n\n        SyscoinSuperblocksI.Status status = trustedSuperblocks.getSuperblockStatus(superblockHash);\n\n        if (status != SyscoinSuperblocksI.Status.SemiApproved) {\n            emit ErrorClaim(superblockHash, ERR_SUPERBLOCK_BAD_STATUS);\n            return false;\n        }\n\n        if (!claim.decided) {\n            emit ErrorClaim(superblockHash, ERR_SUPERBLOCK_CLAIM_DECIDED);\n            return false;\n        }\n\n        uint err = trustedSuperblocks.invalidate(superblockHash, claim.submitter);\n        require(err == ERR_SUPERBLOCK_OK);\n        emit SuperblockClaimFailed(superblockHash, claim.submitter);\n        doPayChallenger(superblockHash, claim);\n        claim.invalid = true;\n        return true;\n    }\n\n    // @dev  check whether a claim has successfully withstood all challenges.\n    // If successful without challenges, it will mark the superblock as confirmed.\n    // If successful with at least one challenge, it will mark the superblock as semi-approved.\n    // If verification failed, it will mark the superblock as invalid.\n    //\n    // @param superblockHash  claim ID.\n    function checkClaimFinished(bytes32 superblockHash) external returns (bool) {\n        SuperblockClaim storage claim = claims[superblockHash];\n\n        if (!claimExists(claim) || claim.decided) {\n            emit ErrorClaim(superblockHash, ERR_SUPERBLOCK_BAD_CLAIM);\n            return false;\n        }\n\n        // check that there is no ongoing verification game.\n        if (claim.verificationOngoing) {\n            emit ErrorClaim(superblockHash, ERR_SUPERBLOCK_VERIFICATION_PENDING);\n            return false;\n        }\n\n        // an invalid superblock can be rejected immediately\n        if (claim.invalid) {\n            // The superblock is invalid, submitter abandoned\n            // or superblock data is inconsistent\n            claim.decided = true;\n            uint err = trustedSuperblocks.invalidate(superblockHash, claim.submitter);\n            require(err == ERR_SUPERBLOCK_OK);\n            emit SuperblockClaimFailed(superblockHash, claim.submitter);\n            doPayChallenger(superblockHash, claim);\n            return false;\n        }\n\n        // check that the claim has exceeded the claim's specific challenge timeout.\n        if (block.timestamp <= claim.challengeTimeout) {\n            emit ErrorClaim(superblockHash, ERR_SUPERBLOCK_NO_TIMEOUT);\n            return false;\n        }\n\n        claim.decided = true;\n\n        bool confirmImmediately = false;\n        // No challenger and parent approved; confirm immediately\n        if (claim.challenger == address(0)) {\n            bytes32 parentId = trustedSuperblocks.getSuperblockParentId(superblockHash);\n            SyscoinSuperblocksI.Status status = trustedSuperblocks.getSuperblockStatus(parentId);\n            if (status == SyscoinSuperblocksI.Status.Approved) {\n                confirmImmediately = true;\n            }\n        }\n\n        if (confirmImmediately) {\n            uint err = trustedSuperblocks.confirm(superblockHash, msg.sender);\n            require(err == ERR_SUPERBLOCK_OK);\n            address submitter = claim.submitter;\n            unbondDeposit(superblockHash, submitter);\n            emit SuperblockClaimSuccessful(superblockHash, submitter);\n        } else {\n            uint err = trustedSuperblocks.semiApprove(superblockHash, msg.sender);\n            require(err == ERR_SUPERBLOCK_OK);\n            emit SuperblockClaimPending(superblockHash, claim.submitter);\n        }\n        return true;\n    }\n\n\n    // @dev  called when a battle session has ended.\n    //\n    // @param superblockHash - claim Id\n    // @param winner  winner of verification game.\n    // @param loser  loser of verification game.\n    function sessionDecided(bytes32 superblockHash, address winner, address loser) external onlyBattleManager {\n        SuperblockClaim storage claim = claims[superblockHash];\n\n        require(claimExists(claim));\n\n        claim.verificationOngoing = false;\n        address submitter = claim.submitter;\n\n        if (submitter == loser) {\n            claim.invalid = true;\n        } else if (submitter != winner) {\n            revert();\n        }\n        emit SuperblockBattleDecided(superblockHash, winner, loser);\n    }\n\n    // @dev - Pay challenger\n    function doPayChallenger(bytes32 superblockHash, SuperblockClaim storage claim) private {\n        address challenger = claim.challenger;\n        address submitter = claim.submitter;\n\n        if (challenger != address(0)) {\n            uint reward = claim.bondedDeposits[submitter];\n            claim.bondedDeposits[challenger] = claim.bondedDeposits[challenger].add(reward);\n            unbondDeposit(superblockHash, challenger);\n        }\n        delete claim.bondedDeposits[submitter];\n    }\n\n    // @dev - Pay submitter with challenger deposit\n    function doPaySubmitter(bytes32 superblockHash, SuperblockClaim storage claim) private {\n        address challenger = claim.challenger;\n        address submitter = claim.submitter;\n\n        if (challenger != address(0)) {\n            uint reward = claim.bondedDeposits[challenger];\n            claim.bondedDeposits[challenger] = 0;\n            claim.bondedDeposits[submitter] = claim.bondedDeposits[submitter].add(reward);\n\n            unbondDeposit(superblockHash, challenger);\n        }\n        unbondDeposit(superblockHash, submitter);\n    }\n\n    // @dev - Check if a superblock can be semi approved by calling checkClaimFinished\n    function getInBattleAndSemiApprovable(bytes32 superblockHash) external view returns (bool) {\n        SuperblockClaim storage claim = claims[superblockHash];\n        return (trustedSuperblocks.getSuperblockStatus(superblockHash) == SyscoinSuperblocksI.Status.InBattle &&\n            !claim.invalid && !claim.verificationOngoing && block.timestamp > claim.challengeTimeout\n            && claim.challenger != address(0));\n    }\n\n    // @dev  Check if a claim exists\n    function claimExists(SuperblockClaim storage claim) private view returns (bool) {\n        return (claim.submitter != address(0));\n    }\n\n    // @dev - Return a given superblock's submitter\n    function getClaimSubmitter(bytes32 superblockHash) external view returns (address) {\n        return claims[superblockHash].submitter;\n    }\n\n    // @dev - Return superblock submission timestamp\n    function getNewSuperblockEventTimestamp(bytes32 superblockHash) external view returns (uint) {\n        return claims[superblockHash].createdAt;\n    }\n\n    // @dev - Return whether or not a claim has already been made\n    function getClaimExists(bytes32 superblockHash) external view returns (bool) {\n        return claimExists(claims[superblockHash]);\n    }\n\n    // @dev - Return claim status\n    function getClaimDecided(bytes32 superblockHash) external view returns (bool) {\n        return claims[superblockHash].decided;\n    }\n\n    // @dev - Check if a claim is invalid\n    function getClaimInvalid(bytes32 superblockHash) external view returns (bool) {\n        // TODO: see if this is redundant with superblock status\n        return claims[superblockHash].invalid;\n    }\n\n\n    function getClaimChallenger(bytes32 superblockHash) external view returns (address) {\n        SuperblockClaim storage claim = claims[superblockHash];\n        return claim.challenger;\n    }\n}\n",
  "sourcePath": "/Users/jsidhu/Documents/GitHub/sysethereum-contracts1/contracts/SyscoinClaimManager.sol",
  "compiler": {
    "name": "solc",
    "version": "0.5.13+commit.5b0b510c.Emscripten.clang"
  },
  "schemaVersion": "3.0.19",
  "updatedAt": "2019-11-20T22:28:05.306Z",
  "devdoc": {
    "methods": {}
  },
  "userdoc": {
    "methods": {}
  }
}