{
  "contractName": "SyscoinMessageLibrary",
  "abi": [
    {
      "inputs": [
        {
          "internalType": "bytes",
          "name": "txBytes",
          "type": "bytes"
        },
        {
          "internalType": "uint256",
          "name": "pos",
          "type": "uint256"
        }
      ],
      "name": "parseCompactSize",
      "outputs": [
        {
          "internalType": "uint256",
          "name": "",
          "type": "uint256"
        },
        {
          "internalType": "uint256",
          "name": "",
          "type": "uint256"
        }
      ],
      "stateMutability": "pure",
      "type": "function"
    },
    {
      "inputs": [
        {
          "internalType": "bytes",
          "name": "txBytes",
          "type": "bytes"
        },
        {
          "internalType": "uint256",
          "name": "pos",
          "type": "uint256"
        },
        {
          "internalType": "uint256",
          "name": "max",
          "type": "uint256"
        }
      ],
      "name": "parseVarInt",
      "outputs": [
        {
          "internalType": "uint256",
          "name": "",
          "type": "uint256"
        },
        {
          "internalType": "uint256",
          "name": "",
          "type": "uint256"
        }
      ],
      "stateMutability": "pure",
      "type": "function"
    },
    {
      "inputs": [
        {
          "internalType": "bytes",
          "name": "data",
          "type": "bytes"
        },
        {
          "internalType": "uint256",
          "name": "pos",
          "type": "uint256"
        },
        {
          "internalType": "uint256",
          "name": "bits",
          "type": "uint256"
        }
      ],
      "name": "getBytesLE",
      "outputs": [
        {
          "internalType": "uint256",
          "name": "result",
          "type": "uint256"
        }
      ],
      "stateMutability": "pure",
      "type": "function"
    },
    {
      "inputs": [
        {
          "internalType": "uint256",
          "name": "_input",
          "type": "uint256"
        }
      ],
      "name": "flip32Bytes",
      "outputs": [
        {
          "internalType": "uint256",
          "name": "result",
          "type": "uint256"
        }
      ],
      "stateMutability": "pure",
      "type": "function"
    },
    {
      "inputs": [
        {
          "internalType": "uint256",
          "name": "_txHash",
          "type": "uint256"
        },
        {
          "internalType": "uint256",
          "name": "_txIndex",
          "type": "uint256"
        },
        {
          "internalType": "uint256[]",
          "name": "_siblings",
          "type": "uint256[]"
        }
      ],
      "name": "computeMerkle",
      "outputs": [
        {
          "internalType": "uint256",
          "name": "",
          "type": "uint256"
        }
      ],
      "stateMutability": "pure",
      "type": "function"
    }
  ],
  "bytecode": "0x608060405234801561001057600080fd5b50610ae2806100206000396000f3fe608060405234801561001057600080fd5b50600436106100575760003560e01c806395663f051461005c578063b18037fd14610089578063b6f6580a1461009c578063d0f9410b146100bd578063d5c9712f146100d0575b600080fd5b61006f61006a3660046106ff565b6100e3565b604080519283526020830191909152015b60405180910390f35b61006f61009736600461074d565b6101a0565b6100af6100aa366004610792565b6102c5565b604051908152602001610080565b6100af6100cb3660046107ab565b6103ef565b6100af6100de3660046106ff565b6105c9565b60008060005b60008686815181106100fd576100fd610866565b016020015160f81c9050600785901c8211156101345760405162461bcd60e51b815260040161012b9061087c565b60405180910390fd5b61013f6001876108e6565b955060079190911b607f821617906080811615610187578482036101755760405162461bcd60e51b815260040161012b9061087c565b8161017f816108ff565b925050610192565b509150839050610198565b506100e9565b935093915050565b60008060008484815181106101b7576101b7610866565b016020015160f81c90506101cc6001856108e6565b935060fd8160ff1610156101e75760ff1691508290506102be565b8060ff1660fd03610213576101fe858560106105c9565b6102098560026108e6565b92509250506102be565b8060ff1660fe036102355761022a858560206105c9565b6102098560046108e6565b8060ff1660ff036102575761024c858560406105c9565b6102098560086108e6565b60405162461bcd60e51b815260206004820152603660248201527f23537973636f696e4d6573736167654c696272617279207061727365436f6d7060448201527561637453697a6520696e76616c6964206f70636f646560501b606482015260840161012b565b9250929050565b60405160009060ff8316815382601e1a600182015382601d1a600282015382601c1a600382015382601b1a600482015382601a1a60058201538260191a60068201538260181a60078201538260171a60088201538260161a60098201538260151a600a8201538260141a600b8201538260131a600c8201538260121a600d8201538260111a600e8201538260101a600f82015382600f1a601082015382600e1a601182015382600d1a601282015382600c1a601382015382600b1a601482015382600a1a60158201538260091a60168201538260081a60178201538260071a60188201538260061a60198201538260051a601a8201538260041a601b8201538260031a601c8201538260021a601d8201538260011a601e8201538260001a601f8201535192915050565b8051600090815b8181101561044f5761042084828151811061041357610413610866565b60200260200101516102c5565b84828151811061043257610432610866565b602090810291909101015280610447816108ff565b9150506103f6565b5060008061045c876102c5565b90505b828210156105b557600085838151811061047b5761047b610866565b60200260200101519050600080600289610495919061092e565b6001036104a65750819050826104ac565b50829050815b60028083836040516020016104cb929190918252602082015260400190565b60408051601f19818403018152908290526104e591610942565b602060405180830381855afa158015610502573d6000803e3d6000fd5b5050506040513d601f19601f820116820180604052508101906105259190610971565b60405160200161053791815260200190565b60408051601f198184030181529082905261055191610942565b602060405180830381855afa15801561056e573d6000803e3d6000fd5b5050506040513d601f19601f820116820180604052508101906105919190610971565b935061059e60028a61098a565b98506105ab6001866108e6565b945050505061045f565b6105be816102c5565b979650505050505050565b6000805b6105d860088461098a565b811015610640576105ea81600861099e565b6105f5906002610a99565b8561060083876108e6565b8151811061061057610610610866565b0160200151610622919060f81c61099e565b61062c90836108e6565b915080610638816108ff565b9150506105cd565b509392505050565b634e487b7160e01b600052604160045260246000fd5b604051601f8201601f1916810167ffffffffffffffff8111828210171561068757610687610648565b604052919050565b600082601f8301126106a057600080fd5b813567ffffffffffffffff8111156106ba576106ba610648565b6106cd601f8201601f191660200161065e565b8181528460208386010111156106e257600080fd5b816020850160208301376000918101602001919091529392505050565b60008060006060848603121561071457600080fd5b833567ffffffffffffffff81111561072b57600080fd5b6107378682870161068f565b9660208601359650604090950135949350505050565b6000806040838503121561076057600080fd5b823567ffffffffffffffff81111561077757600080fd5b6107838582860161068f565b95602094909401359450505050565b6000602082840312156107a457600080fd5b5035919050565b6000806000606084860312156107c057600080fd5b833592506020808501359250604085013567ffffffffffffffff808211156107e757600080fd5b818701915087601f8301126107fb57600080fd5b81358181111561080d5761080d610648565b8060051b915061081e84830161065e565b818152918301840191848101908a84111561083857600080fd5b938501935b838510156108565784358252938501939085019061083d565b8096505050505050509250925092565b634e487b7160e01b600052603260045260246000fd5b60208082526034908201527f23537973636f696e4d6573736167654c696272617279207061727365566172496040820152736e7428293a2073697a6520746f6f206c6172676560601b606082015260800190565b634e487b7160e01b600052601160045260246000fd5b808201808211156108f9576108f96108d0565b92915050565b600060018201610911576109116108d0565b5060010190565b634e487b7160e01b600052601260045260246000fd5b60008261093d5761093d610918565b500690565b6000825160005b818110156109635760208186018101518583015201610949565b506000920191825250919050565b60006020828403121561098357600080fd5b5051919050565b60008261099957610999610918565b500490565b80820281158282048414176108f9576108f96108d0565b600181815b808511156109f05781600019048211156109d6576109d66108d0565b808516156109e357918102915b93841c93908002906109ba565b509250929050565b600082610a07575060016108f9565b81610a14575060006108f9565b8160018114610a2a5760028114610a3457610a50565b60019150506108f9565b60ff841115610a4557610a456108d0565b50506001821b6108f9565b5060208310610133831016604e8410600b8410161715610a73575081810a6108f9565b610a7d83836109b5565b8060001904821115610a9157610a916108d0565b029392505050565b6000610aa583836109f8565b939250505056fea2646970667358221220195a021b534e2c34e888fe3364b94978c18022e5e0b2b4f13cf543d12c69235f64736f6c63430008110033",
  "immutableReferences": {},
  "source": "// SPDX-License-Identifier: MIT\npragma solidity ^0.8.17;\n\n\n// parse a raw Syscoin transaction byte array\ncontract SyscoinMessageLibrary {\n\n    // Convert a compact size for wire for variable length fields\n    function parseCompactSize(bytes memory txBytes, uint pos) public pure returns (uint, uint) {\n        // the first byte tells us how big the integer is\n        uint8 ibit = uint8(txBytes[pos]);\n        pos += 1;  // skip ibit\n\n        if (ibit < 0xfd) {\n            return (ibit, pos);\n        } else if (ibit == 0xfd) {\n            return (getBytesLE(txBytes, pos, 16), pos + 2);\n        } else if (ibit == 0xfe) {\n            return (getBytesLE(txBytes, pos, 32), pos + 4);\n        } else if (ibit == 0xff) {\n            return (getBytesLE(txBytes, pos, 64), pos + 8);\n        }\n        revert('#SyscoinMessageLibrary parseCompactSize invalid opcode');\n    }\n    // Convert a variable integer into something useful and return it and\n    // the index to after it.\n    function parseVarInt(bytes memory txBytes, uint pos, uint max) public pure returns (uint, uint) {\n        uint n = 0;\n        while(true) {\n            uint8 chData = uint8(txBytes[pos]);\n            require(n <= (max >> 7), \"#SyscoinMessageLibrary parseVarInt(): size too large\");\n            pos += 1;\n            n = (n << 7) | (chData & 0x7F);\n            if ((chData & 0x80) > 0) {\n                require((n != max), \"#SyscoinMessageLibrary parseVarInt(): size too large\");\n                n++;\n            } else {\n                return (n, pos);\n            }\n        }\n        revert('#SyscoinMessageLibrary parseVarInt invalid opcode');\n    }\n\n    // convert little endian bytes to uint\n    function getBytesLE(bytes memory data, uint pos, uint bits)\n        public\n        pure\n        returns (uint256 result)\n    {\n        for (uint256 i = 0; i < bits / 8; i++) {\n            result += uint256(uint8(data[pos + i])) * 2 ** (i * 8);\n        }\n    }\n\n\n    // @dev - convert an unsigned integer from little-endian to big-endian representation\n    //\n    // @param _input - little-endian value\n    // @return - input value in big-endian format\n    function flip32Bytes(uint _input) public pure returns (uint result) {\n        assembly {\n            let pos := mload(0x40)\n            mstore8(add(pos, 0), byte(31, _input))\n            mstore8(add(pos, 1), byte(30, _input))\n            mstore8(add(pos, 2), byte(29, _input))\n            mstore8(add(pos, 3), byte(28, _input))\n            mstore8(add(pos, 4), byte(27, _input))\n            mstore8(add(pos, 5), byte(26, _input))\n            mstore8(add(pos, 6), byte(25, _input))\n            mstore8(add(pos, 7), byte(24, _input))\n            mstore8(add(pos, 8), byte(23, _input))\n            mstore8(add(pos, 9), byte(22, _input))\n            mstore8(add(pos, 10), byte(21, _input))\n            mstore8(add(pos, 11), byte(20, _input))\n            mstore8(add(pos, 12), byte(19, _input))\n            mstore8(add(pos, 13), byte(18, _input))\n            mstore8(add(pos, 14), byte(17, _input))\n            mstore8(add(pos, 15), byte(16, _input))\n            mstore8(add(pos, 16), byte(15, _input))\n            mstore8(add(pos, 17), byte(14, _input))\n            mstore8(add(pos, 18), byte(13, _input))\n            mstore8(add(pos, 19), byte(12, _input))\n            mstore8(add(pos, 20), byte(11, _input))\n            mstore8(add(pos, 21), byte(10, _input))\n            mstore8(add(pos, 22), byte(9, _input))\n            mstore8(add(pos, 23), byte(8, _input))\n            mstore8(add(pos, 24), byte(7, _input))\n            mstore8(add(pos, 25), byte(6, _input))\n            mstore8(add(pos, 26), byte(5, _input))\n            mstore8(add(pos, 27), byte(4, _input))\n            mstore8(add(pos, 28), byte(3, _input))\n            mstore8(add(pos, 29), byte(2, _input))\n            mstore8(add(pos, 30), byte(1, _input))\n            mstore8(add(pos, 31), byte(0, _input))\n            result := mload(pos)\n        }\n    }\n    \n    // @dev - For a valid proof, returns the root of the Merkle tree.\n    //\n    // @param _txHash - transaction hash\n    // @param _txIndex - transaction's index within the block it's assumed to be in\n    // @param _siblings - transaction's Merkle siblings\n    // @return - Merkle tree root of the block the transaction belongs to if the proof is valid,\n    // garbage if it's invalid\n    function computeMerkle(uint _txHash, uint _txIndex, uint[] memory _siblings)\n        public\n        pure\n        returns (uint)\n    {\n        uint length = _siblings.length;\n        uint i;\n        for (i = 0; i < length; i++) {\n            _siblings[i] = flip32Bytes(_siblings[i]);\n        }\n\n        i = 0;\n        uint resultHash = flip32Bytes(_txHash);        \n\n        while (i < length) {\n            uint proofHex = _siblings[i];\n\n            uint left;\n            uint right;\n            if (_txIndex % 2 == 1) { // 0 means _siblings is on the right; 1 means left\n                left = proofHex;\n                right = resultHash;\n            } else {\n                left = resultHash;\n                right = proofHex;\n            }\n            resultHash = uint(sha256(abi.encodePacked(sha256(abi.encodePacked(left, right)))));\n\n            _txIndex /= 2;\n            i += 1;\n        }\n\n        return flip32Bytes(resultHash);\n    }\n}\n",
  "sourcePath": "/Users/jagsidhu/work/Documents/GitHub/sysethereum-contracts/contracts/SyscoinParser/SyscoinMessageLibrary.sol",
  "compiler": {
    "name": "solc",
    "version": "0.8.17+commit.8df45f5f.Emscripten.clang"
  },
  "schemaVersion": "3.4.3",
  "updatedAt": "2024-08-28T20:37:46.055Z",
  "devdoc": {
    "kind": "dev",
    "methods": {},
    "version": 1
  },
  "userdoc": {
    "kind": "user",
    "methods": {},
    "version": 1
  }
}