{
  "contractName": "SyscoinSuperblocks",
  "abi": [
    {
      "anonymous": false,
      "inputs": [
        {
          "indexed": false,
          "internalType": "bytes32",
          "name": "superblockHash",
          "type": "bytes32"
        },
        {
          "indexed": false,
          "internalType": "address",
          "name": "who",
          "type": "address"
        }
      ],
      "name": "ApprovedSuperblock",
      "type": "event"
    },
    {
      "anonymous": false,
      "inputs": [
        {
          "indexed": false,
          "internalType": "uint256",
          "name": "returnCode",
          "type": "uint256"
        }
      ],
      "name": "ChallengeCancelTransferRequest",
      "type": "event"
    },
    {
      "anonymous": false,
      "inputs": [
        {
          "indexed": false,
          "internalType": "bytes32",
          "name": "superblockHash",
          "type": "bytes32"
        },
        {
          "indexed": false,
          "internalType": "address",
          "name": "who",
          "type": "address"
        }
      ],
      "name": "ChallengeSuperblock",
      "type": "event"
    },
    {
      "anonymous": false,
      "inputs": [
        {
          "indexed": false,
          "internalType": "bytes32",
          "name": "superblockHash",
          "type": "bytes32"
        },
        {
          "indexed": false,
          "internalType": "uint256",
          "name": "err",
          "type": "uint256"
        }
      ],
      "name": "ErrorSuperblock",
      "type": "event"
    },
    {
      "anonymous": false,
      "inputs": [
        {
          "indexed": false,
          "internalType": "bytes32",
          "name": "superblockHash",
          "type": "bytes32"
        },
        {
          "indexed": false,
          "internalType": "address",
          "name": "who",
          "type": "address"
        }
      ],
      "name": "InvalidSuperblock",
      "type": "event"
    },
    {
      "anonymous": false,
      "inputs": [
        {
          "indexed": false,
          "internalType": "bytes32",
          "name": "superblockHash",
          "type": "bytes32"
        },
        {
          "indexed": false,
          "internalType": "address",
          "name": "who",
          "type": "address"
        }
      ],
      "name": "NewSuperblock",
      "type": "event"
    },
    {
      "anonymous": false,
      "inputs": [
        {
          "indexed": false,
          "internalType": "bytes32",
          "name": "txHash",
          "type": "bytes32"
        },
        {
          "indexed": false,
          "internalType": "uint256",
          "name": "returnCode",
          "type": "uint256"
        }
      ],
      "name": "RelayTransaction",
      "type": "event"
    },
    {
      "anonymous": false,
      "inputs": [
        {
          "indexed": false,
          "internalType": "bytes32",
          "name": "superblockHash",
          "type": "bytes32"
        },
        {
          "indexed": false,
          "internalType": "address",
          "name": "who",
          "type": "address"
        }
      ],
      "name": "SemiApprovedSuperblock",
      "type": "event"
    },
    {
      "anonymous": false,
      "inputs": [
        {
          "indexed": false,
          "internalType": "bytes32",
          "name": "txHash",
          "type": "bytes32"
        },
        {
          "indexed": false,
          "internalType": "uint256",
          "name": "returnCode",
          "type": "uint256"
        }
      ],
      "name": "VerifyTransaction",
      "type": "event"
    },
    {
      "constant": true,
      "inputs": [
        {
          "internalType": "bytes",
          "name": "input",
          "type": "bytes"
        },
        {
          "internalType": "uint256",
          "name": "pos",
          "type": "uint256"
        }
      ],
      "name": "bytesToUint32Flipped",
      "outputs": [
        {
          "internalType": "uint32",
          "name": "result",
          "type": "uint32"
        }
      ],
      "payable": false,
      "stateMutability": "pure",
      "type": "function"
    },
    {
      "constant": true,
      "inputs": [
        {
          "internalType": "uint256",
          "name": "_txHash",
          "type": "uint256"
        },
        {
          "internalType": "uint256",
          "name": "_txIndex",
          "type": "uint256"
        },
        {
          "internalType": "uint256[]",
          "name": "_siblings",
          "type": "uint256[]"
        }
      ],
      "name": "computeMerkle",
      "outputs": [
        {
          "internalType": "uint256",
          "name": "",
          "type": "uint256"
        }
      ],
      "payable": false,
      "stateMutability": "pure",
      "type": "function"
    },
    {
      "constant": true,
      "inputs": [
        {
          "internalType": "uint256",
          "name": "_input",
          "type": "uint256"
        }
      ],
      "name": "flip32Bytes",
      "outputs": [
        {
          "internalType": "uint256",
          "name": "result",
          "type": "uint256"
        }
      ],
      "payable": false,
      "stateMutability": "pure",
      "type": "function"
    },
    {
      "constant": true,
      "inputs": [
        {
          "internalType": "bytes",
          "name": "data",
          "type": "bytes"
        },
        {
          "internalType": "uint256",
          "name": "pos",
          "type": "uint256"
        },
        {
          "internalType": "uint256",
          "name": "bits",
          "type": "uint256"
        }
      ],
      "name": "getBytesLE",
      "outputs": [
        {
          "internalType": "uint256",
          "name": "result",
          "type": "uint256"
        }
      ],
      "payable": false,
      "stateMutability": "pure",
      "type": "function"
    },
    {
      "constant": true,
      "inputs": [],
      "name": "minProposalDeposit",
      "outputs": [
        {
          "internalType": "uint256",
          "name": "",
          "type": "uint256"
        }
      ],
      "payable": false,
      "stateMutability": "view",
      "type": "function"
    },
    {
      "constant": true,
      "inputs": [
        {
          "internalType": "bytes",
          "name": "txBytes",
          "type": "bytes"
        },
        {
          "internalType": "uint256",
          "name": "pos",
          "type": "uint256"
        }
      ],
      "name": "parseVarInt",
      "outputs": [
        {
          "internalType": "uint256",
          "name": "",
          "type": "uint256"
        },
        {
          "internalType": "uint256",
          "name": "",
          "type": "uint256"
        }
      ],
      "payable": false,
      "stateMutability": "pure",
      "type": "function"
    },
    {
      "constant": true,
      "inputs": [
        {
          "internalType": "bytes",
          "name": "_rawBytes",
          "type": "bytes"
        },
        {
          "internalType": "uint256",
          "name": "offset",
          "type": "uint256"
        },
        {
          "internalType": "uint256",
          "name": "_endIndex",
          "type": "uint256"
        }
      ],
      "name": "sliceArray",
      "outputs": [
        {
          "internalType": "bytes",
          "name": "",
          "type": "bytes"
        }
      ],
      "payable": false,
      "stateMutability": "view",
      "type": "function"
    },
    {
      "constant": true,
      "inputs": [],
      "name": "syscoinERC20Manager",
      "outputs": [
        {
          "internalType": "contract SyscoinTransactionProcessor",
          "name": "",
          "type": "address"
        }
      ],
      "payable": false,
      "stateMutability": "view",
      "type": "function"
    },
    {
      "constant": true,
      "inputs": [],
      "name": "trustedClaimManager",
      "outputs": [
        {
          "internalType": "address",
          "name": "",
          "type": "address"
        }
      ],
      "payable": false,
      "stateMutability": "view",
      "type": "function"
    },
    {
      "constant": false,
      "inputs": [
        {
          "internalType": "address",
          "name": "_syscoinERC20Manager",
          "type": "address"
        },
        {
          "internalType": "address",
          "name": "_claimManager",
          "type": "address"
        }
      ],
      "name": "init",
      "outputs": [],
      "payable": false,
      "stateMutability": "nonpayable",
      "type": "function"
    },
    {
      "constant": true,
      "inputs": [
        {
          "internalType": "bytes",
          "name": "input",
          "type": "bytes"
        },
        {
          "internalType": "uint256",
          "name": "pos",
          "type": "uint256"
        }
      ],
      "name": "bytesToUint64",
      "outputs": [
        {
          "internalType": "uint64",
          "name": "result",
          "type": "uint64"
        }
      ],
      "payable": false,
      "stateMutability": "pure",
      "type": "function"
    },
    {
      "constant": true,
      "inputs": [
        {
          "internalType": "bytes",
          "name": "input",
          "type": "bytes"
        },
        {
          "internalType": "uint256",
          "name": "pos",
          "type": "uint256"
        }
      ],
      "name": "bytesToUint32",
      "outputs": [
        {
          "internalType": "uint32",
          "name": "result",
          "type": "uint32"
        }
      ],
      "payable": false,
      "stateMutability": "pure",
      "type": "function"
    },
    {
      "constant": true,
      "inputs": [
        {
          "internalType": "bytes",
          "name": "txBytes",
          "type": "bytes"
        },
        {
          "internalType": "uint256",
          "name": "pos",
          "type": "uint256"
        }
      ],
      "name": "getOpReturnPos",
      "outputs": [
        {
          "internalType": "uint256",
          "name": "",
          "type": "uint256"
        }
      ],
      "payable": false,
      "stateMutability": "pure",
      "type": "function"
    },
    {
      "constant": true,
      "inputs": [
        {
          "internalType": "bytes",
          "name": "txBytes",
          "type": "bytes"
        }
      ],
      "name": "parseMintTx",
      "outputs": [
        {
          "internalType": "uint256",
          "name": "errorCode",
          "type": "uint256"
        },
        {
          "internalType": "uint32",
          "name": "bridgeTransferId",
          "type": "uint32"
        }
      ],
      "payable": false,
      "stateMutability": "view",
      "type": "function"
    },
    {
      "constant": true,
      "inputs": [
        {
          "internalType": "bytes",
          "name": "txBytes",
          "type": "bytes"
        }
      ],
      "name": "parseAssetTx",
      "outputs": [
        {
          "internalType": "uint256",
          "name": "errorCode",
          "type": "uint256"
        },
        {
          "internalType": "uint32",
          "name": "assetGuid",
          "type": "uint32"
        },
        {
          "internalType": "address",
          "name": "erc20Address",
          "type": "address"
        }
      ],
      "payable": false,
      "stateMutability": "view",
      "type": "function"
    },
    {
      "constant": true,
      "inputs": [
        {
          "internalType": "bytes",
          "name": "input",
          "type": "bytes"
        },
        {
          "internalType": "uint256",
          "name": "pos",
          "type": "uint256"
        }
      ],
      "name": "bytesToUint16",
      "outputs": [
        {
          "internalType": "uint16",
          "name": "result",
          "type": "uint16"
        }
      ],
      "payable": false,
      "stateMutability": "pure",
      "type": "function"
    },
    {
      "constant": true,
      "inputs": [
        {
          "internalType": "bytes",
          "name": "txBytes",
          "type": "bytes"
        },
        {
          "internalType": "uint256",
          "name": "pos",
          "type": "uint256"
        }
      ],
      "name": "getEthReceipt",
      "outputs": [
        {
          "internalType": "bytes",
          "name": "",
          "type": "bytes"
        }
      ],
      "payable": false,
      "stateMutability": "view",
      "type": "function"
    },
    {
      "constant": true,
      "inputs": [
        {
          "internalType": "bytes",
          "name": "txBytes",
          "type": "bytes"
        },
        {
          "internalType": "uint256",
          "name": "pos",
          "type": "uint256"
        }
      ],
      "name": "scanAssetTx",
      "outputs": [
        {
          "internalType": "uint32",
          "name": "",
          "type": "uint32"
        },
        {
          "internalType": "address",
          "name": "",
          "type": "address"
        }
      ],
      "payable": false,
      "stateMutability": "view",
      "type": "function"
    },
    {
      "constant": true,
      "inputs": [
        {
          "internalType": "bytes",
          "name": "_rawBytes",
          "type": "bytes"
        },
        {
          "internalType": "uint256",
          "name": "pos",
          "type": "uint256"
        }
      ],
      "name": "bytesToBytes32",
      "outputs": [
        {
          "internalType": "bytes32",
          "name": "",
          "type": "bytes32"
        }
      ],
      "payable": false,
      "stateMutability": "pure",
      "type": "function"
    },
    {
      "constant": true,
      "inputs": [
        {
          "internalType": "bytes",
          "name": "ethTxReceipt",
          "type": "bytes"
        },
        {
          "internalType": "bytes32",
          "name": "expectedTopic",
          "type": "bytes32"
        }
      ],
      "name": "getLogValuesForTopic",
      "outputs": [
        {
          "internalType": "bytes",
          "name": "",
          "type": "bytes"
        }
      ],
      "payable": false,
      "stateMutability": "pure",
      "type": "function"
    },
    {
      "constant": true,
      "inputs": [
        {
          "internalType": "bytes",
          "name": "logValues",
          "type": "bytes"
        }
      ],
      "name": "getBridgeTransactionId",
      "outputs": [
        {
          "internalType": "uint256",
          "name": "value",
          "type": "uint256"
        }
      ],
      "payable": false,
      "stateMutability": "pure",
      "type": "function"
    },
    {
      "constant": false,
      "inputs": [
        {
          "internalType": "bytes32",
          "name": "_blocksMerkleRoot",
          "type": "bytes32"
        },
        {
          "internalType": "uint256",
          "name": "_timestamp",
          "type": "uint256"
        },
        {
          "internalType": "uint256",
          "name": "_mtpTimestamp",
          "type": "uint256"
        },
        {
          "internalType": "bytes32",
          "name": "_lastHash",
          "type": "bytes32"
        },
        {
          "internalType": "uint32",
          "name": "_lastBits",
          "type": "uint32"
        },
        {
          "internalType": "bytes32",
          "name": "_parentId",
          "type": "bytes32"
        }
      ],
      "name": "initialize",
      "outputs": [
        {
          "internalType": "uint256",
          "name": "",
          "type": "uint256"
        },
        {
          "internalType": "bytes32",
          "name": "",
          "type": "bytes32"
        }
      ],
      "payable": false,
      "stateMutability": "nonpayable",
      "type": "function"
    },
    {
      "constant": false,
      "inputs": [
        {
          "internalType": "bytes32",
          "name": "_blocksMerkleRoot",
          "type": "bytes32"
        },
        {
          "internalType": "uint256",
          "name": "_timestamp",
          "type": "uint256"
        },
        {
          "internalType": "uint256",
          "name": "_mtpTimestamp",
          "type": "uint256"
        },
        {
          "internalType": "bytes32",
          "name": "_lastHash",
          "type": "bytes32"
        },
        {
          "internalType": "uint32",
          "name": "_lastBits",
          "type": "uint32"
        },
        {
          "internalType": "bytes32",
          "name": "_parentId",
          "type": "bytes32"
        },
        {
          "internalType": "address",
          "name": "submitter",
          "type": "address"
        }
      ],
      "name": "propose",
      "outputs": [
        {
          "internalType": "uint256",
          "name": "",
          "type": "uint256"
        },
        {
          "internalType": "bytes32",
          "name": "",
          "type": "bytes32"
        }
      ],
      "payable": false,
      "stateMutability": "nonpayable",
      "type": "function"
    },
    {
      "constant": false,
      "inputs": [
        {
          "internalType": "bytes32",
          "name": "_superblockHash",
          "type": "bytes32"
        },
        {
          "internalType": "address",
          "name": "_validator",
          "type": "address"
        }
      ],
      "name": "confirm",
      "outputs": [
        {
          "internalType": "uint256",
          "name": "",
          "type": "uint256"
        }
      ],
      "payable": false,
      "stateMutability": "nonpayable",
      "type": "function"
    },
    {
      "constant": false,
      "inputs": [
        {
          "internalType": "bytes32",
          "name": "_superblockHash",
          "type": "bytes32"
        },
        {
          "internalType": "address",
          "name": "_challenger",
          "type": "address"
        }
      ],
      "name": "challenge",
      "outputs": [
        {
          "internalType": "uint256",
          "name": "",
          "type": "uint256"
        }
      ],
      "payable": false,
      "stateMutability": "nonpayable",
      "type": "function"
    },
    {
      "constant": false,
      "inputs": [
        {
          "internalType": "bytes32",
          "name": "_superblockHash",
          "type": "bytes32"
        },
        {
          "internalType": "address",
          "name": "_validator",
          "type": "address"
        }
      ],
      "name": "semiApprove",
      "outputs": [
        {
          "internalType": "uint256",
          "name": "",
          "type": "uint256"
        }
      ],
      "payable": false,
      "stateMutability": "nonpayable",
      "type": "function"
    },
    {
      "constant": false,
      "inputs": [
        {
          "internalType": "bytes32",
          "name": "_superblockHash",
          "type": "bytes32"
        },
        {
          "internalType": "address",
          "name": "_validator",
          "type": "address"
        }
      ],
      "name": "invalidate",
      "outputs": [
        {
          "internalType": "uint256",
          "name": "",
          "type": "uint256"
        }
      ],
      "payable": false,
      "stateMutability": "nonpayable",
      "type": "function"
    },
    {
      "constant": false,
      "inputs": [
        {
          "internalType": "bytes",
          "name": "_txBytes",
          "type": "bytes"
        },
        {
          "internalType": "uint256",
          "name": "_txIndex",
          "type": "uint256"
        },
        {
          "internalType": "uint256[]",
          "name": "_txSiblings",
          "type": "uint256[]"
        },
        {
          "internalType": "bytes",
          "name": "_syscoinBlockHeader",
          "type": "bytes"
        },
        {
          "internalType": "uint256",
          "name": "_syscoinBlockIndex",
          "type": "uint256"
        },
        {
          "internalType": "uint256[]",
          "name": "_syscoinBlockSiblings",
          "type": "uint256[]"
        },
        {
          "internalType": "bytes32",
          "name": "_superblockHash",
          "type": "bytes32"
        }
      ],
      "name": "relayTx",
      "outputs": [
        {
          "internalType": "uint256",
          "name": "",
          "type": "uint256"
        }
      ],
      "payable": false,
      "stateMutability": "nonpayable",
      "type": "function"
    },
    {
      "constant": false,
      "inputs": [
        {
          "internalType": "bytes",
          "name": "_txBytes",
          "type": "bytes"
        },
        {
          "internalType": "uint256",
          "name": "_txIndex",
          "type": "uint256"
        },
        {
          "internalType": "uint256[]",
          "name": "_txSiblings",
          "type": "uint256[]"
        },
        {
          "internalType": "bytes",
          "name": "_syscoinBlockHeader",
          "type": "bytes"
        },
        {
          "internalType": "uint256",
          "name": "_syscoinBlockIndex",
          "type": "uint256"
        },
        {
          "internalType": "uint256[]",
          "name": "_syscoinBlockSiblings",
          "type": "uint256[]"
        },
        {
          "internalType": "bytes32",
          "name": "_superblockHash",
          "type": "bytes32"
        }
      ],
      "name": "relayAssetTx",
      "outputs": [
        {
          "internalType": "uint256",
          "name": "",
          "type": "uint256"
        }
      ],
      "payable": false,
      "stateMutability": "nonpayable",
      "type": "function"
    },
    {
      "constant": false,
      "inputs": [
        {
          "internalType": "bytes",
          "name": "_txBytes",
          "type": "bytes"
        },
        {
          "internalType": "uint256",
          "name": "_txIndex",
          "type": "uint256"
        },
        {
          "internalType": "uint256[]",
          "name": "_txSiblings",
          "type": "uint256[]"
        },
        {
          "internalType": "bytes",
          "name": "_syscoinBlockHeader",
          "type": "bytes"
        },
        {
          "internalType": "uint256",
          "name": "_syscoinBlockIndex",
          "type": "uint256"
        },
        {
          "internalType": "uint256[]",
          "name": "_syscoinBlockSiblings",
          "type": "uint256[]"
        },
        {
          "internalType": "bytes32",
          "name": "_superblockHash",
          "type": "bytes32"
        }
      ],
      "name": "challengeCancelTransfer",
      "outputs": [
        {
          "internalType": "uint256",
          "name": "",
          "type": "uint256"
        }
      ],
      "payable": false,
      "stateMutability": "nonpayable",
      "type": "function"
    },
    {
      "constant": true,
      "inputs": [
        {
          "internalType": "bytes",
          "name": "txBytes",
          "type": "bytes"
        }
      ],
      "name": "parseBurnTx",
      "outputs": [
        {
          "internalType": "uint256",
          "name": "",
          "type": "uint256"
        },
        {
          "internalType": "uint256",
          "name": "",
          "type": "uint256"
        },
        {
          "internalType": "address",
          "name": "",
          "type": "address"
        },
        {
          "internalType": "uint32",
          "name": "",
          "type": "uint32"
        },
        {
          "internalType": "uint8",
          "name": "",
          "type": "uint8"
        },
        {
          "internalType": "address",
          "name": "",
          "type": "address"
        }
      ],
      "payable": false,
      "stateMutability": "pure",
      "type": "function"
    },
    {
      "constant": true,
      "inputs": [
        {
          "internalType": "bytes",
          "name": "_dataBytes",
          "type": "bytes"
        }
      ],
      "name": "dblShaFlip",
      "outputs": [
        {
          "internalType": "uint256",
          "name": "",
          "type": "uint256"
        }
      ],
      "payable": false,
      "stateMutability": "pure",
      "type": "function"
    },
    {
      "constant": true,
      "inputs": [
        {
          "internalType": "bytes",
          "name": "_blockHeader",
          "type": "bytes"
        }
      ],
      "name": "getHeaderMerkleRoot",
      "outputs": [
        {
          "internalType": "uint256",
          "name": "",
          "type": "uint256"
        }
      ],
      "payable": false,
      "stateMutability": "pure",
      "type": "function"
    },
    {
      "constant": true,
      "inputs": [
        {
          "internalType": "bytes32",
          "name": "_blocksMerkleRoot",
          "type": "bytes32"
        },
        {
          "internalType": "uint256",
          "name": "_timestamp",
          "type": "uint256"
        },
        {
          "internalType": "uint256",
          "name": "_mtpTimestamp",
          "type": "uint256"
        },
        {
          "internalType": "bytes32",
          "name": "_lastHash",
          "type": "bytes32"
        },
        {
          "internalType": "uint32",
          "name": "_lastBits",
          "type": "uint32"
        },
        {
          "internalType": "bytes32",
          "name": "_parentId",
          "type": "bytes32"
        }
      ],
      "name": "calcSuperblockHash",
      "outputs": [
        {
          "internalType": "bytes32",
          "name": "",
          "type": "bytes32"
        }
      ],
      "payable": false,
      "stateMutability": "pure",
      "type": "function"
    },
    {
      "constant": true,
      "inputs": [],
      "name": "getBestSuperblock",
      "outputs": [
        {
          "internalType": "bytes32",
          "name": "",
          "type": "bytes32"
        }
      ],
      "payable": false,
      "stateMutability": "view",
      "type": "function"
    },
    {
      "constant": true,
      "inputs": [
        {
          "internalType": "bytes32",
          "name": "superblockHash",
          "type": "bytes32"
        }
      ],
      "name": "getSuperblock",
      "outputs": [
        {
          "internalType": "bytes32",
          "name": "_blocksMerkleRoot",
          "type": "bytes32"
        },
        {
          "internalType": "uint256",
          "name": "_timestamp",
          "type": "uint256"
        },
        {
          "internalType": "uint256",
          "name": "_mtpTimestamp",
          "type": "uint256"
        },
        {
          "internalType": "bytes32",
          "name": "_lastHash",
          "type": "bytes32"
        },
        {
          "internalType": "uint32",
          "name": "_lastBits",
          "type": "uint32"
        },
        {
          "internalType": "bytes32",
          "name": "_parentId",
          "type": "bytes32"
        },
        {
          "internalType": "address",
          "name": "_submitter",
          "type": "address"
        },
        {
          "internalType": "enum SyscoinSuperblocksI.Status",
          "name": "_status",
          "type": "uint8"
        },
        {
          "internalType": "uint32",
          "name": "_height",
          "type": "uint32"
        }
      ],
      "payable": false,
      "stateMutability": "view",
      "type": "function"
    },
    {
      "constant": true,
      "inputs": [
        {
          "internalType": "bytes32",
          "name": "superblockHash",
          "type": "bytes32"
        }
      ],
      "name": "getSuperblockHeight",
      "outputs": [
        {
          "internalType": "uint32",
          "name": "",
          "type": "uint32"
        }
      ],
      "payable": false,
      "stateMutability": "view",
      "type": "function"
    },
    {
      "constant": true,
      "inputs": [
        {
          "internalType": "bytes32",
          "name": "_superblockHash",
          "type": "bytes32"
        }
      ],
      "name": "getSuperblockTimestamp",
      "outputs": [
        {
          "internalType": "uint256",
          "name": "",
          "type": "uint256"
        }
      ],
      "payable": false,
      "stateMutability": "view",
      "type": "function"
    },
    {
      "constant": true,
      "inputs": [
        {
          "internalType": "bytes32",
          "name": "_superblockHash",
          "type": "bytes32"
        }
      ],
      "name": "getSuperblockMedianTimestamp",
      "outputs": [
        {
          "internalType": "uint256",
          "name": "",
          "type": "uint256"
        }
      ],
      "payable": false,
      "stateMutability": "view",
      "type": "function"
    },
    {
      "constant": true,
      "inputs": [
        {
          "internalType": "bytes32",
          "name": "_superblockHash",
          "type": "bytes32"
        }
      ],
      "name": "getSuperblockParentId",
      "outputs": [
        {
          "internalType": "bytes32",
          "name": "",
          "type": "bytes32"
        }
      ],
      "payable": false,
      "stateMutability": "view",
      "type": "function"
    },
    {
      "constant": true,
      "inputs": [
        {
          "internalType": "bytes32",
          "name": "_superblockHash",
          "type": "bytes32"
        }
      ],
      "name": "getSuperblockStatus",
      "outputs": [
        {
          "internalType": "enum SyscoinSuperblocksI.Status",
          "name": "",
          "type": "uint8"
        }
      ],
      "payable": false,
      "stateMutability": "view",
      "type": "function"
    },
    {
      "constant": true,
      "inputs": [],
      "name": "getChainHeight",
      "outputs": [
        {
          "internalType": "uint256",
          "name": "",
          "type": "uint256"
        }
      ],
      "payable": false,
      "stateMutability": "view",
      "type": "function"
    },
    {
      "constant": true,
      "inputs": [
        {
          "internalType": "uint256",
          "name": "_height",
          "type": "uint256"
        }
      ],
      "name": "getSuperblockAt",
      "outputs": [
        {
          "internalType": "bytes32",
          "name": "",
          "type": "bytes32"
        }
      ],
      "payable": false,
      "stateMutability": "view",
      "type": "function"
    }
  ],
  "bytecode": "0x608060405234801561001057600080fd5b506142b6806100206000396000f3fe608060405234801561001057600080fd5b50600436106102695760003560e01c8063828fa8b411610151578063c63128aa116100c3578063e8f421df11610087578063e8f421df146117f6578063ed860976146118de578063f06d520d1461191f578063f09a401614611927578063fbb381a714611957578063fc96c396146119fd57610269565b8063c63128aa1461135e578063c8bd776814611420578063cae0581e1461165f578063d0f9410b146116a0578063d5c9712f1461174d57610269565b8063b6f6580a11610115578063b6f6580a146110dc578063b79bbf46146110f9578063b7a812181461119f578063bb3bf22e14611245578063c0dde98b14611315578063c1f67ab31461133257610269565b8063828fa8b414610f3457806391c9375c14610f7557806395b45ee7146110435780639e20c8031461106f578063a76a9b0f146110bf57610269565b80634b6986fd116101ea57806355e018ce116101ae57806355e018ce14610d9a5780635b57281214610db75780635ec0aedd14610dbf5780636823c56b14610dc75780636e5b707114610e6b5780637420578614610f0857610269565b80634b6986fd14610a2a5780634d7dcfbd14610aed5780635358493914610bac57806353a3273d14610c52578063543a86f614610cf657610269565b80632e400191116102315780632e400191146105eb5780632e901cee146106085780633e0e8a2014610847578063455e616614610965578063484162be1461096d57610269565b8063029c5e2a1461026e578063155ee8941461032d578063244430381461035157806327426f75146105a25780632da8cffd146105ce575b600080fd5b6103146004803603604081101561028457600080fd5b810190602081018135600160201b81111561029e57600080fd5b8201836020820111156102b057600080fd5b803590602001918460018302840111600160201b831117156102d157600080fd5b91908080601f0160208091040260200160405190810160405280939291908181526020018383808284376000920191909152509295505091359250611aa3915050565b6040805163ffffffff9092168252519081900360200190f35b610335611adf565b604080516001600160a01b039092168252519081900360200190f35b610590600480360360e081101561036757600080fd5b810190602081018135600160201b81111561038157600080fd5b82018360208201111561039357600080fd5b803590602001918460018302840111600160201b831117156103b457600080fd5b91908080601f01602080910402602001604051908101604052809392919081815260200183838082843760009201919091525092958435959094909350604081019250602001359050600160201b81111561040e57600080fd5b82018360208201111561042057600080fd5b803590602001918460208302840111600160201b8311171561044157600080fd5b9190808060200260200160405190810160405280939291908181526020018383602002808284376000920191909152509295949360208101935035915050600160201b81111561049057600080fd5b8201836020820111156104a257600080fd5b803590602001918460018302840111600160201b831117156104c357600080fd5b91908080601f01602080910402602001604051908101604052809392919081815260200183838082843760009201919091525092958435959094909350604081019250602001359050600160201b81111561051d57600080fd5b82018360208201111561052f57600080fd5b803590602001918460208302840111600160201b8311171561055057600080fd5b9190808060200260200160405190810160405280939291908181526020018383602002808284376000920191909152509295505091359250611aee915050565b60408051918252519081900360200190f35b610590600480360360408110156105b857600080fd5b50803590602001356001600160a01b0316611c5a565b610590600480360360208110156105e457600080fd5b5035611d92565b6103146004803603602081101561060157600080fd5b5035611daa565b610590600480360360e081101561061e57600080fd5b810190602081018135600160201b81111561063857600080fd5b82018360208201111561064a57600080fd5b803590602001918460018302840111600160201b8311171561066b57600080fd5b91908080601f01602080910402602001604051908101604052809392919081815260200183838082843760009201919091525092958435959094909350604081019250602001359050600160201b8111156106c557600080fd5b8201836020820111156106d757600080fd5b803590602001918460208302840111600160201b831117156106f857600080fd5b9190808060200260200160405190810160405280939291908181526020018383602002808284376000920191909152509295949360208101935035915050600160201b81111561074757600080fd5b82018360208201111561075957600080fd5b803590602001918460018302840111600160201b8311171561077a57600080fd5b91908080601f01602080910402602001604051908101604052809392919081815260200183838082843760009201919091525092958435959094909350604081019250602001359050600160201b8111156107d457600080fd5b8201836020820111156107e657600080fd5b803590602001918460208302840111600160201b8311171561080757600080fd5b9190808060200260200160405190810160405280939291908181526020018383602002808284376000920191909152509295505091359250611dcc915050565b6108f06004803603606081101561085d57600080fd5b810190602081018135600160201b81111561087757600080fd5b82018360208201111561088957600080fd5b803590602001918460018302840111600160201b831117156108aa57600080fd5b91908080601f0160208091040260200160405190810160405280939291908181526020018383808284376000920191909152509295505082359350505060200135611ee3565b6040805160208082528351818301528351919283929083019185019080838360005b8381101561092a578181015183820152602001610912565b50505050905090810190601f1680156109575780820380516001836020036101000a031916815260200191505b509250505060405180910390f35b610590611f3e565b610a136004803603604081101561098357600080fd5b810190602081018135600160201b81111561099d57600080fd5b8201836020820111156109af57600080fd5b803590602001918460018302840111600160201b831117156109d057600080fd5b91908080601f0160208091040260200160405190810160405280939291908181526020018383808284376000920191909152509295505091359250611f4a915050565b6040805161ffff9092168252519081900360200190f35b610ad060048036036040811015610a4057600080fd5b810190602081018135600160201b811115610a5a57600080fd5b820183602082011115610a6c57600080fd5b803590602001918460018302840111600160201b83111715610a8d57600080fd5b91908080601f0160208091040260200160405190810160405280939291908181526020018383808284376000920191909152509295505091359250611f8c915050565b6040805167ffffffffffffffff9092168252519081900360200190f35b610b9360048036036040811015610b0357600080fd5b810190602081018135600160201b811115610b1d57600080fd5b820183602082011115610b2f57600080fd5b803590602001918460018302840111600160201b83111715610b5057600080fd5b91908080601f01602080910402602001604051908101604052809392919081815260200183838082843760009201919091525092955050913592506120c0915050565b6040805192835260208301919091528051918290030190f35b61059060048036036040811015610bc257600080fd5b810190602081018135600160201b811115610bdc57600080fd5b820183602082011115610bee57600080fd5b803590602001918460018302840111600160201b83111715610c0f57600080fd5b91908080601f0160208091040260200160405190810160405280939291908181526020018383808284376000920191909152509295505091359250612173915050565b61059060048036036020811015610c6857600080fd5b810190602081018135600160201b811115610c8257600080fd5b820183602082011115610c9457600080fd5b803590602001918460018302840111600160201b83111715610cb557600080fd5b91908080601f01602080910402602001604051908101604052809392919081815260200183838082843760009201919091525092955061217b945050505050565b61059060048036036020811015610d0c57600080fd5b810190602081018135600160201b811115610d2657600080fd5b820183602082011115610d3857600080fd5b803590602001918460018302840111600160201b83111715610d5957600080fd5b91908080601f016020809104026020016040519081016040528093929190818152602001838380828437600092019190915250929550612182945050505050565b61059060048036036020811015610db057600080fd5b503561231b565b610590612330565b610335612355565b61059060048036036020811015610ddd57600080fd5b810190602081018135600160201b811115610df757600080fd5b820183602082011115610e0957600080fd5b803590602001918460018302840111600160201b83111715610e2a57600080fd5b91908080601f016020809104026020016040519081016040528093929190818152602001838380828437600092019190915250929550612364945050505050565b610e8860048036036020811015610e8157600080fd5b503561237c565b604051808a81526020018981526020018881526020018781526020018663ffffffff1663ffffffff168152602001858152602001846001600160a01b03166001600160a01b03168152602001836005811115610ee057fe5b60ff16815263ffffffff90921660208301525060408051918290030198509650505050505050f35b61059060048036036040811015610f1e57600080fd5b50803590602001356001600160a01b03166123e1565b610590600480360360c0811015610f4a57600080fd5b5080359060208101359060408101359060608101359063ffffffff6080820135169060a00135612517565b61101b60048036036040811015610f8b57600080fd5b810190602081018135600160201b811115610fa557600080fd5b820183602082011115610fb757600080fd5b803590602001918460018302840111600160201b83111715610fd857600080fd5b91908080601f016020809104026020016040519081016040528093929190818152602001838380828437600092019190915250929550509135925061256f915050565b6040805163ffffffff90931683526001600160a01b0390911660208301528051918290030190f35b6105906004803603604081101561105957600080fd5b50803590602001356001600160a01b031661263a565b610b93600480360360e081101561108557600080fd5b50803590602081013590604081013590606081013590608081013563ffffffff169060a08101359060c001356001600160a01b0316612834565b610590600480360360208110156110d557600080fd5b5035612ad0565b610590600480360360208110156110f257600080fd5b5035612ae5565b6105906004803603604081101561110f57600080fd5b810190602081018135600160201b81111561112957600080fd5b82018360208201111561113b57600080fd5b803590602001918460018302840111600160201b8311171561115c57600080fd5b91908080601f0160208091040260200160405190810160405280939291908181526020018383808284376000920191909152509295505091359250612c0f915050565b6108f0600480360360408110156111b557600080fd5b810190602081018135600160201b8111156111cf57600080fd5b8201836020820111156111e157600080fd5b803590602001918460018302840111600160201b8311171561120257600080fd5b91908080601f0160208091040260200160405190810160405280939291908181526020018383808284376000920191909152509295505091359250612dc9915050565b6112e96004803603602081101561125b57600080fd5b810190602081018135600160201b81111561127557600080fd5b82018360208201111561128757600080fd5b803590602001918460018302840111600160201b831117156112a857600080fd5b91908080601f016020809104026020016040519081016040528093929190818152602001838380828437600092019190915250929550612e8d945050505050565b6040805193845263ffffffff90921660208401526001600160a01b031682820152519081900360600190f35b6105906004803603602081101561132b57600080fd5b5035612f80565b6105906004803603604081101561134857600080fd5b50803590602001356001600160a01b0316612fb4565b6114026004803603602081101561137457600080fd5b810190602081018135600160201b81111561138e57600080fd5b8201836020820111156113a057600080fd5b803590602001918460018302840111600160201b831117156113c157600080fd5b91908080601f016020809104026020016040519081016040528093929190818152602001838380828437600092019190915250929550613137945050505050565b6040805192835263ffffffff90911660208301528051918290030190f35b610590600480360360e081101561143657600080fd5b810190602081018135600160201b81111561145057600080fd5b82018360208201111561146257600080fd5b803590602001918460018302840111600160201b8311171561148357600080fd5b91908080601f01602080910402602001604051908101604052809392919081815260200183838082843760009201919091525092958435959094909350604081019250602001359050600160201b8111156114dd57600080fd5b8201836020820111156114ef57600080fd5b803590602001918460208302840111600160201b8311171561151057600080fd5b9190808060200260200160405190810160405280939291908181526020018383602002808284376000920191909152509295949360208101935035915050600160201b81111561155f57600080fd5b82018360208201111561157157600080fd5b803590602001918460018302840111600160201b8311171561159257600080fd5b91908080601f01602080910402602001604051908101604052809392919081815260200183838082843760009201919091525092958435959094909350604081019250602001359050600160201b8111156115ec57600080fd5b8201836020820111156115fe57600080fd5b803590602001918460208302840111600160201b8311171561161f57600080fd5b91908080602002602001604051908101604052809392919081815260200183836020028082843760009201919091525092955050913592506131bb915050565b61167c6004803603602081101561167557600080fd5b50356132df565b6040518082600581111561168c57fe5b60ff16815260200191505060405180910390f35b610590600480360360608110156116b657600080fd5b813591602081013591810190606081016040820135600160201b8111156116dc57600080fd5b8201836020820111156116ee57600080fd5b803590602001918460208302840111600160201b8311171561170f57600080fd5b9190808060200260200160405190810160405280939291908181526020018383602002808284376000920191909152509295506132fe945050505050565b6105906004803603606081101561176357600080fd5b810190602081018135600160201b81111561177d57600080fd5b82018360208201111561178f57600080fd5b803590602001918460018302840111600160201b831117156117b057600080fd5b91908080601f016020809104026020016040519081016040528093929190818152602001838380828437600092019190915250929550508235935050506020013561350d565b61189a6004803603602081101561180c57600080fd5b810190602081018135600160201b81111561182657600080fd5b82018360208201111561183857600080fd5b803590602001918460018302840111600160201b8311171561185957600080fd5b91908080601f016020809104026020016040519081016040528093929190818152602001838380828437600092019190915250929550613547945050505050565b6040805196875260208701959095526001600160a01b039384168686015263ffffffff909216606086015260ff1660808501521660a0830152519081900360c00190f35b610b93600480360360c08110156118f457600080fd5b5080359060208101359060408101359060608101359063ffffffff6080820135169060a001356135de565b610590613737565b6119556004803603604081101561193d57600080fd5b506001600160a01b038135811691602001351661373d565b005b6108f06004803603604081101561196d57600080fd5b810190602081018135600160201b81111561198757600080fd5b82018360208201111561199957600080fd5b803590602001918460018302840111600160201b831117156119ba57600080fd5b91908080601f0160208091040260200160405190810160405280939291908181526020018383808284376000920191909152509295505091359250613868915050565b61031460048036036040811015611a1357600080fd5b810190602081018135600160201b811115611a2d57600080fd5b820183602082011115611a3f57600080fd5b803590602001918460018302840111600160201b83111715611a6057600080fd5b91908080601f016020809104026020016040519081016040528093929190818152602001838380828437600092019190915250929550509135925061395e915050565b6000816020840101516040518160031a60008201538160021a60018201538160011a60028201538160001a60038201535160e01c949350505050565b6036546001600160a01b031681565b600080611b00868686868d8d8d6139ed565b90508015611c1d57600080600080600080611b1a8f613547565b939a50919850929650919450925090508315611b6857604080518881526020810186905281516000805160206140b7833981519152929181900390910190a183975050505050505050611c4f565b60355460008a8152603360205260408082206005015481516315eade2b60e31b8152600481018c9052602481018b90526001600160a01b038a811660448301529182166064820152868216608482015263ffffffff881660a482015260ff861660c4820152915193169263af56f1589260e48084019391929182900301818387803b158015611bf657600080fd5b505af1158015611c0a573d6000803e3d6000fd5b5050505085975050505050505050611c4f565b604080516000815261753a602082015281516000805160206140b7833981519152929181900390910190a161753a9150505b979650505050505050565b6036546000906001600160a01b03163314611ca2576040805184815261c39660208201528151600080516020614097833981519152929181900390910190a15061c396611d8c565b60008381526033602052604090206002600582810154600160e01b900460ff1690811115611ccc57fe5b14158015611cf457506001600582810154600160e01b900460ff1690811115611cf157fe5b14155b15611d2e576040805185815261c36460208201528151600080516020614097833981519152929181900390910190a161c364915050611d8c565b60058101805460ff60e01b1916600360e01b179055604080518581526001600160a01b038516602082015281517f87f54f5eb3dd119fe71af0915af693e64a5bfd4acaa19a6c944c47cff8eec9e6929181900390910190a160009150505b92915050565b6000818152603360205260409020600101545b919050565b600090815260336020526040902060050154600160c01b900463ffffffff1690565b600080611dde868686868d8d8d6139ed565b90508015611c1d576000806000611df48c612e8d565b919450925090508215611e3657604080518581526020810185905281516000805160206140b7833981519152929181900390910190a182945050505050611c4f565b6000868152603360205260408082206005015460355482516317c047e160e01b81526004810189905263ffffffff8781166024830152600160c01b9093048316603c028d0192831660448201526001600160a01b0386811660648301529351929493909116926317c047e19260848084019382900301818387803b158015611ebd57600080fd5b505af1158015611ed1573d6000803e3d6000fd5b50505050600095505050505050611c4f565b6060600083830390506060816040519080825280601f01601f191660200182016040528015611f19576020820181803883390190505b5090508160208201838760208a010160045afa611f3557600080fd5b95945050505050565b6729a2241af62c000081565b6000828281518110611f5857fe5b602001015160f81c60f81b60f81c60ff1661010002838360010181518110611f7c57fe5b016020015160f81c019392505050565b6000828281518110611f9a57fe5b602001015160f81c60f81b60f81c60ff1667010000000000000002838360010181518110611fc457fe5b602001015160f81c60f81b60f81c60ff16660100000000000002848460020181518110611fed57fe5b602001015160f81c60f81b60f81c60ff16650100000000000285856003018151811061201557fe5b602001015160f81c60f81b60f81c60ff16600160201b0286866004018151811061203b57fe5b602001015160f81c60f81b60f81c60ff1663010000000287876005018151811061206157fe5b602001015160f81c60f81b60f81c60ff16620100000288886006018151811061208657fe5b602001015160f81c60f81b60f81c60ff16610100028989600701815181106120aa57fe5b016020015160f81c010101010101019392505050565b60008060008484815181106120d157fe5b01602001516001949094019360f81c905060fd8110156120f85760ff16915082905061216c565b8060ff1660fd141561211e576121108585601061350d565b84600201925092505061216c565b8060ff1660fe1415612144576121368585602061350d565b84600401925092505061216c565b8060ff1660ff141561216a5761215c8585604061350d565b84600801925092505061216c565b505b9250929050565b016020015190565b6060015190565b6000611d8c600280846040516020018082805190602001908083835b602083106121bd5780518252601f19909201916020918201910161219e565b6001836020036101000a0380198251168184511680821785525050505050509050019150506040516020818303038152906040526040518082805190602001908083835b602083106122205780518252601f199092019160209182019101612201565b51815160209384036101000a60001901801990921691161790526040519190930194509192505080830381855afa15801561225f573d6000803e3d6000fd5b5050506040513d602081101561227457600080fd5b50516040805160208181019390935281518082038401815290820191829052805190928291908401908083835b602083106122c05780518252601f1990920191602091820191016122a1565b51815160209384036101000a60001901801990921691161790526040519190930194509192505080830381855afa1580156122ff573d6000803e3d6000fd5b5050506040513d602081101561231457600080fd5b5051612ae5565b60009081526033602052604090206004015490565b603454600090815260336020526040902060050154600160c01b900463ffffffff1690565b6035546001600160a01b031681565b604481015160009061237581612ae5565b9392505050565b600090815260336020526040902080546001820154600283015460038401546005850154600490950154939592949193909263ffffffff600160a01b84048116936001600160a01b0381169260ff600160e01b83041692600160c01b90920490911690565b6036546000906001600160a01b03163314612429576040805184815261c39660208201528151600080516020614097833981519152929181900390910190a15061c396611d8c565b60008381526033602052604090206002600582810154600160e01b900460ff169081111561245357fe5b1415801561247b57506003600582810154600160e01b900460ff169081111561247857fe5b14155b156124b5576040805185815261c36460208201528151600080516020614097833981519152929181900390910190a161c364915050611d8c565b60058101805460ff60e01b1916600560e01b179055604080518581526001600160a01b038516602082015281517f64297372062dfcb21d6f7385f68d4656e993be2bb674099e3de73128d4911a91929181900390910190a15060009392505050565b60408051602080820198909852808201969096526060860194909452608085019290925260e01b6001600160e01b03191660a084015260a4808401919091528151808403909101815260c49092019052805191012090565b600080600080600061258187876120c0565b8101602001965090506125948787611aa3565b92506004860195506125a687876120c0565b8101600101965090506125b987876120c0565b8101600101965090506125cc87876120c0565b8101601e01965090506125df87876120c0565b96509050601481146126225760405162461bcd60e51b815260040180806020018281038252603e815260200180614103603e913960400191505060405180910390fd5b61262c8787613a60565b929792965091945050505050565b6036546000906001600160a01b03163314612682576040805184815261c39660208201528151600080516020614097833981519152929181900390910190a15061c396611d8c565b60008381526033602052604090206001600582810154600160e01b900460ff16908111156126ac57fe5b141580156126d457506003600582810154600160e01b900460ff16908111156126d157fe5b14155b1561270e576040805185815261c36460208201528151600080516020614097833981519152929181900390910190a161c364915050611d8c565b612716612330565b6005820154600160c01b900463ffffffff1611612762576040805185815261c3fa60208201528151600080516020614097833981519152929181900390910190a161c3fa915050611d8c565b600480820154600090815260336020526040902090600582810154600160e01b900460ff169081111561279157fe5b146127cc576040805186815261c37860208201528151600080516020614097833981519152929181900390910190a161c37892505050611d8c565b60058201805460ff60e01b1916600160e21b1790556034859055604080518681526001600160a01b038616602082015281517ff2dbbf0abb1ab1870a5e4d02746747c91d167c855255440b573ba3b5529dc901929181900390910190a1506000949350505050565b60365460009081906001600160a01b0316331461288357604080516000815261c39660208201528151600080516020614097833981519152929181900390910190a15061c39690506000612ac4565b60008481526033602052604090206003600582810154600160e01b900460ff16908111156128ad57fe5b141580156128d557506004600582810154600160e01b900460ff16908111156128d257fe5b14155b1561294e576000805160206140978339815191528582600501601c9054906101000a900460ff16600581111561290757fe5b6040805192835261c3789190910160208301528051918290030190a1600581810154600160e01b900460ff169081111561293d57fe5b61c37801925060009150612ac49050565b612956612330565b6005820154600160c01b900463ffffffff1610156129a7576040805186815261c3fa60208201528151600080516020614097833981519152929181900390910190a15061c3fa915060009050612ac4565b60006129b78b8b8b8b8b8b612517565b6000818152603360205260408120919250600582810154600160e01b900460ff16908111156129e257fe5b1415612a53578b815560018082018c9055600282018b9055600382018a905560048201889055600580850154908301805463ffffffff8c8116600160a01b0263ffffffff60a01b19600160c01b95869004831690960190911690930263ffffffff60c01b1990911617929092161790555b60058101805460ff60e01b1916600160e01b176001600160a01b0319166001600160a01b03881690811790915560408051848152602081019290925280517f64951c9008bba9f4663c12662e7a9b6412a7c4757869fdac09285564ae923fa19281900390910190a150600093509150505b97509795505050505050565b60009081526033602052604090206002015490565b60405160009060ff8316815382601e1a600182015382601d1a600282015382601c1a600382015382601b1a600482015382601a1a60058201538260191a60068201538260181a60078201538260171a60088201538260161a60098201538260151a600a8201538260141a600b8201538260131a600c8201538260121a600d8201538260111a600e8201538260101a600f82015382600f1a601082015382600e1a601182015382600d1a601282015382600c1a601382015382600b1a601482015382600a1a60158201538260091a60168201538260081a60178201538260071a60188201538260061a60198201538260051a601a8201538260041a601b8201538260031a601c8201538260021a601d8201538260011a601e8201538260001a601f8201535192915050565b6000806000806000612c2187876120c0565b9650935083612c8357612c3487876120c0565b9650935083612c745760405162461bcd60e51b815260040180806020018281038252603b815260200180614181603b913960400191505060405180910390fd5b612c7e87876120c0565b965093505b60648410612cc25760405162461bcd60e51b81526004018080602001828103825260408152602001806141416040913960400191505060405180910390fd5b60005b84811015612cee57602487019650612cdd88886120c0565b810160040197509350600101612cc5565b50612cf987876120c0565b96509050600a8110612d3c5760405162461bcd60e51b81526004018080602001828103825260418152602001806141bc6041913960600191505060405180910390fd5b60005b81811015612d9157600887019650612d5788886120c0565b97509350612d658888613a68565b612d76579583019560009250612d89565b6001870196508695505050505050611d8c565b600101612d3f565b5060405162461bcd60e51b81526004018080602001828103825260378152602001806141fd6037913960400191505060405180910390fd5b60408051600080825260208201909252606091612de685856120c0565b810194509050612df685856120c0565b810194509050612e0685856120c0565b810194509050612e1685856120c0565b810194509050612e2685856120c0565b945090506002811415612e75576000612e3f8686611f4a565b948201949050612e4f86866120c0565b61ffff83169081019650909250612e6d908790879085038101611ee3565b925050612e85565b612e828585838701611ee3565b91505b509392505050565b600080808080612e9d8682611aa3565b915063ffffffff821661740214801590612ebf575063ffffffff821661740314155b15612ed857506127ba935060009250829150612f799050565b612ee3866004612c0f565b90506000868260010181518110612ef657fe5b0160200151600292909201916001600160f81b0319169050604d60f81b811415612f21576001909101905b612f2b878361256f565b90955093506001600160a01b038416612f755760405162461bcd60e51b815260040180806020018281038252602c8152602001806140d7602c913960400191505060405180910390fd5b5050505b9193909250565b6034546000905b82612f9182611daa565b63ffffffff161115611d8c57600090815260336020526040902060040154612f87565b6036546000906001600160a01b03163314612ffc576040805184815261c39660208201528151600080516020614097833981519152929181900390910190a15061c396611d8c565b60008381526033602052604090206001600582810154600160e01b900460ff169081111561302657fe5b1415801561304e57506002600582810154600160e01b900460ff169081111561304b57fe5b14155b15613088576040805185815261c36460208201528151600080516020614097833981519152929181900390910190a161c364915050611d8c565b60058101546001600160a01b03848116911614156130d5576040805185815261c38760208201528151600080516020614097833981519152929181900390910190a161c387915050611d8c565b60058101805460ff60e01b1916600160e11b179055604080518581526001600160a01b038516602082015281517f09cdaca254aa177f759fe7a0968fe696ee9baf7d2a1d4714ed24b83d1f09518e929181900390910190a15060009392505050565b60008080806131468582611aa3565b915063ffffffff82166174061461316457506127ba92506131b69050565b61316f856004612c0f565b60030190507faabab1db49e504b5156edf3f99042aeecb9607a08f392589571cd49743aaba8d6131b06131ab6131a58885612dc9565b83613868565b61217b565b93505050505b915091565b6000806131cd868686868d8d8d6139ed565b9050801561329a576000806131e18b613137565b92509050801561321e57604080518481526020810183905281516000805160206140b7833981519152929181900390910190a19250611c4f915050565b60355460408051636cde8d6f60e01b815263ffffffff8516600482015233602482015290516001600160a01b0390921691636cde8d6f9160448082019260009290919082900301818387803b15801561327657600080fd5b505af115801561328a573d6000803e3d6000fd5b5050505060009350505050611c4f565b60408051617544815290517f52fd0c7e41cb237ece28ba61808cab7bb72873b2dba5b827c5b65bb092102d379181900360200190a15061754498975050505050505050565b600090815260336020526040902060050154600160e01b900460ff1690565b8051600090815b818110156133485761332984828151811061331c57fe5b6020026020010151612ae5565b84828151811061333557fe5b6020908102919091010152600101613305565b5060008061335587612ae5565b90505b8282101561350457600085838151811061336e57fe5b602002602001015190506000806002898161338557fe5b066001141561339857508190508261339e565b50829050815b600280838360405160200180838152602001828152602001925050506040516020818303038152906040526040518082805190602001908083835b602083106133f85780518252601f1990920191602091820191016133d9565b51815160209384036101000a60001901801990921691161790526040519190930194509192505080830381855afa158015613437573d6000803e3d6000fd5b5050506040513d602081101561344c57600080fd5b50516040805160208181019390935281518082038401815290820191829052805190928291908401908083835b602083106134985780518252601f199092019160209182019101613479565b51815160209384036101000a60001901801990921691161790526040519190930194509192505080830381855afa1580156134d7573d6000803e3d6000fd5b5050506040513d60208110156134ec57600080fd5b50519350600289049850600185019450505050613358565b611c4f81612ae5565b6000805b60088304811015612e85578060080260020a858286018151811061353157fe5b016020015160f81c029190910190600101613511565b600080808080808080808080808061355f8e82611aa3565b935063ffffffff84166174071461358c57506127ba9b509499509197509195509193509091506135d59050565b6135978e6004612c0f565b90506135a38e82613a97565b809750819650829a50839950849b505050505050600087868885878595509c509c509c509c509c509c50505050505050505b91939550919395565b6034546000908190156135f057600080fd5b82156135fb57600080fd5b600061360b898989898989612517565b6000818152603360205260408120919250600582810154600160e01b900460ff169081111561363657fe5b1461364057600080fd5b89815560018101899055600281018890556003810187905560048101859055600581018054600160c01b336001600160a01b0319909216821763ffffffff60c01b19161763ffffffff60a01b1916600160a01b63ffffffff8a16021760ff60e01b1916600160e21b1790915560408051848152602081019290925280517f64951c9008bba9f4663c12662e7a9b6412a7c4757869fdac09285564ae923fa19281900390910190a160348290556040805183815233602082015281517ff2dbbf0abb1ab1870a5e4d02746747c91d167c855255440b573ba3b5529dc901929181900390910190a1506000999098509650505050505050565b60345490565b600054610100900460ff16806137565750613756613bc2565b80613764575060005460ff16155b61379f5760405162461bcd60e51b815260040180806020018281038252602e815260200180614234602e913960400191505060405180910390fd5b600054610100900460ff161580156137ca576000805460ff1961ff0019909116610100171660011790555b6035546001600160a01b03161580156137eb57506001600160a01b03831615155b6137f457600080fd5b603580546001600160a01b0319166001600160a01b03858116919091179091556036541615801561382d57506001600160a01b03821615155b61383657600080fd5b603680546001600160a01b0319166001600160a01b0384161790558015613863576000805461ff00191690555b505050565b60608061387c61387785613bc8565b613bed565b9050606061389d8260038151811061389057fe5b6020026020010151613bed565b905060005b815181101561391e5760606138bc83838151811061389057fe5b905060606138dd826001815181106138d057fe5b6020026020010151613cbe565b905060006138ec826001612173565b90508781141561391357613906836002815181106138d057fe5b9650505050505050611d8c565b5050506001016138a2565b506040805162461bcd60e51b815260206004820152600f60248201526e151bdc1a58c81b9bdd08199bdd5b99608a1b604482015290519081900360640190fd5b600082828151811061396c57fe5b602001015160f81c60f81b60f81c60ff1663010000000283836001018151811061399257fe5b602001015160f81c60f81b60f81c60ff1662010000028484600201815181106139b757fe5b602001015160f81c60f81b60f81c60ff16610100028585600301815181106139db57fe5b016020015160f81c0101019392505050565b600084815260336020526040812054613a0f613a088a612182565b89896132fe565b14613a47576040805160008152614e6660208201528151600080516020614262833981519152929181900390910190a1506000611c4f565b613a548484848b89613d37565b98975050505050505050565b016014015190565b8151600090603560f91b90849084908110613a7f57fe5b01602001516001600160f81b03191614905092915050565b6000806000806000806000806000806000613ab28d8d613dac565b9c509050600460ff821614613ac657600080fd5b613ad08d8d61395e565b95508060ff168c019b50613ae48d8d613dac565b9c509050600860ff821614613af857600080fd5b613b028d8d611f8c565b67ffffffffffffffff1692508060ff168c019b50613b208d8d613dac565b9c509050601460ff821614613b3457600080fd5b613b3e8d8d613a60565b94508060ff168c019b50613b528d8d613dac565b9c509050600160ff821614613b6657600080fd5b8c8c81518110613b7257fe5b016020015160ff82169c909c019b60f81c9150613b8f8d8d613dac565b9c509050601460ff821614613ba357600080fd5b613bad8d8d613a60565b929d949c50949a509850965090945050505050565b303b1590565b613bd061407c565b506040805180820190915281518152602082810190820152919050565b6060613bf882613dde565b613c0157600080fd5b6000613c0c83613e18565b9050606081604051908082528060200260200182016040528015613c4a57816020015b613c3761407c565b815260200190600190039081613c2f5790505b5090506000613c5c8560200151613e74565b60208601510190506000805b84811015613cb357613c7983613ed7565b9150604051806040016040528083815260200184815250848281518110613c9c57fe5b602090810291909101015291810191600101613c68565b509195945050505050565b8051606090613ccc57600080fd5b6000613cdb8360200151613e74565b83516040805191839003808352601f19601f8201168301602001909152919250606090828015613d12576020820181803883390190505b5090506000816020019050613d2e848760200151018285613f70565b50949350505050565b600080613d4387612182565b9050865160401415613d835760408051828152614e5c60208201528151600080516020614262833981519152929181900390910190a16000915050611f35565b613d908187878787613fbb565b60011415613d9f579050611f35565b5060009695505050505050565b60008083518310613dbc57600080fd5b838381518110613dc857fe5b016020015160f81c915050600182019250929050565b8051600090613def57506000611da5565b6020820151805160001a9060c0821015613e0e57600092505050611da5565b5060019392505050565b8051600090613e2957506000611da5565b60008090506000613e3d8460200151613e74565b602085015185519181019250015b80821015613e6b57613e5c82613ed7565b60019093019290910190613e4b565b50909392505050565b8051600090811a6080811015613e8e576000915050611da5565b60b8811080613ea9575060c08110801590613ea9575060f881105b15613eb8576001915050611da5565b60c0811015613ecc5760b519019050611da5565b60f519019050611da5565b80516000908190811a6080811015613ef25760019150613f69565b60b8811015613f0757607e1981019150613f69565b60c0811015613f345760b78103600185019450806020036101000a85510460018201810193505050613f69565b60f8811015613f495760be1981019150613f69565b60f78103600185019450806020036101000a855104600182018101935050505b5092915050565b80613f7a57613863565b5b60208110613f9a578251825260209283019290910190601f1901613f7b565b915181516020939093036101000a6000190180199091169216919091179052565b6000613fc68261405d565b613ffd5760408051878152614e3e60208201528151600080516020614262833981519152929181900390910190a150614e3e611f35565b600061400884612364565b9050806140168888886132fe565b146140505760408051888152614e5260208201528151600080516020614262833981519152929181900390910190a1614e52915050611f35565b5060019695505050505050565b6000600461406a836132df565b600581111561407557fe5b1492915050565b60405180604001604052806000815260200160008152509056fea57c1ba4cf2c89b3558cfeeca4339e04551f0fc1a12cf63f1923c2eed8a5be8b4e64138cc499eb1adf9edff9ef69bd45c56ac4bfd307540952e4c9d51eab55c170617273654173736574547828293a206572633230416464726573732063616e6e6f7420626520656d7074797363616e4173736574547828293a20496e76616c6964206e756d626572206f66206279746573207265616420666f7220636f6e7472616374206669656c6423537973636f696e5375706572626c6f636b73206765744f7052657475726e506f7328293a20496e636f72726563742073697a65206f66206e5f696e7075747323537973636f696e5375706572626c6f636b73206765744f7052657475726e506f7328293a20556e65787065637465642064756d6d792f666c616723537973636f696e5375706572626c6f636b73206765744f7052657475726e506f7328293a20496e636f72726563742073697a65206f66206e5f6f75747075747323537973636f696e5375706572626c6f636b73206765744f7052657475726e506f7328293a204e6f204f7052657475726e20666f756e64436f6e747261637420696e7374616e63652068617320616c7265616479206265656e20696e697469616c697a656465bd72698b9ffcfb3c7cb4c7414e13225cabd57fb690e183ae8c01c8ec268ebda265627a7a72315820db652d299e68f9e826b12bdd50d3cf416784784ea923548597f95ccfa04b7d9064736f6c634300050d0032",
  "source": "pragma solidity ^0.5.13;\n\nimport './interfaces/SyscoinSuperblocksI.sol';\nimport \"./SyscoinErrorCodes.sol\";\nimport \"./SyscoinTransactionProcessor.sol\";\nimport \"@openzeppelin/upgrades/contracts/Initializable.sol\";\nimport \"./SyscoinParser/SyscoinMessageLibrary.sol\";\n\n// @dev - Manages superblocks\n//\n// Management of superblocks and status transitions\ncontract SyscoinSuperblocks is Initializable, SyscoinSuperblocksI, SyscoinErrorCodes, SyscoinMessageLibrary {\n\n    uint constant ERR_PARSE_TX_SYS = 10170;\n\n    uint32 constant SYSCOIN_TX_VERSION_ALLOCATION_BURN_TO_ETHEREUM = 0x7407;\n    uint32 constant SYSCOIN_TX_VERSION_ALLOCATION_MINT = 0x7406;\n    \n    // Mapping superblock id => superblock data\n    mapping (bytes32 => SuperblockInfo) internal superblocks;\n\n    bytes32 internal bestSuperblock;\n\n    SyscoinTransactionProcessor public syscoinERC20Manager;\n\n    event NewSuperblock(bytes32 superblockHash, address who);\n    event ApprovedSuperblock(bytes32 superblockHash, address who);\n    event ChallengeSuperblock(bytes32 superblockHash, address who);\n    event SemiApprovedSuperblock(bytes32 superblockHash, address who);\n    event InvalidSuperblock(bytes32 superblockHash, address who);\n\n    event ErrorSuperblock(bytes32 superblockHash, uint err);\n\n    event VerifyTransaction(bytes32 txHash, uint returnCode);\n    event RelayTransaction(bytes32 txHash, uint returnCode);\n    event ChallengeCancelTransferRequest(uint returnCode);\n    // SyscoinClaimManager\n    address public trustedClaimManager;\n\n    uint32 constant SYSCOIN_TX_VERSION_ASSET_ACTIVATE = 0x7402;\n    uint32 constant SYSCOIN_TX_VERSION_ASSET_UPDATE = 0x7403;\n    modifier onlyClaimManager() {\n        require(msg.sender == trustedClaimManager);\n        _;\n    }\n\n    // @param _syscoinERC20Manager - address of the SyscoinERC20Manager contract to be associated with\n    // @param _claimManager - address of the ClaimManager contract to be associated with\n    function init(address _syscoinERC20Manager, address _claimManager) public initializer {\n        require(address(syscoinERC20Manager) == address(0) && _syscoinERC20Manager != address(0));\n        syscoinERC20Manager = SyscoinTransactionProcessor(_syscoinERC20Manager);\n\n        require(address(trustedClaimManager) == address(0) && _claimManager != address(0));\n        trustedClaimManager = _claimManager;\n    }\n\n    // Returns true if the tx output is an OP_RETURN output\n    function isOpReturn(bytes memory txBytes, uint pos) internal pure returns (bool) {\n        // scriptPub format is\n        // 0x6a OP_RETURN\n        return txBytes[pos] == byte(0x6a);\n    }\n\n    function bytesToUint64(bytes memory input, uint pos) public pure returns (uint64 result) {\n        result = uint64(uint8(input[pos+7])) + uint64(uint8(input[pos + 6]))*(2**8) + uint64(uint8(input[pos + 5]))*(2**16) + uint64(uint8(input[pos + 4]))*(2**24) + uint64(uint8(input[pos + 3]))*(2**32) + uint64(uint8(input[pos + 2]))*(2**40) + uint64(uint8(input[pos + 1]))*(2**48) + uint64(uint8(input[pos]))*(2**56);\n    }\n\n    function bytesToUint32(bytes memory input, uint pos) public pure returns (uint32 result) {\n        result = uint32(uint8(input[pos+3])) + uint32(uint8(input[pos + 2]))*(2**8) + uint32(uint8(input[pos + 1]))*(2**16) + uint32(uint8(input[pos]))*(2**24);\n    }\n\n    // Returns asset data parsed from the op_return data output from syscoin asset burn transaction\n    function scanAssetDetails(bytes memory txBytes, uint pos)\n        internal\n        pure\n        returns (uint, address, uint32, uint8, address)\n    {\n        uint32 assetGUID;\n        address destinationAddress;\n        address erc20Address;\n        uint output_value;\n        uint8 precision;\n        uint8 op;\n        // vchAsset\n        (op, pos) = getOpcode(txBytes, pos);\n        // guid length should be 4 bytes\n        require(op == 0x04);\n        assetGUID = bytesToUint32(txBytes, pos);\n        pos += op;\n        // amount\n        (op, pos) = getOpcode(txBytes, pos);\n        require(op == 0x08);\n        output_value = bytesToUint64(txBytes, pos);\n        pos += op;\n         // destination address\n        (op, pos) = getOpcode(txBytes, pos);\n        // ethereum contracts are 20 bytes (without the 0x)\n        require(op == 0x14);\n        destinationAddress = readEthereumAddress(txBytes, pos);\n        pos += op;\n        // precision\n        (op, pos) = getOpcode(txBytes, pos);\n        require(op == 0x01);\n        precision = uint8(txBytes[pos]);\n        pos += op;\n        // erc20Address\n        (op, pos) = getOpcode(txBytes, pos);\n        require(op == 0x14);\n        erc20Address = readEthereumAddress(txBytes, pos);\n        return (output_value, destinationAddress, assetGUID, precision, erc20Address);\n    }\n\n    // Read the ethereum address embedded in the tx output\n    function readEthereumAddress(bytes memory txBytes, uint pos) internal pure returns (address) {\n        uint256 data;\n        assembly {\n            data := mload(add(add(txBytes, 20), pos))\n        }\n        return address(uint160(data));\n    }\n\n    // Read next opcode from script\n    function getOpcode(bytes memory txBytes, uint pos) private pure returns (uint8, uint) {\n        require(pos < txBytes.length);\n        return (uint8(txBytes[pos]), pos + 1);\n    }\n\n    function getOpReturnPos(bytes memory txBytes, uint pos) public pure returns (uint) {\n        uint n_inputs;\n        uint script_len;\n        uint output_value;\n        uint n_outputs;\n\n        (n_inputs, pos) = parseVarInt(txBytes, pos);\n        // if dummy 0x00 is present this is a witness transaction\n        if(n_inputs == 0x00){\n            (n_inputs, pos) = parseVarInt(txBytes, pos); // flag\n            require(n_inputs != 0x00, \"#SyscoinSuperblocks getOpReturnPos(): Unexpected dummy/flag\");\n            // after dummy/flag the real var int comes for txins\n            (n_inputs, pos) = parseVarInt(txBytes, pos);\n        }\n        require(n_inputs < 100, \"#SyscoinSuperblocks getOpReturnPos(): Incorrect size of n_inputs\");\n\n        for (uint i = 0; i < n_inputs; i++) {\n            pos += 36;  // skip outpoint\n            (script_len, pos) = parseVarInt(txBytes, pos);\n            pos += script_len + 4;  // skip sig_script, seq\n        }\n        \n        (n_outputs, pos) = parseVarInt(txBytes, pos);\n        require(n_outputs < 10, \"#SyscoinSuperblocks getOpReturnPos(): Incorrect size of n_outputs\");\n        for (uint i = 0; i < n_outputs; i++) {\n            pos += 8;\n            // varint\n            (script_len, pos) = parseVarInt(txBytes, pos);\n            if(!isOpReturn(txBytes, pos)){\n                // output script\n                pos += script_len;\n                output_value = 0;\n                continue;\n            }\n            // skip opreturn marker\n            pos += 1;\n            return pos;\n        }\n        revert(\"#SyscoinSuperblocks getOpReturnPos(): No OpReturn found\");\n    }\n\n    /**\n     * @dev Parse syscoin mint transaction to recover bridgeTransferId\n     * @param txBytes syscoin raw transaction\n     * @return errorCode, bridgeTransferId\n     */\n    function parseMintTx(bytes memory txBytes)\n        public\n        view\n        returns (uint errorCode, uint32 bridgeTransferId)\n    {\n        uint32 version;\n        uint pos = 0;\n        version = bytesToUint32Flipped(txBytes, pos);\n        if(version != SYSCOIN_TX_VERSION_ALLOCATION_MINT){\n            return (ERR_PARSE_TX_SYS, bridgeTransferId);\n        }\n        pos = getOpReturnPos(txBytes, 4);\n        pos += 3; // skip pushdata2 + 2 bytes for opreturn varint\n\n        // SHA3 of TokenFreeze(address,uint256,uint32)\n        bytes32 tokenFreezeTopic = 0xaabab1db49e504b5156edf3f99042aeecb9607a08f392589571cd49743aaba8d;\n        bridgeTransferId = uint32(\n            getBridgeTransactionId(\n                getLogValuesForTopic(\n                    getEthReceipt(txBytes, pos), tokenFreezeTopic\n                )\n            )\n        );\n    }\n\n\n     /** @dev Parse syscoin asset transaction to recover asset guid and contract, for purposes of updating asset registry in erc20manager\n     * @param txBytes syscoin raw transaction\n     * @return errorCode, assetGuid, erc20Address\n     */\n    function parseAssetTx(bytes memory txBytes)\n        public\n        view\n        returns (uint errorCode, uint32 assetGuid, address erc20Address)\n    {\n        uint32 version;\n        uint pos = 0;\n        version = bytesToUint32Flipped(txBytes, pos);\n        if(version != SYSCOIN_TX_VERSION_ASSET_ACTIVATE && version != SYSCOIN_TX_VERSION_ASSET_UPDATE){\n            return (ERR_PARSE_TX_SYS, 0, address(0));\n        }\n        pos = getOpReturnPos(txBytes, 4);\n        byte pushDataOp = txBytes[pos+1];\n        pos += 2; // we will have to skip pushdata op as well as atleast 1 byte\n        if(pushDataOp == 0x4d){\n            pos++; // skip pushdata2 + 2 bytes for opreturn varint\n        }\n\n        (assetGuid, erc20Address) = scanAssetTx(txBytes, pos);\n        require(erc20Address != address(0),\n        \"parseAssetTx(): erc20Address cannot be empty\");\n    }\n\n    function bytesToUint16(bytes memory input, uint pos) public pure returns (uint16 result) {\n        result = uint16(uint8(input[pos+1])) + uint16(uint8(input[pos]))*(2**8);\n    }\n\n    /**\n     * Parse txBytes and returns ethereum tx receipt\n     * @param txBytes syscoin raw transaction\n     * @param pos position at where to start parsing\n     * @return ethTxReceipt ethereum tx receipt\n     */\n    function getEthReceipt(bytes memory txBytes, uint pos)\n        public\n        view\n        returns (bytes memory)\n    {\n        bytes memory ethTxReceipt = new bytes(0);\n        uint bytesToRead;\n        // skip vchTxValue\n        (bytesToRead, pos) = parseVarInt(txBytes, pos);\n        pos += bytesToRead;\n        // skip vchTxParentNodes\n        (bytesToRead, pos) = parseVarInt(txBytes, pos);\n        pos += bytesToRead;\n        // skip vchTxRoot\n        (bytesToRead, pos) = parseVarInt(txBytes, pos);\n        pos += bytesToRead;\n        // skip vchTxPath\n        (bytesToRead, pos) = parseVarInt(txBytes, pos);\n        pos += bytesToRead;\n        // get vchReceiptValue\n        (bytesToRead, pos) = parseVarInt(txBytes, pos);\n        // if position is encoded in receipt value, decode position and read the value from next field (parent nodes)\n        if(bytesToRead == 2){\n            uint16 positionOfValue = bytesToUint16(txBytes, pos);\n            pos += bytesToRead;\n            // get vchReceiptParentNodes\n            (bytesToRead, pos) = parseVarInt(txBytes, pos);\n            pos += positionOfValue;\n            ethTxReceipt = sliceArray(txBytes, pos, pos+(bytesToRead-positionOfValue));\n        }\n        // size > 2 means receipt value is fully serialized in this field and no need to get parent nodes field\n        else{\n            ethTxReceipt = sliceArray(txBytes, pos, pos+bytesToRead);      \n        }\n        return ethTxReceipt;\n    }\n\n     /**\n     * Parse txBytes and returns assetguid + contract address\n     * @param txBytes syscoin raw transaction\n     * @param pos position at where to start parsing\n     * @return asset guid (uint32) and erc20 address linked to the asset guid to update registry in erc20manager\n     */\n    function scanAssetTx(bytes memory txBytes, uint pos)\n        public\n        view\n        returns (uint32, address)\n    {\n        uint32 assetGUID;\n        address erc20Address;\n        uint bytesToRead;\n        // skip vchPubData\n        (bytesToRead, pos) = parseVarInt(txBytes, pos);\n        pos += bytesToRead;\n        // skip txHash\n        pos += 32;\n        // get nAsset\n        assetGUID = bytesToUint32Flipped(txBytes, pos);\n        pos += 4;\n        // skip strSymbol\n        (bytesToRead, pos) = parseVarInt(txBytes, pos);\n        pos += bytesToRead;\n        // skip witnessAddress.nVersion\n        pos += 1;\n        // skip witnessAddress.vchWitnessProgram\n        (bytesToRead, pos) = parseVarInt(txBytes, pos);\n        pos += bytesToRead;\n        // skip witnessAddressTransfer.nVersion\n        pos += 1;\n        // skip witnessAddressTransfer.vchWitnessProgram\n        (bytesToRead, pos) = parseVarInt(txBytes, pos);\n        pos += bytesToRead;\n        // skip nBalance\n        pos += 8;\n        // skip nTotalSupply\n        pos += 8;\n        // skip nMaxSupply\n        pos += 8;\n        // skip nHeight\n        pos += 4;\n        // skip nUpdateFlags\n        pos += 1;\n        // skip nPrecision\n        pos += 1;\n        // get vchContract\n        (bytesToRead, pos) = parseVarInt(txBytes, pos);\n        require(bytesToRead == 0x14,\n        \"scanAssetTx(): Invalid number of bytes read for contract field\");\n        erc20Address = readEthereumAddress(txBytes, pos);\n        return (assetGUID, erc20Address);\n    }\n\n    // @dev converts bytes of any length to bytes32.\n    // If `_rawBytes` is longer than 32 bytes, it truncates to the 32 leftmost bytes.\n    // If it is shorter, it pads with 0s on the left.\n    // Should be private, made internal for testing\n    //\n    // @param _rawBytes - arbitrary length bytes\n    // @return - leftmost 32 or less bytes of input value; padded if less than 32\n    function bytesToBytes32(bytes memory _rawBytes, uint pos) public pure returns (bytes32) {\n        bytes32 out;\n        assembly {\n            out := mload(add(add(_rawBytes, 0x20), pos))\n        }\n        return out;\n    }\n\n    /**\n     * Return logs for given ethereum transaction receipt\n     * @param  ethTxReceipt ethereum transaction receipt\n     * @return logs bloom\n     */\n    function getLogValuesForTopic(bytes memory ethTxReceipt, bytes32 expectedTopic)\n        public\n        pure\n        returns (bytes memory)\n    {\n        RLPReader.RLPItem[] memory ethTxReceiptList = ethTxReceipt.toRlpItem().toList();\n        RLPReader.RLPItem[] memory logsList = ethTxReceiptList[3].toList();\n        for (uint256 i = 0; i < logsList.length; i++) {\n            RLPReader.RLPItem[] memory log = logsList[i].toList();\n            bytes memory rawTopic = log[1].toBytes();\n            bytes32 topic = bytesToBytes32(rawTopic, 1); // need to remove first byte \"a0\"\n            if (topic == expectedTopic) {\n                // data for given log\n                return log[2].toBytes();\n            }\n        }\n        revert(\"Topic not found\");\n    }\n\n    /**\n     * Get bridgeTransactionId from logs bloom\n     * @param logValues log values\n     * @return bridgeTransactionId\n     */\n    function getBridgeTransactionId(bytes memory logValues) public pure returns (uint256 value) {\n        uint8 index = 3; // log's third value\n        assembly {\n            value := mload(add(logValues, mul(32, index)))\n        }\n    }\n\n    // @dev - Initializes superblocks contract\n    //\n    // Initializes the superblock contract. It can only be called once.\n    //\n    // @param _blocksMerkleRoot Root of the merkle tree of blocks contained in a superblock\n    // @param _timestamp Timestamp of the last block in the superblock\n    // @param _mtpTimestamp Median Timestamp of the last block in the superblock\n    // @param _lastHash Hash of the last block in the superblock\n    // @param _lastBits Difficulty bits of the last block in the superblock bits\n    // @param _parentId Id of the parent superblock\n    // @param _blockHeight Block height of last block in superblock\n    // @return Error code and superblockHash\n    function initialize(\n        bytes32 _blocksMerkleRoot,\n        uint _timestamp,\n        uint _mtpTimestamp,\n        bytes32 _lastHash,\n        uint32 _lastBits,\n        bytes32 _parentId\n    ) external returns (uint, bytes32) {\n        require(bestSuperblock == 0);\n        require(_parentId == 0);\n\n        bytes32 superblockHash = calcSuperblockHash(_blocksMerkleRoot, _timestamp, _mtpTimestamp, _lastHash, _lastBits, _parentId);\n        SuperblockInfo storage superblock = superblocks[superblockHash];\n\n        require(superblock.status == Status.Uninitialized);\n\n        superblock.blocksMerkleRoot = _blocksMerkleRoot;\n        superblock.timestamp = _timestamp;\n        superblock.mtpTimestamp = _mtpTimestamp;\n        superblock.lastHash = _lastHash;\n        superblock.parentId = _parentId;\n        superblock.submitter = msg.sender;\n        superblock.height = 1;\n        superblock.lastBits = _lastBits;\n        superblock.status = Status.Approved;\n\n        emit NewSuperblock(superblockHash, msg.sender);\n\n        bestSuperblock = superblockHash;\n        emit ApprovedSuperblock(superblockHash, msg.sender);\n\n        return (ERR_SUPERBLOCK_OK, superblockHash);\n    }\n\n    // @dev - Proposes a new superblock\n    //\n    // To be accepted, a new superblock needs to have its parent\n    // either approved or semi-approved.\n    //\n    // @param _blocksMerkleRoot Root of the merkle tree of blocks contained in a superblock\n    // @param _timestamp Timestamp of the last block in the superblock\n    // @param _mtpTimestamp Median Timestamp of the last block in the superblock\n    // @param _lastHash Hash of the last block in the superblock\n    // @param _lastBits Difficulty bits of the last block in the superblock bits\n    // @param _parentId Id of the parent superblock\n    // @return Error code and superblockHash\n    function propose(\n        bytes32 _blocksMerkleRoot,\n        uint _timestamp,\n        uint _mtpTimestamp,\n        bytes32 _lastHash,\n        uint32 _lastBits,\n        bytes32 _parentId,\n        address submitter\n    ) external returns (uint, bytes32) {\n        if (msg.sender != trustedClaimManager) {\n            emit ErrorSuperblock(0, ERR_SUPERBLOCK_NOT_CLAIMMANAGER);\n            return (ERR_SUPERBLOCK_NOT_CLAIMMANAGER, 0);\n        }\n\n        SuperblockInfo storage parent = superblocks[_parentId];\n        if (parent.status != Status.SemiApproved && parent.status != Status.Approved) {\n            emit ErrorSuperblock(_parentId, ERR_SUPERBLOCK_BAD_PARENT + uint(parent.status));\n            return (ERR_SUPERBLOCK_BAD_PARENT + uint(parent.status), 0);\n        }\n\n        if (parent.height < getChainHeight()) {\n            emit ErrorSuperblock(_parentId, ERR_SUPERBLOCK_BAD_BLOCKHEIGHT);\n            return (ERR_SUPERBLOCK_BAD_BLOCKHEIGHT, 0);\n        }\n\n        bytes32 superblockHash = calcSuperblockHash(_blocksMerkleRoot, _timestamp, _mtpTimestamp, _lastHash, _lastBits, _parentId);\n        SuperblockInfo storage superblock = superblocks[superblockHash];\n        if (superblock.status == Status.Uninitialized) {\n            superblock.blocksMerkleRoot = _blocksMerkleRoot;\n            superblock.timestamp = _timestamp;\n            superblock.mtpTimestamp = _mtpTimestamp;\n            superblock.lastHash = _lastHash;\n            superblock.parentId = _parentId;\n            superblock.height = parent.height + 1;\n            superblock.lastBits = _lastBits;\n        }\n        superblock.status = Status.New;\n        superblock.submitter = submitter;\n        emit NewSuperblock(superblockHash, submitter);\n        return (ERR_SUPERBLOCK_OK, superblockHash);\n    }\n\n    // @dev - Confirm a proposed superblock\n    //\n    // An unchallenged superblock can be confirmed after a timeout.\n    // A challenged superblock is confirmed if it has enough descendants\n    // in the main chain.\n    //\n    // @param _superblockHash Id of the superblock to confirm\n    // @param _validator Address requesting superblock confirmation\n    // @return Error code and superblockHash\n    function confirm(bytes32 _superblockHash, address _validator) external returns (uint) {\n        if (msg.sender != trustedClaimManager) {\n            emit ErrorSuperblock(_superblockHash, ERR_SUPERBLOCK_NOT_CLAIMMANAGER);\n            return ERR_SUPERBLOCK_NOT_CLAIMMANAGER;\n        }\n        SuperblockInfo storage superblock = superblocks[_superblockHash];\n        if (superblock.status != Status.New && superblock.status != Status.SemiApproved) {\n            emit ErrorSuperblock(_superblockHash, ERR_SUPERBLOCK_BAD_STATUS);\n            return ERR_SUPERBLOCK_BAD_STATUS;\n        }\n\n        if (superblock.height <= getChainHeight()) {\n            emit ErrorSuperblock(_superblockHash, ERR_SUPERBLOCK_BAD_BLOCKHEIGHT);\n            return ERR_SUPERBLOCK_BAD_BLOCKHEIGHT;\n        }\n\n        SuperblockInfo storage parent = superblocks[superblock.parentId];\n        if (parent.status != Status.Approved) {\n            emit ErrorSuperblock(_superblockHash, ERR_SUPERBLOCK_BAD_PARENT);\n            return ERR_SUPERBLOCK_BAD_PARENT;\n        }\n\n        superblock.status = Status.Approved;\n        bestSuperblock = _superblockHash;\n\n        emit ApprovedSuperblock(_superblockHash, _validator);\n        return ERR_SUPERBLOCK_OK;\n    }\n\n    // @dev - Challenge a proposed superblock\n    //\n    // A new superblock can be challenged to start a battle\n    // to verify the correctness of the data submitted.\n    //\n    // @param _superblockHash Id of the superblock to challenge\n    // @param _challenger Address requesting a challenge\n    // @return Error code and superblockHash\n    function challenge(bytes32 _superblockHash, address _challenger) external returns (uint) {\n        if (msg.sender != trustedClaimManager) {\n            emit ErrorSuperblock(_superblockHash, ERR_SUPERBLOCK_NOT_CLAIMMANAGER);\n            return ERR_SUPERBLOCK_NOT_CLAIMMANAGER;\n        }\n        SuperblockInfo storage superblock = superblocks[_superblockHash];\n        if (superblock.status != Status.New && superblock.status != Status.InBattle) {\n            emit ErrorSuperblock(_superblockHash, ERR_SUPERBLOCK_BAD_STATUS);\n            return ERR_SUPERBLOCK_BAD_STATUS;\n        }\n        if(superblock.submitter == _challenger){\n            emit ErrorSuperblock(_superblockHash, ERR_SUPERBLOCK_OWN_CHALLENGE);\n            return ERR_SUPERBLOCK_OWN_CHALLENGE;\n        }\n        superblock.status = Status.InBattle;\n        emit ChallengeSuperblock(_superblockHash, _challenger);\n        return ERR_SUPERBLOCK_OK;\n    }\n\n    // @dev - Semi-approve a challenged superblock\n    //\n    // A challenged superblock can be marked as semi-approved\n    // if it satisfies all the queries or when all challengers have\n    // stopped participating.\n    //\n    // @param _superblockHash Id of the superblock to semi-approve\n    // @param _validator Address requesting semi approval\n    // @return Error code and superblockHash\n    function semiApprove(bytes32 _superblockHash, address _validator) external returns (uint) {\n        if (msg.sender != trustedClaimManager) {\n            emit ErrorSuperblock(_superblockHash, ERR_SUPERBLOCK_NOT_CLAIMMANAGER);\n            return ERR_SUPERBLOCK_NOT_CLAIMMANAGER;\n        }\n        SuperblockInfo storage superblock = superblocks[_superblockHash];\n\n        if (superblock.status != Status.InBattle && superblock.status != Status.New) {\n            emit ErrorSuperblock(_superblockHash, ERR_SUPERBLOCK_BAD_STATUS);\n            return ERR_SUPERBLOCK_BAD_STATUS;\n        }\n        superblock.status = Status.SemiApproved;\n\n        emit SemiApprovedSuperblock(_superblockHash, _validator);\n        return ERR_SUPERBLOCK_OK;\n    }\n\n    // @dev - Invalidates a superblock\n    //\n    // A superblock with incorrect data can be invalidated immediately.\n    // Superblocks that are not in the main chain can be invalidated\n    // if not enough superblocks follow them, i.e. they don't have\n    // enough descendants.\n    //\n    // @param _superblockHash Id of the superblock to invalidate\n    // @param _validator Address requesting superblock invalidation\n    // @return Error code and superblockHash\n    function invalidate(bytes32 _superblockHash, address _validator) external returns (uint) {\n        if (msg.sender != trustedClaimManager) {\n            emit ErrorSuperblock(_superblockHash, ERR_SUPERBLOCK_NOT_CLAIMMANAGER);\n            return ERR_SUPERBLOCK_NOT_CLAIMMANAGER;\n        }\n        SuperblockInfo storage superblock = superblocks[_superblockHash];\n        if (superblock.status != Status.InBattle && superblock.status != Status.SemiApproved) {\n            emit ErrorSuperblock(_superblockHash, ERR_SUPERBLOCK_BAD_STATUS);\n            return ERR_SUPERBLOCK_BAD_STATUS;\n        }\n        superblock.status = Status.Invalid;\n        emit InvalidSuperblock(_superblockHash, _validator);\n        return ERR_SUPERBLOCK_OK;\n    }\n\n    // @dev - Verify TX SPV to Block proof as well as Block SPV proof to Superblock\n    // @param _txBytes - transaction bytes\n    // @param _txIndex - transaction's index within the block\n    // @param _txSiblings - transaction's Merkle siblings\n    // @param _syscoinBlockHeader - block header containing transaction\n    // @param _syscoinBlockIndex - block's index within superblock\n    // @param _syscoinBlockSiblings - block's merkle siblings\n    // @param _superblockHash - superblock containing block header\n    function verifySPVProofs(\n        bytes memory _syscoinBlockHeader,\n        uint _syscoinBlockIndex,\n        uint[] memory _syscoinBlockSiblings,\n        bytes32 _superblockHash,\n        bytes memory _txBytes,\n        uint _txIndex,\n        uint[] memory _txSiblings\n    ) private returns (uint) {\n        // Check if Syscoin block belongs to given superblock\n        if (bytes32(computeMerkle(dblShaFlip(_syscoinBlockHeader), _syscoinBlockIndex, _syscoinBlockSiblings))\n            != superblocks[_superblockHash].blocksMerkleRoot) {\n            // Syscoin block is not in superblock\n            emit VerifyTransaction(bytes32(0), ERR_SUPERBLOCK_MERKLE_ROOT);\n            return 0;\n        }\n        return verifyTx(_txBytes, _txIndex, _txSiblings, _syscoinBlockHeader, _superblockHash);\n    }\n\n    // @dev - relays transaction `_txBytes` to ERC20Manager's processTransaction() method.\n    // Also logs the value of processTransaction.\n    // Note: callers cannot be 100% certain when an ERR_RELAY_VERIFY occurs because\n    // it may also have been returned by processTransaction(). Callers should be\n    // aware of the contract that they are relaying transactions to and\n    // understand what that contract's processTransaction method returns.\n    //\n    // @param _txBytes - transaction bytes\n    // @param _txIndex - transaction's index within the block\n    // @param _txSiblings - transaction's Merkle siblings\n    // @param _syscoinBlockHeader - block header containing transaction\n    // @param _syscoinBlockIndex - block's index within superblock\n    // @param _syscoinBlockSiblings - block's merkle siblings\n    // @param _superblockHash - superblock containing block header\n    function relayTx(\n        bytes memory _txBytes,\n        uint _txIndex,\n        uint[] memory _txSiblings,\n        bytes memory _syscoinBlockHeader,\n        uint _syscoinBlockIndex,\n        uint[] memory _syscoinBlockSiblings,\n        bytes32 _superblockHash\n    ) public returns (uint) {\n        uint txHash = verifySPVProofs(_syscoinBlockHeader, _syscoinBlockIndex, _syscoinBlockSiblings, _superblockHash, _txBytes, _txIndex, _txSiblings);\n        if (txHash != 0) {\n            uint value;\n            address destinationAddress;\n            uint ret;\n            uint32 assetGUID;\n            address erc20ContractAddress;\n            uint8 precision;\n            (ret, value, destinationAddress, assetGUID, precision, erc20ContractAddress) = parseBurnTx(_txBytes);\n            if(ret != 0){\n                emit RelayTransaction(bytes32(txHash), ret);\n                return ret;\n            }\n            syscoinERC20Manager.processTransaction(txHash, value, destinationAddress, superblocks[_superblockHash].submitter, erc20ContractAddress, assetGUID, precision);\n            return value;\n        }\n        emit RelayTransaction(bytes32(0), ERR_RELAY_VERIFY);\n        return(ERR_RELAY_VERIFY);\n    }\n\n    // @dev - relays asset transaction(new or update) `_txBytes` to ERC20Manager's processAsset() method.\n    // Also logs the value of processAsset.\n    // Note: callers cannot be 100% certain when an ERR_RELAY_VERIFY occurs because\n    // it may also have been returned by processAsset(). Callers should be\n    // aware of the contract that they are relaying transactions to and\n    // understand what that contract's processTransaction method returns.\n    //\n    // @param _txBytes - transaction bytes\n    // @param _txIndex - transaction's index within the block\n    // @param _txSiblings - transaction's Merkle siblings\n    // @param _syscoinBlockHeader - block header containing transaction\n    // @param _syscoinBlockIndex - block's index within superblock\n    // @param _syscoinBlockSiblings - block's merkle siblings\n    // @param _superblockHash - superblock containing block header\n    function relayAssetTx(\n        bytes memory _txBytes,\n        uint _txIndex,\n        uint[] memory _txSiblings,\n        bytes memory _syscoinBlockHeader,\n        uint _syscoinBlockIndex,\n        uint[] memory _syscoinBlockSiblings,\n        bytes32 _superblockHash\n    ) public returns (uint) {\n        uint txHash = verifySPVProofs(_syscoinBlockHeader, _syscoinBlockIndex, _syscoinBlockSiblings, _superblockHash, _txBytes, _txIndex, _txSiblings);\n        if (txHash != 0) {\n            uint ret;\n            uint32 assetGUID;\n            address erc20ContractAddress;\n            (ret, assetGUID, erc20ContractAddress) = parseAssetTx(_txBytes);\n            if(ret != 0){\n                emit RelayTransaction(bytes32(txHash), ret);\n                return ret;\n            }\n            uint32 height = superblocks[_superblockHash].height*60;\n            height += uint32(_syscoinBlockIndex);\n            // pass in height of block as well by calc superblock sets of 60 blocks\n            syscoinERC20Manager.processAsset(txHash, assetGUID, height, erc20ContractAddress);\n            return 0;\n        }\n        emit RelayTransaction(bytes32(0), ERR_RELAY_VERIFY);\n        return(ERR_RELAY_VERIFY);\n    }\n\n    // Challenges a bridge cancellation request with SPV proofs linking tx to superblock and showing that a valid\n    // cancellation request exists. If challenge fails, the cancellation request continues until timeout at which point erc20 is refunded\n    //\n    // @param _txBytes - transaction bytes\n    // @param _txIndex - transaction's index within the block\n    // @param _txSiblings - transaction's Merkle siblings\n    // @param _syscoinBlockHeader - block header containing transaction\n    // @param _syscoinBlockIndex - block's index within superblock\n    // @param _syscoinBlockSiblings - block's merkle siblings\n    // @param _superblockHash - superblock containing block header\n    function challengeCancelTransfer(\n        bytes memory _txBytes,\n        uint _txIndex,\n        uint[] memory _txSiblings,\n        bytes memory _syscoinBlockHeader,\n        uint _syscoinBlockIndex,\n        uint[] memory _syscoinBlockSiblings,\n        bytes32 _superblockHash\n    ) public returns (uint) {\n        uint txHash = verifySPVProofs(_syscoinBlockHeader, _syscoinBlockIndex, _syscoinBlockSiblings, _superblockHash, _txBytes, _txIndex, _txSiblings);\n        if (txHash != 0) {\n            uint32 bridgeTransferId;\n            uint ret;\n            (ret, bridgeTransferId) = parseMintTx(_txBytes);\n            if(ret != 0){\n                emit RelayTransaction(bytes32(txHash), ret);\n                return ret;\n            }\n            // check if cancellation request exists in valid state\n            // cancel cancellation request if challenger wins, challenger gets paid cancellors deposit\n            syscoinERC20Manager.processCancelTransferFail(bridgeTransferId, msg.sender);\n            return 0;\n        }\n        emit ChallengeCancelTransferRequest(ERR_CANCEL_TRANSFER_VERIFY);\n        return(ERR_CANCEL_TRANSFER_VERIFY);\n    }\n\n    // @dev - Parses a syscoin tx\n    //\n    // @param txBytes - tx byte array\n    // Outputs\n    // @return output_value - amount sent to the lock address in satoshis\n    // @return destinationAddress - ethereum destination address\n    function parseBurnTx(bytes memory txBytes)\n        public\n        pure\n        returns (uint, uint, address, uint32, uint8, address)\n    {\n        uint output_value;\n        uint32 assetGUID;\n        address destinationAddress;\n        uint32 version;\n        address erc20Address;\n        uint8 precision;\n        uint pos = 0;\n        version = bytesToUint32Flipped(txBytes, pos);\n        if(version != SYSCOIN_TX_VERSION_ALLOCATION_BURN_TO_ETHEREUM){\n            return (ERR_PARSE_TX_SYS, output_value, destinationAddress, assetGUID, precision, erc20Address);\n        }\n        pos = getOpReturnPos(txBytes, 4);\n        (output_value, destinationAddress, assetGUID, precision, erc20Address) = scanAssetDetails(txBytes, pos);\n        return (0, output_value, destinationAddress, assetGUID, precision, erc20Address);\n    }\n\n    function skipInputs(bytes memory txBytes, uint pos)\n        private\n        pure\n        returns (uint)\n    {\n        uint n_inputs;\n        uint script_len;\n        (n_inputs, pos) = parseVarInt(txBytes, pos);\n        // if dummy 0x00 is present this is a witness transaction\n        if(n_inputs == 0x00){\n            (n_inputs, pos) = parseVarInt(txBytes, pos); // flag\n            require(n_inputs != 0x00, \"#SyscoinSuperblocks skipInputs(): Unexpected dummy/flag\");\n            // after dummy/flag the real var int comes for txins\n            (n_inputs, pos) = parseVarInt(txBytes, pos);\n        }\n        require(n_inputs < 100, \"#SyscoinSuperblocks skipInputs(): Incorrect size of n_inputs\");\n\n        for (uint i = 0; i < n_inputs; i++) {\n            pos += 36;  // skip outpoint\n            (script_len, pos) = parseVarInt(txBytes, pos);\n            pos += script_len + 4;  // skip sig_script, seq\n        }\n\n        return pos;\n    }\n\n    // @dev - Checks whether the transaction given by `_txBytes` is in the block identified by `_txBlockHeaderBytes`.\n    // First it guards against a Merkle tree collision attack by raising an error if the transaction is exactly 64 bytes long,\n    // then it calls helperVerifyHash to do the actual check.\n    //\n    // @param _txBytes - transaction bytes\n    // @param _txIndex - transaction's index within the block\n    // @param _siblings - transaction's Merkle siblings\n    // @param _txBlockHeaderBytes - block header containing transaction\n    // @param _txsuperblockHash - superblock containing block header\n    // @return - SHA-256 hash of _txBytes if the transaction is in the block, 0 otherwise\n    function verifyTx(\n        bytes memory _txBytes,\n        uint _txIndex,\n        uint[] memory _siblings,\n        bytes memory _txBlockHeaderBytes,\n        bytes32 _txsuperblockHash\n    ) private returns (uint) {\n        uint txHash = dblShaFlip(_txBytes);\n\n        if (_txBytes.length == 64) {  // todo: is check 32 also needed?\n            emit VerifyTransaction(bytes32(txHash), ERR_TX_64BYTE);\n            return 0;\n        }\n\n        if (helperVerifyHash(txHash, _txIndex, _siblings, _txBlockHeaderBytes, _txsuperblockHash) == 1) {\n            return txHash;\n        } else {\n            // log is done via helperVerifyHash\n            return 0;\n        }\n    }\n\n    // @dev - Bitcoin-way of hashing\n    // @param _dataBytes - raw data to be hashed\n    // @return - result of applying SHA-256 twice to raw data and then flipping the bytes\n    function dblShaFlip(bytes memory _dataBytes) public pure returns (uint) {\n        return flip32Bytes(uint(sha256(abi.encodePacked(sha256(abi.encodePacked(_dataBytes))))));\n    }\n\n    // @dev - extract Merkle root field from a raw Syscoin block header\n    //\n    // @param _blockHeader - Syscoin block header bytes\n    // @param pos - where to start reading root from\n    // @return - block's Merkle root in big endian format\n    function getHeaderMerkleRoot(bytes memory _blockHeader) public pure returns (uint) {\n        uint merkle;\n        assembly {\n            merkle := mload(add(add(_blockHeader, 32), 0x24))\n        }\n        return flip32Bytes(merkle);\n    }\n\n    // @dev - Checks whether the transaction identified by `_txHash` is in the block identified by `_blockHeaderBytes`\n    // and whether the block is in the Syscoin main chain. Transaction check is done via Merkle proof.\n    // Note: no verification is performed to prevent txHash from just being an\n    // internal hash in the Merkle tree. Thus this helper method should NOT be used\n    // directly and is intended to be private.\n    //\n    // @param _txHash - transaction hash\n    // @param _txIndex - transaction's index within the block\n    // @param _siblings - transaction's Merkle siblings\n    // @param _blockHeaderBytes - block header containing transaction\n    // @param _txsuperblockHash - superblock containing block header\n    // @return - 1 if the transaction is in the block and the block is in the main chain,\n    // 20020 (ERR_CONFIRMATIONS) if the block is not in the main chain,\n    // 20050 (ERR_MERKLE_ROOT) if the block is in the main chain but the Merkle proof fails.\n    function helperVerifyHash(\n        uint256 _txHash,\n        uint _txIndex,\n        uint[] memory _siblings,\n        bytes memory _blockHeaderBytes,\n        bytes32 _txsuperblockHash\n    ) private returns (uint) {\n\n        if (!isApproved(_txsuperblockHash)) {\n            emit VerifyTransaction(bytes32(_txHash), ERR_CHAIN);\n            return (ERR_CHAIN);\n        }\n\n        // Verify tx Merkle root\n        uint merkle = getHeaderMerkleRoot(_blockHeaderBytes);\n        if (computeMerkle(_txHash, _txIndex, _siblings) != merkle) {\n            emit VerifyTransaction(bytes32(_txHash), ERR_MERKLE_ROOT);\n            return (ERR_MERKLE_ROOT);\n        }\n        return (1);\n    }\n\n    // @dev - Calculate superblock hash from superblock data\n    //\n    // @param _blocksMerkleRoot Root of the merkle tree of blocks contained in a superblock\n    // @param _timestamp Timestamp of the last block in the superblock\n    // @param _mtpTimestamp Median Timestamp of the last block in the superblock\n    // @param _lastHash Hash of the last block in the superblock\n    // @param _lastBits Difficulty bits of the last block in the superblock bits\n    // @param _parentId Id of the parent superblock\n    // @return Superblock id\n    function calcSuperblockHash(\n        bytes32 _blocksMerkleRoot,\n        uint _timestamp,\n        uint _mtpTimestamp,\n        bytes32 _lastHash,\n        uint32 _lastBits,\n        bytes32 _parentId\n    ) public pure returns (bytes32) {\n        return keccak256(abi.encodePacked(\n            _blocksMerkleRoot,\n            _timestamp,\n            _mtpTimestamp,\n            _lastHash,\n            _lastBits,\n            _parentId\n        ));\n    }\n\n    // @dev - Returns the confirmed superblock with the most accumulated work\n    //\n    // @return Best superblock hash\n    function getBestSuperblock() external view returns (bytes32) {\n        return bestSuperblock;\n    }\n\n    // @dev - Returns the superblock data for the supplied superblock hash\n    //\n    function getSuperblock(bytes32 superblockHash) external view returns (\n        bytes32 _blocksMerkleRoot,\n        uint _timestamp,\n        uint _mtpTimestamp,\n        bytes32 _lastHash,\n        uint32 _lastBits,\n        bytes32 _parentId,\n        address _submitter,\n        Status _status,\n        uint32 _height\n    ) {\n        SuperblockInfo storage superblock = superblocks[superblockHash];\n        return (\n            superblock.blocksMerkleRoot,\n            superblock.timestamp,\n            superblock.mtpTimestamp,\n            superblock.lastHash,\n            superblock.lastBits,\n            superblock.parentId,\n            superblock.submitter,\n            superblock.status,\n            superblock.height\n        );\n    }\n\n    // @dev - Returns superblock height\n    function getSuperblockHeight(bytes32 superblockHash) public view returns (uint32) {\n        return superblocks[superblockHash].height;\n    }\n\n    // @dev - Return superblock timestamp\n    function getSuperblockTimestamp(bytes32 _superblockHash) external view returns (uint) {\n        return superblocks[_superblockHash].timestamp;\n    }\n\n    // @dev - Return superblock median timestamp\n    function getSuperblockMedianTimestamp(bytes32 _superblockHash) external view returns (uint) {\n        return superblocks[_superblockHash].mtpTimestamp;\n    }\n\n    // @dev - Return superblock parent\n    function getSuperblockParentId(bytes32 _superblockHash) external view returns (bytes32) {\n        return superblocks[_superblockHash].parentId;\n    }\n\n\n    // @dev - Return superblock status\n    function getSuperblockStatus(bytes32 _superblockHash) public view returns (Status) {\n        return superblocks[_superblockHash].status;\n    }\n\n    function isApproved(bytes32 _superblockHash) private view returns (bool) {\n        return (getSuperblockStatus(_superblockHash) == Status.Approved);\n    }\n    function getChainHeight() public view returns (uint) {\n        return superblocks[bestSuperblock].height;\n    }\n\n    // @dev - return superblock hash at a given height in superblock main chain\n    //\n    // @param _height - superblock height\n    // @return - hash corresponding to block of height _height\n    function getSuperblockAt(uint _height) external view returns (bytes32) {\n        bytes32 superblockHash = bestSuperblock;\n\n        while (getSuperblockHeight(superblockHash) > _height) {\n            superblockHash = superblocks[superblockHash].parentId;\n        }\n\n        return superblockHash;\n    }\n}\n",
  "sourcePath": "/Users/jsidhu/Documents/GitHub/sysethereum-contracts1/contracts/SyscoinSuperblocks.sol",
  "compiler": {
    "name": "solc",
    "version": "0.5.13+commit.5b0b510c.Emscripten.clang"
  },
  "schemaVersion": "3.0.20",
  "updatedAt": "2020-03-05T20:15:12.923Z",
  "devdoc": {
    "methods": {
      "getBridgeTransactionId(bytes)": {
        "params": {
          "logValues": "log values"
        },
        "return": "bridgeTransactionId"
      },
      "getEthReceipt(bytes,uint256)": {
        "params": {
          "pos": "position at where to start parsing",
          "txBytes": "syscoin raw transaction"
        },
        "return": "ethTxReceipt ethereum tx receipt"
      },
      "getLogValuesForTopic(bytes,bytes32)": {
        "params": {
          "ethTxReceipt": "ethereum transaction receipt"
        },
        "return": "logs bloom"
      },
      "parseAssetTx(bytes)": {
        "details": "Parse syscoin asset transaction to recover asset guid and contract, for purposes of updating asset registry in erc20manager",
        "params": {
          "txBytes": "syscoin raw transaction"
        },
        "return": "errorCode, assetGuid, erc20Address"
      },
      "parseMintTx(bytes)": {
        "details": "Parse syscoin mint transaction to recover bridgeTransferId",
        "params": {
          "txBytes": "syscoin raw transaction"
        },
        "return": "errorCode, bridgeTransferId"
      },
      "scanAssetTx(bytes,uint256)": {
        "params": {
          "pos": "position at where to start parsing",
          "txBytes": "syscoin raw transaction"
        },
        "return": "asset guid (uint32) and erc20 address linked to the asset guid to update registry in erc20manager"
      }
    }
  },
  "userdoc": {
    "methods": {
      "getBridgeTransactionId(bytes)": {
        "notice": "Get bridgeTransactionId from logs bloom"
      },
      "getEthReceipt(bytes,uint256)": {
        "notice": "Parse txBytes and returns ethereum tx receipt"
      },
      "getLogValuesForTopic(bytes,bytes32)": {
        "notice": "Return logs for given ethereum transaction receipt"
      },
      "scanAssetTx(bytes,uint256)": {
        "notice": "Parse txBytes and returns assetguid + contract address"
      }
    }
  }
}