{
  "contractName": "SyscoinERC20Manager",
  "abi": [
    {
      "anonymous": false,
      "inputs": [
        {
          "indexed": false,
          "internalType": "address",
          "name": "freezer",
          "type": "address"
        },
        {
          "indexed": false,
          "internalType": "uint256",
          "name": "value",
          "type": "uint256"
        }
      ],
      "name": "TokenFreeze",
      "type": "event"
    },
    {
      "anonymous": false,
      "inputs": [
        {
          "indexed": false,
          "internalType": "address",
          "name": "receipient",
          "type": "address"
        },
        {
          "indexed": false,
          "internalType": "uint256",
          "name": "value",
          "type": "uint256"
        }
      ],
      "name": "TokenUnfreeze",
      "type": "event"
    },
    {
      "anonymous": false,
      "inputs": [
        {
          "indexed": false,
          "internalType": "address",
          "name": "receipient",
          "type": "address"
        },
        {
          "indexed": false,
          "internalType": "uint256",
          "name": "value",
          "type": "uint256"
        }
      ],
      "name": "TokenUnfreezeFee",
      "type": "event"
    },
    {
      "constant": true,
      "inputs": [],
      "name": "MIN_LOCK_VALUE",
      "outputs": [
        {
          "internalType": "uint256",
          "name": "",
          "type": "uint256"
        }
      ],
      "payable": false,
      "stateMutability": "view",
      "type": "function"
    },
    {
      "constant": true,
      "inputs": [],
      "name": "SUPERBLOCK_SUBMITTER_LOCK_FEE",
      "outputs": [
        {
          "internalType": "uint256",
          "name": "",
          "type": "uint256"
        }
      ],
      "payable": false,
      "stateMutability": "view",
      "type": "function"
    },
    {
      "constant": true,
      "inputs": [
        {
          "internalType": "uint32",
          "name": "",
          "type": "uint32"
        }
      ],
      "name": "assetBalances",
      "outputs": [
        {
          "internalType": "uint256",
          "name": "",
          "type": "uint256"
        }
      ],
      "payable": false,
      "stateMutability": "view",
      "type": "function"
    },
    {
      "constant": true,
      "inputs": [],
      "name": "trustedRelayerContract",
      "outputs": [
        {
          "internalType": "address",
          "name": "",
          "type": "address"
        }
      ],
      "payable": false,
      "stateMutability": "view",
      "type": "function"
    },
    {
      "constant": false,
      "inputs": [
        {
          "internalType": "address",
          "name": "_trustedRelayerContract",
          "type": "address"
        }
      ],
      "name": "init",
      "outputs": [],
      "payable": false,
      "stateMutability": "nonpayable",
      "type": "function"
    },
    {
      "constant": true,
      "inputs": [
        {
          "internalType": "uint256",
          "name": "txHash",
          "type": "uint256"
        }
      ],
      "name": "wasSyscoinTxProcessed",
      "outputs": [
        {
          "internalType": "bool",
          "name": "",
          "type": "bool"
        }
      ],
      "payable": false,
      "stateMutability": "view",
      "type": "function"
    },
    {
      "constant": false,
      "inputs": [
        {
          "internalType": "uint256",
          "name": "txHash",
          "type": "uint256"
        },
        {
          "internalType": "uint256",
          "name": "value",
          "type": "uint256"
        },
        {
          "internalType": "address",
          "name": "destinationAddress",
          "type": "address"
        },
        {
          "internalType": "address",
          "name": "superblockSubmitterAddress",
          "type": "address"
        },
        {
          "internalType": "address",
          "name": "erc20ContractAddress",
          "type": "address"
        },
        {
          "internalType": "uint32",
          "name": "assetGUID",
          "type": "uint32"
        },
        {
          "internalType": "uint8",
          "name": "precision",
          "type": "uint8"
        }
      ],
      "name": "processTransaction",
      "outputs": [],
      "payable": false,
      "stateMutability": "nonpayable",
      "type": "function"
    },
    {
      "constant": false,
      "inputs": [
        {
          "internalType": "uint256",
          "name": "value",
          "type": "uint256"
        },
        {
          "internalType": "uint32",
          "name": "assetGUID",
          "type": "uint32"
        },
        {
          "internalType": "address",
          "name": "erc20ContractAddress",
          "type": "address"
        },
        {
          "internalType": "uint8",
          "name": "precision",
          "type": "uint8"
        },
        {
          "internalType": "bytes",
          "name": "syscoinAddress",
          "type": "bytes"
        }
      ],
      "name": "freezeBurnERC20",
      "outputs": [
        {
          "internalType": "bool",
          "name": "",
          "type": "bool"
        }
      ],
      "payable": false,
      "stateMutability": "nonpayable",
      "type": "function"
    }
  ],
  "bytecode": "0x608060405234801561001057600080fd5b50610dbc806100206000396000f3fe608060405234801561001057600080fd5b50600436106100885760003560e01c8063b52d521d1161005b578063b52d521d1461020e578063b85278a914610228578063cf496b1014610230578063fe2e97181461025457610088565b806319ab453c1461008d5780635f959b69146100b5578063a71d75ca14610199578063af56f158146101b6575b600080fd5b6100b3600480360360208110156100a357600080fd5b50356001600160a01b0316610277565b005b610185600480360360a08110156100cb57600080fd5b81359163ffffffff602082013516916001600160a01b036040830135169160ff6060820135169181019060a08101608082013564010000000081111561011057600080fd5b82018360208201111561012257600080fd5b8035906020019184600183028401116401000000008311171561014457600080fd5b91908080601f016020809104026020016040519081016040528093929190818152602001838380828437600092019190915250929550610335945050505050565b604080519115158252519081900360200190f35b610185600480360360208110156101af57600080fd5b503561065d565b6100b3600480360360e08110156101cc57600080fd5b5080359060208101359060408101356001600160a01b039081169160608101358216916080820135169060a081013563ffffffff169060c0013560ff16610670565b6102166109d5565b60408051918252519081900360200190f35b6102166109da565b6102386109e0565b604080516001600160a01b039092168252519081900360200190f35b6102166004803603602081101561026a57600080fd5b503563ffffffff166109ef565b600054610100900460ff16806102905750610290610a01565b8061029e575060005460ff16155b6102d95760405162461bcd60e51b815260040180806020018281038252602e815260200180610d5a602e913960400191505060405180910390fd5b600054610100900460ff16158015610304576000805460ff1961ff0019909116610100171660011790555b603380546001600160a01b0319166001600160a01b0384161790558015610331576000805461ff00191690555b5050565b600083866000826001600160a01b031663313ce5676040518163ffffffff1660e01b815260040160206040518083038186803b15801561037457600080fd5b505afa158015610388573d6000803e3d6000fd5b505050506040513d602081101561039e57600080fd5b505160ff1690506103b9600a82810a9063ffffffff610a0716565b8210156103f75760405162461bcd60e51b815260040180806020018281038252602c815260200180610d0d602c913960400191505060405180910390fd5b600085511161044d576040805162461bcd60e51b815260206004820152601d60248201527f737973636f696e416464726573732063616e6e6f74206265207a65726f000000604482015290519081900360640190fd5b60008863ffffffff16116104a8576040805162461bcd60e51b815260206004820152601860248201527f41737365742047554944206d757374206e6f7420626520300000000000000000604482015290519081900360640190fd5b6000879050806001600160a01b031663313ce5676040518163ffffffff1660e01b815260040160206040518083038186803b1580156104e657600080fd5b505afa1580156104fa573d6000803e3d6000fd5b505050506040513d602081101561051057600080fd5b505160ff8881169116146105555760405162461bcd60e51b8152600401808060200182810382526031815260200180610cdc6031913960400191505060405180910390fd5b604080516323b872dd60e01b8152336004820152306024820152604481018c905290516001600160a01b038316916323b872dd9160648083019260209291908290030181600087803b1580156105aa57600080fd5b505af11580156105be573d6000803e3d6000fd5b505050506040513d60208110156105d457600080fd5b505063ffffffff808a166000908152603460205260409020546105f9918c90610a5016565b63ffffffff8a166000908152603460209081526040918290209290925580513381529182018c905280517f7def9f73ac6a7ac8fe4dc55f5257d48aed7e3f9d5247b0020598b87a5c369d829281900390910190a15060019998505050505050505050565b600061066882610aaa565b90505b919050565b6033546001600160a01b031633146106b95760405162461bcd60e51b8152600401808060200182810382526021815260200180610d396021913960400191505060405180910390fd5b60008390506000816001600160a01b031663313ce5676040518163ffffffff1660e01b815260040160206040518083038186803b1580156106f957600080fd5b505afa15801561070d573d6000803e3d6000fd5b505050506040513d602081101561072357600080fd5b5051905060ff80841690821611156107475782810360ff16600a0a8802975061076a565b8260ff168160ff16101561076a5780830360ff16600a0a888161076657fe5b0497505b6107748189610abf565b61077d89610b65565b6107c5576040805162461bcd60e51b8152602060048201526014602482015273151608185b1c9958591e481c1c9bd8d95cdcd95960621b604482015290519081900360640190fd5b63ffffffff8085166000908152603460205260409020546107e8918a90610b9d16565b63ffffffff808616600090815260346020526040812092909255610812908a9061271090610a0716565b905060006108268a8363ffffffff610b9d16565b9050836001600160a01b031663a9059cbb89846040518363ffffffff1660e01b815260040180836001600160a01b03166001600160a01b0316815260200182815260200192505050602060405180830381600087803b15801561088857600080fd5b505af115801561089c573d6000803e3d6000fd5b505050506040513d60208110156108b257600080fd5b5050604080516001600160a01b038a1681526020810184905281517f378dbe173f6ed6e11630b29573f719ec4cefc9b49f430deed915911c5f78a080929181900390910190a1836001600160a01b031663a9059cbb8a836040518363ffffffff1660e01b815260040180836001600160a01b03166001600160a01b0316815260200182815260200192505050602060405180830381600087803b15801561095857600080fd5b505af115801561096c573d6000803e3d6000fd5b505050506040513d602081101561098257600080fd5b5050604080516001600160a01b038b1681526020810183905281517fb925ba840e2f36bcb317f8179bd8b5ed01aba4a22abf5f169162c0894dea87ab929181900390910190a15050505050505050505050565b600a81565b61271081565b6033546001600160a01b031681565b60346020526000908152604090205481565b303b1590565b6000610a4983836040518060400160405280601a81526020017f536166654d6174683a206469766973696f6e206279207a65726f000000000000815250610bdf565b9392505050565b600082820183811015610a49576040805162461bcd60e51b815260206004820152601b60248201527f536166654d6174683a206164646974696f6e206f766572666c6f770000000000604482015290519081900360640190fd5b60009081526035602052604090205460ff1690565b60ff821681610b0e576040805162461bcd60e51b815260206004820152601660248201527556616c7565206d75737420626520706f73697469766560501b604482015290519081900360640190fd5b610b22600a82810a9063ffffffff610a0716565b821015610b605760405162461bcd60e51b815260040180806020018281038252602c815260200180610d0d602c913960400191505060405180910390fd5b505050565b6000610b7082610aaa565b15610b7d5750600061066b565b506000908152603560205260409020805460ff1916600190811790915590565b6000610a4983836040518060400160405280601e81526020017f536166654d6174683a207375627472616374696f6e206f766572666c6f770000815250610c81565b60008183610c6b5760405162461bcd60e51b81526004018080602001828103825283818151815260200191508051906020019080838360005b83811015610c30578181015183820152602001610c18565b50505050905090810190601f168015610c5d5780820380516001836020036101000a031916815260200191505b509250505060405180910390fd5b506000838581610c7757fe5b0495945050505050565b60008184841115610cd35760405162461bcd60e51b8152602060048201818152835160248401528351909283926044909101919085019080838360008315610c30578181015183820152602001610c18565b50505090039056fe446563696d616c732077657265206e6f742070726f766964656420776974682074686520636f72726563742076616c756556616c7565206d75737420626520626967676572206f7220657175616c204d494e5f4c4f434b5f56414c554543616c6c206d7573742062652066726f6d20747275737465642072656c61796572436f6e747261637420696e7374616e63652068617320616c7265616479206265656e20696e697469616c697a6564a265627a7a723158207df7084c87293b999ae91c5cdcf85609784dfc1ef945a5700920f78c29b01b4f64736f6c634300050d0032",
  "source": "pragma solidity ^0.5.13;\n\nimport \"../SyscoinTransactionProcessor.sol\";\nimport \"openzeppelin-solidity/contracts/math/SafeMath.sol\";\nimport \"../interfaces/SyscoinERC20I.sol\";\nimport \"@openzeppelin/upgrades/contracts/Initializable.sol\";\n\ncontract SyscoinERC20Manager is Initializable {\n\n    using SafeMath for uint256;\n    using SafeMath for uint8;\n\n    // Lock constants\n    uint public constant MIN_LOCK_VALUE = 10; // 0.1 token\n    uint public constant SUPERBLOCK_SUBMITTER_LOCK_FEE = 10000; // 10000 = 0.01%\n\n    // Variables set by constructor\n\n    // Contract to trust for tx included in a syscoin block verification.\n    // Only syscoin txs relayed from trustedRelayerContract will be accepted.\n    address public trustedRelayerContract;\n\n\n    mapping(uint32 => uint256) public assetBalances;\n    // Syscoin transactions that were already processed by processTransaction()\n    mapping(uint => bool) private syscoinTxHashesAlreadyProcessed;\n\n\n    event TokenUnfreeze(address receipient, uint value);\n    event TokenUnfreezeFee(address receipient, uint value);\n    event TokenFreeze(address freezer, uint value);\n\n    function contains(uint value) private view returns (bool) {\n        return syscoinTxHashesAlreadyProcessed[value];\n    }\n\n    function insert(uint value) private returns (bool) {\n        if (contains(value))\n            return false; // already there\n        syscoinTxHashesAlreadyProcessed[value] = true;\n        return true;\n    }\n    \n    function init(address _trustedRelayerContract) public initializer {\n        trustedRelayerContract = _trustedRelayerContract;\n    }\n\n    modifier onlyTrustedRelayer() {\n        require(msg.sender == trustedRelayerContract, \"Call must be from trusted relayer\");\n        _;\n    }\n\n    modifier minimumValue(address erc20ContractAddress, uint value) {\n        uint256 decimals = SyscoinERC20I(erc20ContractAddress).decimals();\n        require(\n            value >= (uint256(10) ** decimals).div(MIN_LOCK_VALUE),\n            \"Value must be bigger or equal MIN_LOCK_VALUE\"\n        );\n        _;\n    }\n\n    function requireMinimumValue(uint8 decimalsIn, uint value) private pure {\n        uint256 decimals = uint256(decimalsIn);\n        require(value > 0, \"Value must be positive\");\n        require(\n            value >= (uint256(10) ** decimals).div(MIN_LOCK_VALUE),\n            \"Value must be bigger or equal MIN_LOCK_VALUE\"\n        );\n        \n    }\n\n    function wasSyscoinTxProcessed(uint txHash) public view returns (bool) {\n        return contains(txHash);\n    }\n\n    function processTransaction(\n        uint txHash,\n        uint value,\n        address destinationAddress,\n        address superblockSubmitterAddress,\n        address erc20ContractAddress,\n        uint32 assetGUID,\n        uint8 precision\n    ) public onlyTrustedRelayer {\n        SyscoinERC20I erc20 = SyscoinERC20I(erc20ContractAddress);\n        uint8 nLocalPrecision = erc20.decimals();\n        // see issue #372 on syscoin\n        if(nLocalPrecision > precision){\n            value *= uint(10)**(uint(nLocalPrecision - precision));\n        }else if(nLocalPrecision < precision){\n            value /= uint(10)**(uint(precision - nLocalPrecision));\n        }\n        requireMinimumValue(nLocalPrecision, value);\n        // Add tx to the syscoinTxHashesAlreadyProcessed and Check tx was not already processed\n        require(insert(txHash), \"TX already processed\");\n\n\n        assetBalances[assetGUID] = assetBalances[assetGUID].sub(value);\n\n        uint superblockSubmitterFee = value.div(SUPERBLOCK_SUBMITTER_LOCK_FEE);\n        uint userValue = value.sub(superblockSubmitterFee);\n\n        // pay the fee\n        erc20.transfer(superblockSubmitterAddress, superblockSubmitterFee);\n        emit TokenUnfreezeFee(superblockSubmitterAddress, superblockSubmitterFee);\n\n        // get your token\n        erc20.transfer(destinationAddress, userValue);\n        emit TokenUnfreeze(destinationAddress, userValue);\n    }\n\n    // keyhash or scripthash for syscoinWitnessProgram\n    function freezeBurnERC20(\n        uint value,\n        uint32 assetGUID,\n        address erc20ContractAddress,\n        uint8 precision,\n        bytes memory syscoinAddress\n    )\n        public\n        minimumValue(erc20ContractAddress, value)\n        returns (bool)\n    {\n        require(syscoinAddress.length > 0, \"syscoinAddress cannot be zero\");\n        require(assetGUID > 0, \"Asset GUID must not be 0\");\n        \n\n        SyscoinERC20I erc20 = SyscoinERC20I(erc20ContractAddress);\n        require(precision == erc20.decimals(), \"Decimals were not provided with the correct value\");\n        erc20.transferFrom(msg.sender, address(this), value);\n        assetBalances[assetGUID] = assetBalances[assetGUID].add(value);\n        emit TokenFreeze(msg.sender, value);\n\n        return true;\n    }\n}\n",
  "sourcePath": "/Users/jsidhu/Documents/GitHub/sysethereum-contracts1/contracts/token/SyscoinERC20Manager.sol",
  "compiler": {
    "name": "solc",
    "version": "0.5.13+commit.5b0b510c.Emscripten.clang"
  },
  "schemaVersion": "3.0.19",
  "updatedAt": "2019-11-20T22:28:05.376Z",
  "devdoc": {
    "methods": {}
  },
  "userdoc": {
    "methods": {}
  }
}