{
  "contractName": "SyscoinSuperblocks",
  "abi": [
    {
      "anonymous": false,
      "inputs": [
        {
          "indexed": false,
          "internalType": "bytes32",
          "name": "superblockHash",
          "type": "bytes32"
        },
        {
          "indexed": false,
          "internalType": "address",
          "name": "who",
          "type": "address"
        }
      ],
      "name": "ApprovedSuperblock",
      "type": "event"
    },
    {
      "anonymous": false,
      "inputs": [
        {
          "indexed": false,
          "internalType": "uint256",
          "name": "returnCode",
          "type": "uint256"
        }
      ],
      "name": "ChallengeCancelTransferRequest",
      "type": "event"
    },
    {
      "anonymous": false,
      "inputs": [
        {
          "indexed": false,
          "internalType": "bytes32",
          "name": "superblockHash",
          "type": "bytes32"
        },
        {
          "indexed": false,
          "internalType": "address",
          "name": "who",
          "type": "address"
        }
      ],
      "name": "ChallengeSuperblock",
      "type": "event"
    },
    {
      "anonymous": false,
      "inputs": [
        {
          "indexed": false,
          "internalType": "bytes32",
          "name": "superblockHash",
          "type": "bytes32"
        },
        {
          "indexed": false,
          "internalType": "uint256",
          "name": "err",
          "type": "uint256"
        }
      ],
      "name": "ErrorSuperblock",
      "type": "event"
    },
    {
      "anonymous": false,
      "inputs": [
        {
          "indexed": false,
          "internalType": "bytes32",
          "name": "superblockHash",
          "type": "bytes32"
        },
        {
          "indexed": false,
          "internalType": "address",
          "name": "who",
          "type": "address"
        }
      ],
      "name": "InvalidSuperblock",
      "type": "event"
    },
    {
      "anonymous": false,
      "inputs": [
        {
          "indexed": false,
          "internalType": "bytes32",
          "name": "superblockHash",
          "type": "bytes32"
        },
        {
          "indexed": false,
          "internalType": "address",
          "name": "who",
          "type": "address"
        }
      ],
      "name": "NewSuperblock",
      "type": "event"
    },
    {
      "anonymous": false,
      "inputs": [
        {
          "indexed": false,
          "internalType": "bytes32",
          "name": "txHash",
          "type": "bytes32"
        },
        {
          "indexed": false,
          "internalType": "uint256",
          "name": "returnCode",
          "type": "uint256"
        }
      ],
      "name": "RelayTransaction",
      "type": "event"
    },
    {
      "anonymous": false,
      "inputs": [
        {
          "indexed": false,
          "internalType": "bytes32",
          "name": "superblockHash",
          "type": "bytes32"
        },
        {
          "indexed": false,
          "internalType": "address",
          "name": "who",
          "type": "address"
        }
      ],
      "name": "SemiApprovedSuperblock",
      "type": "event"
    },
    {
      "anonymous": false,
      "inputs": [
        {
          "indexed": false,
          "internalType": "bytes32",
          "name": "txHash",
          "type": "bytes32"
        },
        {
          "indexed": false,
          "internalType": "uint256",
          "name": "returnCode",
          "type": "uint256"
        }
      ],
      "name": "VerifyTransaction",
      "type": "event"
    },
    {
      "constant": true,
      "inputs": [
        {
          "internalType": "bytes",
          "name": "input",
          "type": "bytes"
        },
        {
          "internalType": "uint256",
          "name": "pos",
          "type": "uint256"
        }
      ],
      "name": "bytesToUint32Flipped",
      "outputs": [
        {
          "internalType": "uint32",
          "name": "result",
          "type": "uint32"
        }
      ],
      "payable": false,
      "stateMutability": "pure",
      "type": "function"
    },
    {
      "constant": true,
      "inputs": [
        {
          "internalType": "uint256",
          "name": "_txHash",
          "type": "uint256"
        },
        {
          "internalType": "uint256",
          "name": "_txIndex",
          "type": "uint256"
        },
        {
          "internalType": "uint256[]",
          "name": "_siblings",
          "type": "uint256[]"
        }
      ],
      "name": "computeMerkle",
      "outputs": [
        {
          "internalType": "uint256",
          "name": "",
          "type": "uint256"
        }
      ],
      "payable": false,
      "stateMutability": "pure",
      "type": "function"
    },
    {
      "constant": true,
      "inputs": [
        {
          "internalType": "uint256",
          "name": "_input",
          "type": "uint256"
        }
      ],
      "name": "flip32Bytes",
      "outputs": [
        {
          "internalType": "uint256",
          "name": "result",
          "type": "uint256"
        }
      ],
      "payable": false,
      "stateMutability": "pure",
      "type": "function"
    },
    {
      "constant": true,
      "inputs": [
        {
          "internalType": "bytes",
          "name": "data",
          "type": "bytes"
        },
        {
          "internalType": "uint256",
          "name": "pos",
          "type": "uint256"
        },
        {
          "internalType": "uint256",
          "name": "bits",
          "type": "uint256"
        }
      ],
      "name": "getBytesLE",
      "outputs": [
        {
          "internalType": "uint256",
          "name": "result",
          "type": "uint256"
        }
      ],
      "payable": false,
      "stateMutability": "pure",
      "type": "function"
    },
    {
      "constant": true,
      "inputs": [],
      "name": "minProposalDeposit",
      "outputs": [
        {
          "internalType": "uint256",
          "name": "",
          "type": "uint256"
        }
      ],
      "payable": false,
      "stateMutability": "view",
      "type": "function"
    },
    {
      "constant": true,
      "inputs": [
        {
          "internalType": "bytes",
          "name": "txBytes",
          "type": "bytes"
        },
        {
          "internalType": "uint256",
          "name": "pos",
          "type": "uint256"
        }
      ],
      "name": "parseVarInt",
      "outputs": [
        {
          "internalType": "uint256",
          "name": "",
          "type": "uint256"
        },
        {
          "internalType": "uint256",
          "name": "",
          "type": "uint256"
        }
      ],
      "payable": false,
      "stateMutability": "pure",
      "type": "function"
    },
    {
      "constant": true,
      "inputs": [
        {
          "internalType": "bytes",
          "name": "_rawBytes",
          "type": "bytes"
        },
        {
          "internalType": "uint256",
          "name": "offset",
          "type": "uint256"
        },
        {
          "internalType": "uint256",
          "name": "_endIndex",
          "type": "uint256"
        }
      ],
      "name": "sliceArray",
      "outputs": [
        {
          "internalType": "bytes",
          "name": "",
          "type": "bytes"
        }
      ],
      "payable": false,
      "stateMutability": "view",
      "type": "function"
    },
    {
      "constant": true,
      "inputs": [],
      "name": "syscoinERC20Manager",
      "outputs": [
        {
          "internalType": "contract SyscoinTransactionProcessor",
          "name": "",
          "type": "address"
        }
      ],
      "payable": false,
      "stateMutability": "view",
      "type": "function"
    },
    {
      "constant": true,
      "inputs": [],
      "name": "trustedClaimManager",
      "outputs": [
        {
          "internalType": "address",
          "name": "",
          "type": "address"
        }
      ],
      "payable": false,
      "stateMutability": "view",
      "type": "function"
    },
    {
      "constant": false,
      "inputs": [
        {
          "internalType": "address",
          "name": "_syscoinERC20Manager",
          "type": "address"
        },
        {
          "internalType": "address",
          "name": "_claimManager",
          "type": "address"
        }
      ],
      "name": "init",
      "outputs": [],
      "payable": false,
      "stateMutability": "nonpayable",
      "type": "function"
    },
    {
      "constant": true,
      "inputs": [
        {
          "internalType": "bytes",
          "name": "input",
          "type": "bytes"
        },
        {
          "internalType": "uint256",
          "name": "pos",
          "type": "uint256"
        }
      ],
      "name": "bytesToUint64",
      "outputs": [
        {
          "internalType": "uint64",
          "name": "result",
          "type": "uint64"
        }
      ],
      "payable": false,
      "stateMutability": "pure",
      "type": "function"
    },
    {
      "constant": true,
      "inputs": [
        {
          "internalType": "bytes",
          "name": "input",
          "type": "bytes"
        },
        {
          "internalType": "uint256",
          "name": "pos",
          "type": "uint256"
        }
      ],
      "name": "bytesToUint32",
      "outputs": [
        {
          "internalType": "uint32",
          "name": "result",
          "type": "uint32"
        }
      ],
      "payable": false,
      "stateMutability": "pure",
      "type": "function"
    },
    {
      "constant": true,
      "inputs": [
        {
          "internalType": "bytes",
          "name": "txBytes",
          "type": "bytes"
        },
        {
          "internalType": "uint256",
          "name": "pos",
          "type": "uint256"
        }
      ],
      "name": "getOpReturnPos",
      "outputs": [
        {
          "internalType": "uint256",
          "name": "",
          "type": "uint256"
        }
      ],
      "payable": false,
      "stateMutability": "pure",
      "type": "function"
    },
    {
      "constant": true,
      "inputs": [
        {
          "internalType": "bytes",
          "name": "txBytes",
          "type": "bytes"
        }
      ],
      "name": "parseMintTx",
      "outputs": [
        {
          "internalType": "uint256",
          "name": "errorCode",
          "type": "uint256"
        },
        {
          "internalType": "uint32",
          "name": "bridgeTransferId",
          "type": "uint32"
        }
      ],
      "payable": false,
      "stateMutability": "view",
      "type": "function"
    },
    {
      "constant": true,
      "inputs": [
        {
          "internalType": "bytes",
          "name": "input",
          "type": "bytes"
        },
        {
          "internalType": "uint256",
          "name": "pos",
          "type": "uint256"
        }
      ],
      "name": "bytesToUint16",
      "outputs": [
        {
          "internalType": "uint16",
          "name": "result",
          "type": "uint16"
        }
      ],
      "payable": false,
      "stateMutability": "pure",
      "type": "function"
    },
    {
      "constant": true,
      "inputs": [
        {
          "internalType": "bytes",
          "name": "txBytes",
          "type": "bytes"
        },
        {
          "internalType": "uint256",
          "name": "pos",
          "type": "uint256"
        }
      ],
      "name": "getEthReceipt",
      "outputs": [
        {
          "internalType": "bytes",
          "name": "",
          "type": "bytes"
        }
      ],
      "payable": false,
      "stateMutability": "view",
      "type": "function"
    },
    {
      "constant": true,
      "inputs": [
        {
          "internalType": "bytes",
          "name": "_rawBytes",
          "type": "bytes"
        },
        {
          "internalType": "uint256",
          "name": "pos",
          "type": "uint256"
        }
      ],
      "name": "bytesToBytes32",
      "outputs": [
        {
          "internalType": "bytes32",
          "name": "",
          "type": "bytes32"
        }
      ],
      "payable": false,
      "stateMutability": "pure",
      "type": "function"
    },
    {
      "constant": true,
      "inputs": [
        {
          "internalType": "bytes",
          "name": "ethTxReceipt",
          "type": "bytes"
        },
        {
          "internalType": "bytes32",
          "name": "expectedTopic",
          "type": "bytes32"
        }
      ],
      "name": "getLogValuesForTopic",
      "outputs": [
        {
          "internalType": "bytes",
          "name": "",
          "type": "bytes"
        }
      ],
      "payable": false,
      "stateMutability": "pure",
      "type": "function"
    },
    {
      "constant": true,
      "inputs": [
        {
          "internalType": "bytes",
          "name": "logValues",
          "type": "bytes"
        }
      ],
      "name": "getBridgeTransactionId",
      "outputs": [
        {
          "internalType": "uint256",
          "name": "value",
          "type": "uint256"
        }
      ],
      "payable": false,
      "stateMutability": "pure",
      "type": "function"
    },
    {
      "constant": false,
      "inputs": [
        {
          "internalType": "bytes32",
          "name": "_blocksMerkleRoot",
          "type": "bytes32"
        },
        {
          "internalType": "uint256",
          "name": "_timestamp",
          "type": "uint256"
        },
        {
          "internalType": "uint256",
          "name": "_mtpTimestamp",
          "type": "uint256"
        },
        {
          "internalType": "bytes32",
          "name": "_lastHash",
          "type": "bytes32"
        },
        {
          "internalType": "uint32",
          "name": "_lastBits",
          "type": "uint32"
        },
        {
          "internalType": "bytes32",
          "name": "_parentId",
          "type": "bytes32"
        }
      ],
      "name": "initialize",
      "outputs": [
        {
          "internalType": "uint256",
          "name": "",
          "type": "uint256"
        },
        {
          "internalType": "bytes32",
          "name": "",
          "type": "bytes32"
        }
      ],
      "payable": false,
      "stateMutability": "nonpayable",
      "type": "function"
    },
    {
      "constant": false,
      "inputs": [
        {
          "internalType": "bytes32",
          "name": "_blocksMerkleRoot",
          "type": "bytes32"
        },
        {
          "internalType": "uint256",
          "name": "_timestamp",
          "type": "uint256"
        },
        {
          "internalType": "uint256",
          "name": "_mtpTimestamp",
          "type": "uint256"
        },
        {
          "internalType": "bytes32",
          "name": "_lastHash",
          "type": "bytes32"
        },
        {
          "internalType": "uint32",
          "name": "_lastBits",
          "type": "uint32"
        },
        {
          "internalType": "bytes32",
          "name": "_parentId",
          "type": "bytes32"
        },
        {
          "internalType": "address",
          "name": "submitter",
          "type": "address"
        }
      ],
      "name": "propose",
      "outputs": [
        {
          "internalType": "uint256",
          "name": "",
          "type": "uint256"
        },
        {
          "internalType": "bytes32",
          "name": "",
          "type": "bytes32"
        }
      ],
      "payable": false,
      "stateMutability": "nonpayable",
      "type": "function"
    },
    {
      "constant": false,
      "inputs": [
        {
          "internalType": "bytes32",
          "name": "_superblockHash",
          "type": "bytes32"
        },
        {
          "internalType": "address",
          "name": "_validator",
          "type": "address"
        }
      ],
      "name": "confirm",
      "outputs": [
        {
          "internalType": "uint256",
          "name": "",
          "type": "uint256"
        }
      ],
      "payable": false,
      "stateMutability": "nonpayable",
      "type": "function"
    },
    {
      "constant": false,
      "inputs": [
        {
          "internalType": "bytes32",
          "name": "_superblockHash",
          "type": "bytes32"
        },
        {
          "internalType": "address",
          "name": "_challenger",
          "type": "address"
        }
      ],
      "name": "challenge",
      "outputs": [
        {
          "internalType": "uint256",
          "name": "",
          "type": "uint256"
        }
      ],
      "payable": false,
      "stateMutability": "nonpayable",
      "type": "function"
    },
    {
      "constant": false,
      "inputs": [
        {
          "internalType": "bytes32",
          "name": "_superblockHash",
          "type": "bytes32"
        },
        {
          "internalType": "address",
          "name": "_validator",
          "type": "address"
        }
      ],
      "name": "semiApprove",
      "outputs": [
        {
          "internalType": "uint256",
          "name": "",
          "type": "uint256"
        }
      ],
      "payable": false,
      "stateMutability": "nonpayable",
      "type": "function"
    },
    {
      "constant": false,
      "inputs": [
        {
          "internalType": "bytes32",
          "name": "_superblockHash",
          "type": "bytes32"
        },
        {
          "internalType": "address",
          "name": "_validator",
          "type": "address"
        }
      ],
      "name": "invalidate",
      "outputs": [
        {
          "internalType": "uint256",
          "name": "",
          "type": "uint256"
        }
      ],
      "payable": false,
      "stateMutability": "nonpayable",
      "type": "function"
    },
    {
      "constant": false,
      "inputs": [
        {
          "internalType": "bytes",
          "name": "_txBytes",
          "type": "bytes"
        },
        {
          "internalType": "uint256",
          "name": "_txIndex",
          "type": "uint256"
        },
        {
          "internalType": "uint256[]",
          "name": "_txSiblings",
          "type": "uint256[]"
        },
        {
          "internalType": "bytes",
          "name": "_syscoinBlockHeader",
          "type": "bytes"
        },
        {
          "internalType": "uint256",
          "name": "_syscoinBlockIndex",
          "type": "uint256"
        },
        {
          "internalType": "uint256[]",
          "name": "_syscoinBlockSiblings",
          "type": "uint256[]"
        },
        {
          "internalType": "bytes32",
          "name": "_superblockHash",
          "type": "bytes32"
        }
      ],
      "name": "relayTx",
      "outputs": [
        {
          "internalType": "uint256",
          "name": "",
          "type": "uint256"
        }
      ],
      "payable": false,
      "stateMutability": "nonpayable",
      "type": "function"
    },
    {
      "constant": false,
      "inputs": [
        {
          "internalType": "bytes",
          "name": "_txBytes",
          "type": "bytes"
        },
        {
          "internalType": "uint256",
          "name": "_txIndex",
          "type": "uint256"
        },
        {
          "internalType": "uint256[]",
          "name": "_txSiblings",
          "type": "uint256[]"
        },
        {
          "internalType": "bytes",
          "name": "_syscoinBlockHeader",
          "type": "bytes"
        },
        {
          "internalType": "uint256",
          "name": "_syscoinBlockIndex",
          "type": "uint256"
        },
        {
          "internalType": "uint256[]",
          "name": "_syscoinBlockSiblings",
          "type": "uint256[]"
        },
        {
          "internalType": "bytes32",
          "name": "_superblockHash",
          "type": "bytes32"
        }
      ],
      "name": "challengeCancelTransfer",
      "outputs": [
        {
          "internalType": "uint256",
          "name": "",
          "type": "uint256"
        }
      ],
      "payable": false,
      "stateMutability": "nonpayable",
      "type": "function"
    },
    {
      "constant": true,
      "inputs": [
        {
          "internalType": "bytes",
          "name": "txBytes",
          "type": "bytes"
        }
      ],
      "name": "parseBurnTx",
      "outputs": [
        {
          "internalType": "uint256",
          "name": "",
          "type": "uint256"
        },
        {
          "internalType": "uint256",
          "name": "",
          "type": "uint256"
        },
        {
          "internalType": "address",
          "name": "",
          "type": "address"
        },
        {
          "internalType": "uint32",
          "name": "",
          "type": "uint32"
        },
        {
          "internalType": "uint8",
          "name": "",
          "type": "uint8"
        },
        {
          "internalType": "address",
          "name": "",
          "type": "address"
        }
      ],
      "payable": false,
      "stateMutability": "pure",
      "type": "function"
    },
    {
      "constant": true,
      "inputs": [
        {
          "internalType": "bytes",
          "name": "_dataBytes",
          "type": "bytes"
        }
      ],
      "name": "dblShaFlip",
      "outputs": [
        {
          "internalType": "uint256",
          "name": "",
          "type": "uint256"
        }
      ],
      "payable": false,
      "stateMutability": "pure",
      "type": "function"
    },
    {
      "constant": true,
      "inputs": [
        {
          "internalType": "bytes",
          "name": "_blockHeader",
          "type": "bytes"
        }
      ],
      "name": "getHeaderMerkleRoot",
      "outputs": [
        {
          "internalType": "uint256",
          "name": "",
          "type": "uint256"
        }
      ],
      "payable": false,
      "stateMutability": "pure",
      "type": "function"
    },
    {
      "constant": true,
      "inputs": [
        {
          "internalType": "bytes32",
          "name": "_blocksMerkleRoot",
          "type": "bytes32"
        },
        {
          "internalType": "uint256",
          "name": "_timestamp",
          "type": "uint256"
        },
        {
          "internalType": "uint256",
          "name": "_mtpTimestamp",
          "type": "uint256"
        },
        {
          "internalType": "bytes32",
          "name": "_lastHash",
          "type": "bytes32"
        },
        {
          "internalType": "uint32",
          "name": "_lastBits",
          "type": "uint32"
        },
        {
          "internalType": "bytes32",
          "name": "_parentId",
          "type": "bytes32"
        }
      ],
      "name": "calcSuperblockHash",
      "outputs": [
        {
          "internalType": "bytes32",
          "name": "",
          "type": "bytes32"
        }
      ],
      "payable": false,
      "stateMutability": "pure",
      "type": "function"
    },
    {
      "constant": true,
      "inputs": [],
      "name": "getBestSuperblock",
      "outputs": [
        {
          "internalType": "bytes32",
          "name": "",
          "type": "bytes32"
        }
      ],
      "payable": false,
      "stateMutability": "view",
      "type": "function"
    },
    {
      "constant": true,
      "inputs": [
        {
          "internalType": "bytes32",
          "name": "superblockHash",
          "type": "bytes32"
        }
      ],
      "name": "getSuperblock",
      "outputs": [
        {
          "internalType": "bytes32",
          "name": "_blocksMerkleRoot",
          "type": "bytes32"
        },
        {
          "internalType": "uint256",
          "name": "_timestamp",
          "type": "uint256"
        },
        {
          "internalType": "uint256",
          "name": "_mtpTimestamp",
          "type": "uint256"
        },
        {
          "internalType": "bytes32",
          "name": "_lastHash",
          "type": "bytes32"
        },
        {
          "internalType": "uint32",
          "name": "_lastBits",
          "type": "uint32"
        },
        {
          "internalType": "bytes32",
          "name": "_parentId",
          "type": "bytes32"
        },
        {
          "internalType": "address",
          "name": "_submitter",
          "type": "address"
        },
        {
          "internalType": "enum SyscoinSuperblocksI.Status",
          "name": "_status",
          "type": "uint8"
        },
        {
          "internalType": "uint32",
          "name": "_height",
          "type": "uint32"
        }
      ],
      "payable": false,
      "stateMutability": "view",
      "type": "function"
    },
    {
      "constant": true,
      "inputs": [
        {
          "internalType": "bytes32",
          "name": "superblockHash",
          "type": "bytes32"
        }
      ],
      "name": "getSuperblockHeight",
      "outputs": [
        {
          "internalType": "uint32",
          "name": "",
          "type": "uint32"
        }
      ],
      "payable": false,
      "stateMutability": "view",
      "type": "function"
    },
    {
      "constant": true,
      "inputs": [
        {
          "internalType": "bytes32",
          "name": "_superblockHash",
          "type": "bytes32"
        }
      ],
      "name": "getSuperblockTimestamp",
      "outputs": [
        {
          "internalType": "uint256",
          "name": "",
          "type": "uint256"
        }
      ],
      "payable": false,
      "stateMutability": "view",
      "type": "function"
    },
    {
      "constant": true,
      "inputs": [
        {
          "internalType": "bytes32",
          "name": "_superblockHash",
          "type": "bytes32"
        }
      ],
      "name": "getSuperblockMedianTimestamp",
      "outputs": [
        {
          "internalType": "uint256",
          "name": "",
          "type": "uint256"
        }
      ],
      "payable": false,
      "stateMutability": "view",
      "type": "function"
    },
    {
      "constant": true,
      "inputs": [
        {
          "internalType": "bytes32",
          "name": "_superblockHash",
          "type": "bytes32"
        }
      ],
      "name": "getSuperblockParentId",
      "outputs": [
        {
          "internalType": "bytes32",
          "name": "",
          "type": "bytes32"
        }
      ],
      "payable": false,
      "stateMutability": "view",
      "type": "function"
    },
    {
      "constant": true,
      "inputs": [
        {
          "internalType": "bytes32",
          "name": "_superblockHash",
          "type": "bytes32"
        }
      ],
      "name": "getSuperblockStatus",
      "outputs": [
        {
          "internalType": "enum SyscoinSuperblocksI.Status",
          "name": "",
          "type": "uint8"
        }
      ],
      "payable": false,
      "stateMutability": "view",
      "type": "function"
    },
    {
      "constant": true,
      "inputs": [],
      "name": "getChainHeight",
      "outputs": [
        {
          "internalType": "uint256",
          "name": "",
          "type": "uint256"
        }
      ],
      "payable": false,
      "stateMutability": "view",
      "type": "function"
    },
    {
      "constant": true,
      "inputs": [
        {
          "internalType": "uint256",
          "name": "_height",
          "type": "uint256"
        }
      ],
      "name": "getSuperblockAt",
      "outputs": [
        {
          "internalType": "bytes32",
          "name": "",
          "type": "bytes32"
        }
      ],
      "payable": false,
      "stateMutability": "view",
      "type": "function"
    }
  ],
  "bytecode": "0x608060405234801561001057600080fd5b50613b7a806100206000396000f3fe608060405234801561001057600080fd5b50600436106102485760003560e01c8063828fa8b41161013b578063c8bd7768116100b8578063ed8609761161007c578063ed860976146114e0578063f06d520d14611521578063f09a401614611529578063fbb381a714611559578063fc96c396146115ff57610248565b8063c8bd776814611022578063cae0581e14611261578063d0f9410b146112a2578063d5c9712f1461134f578063e8f421df146113f857610248565b8063b79bbf46116100ff578063b79bbf4614610dcb578063b7a8121814610e71578063c0dde98b14610f17578063c1f67ab314610f34578063c63128aa14610f6057610248565b8063828fa8b414610cd457806395b45ee714610d155780639e20c80314610d41578063a76a9b0f14610d91578063b6f6580a14610dae57610248565b80634d7dcfbd116101c95780635b5728121161018d5780635b57281214610b575780635ec0aedd14610b5f5780636823c56b14610b675780636e5b707114610c0b5780637420578614610ca857610248565b80634d7dcfbd1461088d578063535849391461094c57806353a3273d146109f2578063543a86f614610a9657806355e018ce14610b3a57610248565b80632e400191116102105780632e400191146105ca5780633e0e8a20146105e7578063455e616614610705578063484162be1461070d5780634b6986fd146107ca57610248565b8063029c5e2a1461024d578063155ee8941461030c578063244430381461033057806327426f75146105815780632da8cffd146105ad575b600080fd5b6102f36004803603604081101561026357600080fd5b810190602081018135600160201b81111561027d57600080fd5b82018360208201111561028f57600080fd5b803590602001918460018302840111600160201b831117156102b057600080fd5b91908080601f01602080910402602001604051908101604052809392919081815260200183838082843760009201919091525092955050913592506116a5915050565b6040805163ffffffff9092168252519081900360200190f35b6103146116e1565b604080516001600160a01b039092168252519081900360200190f35b61056f600480360360e081101561034657600080fd5b810190602081018135600160201b81111561036057600080fd5b82018360208201111561037257600080fd5b803590602001918460018302840111600160201b8311171561039357600080fd5b91908080601f01602080910402602001604051908101604052809392919081815260200183838082843760009201919091525092958435959094909350604081019250602001359050600160201b8111156103ed57600080fd5b8201836020820111156103ff57600080fd5b803590602001918460208302840111600160201b8311171561042057600080fd5b9190808060200260200160405190810160405280939291908181526020018383602002808284376000920191909152509295949360208101935035915050600160201b81111561046f57600080fd5b82018360208201111561048157600080fd5b803590602001918460018302840111600160201b831117156104a257600080fd5b91908080601f01602080910402602001604051908101604052809392919081815260200183838082843760009201919091525092958435959094909350604081019250602001359050600160201b8111156104fc57600080fd5b82018360208201111561050e57600080fd5b803590602001918460208302840111600160201b8311171561052f57600080fd5b91908080602002602001604051908101604052809392919081815260200183836020028082843760009201919091525092955050913592506116f0915050565b60408051918252519081900360200190f35b61056f6004803603604081101561059757600080fd5b50803590602001356001600160a01b0316611880565b61056f600480360360208110156105c357600080fd5b50356119b8565b6102f3600480360360208110156105e057600080fd5b50356119d0565b610690600480360360608110156105fd57600080fd5b810190602081018135600160201b81111561061757600080fd5b82018360208201111561062957600080fd5b803590602001918460018302840111600160201b8311171561064a57600080fd5b91908080601f01602080910402602001604051908101604052809392919081815260200183838082843760009201919091525092955050823593505050602001356119f2565b6040805160208082528351818301528351919283929083019185019080838360005b838110156106ca5781810151838201526020016106b2565b50505050905090810190601f1680156106f75780820380516001836020036101000a031916815260200191505b509250505060405180910390f35b61056f611a4d565b6107b36004803603604081101561072357600080fd5b810190602081018135600160201b81111561073d57600080fd5b82018360208201111561074f57600080fd5b803590602001918460018302840111600160201b8311171561077057600080fd5b91908080601f0160208091040260200160405190810160405280939291908181526020018383808284376000920191909152509295505091359250611a59915050565b6040805161ffff9092168252519081900360200190f35b610870600480360360408110156107e057600080fd5b810190602081018135600160201b8111156107fa57600080fd5b82018360208201111561080c57600080fd5b803590602001918460018302840111600160201b8311171561082d57600080fd5b91908080601f0160208091040260200160405190810160405280939291908181526020018383808284376000920191909152509295505091359250611a9b915050565b6040805167ffffffffffffffff9092168252519081900360200190f35b610933600480360360408110156108a357600080fd5b810190602081018135600160201b8111156108bd57600080fd5b8201836020820111156108cf57600080fd5b803590602001918460018302840111600160201b831117156108f057600080fd5b91908080601f0160208091040260200160405190810160405280939291908181526020018383808284376000920191909152509295505091359250611bcf915050565b6040805192835260208301919091528051918290030190f35b61056f6004803603604081101561096257600080fd5b810190602081018135600160201b81111561097c57600080fd5b82018360208201111561098e57600080fd5b803590602001918460018302840111600160201b831117156109af57600080fd5b91908080601f0160208091040260200160405190810160405280939291908181526020018383808284376000920191909152509295505091359250611c82915050565b61056f60048036036020811015610a0857600080fd5b810190602081018135600160201b811115610a2257600080fd5b820183602082011115610a3457600080fd5b803590602001918460018302840111600160201b83111715610a5557600080fd5b91908080601f016020809104026020016040519081016040528093929190818152602001838380828437600092019190915250929550611c8a945050505050565b61056f60048036036020811015610aac57600080fd5b810190602081018135600160201b811115610ac657600080fd5b820183602082011115610ad857600080fd5b803590602001918460018302840111600160201b83111715610af957600080fd5b91908080601f016020809104026020016040519081016040528093929190818152602001838380828437600092019190915250929550611c91945050505050565b61056f60048036036020811015610b5057600080fd5b5035611e2a565b61056f611e3f565b610314611e64565b61056f60048036036020811015610b7d57600080fd5b810190602081018135600160201b811115610b9757600080fd5b820183602082011115610ba957600080fd5b803590602001918460018302840111600160201b83111715610bca57600080fd5b91908080601f016020809104026020016040519081016040528093929190818152602001838380828437600092019190915250929550611e73945050505050565b610c2860048036036020811015610c2157600080fd5b5035611e8b565b604051808a81526020018981526020018881526020018781526020018663ffffffff1663ffffffff168152602001858152602001846001600160a01b03166001600160a01b03168152602001836005811115610c8057fe5b60ff16815263ffffffff90921660208301525060408051918290030198509650505050505050f35b61056f60048036036040811015610cbe57600080fd5b50803590602001356001600160a01b0316611ef0565b61056f600480360360c0811015610cea57600080fd5b5080359060208101359060408101359060608101359063ffffffff6080820135169060a00135612026565b61056f60048036036040811015610d2b57600080fd5b50803590602001356001600160a01b031661207e565b610933600480360360e0811015610d5757600080fd5b50803590602081013590604081013590606081013590608081013563ffffffff169060a08101359060c001356001600160a01b0316612278565b61056f60048036036020811015610da757600080fd5b5035612514565b61056f60048036036020811015610dc457600080fd5b5035612529565b61056f60048036036040811015610de157600080fd5b810190602081018135600160201b811115610dfb57600080fd5b820183602082011115610e0d57600080fd5b803590602001918460018302840111600160201b83111715610e2e57600080fd5b91908080601f0160208091040260200160405190810160405280939291908181526020018383808284376000920191909152509295505091359250612653915050565b61069060048036036040811015610e8757600080fd5b810190602081018135600160201b811115610ea157600080fd5b820183602082011115610eb357600080fd5b803590602001918460018302840111600160201b83111715610ed457600080fd5b91908080601f016020809104026020016040519081016040528093929190818152602001838380828437600092019190915250929550509135925061280d915050565b61056f60048036036020811015610f2d57600080fd5b50356128d1565b61056f60048036036040811015610f4a57600080fd5b50803590602001356001600160a01b0316612905565b61100460048036036020811015610f7657600080fd5b810190602081018135600160201b811115610f9057600080fd5b820183602082011115610fa257600080fd5b803590602001918460018302840111600160201b83111715610fc357600080fd5b91908080601f016020809104026020016040519081016040528093929190818152602001838380828437600092019190915250929550612a88945050505050565b6040805192835263ffffffff90911660208301528051918290030190f35b61056f600480360360e081101561103857600080fd5b810190602081018135600160201b81111561105257600080fd5b82018360208201111561106457600080fd5b803590602001918460018302840111600160201b8311171561108557600080fd5b91908080601f01602080910402602001604051908101604052809392919081815260200183838082843760009201919091525092958435959094909350604081019250602001359050600160201b8111156110df57600080fd5b8201836020820111156110f157600080fd5b803590602001918460208302840111600160201b8311171561111257600080fd5b9190808060200260200160405190810160405280939291908181526020018383602002808284376000920191909152509295949360208101935035915050600160201b81111561116157600080fd5b82018360208201111561117357600080fd5b803590602001918460018302840111600160201b8311171561119457600080fd5b91908080601f01602080910402602001604051908101604052809392919081815260200183838082843760009201919091525092958435959094909350604081019250602001359050600160201b8111156111ee57600080fd5b82018360208201111561120057600080fd5b803590602001918460208302840111600160201b8311171561122157600080fd5b9190808060200260200160405190810160405280939291908181526020018383602002808284376000920191909152509295505091359250612b0c915050565b61127e6004803603602081101561127757600080fd5b5035612c42565b6040518082600581111561128e57fe5b60ff16815260200191505060405180910390f35b61056f600480360360608110156112b857600080fd5b813591602081013591810190606081016040820135600160201b8111156112de57600080fd5b8201836020820111156112f057600080fd5b803590602001918460208302840111600160201b8311171561131157600080fd5b919080806020026020016040519081016040528093929190818152602001838360200280828437600092019190915250929550612c61945050505050565b61056f6004803603606081101561136557600080fd5b810190602081018135600160201b81111561137f57600080fd5b82018360208201111561139157600080fd5b803590602001918460018302840111600160201b831117156113b257600080fd5b91908080601f0160208091040260200160405190810160405280939291908181526020018383808284376000920191909152509295505082359350505060200135612e70565b61149c6004803603602081101561140e57600080fd5b810190602081018135600160201b81111561142857600080fd5b82018360208201111561143a57600080fd5b803590602001918460018302840111600160201b8311171561145b57600080fd5b91908080601f016020809104026020016040519081016040528093929190818152602001838380828437600092019190915250929550612eaa945050505050565b6040805196875260208701959095526001600160a01b039384168686015263ffffffff909216606086015260ff1660808501521660a0830152519081900360c00190f35b610933600480360360c08110156114f657600080fd5b5080359060208101359060408101359060608101359063ffffffff6080820135169060a00135612f41565b61056f61309a565b6115576004803603604081101561153f57600080fd5b506001600160a01b03813581169160200135166130a0565b005b6106906004803603604081101561156f57600080fd5b810190602081018135600160201b81111561158957600080fd5b82018360208201111561159b57600080fd5b803590602001918460018302840111600160201b831117156115bc57600080fd5b91908080601f01602080910402602001604051908101604052809392919081815260200183838082843760009201919091525092955050913592506131cb915050565b6102f36004803603604081101561161557600080fd5b810190602081018135600160201b81111561162f57600080fd5b82018360208201111561164157600080fd5b803590602001918460018302840111600160201b8311171561166257600080fd5b91908080601f01602080910402602001604051908101604052809392919081815260200183838082843760009201919091525092955050913592506132c1915050565b6000816020840101516040518160031a60008201538160021a60018201538160011a60028201538160001a60038201535160e01c949350505050565b6036546001600160a01b031681565b600080611702868686868d8d8d613350565b905080156118315760008060008060008061171c8f612eaa565b939a5091985092965091945092509050831561177c57604080518881526020810186905281517f4e64138cc499eb1adf9edff9ef69bd45c56ac4bfd307540952e4c9d51eab55c1929181900390910190a183975050505050505050611875565b60355460008a8152603360205260408082206005015481516315eade2b60e31b8152600481018c9052602481018b90526001600160a01b038a811660448301529182166064820152868216608482015263ffffffff881660a482015260ff861660c4820152915193169263af56f1589260e48084019391929182900301818387803b15801561180a57600080fd5b505af115801561181e573d6000803e3d6000fd5b5050505085975050505050505050611875565b604080516000815261753a602082015281517f4e64138cc499eb1adf9edff9ef69bd45c56ac4bfd307540952e4c9d51eab55c1929181900390910190a161753a9150505b979650505050505050565b6036546000906001600160a01b031633146118c8576040805184815261c39660208201528151600080516020613a05833981519152929181900390910190a15061c3966119b2565b60008381526033602052604090206002600582810154600160e01b900460ff16908111156118f257fe5b1415801561191a57506001600582810154600160e01b900460ff169081111561191757fe5b14155b15611954576040805185815261c36460208201528151600080516020613a05833981519152929181900390910190a161c3649150506119b2565b60058101805460ff60e01b1916600360e01b179055604080518581526001600160a01b038516602082015281517f87f54f5eb3dd119fe71af0915af693e64a5bfd4acaa19a6c944c47cff8eec9e6929181900390910190a160009150505b92915050565b6000818152603360205260409020600101545b919050565b600090815260336020526040902060050154600160c01b900463ffffffff1690565b6060600083830390506060816040519080825280601f01601f191660200182016040528015611a28576020820181803883390190505b5090508160208201838760208a010160045afa611a4457600080fd5b95945050505050565b6729a2241af62c000081565b6000828281518110611a6757fe5b602001015160f81c60f81b60f81c60ff1661010002838360010181518110611a8b57fe5b016020015160f81c019392505050565b6000828281518110611aa957fe5b602001015160f81c60f81b60f81c60ff1667010000000000000002838360010181518110611ad357fe5b602001015160f81c60f81b60f81c60ff16660100000000000002848460020181518110611afc57fe5b602001015160f81c60f81b60f81c60ff166501000000000002858560030181518110611b2457fe5b602001015160f81c60f81b60f81c60ff16600160201b02868660040181518110611b4a57fe5b602001015160f81c60f81b60f81c60ff16630100000002878760050181518110611b7057fe5b602001015160f81c60f81b60f81c60ff166201000002888860060181518110611b9557fe5b602001015160f81c60f81b60f81c60ff1661010002898960070181518110611bb957fe5b016020015160f81c010101010101019392505050565b6000806000848481518110611be057fe5b01602001516001949094019360f81c905060fd811015611c075760ff169150829050611c7b565b8060ff1660fd1415611c2d57611c1f85856010612e70565b846002019250925050611c7b565b8060ff1660fe1415611c5357611c4585856020612e70565b846004019250925050611c7b565b8060ff1660ff1415611c7957611c6b85856040612e70565b846008019250925050611c7b565b505b9250929050565b016020015190565b6060015190565b60006119b2600280846040516020018082805190602001908083835b60208310611ccc5780518252601f199092019160209182019101611cad565b6001836020036101000a0380198251168184511680821785525050505050509050019150506040516020818303038152906040526040518082805190602001908083835b60208310611d2f5780518252601f199092019160209182019101611d10565b51815160209384036101000a60001901801990921691161790526040519190930194509192505080830381855afa158015611d6e573d6000803e3d6000fd5b5050506040513d6020811015611d8357600080fd5b50516040805160208181019390935281518082038401815290820191829052805190928291908401908083835b60208310611dcf5780518252601f199092019160209182019101611db0565b51815160209384036101000a60001901801990921691161790526040519190930194509192505080830381855afa158015611e0e573d6000803e3d6000fd5b5050506040513d6020811015611e2357600080fd5b5051612529565b60009081526033602052604090206004015490565b603454600090815260336020526040902060050154600160c01b900463ffffffff1690565b6035546001600160a01b031681565b6044810151600090611e8481612529565b9392505050565b600090815260336020526040902080546001820154600283015460038401546005850154600490950154939592949193909263ffffffff600160a01b84048116936001600160a01b0381169260ff600160e01b83041692600160c01b90920490911690565b6036546000906001600160a01b03163314611f38576040805184815261c39660208201528151600080516020613a05833981519152929181900390910190a15061c3966119b2565b60008381526033602052604090206002600582810154600160e01b900460ff1690811115611f6257fe5b14158015611f8a57506003600582810154600160e01b900460ff1690811115611f8757fe5b14155b15611fc4576040805185815261c36460208201528151600080516020613a05833981519152929181900390910190a161c3649150506119b2565b60058101805460ff60e01b1916600560e01b179055604080518581526001600160a01b038516602082015281517f64297372062dfcb21d6f7385f68d4656e993be2bb674099e3de73128d4911a91929181900390910190a15060009392505050565b60408051602080820198909852808201969096526060860194909452608085019290925260e01b6001600160e01b03191660a084015260a4808401919091528151808403909101815260c49092019052805191012090565b6036546000906001600160a01b031633146120c6576040805184815261c39660208201528151600080516020613a05833981519152929181900390910190a15061c3966119b2565b60008381526033602052604090206001600582810154600160e01b900460ff16908111156120f057fe5b1415801561211857506003600582810154600160e01b900460ff169081111561211557fe5b14155b15612152576040805185815261c36460208201528151600080516020613a05833981519152929181900390910190a161c3649150506119b2565b61215a611e3f565b6005820154600160c01b900463ffffffff16116121a6576040805185815261c3fa60208201528151600080516020613a05833981519152929181900390910190a161c3fa9150506119b2565b600480820154600090815260336020526040902090600582810154600160e01b900460ff16908111156121d557fe5b14612210576040805186815261c37860208201528151600080516020613a05833981519152929181900390910190a161c378925050506119b2565b60058201805460ff60e01b1916600160e21b1790556034859055604080518681526001600160a01b038616602082015281517ff2dbbf0abb1ab1870a5e4d02746747c91d167c855255440b573ba3b5529dc901929181900390910190a1506000949350505050565b60365460009081906001600160a01b031633146122c757604080516000815261c39660208201528151600080516020613a05833981519152929181900390910190a15061c39690506000612508565b60008481526033602052604090206003600582810154600160e01b900460ff16908111156122f157fe5b1415801561231957506004600582810154600160e01b900460ff169081111561231657fe5b14155b1561239257600080516020613a058339815191528582600501601c9054906101000a900460ff16600581111561234b57fe5b6040805192835261c3789190910160208301528051918290030190a1600581810154600160e01b900460ff169081111561238157fe5b61c378019250600091506125089050565b61239a611e3f565b6005820154600160c01b900463ffffffff1610156123eb576040805186815261c3fa60208201528151600080516020613a05833981519152929181900390910190a15061c3fa915060009050612508565b60006123fb8b8b8b8b8b8b612026565b6000818152603360205260408120919250600582810154600160e01b900460ff169081111561242657fe5b1415612497578b815560018082018c9055600282018b9055600382018a905560048201889055600580850154908301805463ffffffff8c8116600160a01b0263ffffffff60a01b19600160c01b95869004831690960190911690930263ffffffff60c01b1990911617929092161790555b60058101805460ff60e01b1916600160e01b176001600160a01b0319166001600160a01b03881690811790915560408051848152602081019290925280517f64951c9008bba9f4663c12662e7a9b6412a7c4757869fdac09285564ae923fa19281900390910190a150600093509150505b97509795505050505050565b60009081526033602052604090206002015490565b60405160009060ff8316815382601e1a600182015382601d1a600282015382601c1a600382015382601b1a600482015382601a1a60058201538260191a60068201538260181a60078201538260171a60088201538260161a60098201538260151a600a8201538260141a600b8201538260131a600c8201538260121a600d8201538260111a600e8201538260101a600f82015382600f1a601082015382600e1a601182015382600d1a601282015382600c1a601382015382600b1a601482015382600a1a60158201538260091a60168201538260081a60178201538260071a60188201538260061a60198201538260051a601a8201538260041a601b8201538260031a601c8201538260021a601d8201538260011a601e8201538260001a601f8201535192915050565b60008060008060006126658787611bcf565b96509350836126c7576126788787611bcf565b96509350836126b85760405162461bcd60e51b815260040180806020018281038252603b815260200180613a65603b913960400191505060405180910390fd5b6126c28787611bcf565b965093505b606484106127065760405162461bcd60e51b8152600401808060200182810382526040815260200180613a256040913960400191505060405180910390fd5b60005b84811015612732576024870196506127218888611bcf565b810160040197509350600101612709565b5061273d8787611bcf565b96509050600a81106127805760405162461bcd60e51b8152600401808060200182810382526041815260200180613aa06041913960600191505060405180910390fd5b60005b818110156127d55760088701965061279b8888611bcf565b975093506127a98888613398565b6127ba5795830195600092506127cd565b60018701965086955050505050506119b2565b600101612783565b5060405162461bcd60e51b8152600401808060200182810382526037815260200180613ae16037913960400191505060405180910390fd5b6040805160008082526020820190925260609161282a8585611bcf565b81019450905061283a8585611bcf565b81019450905061284a8585611bcf565b81019450905061285a8585611bcf565b81019450905061286a8585611bcf565b9450905060028114156128b95760006128838686611a59565b9482019490506128938686611bcf565b61ffff831690810196509092506128b19087908790850381016119f2565b9250506128c9565b6128c685858387016119f2565b91505b509392505050565b6034546000905b826128e2826119d0565b63ffffffff1611156119b2576000908152603360205260409020600401546128d8565b6036546000906001600160a01b0316331461294d576040805184815261c39660208201528151600080516020613a05833981519152929181900390910190a15061c3966119b2565b60008381526033602052604090206001600582810154600160e01b900460ff169081111561297757fe5b1415801561299f57506002600582810154600160e01b900460ff169081111561299c57fe5b14155b156129d9576040805185815261c36460208201528151600080516020613a05833981519152929181900390910190a161c3649150506119b2565b60058101546001600160a01b0384811691161415612a26576040805185815261c38760208201528151600080516020613a05833981519152929181900390910190a161c3879150506119b2565b60058101805460ff60e01b1916600160e11b179055604080518581526001600160a01b038516602082015281517f09cdaca254aa177f759fe7a0968fe696ee9baf7d2a1d4714ed24b83d1f09518e929181900390910190a15060009392505050565b6000808080612a9785826116a5565b915063ffffffff821661740614612ab557506127ba9250612b079050565b612ac0856004612653565b60030190507faabab1db49e504b5156edf3f99042aeecb9607a08f392589571cd49743aaba8d612b01612afc612af6888561280d565b836131cb565b611c8a565b93505050505b915091565b600080612b1e868686868d8d8d613350565b90508015612bfd57600080612b328b612a88565b925090508015612b8157604080518481526020810183905281517f4e64138cc499eb1adf9edff9ef69bd45c56ac4bfd307540952e4c9d51eab55c1929181900390910190a19250611875915050565b60355460408051636cde8d6f60e01b815263ffffffff8516600482015233602482015290516001600160a01b0390921691636cde8d6f9160448082019260009290919082900301818387803b158015612bd957600080fd5b505af1158015612bed573d6000803e3d6000fd5b5050505060009350505050611875565b60408051617544815290517f52fd0c7e41cb237ece28ba61808cab7bb72873b2dba5b827c5b65bb092102d379181900360200190a15061754498975050505050505050565b600090815260336020526040902060050154600160e01b900460ff1690565b8051600090815b81811015612cab57612c8c848281518110612c7f57fe5b6020026020010151612529565b848281518110612c9857fe5b6020908102919091010152600101612c68565b50600080612cb887612529565b90505b82821015612e67576000858381518110612cd157fe5b6020026020010151905060008060028981612ce857fe5b0660011415612cfb575081905082612d01565b50829050815b600280838360405160200180838152602001828152602001925050506040516020818303038152906040526040518082805190602001908083835b60208310612d5b5780518252601f199092019160209182019101612d3c565b51815160209384036101000a60001901801990921691161790526040519190930194509192505080830381855afa158015612d9a573d6000803e3d6000fd5b5050506040513d6020811015612daf57600080fd5b50516040805160208181019390935281518082038401815290820191829052805190928291908401908083835b60208310612dfb5780518252601f199092019160209182019101612ddc565b51815160209384036101000a60001901801990921691161790526040519190930194509192505080830381855afa158015612e3a573d6000803e3d6000fd5b5050506040513d6020811015612e4f57600080fd5b50519350600289049850600185019450505050612cbb565b61187581612529565b6000805b600883048110156128c9578060080260020a8582860181518110612e9457fe5b016020015160f81c029190910190600101612e74565b6000808080808080808080808080612ec28e826116a5565b935063ffffffff841661740714612eef57506127ba9b50949950919750919550919350909150612f389050565b612efa8e6004612653565b9050612f068e826133c7565b809750819650829a50839950849b505050505050600087868885878595509c509c509c509c509c509c50505050505050505b91939550919395565b603454600090819015612f5357600080fd5b8215612f5e57600080fd5b6000612f6e898989898989612026565b6000818152603360205260408120919250600582810154600160e01b900460ff1690811115612f9957fe5b14612fa357600080fd5b89815560018101899055600281018890556003810187905560048101859055600581018054600160c01b336001600160a01b0319909216821763ffffffff60c01b19161763ffffffff60a01b1916600160a01b63ffffffff8a16021760ff60e01b1916600160e21b1790915560408051848152602081019290925280517f64951c9008bba9f4663c12662e7a9b6412a7c4757869fdac09285564ae923fa19281900390910190a160348290556040805183815233602082015281517ff2dbbf0abb1ab1870a5e4d02746747c91d167c855255440b573ba3b5529dc901929181900390910190a1506000999098509650505050505050565b60345490565b600054610100900460ff16806130b957506130b96134f2565b806130c7575060005460ff16155b6131025760405162461bcd60e51b815260040180806020018281038252602e815260200180613b18602e913960400191505060405180910390fd5b600054610100900460ff1615801561312d576000805460ff1961ff0019909116610100171660011790555b6035546001600160a01b031615801561314e57506001600160a01b03831615155b61315757600080fd5b603580546001600160a01b0319166001600160a01b03858116919091179091556036541615801561319057506001600160a01b03821615155b61319957600080fd5b603680546001600160a01b0319166001600160a01b03841617905580156131c6576000805461ff00191690555b505050565b6060806131df6131da856134f8565b61351d565b90506060613200826003815181106131f357fe5b602002602001015161351d565b905060005b815181101561328157606061321f8383815181106131f357fe5b905060606132408260018151811061323357fe5b60200260200101516135ee565b9050600061324f826001611c82565b905087811415613276576132698360028151811061323357fe5b96505050505050506119b2565b505050600101613205565b506040805162461bcd60e51b815260206004820152600f60248201526e151bdc1a58c81b9bdd08199bdd5b99608a1b604482015290519081900360640190fd5b60008282815181106132cf57fe5b602001015160f81c60f81b60f81c60ff166301000000028383600101815181106132f557fe5b602001015160f81c60f81b60f81c60ff16620100000284846002018151811061331a57fe5b602001015160f81c60f81b60f81c60ff166101000285856003018151811061333e57fe5b016020015160f81c0101019392505050565b60008481526033602052604081205461337261336b8a611c91565b8989612c61565b1461337f57506000611875565b61338c8484848b89613667565b98975050505050505050565b8151600090603560f91b908490849081106133af57fe5b01602001516001600160f81b03191614905092915050565b60008060008060008060008060008060006133e28d8d6136ee565b9c509050600460ff8216146133f657600080fd5b6134008d8d6132c1565b95508060ff168c019b506134148d8d6136ee565b9c509050600860ff82161461342857600080fd5b6134328d8d611a9b565b67ffffffffffffffff1692508060ff168c019b506134508d8d6136ee565b9c509050601460ff82161461346457600080fd5b61346e8d8d613720565b94508060ff168c019b506134828d8d6136ee565b9c509050600160ff82161461349657600080fd5b8c8c815181106134a257fe5b016020015160ff82169c909c019b60f81c91506134bf8d8d6136ee565b9c509050601460ff8216146134d357600080fd5b6134dd8d8d613720565b929d949c50949a509850965090945050505050565b303b1590565b6135006139ea565b506040805180820190915281518152602082810190820152919050565b606061352882613728565b61353157600080fd5b600061353c83613762565b905060608160405190808252806020026020018201604052801561357a57816020015b6135676139ea565b81526020019060019003908161355f5790505b509050600061358c85602001516137be565b60208601510190506000805b848110156135e3576135a983613821565b91506040518060400160405280838152602001848152508482815181106135cc57fe5b602090810291909101015291810191600101613598565b509195945050505050565b80516060906135fc57600080fd5b600061360b83602001516137be565b83516040805191839003808352601f19601f8201168301602001909152919250606090828015613642576020820181803883390190505b509050600081602001905061365e8487602001510182856138ba565b50949350505050565b60008061367387611c91565b90508651604014156136c55760408051828152614e5c602082015281517f65bd72698b9ffcfb3c7cb4c7414e13225cabd57fb690e183ae8c01c8ec268ebd929181900390910190a16000915050611a44565b6136d28187878787613905565b600114156136e1579050611a44565b5060009695505050505050565b600080835183106136fe57600080fd5b83838151811061370a57fe5b016020015160f81c915050600182019250929050565b016014015190565b8051600090613739575060006119cb565b6020820151805160001a9060c0821015613758576000925050506119cb565b5060019392505050565b8051600090613773575060006119cb565b6000809050600061378784602001516137be565b602085015185519181019250015b808210156137b5576137a682613821565b60019093019290910190613795565b50909392505050565b8051600090811a60808110156137d85760009150506119cb565b60b88110806137f3575060c081108015906137f3575060f881105b156138025760019150506119cb565b60c08110156138165760b5190190506119cb565b60f5190190506119cb565b80516000908190811a608081101561383c57600191506138b3565b60b881101561385157607e19810191506138b3565b60c081101561387e5760b78103600185019450806020036101000a855104600182018101935050506138b3565b60f88110156138935760be19810191506138b3565b60f78103600185019450806020036101000a855104600182018101935050505b5092915050565b806138c4576131c6565b5b602081106138e4578251825260209283019290910190601f19016138c5565b915181516020939093036101000a6000190180199091169216919091179052565b6000613910826139cb565b6139595760408051878152614e3e602082015281517f65bd72698b9ffcfb3c7cb4c7414e13225cabd57fb690e183ae8c01c8ec268ebd929181900390910190a150614e3e611a44565b600061396484611e73565b905080613972888888612c61565b146139be5760408051888152614e52602082015281517f65bd72698b9ffcfb3c7cb4c7414e13225cabd57fb690e183ae8c01c8ec268ebd929181900390910190a1614e52915050611a44565b5060019695505050505050565b600060046139d883612c42565b60058111156139e357fe5b1492915050565b60405180604001604052806000815260200160008152509056fea57c1ba4cf2c89b3558cfeeca4339e04551f0fc1a12cf63f1923c2eed8a5be8b23537973636f696e5375706572626c6f636b73206765744f7052657475726e506f7328293a20496e636f72726563742073697a65206f66206e5f696e7075747323537973636f696e5375706572626c6f636b73206765744f7052657475726e506f7328293a20556e65787065637465642064756d6d792f666c616723537973636f696e5375706572626c6f636b73206765744f7052657475726e506f7328293a20496e636f72726563742073697a65206f66206e5f6f75747075747323537973636f696e5375706572626c6f636b73206765744f7052657475726e506f7328293a204e6f204f7052657475726e20666f756e64436f6e747261637420696e7374616e63652068617320616c7265616479206265656e20696e697469616c697a6564a265627a7a72315820d96e1460fd00d5f4a57b62fadc6ea13aef7b03d4b0eb2ad1ce315e64d7e7287164736f6c634300050d0032",
  "source": "pragma solidity ^0.5.13;\n\nimport './interfaces/SyscoinSuperblocksI.sol';\nimport \"./SyscoinErrorCodes.sol\";\nimport \"./SyscoinTransactionProcessor.sol\";\nimport \"@openzeppelin/upgrades/contracts/Initializable.sol\";\nimport \"./SyscoinParser/SyscoinMessageLibrary.sol\";\n\n// @dev - Manages superblocks\n//\n// Management of superblocks and status transitions\ncontract SyscoinSuperblocks is Initializable, SyscoinSuperblocksI, SyscoinErrorCodes, SyscoinMessageLibrary {\n\n    uint constant ERR_PARSE_TX_SYS = 10170;\n\n    uint32 constant SYSCOIN_TX_VERSION_ALLOCATION_BURN_TO_ETHEREUM = 0x7407;\n    uint32 constant SYSCOIN_TX_VERSION_ALLOCATION_MINT = 0x7406;\n    \n    // Mapping superblock id => superblock data\n    mapping (bytes32 => SuperblockInfo) private superblocks;\n\n    bytes32 private bestSuperblock;\n\n    SyscoinTransactionProcessor public syscoinERC20Manager;\n\n    event NewSuperblock(bytes32 superblockHash, address who);\n    event ApprovedSuperblock(bytes32 superblockHash, address who);\n    event ChallengeSuperblock(bytes32 superblockHash, address who);\n    event SemiApprovedSuperblock(bytes32 superblockHash, address who);\n    event InvalidSuperblock(bytes32 superblockHash, address who);\n\n    event ErrorSuperblock(bytes32 superblockHash, uint err);\n\n    event VerifyTransaction(bytes32 txHash, uint returnCode);\n    event RelayTransaction(bytes32 txHash, uint returnCode);\n    event ChallengeCancelTransferRequest(uint returnCode);\n    // SyscoinClaimManager\n    address public trustedClaimManager;\n\n    modifier onlyClaimManager() {\n        require(msg.sender == trustedClaimManager);\n        _;\n    }\n\n    // @param _syscoinERC20Manager - address of the SyscoinERC20Manager contract to be associated with\n    // @param _claimManager - address of the ClaimManager contract to be associated with\n    function init(address _syscoinERC20Manager, address _claimManager) public initializer {\n        require(address(syscoinERC20Manager) == address(0) && _syscoinERC20Manager != address(0));\n        syscoinERC20Manager = SyscoinTransactionProcessor(_syscoinERC20Manager);\n\n        require(address(trustedClaimManager) == address(0) && _claimManager != address(0));\n        trustedClaimManager = _claimManager;\n    }\n\n    // Returns true if the tx output is an OP_RETURN output\n    function isOpReturn(bytes memory txBytes, uint pos) internal pure returns (bool) {\n        // scriptPub format is\n        // 0x6a OP_RETURN\n        return txBytes[pos] == byte(0x6a);\n    }\n\n    function bytesToUint64(bytes memory input, uint pos) public pure returns (uint64 result) {\n        result = uint64(uint8(input[pos+7])) + uint64(uint8(input[pos + 6]))*(2**8) + uint64(uint8(input[pos + 5]))*(2**16) + uint64(uint8(input[pos + 4]))*(2**24) + uint64(uint8(input[pos + 3]))*(2**32) + uint64(uint8(input[pos + 2]))*(2**40) + uint64(uint8(input[pos + 1]))*(2**48) + uint64(uint8(input[pos]))*(2**56);\n    }\n\n    function bytesToUint32(bytes memory input, uint pos) public pure returns (uint32 result) {\n        result = uint32(uint8(input[pos+3])) + uint32(uint8(input[pos + 2]))*(2**8) + uint32(uint8(input[pos + 1]))*(2**16) + uint32(uint8(input[pos]))*(2**24);\n    }\n\n    // Returns asset data parsed from the op_return data output from syscoin asset burn transaction\n    function scanAssetDetails(bytes memory txBytes, uint pos)\n        internal\n        pure\n        returns (uint, address, uint32, uint8, address)\n    {\n        uint32 assetGUID;\n        address destinationAddress;\n        address erc20Address;\n        uint output_value;\n        uint8 precision;\n        uint8 op;\n        // vchAsset\n        (op, pos) = getOpcode(txBytes, pos);\n        // guid length should be 4 bytes\n        require(op == 0x04);\n        assetGUID = bytesToUint32(txBytes, pos);\n        pos += op;\n        // amount\n        (op, pos) = getOpcode(txBytes, pos);\n        require(op == 0x08);\n        output_value = bytesToUint64(txBytes, pos);\n        pos += op;\n         // destination address\n        (op, pos) = getOpcode(txBytes, pos);\n        // ethereum contracts are 20 bytes (without the 0x)\n        require(op == 0x14);\n        destinationAddress = readEthereumAddress(txBytes, pos);\n        pos += op;\n        // precision\n        (op, pos) = getOpcode(txBytes, pos);\n        require(op == 0x01);\n        precision = uint8(txBytes[pos]);\n        pos += op;\n        // erc20Address\n        (op, pos) = getOpcode(txBytes, pos);\n        require(op == 0x14);\n        erc20Address = readEthereumAddress(txBytes, pos);\n        return (output_value, destinationAddress, assetGUID, precision, erc20Address);\n    }\n\n    // Read the ethereum address embedded in the tx output\n    function readEthereumAddress(bytes memory txBytes, uint pos) internal pure returns (address) {\n        uint256 data;\n        assembly {\n            data := mload(add(add(txBytes, 20), pos))\n        }\n        return address(uint160(data));\n    }\n\n    // Read next opcode from script\n    function getOpcode(bytes memory txBytes, uint pos) private pure returns (uint8, uint) {\n        require(pos < txBytes.length);\n        return (uint8(txBytes[pos]), pos + 1);\n    }\n\n    function getOpReturnPos(bytes memory txBytes, uint pos) public pure returns (uint) {\n        uint n_inputs;\n        uint script_len;\n        uint output_value;\n        uint n_outputs;\n\n        (n_inputs, pos) = parseVarInt(txBytes, pos);\n        // if dummy 0x00 is present this is a witness transaction\n        if(n_inputs == 0x00){\n            (n_inputs, pos) = parseVarInt(txBytes, pos); // flag\n            require(n_inputs != 0x00, \"#SyscoinSuperblocks getOpReturnPos(): Unexpected dummy/flag\");\n            // after dummy/flag the real var int comes for txins\n            (n_inputs, pos) = parseVarInt(txBytes, pos);\n        }\n        require(n_inputs < 100, \"#SyscoinSuperblocks getOpReturnPos(): Incorrect size of n_inputs\");\n\n        for (uint i = 0; i < n_inputs; i++) {\n            pos += 36;  // skip outpoint\n            (script_len, pos) = parseVarInt(txBytes, pos);\n            pos += script_len + 4;  // skip sig_script, seq\n        }\n        \n        (n_outputs, pos) = parseVarInt(txBytes, pos);\n        require(n_outputs < 10, \"#SyscoinSuperblocks getOpReturnPos(): Incorrect size of n_outputs\");\n        for (uint i = 0; i < n_outputs; i++) {\n            pos += 8;\n            // varint\n            (script_len, pos) = parseVarInt(txBytes, pos);\n            if(!isOpReturn(txBytes, pos)){\n                // output script\n                pos += script_len;\n                output_value = 0;\n                continue;\n            }\n            // skip opreturn marker\n            pos += 1;\n            return pos;\n        }\n        revert(\"#SyscoinSuperblocks getOpReturnPos(): No OpReturn found\");\n    }\n\n    /**\n     * @dev Parse syscoin mint transaction to recover bridgeTransferId\n     * @param txBytes syscoin raw transaction\n     * @return errorCode, bridgeTransferId\n     */\n    function parseMintTx(bytes memory txBytes)\n        public\n        view\n        returns (uint errorCode, uint32 bridgeTransferId)\n    {\n        uint32 version;\n        uint pos = 0;\n        version = bytesToUint32Flipped(txBytes, pos);\n        if(version != SYSCOIN_TX_VERSION_ALLOCATION_MINT){\n            return (ERR_PARSE_TX_SYS, bridgeTransferId);\n        }\n        pos = getOpReturnPos(txBytes, 4);\n        pos += 3; // skip pushdata2 + 2 bytes for opreturn varint\n\n        // SHA3 of TokenFreeze(address,uint256,uin32)\n        bytes32 tokenFreezeTopic = 0xaabab1db49e504b5156edf3f99042aeecb9607a08f392589571cd49743aaba8d;\n        bridgeTransferId = uint32(\n            getBridgeTransactionId(\n                getLogValuesForTopic(\n                    getEthReceipt(txBytes, pos), tokenFreezeTopic\n                )\n            )\n        );\n    }\n\n    function bytesToUint16(bytes memory input, uint pos) public pure returns (uint16 result) {\n        result = uint16(uint8(input[pos+1])) + uint16(uint8(input[pos]))*(2**8);\n    }\n\n    /**\n     * Parse txBytes and returns ethereum tx receipt\n     * @param txBytes syscoin raw transaction\n     * @param pos position at where to start parsing\n     * @return ethTxReceipt ethereum tx receipt\n     */\n    function getEthReceipt(bytes memory txBytes, uint pos)\n        public\n        view\n        returns (bytes memory)\n    {\n        bytes memory ethTxReceipt = new bytes(0);\n        uint bytesToRead;\n        // skip vchTxValue\n        (bytesToRead, pos) = parseVarInt(txBytes, pos);\n        pos += bytesToRead;\n        // skip vchTxParentNodes\n        (bytesToRead, pos) = parseVarInt(txBytes, pos);\n        pos += bytesToRead;\n        // skip vchTxRoot\n        (bytesToRead, pos) = parseVarInt(txBytes, pos);\n        pos += bytesToRead;\n        // skip vchTxPath\n        (bytesToRead, pos) = parseVarInt(txBytes, pos);\n        pos += bytesToRead;\n        // get vchReceiptValue\n        (bytesToRead, pos) = parseVarInt(txBytes, pos);\n        // if position is encoded in receipt value, decode position and read the value from next field (parent nodes)\n        if(bytesToRead == 2){\n            uint16 positionOfValue = bytesToUint16(txBytes, pos);\n            pos += bytesToRead;\n            // get vchReceiptParentNodes\n            (bytesToRead, pos) = parseVarInt(txBytes, pos);\n            pos += positionOfValue;\n            ethTxReceipt = sliceArray(txBytes, pos, pos+(bytesToRead-positionOfValue));\n        }\n        // size > 2 means receipt value is fully serialized in this field and no need to get parent nodes field\n        else{\n            ethTxReceipt = sliceArray(txBytes, pos, pos+bytesToRead);      \n        }\n        return ethTxReceipt;\n    }\n\n    // @dev converts bytes of any length to bytes32.\n    // If `_rawBytes` is longer than 32 bytes, it truncates to the 32 leftmost bytes.\n    // If it is shorter, it pads with 0s on the left.\n    // Should be private, made internal for testing\n    //\n    // @param _rawBytes - arbitrary length bytes\n    // @return - leftmost 32 or less bytes of input value; padded if less than 32\n    function bytesToBytes32(bytes memory _rawBytes, uint pos) public pure returns (bytes32) {\n        bytes32 out;\n        assembly {\n            out := mload(add(add(_rawBytes, 0x20), pos))\n        }\n        return out;\n    }\n\n    /**\n     * Return logs for given ethereum transaction receipt\n     * @param  ethTxReceipt ethereum transaction receipt\n     * @return logs bloom\n     */\n    function getLogValuesForTopic(bytes memory ethTxReceipt, bytes32 expectedTopic)\n        public\n        pure\n        returns (bytes memory)\n    {\n        RLPReader.RLPItem[] memory ethTxReceiptList = ethTxReceipt.toRlpItem().toList();\n        RLPReader.RLPItem[] memory logsList = ethTxReceiptList[3].toList();\n        for (uint256 i = 0; i < logsList.length; i++) {\n            RLPReader.RLPItem[] memory log = logsList[i].toList();\n            bytes memory rawTopic = log[1].toBytes();\n            bytes32 topic = bytesToBytes32(rawTopic, 1); // need to remove first byte \"a0\"\n            if (topic == expectedTopic) {\n                // data for given log\n                return log[2].toBytes();\n            }\n        }\n        revert(\"Topic not found\");\n    }\n\n    /**\n     * Get bridgeTransactionId from logs bloom\n     * @param logValues log values\n     * @return bridgeTransactionId\n     */\n    function getBridgeTransactionId(bytes memory logValues) public pure returns (uint256 value) {\n        uint8 index = 3; // log's third value\n        assembly {\n            value := mload(add(logValues, mul(32, index)))\n        }\n    }\n\n    // @dev - Initializes superblocks contract\n    //\n    // Initializes the superblock contract. It can only be called once.\n    //\n    // @param _blocksMerkleRoot Root of the merkle tree of blocks contained in a superblock\n    // @param _timestamp Timestamp of the last block in the superblock\n    // @param _mtpTimestamp Median Timestamp of the last block in the superblock\n    // @param _lastHash Hash of the last block in the superblock\n    // @param _lastBits Difficulty bits of the last block in the superblock bits\n    // @param _parentId Id of the parent superblock\n    // @param _blockHeight Block height of last block in superblock\n    // @return Error code and superblockHash\n    function initialize(\n        bytes32 _blocksMerkleRoot,\n        uint _timestamp,\n        uint _mtpTimestamp,\n        bytes32 _lastHash,\n        uint32 _lastBits,\n        bytes32 _parentId\n    ) external returns (uint, bytes32) {\n        require(bestSuperblock == 0);\n        require(_parentId == 0);\n\n        bytes32 superblockHash = calcSuperblockHash(_blocksMerkleRoot, _timestamp, _mtpTimestamp, _lastHash, _lastBits, _parentId);\n        SuperblockInfo storage superblock = superblocks[superblockHash];\n\n        require(superblock.status == Status.Uninitialized);\n\n        superblock.blocksMerkleRoot = _blocksMerkleRoot;\n        superblock.timestamp = _timestamp;\n        superblock.mtpTimestamp = _mtpTimestamp;\n        superblock.lastHash = _lastHash;\n        superblock.parentId = _parentId;\n        superblock.submitter = msg.sender;\n        superblock.height = 1;\n        superblock.lastBits = _lastBits;\n        superblock.status = Status.Approved;\n\n        emit NewSuperblock(superblockHash, msg.sender);\n\n        bestSuperblock = superblockHash;\n        emit ApprovedSuperblock(superblockHash, msg.sender);\n\n        return (ERR_SUPERBLOCK_OK, superblockHash);\n    }\n\n    // @dev - Proposes a new superblock\n    //\n    // To be accepted, a new superblock needs to have its parent\n    // either approved or semi-approved.\n    //\n    // @param _blocksMerkleRoot Root of the merkle tree of blocks contained in a superblock\n    // @param _timestamp Timestamp of the last block in the superblock\n    // @param _mtpTimestamp Median Timestamp of the last block in the superblock\n    // @param _lastHash Hash of the last block in the superblock\n    // @param _lastBits Difficulty bits of the last block in the superblock bits\n    // @param _parentId Id of the parent superblock\n    // @return Error code and superblockHash\n    function propose(\n        bytes32 _blocksMerkleRoot,\n        uint _timestamp,\n        uint _mtpTimestamp,\n        bytes32 _lastHash,\n        uint32 _lastBits,\n        bytes32 _parentId,\n        address submitter\n    ) external returns (uint, bytes32) {\n        if (msg.sender != trustedClaimManager) {\n            emit ErrorSuperblock(0, ERR_SUPERBLOCK_NOT_CLAIMMANAGER);\n            return (ERR_SUPERBLOCK_NOT_CLAIMMANAGER, 0);\n        }\n\n        SuperblockInfo storage parent = superblocks[_parentId];\n        if (parent.status != Status.SemiApproved && parent.status != Status.Approved) {\n            emit ErrorSuperblock(_parentId, ERR_SUPERBLOCK_BAD_PARENT + uint(parent.status));\n            return (ERR_SUPERBLOCK_BAD_PARENT + uint(parent.status), 0);\n        }\n\n        if (parent.height < getChainHeight()) {\n            emit ErrorSuperblock(_parentId, ERR_SUPERBLOCK_BAD_BLOCKHEIGHT);\n            return (ERR_SUPERBLOCK_BAD_BLOCKHEIGHT, 0);\n        }\n\n        bytes32 superblockHash = calcSuperblockHash(_blocksMerkleRoot, _timestamp, _mtpTimestamp, _lastHash, _lastBits, _parentId);\n        SuperblockInfo storage superblock = superblocks[superblockHash];\n        if (superblock.status == Status.Uninitialized) {\n            superblock.blocksMerkleRoot = _blocksMerkleRoot;\n            superblock.timestamp = _timestamp;\n            superblock.mtpTimestamp = _mtpTimestamp;\n            superblock.lastHash = _lastHash;\n            superblock.parentId = _parentId;\n            superblock.height = parent.height + 1;\n            superblock.lastBits = _lastBits;\n        }\n        superblock.status = Status.New;\n        superblock.submitter = submitter;\n        emit NewSuperblock(superblockHash, submitter);\n        return (ERR_SUPERBLOCK_OK, superblockHash);\n    }\n\n    // @dev - Confirm a proposed superblock\n    //\n    // An unchallenged superblock can be confirmed after a timeout.\n    // A challenged superblock is confirmed if it has enough descendants\n    // in the main chain.\n    //\n    // @param _superblockHash Id of the superblock to confirm\n    // @param _validator Address requesting superblock confirmation\n    // @return Error code and superblockHash\n    function confirm(bytes32 _superblockHash, address _validator) external returns (uint) {\n        if (msg.sender != trustedClaimManager) {\n            emit ErrorSuperblock(_superblockHash, ERR_SUPERBLOCK_NOT_CLAIMMANAGER);\n            return ERR_SUPERBLOCK_NOT_CLAIMMANAGER;\n        }\n        SuperblockInfo storage superblock = superblocks[_superblockHash];\n        if (superblock.status != Status.New && superblock.status != Status.SemiApproved) {\n            emit ErrorSuperblock(_superblockHash, ERR_SUPERBLOCK_BAD_STATUS);\n            return ERR_SUPERBLOCK_BAD_STATUS;\n        }\n\n        if (superblock.height <= getChainHeight()) {\n            emit ErrorSuperblock(_superblockHash, ERR_SUPERBLOCK_BAD_BLOCKHEIGHT);\n            return ERR_SUPERBLOCK_BAD_BLOCKHEIGHT;\n        }\n\n        SuperblockInfo storage parent = superblocks[superblock.parentId];\n        if (parent.status != Status.Approved) {\n            emit ErrorSuperblock(_superblockHash, ERR_SUPERBLOCK_BAD_PARENT);\n            return ERR_SUPERBLOCK_BAD_PARENT;\n        }\n\n        superblock.status = Status.Approved;\n        bestSuperblock = _superblockHash;\n\n        emit ApprovedSuperblock(_superblockHash, _validator);\n        return ERR_SUPERBLOCK_OK;\n    }\n\n    // @dev - Challenge a proposed superblock\n    //\n    // A new superblock can be challenged to start a battle\n    // to verify the correctness of the data submitted.\n    //\n    // @param _superblockHash Id of the superblock to challenge\n    // @param _challenger Address requesting a challenge\n    // @return Error code and superblockHash\n    function challenge(bytes32 _superblockHash, address _challenger) external returns (uint) {\n        if (msg.sender != trustedClaimManager) {\n            emit ErrorSuperblock(_superblockHash, ERR_SUPERBLOCK_NOT_CLAIMMANAGER);\n            return ERR_SUPERBLOCK_NOT_CLAIMMANAGER;\n        }\n        SuperblockInfo storage superblock = superblocks[_superblockHash];\n        if (superblock.status != Status.New && superblock.status != Status.InBattle) {\n            emit ErrorSuperblock(_superblockHash, ERR_SUPERBLOCK_BAD_STATUS);\n            return ERR_SUPERBLOCK_BAD_STATUS;\n        }\n        if(superblock.submitter == _challenger){\n            emit ErrorSuperblock(_superblockHash, ERR_SUPERBLOCK_OWN_CHALLENGE);\n            return ERR_SUPERBLOCK_OWN_CHALLENGE;\n        }\n        superblock.status = Status.InBattle;\n        emit ChallengeSuperblock(_superblockHash, _challenger);\n        return ERR_SUPERBLOCK_OK;\n    }\n\n    // @dev - Semi-approve a challenged superblock\n    //\n    // A challenged superblock can be marked as semi-approved\n    // if it satisfies all the queries or when all challengers have\n    // stopped participating.\n    //\n    // @param _superblockHash Id of the superblock to semi-approve\n    // @param _validator Address requesting semi approval\n    // @return Error code and superblockHash\n    function semiApprove(bytes32 _superblockHash, address _validator) external returns (uint) {\n        if (msg.sender != trustedClaimManager) {\n            emit ErrorSuperblock(_superblockHash, ERR_SUPERBLOCK_NOT_CLAIMMANAGER);\n            return ERR_SUPERBLOCK_NOT_CLAIMMANAGER;\n        }\n        SuperblockInfo storage superblock = superblocks[_superblockHash];\n\n        if (superblock.status != Status.InBattle && superblock.status != Status.New) {\n            emit ErrorSuperblock(_superblockHash, ERR_SUPERBLOCK_BAD_STATUS);\n            return ERR_SUPERBLOCK_BAD_STATUS;\n        }\n        superblock.status = Status.SemiApproved;\n\n        emit SemiApprovedSuperblock(_superblockHash, _validator);\n        return ERR_SUPERBLOCK_OK;\n    }\n\n    // @dev - Invalidates a superblock\n    //\n    // A superblock with incorrect data can be invalidated immediately.\n    // Superblocks that are not in the main chain can be invalidated\n    // if not enough superblocks follow them, i.e. they don't have\n    // enough descendants.\n    //\n    // @param _superblockHash Id of the superblock to invalidate\n    // @param _validator Address requesting superblock invalidation\n    // @return Error code and superblockHash\n    function invalidate(bytes32 _superblockHash, address _validator) external returns (uint) {\n        if (msg.sender != trustedClaimManager) {\n            emit ErrorSuperblock(_superblockHash, ERR_SUPERBLOCK_NOT_CLAIMMANAGER);\n            return ERR_SUPERBLOCK_NOT_CLAIMMANAGER;\n        }\n        SuperblockInfo storage superblock = superblocks[_superblockHash];\n        if (superblock.status != Status.InBattle && superblock.status != Status.SemiApproved) {\n            emit ErrorSuperblock(_superblockHash, ERR_SUPERBLOCK_BAD_STATUS);\n            return ERR_SUPERBLOCK_BAD_STATUS;\n        }\n        superblock.status = Status.Invalid;\n        emit InvalidSuperblock(_superblockHash, _validator);\n        return ERR_SUPERBLOCK_OK;\n    }\n\n    // @dev - Verify TX SPV to Block proof as well as Block SPV proof to Superblock\n    // @param _txBytes - transaction bytes\n    // @param _txIndex - transaction's index within the block\n    // @param _txSiblings - transaction's Merkle siblings\n    // @param _syscoinBlockHeader - block header containing transaction\n    // @param _syscoinBlockIndex - block's index within superblock\n    // @param _syscoinBlockSiblings - block's merkle siblings\n    // @param _superblockHash - superblock containing block header\n    function verifySPVProofs(\n        bytes memory _syscoinBlockHeader,\n        uint _syscoinBlockIndex,\n        uint[] memory _syscoinBlockSiblings,\n        bytes32 _superblockHash,\n        bytes memory _txBytes,\n        uint _txIndex,\n        uint[] memory _txSiblings\n    ) private returns (uint) {\n                // Check if Syscoin block belongs to given superblock\n        if (bytes32(computeMerkle(dblShaFlip(_syscoinBlockHeader), _syscoinBlockIndex, _syscoinBlockSiblings))\n            != superblocks[_superblockHash].blocksMerkleRoot) {\n            // Syscoin block is not in superblock\n            return 0;\n        }\n        return verifyTx(_txBytes, _txIndex, _txSiblings, _syscoinBlockHeader, _superblockHash);\n    }\n\n    // @dev - relays transaction `_txBytes` to ERC20Manager's processTransaction() method.\n    // Also logs the value of processTransaction.\n    // Note: callers cannot be 100% certain when an ERR_RELAY_VERIFY occurs because\n    // it may also have been returned by processTransaction(). Callers should be\n    // aware of the contract that they are relaying transactions to and\n    // understand what that contract's processTransaction method returns.\n    //\n    // @param _txBytes - transaction bytes\n    // @param _txIndex - transaction's index within the block\n    // @param _txSiblings - transaction's Merkle siblings\n    // @param _syscoinBlockHeader - block header containing transaction\n    // @param _syscoinBlockIndex - block's index within superblock\n    // @param _syscoinBlockSiblings - block's merkle siblings\n    // @param _superblockHash - superblock containing block header\n    function relayTx(\n        bytes memory _txBytes,\n        uint _txIndex,\n        uint[] memory _txSiblings,\n        bytes memory _syscoinBlockHeader,\n        uint _syscoinBlockIndex,\n        uint[] memory _syscoinBlockSiblings,\n        bytes32 _superblockHash\n    ) public returns (uint) {\n        uint txHash = verifySPVProofs(_syscoinBlockHeader, _syscoinBlockIndex, _syscoinBlockSiblings, _superblockHash, _txBytes, _txIndex, _txSiblings);\n        if (txHash != 0) {\n            uint value;\n            address destinationAddress;\n            uint ret;\n            uint32 assetGUID;\n            address erc20ContractAddress;\n            uint8 precision;\n            (ret, value, destinationAddress, assetGUID, precision, erc20ContractAddress) = parseBurnTx(_txBytes);\n            if(ret != 0){\n                emit RelayTransaction(bytes32(txHash), ret);\n                return ret;\n            }\n            syscoinERC20Manager.processTransaction(txHash, value, destinationAddress, superblocks[_superblockHash].submitter, erc20ContractAddress, assetGUID, precision);\n            return value;\n        }\n        emit RelayTransaction(bytes32(0), ERR_RELAY_VERIFY);\n        return(ERR_RELAY_VERIFY);\n    }\n\n    // Challenges a bridge cancellation request with SPV proofs linking tx to superblock and showing that a valid\n    // cancellation request exists. If challenge fails, the cancellation request continues until timeout at which point erc20 is refunded\n    //\n    // @param _txBytes - transaction bytes\n    // @param _txIndex - transaction's index within the block\n    // @param _txSiblings - transaction's Merkle siblings\n    // @param _syscoinBlockHeader - block header containing transaction\n    // @param _syscoinBlockIndex - block's index within superblock\n    // @param _syscoinBlockSiblings - block's merkle siblings\n    // @param _superblockHash - superblock containing block header\n    function challengeCancelTransfer(\n        bytes memory _txBytes,\n        uint _txIndex,\n        uint[] memory _txSiblings,\n        bytes memory _syscoinBlockHeader,\n        uint _syscoinBlockIndex,\n        uint[] memory _syscoinBlockSiblings,\n        bytes32 _superblockHash\n    ) public returns (uint) {\n        uint txHash = verifySPVProofs(_syscoinBlockHeader, _syscoinBlockIndex, _syscoinBlockSiblings, _superblockHash, _txBytes, _txIndex, _txSiblings);\n        if (txHash != 0) {\n            uint32 bridgeTransferId;\n            uint ret;\n            (ret, bridgeTransferId) = parseMintTx(_txBytes);\n            if(ret != 0){\n                emit RelayTransaction(bytes32(txHash), ret);\n                return ret;\n            }\n            // check if cancellation request exists in valid state\n            // cancel cancellation request if challenger wins, challenger gets paid cancellors deposit\n            syscoinERC20Manager.processCancelTransferFail(bridgeTransferId, msg.sender);\n            return 0;\n        }\n        emit ChallengeCancelTransferRequest(ERR_CANCEL_TRANSFER_VERIFY);\n        return(ERR_CANCEL_TRANSFER_VERIFY);\n    }\n\n    // @dev - Parses a syscoin tx\n    //\n    // @param txBytes - tx byte array\n    // Outputs\n    // @return output_value - amount sent to the lock address in satoshis\n    // @return destinationAddress - ethereum destination address\n    function parseBurnTx(bytes memory txBytes)\n        public\n        pure\n        returns (uint, uint, address, uint32, uint8, address)\n    {\n        uint output_value;\n        uint32 assetGUID;\n        address destinationAddress;\n        uint32 version;\n        address erc20Address;\n        uint8 precision;\n        uint pos = 0;\n        version = bytesToUint32Flipped(txBytes, pos);\n        if(version != SYSCOIN_TX_VERSION_ALLOCATION_BURN_TO_ETHEREUM){\n            return (ERR_PARSE_TX_SYS, output_value, destinationAddress, assetGUID, precision, erc20Address);\n        }\n        pos = getOpReturnPos(txBytes, 4);\n        (output_value, destinationAddress, assetGUID, precision, erc20Address) = scanAssetDetails(txBytes, pos);\n        return (0, output_value, destinationAddress, assetGUID, precision, erc20Address);\n    }\n\n    function skipInputs(bytes memory txBytes, uint pos)\n        private\n        pure\n        returns (uint)\n    {\n        uint n_inputs;\n        uint script_len;\n        (n_inputs, pos) = parseVarInt(txBytes, pos);\n        // if dummy 0x00 is present this is a witness transaction\n        if(n_inputs == 0x00){\n            (n_inputs, pos) = parseVarInt(txBytes, pos); // flag\n            require(n_inputs != 0x00);\n            // after dummy/flag the real var int comes for txins\n            (n_inputs, pos) = parseVarInt(txBytes, pos);\n        }\n        require(n_inputs < 100);\n\n        for (uint i = 0; i < n_inputs; i++) {\n            pos += 36;  // skip outpoint\n            (script_len, pos) = parseVarInt(txBytes, pos);\n            pos += script_len + 4;  // skip sig_script, seq\n        }\n\n        return pos;\n    }\n\n    // @dev - Checks whether the transaction given by `_txBytes` is in the block identified by `_txBlockHeaderBytes`.\n    // First it guards against a Merkle tree collision attack by raising an error if the transaction is exactly 64 bytes long,\n    // then it calls helperVerifyHash to do the actual check.\n    //\n    // @param _txBytes - transaction bytes\n    // @param _txIndex - transaction's index within the block\n    // @param _siblings - transaction's Merkle siblings\n    // @param _txBlockHeaderBytes - block header containing transaction\n    // @param _txsuperblockHash - superblock containing block header\n    // @return - SHA-256 hash of _txBytes if the transaction is in the block, 0 otherwise\n    function verifyTx(\n        bytes memory _txBytes,\n        uint _txIndex,\n        uint[] memory _siblings,\n        bytes memory _txBlockHeaderBytes,\n        bytes32 _txsuperblockHash\n    ) private returns (uint) {\n        uint txHash = dblShaFlip(_txBytes);\n\n        if (_txBytes.length == 64) {  // todo: is check 32 also needed?\n            emit VerifyTransaction(bytes32(txHash), ERR_TX_64BYTE);\n            return 0;\n        }\n\n        if (helperVerifyHash(txHash, _txIndex, _siblings, _txBlockHeaderBytes, _txsuperblockHash) == 1) {\n            return txHash;\n        } else {\n            // log is done via helperVerifyHash\n            return 0;\n        }\n    }\n\n    // @dev - Bitcoin-way of hashing\n    // @param _dataBytes - raw data to be hashed\n    // @return - result of applying SHA-256 twice to raw data and then flipping the bytes\n    function dblShaFlip(bytes memory _dataBytes) public pure returns (uint) {\n        return flip32Bytes(uint(sha256(abi.encodePacked(sha256(abi.encodePacked(_dataBytes))))));\n    }\n\n    // @dev - extract Merkle root field from a raw Syscoin block header\n    //\n    // @param _blockHeader - Syscoin block header bytes\n    // @param pos - where to start reading root from\n    // @return - block's Merkle root in big endian format\n    function getHeaderMerkleRoot(bytes memory _blockHeader) public pure returns (uint) {\n        uint merkle;\n        assembly {\n            merkle := mload(add(add(_blockHeader, 32), 0x24))\n        }\n        return flip32Bytes(merkle);\n    }\n\n    // @dev - Checks whether the transaction identified by `_txHash` is in the block identified by `_blockHeaderBytes`\n    // and whether the block is in the Syscoin main chain. Transaction check is done via Merkle proof.\n    // Note: no verification is performed to prevent txHash from just being an\n    // internal hash in the Merkle tree. Thus this helper method should NOT be used\n    // directly and is intended to be private.\n    //\n    // @param _txHash - transaction hash\n    // @param _txIndex - transaction's index within the block\n    // @param _siblings - transaction's Merkle siblings\n    // @param _blockHeaderBytes - block header containing transaction\n    // @param _txsuperblockHash - superblock containing block header\n    // @return - 1 if the transaction is in the block and the block is in the main chain,\n    // 20020 (ERR_CONFIRMATIONS) if the block is not in the main chain,\n    // 20050 (ERR_MERKLE_ROOT) if the block is in the main chain but the Merkle proof fails.\n    function helperVerifyHash(\n        uint256 _txHash,\n        uint _txIndex,\n        uint[] memory _siblings,\n        bytes memory _blockHeaderBytes,\n        bytes32 _txsuperblockHash\n    ) private returns (uint) {\n\n        if (!isApproved(_txsuperblockHash)) {\n            emit VerifyTransaction(bytes32(_txHash), ERR_CHAIN);\n            return (ERR_CHAIN);\n        }\n\n        // Verify tx Merkle root\n        uint merkle = getHeaderMerkleRoot(_blockHeaderBytes);\n        if (computeMerkle(_txHash, _txIndex, _siblings) != merkle) {\n            emit VerifyTransaction(bytes32(_txHash), ERR_MERKLE_ROOT);\n            return (ERR_MERKLE_ROOT);\n        }\n        return (1);\n    }\n\n    // @dev - Calculate superblock hash from superblock data\n    //\n    // @param _blocksMerkleRoot Root of the merkle tree of blocks contained in a superblock\n    // @param _timestamp Timestamp of the last block in the superblock\n    // @param _mtpTimestamp Median Timestamp of the last block in the superblock\n    // @param _lastHash Hash of the last block in the superblock\n    // @param _lastBits Difficulty bits of the last block in the superblock bits\n    // @param _parentId Id of the parent superblock\n    // @return Superblock id\n    function calcSuperblockHash(\n        bytes32 _blocksMerkleRoot,\n        uint _timestamp,\n        uint _mtpTimestamp,\n        bytes32 _lastHash,\n        uint32 _lastBits,\n        bytes32 _parentId\n    ) public pure returns (bytes32) {\n        return keccak256(abi.encodePacked(\n            _blocksMerkleRoot,\n            _timestamp,\n            _mtpTimestamp,\n            _lastHash,\n            _lastBits,\n            _parentId\n        ));\n    }\n\n    // @dev - Returns the confirmed superblock with the most accumulated work\n    //\n    // @return Best superblock hash\n    function getBestSuperblock() external view returns (bytes32) {\n        return bestSuperblock;\n    }\n\n    // @dev - Returns the superblock data for the supplied superblock hash\n    //\n    function getSuperblock(bytes32 superblockHash) external view returns (\n        bytes32 _blocksMerkleRoot,\n        uint _timestamp,\n        uint _mtpTimestamp,\n        bytes32 _lastHash,\n        uint32 _lastBits,\n        bytes32 _parentId,\n        address _submitter,\n        Status _status,\n        uint32 _height\n    ) {\n        SuperblockInfo storage superblock = superblocks[superblockHash];\n        return (\n            superblock.blocksMerkleRoot,\n            superblock.timestamp,\n            superblock.mtpTimestamp,\n            superblock.lastHash,\n            superblock.lastBits,\n            superblock.parentId,\n            superblock.submitter,\n            superblock.status,\n            superblock.height\n        );\n    }\n\n    // @dev - Returns superblock height\n    function getSuperblockHeight(bytes32 superblockHash) public view returns (uint32) {\n        return superblocks[superblockHash].height;\n    }\n\n    // @dev - Return superblock timestamp\n    function getSuperblockTimestamp(bytes32 _superblockHash) external view returns (uint) {\n        return superblocks[_superblockHash].timestamp;\n    }\n\n    // @dev - Return superblock median timestamp\n    function getSuperblockMedianTimestamp(bytes32 _superblockHash) external view returns (uint) {\n        return superblocks[_superblockHash].mtpTimestamp;\n    }\n\n    // @dev - Return superblock parent\n    function getSuperblockParentId(bytes32 _superblockHash) external view returns (bytes32) {\n        return superblocks[_superblockHash].parentId;\n    }\n\n\n    // @dev - Return superblock status\n    function getSuperblockStatus(bytes32 _superblockHash) public view returns (Status) {\n        return superblocks[_superblockHash].status;\n    }\n\n    function isApproved(bytes32 _superblockHash) private view returns (bool) {\n        return (getSuperblockStatus(_superblockHash) == Status.Approved);\n    }\n    function getChainHeight() public view returns (uint) {\n        return superblocks[bestSuperblock].height;\n    }\n\n    // @dev - return superblock hash at a given height in superblock main chain\n    //\n    // @param _height - superblock height\n    // @return - hash corresponding to block of height _height\n    function getSuperblockAt(uint _height) external view returns (bytes32) {\n        bytes32 superblockHash = bestSuperblock;\n\n        while (getSuperblockHeight(superblockHash) > _height) {\n            superblockHash = superblocks[superblockHash].parentId;\n        }\n\n        return superblockHash;\n    }\n}\n",
  "sourcePath": "/Users/jsidhu/Documents/GitHub/sysethereum-contracts1/contracts/SyscoinSuperblocks.sol",
  "compiler": {
    "name": "solc",
    "version": "0.5.13+commit.5b0b510c.Emscripten.clang"
  },
  "schemaVersion": "3.0.19",
  "updatedAt": "2019-12-11T04:43:29.319Z",
  "devdoc": {
    "methods": {
      "getBridgeTransactionId(bytes)": {
        "params": {
          "logValues": "log values"
        },
        "return": "bridgeTransactionId"
      },
      "getEthReceipt(bytes,uint256)": {
        "params": {
          "pos": "position at where to start parsing",
          "txBytes": "syscoin raw transaction"
        },
        "return": "ethTxReceipt ethereum tx receipt"
      },
      "getLogValuesForTopic(bytes,bytes32)": {
        "params": {
          "ethTxReceipt": "ethereum transaction receipt"
        },
        "return": "logs bloom"
      },
      "parseMintTx(bytes)": {
        "details": "Parse syscoin mint transaction to recover bridgeTransferId",
        "params": {
          "txBytes": "syscoin raw transaction"
        },
        "return": "errorCode, bridgeTransferId"
      }
    }
  },
  "userdoc": {
    "methods": {
      "getBridgeTransactionId(bytes)": {
        "notice": "Get bridgeTransactionId from logs bloom"
      },
      "getEthReceipt(bytes,uint256)": {
        "notice": "Parse txBytes and returns ethereum tx receipt"
      },
      "getLogValuesForTopic(bytes,bytes32)": {
        "notice": "Return logs for given ethereum transaction receipt"
      }
    }
  }
}