{
  "contractName": "SyscoinBattleManager",
  "abi": [
    {
      "anonymous": false,
      "inputs": [
        {
          "indexed": false,
          "internalType": "bytes32",
          "name": "superblockHash",
          "type": "bytes32"
        },
        {
          "indexed": false,
          "internalType": "uint256",
          "name": "err",
          "type": "uint256"
        },
        {
          "indexed": false,
          "internalType": "address",
          "name": "challenger",
          "type": "address"
        }
      ],
      "name": "ChallengerConvicted",
      "type": "event"
    },
    {
      "anonymous": false,
      "inputs": [
        {
          "indexed": false,
          "internalType": "bytes32",
          "name": "superblockHash",
          "type": "bytes32"
        },
        {
          "indexed": false,
          "internalType": "address",
          "name": "submitter",
          "type": "address"
        },
        {
          "indexed": false,
          "internalType": "address",
          "name": "challenger",
          "type": "address"
        }
      ],
      "name": "NewBattle",
      "type": "event"
    },
    {
      "anonymous": false,
      "inputs": [
        {
          "indexed": false,
          "internalType": "bytes32",
          "name": "superblockHash",
          "type": "bytes32"
        },
        {
          "indexed": false,
          "internalType": "uint256",
          "name": "merkleHashCount",
          "type": "uint256"
        },
        {
          "indexed": false,
          "internalType": "address",
          "name": "submitter",
          "type": "address"
        }
      ],
      "name": "RespondBlockHeaders",
      "type": "event"
    },
    {
      "anonymous": false,
      "inputs": [
        {
          "indexed": false,
          "internalType": "bytes32",
          "name": "superblockHash",
          "type": "bytes32"
        },
        {
          "indexed": false,
          "internalType": "uint256",
          "name": "err",
          "type": "uint256"
        },
        {
          "indexed": false,
          "internalType": "address",
          "name": "submitter",
          "type": "address"
        }
      ],
      "name": "SubmitterConvicted",
      "type": "event"
    },
    {
      "constant": true,
      "inputs": [
        {
          "internalType": "bytes",
          "name": "input",
          "type": "bytes"
        },
        {
          "internalType": "uint256",
          "name": "pos",
          "type": "uint256"
        }
      ],
      "name": "bytesToUint32Flipped",
      "outputs": [
        {
          "internalType": "uint32",
          "name": "result",
          "type": "uint32"
        }
      ],
      "payable": false,
      "stateMutability": "pure",
      "type": "function"
    },
    {
      "constant": true,
      "inputs": [
        {
          "internalType": "uint256",
          "name": "_txHash",
          "type": "uint256"
        },
        {
          "internalType": "uint256",
          "name": "_txIndex",
          "type": "uint256"
        },
        {
          "internalType": "uint256[]",
          "name": "_siblings",
          "type": "uint256[]"
        }
      ],
      "name": "computeMerkle",
      "outputs": [
        {
          "internalType": "uint256",
          "name": "",
          "type": "uint256"
        }
      ],
      "payable": false,
      "stateMutability": "pure",
      "type": "function"
    },
    {
      "constant": true,
      "inputs": [
        {
          "internalType": "uint256",
          "name": "_input",
          "type": "uint256"
        }
      ],
      "name": "flip32Bytes",
      "outputs": [
        {
          "internalType": "uint256",
          "name": "result",
          "type": "uint256"
        }
      ],
      "payable": false,
      "stateMutability": "pure",
      "type": "function"
    },
    {
      "constant": true,
      "inputs": [
        {
          "internalType": "bytes",
          "name": "data",
          "type": "bytes"
        },
        {
          "internalType": "uint256",
          "name": "pos",
          "type": "uint256"
        },
        {
          "internalType": "uint256",
          "name": "bits",
          "type": "uint256"
        }
      ],
      "name": "getBytesLE",
      "outputs": [
        {
          "internalType": "uint256",
          "name": "result",
          "type": "uint256"
        }
      ],
      "payable": false,
      "stateMutability": "pure",
      "type": "function"
    },
    {
      "constant": true,
      "inputs": [],
      "name": "minProposalDeposit",
      "outputs": [
        {
          "internalType": "uint256",
          "name": "",
          "type": "uint256"
        }
      ],
      "payable": false,
      "stateMutability": "view",
      "type": "function"
    },
    {
      "constant": true,
      "inputs": [
        {
          "internalType": "bytes",
          "name": "txBytes",
          "type": "bytes"
        },
        {
          "internalType": "uint256",
          "name": "pos",
          "type": "uint256"
        }
      ],
      "name": "parseVarInt",
      "outputs": [
        {
          "internalType": "uint256",
          "name": "",
          "type": "uint256"
        },
        {
          "internalType": "uint256",
          "name": "",
          "type": "uint256"
        }
      ],
      "payable": false,
      "stateMutability": "pure",
      "type": "function"
    },
    {
      "constant": true,
      "inputs": [
        {
          "internalType": "bytes",
          "name": "_rawBytes",
          "type": "bytes"
        },
        {
          "internalType": "uint256",
          "name": "offset",
          "type": "uint256"
        },
        {
          "internalType": "uint256",
          "name": "_endIndex",
          "type": "uint256"
        }
      ],
      "name": "sliceArray",
      "outputs": [
        {
          "internalType": "bytes",
          "name": "",
          "type": "bytes"
        }
      ],
      "payable": false,
      "stateMutability": "view",
      "type": "function"
    },
    {
      "constant": true,
      "inputs": [],
      "name": "superblockDuration",
      "outputs": [
        {
          "internalType": "uint256",
          "name": "",
          "type": "uint256"
        }
      ],
      "payable": false,
      "stateMutability": "view",
      "type": "function"
    },
    {
      "constant": true,
      "inputs": [],
      "name": "superblockTimeout",
      "outputs": [
        {
          "internalType": "uint256",
          "name": "",
          "type": "uint256"
        }
      ],
      "payable": false,
      "stateMutability": "view",
      "type": "function"
    },
    {
      "constant": false,
      "inputs": [
        {
          "internalType": "enum SyscoinMessageLibrary.Network",
          "name": "_network",
          "type": "uint8"
        },
        {
          "internalType": "contract SyscoinSuperblocksI",
          "name": "_superblocks",
          "type": "address"
        },
        {
          "internalType": "uint256",
          "name": "_superblockDuration",
          "type": "uint256"
        },
        {
          "internalType": "uint256",
          "name": "_superblockTimeout",
          "type": "uint256"
        }
      ],
      "name": "init",
      "outputs": [],
      "payable": false,
      "stateMutability": "nonpayable",
      "type": "function"
    },
    {
      "constant": false,
      "inputs": [
        {
          "internalType": "contract SyscoinClaimManagerI",
          "name": "_syscoinClaimManager",
          "type": "address"
        }
      ],
      "name": "setSyscoinClaimManager",
      "outputs": [],
      "payable": false,
      "stateMutability": "nonpayable",
      "type": "function"
    },
    {
      "constant": false,
      "inputs": [
        {
          "internalType": "bytes32",
          "name": "superblockHash",
          "type": "bytes32"
        },
        {
          "internalType": "address",
          "name": "submitter",
          "type": "address"
        },
        {
          "internalType": "address",
          "name": "challenger",
          "type": "address"
        }
      ],
      "name": "beginBattleSession",
      "outputs": [],
      "payable": false,
      "stateMutability": "nonpayable",
      "type": "function"
    },
    {
      "constant": true,
      "inputs": [
        {
          "internalType": "bytes",
          "name": "_rawBytes",
          "type": "bytes"
        },
        {
          "internalType": "uint256",
          "name": "offset",
          "type": "uint256"
        },
        {
          "internalType": "uint256",
          "name": "len",
          "type": "uint256"
        }
      ],
      "name": "sha256mem",
      "outputs": [
        {
          "internalType": "bytes32",
          "name": "result",
          "type": "bytes32"
        }
      ],
      "payable": false,
      "stateMutability": "view",
      "type": "function"
    },
    {
      "constant": true,
      "inputs": [
        {
          "internalType": "bytes",
          "name": "_rawBytes",
          "type": "bytes"
        },
        {
          "internalType": "uint256",
          "name": "offset",
          "type": "uint256"
        },
        {
          "internalType": "uint256",
          "name": "len",
          "type": "uint256"
        }
      ],
      "name": "dblShaFlipMem",
      "outputs": [
        {
          "internalType": "uint256",
          "name": "",
          "type": "uint256"
        }
      ],
      "payable": false,
      "stateMutability": "view",
      "type": "function"
    },
    {
      "constant": true,
      "inputs": [
        {
          "internalType": "uint32",
          "name": "_bits",
          "type": "uint32"
        }
      ],
      "name": "targetFromBits",
      "outputs": [
        {
          "internalType": "uint256",
          "name": "",
          "type": "uint256"
        }
      ],
      "payable": false,
      "stateMutability": "pure",
      "type": "function"
    },
    {
      "constant": true,
      "inputs": [
        {
          "internalType": "bytes32[]",
          "name": "hashes",
          "type": "bytes32[]"
        }
      ],
      "name": "makeMerkle",
      "outputs": [
        {
          "internalType": "bytes32",
          "name": "",
          "type": "bytes32"
        }
      ],
      "payable": false,
      "stateMutability": "pure",
      "type": "function"
    },
    {
      "constant": false,
      "inputs": [
        {
          "internalType": "bytes32",
          "name": "superblockHash",
          "type": "bytes32"
        },
        {
          "internalType": "bytes",
          "name": "blockHeaders",
          "type": "bytes"
        },
        {
          "internalType": "uint256",
          "name": "numHeaders",
          "type": "uint256"
        }
      ],
      "name": "respondBlockHeaders",
      "outputs": [],
      "payable": false,
      "stateMutability": "nonpayable",
      "type": "function"
    },
    {
      "constant": false,
      "inputs": [
        {
          "internalType": "bytes32",
          "name": "superblockHash",
          "type": "bytes32"
        }
      ],
      "name": "timeout",
      "outputs": [
        {
          "internalType": "uint256",
          "name": "",
          "type": "uint256"
        }
      ],
      "payable": false,
      "stateMutability": "nonpayable",
      "type": "function"
    },
    {
      "constant": true,
      "inputs": [
        {
          "internalType": "bytes32",
          "name": "superblockHash",
          "type": "bytes32"
        }
      ],
      "name": "getSubmitterHitTimeout",
      "outputs": [
        {
          "internalType": "bool",
          "name": "",
          "type": "bool"
        }
      ],
      "payable": false,
      "stateMutability": "view",
      "type": "function"
    },
    {
      "constant": true,
      "inputs": [
        {
          "internalType": "bytes32",
          "name": "superblockHash",
          "type": "bytes32"
        }
      ],
      "name": "getNumMerkleHashesBySession",
      "outputs": [
        {
          "internalType": "uint256",
          "name": "",
          "type": "uint256"
        }
      ],
      "payable": false,
      "stateMutability": "view",
      "type": "function"
    },
    {
      "constant": true,
      "inputs": [
        {
          "internalType": "bytes32",
          "name": "superblockHash",
          "type": "bytes32"
        }
      ],
      "name": "sessionExists",
      "outputs": [
        {
          "internalType": "bool",
          "name": "",
          "type": "bool"
        }
      ],
      "payable": false,
      "stateMutability": "view",
      "type": "function"
    }
  ],
  "bytecode": "0x608060405234801561001057600080fd5b50612b7c806100206000396000f3fe608060405234801561001057600080fd5b50600436106101375760003560e01c8063795ea18e116100b8578063df23ceb21161007c578063df23ceb214610816578063e177321614610851578063f1afcfa61461086e578063f871dfe814610876578063f91f681f14610893578063f9b5d7c0146108b657610137565b8063795ea18e14610652578063b6f6580a1461066f578063d0f9410b1461068c578063d1daeede14610739578063d5c9712f1461076d57610137565b80633e0e8a20116100ff5780633e0e8a201461038f578063455e6166146104ad5780634d7dcfbd146104b557806351fcf4311461057457806371a8c18a1461062157610137565b8063029c5e2a1461013c5780630c9897d2146101fb57806318b011de146102b65780632ef955e4146102be5780633678c14314610367575b600080fd5b6101e26004803603604081101561015257600080fd5b810190602081018135600160201b81111561016c57600080fd5b82018360208201111561017e57600080fd5b803590602001918460018302840111600160201b8311171561019f57600080fd5b91908080601f0160208091040260200160405190810160405280939291908181526020018383808284376000920191909152509295505091359250610957915050565b6040805163ffffffff9092168252519081900360200190f35b6102a46004803603606081101561021157600080fd5b810190602081018135600160201b81111561022b57600080fd5b82018360208201111561023d57600080fd5b803590602001918460018302840111600160201b8311171561025e57600080fd5b91908080601f0160208091040260200160405190810160405280939291908181526020018383808284376000920191909152509295505082359350505060200135610993565b60408051918252519081900360200190f35b6102a4610a58565b6102a4600480360360608110156102d457600080fd5b810190602081018135600160201b8111156102ee57600080fd5b82018360208201111561030057600080fd5b803590602001918460018302840111600160201b8311171561032157600080fd5b91908080601f0160208091040260200160405190810160405280939291908181526020018383808284376000920191909152509295505082359350505060200135610a5e565b61038d6004803603602081101561037d57600080fd5b50356001600160a01b0316610a83565b005b610438600480360360608110156103a557600080fd5b810190602081018135600160201b8111156103bf57600080fd5b8201836020820111156103d157600080fd5b803590602001918460018302840111600160201b831117156103f257600080fd5b91908080601f0160208091040260200160405190810160405280939291908181526020018383808284376000920191909152509295505082359350505060200135610ada565b6040805160208082528351818301528351919283929083019185019080838360005b8381101561047257818101518382015260200161045a565b50505050905090810190601f16801561049f5780820380516001836020036101000a031916815260200191505b509250505060405180910390f35b6102a4610b35565b61055b600480360360408110156104cb57600080fd5b810190602081018135600160201b8111156104e557600080fd5b8201836020820111156104f757600080fd5b803590602001918460018302840111600160201b8311171561051857600080fd5b91908080601f0160208091040260200160405190810160405280939291908181526020018383808284376000920191909152509295505091359250610b41915050565b6040805192835260208301919091528051918290030190f35b61038d6004803603606081101561058a57600080fd5b81359190810190604081016020820135600160201b8111156105ab57600080fd5b8201836020820111156105bd57600080fd5b803590602001918460018302840111600160201b831117156105de57600080fd5b91908080601f0160208091040260200160405190810160405280939291908181526020018383808284376000920191909152509295505091359250610bf4915050565b61063e6004803603602081101561063757600080fd5b5035611040565b604080519115158252519081900360200190f35b6102a46004803603602081101561066857600080fd5b5035611060565b6102a46004803603602081101561068557600080fd5b5035611151565b6102a4600480360360608110156106a257600080fd5b813591602081013591810190606081016040820135600160201b8111156106c857600080fd5b8201836020820111156106da57600080fd5b803590602001918460208302840111600160201b831117156106fb57600080fd5b91908080602002602001604051908101604052809392919081815260200183836020028082843760009201919091525092955061127b945050505050565b61038d6004803603606081101561074f57600080fd5b508035906001600160a01b0360208201358116916040013516611495565b6102a46004803603606081101561078357600080fd5b810190602081018135600160201b81111561079d57600080fd5b8201836020820111156107af57600080fd5b803590602001918460018302840111600160201b831117156107d057600080fd5b91908080601f0160208091040260200160405190810160405280939291908181526020018383808284376000920191909152509295505082359350505060200135611567565b61038d6004803603608081101561082c57600080fd5b5060ff813516906001600160a01b0360208201351690604081013590606001356115a9565b61063e6004803603602081101561086757600080fd5b5035611692565b6102a46116af565b6102a46004803603602081101561088c57600080fd5b50356116b5565b6102a4600480360360208110156108a957600080fd5b503563ffffffff16611791565b6102a4600480360360208110156108cc57600080fd5b810190602081018135600160201b8111156108e657600080fd5b8201836020820111156108f857600080fd5b803590602001918460208302840111600160201b8311171561091957600080fd5b9190808060200260200160405190810160405280939291908181526020018383602002808284376000920191909152509295506117b4945050505050565b6000816020840101516040518160031a60008201538160021a60018201538160011a60028201538160001a60038201535160e01c949350505050565b6000610a4e60026109a5868686610a5e565b604051602001808281526020019150506040516020818303038152906040526040518082805190602001908083835b602083106109f35780518252601f1990920191602091820191016109d4565b51815160209384036101000a60001901801990921691161790526040519190930194509192505080830381855afa158015610a32573d6000803e3d6000fd5b5050506040513d6020811015610a4757600080fd5b5051611151565b90505b9392505050565b60355481565b60006040516020818486602089010160025afa610a7a57600080fd5b51949350505050565b60365461010090046001600160a01b0316158015610aa957506001600160a01b03811615155b610ab257600080fd5b603680546001600160a01b0390921661010002610100600160a81b0319909216919091179055565b6060600083830390506060816040519080825280601f01601f191660200182016040528015610b10576020820181803883390190505b5090508160208201838760208a010160045afa610b2c57600080fd5b95945050505050565b6729a2241af62c000081565b6000806000848481518110610b5257fe5b01602001516001949094019360f81c905060fd811015610b795760ff169150829050610bed565b8060ff1660fd1415610b9f57610b9185856010611567565b846002019250925050610bed565b8060ff1660fe1415610bc557610bb785856020611567565b846004019250925050610bed565b8060ff1660ff1415610beb57610bdd85856040611567565b846008019250925050610bed565b505b9250929050565b600083815260336020526040902080546001600160a01b0316338114610c1957600080fd5b6004820154600260365460ff166002811115610c3157fe5b14610c695760028111158015610c48575083601014155b80610c5f5750806003148015610c5f575083600c14155b15610c6957600080fd5b610c71612988565b60375460408051636e5b707160e01b8152600481018a905290516001600160a01b0390921691636e5b70719160248082019261012092909190829003018186803b158015610cbe57600080fd5b505afa158015610cd2573d6000803e3d6000fd5b505050506040513d610120811015610ce957600080fd5b50805160208083015160408085015160608087015160808089015160a08a0151610100909a015163ffffffff90811660e08d0152918b019990995290971660c08901528781019690965286820152858301919091529184528151888152888202810190910190915260009190878015610d6c578160200160208202803883390190505b509050606087604051908082528060200260200182016040528015610dab57816020015b610d986129d2565b815260200190600190039081610d905790505b5090506000805b8251811015610eee57610dc58b86611a6c565b838281518110610dd157fe5b60200260200101819052506000610dfe848381518110610ded57fe5b602002602001015160000151611791565b9050610e0a8c87611ac1565b15610e8257610e176129f9565b610e218d88611ae4565b90508181600001511115610e3b576127a693505050610eee565b6000610e61868581518110610e4c57fe5b60200260200101516060015160001c83611be2565b905080600114610e75579350610eee915050565b5061014001519550610eb6565b80848381518110610e8f57fe5b60200260200101516060015160001c1115610eaf57612792925050610eee565b8560500195505b838281518110610ec257fe5b602002602001015160600151858381518110610eda57fe5b602090810291909101015250600101610db2565b508015610f1e576001880154610f11908c9089906001600160a01b031684611c53565b505050505050505061103b565b610f498886610f2c866117b4565b85600187510381518110610f3c57fe5b6020026020010151611d26565b90508015610f72576001880154610f6d908c9089906001600160a01b031684611c53565b611032565b426002890155610f83888684611e8c565b90508015610fa7576001880154610f11908c9089906001600160a01b031684611c53565b88600c1480610fc65750600260365460ff166002811115610fc457fe5b145b15610fe7576001880154610f11908c9089906001600160a01b03168461222b565b604080518c81526001880160208201526001600160a01b0389168183015290517fbb00dcdc614e6421b964f0ebca4d1ce96e2a575d555e09012e6f36ed405b410a9181900360600190a15b50505050505050505b505050565b60008181526033602052604090206035546002909101540142115b919050565b600081815260336020526040812080546001600160a01b031661108257600080fd5b60355481600201540142111561114757805460018201546110b49185916001600160a01b03918216911661c36a611c53565b603660019054906101000a90046001600160a01b03166001600160a01b0316633352f1a4846040518263ffffffff1660e01b815260040180828152602001915050602060405180830381600087803b15801561110f57600080fd5b505af1158015611123573d6000803e3d6000fd5b505050506040513d602081101561113957600080fd5b5061c36a925061105b915050565b5061c36e92915050565b60405160009060ff8316815382601e1a600182015382601d1a600282015382601c1a600382015382601b1a600482015382601a1a60058201538260191a60068201538260181a60078201538260171a60088201538260161a60098201538260151a600a8201538260141a600b8201538260131a600c8201538260121a600d8201538260111a600e8201538260101a600f82015382600f1a601082015382600e1a601182015382600d1a601282015382600c1a601382015382600b1a601482015382600a1a60158201538260091a60168201538260081a60178201538260071a60188201538260061a60198201538260051a601a8201538260041a601b8201538260031a601c8201538260021a601d8201538260011a601e8201538260001a601f8201535192915050565b8051600090815b818110156112c5576112a684828151811061129957fe5b6020026020010151611151565b8482815181106112b257fe5b6020908102919091010152600101611282565b506000806112d287611151565b90505b828210156114815760008583815181106112eb57fe5b602002602001015190506000806002898161130257fe5b066001141561131557508190508261131b565b50829050815b600280838360405160200180838152602001828152602001925050506040516020818303038152906040526040518082805190602001908083835b602083106113755780518252601f199092019160209182019101611356565b51815160209384036101000a60001901801990921691161790526040519190930194509192505080830381855afa1580156113b4573d6000803e3d6000fd5b5050506040513d60208110156113c957600080fd5b50516040805160208181019390935281518082038401815290820191829052805190928291908401908083835b602083106114155780518252601f1990920191602091820191016113f6565b51815160209384036101000a60001901801990921691161790526040519190930194509192505080830381855afa158015611454573d6000803e3d6000fd5b5050506040513d602081101561146957600080fd5b505193506002890498506001850194505050506112d5565b61148a81611151565b979650505050505050565b60365461010090046001600160a01b03163381146114b257600080fd5b600084815260336020526040902080546001600160a01b0316156114d557600080fd5b80546001600160a01b038086166001600160a01b03199283161783556001830180549186169190921617905560006115106004830182612a53565b50426002820155604080518681526001600160a01b03808716602083015285168183015290517f3726b144f253954160bd0bb1f002a28f904f6e83596cbb62e9e1f2082644ca939181900360600190a15050505050565b6000805b600883048110156115a1578060080260020a858286018151811061158b57fe5b016020015160f81c02919091019060010161156b565b509392505050565b600054610100900460ff16806115c257506115c26122f8565b806115d0575060005460ff16155b61160b5760405162461bcd60e51b815260040180806020018281038252602e815260200180612b1a602e913960400191505060405180910390fd5b600054610100900460ff16158015611636576000805460ff1961ff0019909116610100171660011790555b6036805486919060ff1916600183600281111561164f57fe5b0217905550603780546001600160a01b0319166001600160a01b03861617905560348390556035829055801561168b576000805461ff00191690555b5050505050565b6000908152603360205260409020546001600160a01b0316151590565b60345481565b60006116bf612a77565b600083815260336020908152604091829020825160a08101845281546001600160a01b0390811682526001830154168184015260028201548185015260038201546060820152600482018054855181860281018601909652808652919492936080860193929083018282801561175457602002820191906000526020600020905b815481526020019060010190808311611740575b5050509190925250508151919250506001600160a01b031661177a57600091505061105b565b505060009081526033602052604090206004015490565b62ffffff8116630100000063ffffffff92831604909116600219016101000a0290565b805160009060018114156117df57826000815181106117cf57fe5b602002602001015191505061105b565b6000811161182a576040805162461bcd60e51b81526020600482015260136024820152724d7573742070726f766964652068617368657360681b604482015290519081900360640190fd5b60005b818110156118765761185484828151811061184457fe5b602002602001015160001c611151565b60001b84828151811061186357fe5b602090810291909101015260010161182d565b6000805b6001841115611a52575060009150815b83831015611a4a578383600101106118a557600184036118aa565b826001015b91506002808785815181106118bb57fe5b60200260200101518885815181106118cf57fe5b602002602001015160405160200180838152602001828152602001925050506040516020818303038152906040526040518082805190602001908083835b6020831061192c5780518252601f19909201916020918201910161190d565b51815160209384036101000a60001901801990921691161790526040519190930194509192505080830381855afa15801561196b573d6000803e3d6000fd5b5050506040513d602081101561198057600080fd5b50516040805160208181019390935281518082038401815290820191829052805190928291908401908083835b602083106119cc5780518252601f1990920191602091820191016119ad565b51815160209384036101000a60001901801990921691161790526040519190930194509192505080830381855afa158015611a0b573d6000803e3d6000fd5b5050506040513d6020811015611a2057600080fd5b50518651879083908110611a3057fe5b60209081029190910101526002929092019160010161188a565b80935061187a565b611a628660008151811061184457fe5b9695505050505050565b611a746129d2565b611a7e83836122ff565b63ffffffff168152611a9283836050610993565b6060820152611aa1838361230e565b63ffffffff166040820152611ab6838361231d565b602082015292915050565b6000610100611ad08484610957565b1663ffffffff166000141590505b92915050565b611aec6129f9565b60606000605084019350611b008585612334565b92509050611b118585808403610993565b60208085019190915281019350611b2a85856000612360565b60e08501919091529350611b4085856020611567565b61010084015260049390930192611b5985856000612360565b60608501919091529350611b6f85856020611567565b608084015260049390930192611b8785856050610993565b835260249390930192611b9a8585612410565b60c084015260289390930192611bb285856020611567565b610120840152600484016101408401526000611bcd83612418565b60a08701525060408501525091949350505050565b6000816101000151600014611bfa575061274c611ade565b8160a00151600114611c11575060a0810151611ade565b8160400151611c2084846124e1565b14611c2e575061277e611ade565b8160c00151611c3c836124f6565b14611c4a5750612788611ade565b50600192915050565b6036546040805163a4cbce7b60e01b8152600481018790526001600160a01b038581166024830152868116604483015291516101009093049091169163a4cbce7b9160648082019260009290919082900301818387803b158015611cb657600080fd5b505af1158015611cca573d6000803e3d6000fd5b505060408051878152602081018590526001600160a01b0387168183015290517fcc11926aca009e381b48e432fbfb8e3f192d5d8be733dc474fa78831bbfdf0449350908190036060019150a1611d2084612513565b50505050565b600484015460009060031480611d4c5750600260365460ff166002811115611d4a57fe5b145b15611e65576060600260365460ff166002811115611d6657fe5b1415611d73576001611d76565b60045b60ff16604051908082528060200260200182016040528015611da2578160200160208202803883390190505b50905060005b6004870154811015611ded57866004018181548110611dc357fe5b9060005260206000200154828281518110611dda57fe5b6020908102919091010152600101611da8565b84828281518110611dfa57fe5b602002602001018181525050611e0f826117b4565b865114611e225761c37692505050611e84565b836040015163ffffffff16866020015114611e435761c37492505050611e84565b8560600151846060015114611e5e5761c38b92505050611e84565b5050611e80565b60048501805460018101825560009182526020909120018390555b5060005b949350505050565b6000611e96612988565b611e9e6129d2565b83600185510381518110611eae57fe5b60200260200101519050603760009054906101000a90046001600160a01b03166001600160a01b0316636e5b707186608001516040518263ffffffff1660e01b8152600401808281526020019150506101206040518083038186803b158015611f1657600080fd5b505afa158015611f2a573d6000803e3d6000fd5b505050506040513d610120811015611f4157600080fd5b5060408082015160608084015160809094015163ffffffff1660c08701528501929092528301526004860154600110611fa357816060015184600081518110611f8657fe5b60200260200101516020015114611fa35761c38d92505050610a51565b6000611fb487868560c00151612558565b90508015611fc6579250610a51915050565b8451600c14611fde576060820151600388015561221e565b6000611fe98661267c565b9050866040015181146120045761c397945050505050610a51565b8360400151811161201d5761c398945050505050610a51565b600260365460ff16600281111561203057fe5b1461221c57600660018860e001510363ffffffff168161204c57fe5b0663ffffffff16600014156121ca576120636129d2565b8660028851038151811061207357fe5b60209081029190910181015160375460e08b01516040805163c0dde98b60e01b815260051990920163ffffffff166004830152519294506001600160a01b0390911692632da8cffd92849263c0dde98b926024808301939192829003018186803b1580156120e057600080fd5b505afa1580156120f4573d6000803e3d6000fd5b505050506040513d602081101561210a57600080fd5b5051604080516001600160e01b031960e085901b1681526004810192909252516024808301926020929190829003018186803b15801561214957600080fd5b505afa15801561215d573d6000803e3d6000fd5b505050506040513d602081101561217357600080fd5b505160208901819052604082015160c087015160009261219a9263ffffffff1603906126e0565b90508063ffffffff168960c0015163ffffffff16146121c35761c3899650505050505050610a51565b50506121f3565b8360c0015163ffffffff168760c0015163ffffffff16146121f35761c390945050505050610a51565b826000015163ffffffff168760c0015163ffffffff161461221c5761c390945050505050610a51565b505b5060009695505050505050565b6036546040805163a4cbce7b60e01b8152600481018790526001600160a01b038681166024830152858116604483015291516101009093049091169163a4cbce7b9160648082019260009290919082900301818387803b15801561228e57600080fd5b505af11580156122a2573d6000803e3d6000fd5b505060408051878152602081018590526001600160a01b0386168183015290517fffa243eaeafd66e0a938ee0d270bbefd594e08a551dc29a9a44e39c719cfc79f9350908190036060019150a1611d2084612513565b303b155b90565b6000610a518383604801610957565b6000610a518383604401610957565b6024828201015160009060048301610b2c82611151565b60006060612345848460040161273b565b909250905061235484836127bd565b60040194909350915050565b606060008060006123718787610b41565b9650915084158061238157508185115b1561238d575080612390565b50835b6060816040519080825280602002602001820160405280156123bc578160200160208202803883390190505b50905060005b82811015612404576123dc6123d78a8a612410565b611151565b8282815181106123e857fe5b60209081029190910181019190915297909701966001016123c2565b50979596505050505050565b016020015190565b6000806000806000809050600063fabe6d6d60e01b905060006001600160e01b031990508751602089018181015b8082101561247b5784848351161415612470578561246957600482820384030196505b6001860195505b600182019150612446565b5050506002831061249d575060009550505060031901915061276090506124da565b82600114156124c7576124b08885612410565b9650506003199092019350600192506124da915050565b5060009550505060031901915061276a90505b9193909250565b6000610a51838360800151846060015161127b565b6000611ade6123d783602001518461010001518560e0015161127b565b600081815260336020526040812080546001600160a01b03199081168255600182018054909116905560028101829055600381018290559061103b6004830182612abb565b8151600090600019015b8015612605576125706129d2565b84828151811061257c57fe5b6020026020010151905061258e6129d2565b85600184038151811061259d57fe5b602002602001015190508551600c1415806125bb5750600186510383105b156125de57815163ffffffff8681169116146125de5761c38a9350505050610a51565b81602001518160600151146125fa5761c38c9350505050610a51565b505060001901612562565b508260008151811061261357fe5b60200260200101516000015163ffffffff168263ffffffff161461263a575061c38a610a51565b6004840154600211612672578260008151811061265357fe5b602002602001015160200151846003015414612672575061c393610a51565b5060009392505050565b6000612686612adc565b60005b600b8110156126cc578381600101815181106126a157fe5b60200260200101516040015163ffffffff168282600b81106126bf57fe5b6020020152600101612689565b506126d681612810565b60a0015192915050565b6000826143808110156126f65750614380612705565b61697881111561270557506169785b600061271084611791565b6154609083020490506001600160ec1b0381111561273257506001600160ec1b035b610b2c816128b2565b6000606060008061274c8686610b41565b955091508161277c5761275f8686610b41565b955091508161276d57600080fd5b6127778686610b41565b955091505b8160011461278957600080fd5b6024850194506127998686610b41565b9550905060606127ac8787848101610ada565b959091016004019694955050505050565b60008060006127cc8585610b41565b94509150600a82106127dd57600080fd5b60005b82811015612806576008850194506127f88686610b41565b8101955091506001016127e0565b5092949350505050565b60005b600b8110156128ae57600181015b600b8110156128a5578281600b811061283657fe5b60200201518383600b811061284757fe5b6020020151111561289d5760008383600b811061286057fe5b602002015190508382600b811061287357fe5b60200201518484600b811061288457fe5b6020020152808483600b811061289657fe5b6020020152505b600101612821565b50600101612813565b5050565b6000806128cb6128c184612943565b600701600361296b565b90506000600382116128f3576128ec8462ffffff1683600303600802612981565b905061290b565b612903846003840360080261296b565b62ffffff1690505b62800000811615612930576129278163ffffffff16600861296b565b90506001820191505b61293b826018612981565b179392505050565b6000815b80156129655761295881600161296b565b9050600182019150612947565b50919050565b60008160020a838161297957fe5b049392505050565b60020a0290565b6040805161012081018252600080825260208201819052918101829052606081018290526080810182905260a0810182905260c0810182905260e081018290529061010082015290565b60408051608081018252600080825260208201819052918101829052606081019190915290565b60405180610160016040528060008152602001600081526020016000815260200160608152602001600081526020016000815260200160008152602001606081526020016000815260200160008152602001600081525090565b81548183558181111561103b5760008381526020902061103b918101908301612afb565b6040518060a0016040528060006001600160a01b0316815260200160006001600160a01b031681526020016000815260200160008019168152602001606081525090565b5080546000825590600052602060002090810190612ad99190612afb565b50565b604051806101600160405280600b906020820280388339509192915050565b6122fc91905b80821115612b155760008155600101612b01565b509056fe436f6e747261637420696e7374616e63652068617320616c7265616479206265656e20696e697469616c697a6564a265627a7a723158206b0f2dac1eee21101773345419d39c3475c5ae0542b343a8f2e94c874e47be1864736f6c634300050d0032",
  "source": "pragma solidity ^0.5.13;\n\nimport './interfaces/SyscoinClaimManagerI.sol';\nimport './interfaces/SyscoinSuperblocksI.sol';\nimport './SyscoinErrorCodes.sol';\nimport \"@openzeppelin/upgrades/contracts/Initializable.sol\";\nimport \"./SyscoinParser/SyscoinMessageLibrary.sol\";\n\n// @dev - Manages a battle session between superblock submitter and challenger\ncontract SyscoinBattleManager is Initializable, SyscoinErrorCodes, SyscoinMessageLibrary {\n\n    // For verifying Syscoin difficulty\n    uint constant TARGET_TIMESPAN =  21600;\n    uint constant TARGET_TIMESPAN_MIN = 17280; // TARGET_TIMESPAN * (8/10);\n    uint constant TARGET_TIMESPAN_MAX = 27000; // TARGET_TIMESPAN * (10/8);\n    uint constant TARGET_TIMESPAN_ADJUSTMENT =  360;  // 6 hour\n    uint constant POW_LIMIT =    0x00000fffffffffffffffffffffffffffffffffffffffffffffffffffffffffff;\n\n    struct BattleSession {\n        address submitter;\n        address challenger;\n        uint lastActionTimestamp;         // Last action timestamp\n        bytes32 prevSubmitBlockhash;\n        bytes32[] merkleRoots;            // interim merkle roots to recreate final root hash on last set of headers\n    }\n    // AuxPoW block fields\n    struct AuxPoW {\n        uint blockHash;\n\n        uint txHash;\n\n        uint coinbaseMerkleRoot; // Merkle root of auxiliary block hash tree; stored in coinbase tx field\n        uint[] chainMerkleProof; // proves that a given Syscoin block hash belongs to a tree with the above root\n        uint syscoinHashIndex; // index of Syscoin block hash within block hash tree\n        uint coinbaseMerkleRootCode; // encodes whether or not the root was found properly\n\n        uint parentMerkleRoot; // Merkle root of transaction tree from parent Bitcoin block header\n        uint[] parentMerkleProof; // proves that coinbase tx belongs to a tree with the above root\n        uint coinbaseTxIndex; // index of coinbase tx within Bitcoin tx tree\n\n        uint parentNonce;\n        uint pos;\n    }\n    // Syscoin block header stored as a struct, mostly for readability purposes.\n    // BlockHeader structs can be obtained by parsing a block header's first 80 bytes\n    // with parseHeaderBytes.\n    struct BlockHeader {\n        uint32 bits;\n        bytes32 prevBlock;\n        uint32 timestamp;\n        bytes32 blockHash;\n    }\n    mapping (bytes32 => BattleSession) sessions;\n\n    uint public superblockDuration;         // Superblock duration (in blocks)\n    uint public superblockTimeout;          // Timeout action (in seconds)\n\n    // network that the stored blocks belong to\n    Network private net;\n\n\n    // Syscoin claim manager\n    SyscoinClaimManagerI trustedSyscoinClaimManager;\n\n    // Superblocks contract\n    SyscoinSuperblocksI trustedSuperblocks;\n\n    event NewBattle(bytes32 superblockHash,address submitter, address challenger);\n    event ChallengerConvicted(bytes32 superblockHash, uint err, address challenger);\n    event SubmitterConvicted(bytes32 superblockHash, uint err, address submitter);\n    event RespondBlockHeaders(bytes32 superblockHash, uint merkleHashCount, address submitter);\n    modifier onlyFrom(address sender) {\n        require(msg.sender == sender);\n        _;\n    }\n\n    modifier onlyChallenger(bytes32 superblockHash) {\n        require(msg.sender == sessions[superblockHash].challenger);\n        _;\n    }\n\n    // @dev  Configures the contract managing superblocks battles\n    // @param _network Network type to use for block difficulty validation\n    // @param _superblocks Contract that manages superblocks\n    // @param _superblockDuration Superblock duration (in blocks)\n    // @param _superblockTimeout Time to wait for challenges (in seconds)\n    function init(\n        Network _network,\n        SyscoinSuperblocksI _superblocks,\n        uint _superblockDuration,\n        uint _superblockTimeout\n    ) external initializer {\n        net = _network;\n        trustedSuperblocks = _superblocks;\n        superblockDuration = _superblockDuration;\n        superblockTimeout = _superblockTimeout;\n    }\n\n    function setSyscoinClaimManager(SyscoinClaimManagerI _syscoinClaimManager) external {\n        require(address(trustedSyscoinClaimManager) == address(0) && address(_syscoinClaimManager) != address(0));\n        trustedSyscoinClaimManager = _syscoinClaimManager;\n    }\n\n    // @dev - Start a battle session\n    function beginBattleSession(bytes32 superblockHash, address submitter, address challenger)\n        external onlyFrom(address(trustedSyscoinClaimManager)) {\n        BattleSession storage session = sessions[superblockHash];\n\n        require(session.submitter == address(0));\n\n        session.submitter = submitter;\n        session.challenger = challenger;\n        session.merkleRoots.length = 0;\n        session.lastActionTimestamp = block.timestamp;\n\n        emit NewBattle(superblockHash, submitter, challenger);\n    }\n\n    // 0x00 version\n    // 0x04 prev block hash\n    // 0x24 merkle root\n    // 0x44 timestamp\n    // 0x48 bits\n    // 0x4c nonce\n\n    // @dev - extract previous block field from a raw Syscoin block header\n    //\n    // @param _blockHeader - Syscoin block header bytes\n    // @param pos - where to start reading hash from\n    // @return - hash of block's parent in big endian format\n    function getHashPrevBlock(bytes memory _blockHeader, uint pos) private pure returns (uint) {\n        uint hashPrevBlock;\n        uint index = 0x04+pos;\n        assembly {\n            hashPrevBlock := mload(add(add(_blockHeader, 32), index))\n        }\n        return flip32Bytes(hashPrevBlock);\n    }\n\n\n    // @dev - extract timestamp field from a raw Syscoin block header\n    //\n    // @param _blockHeader - Syscoin block header bytes\n    // @param pos - where to start reading bits from\n    // @return - block's timestamp in big-endian format\n    function getTimestamp(bytes memory _blockHeader, uint pos) private pure returns (uint32 time) {\n        return bytesToUint32Flipped(_blockHeader, 0x44+pos);\n    }\n\n    // @dev - extract bits field from a raw Syscoin block header\n    //\n    // @param _blockHeader - Syscoin block header bytes\n    // @param pos - where to start reading bits from\n    // @return - block's difficulty in bits format, also big-endian\n    function getBits(bytes memory _blockHeader, uint pos) private pure returns (uint32 bits) {\n        return bytesToUint32Flipped(_blockHeader, 0x48+pos);\n    }\n\n    // @dev - converts raw bytes representation of a Syscoin block header to struct representation\n    //\n    // @param _rawBytes - first 80 bytes of a block header\n    // @return - exact same header information in BlockHeader struct form\n    function parseHeaderBytes(bytes memory _rawBytes, uint pos) private view returns (BlockHeader memory bh) {\n        bh.bits = getBits(_rawBytes, pos);\n        bh.blockHash = bytes32(dblShaFlipMem(_rawBytes, pos, 80));\n        bh.timestamp = getTimestamp(_rawBytes, pos);\n        bh.prevBlock = bytes32(getHashPrevBlock(_rawBytes, pos));\n    }\n\n    function parseAuxPoW(bytes memory rawBytes, uint pos)\n        private\n        view\n        returns (AuxPoW memory auxpow)\n    {\n        bytes memory coinbaseScript;\n        uint slicePos;\n        // we need to traverse the bytes with a pointer because some fields are of variable length\n        pos += 80; // skip non-AuxPoW header\n\n        (slicePos, coinbaseScript) = getSlicePos(rawBytes, pos);\n        auxpow.txHash = dblShaFlipMem(rawBytes, pos, slicePos - pos);\n        pos = slicePos;\n        // parent block hash, skip and manually hash below\n        pos += 32;\n        (auxpow.parentMerkleProof, pos) = scanMerkleBranch(rawBytes, pos, 0);\n        auxpow.coinbaseTxIndex = getBytesLE(rawBytes, pos, 32);\n        pos += 4;\n        (auxpow.chainMerkleProof, pos) = scanMerkleBranch(rawBytes, pos, 0);\n        auxpow.syscoinHashIndex = getBytesLE(rawBytes, pos, 32);\n        pos += 4;\n        // calculate block hash instead of reading it above, as some are LE and some are BE, we cannot know endianness and have to calculate from parent block header\n        auxpow.blockHash = dblShaFlipMem(rawBytes, pos, 80);\n        pos += 36; // skip parent version and prev block\n        auxpow.parentMerkleRoot = sliceBytes32Int(rawBytes, pos);\n        pos += 40; // skip root that was just read, parent block timestamp and bits\n        auxpow.parentNonce = getBytesLE(rawBytes, pos, 32);\n        auxpow.pos = pos+4;\n        uint coinbaseMerkleRootPosition;\n        (auxpow.coinbaseMerkleRoot, coinbaseMerkleRootPosition, auxpow.coinbaseMerkleRootCode) = findCoinbaseMerkleRoot(coinbaseScript);\n    }\n\n    function sha256mem(bytes memory _rawBytes, uint offset, uint len)\n        public\n        view\n        returns (bytes32 result)\n    {\n        assembly {\n            // Call sha256 precompiled contract (located in address 0x02) to copy data.\n            // Assign to ptr the next available memory position (stored in memory position 0x40).\n            let ptr := mload(0x40)\n            if iszero(staticcall(gas, 0x02, add(add(_rawBytes, 0x20), offset), len, ptr, 0x20)) {\n                revert(0, 0)\n            }\n            result := mload(ptr)\n        }\n    }\n\n    // @dev - Bitcoin-way of hashing\n    // @param _dataBytes - raw data to be hashed\n    // @return - result of applying SHA-256 twice to raw data and then flipping the bytes\n    function dblShaFlipMem(bytes memory _rawBytes, uint offset, uint len)\n        public\n        view\n        returns (uint)\n    {\n        return flip32Bytes(uint(sha256(abi.encodePacked(sha256mem(_rawBytes, offset, len)))));\n    }\n\n    function skipOutputs(bytes memory txBytes, uint pos) private pure returns (uint) {\n        uint n_outputs;\n        uint script_len;\n\n        (n_outputs, pos) = parseVarInt(txBytes, pos);\n\n        require(n_outputs < 10);\n\n        for (uint i = 0; i < n_outputs; i++) {\n            pos += 8;\n            (script_len, pos) = parseVarInt(txBytes, pos);\n            pos += script_len;\n        }\n\n        return pos;\n    }\n\n    // get final position of inputs, outputs and lock time\n    // this is a helper function to slice a byte array and hash the inputs, outputs and lock time\n    function getSlicePos(bytes memory txBytes, uint pos)\n        private\n        view\n        returns (uint slicePos, bytes memory coinbaseScript)\n    {\n\n        (slicePos, coinbaseScript) = skipInputsCoinbase(txBytes, pos + 4);\n        slicePos = skipOutputs(txBytes, slicePos);\n        slicePos += 4; // skip lock time\n    }\n\n    // scan a Merkle branch.\n    // return array of values and the end position of the sibling hashes.\n    // takes a 'stop' argument which sets the maximum number of\n    // siblings to scan through. stop=0 => scan all.\n    function scanMerkleBranch(bytes memory txBytes, uint pos, uint stop)\n        private\n        pure\n        returns (uint[] memory, uint)\n    {\n        uint n_siblings;\n        uint halt;\n\n        (n_siblings, pos) = parseVarInt(txBytes, pos);\n\n        if (stop == 0 || stop > n_siblings) {\n            halt = n_siblings;\n        } else {\n            halt = stop;\n        }\n\n        uint[] memory sibling_values = new uint[](halt);\n\n        for (uint i = 0; i < halt; i++) {\n            sibling_values[i] = flip32Bytes(sliceBytes32Int(txBytes, pos));\n            pos += 32;\n        }\n\n        return (sibling_values, pos);\n    }\n\n    // Slice 32 contiguous bytes from bytes `data`, starting at `start`\n    function sliceBytes32Int(bytes memory data, uint start) private pure returns (uint slice) {\n        assembly {\n            slice := mload(add(data, add(0x20, start)))\n        }\n    }\n\n    function skipInputsCoinbase(bytes memory txBytes, uint pos)\n        private\n        view\n        returns (uint, bytes memory)\n    {\n        uint n_inputs;\n        uint script_len;\n        (n_inputs, pos) = parseVarInt(txBytes, pos);\n        // if dummy 0x00 is present this is a witness transaction\n        if(n_inputs == 0x00){\n            (n_inputs, pos) = parseVarInt(txBytes, pos); // flag\n            require(n_inputs != 0x00);\n            // after dummy/flag the real var int comes for txins\n            (n_inputs, pos) = parseVarInt(txBytes, pos);\n        }\n        require(n_inputs == 1);\n\n        pos += 36;  // skip outpoint\n        (script_len, pos) = parseVarInt(txBytes, pos);\n        bytes memory coinbaseScript;\n        coinbaseScript = sliceArray(txBytes, pos, pos+script_len);\n        pos += script_len + 4;  // skip sig_script, seq\n\n        return (pos, coinbaseScript);\n    }\n\n    // @dev - looks for {0xfa, 0xbe, 'm', 'm'} byte sequence\n    // returns the following 32 bytes if it appears once and only once,\n    // 0 otherwise\n    // also returns the position where the bytes first appear\n    function findCoinbaseMerkleRoot(bytes memory rawBytes)\n        private\n        pure\n        returns (uint, uint, uint)\n    {\n        uint position;\n        uint found = 0;\n        uint target = 0xfabe6d6d00000000000000000000000000000000000000000000000000000000;\n        uint mask = 0xffffffff00000000000000000000000000000000000000000000000000000000;\n        assembly {\n            let len := mload(rawBytes)\n            let data := add(rawBytes, 0x20)\n            let end := add(data, len)\n\n            for { } lt(data, end) { } {     // while(i < end)\n                if eq(and(mload(data), mask), target) {\n                    if eq(found, 0x0) {\n                        position := add(sub(len, sub(end, data)), 4)\n                    }\n                    found := add(found, 1)\n                }\n                data := add(data, 0x1)\n            }\n        }\n\n        if (found >= 2) {\n            return (0, position - 4, ERR_FOUND_TWICE);\n        } else if (found == 1) {\n            return (sliceBytes32Int(rawBytes, position), position - 4, 1);\n        } else { // no merge mining header\n            return (0, position - 4, ERR_NO_MERGE_HEADER);\n        }\n    }\n\n    // @dev - calculates the Merkle root of a tree containing Bitcoin transactions\n    // in order to prove that `ap`'s coinbase tx is in that Bitcoin block.\n    //\n    // @param _ap - AuxPoW information\n    // @return - Merkle root of Bitcoin block that the Syscoin block\n    // with this info was mined in if AuxPoW Merkle proof is correct,\n    // garbage otherwise\n    function computeParentMerkle(AuxPoW memory _ap) private pure returns (uint) {\n        return flip32Bytes(computeMerkle(_ap.txHash,\n                                         _ap.coinbaseTxIndex,\n                                         _ap.parentMerkleProof));\n    }\n\n    // @dev - calculates the Merkle root of a tree containing auxiliary block hashes\n    // in order to prove that the Syscoin block identified by _blockHash\n    // was merge-mined in a Bitcoin block.\n    //\n    // @param _blockHash - SHA-256 hash of a certain Syscoin block\n    // @param _ap - AuxPoW information corresponding to said block\n    // @return - Merkle root of auxiliary chain tree\n    // if AuxPoW Merkle proof is correct, garbage otherwise\n    function computeChainMerkle(uint _blockHash, AuxPoW memory _ap) private pure returns (uint) {\n        return computeMerkle(_blockHash,\n                             _ap.syscoinHashIndex,\n                             _ap.chainMerkleProof);\n    }    \n\n    // @dev - checks if a merge-mined block's Merkle proofs are correct,\n    // i.e. Syscoin block hash is in coinbase Merkle tree\n    // and coinbase transaction is in parent Merkle tree.\n    //\n    // @param _blockHash - SHA-256 hash of the block whose Merkle proofs are being checked\n    // @param _ap - AuxPoW struct corresponding to the block\n    // @return 1 if block was merge-mined and coinbase index, chain Merkle root and Merkle proofs are correct,\n    // respective error code otherwise\n    function checkAuxPoW(uint _blockHash, AuxPoW memory _ap) private pure returns (uint) {\n        if (_ap.coinbaseTxIndex != 0) {\n            return ERR_COINBASE_INDEX;\n        }\n\n        if (_ap.coinbaseMerkleRootCode != 1) {\n            return _ap.coinbaseMerkleRootCode;\n        }\n\n        if (computeChainMerkle(_blockHash, _ap) != _ap.coinbaseMerkleRoot) {\n            return ERR_CHAIN_MERKLE;\n        }\n\n        if (computeParentMerkle(_ap) != _ap.parentMerkleRoot) {\n            return ERR_PARENT_MERKLE;\n        }\n\n        return 1;\n    }\n\n    // @dev - Bitcoin-way of computing the target from the 'bits' field of a block header\n    // based on http://www.righto.com/2014/02/bitcoin-mining-hard-way-algorithms.html//ref3\n    //\n    // @param _bits - difficulty in bits format\n    // @return - difficulty in target format\n    function targetFromBits(uint32 _bits) public pure returns (uint) {\n        uint exp = _bits / 0x1000000;  // 2**24\n        uint mant = _bits & 0xffffff;\n        return mant * 256**(exp - 3);\n    }\n    \n    // @param _actualTimespan - time elapsed from previous block creation til current block creation;\n    // i.e., how much time it took to mine the current block\n    // @param _bits - previous block header difficulty (in bits)\n    // @return - expected difficulty for the next block\n    function calculateDifficulty(uint _actualTimespan, uint32 _bits) private pure returns (uint32 result) {\n        uint actualTimespan = _actualTimespan;\n        // Limit adjustment step\n        if (actualTimespan < TARGET_TIMESPAN_MIN) {\n            actualTimespan = TARGET_TIMESPAN_MIN;\n        } else if (actualTimespan > TARGET_TIMESPAN_MAX) {\n            actualTimespan = TARGET_TIMESPAN_MAX;\n        }\n\n        // Retarget\n        uint bnNew = targetFromBits(_bits);\n        bnNew = bnNew * actualTimespan;\n        bnNew = bnNew / TARGET_TIMESPAN;\n\n        if (bnNew > POW_LIMIT) {\n            bnNew = POW_LIMIT;\n        }\n\n        return toCompactBits(bnNew);\n    }\n\n    // @dev - shift information to the right by a specified number of bits\n    //\n    // @param _val - value to be shifted\n    // @param _shift - number of bits to shift\n    // @return - `_val` shifted `_shift` bits to the right, i.e. divided by 2**`_shift`\n    function shiftRight(uint _val, uint _shift) private pure returns (uint) {\n        return _val / uint(2)**_shift;\n    }\n\n    // @dev - shift information to the left by a specified number of bits\n    //\n    // @param _val - value to be shifted\n    // @param _shift - number of bits to shift\n    // @return - `_val` shifted `_shift` bits to the left, i.e. multiplied by 2**`_shift`\n    function shiftLeft(uint _val, uint _shift) private pure returns (uint) {\n        return _val * uint(2)**_shift;\n    }\n\n    // @dev - get the number of bits required to represent a given integer value without losing information\n    //\n    // @param _val - unsigned integer value\n    // @return - given value's bit length\n    function bitLen(uint _val) private pure returns (uint length) {\n        uint int_type = _val;\n        while (int_type > 0) {\n            int_type = shiftRight(int_type, 1);\n            length += 1;\n        }\n    }\n\n    // @dev - Convert uint256 to compact encoding\n    // based on https://github.com/petertodd/python-bitcoinlib/blob/2a5dda45b557515fb12a0a18e5dd48d2f5cd13c2/bitcoin/core/serialize.py\n    // Analogous to arith_uint256::GetCompact from C++ implementation\n    //\n    // @param _val - difficulty in target format\n    // @return - difficulty in bits format\n    function toCompactBits(uint _val) private pure returns (uint32) {\n        uint nbytes = uint (shiftRight((bitLen(_val) + 7), 3));\n        uint32 compact = 0;\n        if (nbytes <= 3) {\n            compact = uint32 (shiftLeft((_val & 0xFFFFFF), 8 * (3 - nbytes)));\n        } else {\n            compact = uint32 (shiftRight(_val, 8 * (nbytes - 3)));\n            compact = uint32 (compact & 0xFFFFFF);\n        }\n\n        // If the sign bit (0x00800000) is set, divide the mantissa by 256 and\n        // increase the exponent to get an encoding without it set.\n        if ((compact & 0x00800000) > 0) {\n            compact = uint32(shiftRight(compact, 8));\n            nbytes += 1;\n        }\n\n        return compact | uint32(shiftLeft(nbytes, 24));\n    }\n\n    // @dev - Evaluate the merkle root\n    //\n    // Given an array of hashes it calculates the\n    // root of the merkle tree.\n    //\n    // @return root of merkle tree\n    function makeMerkle(bytes32[] memory hashes) public pure returns (bytes32) {\n        uint length = hashes.length;\n\n        if (length == 1) return hashes[0];\n        require(length > 0, \"Must provide hashes\");\n\n        uint i;\n        for (i = 0; i < length; i++) {\n            hashes[i] = bytes32(flip32Bytes(uint(hashes[i])));\n        }\n\n        uint j;\n        uint k;\n\n        while (length > 1) {\n            k = 0;\n            for (i = 0; i < length; i += 2) {\n                j = (i + 1 < length) ? i + 1 : length - 1;\n                hashes[k] = sha256(abi.encodePacked(sha256(abi.encodePacked(hashes[i], hashes[j]))));\n                k += 1;\n            }\n            length = k;\n        }\n        return bytes32(flip32Bytes(uint(hashes[0])));\n    }\n\n    // @dev - Verify block headers sent by challenger\n    function doRespondBlockHeaders(\n        BattleSession storage session,\n        SyscoinSuperblocksI.SuperblockInfo memory superblockInfo,\n        bytes32 merkleRoot,\n        BlockHeader memory lastHeader\n    ) private returns (uint) {\n        if (session.merkleRoots.length == 3 || net == Network.REGTEST) {\n            bytes32[] memory merkleRoots = new bytes32[](net != Network.REGTEST ? 4 : 1);\n            uint i;\n            for (i = 0; i < session.merkleRoots.length; i++) {\n                merkleRoots[i] = session.merkleRoots[i];\n            }\n            merkleRoots[i] = merkleRoot;\n            if (superblockInfo.blocksMerkleRoot != makeMerkle(merkleRoots)) {\n                return ERR_SUPERBLOCK_INVALID_MERKLE;\n            }\n\n            // if you have the last set of headers we can enfoce checks against the end\n            // ensure the last block's timestamp matches the superblock's proposed timestamp\n            if (superblockInfo.timestamp != lastHeader.timestamp) {\n                return ERR_SUPERBLOCK_INVALID_TIMESTAMP;\n            }\n            // ensure last headers hash matches the last hash of the superblock\n            if (lastHeader.blockHash != superblockInfo.lastHash) {\n                return ERR_SUPERBLOCK_HASH_SUPERBLOCK;\n            }\n        } else {\n            session.merkleRoots.push(merkleRoot);\n        }\n\n        return ERR_SUPERBLOCK_OK;\n    }\n\n    function respondBlockHeaders (\n        bytes32 superblockHash,\n        bytes memory blockHeaders,\n        uint numHeaders\n    ) public {\n        BattleSession storage session = sessions[superblockHash];\n        address submitter = session.submitter;\n\n        require(msg.sender == submitter);\n\n        uint merkleRootsLen = session.merkleRoots.length;\n\n        if (net != Network.REGTEST) {\n            if ((merkleRootsLen <= 2 && numHeaders != 16) || (merkleRootsLen == 3 && numHeaders != 12)) {\n                revert();\n            }\n        }\n\n        SyscoinSuperblocksI.SuperblockInfo memory superblockInfo;\n        (superblockInfo.blocksMerkleRoot, superblockInfo.timestamp,superblockInfo.mtpTimestamp,superblockInfo.lastHash,superblockInfo.lastBits,superblockInfo.parentId,,,superblockInfo.height) =\n            trustedSuperblocks.getSuperblock(superblockHash);\n\n        uint pos = 0;\n        bytes32[] memory blockHashes = new bytes32[](numHeaders);\n        BlockHeader[] memory parsedBlockHeaders = new BlockHeader[](numHeaders);\n\n        uint err = ERR_SUPERBLOCK_OK;\n\n        for (uint i = 0; i < parsedBlockHeaders.length; i++){\n            parsedBlockHeaders[i] = parseHeaderBytes(blockHeaders, pos);\n            uint target = targetFromBits(parsedBlockHeaders[i].bits);\n\n            if (isMergeMined(blockHeaders, pos)) {\n                AuxPoW memory ap = parseAuxPoW(blockHeaders, pos);\n                if (ap.blockHash > target) {\n                    err = ERR_PROOF_OF_WORK_AUXPOW;\n                    break;\n                }\n\n                uint auxPoWCode = checkAuxPoW(uint(parsedBlockHeaders[i].blockHash), ap);\n                if (auxPoWCode != 1) {\n                    err = auxPoWCode;\n                    break;\n                }\n\n                pos = ap.pos;\n            } else {\n                if (uint(parsedBlockHeaders[i].blockHash) > target) {\n                    err = ERR_PROOF_OF_WORK;\n                    break;\n                }\n\n                pos = pos+80;\n            }\n\n            blockHashes[i] = parsedBlockHeaders[i].blockHash;\n        }\n\n        if (err != ERR_SUPERBLOCK_OK) {\n            convictSubmitter(superblockHash, submitter, session.challenger, err);\n            return;\n        }\n\n        err = doRespondBlockHeaders(\n            session,\n            superblockInfo,\n            makeMerkle(blockHashes),\n            parsedBlockHeaders[parsedBlockHeaders.length-1]\n        );\n        if (err != ERR_SUPERBLOCK_OK) {\n            convictSubmitter(superblockHash, submitter, session.challenger, err);\n        } else {\n            session.lastActionTimestamp = block.timestamp;\n            err = validateHeaders(session, superblockInfo, parsedBlockHeaders);\n            if (err != ERR_SUPERBLOCK_OK) {\n                convictSubmitter(superblockHash, submitter, session.challenger, err);\n                return;\n            }\n            // only convict challenger at the end if all headers have been provided\n            if(numHeaders == 12 || net == Network.REGTEST){\n                convictChallenger(superblockHash, submitter, session.challenger, err);\n                return;\n            }\n            emit RespondBlockHeaders(superblockHash, merkleRootsLen + 1, submitter);\n        }\n    }\n\n    uint32 constant VERSION_AUXPOW = (1 << 8);\n    // @dev - checks version to determine if a block has merge mining information\n    function isMergeMined(bytes memory _rawBytes, uint pos) private pure returns (bool) {\n        return bytesToUint32Flipped(_rawBytes, pos) & VERSION_AUXPOW != 0;\n    }\n\n    // @dev - Validate prev bits, prev hash of block header\n    function checkBlocks(BattleSession storage session, BlockHeader[] memory blockHeadersParsed, uint32 prevBits) private view returns (uint) {\n        for(uint i = blockHeadersParsed.length-1;i>0;i--){\n            BlockHeader memory thisHeader = blockHeadersParsed[i];\n            BlockHeader memory prevHeader = blockHeadersParsed[i-1];\n            // except for the last header except all the bits to match\n            // last chunk has 12 headers which is the only time we care to skip the last header\n            if (blockHeadersParsed.length != 12 || i < (blockHeadersParsed.length-1)){\n                if (prevBits != thisHeader.bits)\n                    return ERR_SUPERBLOCK_BITS_PREVBLOCK;\n            }\n            if(prevHeader.blockHash != thisHeader.prevBlock)\n                return ERR_SUPERBLOCK_HASH_PREVBLOCK;\n        }\n\n        if (prevBits != blockHeadersParsed[0].bits) {\n            return ERR_SUPERBLOCK_BITS_PREVBLOCK;\n        }\n\n        // enforce linking against previous submitted batch of blocks\n        if (session.merkleRoots.length >= 2) {\n            if (session.prevSubmitBlockhash != blockHeadersParsed[0].prevBlock)\n                return ERR_SUPERBLOCK_HASH_INTERIM_PREVBLOCK;\n        }\n        return ERR_SUPERBLOCK_OK;\n    }\n    function sort_array(uint[11] memory arr) private pure {\n        for(uint i = 0; i < 11; i++) {\n            for(uint j = i+1; j < 11 ;j++) {\n                if(arr[i] > arr[j]) {\n                    uint temp = arr[i];\n                    arr[i] = arr[j];\n                    arr[j] = temp;\n                }\n            }\n        }\n    }\n\n    // @dev - Gets the median timestamp of the last 11 blocks\n    function getMedianTimestamp(BlockHeader[] memory blockHeadersParsed) private pure returns (uint){\n        uint[11] memory timestamps;\n        // timestamps 0->10 = blockHeadersParsed 1->11\n        for(uint i=0;i<11;i++){\n            timestamps[i] = blockHeadersParsed[i+1].timestamp;\n        }\n        sort_array(timestamps);\n        return timestamps[5];\n    }\n    // @dev - Validate superblock accumulated work + other block header fields\n    function validateHeaders(BattleSession storage session, SyscoinSuperblocksI.SuperblockInfo memory superblockInfo, BlockHeader[] memory blockHeadersParsed) private returns (uint) {\n        SyscoinSuperblocksI.SuperblockInfo memory prevSuperblockInfo;\n        BlockHeader memory lastHeader = blockHeadersParsed[blockHeadersParsed.length-1];\n        (,,prevSuperblockInfo.mtpTimestamp,prevSuperblockInfo.lastHash,prevSuperblockInfo.lastBits,,,,) =\n            trustedSuperblocks.getSuperblock(superblockInfo.parentId);\n        // for blocks 0 -> 16 we can check the first header\n        if(session.merkleRoots.length <= 1){\n            // ensure first headers prev block matches the last hash of the prev superblock\n            if(blockHeadersParsed[0].prevBlock != prevSuperblockInfo.lastHash)\n                return ERR_SUPERBLOCK_HASH_PREVSUPERBLOCK;\n\n        }\n        // make sure all bits are the same and timestamps are within range as well as headers are all linked\n        uint err = checkBlocks(session, blockHeadersParsed, prevSuperblockInfo.lastBits);\n        if(err != ERR_SUPERBLOCK_OK)\n            return err;\n        // for every batch of blocks up to the last one (at superblockDuration blocks we have all the headers so we can complete the game)\n        if(blockHeadersParsed.length != 12){\n            // set the last block header details in the session for subsequent batch of blocks to validate it connects to this header\n            session.prevSubmitBlockhash = lastHeader.blockHash;\n        }\n        // once all the headers are received we can check merkle and enforce difficulty\n        else{\n            uint mtpTimestamp = getMedianTimestamp(blockHeadersParsed);\n\n            // make sure calculated MTP is same as superblock MTP\n            if(mtpTimestamp != superblockInfo.mtpTimestamp)\n                 return ERR_SUPERBLOCK_MISMATCH_TIMESTAMP_MTP;\n\n            // ensure MTP of this SB is > than last SB MTP\n            if(mtpTimestamp <= prevSuperblockInfo.mtpTimestamp)\n                return ERR_SUPERBLOCK_TOOSMALL_TIMESTAMP_MTP;\n\n\n            // make sure every 6th superblock adjusts difficulty\n            // calculate the new work from prevBits minus one as if its an adjustment we need to account for new bits, if not then just add one more prevBits work\n            if (net != Network.REGTEST) {\n                if (((superblockInfo.height-1) % 6) == 0) {\n                    BlockHeader memory prevToLastHeader = blockHeadersParsed[blockHeadersParsed.length-2];\n\n                    // ie: superblockHeight = 7 meaning blocks 661->720, we need to check timestamp from block 719 - to block 360\n                    // get 6 superblocks previous for second timestamp (for example block 360 has the timetamp 6 superblocks ago on second adjustment)\n                    superblockInfo.timestamp = trustedSuperblocks.getSuperblockTimestamp(trustedSuperblocks.getSuperblockAt(superblockInfo.height - 6));\n                    uint32 newBits = calculateDifficulty(prevToLastHeader.timestamp - superblockInfo.timestamp, prevSuperblockInfo.lastBits);\n\n                    // ensure bits of superblock match derived bits from calculateDifficulty\n                    if (superblockInfo.lastBits != newBits) {\n                        return ERR_SUPERBLOCK_BITS_SUPERBLOCK;\n                    }\n                } else {\n                    if (superblockInfo.lastBits != prevSuperblockInfo.lastBits) {\n                        return ERR_SUPERBLOCK_BITS_LASTBLOCK;\n                    }\n                }\n\n                // make sure superblock bits match that of the last block\n                if (superblockInfo.lastBits != lastHeader.bits)\n                    return ERR_SUPERBLOCK_BITS_LASTBLOCK;\n            }\n        }\n\n        return ERR_SUPERBLOCK_OK;\n    }\n\n\n    // @dev - Trigger conviction if response is not received in time\n    function timeout(bytes32 superblockHash) external returns (uint) {\n        BattleSession storage session = sessions[superblockHash];\n        require(session.submitter != address(0));\n\n        if (block.timestamp > session.lastActionTimestamp + superblockTimeout) {\n            convictSubmitter(superblockHash, session.submitter, session.challenger, ERR_SUPERBLOCK_TIMEOUT);\n            trustedSyscoinClaimManager.checkClaimFinished(superblockHash);\n            return ERR_SUPERBLOCK_TIMEOUT;\n        }\n        return ERR_SUPERBLOCK_NO_TIMEOUT;\n    }\n\n    // @dev - To be called when a challenger is convicted\n    function convictChallenger(bytes32 superblockHash, address submitter, address challenger, uint err) private {\n        trustedSyscoinClaimManager.sessionDecided(superblockHash, submitter, challenger);\n        emit ChallengerConvicted(superblockHash, err, challenger);\n        disable(superblockHash);\n    }\n\n    // @dev - To be called when a submitter is convicted\n    function convictSubmitter(bytes32 superblockHash, address submitter, address challenger, uint err) private {\n        trustedSyscoinClaimManager.sessionDecided(superblockHash, challenger, submitter);\n        emit SubmitterConvicted(superblockHash, err, submitter);\n        disable(superblockHash);\n    }\n\n    // @dev - Disable session\n    // It should be called only when either the submitter or the challenger were convicted.\n    function disable(bytes32 superblockHash) private {\n        delete sessions[superblockHash];\n    }\n\n    // @dev - Check if a session's submitter did not respond before timeout\n    function getSubmitterHitTimeout(bytes32 superblockHash) external view returns (bool) {\n        BattleSession storage session = sessions[superblockHash];\n        return (block.timestamp > session.lastActionTimestamp + superblockTimeout);\n    }\n    function getNumMerkleHashesBySession(bytes32 superblockHash) external view returns (uint) {\n        BattleSession memory session = sessions[superblockHash];\n        if (session.submitter == address(0))\n            return 0;\n        return sessions[superblockHash].merkleRoots.length;\n    }\n    function sessionExists(bytes32 superblockHash) external view returns (bool) {\n        return sessions[superblockHash].submitter != address(0);\n    }\n}\n",
  "sourcePath": "/Users/jsidhu/Documents/GitHub/sysethereum-contracts1/contracts/SyscoinBattleManager.sol",
  "compiler": {
    "name": "solc",
    "version": "0.5.13+commit.5b0b510c.Emscripten.clang"
  },
  "schemaVersion": "3.0.20",
  "updatedAt": "2020-03-05T20:15:12.774Z",
  "devdoc": {
    "methods": {}
  },
  "userdoc": {
    "methods": {}
  }
}