{
  "contractName": "SyscoinRelay",
  "abi": [
    {
      "anonymous": false,
      "inputs": [
        {
          "indexed": false,
          "internalType": "bytes32",
          "name": "txHash",
          "type": "bytes32"
        },
        {
          "indexed": false,
          "internalType": "uint256",
          "name": "returnCode",
          "type": "uint256"
        }
      ],
      "name": "RelayTransaction",
      "type": "event"
    },
    {
      "anonymous": false,
      "inputs": [
        {
          "indexed": false,
          "internalType": "bytes32",
          "name": "txHash",
          "type": "bytes32"
        },
        {
          "indexed": false,
          "internalType": "uint256",
          "name": "returnCode",
          "type": "uint256"
        }
      ],
      "name": "VerifyTransaction",
      "type": "event"
    },
    {
      "inputs": [
        {
          "internalType": "bytes",
          "name": "input",
          "type": "bytes"
        },
        {
          "internalType": "uint256",
          "name": "pos",
          "type": "uint256"
        }
      ],
      "name": "bytesToUint32Flipped",
      "outputs": [
        {
          "internalType": "uint32",
          "name": "result",
          "type": "uint32"
        }
      ],
      "stateMutability": "pure",
      "type": "function",
      "constant": true
    },
    {
      "inputs": [
        {
          "internalType": "uint256",
          "name": "_txHash",
          "type": "uint256"
        },
        {
          "internalType": "uint256",
          "name": "_txIndex",
          "type": "uint256"
        },
        {
          "internalType": "uint256[]",
          "name": "_siblings",
          "type": "uint256[]"
        }
      ],
      "name": "computeMerkle",
      "outputs": [
        {
          "internalType": "uint256",
          "name": "",
          "type": "uint256"
        }
      ],
      "stateMutability": "pure",
      "type": "function",
      "constant": true
    },
    {
      "inputs": [
        {
          "internalType": "uint256",
          "name": "_input",
          "type": "uint256"
        }
      ],
      "name": "flip32Bytes",
      "outputs": [
        {
          "internalType": "uint256",
          "name": "result",
          "type": "uint256"
        }
      ],
      "stateMutability": "pure",
      "type": "function",
      "constant": true
    },
    {
      "inputs": [
        {
          "internalType": "bytes",
          "name": "data",
          "type": "bytes"
        },
        {
          "internalType": "uint256",
          "name": "pos",
          "type": "uint256"
        },
        {
          "internalType": "uint256",
          "name": "bits",
          "type": "uint256"
        }
      ],
      "name": "getBytesLE",
      "outputs": [
        {
          "internalType": "uint256",
          "name": "result",
          "type": "uint256"
        }
      ],
      "stateMutability": "pure",
      "type": "function",
      "constant": true
    },
    {
      "inputs": [
        {
          "internalType": "bytes",
          "name": "txBytes",
          "type": "bytes"
        },
        {
          "internalType": "uint256",
          "name": "pos",
          "type": "uint256"
        }
      ],
      "name": "parseCompactSize",
      "outputs": [
        {
          "internalType": "uint256",
          "name": "",
          "type": "uint256"
        },
        {
          "internalType": "uint256",
          "name": "",
          "type": "uint256"
        }
      ],
      "stateMutability": "pure",
      "type": "function",
      "constant": true
    },
    {
      "inputs": [
        {
          "internalType": "bytes",
          "name": "txBytes",
          "type": "bytes"
        },
        {
          "internalType": "uint256",
          "name": "pos",
          "type": "uint256"
        },
        {
          "internalType": "uint256",
          "name": "max",
          "type": "uint256"
        }
      ],
      "name": "parseVarInt",
      "outputs": [
        {
          "internalType": "uint256",
          "name": "",
          "type": "uint256"
        },
        {
          "internalType": "uint256",
          "name": "",
          "type": "uint256"
        }
      ],
      "stateMutability": "pure",
      "type": "function",
      "constant": true
    },
    {
      "inputs": [],
      "name": "syscoinERC20Manager",
      "outputs": [
        {
          "internalType": "contract SyscoinTransactionProcessorI",
          "name": "",
          "type": "address"
        }
      ],
      "stateMutability": "view",
      "type": "function",
      "constant": true
    },
    {
      "inputs": [
        {
          "internalType": "address",
          "name": "_syscoinERC20Manager",
          "type": "address"
        }
      ],
      "name": "init",
      "outputs": [],
      "stateMutability": "nonpayable",
      "type": "function"
    },
    {
      "inputs": [
        {
          "internalType": "bytes",
          "name": "input",
          "type": "bytes"
        },
        {
          "internalType": "uint256",
          "name": "pos",
          "type": "uint256"
        }
      ],
      "name": "bytesToUint32",
      "outputs": [
        {
          "internalType": "uint32",
          "name": "result",
          "type": "uint32"
        }
      ],
      "stateMutability": "pure",
      "type": "function",
      "constant": true
    },
    {
      "inputs": [
        {
          "internalType": "bytes",
          "name": "txBytes",
          "type": "bytes"
        },
        {
          "internalType": "uint256",
          "name": "opIndex",
          "type": "uint256"
        },
        {
          "internalType": "uint256",
          "name": "pos",
          "type": "uint256"
        }
      ],
      "name": "scanBurnTx",
      "outputs": [
        {
          "internalType": "uint256",
          "name": "",
          "type": "uint256"
        },
        {
          "internalType": "address",
          "name": "",
          "type": "address"
        },
        {
          "internalType": "uint32",
          "name": "",
          "type": "uint32"
        }
      ],
      "stateMutability": "pure",
      "type": "function",
      "constant": true
    },
    {
      "inputs": [
        {
          "internalType": "bytes",
          "name": "txBytes",
          "type": "bytes"
        },
        {
          "internalType": "uint256",
          "name": "pos",
          "type": "uint256"
        }
      ],
      "name": "getOpReturnPos",
      "outputs": [
        {
          "internalType": "uint256",
          "name": "",
          "type": "uint256"
        },
        {
          "internalType": "uint256",
          "name": "",
          "type": "uint256"
        }
      ],
      "stateMutability": "pure",
      "type": "function",
      "constant": true
    },
    {
      "inputs": [
        {
          "internalType": "bytes",
          "name": "txBytes",
          "type": "bytes"
        }
      ],
      "name": "parseAssetTx",
      "outputs": [
        {
          "internalType": "uint256",
          "name": "errorCode",
          "type": "uint256"
        },
        {
          "internalType": "uint32",
          "name": "assetGuid",
          "type": "uint32"
        },
        {
          "internalType": "address",
          "name": "erc20Address",
          "type": "address"
        },
        {
          "internalType": "uint8",
          "name": "precision",
          "type": "uint8"
        }
      ],
      "stateMutability": "pure",
      "type": "function",
      "constant": true
    },
    {
      "inputs": [
        {
          "internalType": "bytes",
          "name": "txBytes",
          "type": "bytes"
        },
        {
          "internalType": "uint256",
          "name": "pos",
          "type": "uint256"
        }
      ],
      "name": "scanAssetTx",
      "outputs": [
        {
          "internalType": "uint32",
          "name": "",
          "type": "uint32"
        },
        {
          "internalType": "address",
          "name": "",
          "type": "address"
        },
        {
          "internalType": "uint8",
          "name": "",
          "type": "uint8"
        }
      ],
      "stateMutability": "pure",
      "type": "function",
      "constant": true
    },
    {
      "inputs": [
        {
          "internalType": "uint64",
          "name": "_blockNumber",
          "type": "uint64"
        },
        {
          "internalType": "bytes",
          "name": "_txBytes",
          "type": "bytes"
        },
        {
          "internalType": "uint256",
          "name": "_txIndex",
          "type": "uint256"
        },
        {
          "internalType": "uint256[]",
          "name": "_txSiblings",
          "type": "uint256[]"
        },
        {
          "internalType": "bytes",
          "name": "_syscoinBlockHeader",
          "type": "bytes"
        }
      ],
      "name": "relayTx",
      "outputs": [
        {
          "internalType": "uint256",
          "name": "",
          "type": "uint256"
        }
      ],
      "stateMutability": "nonpayable",
      "type": "function"
    },
    {
      "inputs": [
        {
          "internalType": "uint64",
          "name": "_blockNumber",
          "type": "uint64"
        },
        {
          "internalType": "bytes",
          "name": "_txBytes",
          "type": "bytes"
        },
        {
          "internalType": "uint256",
          "name": "_txIndex",
          "type": "uint256"
        },
        {
          "internalType": "uint256[]",
          "name": "_txSiblings",
          "type": "uint256[]"
        },
        {
          "internalType": "bytes",
          "name": "_syscoinBlockHeader",
          "type": "bytes"
        }
      ],
      "name": "relayAssetTx",
      "outputs": [
        {
          "internalType": "uint256",
          "name": "",
          "type": "uint256"
        }
      ],
      "stateMutability": "nonpayable",
      "type": "function"
    },
    {
      "inputs": [
        {
          "internalType": "bytes",
          "name": "txBytes",
          "type": "bytes"
        }
      ],
      "name": "parseBurnTx",
      "outputs": [
        {
          "internalType": "uint256",
          "name": "errorCode",
          "type": "uint256"
        },
        {
          "internalType": "uint256",
          "name": "output_value",
          "type": "uint256"
        },
        {
          "internalType": "address",
          "name": "destinationAddress",
          "type": "address"
        },
        {
          "internalType": "uint32",
          "name": "assetGuid",
          "type": "uint32"
        }
      ],
      "stateMutability": "pure",
      "type": "function",
      "constant": true
    },
    {
      "inputs": [
        {
          "internalType": "bytes",
          "name": "_dataBytes",
          "type": "bytes"
        }
      ],
      "name": "dblSha",
      "outputs": [
        {
          "internalType": "uint256",
          "name": "",
          "type": "uint256"
        }
      ],
      "stateMutability": "pure",
      "type": "function",
      "constant": true
    },
    {
      "inputs": [
        {
          "internalType": "bytes",
          "name": "_dataBytes",
          "type": "bytes"
        }
      ],
      "name": "dblShaFlip",
      "outputs": [
        {
          "internalType": "uint256",
          "name": "",
          "type": "uint256"
        }
      ],
      "stateMutability": "pure",
      "type": "function",
      "constant": true
    },
    {
      "inputs": [
        {
          "internalType": "bytes",
          "name": "_blockHeader",
          "type": "bytes"
        }
      ],
      "name": "getHeaderMerkleRoot",
      "outputs": [
        {
          "internalType": "uint256",
          "name": "",
          "type": "uint256"
        }
      ],
      "stateMutability": "pure",
      "type": "function",
      "constant": true
    }
  ],
  "bytecode": "0x608060405234801561001057600080fd5b506120d9806100206000396000f3fe608060405234801561001057600080fd5b50600436106101205760003560e01c806395663f05116100ad578063bc60df5311610071578063bc60df5314610312578063d0f9410b14610325578063d5c9712f14610338578063e8f421df1461034b578063fc96c3961461039357600080fd5b806395663f0514610268578063b18037fd14610290578063b6f6580a146102a3578063b79bbf46146102b6578063bb3bf22e146102c957600080fd5b80633f0f234b116100f45780633f0f234b1461019b578063543a86f6146101d75780635ec0aedd146101ea5780636823c56b1461021557806391c9375c1461022857600080fd5b8062f0e8d314610125578063029c5e2a1461014b5780630491cb1e1461017357806319ab453c14610186575b600080fd5b610138610133366004611c09565b6103a6565b6040519081526020015b60405180910390f35b61015e610159366004611b10565b6104c4565b60405163ffffffff9091168152602001610142565b610138610181366004611adc565b610500565b610199610194366004611a9a565b6105e2565b005b6101ae6101a9366004611b54565b61062e565b604080519384526001600160a01b03909216602084015263ffffffff1690820152606001610142565b6101386101e5366004611adc565b6108d6565b6000546101fd906001600160a01b031681565b6040516001600160a01b039091168152602001610142565b610138610223366004611adc565b6108e4565b61023b610236366004611b10565b6108fc565b6040805163ffffffff90941684526001600160a01b03909216602084015260ff1690820152606001610142565b61027b610276366004611b54565b610b8c565b60408051928352602083019190915201610142565b61027b61029e366004611b10565b610c41565b6101386102b1366004611ba1565b610d69565b61027b6102c4366004611b10565b610e93565b6102dc6102d7366004611adc565b611186565b6040805194855263ffffffff90931660208501526001600160a01b039091169183019190915260ff166060820152608001610142565b610138610320366004611c09565b61126c565b610138610333366004611bba565b611374565b610138610346366004611b54565b61154f565b61035e610359366004611adc565b6115ce565b604051610142949392919093845260208401929092526001600160a01b0316604083015263ffffffff16606082015260800190565b61015e6103a1366004611b10565b61162a565b6000806103b687848888886116f7565b9050806103c257600080fd5b6000806000806103d18a611186565b9296509094509250905083156104275760408051868152602081018690527f4e64138cc499eb1adf9edff9ef69bd45c56ac4bfd307540952e4c9d51eab55c1910160405180910390a183955050505050506104bb565b600054604051630d333f8560e11b81526004810187905263ffffffff851660248201526001600160401b038d1660448201526001600160a01b03848116606483015260ff8416608483015290911690631a667f0a9060a401600060405180830381600087803b15801561049957600080fd5b505af11580156104ad573d6000803e3d6000fd5b505050506000955050505050505b95945050505050565b6000816020840101516040518160031a60008201538160021a60018201538160011a60028201538160001a60038201535160e01c949350505050565b6000600280836040516020016105169190611cb4565b60408051601f198184030181529082905261053091611cb4565b602060405180830381855afa15801561054d573d6000803e3d6000fd5b5050506040513d601f19601f820116820180604052508101906105709190611ac3565b60405160200161058291815260200190565b60408051601f198184030181529082905261059c91611cb4565b602060405180830381855afa1580156105b9573d6000803e3d6000fd5b5050506040513d601f19601f820116820180604052508101906105dc9190611ac3565b92915050565b6000546001600160a01b031615801561060357506001600160a01b03811615155b61060c57600080fd5b600080546001600160a01b0319166001600160a01b0392909216919091179055565b6000808080808080808080600160401b6106488e8d610c41565b9c509250600183146106b75760405162461bcd60e51b815260206004820152602d60248201527f23537973636f696e52656c6179207363616e4275726e547828293a20496e766160448201526c6c6964206e756d41737365747360981b60648201526084015b60405180910390fd5b6106c28e8d83610b8c565b9c5097508796506106d38e8d610c41565b9c509250600a831061073e5760405162461bcd60e51b815260206004820152602e60248201527f23537973636f696e52656c6179207363616e4275726e547828293a20496e766160448201526d6c6964206e756d4f75747075747360901b60648201526084016106ae565b60005b83811015610794576107538f8e610c41565b9d5094508d8514156107735761076a8f8e84610b8c565b9d509250610782565b61077e8f8e84610b8c565b9d50505b8061078c81611f8e565b915050610741565b5061079f8e8d610c41565b9c5093506107ad848d611d73565b9b50600082116108255760405162461bcd60e51b815260206004820152603760248201527f23537973636f696e52656c6179207363616e4275726e547828293a204275726e60448201527f206f757470757420696e646578206e6f7420666f756e6400000000000000000060648201526084016106ae565b61082e82611789565b6001600160401b031694506108438e8d611860565b9c5060ff169250601483146108b95760405162461bcd60e51b815260206004820152603660248201527f23537973636f696e52656c6179207363616e4275726e547828293a20496e76616044820152756c69642064657374696e6174696f6e4164647265737360501b60648201526084016106ae565b8b8e0160140151949e949d50959b50929950505050505050505050565b60006105dc6102b183610500565b60448101516000906108f581610d69565b9392505050565b600080808080808080808080600160401b6109178e8e610c41565b9d509350600184146109825760405162461bcd60e51b815260206004820152602e60248201527f23537973636f696e52656c6179207363616e4173736574547828293a20496e7660448201526d616c6964206e756d41737365747360901b60648201526084016106ae565b61098d8e8e83610b8c565b9d50985088975061099e8e8e610c41565b9d509250600183146109af57600080fd5b6109b98e8e610c41565b9d506109c890508e8e83610b8c565b9d506109d690508e8e610c41565b9d5094506109e4858e611d73565b9c508d8d815181106109f8576109f861200f565b016020015160f81c9550610a0d60018e611d73565b9c508d8d81518110610a2157610a2161200f565b016020015160f81c9150610a3660018e611d73565b9c5060028216610ab95760405162461bcd60e51b815260206004820152604260248201527f7363616e4173736574547828293a2055706461746520666c616773206d61736b60448201527f20646964207365742041535345545f5550444154455f434f4e545241435420626064820152611a5d60f21b608482015260a4016106ae565b6080821615610aeb57610acc8e8e610c41565b9d509450610ada858e611d73565b9c50610ae78e8e83610b8c565b9d50505b610af58e8e610c41565b9d50945060148514610b6f5760405162461bcd60e51b815260206004820152603e60248201527f7363616e4173736574547828293a20496e76616c6964206e756d626572206f6660448201527f206279746573207265616420666f7220636f6e7472616374206669656c64000060648201526084016106ae565b8c8e0160140151979e979d50949b50959950505050505050505050565b60008060005b6000868681518110610ba657610ba661200f565b016020015160f81c9050600785901c821115610bd45760405162461bcd60e51b81526004016106ae90611cef565b610bdf600187611d73565b955060079190911b607f821617906080811615610c285784821415610c165760405162461bcd60e51b81526004016106ae90611cef565b81610c2081611f8e565b925050610c33565b509150839050610c39565b50610b92565b935093915050565b6000806000848481518110610c5857610c5861200f565b016020015160f81c9050610c6d600185611d73565b935060fd8160ff161015610c885760ff169150829050610d62565b8060ff1660fd1415610cb557610ca08585601061154f565b610cab856002611d73565b9250925050610d62565b8060ff1660fe1415610cd857610ccd8585602061154f565b610cab856004611d73565b8060ff1660ff1415610cfb57610cf08585604061154f565b610cab856008611d73565b60405162461bcd60e51b815260206004820152603660248201527f23537973636f696e4d6573736167654c696272617279207061727365436f6d7060448201527561637453697a6520696e76616c6964206f70636f646560501b60648201526084016106ae565b9250929050565b60405160009060ff8316815382601e1a600182015382601d1a600282015382601c1a600382015382601b1a600482015382601a1a60058201538260191a60068201538260181a60078201538260171a60088201538260161a60098201538260151a600a8201538260141a600b8201538260131a600c8201538260121a600d8201538260111a600e8201538260101a600f82015382600f1a601082015382600e1a601182015382600d1a601282015382600c1a601382015382600b1a601482015382600a1a60158201538260091a60168201538260081a60178201538260071a60188201538260061a60198201538260051a601a8201538260041a601b8201538260031a601c8201538260021a601d8201538260011a601e8201538260001a601f8201535192915050565b600080600080600080610ea68888610c41565b9750935083610f2557610eb98888610c41565b9750935083610f165760405162461bcd60e51b8152602060048201526035602482015260008051602061205c833981519152604482015274556e65787065637465642064756d6d792f666c616760581b60648201526084016106ae565b610f208888610c41565b975093505b60648410610f895760405162461bcd60e51b815260206004820152603a602482015260008051602061205c83398151915260448201527f496e636f72726563742073697a65206f66206e5f696e7075747300000000000060648201526084016106ae565b60005b84811015610fd857610f9f602489611d73565b9750610fab8989610c41565b98509350610fba846004611d73565b610fc49089611d73565b975080610fd081611f8e565b915050610f8c565b50610fe38888610c41565b97509050600a811061104b5760405162461bcd60e51b815260206004820152603b602482015260008051602061205c83398151915260448201527f496e636f72726563742073697a65206f66206e5f6f757470757473000000000060648201526084016106ae565b60005b8181101561113557611061600889611d73565b975061106d8989610c41565b9850935061107b89896118a0565b611094576110898489611d73565b975060009250611123565b61109f600189611d73565b975060008989815181106110b5576110b561200f565b01602001516001600160f81b0319169050601360fa1b8114156110e4576110dd60028a611d73565b9850611113565b6001600160f81b03198116604d60f81b1415611105576110dd60038a611d73565b61111060018a611d73565b98505b509550869450610d629350505050565b8061112d81611f8e565b91505061104e565b5060405162461bcd60e51b8152602060048201526031602482015260008051602061205c833981519152604482015270139bc813dc14995d1d5c9b88199bdd5b99607a1b60648201526084016106ae565b6000808080808061119787826104c4565b915063ffffffff82166082148015906111b7575063ffffffff8216608314155b156111d357612724600080600095509550955095505050611265565b6111de876004610e93565b91506111ec905087826108fc565b919650945092506001600160a01b03841661125e5760405162461bcd60e51b815260206004820152602c60248201527f70617273654173736574547828293a206572633230416464726573732063616e60448201526b6e6f7420626520656d70747960a01b60648201526084016106ae565b6000955050505b9193509193565b60008061127c87848888886116f7565b90508061128857600080fd5b6000806000806112978a6115ce565b9196509450909250905081156112ec5760408051868152602081018490527f4e64138cc499eb1adf9edff9ef69bd45c56ac4bfd307540952e4c9d51eab55c1910160405180910390a15093506104bb92505050565b600054604051630feda1e360e31b815260048101879052602481018690526001600160a01b03858116604483015263ffffffff8416606483015290911690637f6d0f1890608401600060405180830381600087803b15801561134d57600080fd5b505af1158015611361573d6000803e3d6000fd5b50959d9c50505050505050505050505050565b8051600090815b818110156113d4576113a58482815181106113985761139861200f565b6020026020010151610d69565b8482815181106113b7576113b761200f565b6020908102919091010152806113cc81611f8e565b91505061137b565b506000806113e187610d69565b90505b8282101561153b5760008583815181106114005761140061200f565b6020026020010151905060008060028961141a9190611fa9565b6001141561142c575081905082611432565b50829050815b6002808383604051602001611451929190918252602082015260400190565b60408051601f198184030181529082905261146b91611cb4565b602060405180830381855afa158015611488573d6000803e3d6000fd5b5050506040513d601f19601f820116820180604052508101906114ab9190611ac3565b6040516020016114bd91815260200190565b60408051601f19818403018152908290526114d791611cb4565b602060405180830381855afa1580156114f4573d6000803e3d6000fd5b5050506040513d601f19601f820116820180604052508101906115179190611ac3565b935061152460028a611dd5565b9850611531600186611d73565b94505050506113e4565b61154481610d69565b979650505050505050565b6000805b61155e600884611dd5565b8110156115c657611570816008611efa565b61157b906002611e52565b856115868387611d73565b815181106115965761159661200f565b01602001516115a8919060f81c611efa565b6115b29083611d73565b9150806115be81611f8e565b915050611553565b509392505050565b60008080808080806115e088826104c4565b925063ffffffff83166086146115fd576127249650505050611265565b611608886004610e93565b9250905061161788828461062e565b60009b929a509098509650945050505050565b600082828151811061163e5761163e61200f565b01602001516116549060f81c6301000000611f19565b83611660846001611d73565b815181106116705761167061200f565b01602001516116859060f81c62010000611f19565b84611691856002611d73565b815181106116a1576116a161200f565b01602001516116b59060f81c610100611f19565b856116c1866003611d73565b815181106116d1576116d161200f565b01602001516116e3919060f81c611d8b565b6116ed9190611d8b565b6108f59190611d8b565b60008451605014611734576040805160008152612710602082015260008051602061203c83398151915291015b60405180910390a15060006104bb565b61173d85610500565b6001600160401b0387164f1461177357604080516000815261271a602082015260008051602061203c8339815191529101611724565b61177f848484886118d5565b9695505050505050565b60006001600160401b0382166117a157506000919050565b816117ab81611f6b565b9250600090506117bc600a84611fbd565b90506117c9600a84611de9565b925060006009826001600160401b031610156118245760006117ec600986611fbd565b6117f7906001611db3565b9050611804600986611de9565b94508061181286600a611f45565b61181c9190611db3565b915050611832565b61182f846001611db3565b90505b6001600160401b038216156108f55761184c600a82611f45565b90508161185881611f6b565b925050611832565b6000808351831061187057600080fd5b8383815181106118825761188261200f565b016020015160f81c611895846001611d73565b915091509250929050565b8151600090603560f91b908490849081106118bd576118bd61200f565b01602001516001600160f81b03191614905092915050565b6000806118e1866108d6565b905085516040141561191f5760408051828152612738602082015260008051602061203c833981519152910160405180910390a16000915050611940565b61192b81868686611948565b6001141561193a579050611940565b60009150505b949350505050565b600080611954836108e4565b905080611962878787611374565b1461199a576040805187815261272e602082015260008051602061203c833981519152910160405180910390a161272e915050611940565b50600195945050505050565b600082601f8301126119b757600080fd5b813560206001600160401b038211156119d2576119d2612025565b8160051b6119e1828201611d43565b8381528281019086840183880185018910156119fc57600080fd5b600093505b85841015611a1f578035835260019390930192918401918401611a01565b50979650505050505050565b600082601f830112611a3c57600080fd5b81356001600160401b03811115611a5557611a55612025565b611a68601f8201601f1916602001611d43565b818152846020838601011115611a7d57600080fd5b816020850160208301376000918101602001919091529392505050565b600060208284031215611aac57600080fd5b81356001600160a01b03811681146108f557600080fd5b600060208284031215611ad557600080fd5b5051919050565b600060208284031215611aee57600080fd5b81356001600160401b03811115611b0457600080fd5b61194084828501611a2b565b60008060408385031215611b2357600080fd5b82356001600160401b03811115611b3957600080fd5b611b4585828601611a2b565b95602094909401359450505050565b600080600060608486031215611b6957600080fd5b83356001600160401b03811115611b7f57600080fd5b611b8b86828701611a2b565b9660208601359650604090950135949350505050565b600060208284031215611bb357600080fd5b5035919050565b600080600060608486031215611bcf57600080fd5b833592506020840135915060408401356001600160401b03811115611bf357600080fd5b611bff868287016119a6565b9150509250925092565b600080600080600060a08688031215611c2157600080fd5b85356001600160401b038082168214611c3957600080fd5b90955060208701359080821115611c4f57600080fd5b611c5b89838a01611a2b565b9550604088013594506060880135915080821115611c7857600080fd5b611c8489838a016119a6565b93506080880135915080821115611c9a57600080fd5b50611ca788828901611a2b565b9150509295509295909350565b6000825160005b81811015611cd55760208186018101518583015201611cbb565b81811115611ce4576000828501525b509190910192915050565b60208082526034908201527f23537973636f696e4d6573736167654c696272617279207061727365566172496040820152736e7428293a2073697a6520746f6f206c6172676560601b606082015260800190565b604051601f8201601f191681016001600160401b0381118282101715611d6b57611d6b612025565b604052919050565b60008219821115611d8657611d86611fe3565b500190565b600063ffffffff808316818516808303821115611daa57611daa611fe3565b01949350505050565b60006001600160401b03808316818516808303821115611daa57611daa611fe3565b600082611de457611de4611ff9565b500490565b60006001600160401b0380841680611e0357611e03611ff9565b92169190910492915050565b600181815b80851115611e4a578160001904821115611e3057611e30611fe3565b80851615611e3d57918102915b93841c9390800290611e14565b509250929050565b60006108f58383600082611e68575060016105dc565b81611e75575060006105dc565b8160018114611e8b5760028114611e9557611eb1565b60019150506105dc565b60ff841115611ea657611ea6611fe3565b50506001821b6105dc565b5060208310610133831016604e8410600b8410161715611ed4575081810a6105dc565b611ede8383611e0f565b8060001904821115611ef257611ef2611fe3565b029392505050565b6000816000190483118215151615611f1457611f14611fe3565b500290565b600063ffffffff80831681851681830481118215151615611f3c57611f3c611fe3565b02949350505050565b60006001600160401b0380831681851681830481118215151615611f3c57611f3c611fe3565b60006001600160401b03821680611f8457611f84611fe3565b6000190192915050565b6000600019821415611fa257611fa2611fe3565b5060010190565b600082611fb857611fb8611ff9565b500690565b60006001600160401b0380841680611fd757611fd7611ff9565b92169190910692915050565b634e487b7160e01b600052601160045260246000fd5b634e487b7160e01b600052601260045260246000fd5b634e487b7160e01b600052603260045260246000fd5b634e487b7160e01b600052604160045260246000fdfe65bd72698b9ffcfb3c7cb4c7414e13225cabd57fb690e183ae8c01c8ec268ebd23537973636f696e52656c6179206765744f7052657475726e506f7328293a20a264697066735822122033761d0b0fe4775db1e88861ba5e6c3d664e1347edbf8ccbfa22d951069be56864736f6c63782a302e382e372d646576656c6f702e323032312e372e372b636f6d6d69742e34363531346666612e6d6f64005b",
  "immutableReferences": {},
  "source": "// SPDX-License-Identifier: MIT\npragma solidity ^0.8.6;\n\nimport './interfaces/SyscoinRelayI.sol';\nimport \"./interfaces/SyscoinTransactionProcessorI.sol\";\nimport \"./SyscoinErrorCodes.sol\";\nimport \"./SyscoinParser/SyscoinMessageLibrary.sol\";\n\ncontract SyscoinRelay is SyscoinRelayI, SyscoinErrorCodes, SyscoinMessageLibrary {\n    uint32 constant SYSCOIN_TX_VERSION_ASSET_ACTIVATE = 130;\n    uint32 constant SYSCOIN_TX_VERSION_ASSET_UPDATE = 131;\n    uint32 constant SYSCOIN_TX_VERSION_ALLOCATION_BURN_TO_NEVM = 134;\n    bytes1 constant OP_PUSHDATA1 = 0x4c;\n    bytes1 constant OP_PUSHDATA2 = 0x4d;\n    uint32 constant ASSET_UPDATE_CONTRACT = 2;\n    uint32 constant ASSET_INIT = 128;\n    SyscoinTransactionProcessorI public syscoinERC20Manager;\n    event VerifyTransaction(bytes32 txHash, uint returnCode);\n    event RelayTransaction(bytes32 txHash, uint returnCode);\n\n    // @param _syscoinERC20Manager - address of the SyscoinERC20Manager contract to be associated with\n    function init(address _syscoinERC20Manager) public {\n        require(address(syscoinERC20Manager) == address(0) && _syscoinERC20Manager != address(0));\n        syscoinERC20Manager = SyscoinTransactionProcessorI(_syscoinERC20Manager);\n    }\n\n    // Returns true if the tx output is an OP_RETURN output\n    function isOpReturn(bytes memory txBytes, uint pos) internal pure returns (bool) {\n        // scriptPub format is\n        // 0x6a OP_RETURN\n        return txBytes[pos] == bytes1(0x6a);\n    }\n\n\n    function bytesToUint32(bytes memory input, uint pos) public pure returns (uint32 result) {\n        result = uint32(uint8(input[pos+3])) + uint32(uint8(input[pos + 2]))*(2**8) + uint32(uint8(input[pos + 1]))*(2**16) + uint32(uint8(input[pos]))*(2**24);\n    }\n\n    function DecompressAmount(uint64 x) internal pure returns (uint64) {\n        // x = 0  OR  x = 1+10*(9*n + d - 1) + e  OR  x = 1+10*(n - 1) + 9\n        if (x == 0)\n            return 0;\n        x--;\n        // x = 10*(9*n + d - 1) + e\n        uint64 e = x % 10;\n        x /= 10;\n        uint64 n = 0;\n        if (e < 9) {\n            // x = 9*n + d - 1\n            uint64 d = x % 9 + 1;\n            x /= 9;\n            // x = n\n            n = x*10 + d;\n        } else {\n            n = x+1;\n        }\n        while (e > 0) {\n            n *= 10;\n            e--;\n        }\n        return n;\n    }\n\n\n    // Returns asset data parsed from the op_return data output from syscoin asset burn transaction\n    function scanBurnTx(bytes memory txBytes, uint opIndex, uint pos)\n        public\n        pure\n        returns (uint, address, uint32)\n    {\n        uint assetGuid;\n        uint32 assetGuid32;\n        address destinationAddress;\n        uint output_value;\n        uint bytesToRead;\n        uint numOutputs;\n        uint output_value_compressed;\n        uint maxVal = 2**64;\n        (numOutputs, pos) = parseCompactSize(txBytes, pos);\n        require(numOutputs == 1, \"#SyscoinRelay scanBurnTx(): Invalid numAssets\");\n        // get nAsset\n        (assetGuid, pos) = parseVarInt(txBytes, pos, maxVal);\n        assetGuid32 = uint32(assetGuid);\n        (numOutputs, pos) = parseCompactSize(txBytes, pos);\n        require(numOutputs < 10, \"#SyscoinRelay scanBurnTx(): Invalid numOutputs\");\n        // find output that is connected to the burn output (opIndex)\n        for (uint i = 0; i < numOutputs; i++) {\n            // output index\n            (bytesToRead, pos) = parseCompactSize(txBytes, pos);\n             // get compressed amount\n            if(bytesToRead == opIndex) {\n                (output_value_compressed, pos) = parseVarInt(txBytes, pos, maxVal);\n            } else {\n                (, pos) = parseVarInt(txBytes, pos, maxVal);\n            }\n        }\n        // skip notary sig\n        (bytesToRead, pos) = parseCompactSize(txBytes, pos);\n        pos += bytesToRead;\n        require(output_value_compressed > 0, \"#SyscoinRelay scanBurnTx(): Burn output index not found\");\n        output_value = DecompressAmount(uint64(output_value_compressed));\n         // destination address\n        (numOutputs, pos) = getOpcode(txBytes, pos);\n        // ethereum contracts are 20 bytes (without the 0x)\n        require(numOutputs == 0x14, \"#SyscoinRelay scanBurnTx(): Invalid destinationAddress\");\n        destinationAddress = readEthereumAddress(txBytes, pos);\n        return (output_value, destinationAddress, assetGuid32);\n    }\n\n    // Read the ethereum address embedded in the tx output\n    function readEthereumAddress(bytes memory txBytes, uint pos) internal pure returns (address) {\n        uint256 data;\n        assembly {\n            data := mload(add(add(txBytes, 20), pos))\n        }\n        return address(uint160(data));\n    }\n\n    // Read next opcode from script\n    function getOpcode(bytes memory txBytes, uint pos) private pure returns (uint8, uint) {\n        require(pos < txBytes.length);\n        return (uint8(txBytes[pos]), pos + 1);\n    }\n\n    function getOpReturnPos(bytes memory txBytes, uint pos) public pure returns (uint, uint) {\n        uint n_inputs;\n        uint script_len;\n        uint output_value;\n        uint n_outputs;\n\n        (n_inputs, pos) = parseCompactSize(txBytes, pos);\n        // if dummy 0x00 is present this is a witness transaction\n        if(n_inputs == 0x00){\n            (n_inputs, pos) = parseCompactSize(txBytes, pos); // flag\n            require(n_inputs != 0x00, \"#SyscoinRelay getOpReturnPos(): Unexpected dummy/flag\");\n            // after dummy/flag the real var int comes for txins\n            (n_inputs, pos) = parseCompactSize(txBytes, pos);\n        }\n        require(n_inputs < 100, \"#SyscoinRelay getOpReturnPos(): Incorrect size of n_inputs\");\n\n        for (uint i = 0; i < n_inputs; i++) {\n            pos += 36;  // skip outpoint\n            (script_len, pos) = parseCompactSize(txBytes, pos);\n            pos += script_len + 4;  // skip sig_script, seq\n        }\n        \n        (n_outputs, pos) = parseCompactSize(txBytes, pos);\n        require(n_outputs < 10, \"#SyscoinRelay getOpReturnPos(): Incorrect size of n_outputs\");\n        for (uint i = 0; i < n_outputs; i++) {\n            pos += 8;\n            // varint\n            (script_len, pos) = parseCompactSize(txBytes, pos);\n            if(!isOpReturn(txBytes, pos)){\n                // output script\n                pos += script_len;\n                output_value = 0;\n                continue;\n            }\n            // skip opreturn marker\n            pos += 1;\n            bytes1 pushDataOp = txBytes[pos];\n            // if payload >= OP_PUSHDATA1 && <= 0xff bytes skip 2 bytes (push data + 1 byte varint)\n            if (pushDataOp == OP_PUSHDATA1){\n                pos += 2;\n            }\n            // if payload > 0xff && <= 0xffff then skip 3 bytes (push data + 2 byte varint)\n            else if (pushDataOp == OP_PUSHDATA2){\n                pos += 3;\n            } else {\n                pos += 1; // skip 1 byte varint\n            }\n            return (i, pos);\n        }\n        revert(\"#SyscoinRelay getOpReturnPos(): No OpReturn found\");\n    }\n\n\n     /** @dev Parse syscoin asset transaction to recover asset guid and contract, for purposes of updating asset registry in erc20manager\n     * @param txBytes syscoin raw transaction\n     */\n    function parseAssetTx(bytes memory txBytes)\n        public\n        pure\n        returns (uint errorCode, uint32 assetGuid, address erc20Address, uint8 precision)\n    {\n        uint32 version;\n        uint pos = 0;\n        version = bytesToUint32Flipped(txBytes, pos);\n        if(version != SYSCOIN_TX_VERSION_ASSET_ACTIVATE && version != SYSCOIN_TX_VERSION_ASSET_UPDATE){\n            return (ERR_PARSE_TX_SYS, 0, address(0), 0);\n        }\n        (, pos) = getOpReturnPos(txBytes, 4);\n        (assetGuid, erc20Address, precision) = scanAssetTx(txBytes, pos);\n        require(erc20Address != address(0),\n        \"parseAssetTx(): erc20Address cannot be empty\");\n        return (0, assetGuid, erc20Address, precision);\n    }\n\n\n     /**\n     * Parse txBytes and returns assetGuid + contract address\n     * @param txBytes syscoin raw transaction\n     * @param pos position at where to start parsing\n     * @return asset guid (uint32), erc20 address and precision linked to the asset guid to update registry in erc20manager\n     */\n    function scanAssetTx(bytes memory txBytes, uint pos)\n        public\n        pure\n        returns (uint32, address, uint8)\n    {\n        uint assetGuid;\n        uint32 assetGuid32;\n        address erc20Address;\n        uint8 precision;\n        uint bytesToRead;\n        uint numAssets;\n        uint numOutputs;\n        uint8 nUpdateFlags;\n        uint maxVal = 2**64;\n        \n        (numAssets, pos) = parseCompactSize(txBytes, pos);\n        require(numAssets == 1, \"#SyscoinRelay scanAssetTx(): Invalid numAssets\");\n        // get nAsset\n        (assetGuid, pos) = parseVarInt(txBytes, pos, maxVal);\n        assetGuid32 = uint32(assetGuid);\n        (numOutputs, pos) = parseCompactSize(txBytes, pos);\n        require(numOutputs == 1);\n        \n        // skip over output index\n        (, pos) = parseCompactSize(txBytes, pos);\n        // skip over compressed amount\n        (, pos) = parseVarInt(txBytes, pos, maxVal);\n        // skip notary sig\n        (bytesToRead, pos) = parseCompactSize(txBytes, pos);\n        pos += bytesToRead;\n        // nPrecision\n        precision = uint8(txBytes[pos]);\n        pos += 1;\n        // update flags\n        nUpdateFlags = uint8(txBytes[pos]);\n        pos += 1;\n        require((nUpdateFlags & ASSET_UPDATE_CONTRACT) > 0, \"scanAssetTx(): Update flags mask did set ASSET_UPDATE_CONTRACT bit\");\n        if((nUpdateFlags & ASSET_INIT) > 0) {\n            // skip symbol\n            (bytesToRead, pos) = parseCompactSize(txBytes, pos);\n            pos += bytesToRead;\n            // skip over max supply\n            (, pos) = parseVarInt(txBytes, pos, maxVal);\n        }\n        // get vchContract\n        (bytesToRead, pos) = parseCompactSize(txBytes, pos);\n        require(bytesToRead == 0x14,\n        \"scanAssetTx(): Invalid number of bytes read for contract field\");\n        erc20Address = readEthereumAddress(txBytes, pos);\n        return (assetGuid32, erc20Address, precision);\n    }\n\n\n    // @dev - Verify TX SPV to Block proof\n    // @param _blockNumber - NEVM block number which is associated with a Syscoin Block with burned SPT (_txBytes)\n    // @param _txBytes - transaction bytes\n    // @param _txIndex - transaction's index within the block\n    // @param _txSiblings - transaction's Merkle siblings\n    // @param _syscoinBlockHeader - block header containing transaction\n    function verifySPVProofs(\n        uint64 _blockNumber,\n        bytes memory _syscoinBlockHeader,\n        bytes memory _txBytes,\n        uint _txIndex,\n        uint[] memory _txSiblings\n    ) private returns (uint) {\n        if (_syscoinBlockHeader.length != 80) {  \n            emit VerifyTransaction(0, ERR_INVALID_HEADER);\n            return 0;\n        }\n        // ensure the NEVM block number can lookup a valid syscoin block hash\n        if (uint(sysblockhash(_blockNumber)) != dblSha(_syscoinBlockHeader)) {\n            emit VerifyTransaction(0, ERR_INVALID_HEADER_HASH);\n            return 0;\n        }\n        // then ensure that the SPV proof against this validated syscoin block header is also valid\n        return verifyTx(_txBytes, _txIndex, _txSiblings, _syscoinBlockHeader);\n    }\n\n    // @dev - relays transaction `_txBytes` to ERC20Manager's processTransaction() method.\n    // Also logs the value of processTransaction.\n    // Note: callers cannot be 100% certain when an error occurs because\n    // it may also have been returned by processTransaction(). Callers should be\n    // aware of the contract that they are relaying transactions to and\n    // understand what that contract's processTransaction method returns.\n    //\n    // @param _blockNumber - NEVM block number which is associated with a Syscoin Block with burned SPT (_txBytes)\n    // @param _txBytes - transaction bytes\n    // @param _txIndex - transaction's index within the block\n    // @param _txSiblings - transaction's Merkle siblings\n    // @param _syscoinBlockHeader - block header containing transaction\n    function relayTx(\n        uint64 _blockNumber,\n        bytes memory _txBytes,\n        uint _txIndex,\n        uint[] memory _txSiblings,\n        bytes memory _syscoinBlockHeader\n    ) public override returns (uint) {\n        uint txHash = verifySPVProofs(_blockNumber, _syscoinBlockHeader, _txBytes, _txIndex, _txSiblings);\n        require(txHash != 0);\n        uint value;\n        address destinationAddress;\n        uint ret;\n        uint32 assetGuid;\n        (ret, value, destinationAddress, assetGuid) = parseBurnTx(_txBytes);\n        if(ret != 0){\n            emit RelayTransaction(bytes32(txHash), ret);\n            return ret;\n        }\n        syscoinERC20Manager.processTransaction(txHash, value, destinationAddress, assetGuid);\n        return value;\n    }\n\n    // @dev - relays asset transaction(new or update) `_txBytes` to ERC20Manager's processAsset() method.\n    // Also logs the value of processAsset.\n    // Note: callers cannot be 100% certain when an error occurs because\n    // it may also have been returned by processAsset(). Callers should be\n    // aware of the contract that they are relaying transactions to and\n    // understand what that contract's processTransaction method returns.\n    //\n    // @param _blockNumber - NEVM block number which is associated with a Syscoin Block with burned SPT (_txBytes)\n    // @param _txBytes - transaction bytes\n    // @param _txIndex - transaction's index within the block\n    // @param _txSiblings - transaction's Merkle siblings\n    // @param _syscoinBlockHeader - block header containing transaction\n    function relayAssetTx(\n        uint64 _blockNumber,\n        bytes memory _txBytes,\n        uint _txIndex,\n        uint[] memory _txSiblings,\n        bytes memory _syscoinBlockHeader\n    ) public override returns (uint) {\n        uint txHash = verifySPVProofs(_blockNumber, _syscoinBlockHeader, _txBytes, _txIndex, _txSiblings);\n        require(txHash != 0);\n        uint ret;\n        uint32 assetGuid;\n        address erc20ContractAddress;\n        uint8 precision;\n        (ret, assetGuid, erc20ContractAddress, precision) = parseAssetTx(_txBytes);\n        if(ret != 0){\n            emit RelayTransaction(bytes32(txHash), ret);\n            return ret;\n        }\n        syscoinERC20Manager.processAsset(txHash, assetGuid, _blockNumber, erc20ContractAddress, precision);\n        return 0;\n       \n    }\n\n    // @dev - Parses a syscoin tx\n    //\n    // @param txBytes - tx byte array\n    // Outputs\n    // @return output_value - amount sent to the lock address in satoshis\n    // @return destinationAddress - ethereum destination address\n    function parseBurnTx(bytes memory txBytes)\n        public\n        pure\n        returns (uint errorCode, uint output_value, address destinationAddress, uint32 assetGuid)\n    {\n        uint32 version;\n        uint pos = 0;\n        uint opIndex = 0;\n        version = bytesToUint32Flipped(txBytes, pos);\n        if(version != SYSCOIN_TX_VERSION_ALLOCATION_BURN_TO_NEVM){\n            return (ERR_PARSE_TX_SYS, output_value, destinationAddress, assetGuid);\n        }\n        (opIndex, pos) = getOpReturnPos(txBytes, 4);\n        (output_value, destinationAddress, assetGuid) = scanBurnTx(txBytes, opIndex, pos);\n        return (0, output_value, destinationAddress, assetGuid);\n    }\n\n    // @dev - Checks whether the transaction given by `_txBytes` is in the block identified by `_txBlockHeaderBytes`.\n    // First it guards against a Merkle tree collision attack by raising an error if the transaction is exactly 64 bytes long,\n    // then it calls helperVerifyHash to do the actual check.\n    //\n    // @param _txBytes - transaction bytes\n    // @param _txIndex - transaction's index within the block\n    // @param _siblings - transaction's Merkle siblings\n    // @param _txBlockHeaderBytes - block header containing transaction\n    // @return - SHA-256 hash of _txBytes if the transaction is in the block, 0 otherwise\n    function verifyTx(\n        bytes memory _txBytes,\n        uint _txIndex,\n        uint[] memory _siblings,\n        bytes memory _txBlockHeaderBytes\n    ) private returns (uint) {\n        uint txHash = dblShaFlip(_txBytes);\n\n        if (_txBytes.length == 64) {  // todo: is check 32 also needed?\n            emit VerifyTransaction(bytes32(txHash), ERR_TX_64BYTE);\n            return 0;\n        }\n\n        if (helperVerifyHash(txHash, _txIndex, _siblings, _txBlockHeaderBytes) == 1) {\n            return txHash;\n        } else {\n            // log is done via helperVerifyHash\n            return 0;\n        }\n    }\n    function dblSha(bytes memory _dataBytes) public pure returns (uint) {\n        return uint(sha256(abi.encodePacked(sha256(abi.encodePacked(_dataBytes)))));\n    }\n\n    // @dev - Bitcoin-way of hashing\n    // @param _dataBytes - raw data to be hashed\n    // @return - result of applying SHA-256 twice to raw data and then flipping the bytes\n    function dblShaFlip(bytes memory _dataBytes) public pure returns (uint) {\n        return flip32Bytes(dblSha(_dataBytes));\n    }\n\n    // @dev - extract Merkle root field from a raw Syscoin block header\n    //\n    // @param _blockHeader - Syscoin block header bytes\n    // @param pos - where to start reading root from\n    // @return - block's Merkle root in big endian format\n    function getHeaderMerkleRoot(bytes memory _blockHeader) public pure returns (uint) {\n        uint merkle;\n        assembly {\n            merkle := mload(add(add(_blockHeader, 32), 0x24))\n        }\n        return flip32Bytes(merkle);\n    }\n\n    // @dev - Checks whether the transaction identified by `_txHash` is in the block identified by `_blockHeaderBytes`\n    // and whether the block is in the Syscoin main chain. Transaction check is done via Merkle proof.\n    // Note: no verification is performed to prevent txHash from just being an\n    // internal hash in the Merkle tree. Thus this helper method should NOT be used\n    // directly and is intended to be private.\n    //\n    // @param _txHash - transaction hash\n    // @param _txIndex - transaction's index within the block\n    // @param _siblings - transaction's Merkle siblings\n    // @param _blockHeaderBytes - block header containing transaction\n    // @return - 1 if the transaction is in the block and the block is in the main chain,\n    // 20050 (ERR_MERKLE_ROOT) if the Merkle proof fails.\n    function helperVerifyHash(\n        uint256 _txHash,\n        uint _txIndex,\n        uint[] memory _siblings,\n        bytes memory _blockHeaderBytes\n    ) private returns (uint) {\n\n        // Verify tx Merkle root\n        uint merkle = getHeaderMerkleRoot(_blockHeaderBytes);\n        if (computeMerkle(_txHash, _txIndex, _siblings) != merkle) {\n            emit VerifyTransaction(bytes32(_txHash), ERR_MERKLE_ROOT);\n            return (ERR_MERKLE_ROOT);\n        }\n        return (1);\n    }\n}\n",
  "sourcePath": "/Users/jagsidhu/work/Documents/GitHub/sysethereum-contracts/contracts/SyscoinRelay.sol",
  "compiler": {
    "name": "solc",
    "version": "0.8.7-develop.2021.7.7+commit.46514ffa.mod.Darwin.appleclang"
  },
  "schemaVersion": "3.4.3",
  "updatedAt": "2021-09-13T14:52:05.991Z",
  "networkType": "ethereum",
  "devdoc": {
    "kind": "dev",
    "methods": {
      "parseAssetTx(bytes)": {
        "details": "Parse syscoin asset transaction to recover asset guid and contract, for purposes of updating asset registry in erc20manager",
        "params": {
          "txBytes": "syscoin raw transaction"
        }
      },
      "scanAssetTx(bytes,uint256)": {
        "params": {
          "pos": "position at where to start parsing",
          "txBytes": "syscoin raw transaction"
        },
        "returns": {
          "_0": "asset guid (uint32), erc20 address and precision linked to the asset guid to update registry in erc20manager"
        }
      }
    },
    "version": 1
  },
  "userdoc": {
    "kind": "user",
    "methods": {
      "scanAssetTx(bytes,uint256)": {
        "notice": "Parse txBytes and returns assetGuid + contract address"
      }
    },
    "version": 1
  }
}