{
  "contractName": "SyscoinSuperblocks",
  "abi": [
    {
      "anonymous": false,
      "inputs": [
        {
          "indexed": false,
          "internalType": "bytes32",
          "name": "superblockHash",
          "type": "bytes32"
        },
        {
          "indexed": false,
          "internalType": "address",
          "name": "who",
          "type": "address"
        }
      ],
      "name": "ApprovedSuperblock",
      "type": "event"
    },
    {
      "anonymous": false,
      "inputs": [
        {
          "indexed": false,
          "internalType": "bytes32",
          "name": "superblockHash",
          "type": "bytes32"
        },
        {
          "indexed": false,
          "internalType": "address",
          "name": "who",
          "type": "address"
        }
      ],
      "name": "ChallengeSuperblock",
      "type": "event"
    },
    {
      "anonymous": false,
      "inputs": [
        {
          "indexed": false,
          "internalType": "bytes32",
          "name": "superblockHash",
          "type": "bytes32"
        },
        {
          "indexed": false,
          "internalType": "uint256",
          "name": "err",
          "type": "uint256"
        }
      ],
      "name": "ErrorSuperblock",
      "type": "event"
    },
    {
      "anonymous": false,
      "inputs": [
        {
          "indexed": false,
          "internalType": "bytes32",
          "name": "superblockHash",
          "type": "bytes32"
        },
        {
          "indexed": false,
          "internalType": "address",
          "name": "who",
          "type": "address"
        }
      ],
      "name": "InvalidSuperblock",
      "type": "event"
    },
    {
      "anonymous": false,
      "inputs": [
        {
          "indexed": false,
          "internalType": "bytes32",
          "name": "superblockHash",
          "type": "bytes32"
        },
        {
          "indexed": false,
          "internalType": "address",
          "name": "who",
          "type": "address"
        }
      ],
      "name": "NewSuperblock",
      "type": "event"
    },
    {
      "anonymous": false,
      "inputs": [
        {
          "indexed": false,
          "internalType": "bytes32",
          "name": "txHash",
          "type": "bytes32"
        },
        {
          "indexed": false,
          "internalType": "uint256",
          "name": "returnCode",
          "type": "uint256"
        }
      ],
      "name": "RelayTransaction",
      "type": "event"
    },
    {
      "anonymous": false,
      "inputs": [
        {
          "indexed": false,
          "internalType": "bytes32",
          "name": "superblockHash",
          "type": "bytes32"
        },
        {
          "indexed": false,
          "internalType": "address",
          "name": "who",
          "type": "address"
        }
      ],
      "name": "SemiApprovedSuperblock",
      "type": "event"
    },
    {
      "anonymous": false,
      "inputs": [
        {
          "indexed": false,
          "internalType": "bytes32",
          "name": "txHash",
          "type": "bytes32"
        },
        {
          "indexed": false,
          "internalType": "uint256",
          "name": "returnCode",
          "type": "uint256"
        }
      ],
      "name": "VerifyTransaction",
      "type": "event"
    },
    {
      "constant": true,
      "inputs": [],
      "name": "minProposalDeposit",
      "outputs": [
        {
          "internalType": "uint256",
          "name": "",
          "type": "uint256"
        }
      ],
      "payable": false,
      "stateMutability": "view",
      "type": "function"
    },
    {
      "constant": true,
      "inputs": [],
      "name": "syscoinERC20Manager",
      "outputs": [
        {
          "internalType": "contract SyscoinTransactionProcessor",
          "name": "",
          "type": "address"
        }
      ],
      "payable": false,
      "stateMutability": "view",
      "type": "function"
    },
    {
      "constant": true,
      "inputs": [],
      "name": "trustedClaimManager",
      "outputs": [
        {
          "internalType": "address",
          "name": "",
          "type": "address"
        }
      ],
      "payable": false,
      "stateMutability": "view",
      "type": "function"
    },
    {
      "constant": false,
      "inputs": [
        {
          "internalType": "address",
          "name": "_syscoinERC20Manager",
          "type": "address"
        },
        {
          "internalType": "address",
          "name": "_claimManager",
          "type": "address"
        }
      ],
      "name": "init",
      "outputs": [],
      "payable": false,
      "stateMutability": "nonpayable",
      "type": "function"
    },
    {
      "constant": true,
      "inputs": [
        {
          "internalType": "bytes",
          "name": "_blockHeader",
          "type": "bytes"
        }
      ],
      "name": "getHeaderMerkleRoot",
      "outputs": [
        {
          "internalType": "uint256",
          "name": "",
          "type": "uint256"
        }
      ],
      "payable": false,
      "stateMutability": "pure",
      "type": "function"
    },
    {
      "constant": false,
      "inputs": [
        {
          "internalType": "bytes32",
          "name": "_blocksMerkleRoot",
          "type": "bytes32"
        },
        {
          "internalType": "uint256",
          "name": "_timestamp",
          "type": "uint256"
        },
        {
          "internalType": "uint256",
          "name": "_mtpTimestamp",
          "type": "uint256"
        },
        {
          "internalType": "bytes32",
          "name": "_lastHash",
          "type": "bytes32"
        },
        {
          "internalType": "uint32",
          "name": "_lastBits",
          "type": "uint32"
        },
        {
          "internalType": "bytes32",
          "name": "_parentId",
          "type": "bytes32"
        }
      ],
      "name": "initialize",
      "outputs": [
        {
          "internalType": "uint256",
          "name": "",
          "type": "uint256"
        },
        {
          "internalType": "bytes32",
          "name": "",
          "type": "bytes32"
        }
      ],
      "payable": false,
      "stateMutability": "nonpayable",
      "type": "function"
    },
    {
      "constant": false,
      "inputs": [
        {
          "internalType": "bytes32",
          "name": "_blocksMerkleRoot",
          "type": "bytes32"
        },
        {
          "internalType": "uint256",
          "name": "_timestamp",
          "type": "uint256"
        },
        {
          "internalType": "uint256",
          "name": "_mtpTimestamp",
          "type": "uint256"
        },
        {
          "internalType": "bytes32",
          "name": "_lastHash",
          "type": "bytes32"
        },
        {
          "internalType": "uint32",
          "name": "_lastBits",
          "type": "uint32"
        },
        {
          "internalType": "bytes32",
          "name": "_parentId",
          "type": "bytes32"
        },
        {
          "internalType": "address",
          "name": "submitter",
          "type": "address"
        }
      ],
      "name": "propose",
      "outputs": [
        {
          "internalType": "uint256",
          "name": "",
          "type": "uint256"
        },
        {
          "internalType": "bytes32",
          "name": "",
          "type": "bytes32"
        }
      ],
      "payable": false,
      "stateMutability": "nonpayable",
      "type": "function"
    },
    {
      "constant": false,
      "inputs": [
        {
          "internalType": "bytes32",
          "name": "_superblockHash",
          "type": "bytes32"
        },
        {
          "internalType": "address",
          "name": "_validator",
          "type": "address"
        }
      ],
      "name": "confirm",
      "outputs": [
        {
          "internalType": "uint256",
          "name": "",
          "type": "uint256"
        }
      ],
      "payable": false,
      "stateMutability": "nonpayable",
      "type": "function"
    },
    {
      "constant": false,
      "inputs": [
        {
          "internalType": "bytes32",
          "name": "_superblockHash",
          "type": "bytes32"
        },
        {
          "internalType": "address",
          "name": "_challenger",
          "type": "address"
        }
      ],
      "name": "challenge",
      "outputs": [
        {
          "internalType": "uint256",
          "name": "",
          "type": "uint256"
        }
      ],
      "payable": false,
      "stateMutability": "nonpayable",
      "type": "function"
    },
    {
      "constant": false,
      "inputs": [
        {
          "internalType": "bytes32",
          "name": "_superblockHash",
          "type": "bytes32"
        },
        {
          "internalType": "address",
          "name": "_validator",
          "type": "address"
        }
      ],
      "name": "semiApprove",
      "outputs": [
        {
          "internalType": "uint256",
          "name": "",
          "type": "uint256"
        }
      ],
      "payable": false,
      "stateMutability": "nonpayable",
      "type": "function"
    },
    {
      "constant": false,
      "inputs": [
        {
          "internalType": "bytes32",
          "name": "_superblockHash",
          "type": "bytes32"
        },
        {
          "internalType": "address",
          "name": "_validator",
          "type": "address"
        }
      ],
      "name": "invalidate",
      "outputs": [
        {
          "internalType": "uint256",
          "name": "",
          "type": "uint256"
        }
      ],
      "payable": false,
      "stateMutability": "nonpayable",
      "type": "function"
    },
    {
      "constant": false,
      "inputs": [
        {
          "internalType": "bytes",
          "name": "_txBytes",
          "type": "bytes"
        },
        {
          "internalType": "uint256",
          "name": "_txIndex",
          "type": "uint256"
        },
        {
          "internalType": "uint256[]",
          "name": "_txSiblings",
          "type": "uint256[]"
        },
        {
          "internalType": "bytes",
          "name": "_syscoinBlockHeader",
          "type": "bytes"
        },
        {
          "internalType": "uint256",
          "name": "_syscoinBlockIndex",
          "type": "uint256"
        },
        {
          "internalType": "uint256[]",
          "name": "_syscoinBlockSiblings",
          "type": "uint256[]"
        },
        {
          "internalType": "bytes32",
          "name": "_superblockHash",
          "type": "bytes32"
        }
      ],
      "name": "relayTx",
      "outputs": [
        {
          "internalType": "uint256",
          "name": "",
          "type": "uint256"
        }
      ],
      "payable": false,
      "stateMutability": "nonpayable",
      "type": "function"
    },
    {
      "constant": true,
      "inputs": [
        {
          "internalType": "bytes32",
          "name": "_blocksMerkleRoot",
          "type": "bytes32"
        },
        {
          "internalType": "uint256",
          "name": "_timestamp",
          "type": "uint256"
        },
        {
          "internalType": "uint256",
          "name": "_mtpTimestamp",
          "type": "uint256"
        },
        {
          "internalType": "bytes32",
          "name": "_lastHash",
          "type": "bytes32"
        },
        {
          "internalType": "uint32",
          "name": "_lastBits",
          "type": "uint32"
        },
        {
          "internalType": "bytes32",
          "name": "_parentId",
          "type": "bytes32"
        }
      ],
      "name": "calcSuperblockHash",
      "outputs": [
        {
          "internalType": "bytes32",
          "name": "",
          "type": "bytes32"
        }
      ],
      "payable": false,
      "stateMutability": "pure",
      "type": "function"
    },
    {
      "constant": true,
      "inputs": [],
      "name": "getBestSuperblock",
      "outputs": [
        {
          "internalType": "bytes32",
          "name": "",
          "type": "bytes32"
        }
      ],
      "payable": false,
      "stateMutability": "view",
      "type": "function"
    },
    {
      "constant": true,
      "inputs": [
        {
          "internalType": "bytes32",
          "name": "superblockHash",
          "type": "bytes32"
        }
      ],
      "name": "getSuperblock",
      "outputs": [
        {
          "internalType": "bytes32",
          "name": "_blocksMerkleRoot",
          "type": "bytes32"
        },
        {
          "internalType": "uint256",
          "name": "_timestamp",
          "type": "uint256"
        },
        {
          "internalType": "uint256",
          "name": "_mtpTimestamp",
          "type": "uint256"
        },
        {
          "internalType": "bytes32",
          "name": "_lastHash",
          "type": "bytes32"
        },
        {
          "internalType": "uint32",
          "name": "_lastBits",
          "type": "uint32"
        },
        {
          "internalType": "bytes32",
          "name": "_parentId",
          "type": "bytes32"
        },
        {
          "internalType": "address",
          "name": "_submitter",
          "type": "address"
        },
        {
          "internalType": "enum SyscoinSuperblocksI.Status",
          "name": "_status",
          "type": "uint8"
        },
        {
          "internalType": "uint32",
          "name": "_height",
          "type": "uint32"
        }
      ],
      "payable": false,
      "stateMutability": "view",
      "type": "function"
    },
    {
      "constant": true,
      "inputs": [
        {
          "internalType": "bytes32",
          "name": "superblockHash",
          "type": "bytes32"
        }
      ],
      "name": "getSuperblockHeight",
      "outputs": [
        {
          "internalType": "uint32",
          "name": "",
          "type": "uint32"
        }
      ],
      "payable": false,
      "stateMutability": "view",
      "type": "function"
    },
    {
      "constant": true,
      "inputs": [
        {
          "internalType": "bytes32",
          "name": "_superblockHash",
          "type": "bytes32"
        }
      ],
      "name": "getSuperblockTimestamp",
      "outputs": [
        {
          "internalType": "uint256",
          "name": "",
          "type": "uint256"
        }
      ],
      "payable": false,
      "stateMutability": "view",
      "type": "function"
    },
    {
      "constant": true,
      "inputs": [
        {
          "internalType": "bytes32",
          "name": "_superblockHash",
          "type": "bytes32"
        }
      ],
      "name": "getSuperblockMedianTimestamp",
      "outputs": [
        {
          "internalType": "uint256",
          "name": "",
          "type": "uint256"
        }
      ],
      "payable": false,
      "stateMutability": "view",
      "type": "function"
    },
    {
      "constant": true,
      "inputs": [
        {
          "internalType": "bytes32",
          "name": "_superblockHash",
          "type": "bytes32"
        }
      ],
      "name": "getSuperblockParentId",
      "outputs": [
        {
          "internalType": "bytes32",
          "name": "",
          "type": "bytes32"
        }
      ],
      "payable": false,
      "stateMutability": "view",
      "type": "function"
    },
    {
      "constant": true,
      "inputs": [
        {
          "internalType": "bytes32",
          "name": "_superblockHash",
          "type": "bytes32"
        }
      ],
      "name": "getSuperblockStatus",
      "outputs": [
        {
          "internalType": "enum SyscoinSuperblocksI.Status",
          "name": "",
          "type": "uint8"
        }
      ],
      "payable": false,
      "stateMutability": "view",
      "type": "function"
    },
    {
      "constant": true,
      "inputs": [],
      "name": "getChainHeight",
      "outputs": [
        {
          "internalType": "uint256",
          "name": "",
          "type": "uint256"
        }
      ],
      "payable": false,
      "stateMutability": "view",
      "type": "function"
    },
    {
      "constant": true,
      "inputs": [
        {
          "internalType": "uint256",
          "name": "_height",
          "type": "uint256"
        }
      ],
      "name": "getSuperblockAt",
      "outputs": [
        {
          "internalType": "bytes32",
          "name": "",
          "type": "bytes32"
        }
      ],
      "payable": false,
      "stateMutability": "view",
      "type": "function"
    }
  ],
  "bytecode": "0x608060405234801561001057600080fd5b506123c4806100206000396000f3fe608060405234801561001057600080fd5b50600436106101425760003560e01c806374205786116100b8578063c0dde98b1161007c578063c0dde98b146106d0578063c1f67ab3146106ed578063cae0581e14610719578063ed8609761461075a578063f06d520d1461079b578063f09a4016146107a357610142565b806374205786146105b1578063828fa8b4146105dd57806395b45ee71461061e5780639e20c8031461064a578063a76a9b0f146106b357610142565b8063455e61661161010a578063455e61661461043b57806355e018ce146104435780635b572812146104605780635ec0aedd146104685780636823c56b146104705780636e5b70711461051457610142565b8063155ee89414610147578063244430381461016b57806327426f75146103bc5780632da8cffd146103e85780632e40019114610405575b600080fd5b61014f6107d3565b604080516001600160a01b039092168252519081900360200190f35b6103aa600480360360e081101561018157600080fd5b810190602081018135600160201b81111561019b57600080fd5b8201836020820111156101ad57600080fd5b803590602001918460018302840111600160201b831117156101ce57600080fd5b91908080601f01602080910402602001604051908101604052809392919081815260200183838082843760009201919091525092958435959094909350604081019250602001359050600160201b81111561022857600080fd5b82018360208201111561023a57600080fd5b803590602001918460208302840111600160201b8311171561025b57600080fd5b9190808060200260200160405190810160405280939291908181526020018383602002808284376000920191909152509295949360208101935035915050600160201b8111156102aa57600080fd5b8201836020820111156102bc57600080fd5b803590602001918460018302840111600160201b831117156102dd57600080fd5b91908080601f01602080910402602001604051908101604052809392919081815260200183838082843760009201919091525092958435959094909350604081019250602001359050600160201b81111561033757600080fd5b82018360208201111561034957600080fd5b803590602001918460208302840111600160201b8311171561036a57600080fd5b91908080602002602001604051908101604052809392919081815260200183836020028082843760009201919091525092955050913592506107e2915050565b60408051918252519081900360200190f35b6103aa600480360360408110156103d257600080fd5b50803590602001356001600160a01b03166109dc565b6103aa600480360360208110156103fe57600080fd5b5035610b14565b6104226004803603602081101561041b57600080fd5b5035610b29565b6040805163ffffffff9092168252519081900360200190f35b6103aa610b4b565b6103aa6004803603602081101561045957600080fd5b5035610b57565b6103aa610b6c565b61014f610b91565b6103aa6004803603602081101561048657600080fd5b810190602081018135600160201b8111156104a057600080fd5b8201836020820111156104b257600080fd5b803590602001918460018302840111600160201b831117156104d357600080fd5b91908080601f016020809104026020016040519081016040528093929190818152602001838380828437600092019190915250929550610ba0945050505050565b6105316004803603602081101561052a57600080fd5b5035610bb8565b604051808a81526020018981526020018881526020018781526020018663ffffffff1663ffffffff168152602001858152602001846001600160a01b03166001600160a01b0316815260200183600581111561058957fe5b60ff16815263ffffffff90921660208301525060408051918290030198509650505050505050f35b6103aa600480360360408110156105c757600080fd5b50803590602001356001600160a01b0316610c1d565b6103aa600480360360c08110156105f357600080fd5b5080359060208101359060408101359060608101359063ffffffff6080820135169060a00135610d53565b6103aa6004803603604081101561063457600080fd5b50803590602001356001600160a01b0316610dab565b61069a600480360360e081101561066057600080fd5b50803590602081013590604081013590606081013590608081013563ffffffff169060a08101359060c001356001600160a01b0316610fa5565b6040805192835260208301919091528051918290030190f35b6103aa600480360360208110156106c957600080fd5b5035611241565b6103aa600480360360208110156106e657600080fd5b5035611256565b6103aa6004803603604081101561070357600080fd5b50803590602001356001600160a01b031661128a565b6107366004803603602081101561072f57600080fd5b503561140d565b6040518082600581111561074657fe5b60ff16815260200191505060405180910390f35b61069a600480360360c081101561077057600080fd5b5080359060208101359060408101359060608101359063ffffffff6080820135169060a0013561142c565b6103aa611585565b6107d1600480360360408110156107b957600080fd5b506001600160a01b038135811691602001351661158b565b005b6036546001600160a01b031681565b6000818152603360205260408120546108046107fd876116b6565b868661184f565b1461084f576040805160008152614e48602082015281517f4e64138cc499eb1adf9edff9ef69bd45c56ac4bfd307540952e4c9d51eab55c1929181900390910190a150614e486109d1565b600061085e8989898987611a5e565b9050801561098d576000806000806000806108788f611ae7565b939a509198509296509194509250905083156108d857604080518881526020810186905281517f4e64138cc499eb1adf9edff9ef69bd45c56ac4bfd307540952e4c9d51eab55c1929181900390910190a1839750505050505050506109d1565b60355460008a8152603360205260408082206005015481516315eade2b60e31b8152600481018c9052602481018b90526001600160a01b038a811660448301529182166064820152868216608482015263ffffffff881660a482015260ff861660c4820152915193169263af56f1589260e48084019391929182900301818387803b15801561096657600080fd5b505af115801561097a573d6000803e3d6000fd5b50505050859750505050505050506109d1565b604080516000815261753a602082015281517f4e64138cc499eb1adf9edff9ef69bd45c56ac4bfd307540952e4c9d51eab55c1929181900390910190a161753a9150505b979650505050505050565b6036546000906001600160a01b03163314610a24576040805184815261c39660208201528151600080516020612342833981519152929181900390910190a15061c396610b0e565b60008381526033602052604090206002600582810154600160e01b900460ff1690811115610a4e57fe5b14158015610a7657506001600582810154600160e01b900460ff1690811115610a7357fe5b14155b15610ab0576040805185815261c36460208201528151600080516020612342833981519152929181900390910190a161c364915050610b0e565b60058101805460ff60e01b1916600360e01b179055604080518581526001600160a01b038516602082015281517f87f54f5eb3dd119fe71af0915af693e64a5bfd4acaa19a6c944c47cff8eec9e6929181900390910190a160009150505b92915050565b60009081526033602052604090206001015490565b600090815260336020526040902060050154600160c01b900463ffffffff1690565b6729a2241af62c000081565b60009081526033602052604090206004015490565b603454600090815260336020526040902060050154600160c01b900463ffffffff1690565b6035546001600160a01b031681565b6044810151600090610bb181611b7e565b9392505050565b600090815260336020526040902080546001820154600283015460038401546005850154600490950154939592949193909263ffffffff600160a01b84048116936001600160a01b0381169260ff600160e01b83041692600160c01b90920490911690565b6036546000906001600160a01b03163314610c65576040805184815261c39660208201528151600080516020612342833981519152929181900390910190a15061c396610b0e565b60008381526033602052604090206002600582810154600160e01b900460ff1690811115610c8f57fe5b14158015610cb757506003600582810154600160e01b900460ff1690811115610cb457fe5b14155b15610cf1576040805185815261c36460208201528151600080516020612342833981519152929181900390910190a161c364915050610b0e565b60058101805460ff60e01b1916600560e01b179055604080518581526001600160a01b038516602082015281517f64297372062dfcb21d6f7385f68d4656e993be2bb674099e3de73128d4911a91929181900390910190a15060009392505050565b60408051602080820198909852808201969096526060860194909452608085019290925260e01b6001600160e01b03191660a084015260a4808401919091528151808403909101815260c49092019052805191012090565b6036546000906001600160a01b03163314610df3576040805184815261c39660208201528151600080516020612342833981519152929181900390910190a15061c396610b0e565b60008381526033602052604090206001600582810154600160e01b900460ff1690811115610e1d57fe5b14158015610e4557506003600582810154600160e01b900460ff1690811115610e4257fe5b14155b15610e7f576040805185815261c36460208201528151600080516020612342833981519152929181900390910190a161c364915050610b0e565b610e87610b6c565b6005820154600160c01b900463ffffffff1611610ed3576040805185815261c3fa60208201528151600080516020612342833981519152929181900390910190a161c3fa915050610b0e565b600480820154600090815260336020526040902090600582810154600160e01b900460ff1690811115610f0257fe5b14610f3d576040805186815261c37860208201528151600080516020612342833981519152929181900390910190a161c37892505050610b0e565b60058201805460ff60e01b1916600160e21b1790556034859055604080518681526001600160a01b038616602082015281517ff2dbbf0abb1ab1870a5e4d02746747c91d167c855255440b573ba3b5529dc901929181900390910190a1506000949350505050565b60365460009081906001600160a01b03163314610ff457604080516000815261c39660208201528151600080516020612342833981519152929181900390910190a15061c39690506000611235565b60008481526033602052604090206003600582810154600160e01b900460ff169081111561101e57fe5b1415801561104657506004600582810154600160e01b900460ff169081111561104357fe5b14155b156110bf576000805160206123428339815191528582600501601c9054906101000a900460ff16600581111561107857fe5b6040805192835261c3789190910160208301528051918290030190a1600581810154600160e01b900460ff16908111156110ae57fe5b61c378019250600091506112359050565b6110c7610b6c565b6005820154600160c01b900463ffffffff161015611118576040805186815261c3fa60208201528151600080516020612342833981519152929181900390910190a15061c3fa915060009050611235565b60006111288b8b8b8b8b8b610d53565b6000818152603360205260408120919250600582810154600160e01b900460ff169081111561115357fe5b14156111c4578b815560018082018c9055600282018b9055600382018a905560048201889055600580850154908301805463ffffffff8c8116600160a01b0263ffffffff60a01b19600160c01b95869004831690960190911690930263ffffffff60c01b1990911617929092161790555b60058101805460ff60e01b1916600160e01b176001600160a01b0319166001600160a01b03881690811790915560408051848152602081019290925280517f64951c9008bba9f4663c12662e7a9b6412a7c4757869fdac09285564ae923fa19281900390910190a150600093509150505b97509795505050505050565b60009081526033602052604090206002015490565b6034546000905b8261126782610b29565b63ffffffff161115610b0e5760009081526033602052604090206004015461125d565b6036546000906001600160a01b031633146112d2576040805184815261c39660208201528151600080516020612342833981519152929181900390910190a15061c396610b0e565b60008381526033602052604090206001600582810154600160e01b900460ff16908111156112fc57fe5b1415801561132457506002600582810154600160e01b900460ff169081111561132157fe5b14155b1561135e576040805185815261c36460208201528151600080516020612342833981519152929181900390910190a161c364915050610b0e565b60058101546001600160a01b03848116911614156113ab576040805185815261c38760208201528151600080516020612342833981519152929181900390910190a161c387915050610b0e565b60058101805460ff60e01b1916600160e11b179055604080518581526001600160a01b038516602082015281517f09cdaca254aa177f759fe7a0968fe696ee9baf7d2a1d4714ed24b83d1f09518e929181900390910190a15060009392505050565b600090815260336020526040902060050154600160e01b900460ff1690565b60345460009081901561143e57600080fd5b821561144957600080fd5b6000611459898989898989610d53565b6000818152603360205260408120919250600582810154600160e01b900460ff169081111561148457fe5b1461148e57600080fd5b89815560018101899055600281018890556003810187905560048101859055600581018054600160c01b336001600160a01b0319909216821763ffffffff60c01b19161763ffffffff60a01b1916600160a01b63ffffffff8a16021760ff60e01b1916600160e21b1790915560408051848152602081019290925280517f64951c9008bba9f4663c12662e7a9b6412a7c4757869fdac09285564ae923fa19281900390910190a160348290556040805183815233602082015281517ff2dbbf0abb1ab1870a5e4d02746747c91d167c855255440b573ba3b5529dc901929181900390910190a1506000999098509650505050505050565b60345490565b600054610100900460ff16806115a457506115a4611ca8565b806115b2575060005460ff16155b6115ed5760405162461bcd60e51b815260040180806020018281038252602e815260200180612362602e913960400191505060405180910390fd5b600054610100900460ff16158015611618576000805460ff1961ff0019909116610100171660011790555b6035546001600160a01b031615801561163957506001600160a01b03831615155b61164257600080fd5b603580546001600160a01b0319166001600160a01b03858116919091179091556036541615801561167b57506001600160a01b03821615155b61168457600080fd5b603680546001600160a01b0319166001600160a01b03841617905580156116b1576000805461ff00191690555b505050565b6000610b0e600280846040516020018082805190602001908083835b602083106116f15780518252601f1990920191602091820191016116d2565b6001836020036101000a0380198251168184511680821785525050505050509050019150506040516020818303038152906040526040518082805190602001908083835b602083106117545780518252601f199092019160209182019101611735565b51815160209384036101000a60001901801990921691161790526040519190930194509192505080830381855afa158015611793573d6000803e3d6000fd5b5050506040513d60208110156117a857600080fd5b50516040805160208181019390935281518082038401815290820191829052805190928291908401908083835b602083106117f45780518252601f1990920191602091820191016117d5565b51815160209384036101000a60001901801990921691161790526040519190930194509192505080830381855afa158015611833573d6000803e3d6000fd5b5050506040513d602081101561184857600080fd5b5051611b7e565b8051600090815b818110156118995761187a84828151811061186d57fe5b6020026020010151611b7e565b84828151811061188657fe5b6020908102919091010152600101611856565b506000806118a687611b7e565b90505b82821015611a555760008583815181106118bf57fe5b60200260200101519050600080600289816118d657fe5b06600114156118e95750819050826118ef565b50829050815b600280838360405160200180838152602001828152602001925050506040516020818303038152906040526040518082805190602001908083835b602083106119495780518252601f19909201916020918201910161192a565b51815160209384036101000a60001901801990921691161790526040519190930194509192505080830381855afa158015611988573d6000803e3d6000fd5b5050506040513d602081101561199d57600080fd5b50516040805160208181019390935281518082038401815290820191829052805190928291908401908083835b602083106119e95780518252601f1990920191602091820191016119ca565b51815160209384036101000a60001901801990921691161790526040519190930194509192505080830381855afa158015611a28573d6000803e3d6000fd5b5050506040513d6020811015611a3d57600080fd5b505193506002890498506001850194505050506118a9565b6109d181611b7e565b600080611a6a876116b6565b9050865160401415611abc5760408051828152614e5c602082015281517f65bd72698b9ffcfb3c7cb4c7414e13225cabd57fb690e183ae8c01c8ec268ebd929181900390910190a16000915050611ade565b611ac98187878787611cae565b60011415611ad8579050611ade565b60009150505b95945050505050565b6000808080808080808080808080611aff8e82611d74565b935063ffffffff841661740714611b2c57506127ba9b50949950919750919550919350909150611b759050565b611b378e6004611db0565b9050611b438e82611e32565b809750819650829a50839950849b505050505050600087868885878595509c509c509c509c509c509c50505050505050505b91939550919395565b60405160009060ff8316815382601e1a600182015382601d1a600282015382601c1a600382015382601b1a600482015382601a1a60058201538260191a60068201538260181a60078201538260171a60088201538260161a60098201538260151a600a8201538260141a600b8201538260131a600c8201538260121a600d8201538260111a600e8201538260101a600f82015382600f1a601082015382600e1a601182015382600d1a601282015382600c1a601382015382600b1a601482015382600a1a60158201538260091a60168201538260081a60178201538260071a60188201538260061a60198201538260051a601a8201538260041a601b8201538260031a601c8201538260021a601d8201538260011a601e8201538260001a601f8201535192915050565b303b1590565b6000611cb982611ed6565b611d025760408051878152614e3e602082015281517f65bd72698b9ffcfb3c7cb4c7414e13225cabd57fb690e183ae8c01c8ec268ebd929181900390910190a150614e3e611ade565b6000611d0d84610ba0565b905080611d1b88888861184f565b14611d675760408051888152614e52602082015281517f65bd72698b9ffcfb3c7cb4c7414e13225cabd57fb690e183ae8c01c8ec268ebd929181900390910190a1614e52915050611ade565b5060019695505050505050565b6000816020840101516040518160031a60008201538160021a60018201538160011a60028201538160001a60038201535160e01c949350505050565b6000806000611dbf8585611ef5565b9450915081611def57611dd28585611ef5565b9450915081611de057600080fd5b611dea8585611ef5565b945091505b60648210611dfc57600080fd5b60005b82811015611e2857602485019450611e178686611ef5565b810160040195509150600101611dff565b5092949350505050565b60008080808080808080808080611e498e8e611ef5565b9d509050600a8110611e5a57600080fd5b60005b81811015611ebf5760088e019d50611e758f8f611ef5565b9e509750611e838f8f611fa8565b611e94579c87019c60009650611eb7565b60018e019d50611ea48f8f611fd7565b939a509098509096509094509250611ebf565b600101611e5d565b50949d929c50929a50919850909650945050505050565b60006004611ee38361140d565b6005811115611eee57fe5b1492915050565b6000806000848481518110611f0657fe5b01602001516001949094019360f81c905060fd811015611f2d5760ff169150829050611fa1565b8060ff1660fd1415611f5357611f4585856010612102565b846002019250925050611fa1565b8060ff1660fe1415611f7957611f6b85856020612102565b846004019250925050611fa1565b8060ff1660ff1415611f9f57611f9185856040612102565b846008019250925050611fa1565b505b9250929050565b8151600090603560f91b90849084908110611fbf57fe5b01602001516001600160f81b03191614905092915050565b6000806000806000806000806000806000611ff28d8d612144565b9c509050600460ff82161461200657600080fd5b6120108d8d612176565b95508060ff168c019b506120248d8d612144565b9c509050600860ff82161461203857600080fd5b6120428d8d612205565b67ffffffffffffffff1692508060ff168c019b506120608d8d612144565b9c509050601460ff82161461207457600080fd5b61207e8d8d612339565b94508060ff168c019b506120928d8d612144565b9c509050600160ff8216146120a657600080fd5b8c8c815181106120b257fe5b016020015160ff82169c909c019b60f81c91506120cf8d8d612144565b9c509050601460ff8216146120e357600080fd5b6120ed8d8d612339565b929d949c50949a509850965090945050505050565b6000805b6008830481101561213c578060080260020a858286018151811061212657fe5b016020015160f81c029190910190600101612106565b509392505050565b6000808351831061215457600080fd5b83838151811061216057fe5b016020015160f81c915050600182019250929050565b600082828151811061218457fe5b602001015160f81c60f81b60f81c60ff166301000000028383600101815181106121aa57fe5b602001015160f81c60f81b60f81c60ff1662010000028484600201815181106121cf57fe5b602001015160f81c60f81b60f81c60ff16610100028585600301815181106121f357fe5b016020015160f81c0101019392505050565b600082828151811061221357fe5b602001015160f81c60f81b60f81c60ff166701000000000000000283836001018151811061223d57fe5b602001015160f81c60f81b60f81c60ff1666010000000000000284846002018151811061226657fe5b602001015160f81c60f81b60f81c60ff16650100000000000285856003018151811061228e57fe5b602001015160f81c60f81b60f81c60ff16600160201b028686600401815181106122b457fe5b602001015160f81c60f81b60f81c60ff166301000000028787600501815181106122da57fe5b602001015160f81c60f81b60f81c60ff1662010000028888600601815181106122ff57fe5b602001015160f81c60f81b60f81c60ff166101000289896007018151811061232357fe5b016020015160f81c010101010101019392505050565b01601401519056fea57c1ba4cf2c89b3558cfeeca4339e04551f0fc1a12cf63f1923c2eed8a5be8b436f6e747261637420696e7374616e63652068617320616c7265616479206265656e20696e697469616c697a6564a265627a7a723158208138991d42ad13b49e2235c526cea45e805e118317b8eb7a522ef8d15865ae7264736f6c634300050d0032",
  "source": "pragma solidity ^0.5.13;\n\nimport './interfaces/SyscoinSuperblocksI.sol';\nimport \"./SyscoinErrorCodes.sol\";\nimport \"./SyscoinTransactionProcessor.sol\";\nimport \"@openzeppelin/upgrades/contracts/Initializable.sol\";\n\n// @dev - Manages superblocks\n//\n// Management of superblocks and status transitions\ncontract SyscoinSuperblocks is Initializable, SyscoinSuperblocksI, SyscoinErrorCodes {\n\n    uint constant ERR_PARSE_TX_SYS = 10170;\n    enum Network { MAINNET, TESTNET, REGTEST }\n    uint32 constant SYSCOIN_TX_VERSION_ASSET_ALLOCATION_BURN = 0x7407;\n\n    // Mapping superblock id => superblock data\n    mapping (bytes32 => SuperblockInfo) private superblocks;\n\n    bytes32 private bestSuperblock;\n\n    SyscoinTransactionProcessor public syscoinERC20Manager;\n\n    event NewSuperblock(bytes32 superblockHash, address who);\n    event ApprovedSuperblock(bytes32 superblockHash, address who);\n    event ChallengeSuperblock(bytes32 superblockHash, address who);\n    event SemiApprovedSuperblock(bytes32 superblockHash, address who);\n    event InvalidSuperblock(bytes32 superblockHash, address who);\n\n    event ErrorSuperblock(bytes32 superblockHash, uint err);\n\n    event VerifyTransaction(bytes32 txHash, uint returnCode);\n    event RelayTransaction(bytes32 txHash, uint returnCode);\n\n    // SyscoinClaimManager\n    address public trustedClaimManager;\n\n    modifier onlyClaimManager() {\n        require(msg.sender == trustedClaimManager);\n        _;\n    }\n\n    // @param _syscoinERC20Manager - address of the SyscoinERC20Manager contract to be associated with\n    // @param _claimManager - address of the ClaimManager contract to be associated with\n    function init(address _syscoinERC20Manager, address _claimManager) public initializer {\n        require(address(syscoinERC20Manager) == address(0) && _syscoinERC20Manager != address(0));\n        syscoinERC20Manager = SyscoinTransactionProcessor(_syscoinERC20Manager);\n\n        require(address(trustedClaimManager) == address(0) && _claimManager != address(0));\n        trustedClaimManager = _claimManager;\n    }\n\n    // Convert a variable integer into something useful and return it and\n    // the index to after it.\n    function parseVarInt(bytes memory txBytes, uint pos) private pure returns (uint, uint) {\n        // the first byte tells us how big the integer is\n        uint8 ibit = uint8(txBytes[pos]);\n        pos += 1;  // skip ibit\n\n        if (ibit < 0xfd) {\n            return (ibit, pos);\n        } else if (ibit == 0xfd) {\n            return (getBytesLE(txBytes, pos, 16), pos + 2);\n        } else if (ibit == 0xfe) {\n            return (getBytesLE(txBytes, pos, 32), pos + 4);\n        } else if (ibit == 0xff) {\n            return (getBytesLE(txBytes, pos, 64), pos + 8);\n        }\n    }\n    // convert little endian bytes to uint\n    function getBytesLE(bytes memory data, uint pos, uint bits) private pure returns (uint256 result) {\n        for (uint256 i = 0; i < bits / 8; i++) {\n            result += uint256(uint8(data[pos + i])) * 2 ** (i * 8);\n        }\n    }\n\n\n    // @dev - Parses a syscoin tx\n    //\n    // @param txBytes - tx byte array\n    // Outputs\n    // @return output_value - amount sent to the lock address in satoshis\n    // @return destinationAddress - ethereum destination address\n\n\n    function parseTransaction(bytes memory txBytes) private pure\n             returns (uint, uint, address, uint32, uint8, address)\n    {\n\n        uint output_value;\n        uint32 assetGUID;\n        address destinationAddress;\n        uint32 version;\n        address erc20Address;\n        uint8 precision;\n        uint pos = 0;\n        version = bytesToUint32Flipped(txBytes, pos);\n        if(version != SYSCOIN_TX_VERSION_ASSET_ALLOCATION_BURN){\n            return (ERR_PARSE_TX_SYS, output_value, destinationAddress, assetGUID, precision, erc20Address);\n        }\n        pos = skipInputs(txBytes, 4);\n\n        (output_value, destinationAddress, assetGUID, precision, erc20Address) = scanBurns(txBytes, pos);\n        return (0, output_value, destinationAddress, assetGUID, precision, erc20Address);\n    }\n\n\n    function skipInputs(bytes memory txBytes, uint pos) private pure\n             returns (uint)\n    {\n        uint n_inputs;\n        uint script_len;\n        (n_inputs, pos) = parseVarInt(txBytes, pos);\n        // if dummy 0x00 is present this is a witness transaction\n        if(n_inputs == 0x00){\n            (n_inputs, pos) = parseVarInt(txBytes, pos); // flag\n            require(n_inputs != 0x00);\n            // after dummy/flag the real var int comes for txins\n            (n_inputs, pos) = parseVarInt(txBytes, pos);\n        }\n        require(n_inputs < 100);\n\n        for (uint i = 0; i < n_inputs; i++) {\n            pos += 36;  // skip outpoint\n            (script_len, pos) = parseVarInt(txBytes, pos);\n            pos += script_len + 4;  // skip sig_script, seq\n        }\n\n        return pos;\n    }\n    // scan the burn outputs and return the value and script data of first burned output.\n    function scanBurns(bytes memory txBytes, uint pos) private pure\n             returns (uint, address, uint32, uint8, address)\n    {\n        uint script_len;\n        uint output_value;\n        uint32 assetGUID = 0;\n        address destinationAddress;\n        address erc20Address;\n        uint8 precision;\n        uint n_outputs;\n        (n_outputs, pos) = parseVarInt(txBytes, pos);\n        require(n_outputs < 10);\n        for (uint i = 0; i < n_outputs; i++) {\n            pos += 8;\n            // varint\n            (script_len, pos) = parseVarInt(txBytes, pos);\n            if(!isOpReturn(txBytes, pos)){\n                // output script\n                pos += script_len;\n                output_value = 0;\n                continue;\n            }\n            // skip opreturn marker\n            pos += 1;\n            (output_value, destinationAddress, assetGUID, precision, erc20Address) = scanAssetDetails(txBytes, pos);\n            // only one opreturn data allowed per transaction\n            break;\n        }\n\n        return (output_value, destinationAddress, assetGUID, precision, erc20Address);\n    }\n\n\n    // Returns true if the tx output is an OP_RETURN output\n    function isOpReturn(bytes memory txBytes, uint pos) private pure\n             returns (bool) {\n        // scriptPub format is\n        // 0x6a OP_RETURN\n        return\n            txBytes[pos] == byte(0x6a);\n    }\n    // Returns asset data parsed from the op_return data output from syscoin asset burn transaction\n    function scanAssetDetails(bytes memory txBytes, uint pos) private pure\n             returns (uint, address, uint32, uint8, address) {\n\n        uint32 assetGUID;\n        address destinationAddress;\n        address erc20Address;\n        uint output_value;\n        uint8 precision;\n        uint8 op;\n        // vchAsset\n        (op, pos) = getOpcode(txBytes, pos);\n        // guid length should be 4 bytes\n        require(op == 0x04);\n        assetGUID = bytesToUint32(txBytes, pos);\n        pos += op;\n        // amount\n        (op, pos) = getOpcode(txBytes, pos);\n        require(op == 0x08);\n        output_value = bytesToUint64(txBytes, pos);\n        pos += op;\n         // destination address\n        (op, pos) = getOpcode(txBytes, pos);\n        // ethereum contracts are 20 bytes (without the 0x)\n        require(op == 0x14);\n        destinationAddress = readEthereumAddress(txBytes, pos);\n        pos += op;\n        // precision\n        (op, pos) = getOpcode(txBytes, pos);\n        require(op == 0x01);\n        precision = uint8(txBytes[pos]);\n        pos += op;\n        // erc20Address\n        (op, pos) = getOpcode(txBytes, pos);\n        require(op == 0x14);\n        erc20Address = readEthereumAddress(txBytes, pos);\n        return (output_value, destinationAddress, assetGUID, precision, erc20Address);\n    }\n    // Read the ethereum address embedded in the tx output\n    function readEthereumAddress(bytes memory txBytes, uint pos) private pure\n             returns (address) {\n        uint256 data;\n        assembly {\n            data := mload(add(add(txBytes, 20), pos))\n        }\n        return address(uint160(data));\n    }\n\n    // Read next opcode from script\n    function getOpcode(bytes memory txBytes, uint pos) private pure\n             returns (uint8, uint)\n    {\n        require(pos < txBytes.length);\n        return (uint8(txBytes[pos]), pos + 1);\n    }\n\n\n\n    // @dev - Converts a bytes of size 4 to uint32,\n    // e.g. for input [0x01, 0x02, 0x03 0x04] returns 0x01020304\n    function bytesToUint32Flipped(bytes memory input, uint pos) private pure returns (uint32 result) {\n        assembly {\n            let data := mload(add(add(input, 0x20), pos))\n            let flip := mload(0x40)\n            mstore8(add(flip, 0), byte(3, data))\n            mstore8(add(flip, 1), byte(2, data))\n            mstore8(add(flip, 2), byte(1, data))\n            mstore8(add(flip, 3), byte(0, data))\n            result := shr(mul(8, 28), mload(flip))\n        }\n    }\n    // @dev - Bitcoin-way of hashing\n    // @param _dataBytes - raw data to be hashed\n    // @return - result of applying SHA-256 twice to raw data and then flipping the bytes\n    function dblShaFlip(bytes memory _dataBytes) private pure returns (uint) {\n        return flip32Bytes(uint(sha256(abi.encodePacked(sha256(abi.encodePacked(_dataBytes))))));\n    }\n    function sha256mem(bytes memory _rawBytes, uint offset, uint len) private view returns (bytes32 result) {\n        assembly {\n            // Call sha256 precompiled contract (located in address 0x02) to copy data.\n            // Assign to ptr the next available memory position (stored in memory position 0x40).\n            let ptr := mload(0x40)\n            if iszero(staticcall(gas, 0x02, add(add(_rawBytes, 0x20), offset), len, ptr, 0x20)) {\n                revert(0, 0)\n            }\n            result := mload(ptr)\n        }\n    }\n    // @dev - Bitcoin-way of hashing\n    // @param _dataBytes - raw data to be hashed\n    // @return - result of applying SHA-256 twice to raw data and then flipping the bytes\n    function dblShaFlipMem(bytes memory _rawBytes, uint offset, uint len) private view returns (uint) {\n        return flip32Bytes(uint(sha256(abi.encodePacked(sha256mem(_rawBytes, offset, len)))));\n    }\n    function bytesToUint64(bytes memory input, uint pos) private pure returns (uint64 result) {\n        result = uint64(uint8(input[pos+7])) + uint64(uint8(input[pos + 6]))*(2**8) + uint64(uint8(input[pos + 5]))*(2**16) + uint64(uint8(input[pos + 4]))*(2**24) + uint64(uint8(input[pos + 3]))*(2**32) + uint64(uint8(input[pos + 2]))*(2**40) + uint64(uint8(input[pos + 1]))*(2**48) + uint64(uint8(input[pos]))*(2**56);\n    }\n     function bytesToUint32(bytes memory input, uint pos) private pure returns (uint32 result) {\n        result = uint32(uint8(input[pos+3])) + uint32(uint8(input[pos + 2]))*(2**8) + uint32(uint8(input[pos + 1]))*(2**16) + uint32(uint8(input[pos]))*(2**24);\n    }\n    // @dev - convert an unsigned integer from little-endian to big-endian representation\n    //\n    // @param _input - little-endian value\n    // @return - input value in big-endian format\n    function flip32Bytes(uint _input) private pure returns (uint result) {\n        assembly {\n            let pos := mload(0x40)\n            mstore8(add(pos, 0), byte(31, _input))\n            mstore8(add(pos, 1), byte(30, _input))\n            mstore8(add(pos, 2), byte(29, _input))\n            mstore8(add(pos, 3), byte(28, _input))\n            mstore8(add(pos, 4), byte(27, _input))\n            mstore8(add(pos, 5), byte(26, _input))\n            mstore8(add(pos, 6), byte(25, _input))\n            mstore8(add(pos, 7), byte(24, _input))\n            mstore8(add(pos, 8), byte(23, _input))\n            mstore8(add(pos, 9), byte(22, _input))\n            mstore8(add(pos, 10), byte(21, _input))\n            mstore8(add(pos, 11), byte(20, _input))\n            mstore8(add(pos, 12), byte(19, _input))\n            mstore8(add(pos, 13), byte(18, _input))\n            mstore8(add(pos, 14), byte(17, _input))\n            mstore8(add(pos, 15), byte(16, _input))\n            mstore8(add(pos, 16), byte(15, _input))\n            mstore8(add(pos, 17), byte(14, _input))\n            mstore8(add(pos, 18), byte(13, _input))\n            mstore8(add(pos, 19), byte(12, _input))\n            mstore8(add(pos, 20), byte(11, _input))\n            mstore8(add(pos, 21), byte(10, _input))\n            mstore8(add(pos, 22), byte(9, _input))\n            mstore8(add(pos, 23), byte(8, _input))\n            mstore8(add(pos, 24), byte(7, _input))\n            mstore8(add(pos, 25), byte(6, _input))\n            mstore8(add(pos, 26), byte(5, _input))\n            mstore8(add(pos, 27), byte(4, _input))\n            mstore8(add(pos, 28), byte(3, _input))\n            mstore8(add(pos, 29), byte(2, _input))\n            mstore8(add(pos, 30), byte(1, _input))\n            mstore8(add(pos, 31), byte(0, _input))\n            result := mload(pos)\n        }\n    }\n\n    // @dev - For a valid proof, returns the root of the Merkle tree.\n    //\n    // @param _txHash - transaction hash\n    // @param _txIndex - transaction's index within the block it's assumed to be in\n    // @param _siblings - transaction's Merkle siblings\n    // @return - Merkle tree root of the block the transaction belongs to if the proof is valid,\n    // garbage if it's invalid\n    function computeMerkle(uint _txHash, uint _txIndex, uint[] memory _siblings) private pure returns (uint) {\n        \n        uint length = _siblings.length;\n        uint i;\n        for (i = 0; i < length; i++) {\n            _siblings[i] = flip32Bytes(_siblings[i]);\n        }\n\n        i = 0;\n        uint resultHash = flip32Bytes(_txHash);        \n\n        while (i < length) {\n            uint proofHex = _siblings[i];\n\n            uint left;\n            uint right;\n            if (_txIndex % 2 == 1) { // 0 means _siblings is on the right; 1 means left\n                left = proofHex;\n                right = resultHash;\n            } else {\n                left = resultHash;\n                right = proofHex;\n            }\n            resultHash = uint(sha256(abi.encodePacked(sha256(abi.encodePacked(left, right)))));\n\n            _txIndex /= 2;\n            i += 1;\n        }\n\n        return flip32Bytes(resultHash);\n    }\n\n    // @dev - extract Merkle root field from a raw Syscoin block header\n    //\n    // @param _blockHeader - Syscoin block header bytes\n    // @param pos - where to start reading root from\n    // @return - block's Merkle root in big endian format\n    function getHeaderMerkleRoot(bytes memory _blockHeader) public pure returns (uint) {\n        uint merkle;\n        assembly {\n            merkle := mload(add(add(_blockHeader, 32), 0x24))\n        }\n        return flip32Bytes(merkle);\n    }\n\n    // @dev - Initializes superblocks contract\n    //\n    // Initializes the superblock contract. It can only be called once.\n    //\n    // @param _blocksMerkleRoot Root of the merkle tree of blocks contained in a superblock\n    // @param _timestamp Timestamp of the last block in the superblock\n    // @param _mtpTimestamp Median Timestamp of the last block in the superblock\n    // @param _lastHash Hash of the last block in the superblock\n    // @param _lastBits Difficulty bits of the last block in the superblock bits\n    // @param _parentId Id of the parent superblock\n    // @param _blockHeight Block height of last block in superblock\n    // @return Error code and superblockHash\n    function initialize(\n        bytes32 _blocksMerkleRoot,\n        uint _timestamp,\n        uint _mtpTimestamp,\n        bytes32 _lastHash,\n        uint32 _lastBits,\n        bytes32 _parentId\n    ) external returns (uint, bytes32) {\n        require(bestSuperblock == 0);\n        require(_parentId == 0);\n\n        bytes32 superblockHash = calcSuperblockHash(_blocksMerkleRoot, _timestamp, _mtpTimestamp, _lastHash, _lastBits, _parentId);\n        SuperblockInfo storage superblock = superblocks[superblockHash];\n\n        require(superblock.status == Status.Uninitialized);\n\n        superblock.blocksMerkleRoot = _blocksMerkleRoot;\n        superblock.timestamp = _timestamp;\n        superblock.mtpTimestamp = _mtpTimestamp;\n        superblock.lastHash = _lastHash;\n        superblock.parentId = _parentId;\n        superblock.submitter = msg.sender;\n        superblock.height = 1;\n        superblock.lastBits = _lastBits;\n        superblock.status = Status.Approved;\n\n        emit NewSuperblock(superblockHash, msg.sender);\n\n        bestSuperblock = superblockHash;\n        emit ApprovedSuperblock(superblockHash, msg.sender);\n\n        return (ERR_SUPERBLOCK_OK, superblockHash);\n    }\n\n    // @dev - Proposes a new superblock\n    //\n    // To be accepted, a new superblock needs to have its parent\n    // either approved or semi-approved.\n    //\n    // @param _blocksMerkleRoot Root of the merkle tree of blocks contained in a superblock\n    // @param _timestamp Timestamp of the last block in the superblock\n    // @param _mtpTimestamp Median Timestamp of the last block in the superblock\n    // @param _lastHash Hash of the last block in the superblock\n    // @param _lastBits Difficulty bits of the last block in the superblock bits\n    // @param _parentId Id of the parent superblock\n    // @return Error code and superblockHash\n    function propose(\n        bytes32 _blocksMerkleRoot,\n        uint _timestamp,\n        uint _mtpTimestamp,\n        bytes32 _lastHash,\n        uint32 _lastBits,\n        bytes32 _parentId,\n        address submitter\n    ) external returns (uint, bytes32) {\n        if (msg.sender != trustedClaimManager) {\n            emit ErrorSuperblock(0, ERR_SUPERBLOCK_NOT_CLAIMMANAGER);\n            return (ERR_SUPERBLOCK_NOT_CLAIMMANAGER, 0);\n        }\n\n        SuperblockInfo storage parent = superblocks[_parentId];\n        if (parent.status != Status.SemiApproved && parent.status != Status.Approved) {\n            emit ErrorSuperblock(_parentId, ERR_SUPERBLOCK_BAD_PARENT + uint(parent.status));\n            return (ERR_SUPERBLOCK_BAD_PARENT + uint(parent.status), 0);\n        }\n\n        if (parent.height < getChainHeight()) {\n            emit ErrorSuperblock(_parentId, ERR_SUPERBLOCK_BAD_BLOCKHEIGHT);\n            return (ERR_SUPERBLOCK_BAD_BLOCKHEIGHT, 0);\n        }\n\n        bytes32 superblockHash = calcSuperblockHash(_blocksMerkleRoot, _timestamp, _mtpTimestamp, _lastHash, _lastBits, _parentId);\n        SuperblockInfo storage superblock = superblocks[superblockHash];\n        if (superblock.status == Status.Uninitialized) {\n            superblock.blocksMerkleRoot = _blocksMerkleRoot;\n            superblock.timestamp = _timestamp;\n            superblock.mtpTimestamp = _mtpTimestamp;\n            superblock.lastHash = _lastHash;\n            superblock.parentId = _parentId;\n            superblock.height = parent.height + 1;\n            superblock.lastBits = _lastBits;\n        }\n        superblock.status = Status.New;\n        superblock.submitter = submitter;\n        emit NewSuperblock(superblockHash, submitter);\n        return (ERR_SUPERBLOCK_OK, superblockHash);\n    }\n\n    // @dev - Confirm a proposed superblock\n    //\n    // An unchallenged superblock can be confirmed after a timeout.\n    // A challenged superblock is confirmed if it has enough descendants\n    // in the main chain.\n    //\n    // @param _superblockHash Id of the superblock to confirm\n    // @param _validator Address requesting superblock confirmation\n    // @return Error code and superblockHash\n    function confirm(bytes32 _superblockHash, address _validator) external returns (uint) {\n        if (msg.sender != trustedClaimManager) {\n            emit ErrorSuperblock(_superblockHash, ERR_SUPERBLOCK_NOT_CLAIMMANAGER);\n            return ERR_SUPERBLOCK_NOT_CLAIMMANAGER;\n        }\n        SuperblockInfo storage superblock = superblocks[_superblockHash];\n        if (superblock.status != Status.New && superblock.status != Status.SemiApproved) {\n            emit ErrorSuperblock(_superblockHash, ERR_SUPERBLOCK_BAD_STATUS);\n            return ERR_SUPERBLOCK_BAD_STATUS;\n        }\n\n        if (superblock.height <= getChainHeight()) {\n            emit ErrorSuperblock(_superblockHash, ERR_SUPERBLOCK_BAD_BLOCKHEIGHT);\n            return ERR_SUPERBLOCK_BAD_BLOCKHEIGHT;\n        }\n\n        SuperblockInfo storage parent = superblocks[superblock.parentId];\n        if (parent.status != Status.Approved) {\n            emit ErrorSuperblock(_superblockHash, ERR_SUPERBLOCK_BAD_PARENT);\n            return ERR_SUPERBLOCK_BAD_PARENT;\n        }\n\n        superblock.status = Status.Approved;\n        bestSuperblock = _superblockHash;\n\n        emit ApprovedSuperblock(_superblockHash, _validator);\n        return ERR_SUPERBLOCK_OK;\n    }\n\n    // @dev - Challenge a proposed superblock\n    //\n    // A new superblock can be challenged to start a battle\n    // to verify the correctness of the data submitted.\n    //\n    // @param _superblockHash Id of the superblock to challenge\n    // @param _challenger Address requesting a challenge\n    // @return Error code and superblockHash\n    function challenge(bytes32 _superblockHash, address _challenger) external returns (uint) {\n        if (msg.sender != trustedClaimManager) {\n            emit ErrorSuperblock(_superblockHash, ERR_SUPERBLOCK_NOT_CLAIMMANAGER);\n            return ERR_SUPERBLOCK_NOT_CLAIMMANAGER;\n        }\n        SuperblockInfo storage superblock = superblocks[_superblockHash];\n        if (superblock.status != Status.New && superblock.status != Status.InBattle) {\n            emit ErrorSuperblock(_superblockHash, ERR_SUPERBLOCK_BAD_STATUS);\n            return ERR_SUPERBLOCK_BAD_STATUS;\n        }\n        if(superblock.submitter == _challenger){\n            emit ErrorSuperblock(_superblockHash, ERR_SUPERBLOCK_OWN_CHALLENGE);\n            return ERR_SUPERBLOCK_OWN_CHALLENGE;\n        }\n        superblock.status = Status.InBattle;\n        emit ChallengeSuperblock(_superblockHash, _challenger);\n        return ERR_SUPERBLOCK_OK;\n    }\n\n    // @dev - Semi-approve a challenged superblock\n    //\n    // A challenged superblock can be marked as semi-approved\n    // if it satisfies all the queries or when all challengers have\n    // stopped participating.\n    //\n    // @param _superblockHash Id of the superblock to semi-approve\n    // @param _validator Address requesting semi approval\n    // @return Error code and superblockHash\n    function semiApprove(bytes32 _superblockHash, address _validator) external returns (uint) {\n        if (msg.sender != trustedClaimManager) {\n            emit ErrorSuperblock(_superblockHash, ERR_SUPERBLOCK_NOT_CLAIMMANAGER);\n            return ERR_SUPERBLOCK_NOT_CLAIMMANAGER;\n        }\n        SuperblockInfo storage superblock = superblocks[_superblockHash];\n\n        if (superblock.status != Status.InBattle && superblock.status != Status.New) {\n            emit ErrorSuperblock(_superblockHash, ERR_SUPERBLOCK_BAD_STATUS);\n            return ERR_SUPERBLOCK_BAD_STATUS;\n        }\n        superblock.status = Status.SemiApproved;\n\n        emit SemiApprovedSuperblock(_superblockHash, _validator);\n        return ERR_SUPERBLOCK_OK;\n    }\n\n    // @dev - Invalidates a superblock\n    //\n    // A superblock with incorrect data can be invalidated immediately.\n    // Superblocks that are not in the main chain can be invalidated\n    // if not enough superblocks follow them, i.e. they don't have\n    // enough descendants.\n    //\n    // @param _superblockHash Id of the superblock to invalidate\n    // @param _validator Address requesting superblock invalidation\n    // @return Error code and superblockHash\n    function invalidate(bytes32 _superblockHash, address _validator) external returns (uint) {\n        if (msg.sender != trustedClaimManager) {\n            emit ErrorSuperblock(_superblockHash, ERR_SUPERBLOCK_NOT_CLAIMMANAGER);\n            return ERR_SUPERBLOCK_NOT_CLAIMMANAGER;\n        }\n        SuperblockInfo storage superblock = superblocks[_superblockHash];\n        if (superblock.status != Status.InBattle && superblock.status != Status.SemiApproved) {\n            emit ErrorSuperblock(_superblockHash, ERR_SUPERBLOCK_BAD_STATUS);\n            return ERR_SUPERBLOCK_BAD_STATUS;\n        }\n        superblock.status = Status.Invalid;\n        emit InvalidSuperblock(_superblockHash, _validator);\n        return ERR_SUPERBLOCK_OK;\n    }\n\n    // @dev - relays transaction `_txBytes` to ERC20Manager's processTransaction() method.\n    // Also logs the value of processTransaction.\n    // Note: callers cannot be 100% certain when an ERR_RELAY_VERIFY occurs because\n    // it may also have been returned by processTransaction(). Callers should be\n    // aware of the contract that they are relaying transactions to and\n    // understand what that contract's processTransaction method returns.\n    //\n    // @param _txBytes - transaction bytes\n    // @param _txIndex - transaction's index within the block\n    // @param _txSiblings - transaction's Merkle siblings\n    // @param _syscoinBlockHeader - block header containing transaction\n    // @param _syscoinBlockIndex - block's index withing superblock\n    // @param _syscoinBlockSiblings - block's merkle siblings\n    // @param _superblockHash - superblock containing block header\n    function relayTx(\n        bytes memory _txBytes,\n        uint _txIndex,\n        uint[] memory _txSiblings,\n        bytes memory _syscoinBlockHeader,\n        uint _syscoinBlockIndex,\n        uint[] memory _syscoinBlockSiblings,\n        bytes32 _superblockHash\n    ) public returns (uint) {\n        // Check if Syscoin block belongs to given superblock\n        if (bytes32(computeMerkle(dblShaFlip(_syscoinBlockHeader), _syscoinBlockIndex, _syscoinBlockSiblings))\n            != superblocks[_superblockHash].blocksMerkleRoot) {\n            // Syscoin block is not in superblock\n            emit RelayTransaction(bytes32(0), ERR_SUPERBLOCK);\n            return ERR_SUPERBLOCK;\n        }\n        uint txHash = verifyTx(_txBytes, _txIndex, _txSiblings, _syscoinBlockHeader, _superblockHash);\n        if (txHash != 0) {\n            uint value;\n            address destinationAddress;\n            uint ret;\n            uint32 assetGUID;\n            address erc20ContractAddress;\n            uint8 precision;\n            (ret, value, destinationAddress, assetGUID, precision, erc20ContractAddress) = parseTransaction(_txBytes);\n            if(ret != 0){\n                emit RelayTransaction(bytes32(txHash), ret);\n                return ret;\n            }\n            syscoinERC20Manager.processTransaction(txHash, value, destinationAddress, superblocks[_superblockHash].submitter, erc20ContractAddress, assetGUID, precision);\n            return value;\n        }\n        emit RelayTransaction(bytes32(0), ERR_RELAY_VERIFY);\n        return(ERR_RELAY_VERIFY);\n    }\n\n    // @dev - Checks whether the transaction given by `_txBytes` is in the block identified by `_txBlockHeaderBytes`.\n    // First it guards against a Merkle tree collision attack by raising an error if the transaction is exactly 64 bytes long,\n    // then it calls helperVerifyHash to do the actual check.\n    //\n    // @param _txBytes - transaction bytes\n    // @param _txIndex - transaction's index within the block\n    // @param _siblings - transaction's Merkle siblings\n    // @param _txBlockHeaderBytes - block header containing transaction\n    // @param _txsuperblockHash - superblock containing block header\n    // @return - SHA-256 hash of _txBytes if the transaction is in the block, 0 otherwise\n    function verifyTx(\n        bytes memory _txBytes,\n        uint _txIndex,\n        uint[] memory _siblings,\n        bytes memory _txBlockHeaderBytes,\n        bytes32 _txsuperblockHash\n    ) private returns (uint) {\n        uint txHash = dblShaFlip(_txBytes);\n\n        if (_txBytes.length == 64) {  // todo: is check 32 also needed?\n            emit VerifyTransaction(bytes32(txHash), ERR_TX_64BYTE);\n            return 0;\n        }\n\n        if (helperVerifyHash(txHash, _txIndex, _siblings, _txBlockHeaderBytes, _txsuperblockHash) == 1) {\n            return txHash;\n        } else {\n            // log is done via helperVerifyHash\n            return 0;\n        }\n    }\n\n    // @dev - Checks whether the transaction identified by `_txHash` is in the block identified by `_blockHeaderBytes`\n    // and whether the block is in the Syscoin main chain. Transaction check is done via Merkle proof.\n    // Note: no verification is performed to prevent txHash from just being an\n    // internal hash in the Merkle tree. Thus this helper method should NOT be used\n    // directly and is intended to be private.\n    //\n    // @param _txHash - transaction hash\n    // @param _txIndex - transaction's index within the block\n    // @param _siblings - transaction's Merkle siblings\n    // @param _blockHeaderBytes - block header containing transaction\n    // @param _txsuperblockHash - superblock containing block header\n    // @return - 1 if the transaction is in the block and the block is in the main chain,\n    // 20020 (ERR_CONFIRMATIONS) if the block is not in the main chain,\n    // 20050 (ERR_MERKLE_ROOT) if the block is in the main chain but the Merkle proof fails.\n    function helperVerifyHash(\n        uint256 _txHash,\n        uint _txIndex,\n        uint[] memory _siblings,\n        bytes memory _blockHeaderBytes,\n        bytes32 _txsuperblockHash\n    ) private returns (uint) {\n\n        //TODO: Verify superblock is in superblock's main chain\n        if (!isApproved(_txsuperblockHash)) {\n            emit VerifyTransaction(bytes32(_txHash), ERR_CHAIN);\n            return (ERR_CHAIN);\n        }\n\n        // Verify tx Merkle root\n        uint merkle = getHeaderMerkleRoot(_blockHeaderBytes);\n        if (computeMerkle(_txHash, _txIndex, _siblings) != merkle) {\n            emit VerifyTransaction(bytes32(_txHash), ERR_MERKLE_ROOT);\n            return (ERR_MERKLE_ROOT);\n        }\n        return (1);\n    }\n\n    // @dev - Calculate superblock hash from superblock data\n    //\n    // @param _blocksMerkleRoot Root of the merkle tree of blocks contained in a superblock\n    // @param _timestamp Timestamp of the last block in the superblock\n    // @param _mtpTimestamp Median Timestamp of the last block in the superblock\n    // @param _lastHash Hash of the last block in the superblock\n    // @param _lastBits Difficulty bits of the last block in the superblock bits\n    // @param _parentId Id of the parent superblock\n    // @return Superblock id\n    function calcSuperblockHash(\n        bytes32 _blocksMerkleRoot,\n        uint _timestamp,\n        uint _mtpTimestamp,\n        bytes32 _lastHash,\n        uint32 _lastBits,\n        bytes32 _parentId\n    ) public pure returns (bytes32) {\n        return keccak256(abi.encodePacked(\n            _blocksMerkleRoot,\n            _timestamp,\n            _mtpTimestamp,\n            _lastHash,\n            _lastBits,\n            _parentId\n        ));\n    }\n\n    // @dev - Returns the confirmed superblock with the most accumulated work\n    //\n    // @return Best superblock hash\n    function getBestSuperblock() external view returns (bytes32) {\n        return bestSuperblock;\n    }\n\n    // @dev - Returns the superblock data for the supplied superblock hash\n    //\n    function getSuperblock(bytes32 superblockHash) external view returns (\n        bytes32 _blocksMerkleRoot,\n        uint _timestamp,\n        uint _mtpTimestamp,\n        bytes32 _lastHash,\n        uint32 _lastBits,\n        bytes32 _parentId,\n        address _submitter,\n        Status _status,\n        uint32 _height\n    ) {\n        SuperblockInfo storage superblock = superblocks[superblockHash];\n        return (\n            superblock.blocksMerkleRoot,\n            superblock.timestamp,\n            superblock.mtpTimestamp,\n            superblock.lastHash,\n            superblock.lastBits,\n            superblock.parentId,\n            superblock.submitter,\n            superblock.status,\n            superblock.height\n        );\n    }\n\n    // @dev - Returns superblock height\n    function getSuperblockHeight(bytes32 superblockHash) public view returns (uint32) {\n        return superblocks[superblockHash].height;\n    }\n\n    // @dev - Return superblock timestamp\n    function getSuperblockTimestamp(bytes32 _superblockHash) external view returns (uint) {\n        return superblocks[_superblockHash].timestamp;\n    }\n\n    // @dev - Return superblock median timestamp\n    function getSuperblockMedianTimestamp(bytes32 _superblockHash) external view returns (uint) {\n        return superblocks[_superblockHash].mtpTimestamp;\n    }\n\n    // @dev - Return superblock parent\n    function getSuperblockParentId(bytes32 _superblockHash) external view returns (bytes32) {\n        return superblocks[_superblockHash].parentId;\n    }\n\n\n    // @dev - Return superblock status\n    function getSuperblockStatus(bytes32 _superblockHash) public view returns (Status) {\n        return superblocks[_superblockHash].status;\n    }\n\n    function isApproved(bytes32 _superblockHash) private view returns (bool) {\n        return (getSuperblockStatus(_superblockHash) == Status.Approved);\n    }\n    function getChainHeight() public view returns (uint) {\n        return superblocks[bestSuperblock].height;\n    }\n\n    // @dev - return superblock hash at a given height in superblock main chain\n    //\n    // @param _height - superblock height\n    // @return - hash corresponding to block of height _height\n    function getSuperblockAt(uint _height) external view returns (bytes32) {\n        bytes32 superblockHash = bestSuperblock;\n\n        while (getSuperblockHeight(superblockHash) > _height) {\n            superblockHash = superblocks[superblockHash].parentId;\n        }\n\n        return superblockHash;\n    }\n}\n",
  "sourcePath": "/Users/jsidhu/Documents/GitHub/sysethereum-contracts1/contracts/SyscoinSuperblocks.sol",
  "compiler": {
    "name": "solc",
    "version": "0.5.13+commit.5b0b510c.Emscripten.clang"
  },
  "schemaVersion": "3.0.19",
  "updatedAt": "2019-11-21T20:10:06.895Z",
  "devdoc": {
    "methods": {}
  },
  "userdoc": {
    "methods": {}
  }
}