{
  "contractName": "SyscoinClaimManager",
  "abi": [
    {
      "anonymous": false,
      "inputs": [
        {
          "indexed": false,
          "internalType": "bytes32",
          "name": "superblockHash",
          "type": "bytes32"
        },
        {
          "indexed": false,
          "internalType": "address",
          "name": "account",
          "type": "address"
        },
        {
          "indexed": false,
          "internalType": "uint256",
          "name": "amount",
          "type": "uint256"
        }
      ],
      "name": "DepositBonded",
      "type": "event"
    },
    {
      "anonymous": false,
      "inputs": [
        {
          "indexed": false,
          "internalType": "address",
          "name": "who",
          "type": "address"
        },
        {
          "indexed": false,
          "internalType": "uint256",
          "name": "amount",
          "type": "uint256"
        }
      ],
      "name": "DepositMade",
      "type": "event"
    },
    {
      "anonymous": false,
      "inputs": [
        {
          "indexed": false,
          "internalType": "bytes32",
          "name": "superblockHash",
          "type": "bytes32"
        },
        {
          "indexed": false,
          "internalType": "address",
          "name": "account",
          "type": "address"
        },
        {
          "indexed": false,
          "internalType": "uint256",
          "name": "amount",
          "type": "uint256"
        }
      ],
      "name": "DepositUnbonded",
      "type": "event"
    },
    {
      "anonymous": false,
      "inputs": [
        {
          "indexed": false,
          "internalType": "address",
          "name": "who",
          "type": "address"
        },
        {
          "indexed": false,
          "internalType": "uint256",
          "name": "amount",
          "type": "uint256"
        }
      ],
      "name": "DepositWithdrawn",
      "type": "event"
    },
    {
      "anonymous": false,
      "inputs": [
        {
          "indexed": false,
          "internalType": "bytes32",
          "name": "superblockHash",
          "type": "bytes32"
        },
        {
          "indexed": false,
          "internalType": "uint256",
          "name": "err",
          "type": "uint256"
        }
      ],
      "name": "ErrorClaim",
      "type": "event"
    },
    {
      "anonymous": false,
      "inputs": [
        {
          "indexed": false,
          "internalType": "bytes32",
          "name": "superblockHash",
          "type": "bytes32"
        },
        {
          "indexed": false,
          "internalType": "address",
          "name": "winner",
          "type": "address"
        },
        {
          "indexed": false,
          "internalType": "address",
          "name": "loser",
          "type": "address"
        }
      ],
      "name": "SuperblockBattleDecided",
      "type": "event"
    },
    {
      "anonymous": false,
      "inputs": [
        {
          "indexed": false,
          "internalType": "bytes32",
          "name": "superblockHash",
          "type": "bytes32"
        },
        {
          "indexed": false,
          "internalType": "address",
          "name": "challenger",
          "type": "address"
        }
      ],
      "name": "SuperblockClaimChallenged",
      "type": "event"
    },
    {
      "anonymous": false,
      "inputs": [
        {
          "indexed": false,
          "internalType": "bytes32",
          "name": "superblockHash",
          "type": "bytes32"
        },
        {
          "indexed": false,
          "internalType": "address",
          "name": "submitter",
          "type": "address"
        },
        {
          "indexed": false,
          "internalType": "uint256",
          "name": "processCounter",
          "type": "uint256"
        }
      ],
      "name": "SuperblockClaimCreated",
      "type": "event"
    },
    {
      "anonymous": false,
      "inputs": [
        {
          "indexed": false,
          "internalType": "bytes32",
          "name": "superblockHash",
          "type": "bytes32"
        },
        {
          "indexed": false,
          "internalType": "address",
          "name": "challenger",
          "type": "address"
        },
        {
          "indexed": false,
          "internalType": "uint256",
          "name": "processCounter",
          "type": "uint256"
        }
      ],
      "name": "SuperblockClaimFailed",
      "type": "event"
    },
    {
      "anonymous": false,
      "inputs": [
        {
          "indexed": false,
          "internalType": "bytes32",
          "name": "superblockHash",
          "type": "bytes32"
        },
        {
          "indexed": false,
          "internalType": "address",
          "name": "submitter",
          "type": "address"
        }
      ],
      "name": "SuperblockClaimPending",
      "type": "event"
    },
    {
      "anonymous": false,
      "inputs": [
        {
          "indexed": false,
          "internalType": "bytes32",
          "name": "superblockHash",
          "type": "bytes32"
        },
        {
          "indexed": false,
          "internalType": "address",
          "name": "submitter",
          "type": "address"
        },
        {
          "indexed": false,
          "internalType": "uint256",
          "name": "processCounter",
          "type": "uint256"
        }
      ],
      "name": "SuperblockClaimSuccessful",
      "type": "event"
    },
    {
      "anonymous": false,
      "inputs": [
        {
          "indexed": false,
          "internalType": "bytes32",
          "name": "superblockHash",
          "type": "bytes32"
        },
        {
          "indexed": false,
          "internalType": "address",
          "name": "submitter",
          "type": "address"
        },
        {
          "indexed": false,
          "internalType": "address",
          "name": "challenger",
          "type": "address"
        }
      ],
      "name": "VerificationGameStarted",
      "type": "event"
    },
    {
      "payable": true,
      "stateMutability": "payable",
      "type": "fallback"
    },
    {
      "constant": true,
      "inputs": [
        {
          "internalType": "bytes32",
          "name": "",
          "type": "bytes32"
        }
      ],
      "name": "claims",
      "outputs": [
        {
          "internalType": "bytes32",
          "name": "superblockHash",
          "type": "bytes32"
        },
        {
          "internalType": "address",
          "name": "submitter",
          "type": "address"
        },
        {
          "internalType": "address",
          "name": "challenger",
          "type": "address"
        },
        {
          "internalType": "uint256",
          "name": "createdAt",
          "type": "uint256"
        },
        {
          "internalType": "uint256",
          "name": "challengeTimeout",
          "type": "uint256"
        },
        {
          "internalType": "bool",
          "name": "verificationOngoing",
          "type": "bool"
        },
        {
          "internalType": "bool",
          "name": "decided",
          "type": "bool"
        },
        {
          "internalType": "bool",
          "name": "invalid",
          "type": "bool"
        },
        {
          "internalType": "bool",
          "name": "challengeDefended",
          "type": "bool"
        }
      ],
      "payable": false,
      "stateMutability": "view",
      "type": "function"
    },
    {
      "constant": true,
      "inputs": [
        {
          "internalType": "address",
          "name": "",
          "type": "address"
        }
      ],
      "name": "deposits",
      "outputs": [
        {
          "internalType": "uint256",
          "name": "",
          "type": "uint256"
        }
      ],
      "payable": false,
      "stateMutability": "view",
      "type": "function"
    },
    {
      "constant": true,
      "inputs": [
        {
          "internalType": "address",
          "name": "who",
          "type": "address"
        }
      ],
      "name": "getDeposit",
      "outputs": [
        {
          "internalType": "uint256",
          "name": "",
          "type": "uint256"
        }
      ],
      "payable": false,
      "stateMutability": "view",
      "type": "function"
    },
    {
      "constant": true,
      "inputs": [],
      "name": "inProcessCounter",
      "outputs": [
        {
          "internalType": "uint256",
          "name": "",
          "type": "uint256"
        }
      ],
      "payable": false,
      "stateMutability": "view",
      "type": "function"
    },
    {
      "constant": false,
      "inputs": [],
      "name": "makeDeposit",
      "outputs": [
        {
          "internalType": "uint256",
          "name": "",
          "type": "uint256"
        }
      ],
      "payable": true,
      "stateMutability": "payable",
      "type": "function"
    },
    {
      "constant": true,
      "inputs": [],
      "name": "minProposalDeposit",
      "outputs": [
        {
          "internalType": "uint256",
          "name": "",
          "type": "uint256"
        }
      ],
      "payable": false,
      "stateMutability": "view",
      "type": "function"
    },
    {
      "constant": true,
      "inputs": [],
      "name": "superblockConfirmations",
      "outputs": [
        {
          "internalType": "uint256",
          "name": "",
          "type": "uint256"
        }
      ],
      "payable": false,
      "stateMutability": "view",
      "type": "function"
    },
    {
      "constant": true,
      "inputs": [],
      "name": "superblockDelay",
      "outputs": [
        {
          "internalType": "uint256",
          "name": "",
          "type": "uint256"
        }
      ],
      "payable": false,
      "stateMutability": "view",
      "type": "function"
    },
    {
      "constant": true,
      "inputs": [],
      "name": "superblockTimeout",
      "outputs": [
        {
          "internalType": "uint256",
          "name": "",
          "type": "uint256"
        }
      ],
      "payable": false,
      "stateMutability": "view",
      "type": "function"
    },
    {
      "constant": true,
      "inputs": [],
      "name": "trustedSuperblocks",
      "outputs": [
        {
          "internalType": "contract SyscoinSuperblocksI",
          "name": "",
          "type": "address"
        }
      ],
      "payable": false,
      "stateMutability": "view",
      "type": "function"
    },
    {
      "constant": true,
      "inputs": [],
      "name": "trustedSyscoinBattleManager",
      "outputs": [
        {
          "internalType": "contract SyscoinBattleManagerI",
          "name": "",
          "type": "address"
        }
      ],
      "payable": false,
      "stateMutability": "view",
      "type": "function"
    },
    {
      "constant": false,
      "inputs": [
        {
          "internalType": "uint256",
          "name": "amount",
          "type": "uint256"
        }
      ],
      "name": "withdrawDeposit",
      "outputs": [
        {
          "internalType": "uint256",
          "name": "",
          "type": "uint256"
        }
      ],
      "payable": false,
      "stateMutability": "nonpayable",
      "type": "function"
    },
    {
      "constant": false,
      "inputs": [
        {
          "internalType": "contract SyscoinSuperblocksI",
          "name": "_superblocks",
          "type": "address"
        },
        {
          "internalType": "contract SyscoinBattleManagerI",
          "name": "_syscoinBattleManager",
          "type": "address"
        },
        {
          "internalType": "uint256",
          "name": "_superblockDelay",
          "type": "uint256"
        },
        {
          "internalType": "uint256",
          "name": "_superblockTimeout",
          "type": "uint256"
        },
        {
          "internalType": "uint256",
          "name": "_superblockConfirmations",
          "type": "uint256"
        }
      ],
      "name": "init",
      "outputs": [],
      "payable": false,
      "stateMutability": "nonpayable",
      "type": "function"
    },
    {
      "constant": false,
      "inputs": [
        {
          "internalType": "bytes32",
          "name": "superblockHash",
          "type": "bytes32"
        },
        {
          "internalType": "address",
          "name": "account",
          "type": "address"
        },
        {
          "internalType": "uint256",
          "name": "amount",
          "type": "uint256"
        }
      ],
      "name": "bondDeposit",
      "outputs": [
        {
          "internalType": "uint256",
          "name": "",
          "type": "uint256"
        }
      ],
      "payable": false,
      "stateMutability": "nonpayable",
      "type": "function"
    },
    {
      "constant": true,
      "inputs": [
        {
          "internalType": "bytes32",
          "name": "superblockHash",
          "type": "bytes32"
        },
        {
          "internalType": "address",
          "name": "account",
          "type": "address"
        }
      ],
      "name": "getBondedDeposit",
      "outputs": [
        {
          "internalType": "uint256",
          "name": "",
          "type": "uint256"
        }
      ],
      "payable": false,
      "stateMutability": "view",
      "type": "function"
    },
    {
      "constant": false,
      "inputs": [
        {
          "internalType": "bytes32",
          "name": "_blocksMerkleRoot",
          "type": "bytes32"
        },
        {
          "internalType": "uint256",
          "name": "_timestamp",
          "type": "uint256"
        },
        {
          "internalType": "uint256",
          "name": "_mtpTimestamp",
          "type": "uint256"
        },
        {
          "internalType": "bytes32",
          "name": "_lastHash",
          "type": "bytes32"
        },
        {
          "internalType": "uint32",
          "name": "_lastBits",
          "type": "uint32"
        },
        {
          "internalType": "bytes32",
          "name": "_parentHash",
          "type": "bytes32"
        }
      ],
      "name": "proposeSuperblock",
      "outputs": [
        {
          "internalType": "uint256",
          "name": "",
          "type": "uint256"
        },
        {
          "internalType": "bytes32",
          "name": "",
          "type": "bytes32"
        }
      ],
      "payable": false,
      "stateMutability": "nonpayable",
      "type": "function"
    },
    {
      "constant": false,
      "inputs": [
        {
          "internalType": "bytes32",
          "name": "superblockHash",
          "type": "bytes32"
        }
      ],
      "name": "challengeSuperblock",
      "outputs": [
        {
          "internalType": "uint256",
          "name": "",
          "type": "uint256"
        },
        {
          "internalType": "bytes32",
          "name": "",
          "type": "bytes32"
        }
      ],
      "payable": false,
      "stateMutability": "nonpayable",
      "type": "function"
    },
    {
      "constant": false,
      "inputs": [
        {
          "internalType": "bytes32",
          "name": "superblockHash",
          "type": "bytes32"
        },
        {
          "internalType": "bytes32",
          "name": "descendantId",
          "type": "bytes32"
        }
      ],
      "name": "confirmClaim",
      "outputs": [
        {
          "internalType": "bool",
          "name": "",
          "type": "bool"
        }
      ],
      "payable": false,
      "stateMutability": "nonpayable",
      "type": "function"
    },
    {
      "constant": false,
      "inputs": [
        {
          "internalType": "bytes32",
          "name": "superblockHash",
          "type": "bytes32"
        }
      ],
      "name": "rejectClaim",
      "outputs": [
        {
          "internalType": "bool",
          "name": "",
          "type": "bool"
        }
      ],
      "payable": false,
      "stateMutability": "nonpayable",
      "type": "function"
    },
    {
      "constant": false,
      "inputs": [
        {
          "internalType": "bytes32",
          "name": "superblockHash",
          "type": "bytes32"
        }
      ],
      "name": "checkClaimFinished",
      "outputs": [
        {
          "internalType": "bool",
          "name": "",
          "type": "bool"
        }
      ],
      "payable": false,
      "stateMutability": "nonpayable",
      "type": "function"
    },
    {
      "constant": false,
      "inputs": [
        {
          "internalType": "bytes32",
          "name": "superblockHash",
          "type": "bytes32"
        },
        {
          "internalType": "address",
          "name": "winner",
          "type": "address"
        },
        {
          "internalType": "address",
          "name": "loser",
          "type": "address"
        }
      ],
      "name": "sessionDecided",
      "outputs": [],
      "payable": false,
      "stateMutability": "nonpayable",
      "type": "function"
    },
    {
      "constant": true,
      "inputs": [
        {
          "internalType": "bytes32",
          "name": "superblockHash",
          "type": "bytes32"
        }
      ],
      "name": "getInBattleAndSemiApprovable",
      "outputs": [
        {
          "internalType": "bool",
          "name": "",
          "type": "bool"
        }
      ],
      "payable": false,
      "stateMutability": "view",
      "type": "function"
    },
    {
      "constant": true,
      "inputs": [
        {
          "internalType": "bytes32",
          "name": "superblockHash",
          "type": "bytes32"
        }
      ],
      "name": "getClaimSubmitter",
      "outputs": [
        {
          "internalType": "address",
          "name": "",
          "type": "address"
        }
      ],
      "payable": false,
      "stateMutability": "view",
      "type": "function"
    },
    {
      "constant": true,
      "inputs": [
        {
          "internalType": "bytes32",
          "name": "superblockHash",
          "type": "bytes32"
        }
      ],
      "name": "getNewSuperblockEventTimestamp",
      "outputs": [
        {
          "internalType": "uint256",
          "name": "",
          "type": "uint256"
        }
      ],
      "payable": false,
      "stateMutability": "view",
      "type": "function"
    },
    {
      "constant": true,
      "inputs": [
        {
          "internalType": "bytes32",
          "name": "superblockHash",
          "type": "bytes32"
        }
      ],
      "name": "getClaimExists",
      "outputs": [
        {
          "internalType": "bool",
          "name": "",
          "type": "bool"
        }
      ],
      "payable": false,
      "stateMutability": "view",
      "type": "function"
    },
    {
      "constant": true,
      "inputs": [
        {
          "internalType": "bytes32",
          "name": "superblockHash",
          "type": "bytes32"
        }
      ],
      "name": "getClaimDecided",
      "outputs": [
        {
          "internalType": "bool",
          "name": "",
          "type": "bool"
        }
      ],
      "payable": false,
      "stateMutability": "view",
      "type": "function"
    },
    {
      "constant": true,
      "inputs": [
        {
          "internalType": "bytes32",
          "name": "superblockHash",
          "type": "bytes32"
        }
      ],
      "name": "getClaimInvalid",
      "outputs": [
        {
          "internalType": "bool",
          "name": "",
          "type": "bool"
        }
      ],
      "payable": false,
      "stateMutability": "view",
      "type": "function"
    },
    {
      "constant": true,
      "inputs": [
        {
          "internalType": "bytes32",
          "name": "superblockHash",
          "type": "bytes32"
        }
      ],
      "name": "getClaimChallenger",
      "outputs": [
        {
          "internalType": "address",
          "name": "",
          "type": "address"
        }
      ],
      "payable": false,
      "stateMutability": "view",
      "type": "function"
    }
  ],
  "bytecode": "0x608060405234801561001057600080fd5b50612a9c806100206000396000f3fe6080604052600436106101b75760003560e01c806357872488116100ec578063c3d3290f1161008a578063e1254fba11610064578063e1254fba146105bf578063eff0f592146105f2578063f934436e14610675578063fc7e286d146106c4576101b7565b8063c3d3290f14610541578063c44205e31461056b578063dac1d76414610595576101b7565b806390a14aea116100c657806390a14aea14610480578063a4cbce7b14610495578063a8b4633f146104d8578063c2569e5a14610502576101b7565b8063578724881461042c5780635ac4e02c146104415780635bf7d5db14610456576101b7565b80632bcf947e116101595780633352f1a4116101335780633352f1a4146103bb57806340732c89146103e5578063455e6166146103ed57806355e4286b14610402576101b7565b80632bcf947e14610315578063329af83f1461037c57806333289a4614610391576101b7565b806318b011de1161019557806318b011de1461025a5780631fed7b851461028157806327b425a6146102c757806329118a9b146102dc576101b7565b8063040aa57a146101c25780630ac0d9c91461020657806313be4f9e14610230575b6101bf6106f7565b50005b3480156101ce57600080fd5b506101f2600480360360408110156101e557600080fd5b5080359060200135610717565b604080519115158252519081900360200190f35b34801561021257600080fd5b506101f26004803603602081101561022957600080fd5b5035610d42565b34801561023c57600080fd5b506101f26004803603602081101561025357600080fd5b5035610d61565b34801561026657600080fd5b5061026f611104565b60408051918252519081900360200190f35b34801561028d57600080fd5b506102ab600480360360208110156102a457600080fd5b503561110a565b604080516001600160a01b039092168252519081900360200190f35b3480156102d357600080fd5b5061026f611128565b3480156102e857600080fd5b5061026f600480360360408110156102ff57600080fd5b50803590602001356001600160a01b031661112e565b34801561032157600080fd5b50610363600480360360c081101561033857600080fd5b5080359060208101359060408101359060608101359063ffffffff6080820135169060a00135611172565b6040805192835260208301919091528051918290030190f35b34801561038857600080fd5b506102ab61153f565b34801561039d57600080fd5b5061026f600480360360208110156103b457600080fd5b503561154e565b3480156103c757600080fd5b506101f2600480360360208110156103de57600080fd5b5035611619565b61026f6106f7565b3480156103f957600080fd5b5061026f611b4a565b34801561040e57600080fd5b506103636004803603602081101561042557600080fd5b5035611b56565b34801561043857600080fd5b5061026f611fa2565b34801561044d57600080fd5b5061026f611fa8565b34801561046257600080fd5b506102ab6004803603602081101561047957600080fd5b5035611fae565b34801561048c57600080fd5b506102ab611fcc565b3480156104a157600080fd5b506104d6600480360360608110156104b857600080fd5b508035906001600160a01b0360208201358116916040013516611fdb565b005b3480156104e457600080fd5b506101f2600480360360208110156104fb57600080fd5b50356120d9565b34801561050e57600080fd5b5061026f6004803603606081101561052557600080fd5b508035906001600160a01b0360208201351690604001356121c3565b34801561054d57600080fd5b5061026f6004803603602081101561056457600080fd5b5035612302565b34801561057757600080fd5b506101f26004803603602081101561058e57600080fd5b5035612317565b3480156105a157600080fd5b506101f2600480360360208110156105b857600080fd5b5035612334565b3480156105cb57600080fd5b5061026f600480360360208110156105e257600080fd5b50356001600160a01b0316612352565b3480156105fe57600080fd5b5061061c6004803603602081101561061557600080fd5b503561236d565b60408051998a526001600160a01b0398891660208b0152969097168887015260608801949094526080870192909252151560a0860152151560c0850152151560e084015290151561010083015251908190036101200190f35b34801561068157600080fd5b506104d6600480360360a081101561069857600080fd5b506001600160a01b038135811691602081013590911690604081013590606081013590608001356123ce565b3480156106d057600080fd5b5061026f600480360360208110156106e757600080fd5b50356001600160a01b03166124b9565b600061070333346124cb565b503360009081526033602052604090205490565b6000818152603460205260408120819060019084905b8682146109085761073d81612550565b15806107535750600681015462010000900460ff165b1561078f576040805188815261c3a060208201528151600080516020612a1a833981519152929181900390910190a16000945050505050610d3c565b603554604080516365702c0f60e11b81526004810185905290516003926001600160a01b03169163cae0581e916024808301926020929190829003018186803b1580156107db57600080fd5b505afa1580156107ef573d6000803e3d6000fd5b505050506040513d602081101561080557600080fd5b5051600581111561081257fe5b1461084e576040805188815261c36460208201528151600080516020612a1a833981519152929181900390910190a16000945050505050610d3c565b828015610867575060028101546001600160a01b031615155b1561087157600092505b60355460408051632af00c6760e11b81526004810185905290516001600160a01b03909216916355e018ce91602480820192602092909190829003018186803b1580156108bd57600080fd5b505afa1580156108d1573d6000803e3d6000fd5b505050506040513d60208110156108e757600080fd5b5051600081815260346020526040902060019590950194909250905061072d565b603754841015610949576040805188815261c3dc60208201528151600080516020612a1a833981519152929181900390910190a16000945050505050610d3c565b603554604080516365702c0f60e11b81526004810185905290516003926001600160a01b03169163cae0581e916024808301926020929190829003018186803b15801561099557600080fd5b505afa1580156109a9573d6000803e3d6000fd5b505050506040513d60208110156109bf57600080fd5b505160058111156109cc57fe5b14610a08576040805188815261c36460208201528151600080516020612a1a833981519152929181900390910190a16000945050505050610d3c565b603554604080516395b45ee760e01b8152600481018a905233602482015290516000926001600160a01b0316916395b45ee791604480830192602092919082900301818787803b158015610a5b57600080fd5b505af1158015610a6f573d6000803e3d6000fd5b505050506040513d6020811015610a8557600080fd5b505190508015610ac65760408051898152602081018390528151600080516020612a1a833981519152929181900390910190a1600095505050505050610d3c565b610ad08883612562565b8315610cd757606085604051908082528060200260200182016040528015610b02578160200160208202803883390190505b50889450905060005b898514610baa5784828281518110610b1f57fe5b60209081029190910181019190915260355460408051632af00c6760e11b81526004810189905290516001600160a01b03909216926355e018ce92602480840193829003018186803b158015610b7457600080fd5b505afa158015610b88573d6000803e3d6000fd5b505050506040513d6020811015610b9e57600080fd5b50519450600101610b0b565b8015610cd457600181039050818181518110610bc257fe5b602090810291909101810151600081815260348352604080822060355482516395b45ee760e01b8152600481018690523360248201529251949a509098506001600160a01b0316936395b45ee79360448084019492939192918390030190829087803b158015610c3157600080fd5b505af1158015610c45573d6000803e3d6000fd5b505050506040513d6020811015610c5b57600080fd5b505192508215610c6a57600080fd5b610c748585612562565b603a805460001901908190556001850154604080518881526001600160a01b0390921660208301528181019290925290517f761ed2ea8db827133836a35e2fdc1cf23fcfe723b817ceffebb1d571439aad8e9181900360600190a1610baa565b50505b603a805460001901908190556001830154604080518b81526001600160a01b0390921660208301528181019290925290517f761ed2ea8db827133836a35e2fdc1cf23fcfe723b817ceffebb1d571439aad8e9181900360600190a16001955050505050505b92915050565b6000818152603460205260408120610d5990612550565b90505b919050565b6000818152603460205260408120610d7881612550565b610db0576040805184815261c3a060208201528151600080516020612a1a833981519152929181900390910190a16000915050610d5c565b60355460408051632e40019160e01b81526004810186905290516000926001600160a01b031691632e400191916024808301926020929190829003018186803b158015610dfc57600080fd5b505afa158015610e10573d6000803e3d6000fd5b505050506040513d6020811015610e2657600080fd5b505160355460408051632dab940960e11b8152905163ffffffff90931693506001600160a01b0390911691635b57281291600480820192602092909190829003018186803b158015610e7757600080fd5b505afa158015610e8b573d6000803e3d6000fd5b505050506040513d6020811015610ea157600080fd5b5051811115610edf576040805185815261c3fa60208201528151600080516020612a1a833981519152929181900390910190a1600092505050610d5c565b603554604080516365702c0f60e11b81526004810187905290516000926001600160a01b03169163cae0581e916024808301926020929190829003018186803b158015610f2b57600080fd5b505afa158015610f3f573d6000803e3d6000fd5b505050506040513d6020811015610f5557600080fd5b505190506003816005811115610f6757fe5b14610fa2576040805186815261c36460208201528151600080516020612a1a833981519152929181900390910190a160009350505050610d5c565b6006830154610100900460ff16610fe9576040805186815261c3b460208201528151600080516020612a1a833981519152929181900390910190a160009350505050610d5c565b603554600184015460408051633a102bc360e11b8152600481018990526001600160a01b0392831660248201529051600093929092169163742057869160448082019260209290919082900301818787803b15801561104757600080fd5b505af115801561105b573d6000803e3d6000fd5b505050506040513d602081101561107157600080fd5b50519050801561108057600080fd5b61108a8685612614565b60068401805462ff0000191662010000179055603a805460001901908190556002850154604080518981526001600160a01b0390921660208301528181019290925290517f6ebb2f466d4c07e002cf7da3bf393c34f5c693c635dfd53295a724e2c03ad7e99181900360600190a150600195945050505050565b60395481565b6000908152603460205260409020600201546001600160a01b031690565b60375481565b600082815260346020526040812061114581612550565b61114e57600080fd5b6001600160a01b038316600090815260049091016020526040902054905092915050565b60355460009081906001600160a01b031661118c57600080fd5b600a603a54106111ce57604080516000815261c38e60208201528151600080516020612a1a833981519152929181900390910190a15061c38e90506000611534565b336000908152603360205260409020546729a2241af62c0000111561122557604080516000815261c39160208201528151600080516020612a1a833981519152929181900390910190a15061c39190506000611534565b426038548701111561126957604080516000815261c39560208201528151600080516020612a1a833981519152929181900390910190a15061c39590506000611534565b611c2f420187106112ac57604080516000815261c37360208201528151600080516020612a1a833981519152929181900390910190a15061c37390506000611534565b60355460408051639e20c80360e01b8152600481018b9052602481018a9052604481018990526064810188905263ffffffff8716608482015260a481018690523360c4820152815160009384936001600160a01b0390911692639e20c8039260e4808301939282900301818787803b15801561132757600080fd5b505af115801561133b573d6000803e3d6000fd5b505050506040513d604081101561135157600080fd5b508051602090910151909250905081156113985760408051828152602081018490528151600080516020612a1a833981519152929181900390910190a19092509050611534565b60008181526034602052604090206113af81612550565b1561140457600681015462010000900460ff16151560011480156113e25750600681015460ff6101009091041615156001145b80156113fb575060018101546001600160a01b03163314155b61140457600080fd5b818155600181018054336001600160a01b03199182168117909255600283018054909116905560068201805462ffffff1981168255426003850181905560395401600585015563ffffffff191690556040805163612b4f2d60e11b81526004810185905260248101929092526729a2241af62c0000604483015251309163c2569e5a9160648083019260209291908290030181600087803b1580156114a857600080fd5b505af11580156114bc573d6000803e3d6000fd5b505050506040513d60208110156114d257600080fd5b5051925082156114e157600080fd5b603a8054600101908190556040805184815233602082015280820192909252517f5f53357548142db44904e21464dc5ffa3e092fb7b155299341125bd259906e309181900360600190a150600093509150505b965096945050505050565b6036546001600160a01b031681565b3360009081526033602052604081205482111561156a57600080fd5b3360009081526033602052604090205461158a908363ffffffff6127ec16565b33600081815260336020526040808220939093559151909184156108fc02918591818181858888f193505050501580156115c8573d6000803e3d6000fd5b50604080513381526020810184905281517f4482101800a5c2e900f4156e57e05e19ffd7b366cde579553d723fd3abb2180e929181900390910190a150503360009081526033602052604090205490565b600081815260346020526040812061163081612550565b158061164557506006810154610100900460ff165b1561167e576040805184815261c3a060208201528151600080516020612a1a833981519152929181900390910190a16000915050610d5c565b600681015460ff16156116bf576040805184815261c3aa60208201528151600080516020612a1a833981519152929181900390910190a16000915050610d5c565b600681015462010000900460ff16156117ea5760068101805461ff001916610100179055603554600182015460408051633a102bc360e11b8152600481018790526001600160a01b0392831660248201529051600093929092169163742057869160448082019260209290919082900301818787803b15801561174157600080fd5b505af1158015611755573d6000803e3d6000fd5b505050506040513d602081101561176b57600080fd5b50519050801561177a57600080fd5b6117848483612614565b603a805460001901908190556002830154604080518781526001600160a01b0390921660208301528181019290925290517f6ebb2f466d4c07e002cf7da3bf393c34f5c693c635dfd53295a724e2c03ad7e99181900360600190a1600092505050610d5c565b80600501544211611829576040805184815261c36e60208201528151600080516020612a1a833981519152929181900390910190a16000915050610d5c565b60068101805461ff00191661010017905560028101546000906001600160a01b03166119635760355460408051632af00c6760e11b81526004810187905290516000926001600160a01b0316916355e018ce916024808301926020929190829003018186803b15801561189b57600080fd5b505afa1580156118af573d6000803e3d6000fd5b505050506040513d60208110156118c557600080fd5b5051603554604080516365702c0f60e11b81526004810184905290519293506000926001600160a01b039092169163cae0581e91602480820192602092909190829003018186803b15801561191957600080fd5b505afa15801561192d573d6000803e3d6000fd5b505050506040513d602081101561194357600080fd5b50519050600481600581111561195557fe5b141561196057600192505b50505b8015611a6a57603554604080516395b45ee760e01b81526004810187905233602482015290516000926001600160a01b0316916395b45ee791604480830192602092919082900301818787803b1580156119bc57600080fd5b505af11580156119d0573d6000803e3d6000fd5b505050506040513d60208110156119e657600080fd5b5051905080156119f557600080fd5b60018301546001600160a01b0316611a0d868261282e565b5050603a80546000190190819055604080518881526001600160a01b038416602082015280820192909252517f761ed2ea8db827133836a35e2fdc1cf23fcfe723b817ceffebb1d571439aad8e9181900360600190a15050611b40565b603554604080516327426f7560e01b81526004810187905233602482015290516000926001600160a01b0316916327426f7591604480830192602092919082900301818787803b158015611abd57600080fd5b505af1158015611ad1573d6000803e3d6000fd5b505050506040513d6020811015611ae757600080fd5b505190508015611af657600080fd5b6001830154604080518781526001600160a01b03909216602083015280517f68c34be3e9c7221898bee267017dda5f7344326a8825b2d4427dfeaba0fa19299281900390910190a1505b5060019392505050565b6729a2241af62c000081565b60355460009081906001600160a01b0316611b7057600080fd5b6000838152603460205260409020611b8781612550565b611bc3576040805185815261c3a060208201528151600080516020612a1a833981519152929181900390910190a161c3a0849250925050611f9d565b60068101546301000000900460ff16151560011415611c14576040805185815261c41860208201528151600080516020612a1a833981519152929181900390910190a161c418849250925050611f9d565b6006810154610100900460ff1680611c365750600681015462010000900460ff165b15611c73576040805185815261c3b460208201528151600080516020612a1a833981519152929181900390910190a161c3b4849250925050611f9d565b600681015460ff1615611cb8576040805185815261c3be60208201528151600080516020612a1a833981519152929181900390910190a161c3be849250925050611f9d565b336000908152603360205260409020546729a2241af62c00001115611d0f576040805185815261c39160208201528151600080516020612a1a833981519152929181900390910190a161c391849250925050611f9d565b6035546040805163c1f67ab360e01b81526004810187905233602482015290516000926001600160a01b03169163c1f67ab391604480830192602092919082900301818787803b158015611d6257600080fd5b505af1158015611d76573d6000803e3d6000fd5b505050506040513d6020811015611d8c57600080fd5b505190508015611dcc5760408051868152602081018390528151600080516020612a1a833981519152929181900390910190a1925060009150611f9d9050565b6040805163612b4f2d60e11b8152600481018790523360248201526729a2241af62c000060448201529051309163c2569e5a9160648083019260209291908290030181600087803b158015611e2057600080fd5b505af1158015611e34573d6000803e3d6000fd5b505050506040513d6020811015611e4a57600080fd5b505190508015611e5957600080fd5b603954420160058301556002820180546001600160a01b0319163390811790915560408051878152602081019290925280517f4e4ec862758a1fd984d86a07836cbea0bb7aec069cc98cd7a543266b270e42e49281900390910190a160365460018301546002840154604080516368ed776f60e11b8152600481018a90526001600160a01b039384166024820152918316604483015251919092169163d1daeede91606480830192600092919082900301818387803b158015611f1b57600080fd5b505af1158015611f2f573d6000803e3d6000fd5b5050505060018201546002830154604080518881526001600160a01b0393841660208201529290911682820152517f39232966947bb72bddd01335ecadedd95920ea1e1f044f9913a5f35e34275d9c9181900360600190a150600601805460ff191660011790555060009050815b915091565b60385481565b603a5481565b6000908152603460205260409020600101546001600160a01b031690565b6035546001600160a01b031681565b6036546001600160a01b03163314611ff257600080fd5b600083815260346020526040902061200981612550565b61201257600080fd5b60068101805460ff1916905560018101546001600160a01b039081169083168114156120505760068201805462ff0000191662010000179055612089565b836001600160a01b0316816001600160a01b031614156120845760068201805463ff00000019166301000000179055612089565b600080fd5b604080518681526001600160a01b03808716602083015285168183015290517f1a6e323d263407d13632ff217899ae9353a07223d311df6db8d80cad6a57c2d59181900360600190a15050505050565b60008181526034602052604081206002603554604080516365702c0f60e11b81526004810187905290516001600160a01b039092169163cae0581e91602480820192602092909190829003018186803b15801561213557600080fd5b505afa158015612149573d6000803e3d6000fd5b505050506040513d602081101561215f57600080fd5b5051600581111561216c57fe5b1480156121845750600681015462010000900460ff16155b80156121955750600681015460ff16155b80156121a45750806005015442115b80156121bc575060028101546001600160a01b031615155b9392505050565b6036546000906001600160a01b03163314806121de57503330145b6121e757600080fd5b60008481526034602052604090206121fe81612550565b61220d5761c3a09150506121bc565b6001600160a01b0384166000908152603360205260409020548311156122385761c3919150506121bc565b6001600160a01b038416600090815260336020526040902054612261908463ffffffff6127ec16565b6001600160a01b0385166000908152603360209081526040808320939093556004840190522054612298908463ffffffff61292216565b6001600160a01b038516600081815260048401602090815260409182902093909355805188815292830191909152818101859052517ff49b89a01f8b7e79e855801f268b5df3d7c88c4bc61293934fc1f9c52ddfeb319181900360600190a1506000949350505050565b60009081526034602052604090206003015490565b600090815260346020526040902060060154610100900460ff1690565b60009081526034602052604090206006015462010000900460ff1690565b6001600160a01b031660009081526033602052604090205490565b60346020526000908152604090208054600182015460028301546003840154600585015460069095015493946001600160a01b03938416949290931692909160ff808216916101008104821691620100008204811691630100000090041689565b600054610100900460ff16806123e757506123e761297c565b806123f5575060005460ff16155b6124305760405162461bcd60e51b815260040180806020018281038252602e815260200180612a3a602e913960400191505060405180910390fd5b600054610100900460ff1615801561245b576000805460ff1961ff0019909116610100171660011790555b603580546001600160a01b038089166001600160a01b03199283161790925560368054928816929091169190911790556038849055603983905560378290556000603a5580156124b1576000805461ff00191690555b505050505050565b60336020526000908152604090205481565b6001600160a01b0382166000908152603360205260409020546124f4908263ffffffff61292216565b6001600160a01b03831660008181526033602090815260409182902093909355805191825291810183905281517fd15c9547ea5c06670c0010ce19bc32d54682a4b3801ece7f3ab0c3f17106b4bb929181900390910190a15050565b600101546001600160a01b0316151590565b600281015460018201546001600160a01b039182169116811580159061259057506001600160a01b03811615155b1561260e576001600160a01b0380831660009081526004850160205260408082205492841682529020546125ca908263ffffffff61292216565b6001600160a01b03831660009081526004860160205260409020556125ef858361282e565b5050506001600160a01b03821660009081526004840160205260408120555b50505050565b600281015460018201546001600160a01b039182169116811580159061264257506001600160a01b03811615155b1561260e576001600160a01b038082166000908152600485016020526040808220549285168252902054670de0b6b3a763ffff199091019061268a908263ffffffff61292216565b6001600160a01b03841660009081526004860160205260409020556126af858461282e565b50506001600160a01b0382166000908152600485016020526040812081905580805b60078310156127e25760355460408051636e5b707160e01b8152600481018b905290516001600160a01b0390921691636e5b70719160248082019261012092909190829003018186803b15801561272757600080fd5b505afa15801561273b573d6000803e3d6000fd5b505050506040513d61012081101561275257600080fd5b5060a081015160c082015160e090920151909950909250905087612775576127e2565b600481600581111561278357fe5b1461278d576126d1565b6001600160a01b0382166000908152603360205260409020546127be9067016345785d8a000063ffffffff61292216565b6001600160a01b0383166000908152603360205260409020556001909201916126d1565b5050505050505050565b60006121bc83836040518060400160405280601e81526020017f536166654d6174683a207375627472616374696f6e206f766572666c6f770000815250612982565b6000828152603460205260408120819061284781612550565b61285a575061c3a091506000905061291b565b6006810154610100900460ff1661287a575061c36491506000905061291b565b6001600160a01b038416600090815260048201602090815260408083208054908490556033909252909120546128b6908263ffffffff61292216565b6001600160a01b03861660008181526033602090815260409182902093909355805189815292830191909152818101839052517faafcd902e5217659ba924addbacae78ebf6a7c77409df0d0065b9ebca01298739181900360600190a1600093509150505b9250929050565b6000828201838110156121bc576040805162461bcd60e51b815260206004820152601b60248201527f536166654d6174683a206164646974696f6e206f766572666c6f770000000000604482015290519081900360640190fd5b303b1590565b60008184841115612a115760405162461bcd60e51b81526004018080602001828103825283818151815260200191508051906020019080838360005b838110156129d65781810151838201526020016129be565b50505050905090810190601f168015612a035780820380516001836020036101000a031916815260200191505b509250505060405180910390fd5b50505090039056fe94bc311f1c6f4ed382aae7a5df5a4917f0ef0289f84bad39fee69c943e85fa33436f6e747261637420696e7374616e63652068617320616c7265616479206265656e20696e697469616c697a6564a265627a7a7231582078f1cbace569bafd888068d16ace530298ea6b6fb3927ad3a7ce97f4515bc62b64736f6c634300050d0032",
  "source": "pragma solidity ^0.5.13;\n\nimport './interfaces/SyscoinSuperblocksI.sol';\nimport './interfaces/SyscoinClaimManagerI.sol';\nimport './interfaces/SyscoinBattleManagerI.sol';\nimport './SyscoinDepositsManager.sol';\nimport './SyscoinErrorCodes.sol';\nimport 'openzeppelin-solidity/contracts/math/SafeMath.sol';\nimport \"@openzeppelin/upgrades/contracts/Initializable.sol\";\n\n// @dev - Manager of superblock claims\n//\n// Manages superblocks proposal and challenges\ncontract SyscoinClaimManager is Initializable, SyscoinDepositsManager, SyscoinErrorCodes {\n\n    using SafeMath for uint;\n\n    uint constant MAX_FUTURE_BLOCK_TIME_SYSCOIN = 7200;\n    uint constant MAX_FUTURE_BLOCK_TIME_ETHEREUM = 15;\n    struct SuperblockClaim {\n        bytes32 superblockHash;                       // Superblock Id\n        address submitter;                           // Superblock submitter\n        address challenger;                         // Superblock challenger\n        uint createdAt;                             // Superblock creation time\n\n        mapping (address => uint) bondedDeposits;   // Deposit associated to submitter+challenger\n\n        uint challengeTimeout;                      // Claim timeout\n\n        bool verificationOngoing;                   // Challenge session has started\n\n        bool decided;                               // If the claim was decided\n        bool invalid;                               // If superblock is invalid\n        bool challengeDefended;                     // has this challenge been defended already, not allowed to re-defend\n    }\n\n    // Active superblock claims\n    mapping (bytes32 => SuperblockClaim) public claims;\n\n    // Superblocks contract\n    SyscoinSuperblocksI public trustedSuperblocks;\n\n    // Battle manager contract\n    SyscoinBattleManagerI public trustedSyscoinBattleManager;\n\n    // Confirmations required to confirm semi approved superblocks\n    uint public superblockConfirmations;\n\n    uint public superblockDelay;    // Delay required to submit superblocks (in seconds)\n    uint public superblockTimeout;  // Timeout for action (in seconds)\n    uint public inProcessCounter;   // how many in progress superblocks do we have? should be below 10 for 10 max commitments of deposits\n    event DepositBonded(bytes32 superblockHash, address account, uint amount);\n    event DepositUnbonded(bytes32 superblockHash, address account, uint amount);\n    event SuperblockClaimCreated(bytes32 superblockHash, address submitter, uint processCounter);\n    event SuperblockClaimChallenged(bytes32 superblockHash, address challenger);\n    event SuperblockBattleDecided(bytes32 superblockHash, address winner, address loser);\n    event SuperblockClaimSuccessful(bytes32 superblockHash, address submitter, uint processCounter);\n    event SuperblockClaimPending(bytes32 superblockHash, address submitter);\n    event SuperblockClaimFailed(bytes32 superblockHash, address challenger, uint processCounter);\n    event VerificationGameStarted(bytes32 superblockHash, address submitter, address challenger);\n\n    event ErrorClaim(bytes32 superblockHash, uint err);\n\n    modifier onlyBattleManager() {\n        require(msg.sender == address(trustedSyscoinBattleManager));\n        _;\n    }\n\n    modifier onlyMeOrBattleManager() {\n        require(msg.sender == address(trustedSyscoinBattleManager) || msg.sender == address(this));\n        _;\n    }\n    \n    // @dev  Sets up the contract managing superblock challenges\n    // @param _superblocks Contract that manages superblocks\n    // @param _battleManager Contract that manages battles\n    // @param _superblockDelay Delay to accept a superblock submission (in seconds)\n    // @param _superblockTimeout Time to wait for challenges (in seconds)\n    // @param _superblockConfirmations Confirmations required to confirm semi approved superblocks\n    function init(\n        SyscoinSuperblocksI _superblocks,\n        SyscoinBattleManagerI _syscoinBattleManager,\n        uint _superblockDelay,\n        uint _superblockTimeout,\n        uint _superblockConfirmations\n    ) public initializer {\n        trustedSuperblocks = _superblocks;\n        trustedSyscoinBattleManager = _syscoinBattleManager;\n        superblockDelay = _superblockDelay;\n        superblockTimeout = _superblockTimeout;\n        superblockConfirmations = _superblockConfirmations;\n        inProcessCounter = 0;\n    }\n\n    // @dev  locks up part of a user's deposit into a claim.\n    // @param superblockHash  claim id.\n    // @param account  user's address.\n    // @param amount  amount of deposit to lock up.\n    // @return  user's deposit bonded for the claim.\n    function bondDeposit(bytes32 superblockHash, address account, uint amount) external onlyMeOrBattleManager returns (uint) {\n        SuperblockClaim storage claim = claims[superblockHash];\n\n        if (!claimExists(claim)) {\n            return ERR_SUPERBLOCK_BAD_CLAIM;\n        }\n\n        if (deposits[account] < amount) {\n            return ERR_SUPERBLOCK_MIN_DEPOSIT;\n        }\n\n        deposits[account] = deposits[account].sub(amount);\n        claim.bondedDeposits[account] = claim.bondedDeposits[account].add(amount);\n        emit DepositBonded(superblockHash, account, amount);\n\n        return ERR_SUPERBLOCK_OK;\n    }\n\n    // @dev  accessor for a claim's bonded deposits.\n    // @param superblockHash  claim id.\n    // @param account  user's address.\n    // @return  user's deposit bonded for the claim.\n    function getBondedDeposit(bytes32 superblockHash, address account) external view returns (uint) {\n        SuperblockClaim storage claim = claims[superblockHash];\n        require(claimExists(claim));\n        return claim.bondedDeposits[account];\n    }\n\n    // @dev  unlocks a user's bonded deposits from a claim.\n    // @param superblockHash  claim id.\n    // @param account  user's address.\n    // @return  user's deposit which was unbonded from the claim.\n    function unbondDeposit(bytes32 superblockHash, address account) private returns (uint, uint) {\n        SuperblockClaim storage claim = claims[superblockHash];\n        if (!claimExists(claim)) {\n            return (ERR_SUPERBLOCK_BAD_CLAIM, 0);\n        }\n        if (!claim.decided) {\n            return (ERR_SUPERBLOCK_BAD_STATUS, 0);\n        }\n\n        uint bondedDeposit = claim.bondedDeposits[account];\n\n        delete claim.bondedDeposits[account];\n        deposits[account] = deposits[account].add(bondedDeposit);\n\n        emit DepositUnbonded(superblockHash, account, bondedDeposit);\n\n        return (ERR_SUPERBLOCK_OK, bondedDeposit);\n    }\n\n    // @dev  Propose a new superblock.\n    //\n    // @param _blocksMerkleRoot Root of the merkle tree of blocks contained in a superblock\n    // @param _timestamp Timestamp of the last block in the superblock\n    // @param _mtpTimestamp Median Timestamp of the last block in the superblock\n    // @param _lastHash Hash of the last block in the superblock\n    // @param _lastBits Difficulty bits of the last block in the superblock bits\n    // @param _parentHash Id of the parent superblock\n    // @return Error code and superblockHash\n    function proposeSuperblock(\n        bytes32 _blocksMerkleRoot,\n        uint _timestamp,\n        uint _mtpTimestamp,\n        bytes32 _lastHash,\n        uint32 _lastBits,\n        bytes32 _parentHash\n    ) external returns (uint, bytes32) {\n        require(address(trustedSuperblocks) != address(0));\n        \n        if (inProcessCounter >= 10){\n            emit ErrorClaim(0, ERR_SUPERBLOCK_MAX_INPROGRESS);\n            return (ERR_SUPERBLOCK_MAX_INPROGRESS, 0);            \n        }\n        if (deposits[msg.sender] < minProposalDeposit) {\n            emit ErrorClaim(0, ERR_SUPERBLOCK_MIN_DEPOSIT);\n            return (ERR_SUPERBLOCK_MIN_DEPOSIT, 0);\n        }\n\n        if (_mtpTimestamp + superblockDelay > block.timestamp) {\n            emit ErrorClaim(0, ERR_SUPERBLOCK_BAD_TIMESTAMP_MTP);\n            return (ERR_SUPERBLOCK_BAD_TIMESTAMP_MTP, 0);\n        }\n\n        if (block.timestamp + MAX_FUTURE_BLOCK_TIME_SYSCOIN + MAX_FUTURE_BLOCK_TIME_ETHEREUM <= _timestamp) {\n            emit ErrorClaim(0, ERR_SUPERBLOCK_BAD_TIMESTAMP);\n            return (ERR_SUPERBLOCK_BAD_TIMESTAMP, 0);\n        }\n\n        uint err;\n        bytes32 superblockHash;\n        (err, superblockHash) = trustedSuperblocks.propose(_blocksMerkleRoot, _timestamp, _mtpTimestamp, _lastHash, _lastBits, _parentHash, msg.sender);\n        if (err != 0) {\n            emit ErrorClaim(superblockHash, err);\n            return (err, superblockHash);\n        }\n\n\n        SuperblockClaim storage claim = claims[superblockHash];\n        // allow to propose an existing claim only if its invalid and decided and its a different submitter or not on the tip\n        // those are the ones that may actually be stuck and need to be proposed again,\n        // but we want to ensure its not the same submitter submitting the same thing\n        if (claimExists(claim)) {\n            require(claim.invalid == true && claim.decided == true && claim.submitter != msg.sender);\n        }\n\n        claim.superblockHash = superblockHash;\n        claim.submitter = msg.sender;\n        claim.challenger = address(0);\n        claim.decided = false;\n        claim.invalid = false;\n        claim.verificationOngoing = false;\n        claim.createdAt = block.timestamp;\n        claim.challengeTimeout = block.timestamp + superblockTimeout;\n        claim.challengeDefended = false;\n        err = this.bondDeposit(superblockHash, msg.sender, minProposalDeposit);\n        require(err == ERR_SUPERBLOCK_OK);\n        inProcessCounter++;\n        emit SuperblockClaimCreated(superblockHash, msg.sender, inProcessCounter);\n        return (ERR_SUPERBLOCK_OK, superblockHash);\n    }\n\n    // @dev  challenge a superblock claim.\n    // @param superblockHash  Id of the superblock to challenge.\n    // @return - Error code and claim Id\n    function challengeSuperblock(bytes32 superblockHash) external returns (uint, bytes32) {\n        require(address(trustedSuperblocks) != address(0));\n\n        SuperblockClaim storage claim = claims[superblockHash];\n\n        if (!claimExists(claim)) {\n            emit ErrorClaim(superblockHash, ERR_SUPERBLOCK_BAD_CLAIM);\n            return (ERR_SUPERBLOCK_BAD_CLAIM, superblockHash);\n        }\n        if(claim.challengeDefended == true){\n            emit ErrorClaim(superblockHash, ERR_SUPERBLOCK_CLAIM_ALREADY_DEFENDED);\n            return (ERR_SUPERBLOCK_CLAIM_ALREADY_DEFENDED, superblockHash);           \n        }\n        if (claim.decided || claim.invalid) {\n            emit ErrorClaim(superblockHash, ERR_SUPERBLOCK_CLAIM_DECIDED);\n            return (ERR_SUPERBLOCK_CLAIM_DECIDED, superblockHash);\n        }\n        if (claim.verificationOngoing) {\n            emit ErrorClaim(superblockHash, ERR_SUPERBLOCK_CHALLENGE_EXISTS);\n            return (ERR_SUPERBLOCK_CHALLENGE_EXISTS, superblockHash);\n        }\n        if (deposits[msg.sender] < minProposalDeposit) {\n            emit ErrorClaim(superblockHash, ERR_SUPERBLOCK_MIN_DEPOSIT);\n            return (ERR_SUPERBLOCK_MIN_DEPOSIT, superblockHash);\n        }\n    \n        uint err = trustedSuperblocks.challenge(superblockHash, msg.sender);\n        if (err != 0) {\n            emit ErrorClaim(superblockHash, err);\n            return (err, 0);\n        }\n\n        err = this.bondDeposit(superblockHash, msg.sender, minProposalDeposit);\n        require(err == ERR_SUPERBLOCK_OK);\n\n        claim.challengeTimeout = block.timestamp + superblockTimeout;\n        claim.challenger = msg.sender;\n        emit SuperblockClaimChallenged(superblockHash, msg.sender);\n\n        trustedSyscoinBattleManager.beginBattleSession(superblockHash, claim.submitter,\n            claim.challenger);\n\n        emit VerificationGameStarted(superblockHash, claim.submitter,\n            claim.challenger);\n\n        claim.verificationOngoing = true;\n        return (ERR_SUPERBLOCK_OK, superblockHash);\n    }\n\n    // @dev  confirm semi approved superblock.\n    //\n    // A semi approved superblock can be confirmed if it has several descendant\n    // superblocks that are also semi-approved.\n    // If none of the descendants were challenged they will also be confirmed.\n    //\n    // @param superblockHash  the claim ID.\n    // @param descendantId - claim ID descendants\n    function confirmClaim(bytes32 superblockHash, bytes32 descendantId) external returns (bool) {\n        uint numSuperblocks = 0;\n        bool confirmDescendants = true;\n        bytes32 id = descendantId;\n        SuperblockClaim storage claim = claims[id];\n        while (id != superblockHash) {\n            if (!claimExists(claim) || claim.invalid) {\n                emit ErrorClaim(superblockHash, ERR_SUPERBLOCK_BAD_CLAIM);\n                return false;\n            }\n            if (trustedSuperblocks.getSuperblockStatus(id) != SyscoinSuperblocksI.Status.SemiApproved) {\n                emit ErrorClaim(superblockHash, ERR_SUPERBLOCK_BAD_STATUS);\n                return false;\n            }\n            if (confirmDescendants && claim.challenger != address(0)) {\n                confirmDescendants = false;\n            }\n            id = trustedSuperblocks.getSuperblockParentId(id);\n            claim = claims[id];\n            numSuperblocks += 1;\n        }\n\n        if (numSuperblocks < superblockConfirmations) {\n            emit ErrorClaim(superblockHash, ERR_SUPERBLOCK_MISSING_CONFIRMATIONS);\n            return false;\n        }\n        if (trustedSuperblocks.getSuperblockStatus(id) != SyscoinSuperblocksI.Status.SemiApproved) {\n            emit ErrorClaim(superblockHash, ERR_SUPERBLOCK_BAD_STATUS);\n            return false;\n        }\n\n        uint err = trustedSuperblocks.confirm(superblockHash, msg.sender);\n        if (err != ERR_SUPERBLOCK_OK) {\n            emit ErrorClaim(superblockHash, err);\n            return false;\n        }\n        doPaySubmitter(superblockHash, claim);\n\n        if (confirmDescendants) {\n            bytes32[] memory descendants = new bytes32[](numSuperblocks);\n            id = descendantId;\n            uint idx = 0;\n            while (id != superblockHash) {\n                descendants[idx] = id;\n                id = trustedSuperblocks.getSuperblockParentId(id);\n                idx += 1;\n            }\n            while (idx > 0) {\n                idx -= 1;\n                id = descendants[idx];\n                claim = claims[id];\n                err = trustedSuperblocks.confirm(id, msg.sender);\n                require(err == ERR_SUPERBLOCK_OK);\n                doPaySubmitter(id, claim);\n                inProcessCounter--;\n                emit SuperblockClaimSuccessful(id, claim.submitter, inProcessCounter);\n            }\n        }\n        inProcessCounter--;\n        emit SuperblockClaimSuccessful(superblockHash, claim.submitter, inProcessCounter);\n        return true;\n    }\n\n    // @dev  Reject a semi approved superblock.\n    //\n    // Superblocks that are not in the main chain can be marked as\n    // invalid.\n    //\n    // @param superblockHash  the claim ID.\n    function rejectClaim(bytes32 superblockHash) external returns (bool) {\n        SuperblockClaim storage claim = claims[superblockHash];\n        if (!claimExists(claim)) {\n            emit ErrorClaim(superblockHash, ERR_SUPERBLOCK_BAD_CLAIM);\n            return false;\n        }\n\n        uint height = trustedSuperblocks.getSuperblockHeight(superblockHash);\n\n        if (height > trustedSuperblocks.getChainHeight()) {\n            emit ErrorClaim(superblockHash, ERR_SUPERBLOCK_BAD_BLOCKHEIGHT);\n            return false;\n        }\n\n        SyscoinSuperblocksI.Status status = trustedSuperblocks.getSuperblockStatus(superblockHash);\n\n        if (status != SyscoinSuperblocksI.Status.SemiApproved) {\n            emit ErrorClaim(superblockHash, ERR_SUPERBLOCK_BAD_STATUS);\n            return false;\n        }\n\n        if (!claim.decided) {\n            emit ErrorClaim(superblockHash, ERR_SUPERBLOCK_CLAIM_DECIDED);\n            return false;\n        }\n\n        uint err = trustedSuperblocks.invalidate(superblockHash, claim.submitter);\n        require(err == ERR_SUPERBLOCK_OK);\n        doPayChallenger(superblockHash, claim);\n        claim.invalid = true;\n        inProcessCounter--;\n        emit SuperblockClaimFailed(superblockHash, claim.challenger, inProcessCounter);\n        return true;\n    }\n\n    // @dev  check whether a claim has successfully withstood all challenges.\n    // If successful without challenges, it will mark the superblock as confirmed.\n    // If successful with at least one challenge, it will mark the superblock as semi-approved.\n    // If verification failed, it will mark the superblock as invalid.\n    //\n    // @param superblockHash  claim ID.\n    function checkClaimFinished(bytes32 superblockHash) external returns (bool) {\n        SuperblockClaim storage claim = claims[superblockHash];\n\n        if (!claimExists(claim) || claim.decided) {\n            emit ErrorClaim(superblockHash, ERR_SUPERBLOCK_BAD_CLAIM);\n            return false;\n        }\n\n        // check that there is no ongoing verification game.\n        if (claim.verificationOngoing) {\n            emit ErrorClaim(superblockHash, ERR_SUPERBLOCK_VERIFICATION_PENDING);\n            return false;\n        }\n\n        // an invalid superblock can be rejected immediately\n        if (claim.invalid) {\n            // The superblock is invalid, submitter abandoned\n            // or superblock data is inconsistent\n            claim.decided = true;\n            uint err = trustedSuperblocks.invalidate(superblockHash, claim.submitter);\n            require(err == ERR_SUPERBLOCK_OK);\n            doPayChallenger(superblockHash, claim);\n            inProcessCounter--;\n            emit SuperblockClaimFailed(superblockHash, claim.challenger, inProcessCounter);\n            return false;\n        }\n\n        // check that the claim has exceeded the claim's specific challenge timeout.\n        if (block.timestamp <= claim.challengeTimeout) {\n            emit ErrorClaim(superblockHash, ERR_SUPERBLOCK_NO_TIMEOUT);\n            return false;\n        }\n\n        claim.decided = true;\n\n        bool confirmImmediately = false;\n        // No challenger and parent approved; confirm immediately\n        if (claim.challenger == address(0)) {\n            bytes32 parentId = trustedSuperblocks.getSuperblockParentId(superblockHash);\n            SyscoinSuperblocksI.Status status = trustedSuperblocks.getSuperblockStatus(parentId);\n            if (status == SyscoinSuperblocksI.Status.Approved) {\n                confirmImmediately = true;\n            }\n        }\n\n        if (confirmImmediately) {\n            uint err = trustedSuperblocks.confirm(superblockHash, msg.sender);\n            require(err == ERR_SUPERBLOCK_OK);\n            address submitter = claim.submitter;\n            unbondDeposit(superblockHash, submitter);\n            inProcessCounter--;\n            emit SuperblockClaimSuccessful(superblockHash, submitter, inProcessCounter);\n        } else {\n            uint err = trustedSuperblocks.semiApprove(superblockHash, msg.sender);\n            require(err == ERR_SUPERBLOCK_OK);\n            emit SuperblockClaimPending(superblockHash, claim.submitter);\n        }\n        return true;\n    }\n\n\n    // @dev  called when a battle session has ended.\n    //\n    // @param superblockHash - claim Id\n    // @param winner  winner of verification game.\n    // @param loser  loser of verification game.\n    function sessionDecided(bytes32 superblockHash, address winner, address loser) external onlyBattleManager {\n        SuperblockClaim storage claim = claims[superblockHash];\n\n        require(claimExists(claim));\n\n        claim.verificationOngoing = false;\n        address submitter = claim.submitter;\n\n        if (submitter == loser) {\n            claim.invalid = true;\n        } else if (submitter == winner) {\n            claim.challengeDefended = true;\n        }\n        else{\n            revert();\n        }\n        emit SuperblockBattleDecided(superblockHash, winner, loser);\n    }\n\n    // @dev - Pay challenger 2 eth and 0.7 to previous submitters, leave 0.3 effectively unspendable\n    function doPayChallenger(bytes32 superblockHash, SuperblockClaim storage claim) private {\n        address challenger = claim.challenger;\n        address submitter = claim.submitter;\n\n        if (challenger != address(0) && submitter != address(0)) {\n            uint reward = claim.bondedDeposits[submitter];\n            reward -= 1000000000000000000; // 1 ether\n            claim.bondedDeposits[challenger] = claim.bondedDeposits[challenger].add(reward);\n            unbondDeposit(superblockHash, challenger);\n            delete claim.bondedDeposits[submitter];\n            // distribute 0.7 eth to last 7 approved superblock submitters (0.1 each)\n            uint numPaid = 0;\n            address prevSubmitter;\n            SyscoinSuperblocksI.Status status;\n            while (numPaid < 7) {\n                (,,,,,superblockHash,prevSubmitter,status,) = trustedSuperblocks.getSuperblock(superblockHash);\n                if(superblockHash == 0x0)\n                    break;\n                if (status != SyscoinSuperblocksI.Status.Approved) {\n                    continue;\n                }\n                deposits[prevSubmitter] = deposits[prevSubmitter].add(100000000000000000); // 0.1 ether\n                numPaid++;\n            } \n        }\n    }\n\n    // @dev - Pay submitter with challenger deposit\n    function doPaySubmitter(bytes32 superblockHash, SuperblockClaim storage claim) private {\n        address challenger = claim.challenger;\n        address submitter = claim.submitter;\n\n        if (challenger != address(0) && submitter != address(0)) {\n            uint reward = claim.bondedDeposits[challenger];\n            claim.bondedDeposits[submitter] = claim.bondedDeposits[submitter].add(reward);\n            unbondDeposit(superblockHash, submitter);\n            delete claim.bondedDeposits[challenger];\n        }\n    }\n\n    // @dev - Check if a superblock can be semi approved by calling checkClaimFinished\n    function getInBattleAndSemiApprovable(bytes32 superblockHash) external view returns (bool) {\n        SuperblockClaim storage claim = claims[superblockHash];\n        return (trustedSuperblocks.getSuperblockStatus(superblockHash) == SyscoinSuperblocksI.Status.InBattle &&\n            !claim.invalid && !claim.verificationOngoing && block.timestamp > claim.challengeTimeout\n            && claim.challenger != address(0));\n    }\n\n    // @dev  Check if a claim exists\n    function claimExists(SuperblockClaim storage claim) private view returns (bool) {\n        return (claim.submitter != address(0));\n    }\n\n    // @dev - Return a given superblock's submitter\n    function getClaimSubmitter(bytes32 superblockHash) external view returns (address) {\n        return claims[superblockHash].submitter;\n    }\n\n    // @dev - Return superblock submission timestamp\n    function getNewSuperblockEventTimestamp(bytes32 superblockHash) external view returns (uint) {\n        return claims[superblockHash].createdAt;\n    }\n\n    // @dev - Return whether or not a claim has already been made\n    function getClaimExists(bytes32 superblockHash) external view returns (bool) {\n        return claimExists(claims[superblockHash]);\n    }\n\n    // @dev - Return claim status\n    function getClaimDecided(bytes32 superblockHash) external view returns (bool) {\n        return claims[superblockHash].decided;\n    }\n\n    // @dev - Check if a claim is invalid\n    function getClaimInvalid(bytes32 superblockHash) external view returns (bool) {\n        // TODO: see if this is redundant with superblock status\n        return claims[superblockHash].invalid;\n    }\n\n\n    function getClaimChallenger(bytes32 superblockHash) external view returns (address) {\n        SuperblockClaim storage claim = claims[superblockHash];\n        return claim.challenger;\n    }\n}\n",
  "sourcePath": "/Users/jsidhu/Documents/GitHub/sysethereum-contracts1/contracts/SyscoinClaimManager.sol",
  "compiler": {
    "name": "solc",
    "version": "0.5.13+commit.5b0b510c.Emscripten.clang"
  },
  "schemaVersion": "3.0.19",
  "updatedAt": "2019-11-29T19:46:00.437Z",
  "devdoc": {
    "methods": {}
  },
  "userdoc": {
    "methods": {}
  }
}