{
  "contractName": "SyscoinMessageLibrary",
  "abi": [
    {
      "constant": true,
      "inputs": [
        {
          "internalType": "bytes",
          "name": "txBytes",
          "type": "bytes"
        },
        {
          "internalType": "uint256",
          "name": "pos",
          "type": "uint256"
        }
      ],
      "name": "parseVarInt",
      "outputs": [
        {
          "internalType": "uint256",
          "name": "",
          "type": "uint256"
        },
        {
          "internalType": "uint256",
          "name": "",
          "type": "uint256"
        }
      ],
      "payable": false,
      "stateMutability": "pure",
      "type": "function"
    },
    {
      "constant": true,
      "inputs": [
        {
          "internalType": "bytes",
          "name": "data",
          "type": "bytes"
        },
        {
          "internalType": "uint256",
          "name": "pos",
          "type": "uint256"
        },
        {
          "internalType": "uint256",
          "name": "bits",
          "type": "uint256"
        }
      ],
      "name": "getBytesLE",
      "outputs": [
        {
          "internalType": "uint256",
          "name": "result",
          "type": "uint256"
        }
      ],
      "payable": false,
      "stateMutability": "pure",
      "type": "function"
    },
    {
      "constant": true,
      "inputs": [
        {
          "internalType": "bytes",
          "name": "txBytes",
          "type": "bytes"
        }
      ],
      "name": "parseBurnTx",
      "outputs": [
        {
          "internalType": "uint256",
          "name": "",
          "type": "uint256"
        },
        {
          "internalType": "uint256",
          "name": "",
          "type": "uint256"
        },
        {
          "internalType": "address",
          "name": "",
          "type": "address"
        },
        {
          "internalType": "uint32",
          "name": "",
          "type": "uint32"
        },
        {
          "internalType": "uint8",
          "name": "",
          "type": "uint8"
        },
        {
          "internalType": "address",
          "name": "",
          "type": "address"
        }
      ],
      "payable": false,
      "stateMutability": "pure",
      "type": "function"
    },
    {
      "constant": true,
      "inputs": [
        {
          "internalType": "bytes",
          "name": "txBytes",
          "type": "bytes"
        },
        {
          "internalType": "uint256",
          "name": "pos",
          "type": "uint256"
        }
      ],
      "name": "getEthReceipt",
      "outputs": [
        {
          "internalType": "bytes",
          "name": "",
          "type": "bytes"
        }
      ],
      "payable": false,
      "stateMutability": "view",
      "type": "function"
    },
    {
      "constant": true,
      "inputs": [
        {
          "internalType": "bytes",
          "name": "ethTxReceipt",
          "type": "bytes"
        },
        {
          "internalType": "bytes32",
          "name": "expectedTopic",
          "type": "bytes32"
        }
      ],
      "name": "getLogValuesForTopic",
      "outputs": [
        {
          "internalType": "bytes",
          "name": "",
          "type": "bytes"
        }
      ],
      "payable": false,
      "stateMutability": "pure",
      "type": "function"
    },
    {
      "constant": true,
      "inputs": [
        {
          "internalType": "bytes",
          "name": "logValues",
          "type": "bytes"
        }
      ],
      "name": "getBridgeTransactionId",
      "outputs": [
        {
          "internalType": "uint256",
          "name": "value",
          "type": "uint256"
        }
      ],
      "payable": false,
      "stateMutability": "pure",
      "type": "function"
    },
    {
      "constant": true,
      "inputs": [
        {
          "internalType": "bytes",
          "name": "input",
          "type": "bytes"
        },
        {
          "internalType": "uint256",
          "name": "pos",
          "type": "uint256"
        }
      ],
      "name": "bytesToUint32Flipped",
      "outputs": [
        {
          "internalType": "uint32",
          "name": "result",
          "type": "uint32"
        }
      ],
      "payable": false,
      "stateMutability": "pure",
      "type": "function"
    },
    {
      "constant": true,
      "inputs": [
        {
          "internalType": "bytes",
          "name": "_dataBytes",
          "type": "bytes"
        }
      ],
      "name": "dblShaFlip",
      "outputs": [
        {
          "internalType": "uint256",
          "name": "",
          "type": "uint256"
        }
      ],
      "payable": false,
      "stateMutability": "pure",
      "type": "function"
    },
    {
      "constant": true,
      "inputs": [
        {
          "internalType": "bytes",
          "name": "_rawBytes",
          "type": "bytes"
        },
        {
          "internalType": "uint256",
          "name": "offset",
          "type": "uint256"
        },
        {
          "internalType": "uint256",
          "name": "len",
          "type": "uint256"
        }
      ],
      "name": "sha256mem",
      "outputs": [
        {
          "internalType": "bytes32",
          "name": "result",
          "type": "bytes32"
        }
      ],
      "payable": false,
      "stateMutability": "view",
      "type": "function"
    },
    {
      "constant": true,
      "inputs": [
        {
          "internalType": "bytes",
          "name": "_rawBytes",
          "type": "bytes"
        },
        {
          "internalType": "uint256",
          "name": "offset",
          "type": "uint256"
        },
        {
          "internalType": "uint256",
          "name": "len",
          "type": "uint256"
        }
      ],
      "name": "dblShaFlipMem",
      "outputs": [
        {
          "internalType": "uint256",
          "name": "",
          "type": "uint256"
        }
      ],
      "payable": false,
      "stateMutability": "view",
      "type": "function"
    },
    {
      "constant": true,
      "inputs": [
        {
          "internalType": "bytes",
          "name": "input",
          "type": "bytes"
        },
        {
          "internalType": "uint256",
          "name": "pos",
          "type": "uint256"
        }
      ],
      "name": "bytesToUint64",
      "outputs": [
        {
          "internalType": "uint64",
          "name": "result",
          "type": "uint64"
        }
      ],
      "payable": false,
      "stateMutability": "pure",
      "type": "function"
    },
    {
      "constant": true,
      "inputs": [
        {
          "internalType": "bytes",
          "name": "input",
          "type": "bytes"
        },
        {
          "internalType": "uint256",
          "name": "pos",
          "type": "uint256"
        }
      ],
      "name": "bytesToUint32",
      "outputs": [
        {
          "internalType": "uint32",
          "name": "result",
          "type": "uint32"
        }
      ],
      "payable": false,
      "stateMutability": "pure",
      "type": "function"
    },
    {
      "constant": true,
      "inputs": [
        {
          "internalType": "uint256",
          "name": "_input",
          "type": "uint256"
        }
      ],
      "name": "flip32Bytes",
      "outputs": [
        {
          "internalType": "uint256",
          "name": "result",
          "type": "uint256"
        }
      ],
      "payable": false,
      "stateMutability": "pure",
      "type": "function"
    },
    {
      "constant": true,
      "inputs": [
        {
          "internalType": "bytes32[]",
          "name": "hashes",
          "type": "bytes32[]"
        }
      ],
      "name": "makeMerkle",
      "outputs": [
        {
          "internalType": "bytes32",
          "name": "",
          "type": "bytes32"
        }
      ],
      "payable": false,
      "stateMutability": "pure",
      "type": "function"
    },
    {
      "constant": true,
      "inputs": [
        {
          "internalType": "uint256",
          "name": "_txHash",
          "type": "uint256"
        },
        {
          "internalType": "uint256",
          "name": "_txIndex",
          "type": "uint256"
        },
        {
          "internalType": "uint256[]",
          "name": "_siblings",
          "type": "uint256[]"
        }
      ],
      "name": "computeMerkle",
      "outputs": [
        {
          "internalType": "uint256",
          "name": "",
          "type": "uint256"
        }
      ],
      "payable": false,
      "stateMutability": "pure",
      "type": "function"
    },
    {
      "constant": true,
      "inputs": [
        {
          "internalType": "bytes",
          "name": "_blockHeader",
          "type": "bytes"
        }
      ],
      "name": "getHeaderMerkleRoot",
      "outputs": [
        {
          "internalType": "uint256",
          "name": "",
          "type": "uint256"
        }
      ],
      "payable": false,
      "stateMutability": "pure",
      "type": "function"
    },
    {
      "constant": true,
      "inputs": [
        {
          "internalType": "uint32",
          "name": "_bits",
          "type": "uint32"
        }
      ],
      "name": "targetFromBits",
      "outputs": [
        {
          "internalType": "uint256",
          "name": "",
          "type": "uint256"
        }
      ],
      "payable": false,
      "stateMutability": "pure",
      "type": "function"
    },
    {
      "constant": true,
      "inputs": [
        {
          "internalType": "bytes",
          "name": "_rawBytes",
          "type": "bytes"
        },
        {
          "internalType": "uint256",
          "name": "pos",
          "type": "uint256"
        }
      ],
      "name": "bytesToBytes32",
      "outputs": [
        {
          "internalType": "bytes32",
          "name": "",
          "type": "bytes32"
        }
      ],
      "payable": false,
      "stateMutability": "pure",
      "type": "function"
    },
    {
      "constant": true,
      "inputs": [
        {
          "internalType": "bytes",
          "name": "input",
          "type": "bytes"
        },
        {
          "internalType": "uint256",
          "name": "pos",
          "type": "uint256"
        }
      ],
      "name": "bytesToUint16",
      "outputs": [
        {
          "internalType": "uint16",
          "name": "result",
          "type": "uint16"
        }
      ],
      "payable": false,
      "stateMutability": "pure",
      "type": "function"
    },
    {
      "constant": true,
      "inputs": [
        {
          "internalType": "bytes",
          "name": "txBytes",
          "type": "bytes"
        },
        {
          "internalType": "uint256",
          "name": "pos",
          "type": "uint256"
        }
      ],
      "name": "getOpReturnPos",
      "outputs": [
        {
          "internalType": "uint256",
          "name": "",
          "type": "uint256"
        }
      ],
      "payable": false,
      "stateMutability": "pure",
      "type": "function"
    },
    {
      "constant": true,
      "inputs": [
        {
          "internalType": "bytes",
          "name": "_rawBytes",
          "type": "bytes"
        },
        {
          "internalType": "uint256",
          "name": "offset",
          "type": "uint256"
        },
        {
          "internalType": "uint256",
          "name": "_endIndex",
          "type": "uint256"
        }
      ],
      "name": "sliceArray",
      "outputs": [
        {
          "internalType": "bytes",
          "name": "",
          "type": "bytes"
        }
      ],
      "payable": false,
      "stateMutability": "view",
      "type": "function"
    }
  ],
  "bytecode": "0x608060405234801561001057600080fd5b50612540806100206000396000f3fe608060405234801561001057600080fd5b50600436106101375760003560e01c80636823c56b116100b8578063d5c9712f1161007c578063d5c9712f14610b64578063e8f421df14610c0d578063f91f681f14610cf5578063f9b5d7c014610d18578063fbb381a714610db9578063fc96c39614610e5f57610137565b80636823c56b146108aa578063b6f6580a1461094e578063b79bbf461461096b578063b7a8121814610a11578063d0f9410b14610ab757610137565b80634b6986fd116100ff5780634b6986fd1461053a5780634d7dcfbd146105fd57806353584939146106bc57806353a3273d14610762578063543a86f61461080657610137565b8063029c5e2a1461013c5780630c9897d2146101fb5780632ef955e4146102b65780633e0e8a201461035f578063484162be1461047d575b600080fd5b6101e26004803603604081101561015257600080fd5b810190602081018135600160201b81111561016c57600080fd5b82018360208201111561017e57600080fd5b803590602001918460018302840111600160201b8311171561019f57600080fd5b91908080601f0160208091040260200160405190810160405280939291908181526020018383808284376000920191909152509295505091359250610f05915050565b6040805163ffffffff9092168252519081900360200190f35b6102a46004803603606081101561021157600080fd5b810190602081018135600160201b81111561022b57600080fd5b82018360208201111561023d57600080fd5b803590602001918460018302840111600160201b8311171561025e57600080fd5b91908080601f0160208091040260200160405190810160405280939291908181526020018383808284376000920191909152509295505082359350505060200135610f41565b60408051918252519081900360200190f35b6102a4600480360360608110156102cc57600080fd5b810190602081018135600160201b8111156102e657600080fd5b8201836020820111156102f857600080fd5b803590602001918460018302840111600160201b8311171561031957600080fd5b91908080601f0160208091040260200160405190810160405280939291908181526020018383808284376000920191909152509295505082359350505060200135611004565b6104086004803603606081101561037557600080fd5b810190602081018135600160201b81111561038f57600080fd5b8201836020820111156103a157600080fd5b803590602001918460018302840111600160201b831117156103c257600080fd5b91908080601f0160208091040260200160405190810160405280939291908181526020018383808284376000920191909152509295505082359350505060200135611029565b6040805160208082528351818301528351919283929083019185019080838360005b8381101561044257818101518382015260200161042a565b50505050905090810190601f16801561046f5780820380516001836020036101000a031916815260200191505b509250505060405180910390f35b6105236004803603604081101561049357600080fd5b810190602081018135600160201b8111156104ad57600080fd5b8201836020820111156104bf57600080fd5b803590602001918460018302840111600160201b831117156104e057600080fd5b91908080601f0160208091040260200160405190810160405280939291908181526020018383808284376000920191909152509295505091359250611084915050565b6040805161ffff9092168252519081900360200190f35b6105e06004803603604081101561055057600080fd5b810190602081018135600160201b81111561056a57600080fd5b82018360208201111561057c57600080fd5b803590602001918460018302840111600160201b8311171561059d57600080fd5b91908080601f01602080910402602001604051908101604052809392919081815260200183838082843760009201919091525092955050913592506110c6915050565b6040805167ffffffffffffffff9092168252519081900360200190f35b6106a36004803603604081101561061357600080fd5b810190602081018135600160201b81111561062d57600080fd5b82018360208201111561063f57600080fd5b803590602001918460018302840111600160201b8311171561066057600080fd5b91908080601f01602080910402602001604051908101604052809392919081815260200183838082843760009201919091525092955050913592506111fa915050565b6040805192835260208301919091528051918290030190f35b6102a4600480360360408110156106d257600080fd5b810190602081018135600160201b8111156106ec57600080fd5b8201836020820111156106fe57600080fd5b803590602001918460018302840111600160201b8311171561071f57600080fd5b91908080601f01602080910402602001604051908101604052809392919081815260200183838082843760009201919091525092955050913592506112ad915050565b6102a46004803603602081101561077857600080fd5b810190602081018135600160201b81111561079257600080fd5b8201836020820111156107a457600080fd5b803590602001918460018302840111600160201b831117156107c557600080fd5b91908080601f0160208091040260200160405190810160405280939291908181526020018383808284376000920191909152509295506112bb945050505050565b6102a46004803603602081101561081c57600080fd5b810190602081018135600160201b81111561083657600080fd5b82018360208201111561084857600080fd5b803590602001918460018302840111600160201b8311171561086957600080fd5b91908080601f0160208091040260200160405190810160405280939291908181526020018383808284376000920191909152509295506112c2945050505050565b6102a4600480360360208110156108c057600080fd5b810190602081018135600160201b8111156108da57600080fd5b8201836020820111156108ec57600080fd5b803590602001918460018302840111600160201b8311171561090d57600080fd5b91908080601f016020809104026020016040519081016040528093929190818152602001838380828437600092019190915250929550611407945050505050565b6102a46004803603602081101561096457600080fd5b503561141f565b6102a46004803603604081101561098157600080fd5b810190602081018135600160201b81111561099b57600080fd5b8201836020820111156109ad57600080fd5b803590602001918460018302840111600160201b831117156109ce57600080fd5b91908080601f0160208091040260200160405190810160405280939291908181526020018383808284376000920191909152509295505091359250611549915050565b61040860048036036040811015610a2757600080fd5b810190602081018135600160201b811115610a4157600080fd5b820183602082011115610a5357600080fd5b803590602001918460018302840111600160201b83111715610a7457600080fd5b91908080601f0160208091040260200160405190810160405280939291908181526020018383808284376000920191909152509295505091359250611703915050565b6102a460048036036060811015610acd57600080fd5b813591602081013591810190606081016040820135600160201b811115610af357600080fd5b820183602082011115610b0557600080fd5b803590602001918460208302840111600160201b83111715610b2657600080fd5b9190808060200260200160405190810160405280939291908181526020018383602002808284376000920191909152509295506117c7945050505050565b6102a460048036036060811015610b7a57600080fd5b810190602081018135600160201b811115610b9457600080fd5b820183602082011115610ba657600080fd5b803590602001918460018302840111600160201b83111715610bc757600080fd5b91908080601f01602080910402602001604051908101604052809392919081815260200183838082843760009201919091525092955050823593505050602001356119e1565b610cb160048036036020811015610c2357600080fd5b810190602081018135600160201b811115610c3d57600080fd5b820183602082011115610c4f57600080fd5b803590602001918460018302840111600160201b83111715610c7057600080fd5b91908080601f016020809104026020016040519081016040528093929190818152602001838380828437600092019190915250929550611a1b945050505050565b6040805196875260208701959095526001600160a01b039384168686015263ffffffff909216606086015260ff1660808501521660a0830152519081900360c00190f35b6102a460048036036020811015610d0b57600080fd5b503563ffffffff16611ab2565b6102a460048036036020811015610d2e57600080fd5b810190602081018135600160201b811115610d4857600080fd5b820183602082011115610d5a57600080fd5b803590602001918460208302840111600160201b83111715610d7b57600080fd5b919080806020026020016040519081016040528093929190818152602001838360200280828437600092019190915250929550611ad5945050505050565b61040860048036036040811015610dcf57600080fd5b810190602081018135600160201b811115610de957600080fd5b820183602082011115610dfb57600080fd5b803590602001918460018302840111600160201b83111715610e1c57600080fd5b91908080601f0160208091040260200160405190810160405280939291908181526020018383808284376000920191909152509295505091359250611d8d915050565b6101e260048036036040811015610e7557600080fd5b810190602081018135600160201b811115610e8f57600080fd5b820183602082011115610ea157600080fd5b803590602001918460018302840111600160201b83111715610ec257600080fd5b91908080601f0160208091040260200160405190810160405280939291908181526020018383808284376000920191909152509295505091359250611e83915050565b6000816020840101516040518160031a60008201538160021a60018201538160011a60028201538160001a60038201535160e01c949350505050565b6000610ffc6002610f53868686611004565b604051602001808281526020019150506040516020818303038152906040526040518082805190602001908083835b60208310610fa15780518252601f199092019160209182019101610f82565b51815160209384036101000a60001901801990921691161790526040519190930194509192505080830381855afa158015610fe0573d6000803e3d6000fd5b5050506040513d6020811015610ff557600080fd5b505161141f565b949350505050565b60006040516020818486602089010160025afa61102057600080fd5b51949350505050565b6060600083830390506060816040519080825280601f01601f19166020018201604052801561105f576020820181803883390190505b5090508160208201838760208a010160045afa61107b57600080fd5b95945050505050565b600082828151811061109257fe5b602001015160f81c60f81b60f81c60ff16610100028383600101815181106110b657fe5b016020015160f81c019392505050565b60008282815181106110d457fe5b602001015160f81c60f81b60f81c60ff16670100000000000000028383600101815181106110fe57fe5b602001015160f81c60f81b60f81c60ff1666010000000000000284846002018151811061112757fe5b602001015160f81c60f81b60f81c60ff16650100000000000285856003018151811061114f57fe5b602001015160f81c60f81b60f81c60ff16600160201b0286866004018151811061117557fe5b602001015160f81c60f81b60f81c60ff1663010000000287876005018151811061119b57fe5b602001015160f81c60f81b60f81c60ff1662010000028888600601815181106111c057fe5b602001015160f81c60f81b60f81c60ff16610100028989600701815181106111e457fe5b016020015160f81c010101010101019392505050565b600080600084848151811061120b57fe5b01602001516001949094019360f81c905060fd8110156112325760ff1691508290506112a6565b8060ff1660fd14156112585761124a858560106119e1565b8460020192509250506112a6565b8060ff1660fe141561127e57611270858560206119e1565b8460040192509250506112a6565b8060ff1660ff14156112a457611296858560406119e1565b8460080192509250506112a6565b505b9250929050565b818101602001515b92915050565b6060015190565b60006113ff600280846040516020018082805190602001908083835b602083106112fd5780518252601f1990920191602091820191016112de565b6001836020036101000a0380198251168184511680821785525050505050509050019150506040516020818303038152906040526040518082805190602001908083835b602083106113605780518252601f199092019160209182019101611341565b51815160209384036101000a60001901801990921691161790526040519190930194509192505080830381855afa15801561139f573d6000803e3d6000fd5b5050506040513d60208110156113b457600080fd5b505160408051602081810193909352815180820384018152908201918290528051909282919084019080838360208310610fa15780518252601f199092019160209182019101610f82565b90505b919050565b60448101516000906114188161141f565b9392505050565b60405160009060ff8316815382601e1a600182015382601d1a600282015382601c1a600382015382601b1a600482015382601a1a60058201538260191a60068201538260181a60078201538260171a60088201538260161a60098201538260151a600a8201538260141a600b8201538260131a600c8201538260121a600d8201538260111a600e8201538260101a600f82015382600f1a601082015382600e1a601182015382600d1a601282015382600c1a601382015382600b1a601482015382600a1a60158201538260091a60168201538260081a60178201538260071a60188201538260061a60198201538260051a601a8201538260041a601b8201538260031a601c8201538260021a601d8201538260011a601e8201538260001a601f8201535192915050565b600080600080600061155b87876111fa565b96509350836115bd5761156e87876111fa565b96509350836115ae5760405162461bcd60e51b815260040180806020018281038252603e815260200180612447603e913960400191505060405180910390fd5b6115b887876111fa565b965093505b606484106115fc5760405162461bcd60e51b81526004018080602001828103825260438152602001806124c96043913960600191505060405180910390fd5b60005b848110156116285760248701965061161788886111fa565b8101600401975093506001016115ff565b5061163387876111fa565b96509050600a81106116765760405162461bcd60e51b81526004018080602001828103825260448152602001806124856044913960600191505060405180910390fd5b60005b818110156116cb5760088701965061169188886111fa565b9750935061169f8888611f12565b6116b05795830195600092506116c3565b60018701965086955050505050506112b5565b600101611679565b5060405162461bcd60e51b815260040180806020018281038252603a81526020018061240d603a913960400191505060405180910390fd5b6040805160008082526020820190925260609161172085856111fa565b81019450905061173085856111fa565b81019450905061174085856111fa565b81019450905061175085856111fa565b81019450905061176085856111fa565b9450905060028114156117af5760006117798686611084565b94820194905061178986866111fa565b61ffff831690810196509092506117a7908790879085038101611029565b9250506117bf565b6117bc8585838701611029565b91505b509392505050565b8051600090815b81811015611811576117f28482815181106117e557fe5b602002602001015161141f565b8482815181106117fe57fe5b60209081029190910101526001016117ce565b5060008061181e8761141f565b90505b828210156119cd57600085838151811061183757fe5b602002602001015190506000806002898161184e57fe5b0660011415611861575081905082611867565b50829050815b600280838360405160200180838152602001828152602001925050506040516020818303038152906040526040518082805190602001908083835b602083106118c15780518252601f1990920191602091820191016118a2565b51815160209384036101000a60001901801990921691161790526040519190930194509192505080830381855afa158015611900573d6000803e3d6000fd5b5050506040513d602081101561191557600080fd5b50516040805160208181019390935281518082038401815290820191829052805190928291908401908083835b602083106119615780518252601f199092019160209182019101611942565b51815160209384036101000a60001901801990921691161790526040519190930194509192505080830381855afa1580156119a0573d6000803e3d6000fd5b5050506040513d60208110156119b557600080fd5b50519350600289049850600185019450505050611821565b6119d68161141f565b979650505050505050565b6000805b600883048110156117bf578060080260020a8582860181518110611a0557fe5b016020015160f81c0291909101906001016119e5565b6000808080808080808080808080611a338e82610f05565b935063ffffffff841661740714611a6057506127ba9b50949950919750919550919350909150611aa99050565b611a6b8e6004611549565b9050611a778e82611f41565b809750819650829a50839950849b505050505050600087868885878595509c509c509c509c509c509c50505050505050505b91939550919395565b62ffffff8116630100000063ffffffff92831604909116600219016101000a0290565b80516000906001811415611b005782600081518110611af057fe5b6020026020010151915050611402565b60008111611b4b576040805162461bcd60e51b81526020600482015260136024820152724d7573742070726f766964652068617368657360681b604482015290519081900360640190fd5b60005b81811015611b9757611b75848281518110611b6557fe5b602002602001015160001c61141f565b60001b848281518110611b8457fe5b6020908102919091010152600101611b4e565b6000805b6001841115611d73575060009150815b83831015611d6b57838360010110611bc65760018403611bcb565b826001015b9150600280878581518110611bdc57fe5b6020026020010151888581518110611bf057fe5b602002602001015160405160200180838152602001828152602001925050506040516020818303038152906040526040518082805190602001908083835b60208310611c4d5780518252601f199092019160209182019101611c2e565b51815160209384036101000a60001901801990921691161790526040519190930194509192505080830381855afa158015611c8c573d6000803e3d6000fd5b5050506040513d6020811015611ca157600080fd5b50516040805160208181019390935281518082038401815290820191829052805190928291908401908083835b60208310611ced5780518252601f199092019160209182019101611cce565b51815160209384036101000a60001901801990921691161790526040519190930194509192505080830381855afa158015611d2c573d6000803e3d6000fd5b5050506040513d6020811015611d4157600080fd5b50518651879083908110611d5157fe5b602090810291909101015260029290920191600101611bab565b809350611b9b565b611d8386600081518110611b6557fe5b9695505050505050565b606080611da1611d9c8561206c565b612091565b90506060611dc282600381518110611db557fe5b6020026020010151612091565b905060005b8151811015611e43576060611de1838381518110611db557fe5b90506060611e0282600181518110611df557fe5b6020026020010151612162565b90506000611e118260016112ad565b905087811415611e3857611e2b83600281518110611df557fe5b96505050505050506112b5565b505050600101611dc7565b506040805162461bcd60e51b815260206004820152600f60248201526e151bdc1a58c81b9bdd08199bdd5b99608a1b604482015290519081900360640190fd5b6000828281518110611e9157fe5b602001015160f81c60f81b60f81c60ff16630100000002838360010181518110611eb757fe5b602001015160f81c60f81b60f81c60ff166201000002848460020181518110611edc57fe5b602001015160f81c60f81b60f81c60ff1661010002858560030181518110611f0057fe5b016020015160f81c0101019392505050565b8151600090603560f91b90849084908110611f2957fe5b01602001516001600160f81b03191614905092915050565b6000806000806000806000806000806000611f5c8d8d6121db565b9c509050600460ff821614611f7057600080fd5b611f7a8d8d611e83565b95508060ff168c019b50611f8e8d8d6121db565b9c509050600860ff821614611fa257600080fd5b611fac8d8d6110c6565b67ffffffffffffffff1692508060ff168c019b50611fca8d8d6121db565b9c509050601460ff821614611fde57600080fd5b611fe88d8d61220d565b94508060ff168c019b50611ffc8d8d6121db565b9c509050600160ff82161461201057600080fd5b8c8c8151811061201c57fe5b016020015160ff82169c909c019b60f81c91506120398d8d6121db565b9c509050601460ff82161461204d57600080fd5b6120578d8d61220d565b929d949c50949a509850965090945050505050565b6120746123f2565b506040805180820190915281518152602082810190820152919050565b606061209c82612215565b6120a557600080fd5b60006120b08361224f565b90506060816040519080825280602002602001820160405280156120ee57816020015b6120db6123f2565b8152602001906001900390816120d35790505b509050600061210085602001516122ab565b60208601510190506000805b848110156121575761211d8361230e565b915060405180604001604052808381526020018481525084828151811061214057fe5b60209081029190910101529181019160010161210c565b509195945050505050565b805160609061217057600080fd5b600061217f83602001516122ab565b83516040805191839003808352601f19601f82011683016020019091529192506060908280156121b6576020820181803883390190505b50905060008160200190506121d28487602001510182856123a7565b50949350505050565b600080835183106121eb57600080fd5b8383815181106121f757fe5b016020015160f81c915050600182019250929050565b016014015190565b805160009061222657506000611402565b6020820151805160001a9060c082101561224557600092505050611402565b5060019392505050565b805160009061226057506000611402565b6000809050600061227484602001516122ab565b602085015185519181019250015b808210156122a2576122938261230e565b60019093019290910190612282565b50909392505050565b8051600090811a60808110156122c5576000915050611402565b60b88110806122e0575060c081108015906122e0575060f881105b156122ef576001915050611402565b60c08110156123035760b519019050611402565b60f519019050611402565b80516000908190811a608081101561232957600191506123a0565b60b881101561233e57607e19810191506123a0565b60c081101561236b5760b78103600185019450806020036101000a855104600182018101935050506123a0565b60f88110156123805760be19810191506123a0565b60f78103600185019450806020036101000a855104600182018101935050505b5092915050565b806123b1576123ed565b5b602081106123d1578251825260209283019290910190601f19016123b2565b8251825160208390036101000a60001901801990921691161782525b505050565b60405180604001604052806000815260200160008152509056fe23537973636f696e4d6573736167654c696272617279206765744f7052657475726e506f7328293a204e6f204f7052657475726e20666f756e6423537973636f696e4d6573736167654c696272617279206765744f7052657475726e506f7328293a20556e65787065637465642064756d6d792f666c616723537973636f696e4d6573736167654c696272617279206765744f7052657475726e506f7328293a20496e636f72726563742073697a65206f66206e5f6f75747075747323537973636f696e4d6573736167654c696272617279206765744f7052657475726e506f7328293a20496e636f72726563742073697a65206f66206e5f696e70757473a265627a7a72315820e4ba8633b007aeda1b1866fc163d803f344c6cf6ce61ef42206f8f6bdc7306a164736f6c634300050d0032",
  "source": "pragma solidity ^0.5.13;\n\nimport \"solidity-rlp/contracts/RLPReader.sol\";\n\n// parse a raw Syscoin transaction byte array\ncontract SyscoinMessageLibrary {\n\n    using RLPReader for RLPReader.RLPItem;\n    using RLPReader for bytes;\n\n    uint constant ERR_PARSE_TX_SYS = 10170;\n    enum Network { MAINNET, TESTNET, REGTEST }\n    uint32 constant SYSCOIN_TX_VERSION_ALLOCATION_BURN_TO_ETHEREUM = 0x7407;\n\n    // Convert a variable integer into something useful and return it and\n    // the index to after it.\n    function parseVarInt(bytes memory txBytes, uint pos) public pure returns (uint, uint) {\n        // the first byte tells us how big the integer is\n        uint8 ibit = uint8(txBytes[pos]);\n        pos += 1;  // skip ibit\n\n        if (ibit < 0xfd) {\n            return (ibit, pos);\n        } else if (ibit == 0xfd) {\n            return (getBytesLE(txBytes, pos, 16), pos + 2);\n        } else if (ibit == 0xfe) {\n            return (getBytesLE(txBytes, pos, 32), pos + 4);\n        } else if (ibit == 0xff) {\n            return (getBytesLE(txBytes, pos, 64), pos + 8);\n        }\n    }\n    // convert little endian bytes to uint\n    function getBytesLE(bytes memory data, uint pos, uint bits)\n        public\n        pure\n        returns (uint256 result)\n    {\n        for (uint256 i = 0; i < bits / 8; i++) {\n            result += uint256(uint8(data[pos + i])) * 2 ** (i * 8);\n        }\n    }\n\n    // @dev - Parses a syscoin tx\n    //\n    // @param txBytes - tx byte array\n    // Outputs\n    // @return output_value - amount sent to the lock address in satoshis\n    // @return destinationAddress - ethereum destination address\n    function parseBurnTx(bytes memory txBytes)\n        public\n        pure\n        returns (uint, uint, address, uint32, uint8, address)\n    {\n        uint output_value;\n        uint32 assetGUID;\n        address destinationAddress;\n        uint32 version;\n        address erc20Address;\n        uint8 precision;\n        uint pos = 0;\n        version = bytesToUint32Flipped(txBytes, pos);\n        if(version != SYSCOIN_TX_VERSION_ALLOCATION_BURN_TO_ETHEREUM){\n            return (ERR_PARSE_TX_SYS, output_value, destinationAddress, assetGUID, precision, erc20Address);\n        }\n        pos = getOpReturnPos(txBytes, 4);\n        (output_value, destinationAddress, assetGUID, precision, erc20Address) = scanAssetDetails(txBytes, pos);\n        return (0, output_value, destinationAddress, assetGUID, precision, erc20Address);\n    }\n\n    function skipInputs(bytes memory txBytes, uint pos)\n        private\n        pure\n        returns (uint)\n    {\n        uint n_inputs;\n        uint script_len;\n        (n_inputs, pos) = parseVarInt(txBytes, pos);\n        // if dummy 0x00 is present this is a witness transaction\n        if(n_inputs == 0x00){\n            (n_inputs, pos) = parseVarInt(txBytes, pos); // flag\n            require(n_inputs != 0x00);\n            // after dummy/flag the real var int comes for txins\n            (n_inputs, pos) = parseVarInt(txBytes, pos);\n        }\n        require(n_inputs < 100);\n\n        for (uint i = 0; i < n_inputs; i++) {\n            pos += 36;  // skip outpoint\n            (script_len, pos) = parseVarInt(txBytes, pos);\n            pos += script_len + 4;  // skip sig_script, seq\n        }\n\n        return pos;\n    }           \n    // scan the burn outputs and return the value and script data of first burned output.\n    function scanBurns(bytes memory txBytes, uint pos)\n        private\n        pure\n        returns (uint, address, uint32, uint8, address)\n    {\n        uint script_len;\n        uint output_value;\n        uint32 assetGUID = 0;\n        address destinationAddress;\n        address erc20Address;\n        uint8 precision;\n        uint n_outputs;\n        (n_outputs, pos) = parseVarInt(txBytes, pos);\n        require(n_outputs < 10);\n        for (uint i = 0; i < n_outputs; i++) {\n            pos += 8;\n            // varint\n            (script_len, pos) = parseVarInt(txBytes, pos);\n            if(!isOpReturn(txBytes, pos)){\n                // output script\n                pos += script_len;\n                output_value = 0;\n                continue;\n            }\n            // skip opreturn marker\n            pos += 1;\n            (output_value, destinationAddress, assetGUID, precision, erc20Address) = scanAssetDetails(txBytes, pos);  \n            // only one opreturn data allowed per transaction\n            break;\n        }\n\n        return (output_value, destinationAddress, assetGUID, precision, erc20Address);\n    }\n    \n    // Returns true if the tx output is an OP_RETURN output\n    function isOpReturn(bytes memory txBytes, uint pos) private pure returns (bool) {\n        // scriptPub format is\n        // 0x6a OP_RETURN\n        return \n            txBytes[pos] == byte(0x6a);\n    }\n\n    // Returns asset data parsed from the op_return data output from syscoin asset burn transaction\n    function scanAssetDetails(bytes memory txBytes, uint pos)\n        private\n        pure\n        returns (uint, address, uint32, uint8, address)\n    {\n        uint32 assetGUID;\n        address destinationAddress;\n        address erc20Address;\n        uint output_value;\n        uint8 precision;\n        uint8 op;\n        // vchAsset\n        (op, pos) = getOpcode(txBytes, pos);\n        // guid length should be 4 bytes\n        require(op == 0x04);\n        assetGUID = bytesToUint32(txBytes, pos);\n        pos += op;\n        // amount\n        (op, pos) = getOpcode(txBytes, pos);\n        require(op == 0x08);\n        output_value = bytesToUint64(txBytes, pos);\n        pos += op;\n         // destination address\n        (op, pos) = getOpcode(txBytes, pos);\n        // ethereum contracts are 20 bytes (without the 0x)\n        require(op == 0x14);\n        destinationAddress = readEthereumAddress(txBytes, pos);\n        pos += op;\n        // precision\n        (op, pos) = getOpcode(txBytes, pos);\n        require(op == 0x01);\n        precision = uint8(txBytes[pos]);\n        pos += op;\n        // erc20Address\n        (op, pos) = getOpcode(txBytes, pos);\n        require(op == 0x14);\n        erc20Address = readEthereumAddress(txBytes, pos);\n        return (output_value, destinationAddress, assetGUID, precision, erc20Address);\n    }\n\n    /**\n     * Parse txBytes and returns ethereum tx receipt\n     * @param txBytes syscoin raw transaction\n     * @param pos position at where to start parsing\n     * @return ethTxReceipt ethereum tx receipt\n     */\n    function getEthReceipt(bytes memory txBytes, uint pos)\n        public\n        view\n        returns (bytes memory)\n    {\n        bytes memory ethTxReceipt = new bytes(0);\n        uint bytesToRead;\n        // skip vchTxValue\n        (bytesToRead, pos) = parseVarInt(txBytes, pos);\n        pos += bytesToRead;\n        // skip vchTxParentNodes\n        (bytesToRead, pos) = parseVarInt(txBytes, pos);\n        pos += bytesToRead;\n        // skip vchTxRoot\n        (bytesToRead, pos) = parseVarInt(txBytes, pos);\n        pos += bytesToRead;\n        // skip vchTxPath\n        (bytesToRead, pos) = parseVarInt(txBytes, pos);\n        pos += bytesToRead;\n        // get vchReceiptValue\n        (bytesToRead, pos) = parseVarInt(txBytes, pos);\n        // if position is encoded in receipt value, decode position and read the value from next field (parent nodes)\n        if(bytesToRead == 2){\n            uint16 positionOfValue = bytesToUint16(txBytes, pos);\n            pos += bytesToRead;\n            // get vchReceiptParentNodes\n            (bytesToRead, pos) = parseVarInt(txBytes, pos);\n            pos += positionOfValue;\n            ethTxReceipt = sliceArray(txBytes, pos, pos+(bytesToRead-positionOfValue));\n        }\n        // size > 2 means receipt value is fully serialized in this field and no need to get parent nodes field\n        else{\n            ethTxReceipt = sliceArray(txBytes, pos, pos+bytesToRead);      \n        }\n        return ethTxReceipt;\n    }\n\n    /**\n     * Return logs for given ethereum transaction receipt\n     * @param  ethTxReceipt ethereum transaction receipt\n     * @return logs bloom\n     */\n    function getLogValuesForTopic(bytes memory ethTxReceipt, bytes32 expectedTopic)\n        public\n        pure\n        returns (bytes memory)\n    {\n        RLPReader.RLPItem[] memory ethTxReceiptList = ethTxReceipt.toRlpItem().toList();\n        RLPReader.RLPItem[] memory logsList = ethTxReceiptList[3].toList();\n        for (uint256 i = 0; i < logsList.length; i++) {\n            RLPReader.RLPItem[] memory log = logsList[i].toList();\n            bytes memory rawTopic = log[1].toBytes();\n            bytes32 topic = bytesToBytes32(rawTopic, 1); // need to remove first byte \"a0\"\n            if (topic == expectedTopic) {\n                // data for given log\n                return log[2].toBytes();\n            }\n        }\n        revert(\"Topic not found\");\n    }\n\n    /**\n     * Get bridgeTransactionId from logs bloom\n     * @param logValues log values\n     * @return bridgeTransactionId\n     */\n    function getBridgeTransactionId(bytes memory logValues) public pure returns (uint256 value) {\n        uint8 index = 3; // log's third value\n        assembly {\n            value := mload(add(logValues, mul(32, index)))\n        }\n    }\n\n    // Read the ethereum address embedded in the tx output\n    function readEthereumAddress(bytes memory txBytes, uint pos)\n        private\n        pure\n        returns (address)\n    {\n        uint256 data;\n        assembly {\n            data := mload(add(add(txBytes, 20), pos))\n        }\n        return address(uint160(data));\n    }\n\n    // Read next opcode from script\n    function getOpcode(bytes memory txBytes, uint pos)\n        private\n        pure\n        returns (uint8, uint)\n    {\n        require(pos < txBytes.length);\n        return (uint8(txBytes[pos]), pos + 1);\n    }\n\n    // @dev - Converts a bytes of size 4 to uint32,\n    // e.g. for input [0x01, 0x02, 0x03 0x04] returns 0x01020304\n    function bytesToUint32Flipped(bytes memory input, uint pos)\n        public\n        pure\n        returns (uint32 result)\n    {\n        assembly {\n            let data := mload(add(add(input, 0x20), pos))\n            let flip := mload(0x40)\n            mstore8(add(flip, 0), byte(3, data))\n            mstore8(add(flip, 1), byte(2, data))\n            mstore8(add(flip, 2), byte(1, data))\n            mstore8(add(flip, 3), byte(0, data))\n            result := shr(mul(8, 28), mload(flip))\n        }\n    }\n\n    // @dev - Bitcoin-way of hashing\n    // @param _dataBytes - raw data to be hashed\n    // @return - result of applying SHA-256 twice to raw data and then flipping the bytes\n    function dblShaFlip(bytes memory _dataBytes) public pure returns (uint) {\n        return flip32Bytes(uint(sha256(abi.encodePacked(sha256(abi.encodePacked(_dataBytes))))));\n    }\n\n    function sha256mem(bytes memory _rawBytes, uint offset, uint len)\n        public\n        view\n        returns (bytes32 result)\n    {\n        assembly {\n            // Call sha256 precompiled contract (located in address 0x02) to copy data.\n            // Assign to ptr the next available memory position (stored in memory position 0x40).\n            let ptr := mload(0x40)\n            if iszero(staticcall(gas, 0x02, add(add(_rawBytes, 0x20), offset), len, ptr, 0x20)) {\n                revert(0, 0)\n            }\n            result := mload(ptr)\n        }\n    }\n\n    // @dev - Bitcoin-way of hashing\n    // @param _dataBytes - raw data to be hashed\n    // @return - result of applying SHA-256 twice to raw data and then flipping the bytes\n    function dblShaFlipMem(bytes memory _rawBytes, uint offset, uint len)\n        public\n        view\n        returns (uint)\n    {\n        return flip32Bytes(uint(sha256(abi.encodePacked(sha256mem(_rawBytes, offset, len)))));\n    }\n\n    function bytesToUint64(bytes memory input, uint pos) public pure returns (uint64 result) {\n        result = uint64(uint8(input[pos+7])) + uint64(uint8(input[pos + 6]))*(2**8) + uint64(uint8(input[pos + 5]))*(2**16) + uint64(uint8(input[pos + 4]))*(2**24) + uint64(uint8(input[pos + 3]))*(2**32) + uint64(uint8(input[pos + 2]))*(2**40) + uint64(uint8(input[pos + 1]))*(2**48) + uint64(uint8(input[pos]))*(2**56);\n    }\n\n    function bytesToUint32(bytes memory input, uint pos) public pure returns (uint32 result) {\n        result = uint32(uint8(input[pos+3])) + uint32(uint8(input[pos + 2]))*(2**8) + uint32(uint8(input[pos + 1]))*(2**16) + uint32(uint8(input[pos]))*(2**24);\n    }\n\n    // @dev - convert an unsigned integer from little-endian to big-endian representation\n    //\n    // @param _input - little-endian value\n    // @return - input value in big-endian format\n    function flip32Bytes(uint _input) public pure returns (uint result) {\n        assembly {\n            let pos := mload(0x40)\n            mstore8(add(pos, 0), byte(31, _input))\n            mstore8(add(pos, 1), byte(30, _input))\n            mstore8(add(pos, 2), byte(29, _input))\n            mstore8(add(pos, 3), byte(28, _input))\n            mstore8(add(pos, 4), byte(27, _input))\n            mstore8(add(pos, 5), byte(26, _input))\n            mstore8(add(pos, 6), byte(25, _input))\n            mstore8(add(pos, 7), byte(24, _input))\n            mstore8(add(pos, 8), byte(23, _input))\n            mstore8(add(pos, 9), byte(22, _input))\n            mstore8(add(pos, 10), byte(21, _input))\n            mstore8(add(pos, 11), byte(20, _input))\n            mstore8(add(pos, 12), byte(19, _input))\n            mstore8(add(pos, 13), byte(18, _input))\n            mstore8(add(pos, 14), byte(17, _input))\n            mstore8(add(pos, 15), byte(16, _input))\n            mstore8(add(pos, 16), byte(15, _input))\n            mstore8(add(pos, 17), byte(14, _input))\n            mstore8(add(pos, 18), byte(13, _input))\n            mstore8(add(pos, 19), byte(12, _input))\n            mstore8(add(pos, 20), byte(11, _input))\n            mstore8(add(pos, 21), byte(10, _input))\n            mstore8(add(pos, 22), byte(9, _input))\n            mstore8(add(pos, 23), byte(8, _input))\n            mstore8(add(pos, 24), byte(7, _input))\n            mstore8(add(pos, 25), byte(6, _input))\n            mstore8(add(pos, 26), byte(5, _input))\n            mstore8(add(pos, 27), byte(4, _input))\n            mstore8(add(pos, 28), byte(3, _input))\n            mstore8(add(pos, 29), byte(2, _input))\n            mstore8(add(pos, 30), byte(1, _input))\n            mstore8(add(pos, 31), byte(0, _input))\n            result := mload(pos)\n        }\n    }    \n  \n    // @dev - Evaluate the merkle root\n    //\n    // Given an array of hashes it calculates the\n    // root of the merkle tree.\n    //\n    // @return root of merkle tree\n    function makeMerkle(bytes32[] memory hashes) public pure returns (bytes32) {\n        uint length = hashes.length;\n\n        if (length == 1) return hashes[0];\n        require(length > 0, \"Must provide hashes\");\n\n        uint i;\n        for (i = 0; i < length; i++) {\n            hashes[i] = bytes32(flip32Bytes(uint(hashes[i])));\n        }\n\n        uint j;\n        uint k;\n\n        while (length > 1) {\n            k = 0;\n            for (i = 0; i < length; i += 2) {\n                j = (i + 1 < length) ? i + 1 : length - 1;\n                hashes[k] = sha256(abi.encodePacked(sha256(abi.encodePacked(hashes[i], hashes[j]))));\n                k += 1;\n            }\n            length = k;\n        }\n        return bytes32(flip32Bytes(uint(hashes[0])));\n    }\n    \n    // @dev - For a valid proof, returns the root of the Merkle tree.\n    //\n    // @param _txHash - transaction hash\n    // @param _txIndex - transaction's index within the block it's assumed to be in\n    // @param _siblings - transaction's Merkle siblings\n    // @return - Merkle tree root of the block the transaction belongs to if the proof is valid,\n    // garbage if it's invalid\n    function computeMerkle(uint _txHash, uint _txIndex, uint[] memory _siblings)\n        public\n        pure\n        returns (uint)\n    {\n        uint length = _siblings.length;\n        uint i;\n        for (i = 0; i < length; i++) {\n            _siblings[i] = flip32Bytes(_siblings[i]);\n        }\n\n        i = 0;\n        uint resultHash = flip32Bytes(_txHash);        \n\n        while (i < length) {\n            uint proofHex = _siblings[i];\n\n            uint left;\n            uint right;\n            if (_txIndex % 2 == 1) { // 0 means _siblings is on the right; 1 means left\n                left = proofHex;\n                right = resultHash;\n            } else {\n                left = resultHash;\n                right = proofHex;\n            }\n            resultHash = uint(sha256(abi.encodePacked(sha256(abi.encodePacked(left, right)))));\n\n            _txIndex /= 2;\n            i += 1;\n        }\n\n        return flip32Bytes(resultHash);\n    }\n\n    // @dev - extract Merkle root field from a raw Syscoin block header\n    //\n    // @param _blockHeader - Syscoin block header bytes\n    // @param pos - where to start reading root from\n    // @return - block's Merkle root in big endian format\n    function getHeaderMerkleRoot(bytes memory _blockHeader) public pure returns (uint) {\n        uint merkle;\n        assembly {\n            merkle := mload(add(add(_blockHeader, 32), 0x24))\n        }\n        return flip32Bytes(merkle);\n    }\n\n    // @dev - Bitcoin-way of computing the target from the 'bits' field of a block header\n    // based on http://www.righto.com/2014/02/bitcoin-mining-hard-way-algorithms.html//ref3\n    //\n    // @param _bits - difficulty in bits format\n    // @return - difficulty in target format\n    function targetFromBits(uint32 _bits) public pure returns (uint) {\n        uint exp = _bits / 0x1000000;  // 2**24\n        uint mant = _bits & 0xffffff;\n        return mant * 256**(exp - 3);\n    }\n\n    // @dev converts bytes of any length to bytes32.\n    // If `_rawBytes` is longer than 32 bytes, it truncates to the 32 leftmost bytes.\n    // If it is shorter, it pads with 0s on the left.\n    // Should be private, made internal for testing\n    //\n    // @param _rawBytes - arbitrary length bytes\n    // @return - leftmost 32 or less bytes of input value; padded if less than 32\n    function bytesToBytes32(bytes memory _rawBytes, uint pos) public pure returns (bytes32) {\n        bytes32 out;\n        assembly {\n            out := mload(add(add(_rawBytes, 0x20), pos))\n        }\n        return out;\n    }\n\n    function bytesToUint16(bytes memory input, uint pos) public pure returns (uint16 result) {\n        result = uint16(uint8(input[pos+1])) + uint16(uint8(input[pos]))*(2**8);\n    }\n\n    function getOpReturnPos(bytes memory txBytes, uint pos) public pure returns (uint) {\n        uint n_inputs;\n        uint script_len;\n        uint output_value;\n        uint n_outputs;\n\n        (n_inputs, pos) = parseVarInt(txBytes, pos);\n        // if dummy 0x00 is present this is a witness transaction\n        if(n_inputs == 0x00){\n            (n_inputs, pos) = parseVarInt(txBytes, pos); // flag\n            require(n_inputs != 0x00, \"#SyscoinMessageLibrary getOpReturnPos(): Unexpected dummy/flag\");\n            // after dummy/flag the real var int comes for txins\n            (n_inputs, pos) = parseVarInt(txBytes, pos);\n        }\n        require(n_inputs < 100, \"#SyscoinMessageLibrary getOpReturnPos(): Incorrect size of n_inputs\");\n\n        for (uint i = 0; i < n_inputs; i++) {\n            pos += 36;  // skip outpoint\n            (script_len, pos) = parseVarInt(txBytes, pos);\n            pos += script_len + 4;  // skip sig_script, seq\n        }\n        \n        (n_outputs, pos) = parseVarInt(txBytes, pos);\n        require(n_outputs < 10, \"#SyscoinMessageLibrary getOpReturnPos(): Incorrect size of n_outputs\");\n        for (uint i = 0; i < n_outputs; i++) {\n            pos += 8;\n            // varint\n            (script_len, pos) = parseVarInt(txBytes, pos);\n            if(!isOpReturn(txBytes, pos)){\n                // output script\n                pos += script_len;\n                output_value = 0;\n                continue;\n            }\n            // skip opreturn marker\n            pos += 1;\n            return pos;\n        }\n        revert(\"#SyscoinMessageLibrary getOpReturnPos(): No OpReturn found\");\n    }\n\n    // @dev returns a portion of a given byte array specified by its starting and ending points\n    // Breaks underscore naming convention for parameters because it raises a compiler error\n    // if `offset` is changed to `_offset`.\n    //\n    // @param _rawBytes - array to be sliced\n    // @param offset - first byte of sliced array\n    // @param _endIndex - last byte of sliced array\n    function sliceArray(bytes memory _rawBytes, uint offset, uint _endIndex) public view returns (bytes memory) {\n        uint len = _endIndex - offset;\n        bytes memory result = new bytes(len);\n        assembly {\n            // Call precompiled contract to copy data\n            if iszero(staticcall(gas, 0x04, add(add(_rawBytes, 0x20), offset), len, add(result, 0x20), len)) {\n                revert(0, 0)\n            }\n        }\n        return result;\n    }\n}\n",
  "sourcePath": "/Users/jsidhu/Documents/GitHub/sysethereum-contracts1/contracts/SyscoinParser/SyscoinMessageLibrary.sol",
  "compiler": {
    "name": "solc",
    "version": "0.5.13+commit.5b0b510c.Emscripten.clang"
  },
  "schemaVersion": "3.0.19",
  "updatedAt": "2019-12-11T00:04:06.579Z",
  "devdoc": {
    "methods": {
      "getBridgeTransactionId(bytes)": {
        "params": {
          "logValues": "log values"
        },
        "return": "bridgeTransactionId"
      },
      "getEthReceipt(bytes,uint256)": {
        "params": {
          "pos": "position at where to start parsing",
          "txBytes": "syscoin raw transaction"
        },
        "return": "ethTxReceipt ethereum tx receipt"
      },
      "getLogValuesForTopic(bytes,bytes32)": {
        "params": {
          "ethTxReceipt": "ethereum transaction receipt"
        },
        "return": "logs bloom"
      }
    }
  },
  "userdoc": {
    "methods": {
      "getBridgeTransactionId(bytes)": {
        "notice": "Get bridgeTransactionId from logs bloom"
      },
      "getEthReceipt(bytes,uint256)": {
        "notice": "Parse txBytes and returns ethereum tx receipt"
      },
      "getLogValuesForTopic(bytes,bytes32)": {
        "notice": "Return logs for given ethereum transaction receipt"
      }
    }
  }
}