{
  "contractName": "SyscoinMessageLibrary",
  "abi": [
    {
      "inputs": [
        {
          "internalType": "bytes",
          "name": "txBytes",
          "type": "bytes"
        },
        {
          "internalType": "uint256",
          "name": "pos",
          "type": "uint256"
        }
      ],
      "name": "parseCompactSize",
      "outputs": [
        {
          "internalType": "uint256",
          "name": "",
          "type": "uint256"
        },
        {
          "internalType": "uint256",
          "name": "",
          "type": "uint256"
        }
      ],
      "stateMutability": "pure",
      "type": "function",
      "constant": true
    },
    {
      "inputs": [
        {
          "internalType": "bytes",
          "name": "txBytes",
          "type": "bytes"
        },
        {
          "internalType": "uint256",
          "name": "pos",
          "type": "uint256"
        },
        {
          "internalType": "uint256",
          "name": "max",
          "type": "uint256"
        }
      ],
      "name": "parseVarInt",
      "outputs": [
        {
          "internalType": "uint256",
          "name": "",
          "type": "uint256"
        },
        {
          "internalType": "uint256",
          "name": "",
          "type": "uint256"
        }
      ],
      "stateMutability": "pure",
      "type": "function",
      "constant": true
    },
    {
      "inputs": [
        {
          "internalType": "bytes",
          "name": "data",
          "type": "bytes"
        },
        {
          "internalType": "uint256",
          "name": "pos",
          "type": "uint256"
        },
        {
          "internalType": "uint256",
          "name": "bits",
          "type": "uint256"
        }
      ],
      "name": "getBytesLE",
      "outputs": [
        {
          "internalType": "uint256",
          "name": "result",
          "type": "uint256"
        }
      ],
      "stateMutability": "pure",
      "type": "function",
      "constant": true
    },
    {
      "inputs": [
        {
          "internalType": "bytes",
          "name": "input",
          "type": "bytes"
        },
        {
          "internalType": "uint256",
          "name": "pos",
          "type": "uint256"
        }
      ],
      "name": "bytesToUint32Flipped",
      "outputs": [
        {
          "internalType": "uint32",
          "name": "result",
          "type": "uint32"
        }
      ],
      "stateMutability": "pure",
      "type": "function",
      "constant": true
    },
    {
      "inputs": [
        {
          "internalType": "uint256",
          "name": "_input",
          "type": "uint256"
        }
      ],
      "name": "flip32Bytes",
      "outputs": [
        {
          "internalType": "uint256",
          "name": "result",
          "type": "uint256"
        }
      ],
      "stateMutability": "pure",
      "type": "function",
      "constant": true
    },
    {
      "inputs": [
        {
          "internalType": "uint256",
          "name": "_txHash",
          "type": "uint256"
        },
        {
          "internalType": "uint256",
          "name": "_txIndex",
          "type": "uint256"
        },
        {
          "internalType": "uint256[]",
          "name": "_siblings",
          "type": "uint256[]"
        }
      ],
      "name": "computeMerkle",
      "outputs": [
        {
          "internalType": "uint256",
          "name": "",
          "type": "uint256"
        }
      ],
      "stateMutability": "pure",
      "type": "function",
      "constant": true
    }
  ],
  "bytecode": "0x608060405234801561001057600080fd5b50610b9c806100206000396000f3fe608060405234801561001057600080fd5b50600436106100625760003560e01c8063029c5e2a1461006757806395663f0514610094578063b18037fd146100bc578063b6f6580a146100cf578063d0f9410b146100f0578063d5c9712f14610103575b600080fd5b61007a610075366004610745565b610116565b60405163ffffffff90911681526020015b60405180910390f35b6100a76100a236600461078a565b610152565b6040805192835260208301919091520161008b565b6100a76100ca366004610745565b610210565b6100e26100dd3660046107d8565b610338565b60405190815260200161008b565b6100e26100fe3660046107f1565b610462565b6100e261011136600461078a565b61063d565b6000816020840101516040518160031a60008201538160021a60018201538160011a60028201538160001a60038201535160e01c949350505050565b60008060005b600086868151811061016c5761016c610b12565b016020015160f81c9050600785901c8211156101a35760405162461bcd60e51b815260040161019a906108ee565b60405180910390fd5b6101ae600187610973565b955060079190911b607f8216179060808116156101f757848214156101e55760405162461bcd60e51b815260040161019a906108ee565b816101ef81610ab7565b925050610202565b509150839050610208565b50610158565b935093915050565b600080600084848151811061022757610227610b12565b016020015160f81c905061023c600185610973565b935060fd8160ff1610156102575760ff169150829050610331565b8060ff1660fd14156102845761026f8585601061063d565b61027a856002610973565b9250925050610331565b8060ff1660fe14156102a75761029c8585602061063d565b61027a856004610973565b8060ff1660ff14156102ca576102bf8585604061063d565b61027a856008610973565b60405162461bcd60e51b815260206004820152603660248201527f23537973636f696e4d6573736167654c696272617279207061727365436f6d7060448201527561637453697a6520696e76616c6964206f70636f646560501b606482015260840161019a565b9250929050565b60405160009060ff8316815382601e1a600182015382601d1a600282015382601c1a600382015382601b1a600482015382601a1a60058201538260191a60068201538260181a60078201538260171a60088201538260161a60098201538260151a600a8201538260141a600b8201538260131a600c8201538260121a600d8201538260111a600e8201538260101a600f82015382600f1a601082015382600e1a601182015382600d1a601282015382600c1a601382015382600b1a601482015382600a1a60158201538260091a60168201538260081a60178201538260071a60188201538260061a60198201538260051a601a8201538260041a601b8201538260031a601c8201538260021a601d8201538260011a601e8201538260001a601f8201535192915050565b8051600090815b818110156104c25761049384828151811061048657610486610b12565b6020026020010151610338565b8482815181106104a5576104a5610b12565b6020908102919091010152806104ba81610ab7565b915050610469565b506000806104cf87610338565b90505b828210156106295760008583815181106104ee576104ee610b12565b602002602001015190506000806002896105089190610ad2565b6001141561051a575081905082610520565b50829050815b600280838360405160200161053f929190918252602082015260400190565b60408051601f1981840301815290829052610559916108b3565b602060405180830381855afa158015610576573d6000803e3d6000fd5b5050506040513d601f19601f82011682018060405250810190610599919061072c565b6040516020016105ab91815260200190565b60408051601f19818403018152908290526105c5916108b3565b602060405180830381855afa1580156105e2573d6000803e3d6000fd5b5050506040513d601f19601f82011682018060405250810190610605919061072c565b935061061260028a61098b565b985061061f600186610973565b94505050506104d2565b61063281610338565b979650505050505050565b6000805b61064c60088461098b565b8110156106b45761065e816008610a98565b6106699060026109e2565b856106748387610973565b8151811061068457610684610b12565b0160200151610696919060f81c610a98565b6106a09083610973565b9150806106ac81610ab7565b915050610641565b509392505050565b600082601f8301126106cd57600080fd5b813567ffffffffffffffff8111156106e7576106e7610b28565b6106fa601f8201601f1916602001610942565b81815284602083860101111561070f57600080fd5b816020850160208301376000918101602001919091529392505050565b60006020828403121561073e57600080fd5b5051919050565b6000806040838503121561075857600080fd5b823567ffffffffffffffff81111561076f57600080fd5b61077b858286016106bc565b95602094909401359450505050565b60008060006060848603121561079f57600080fd5b833567ffffffffffffffff8111156107b657600080fd5b6107c2868287016106bc565b9660208601359650604090950135949350505050565b6000602082840312156107ea57600080fd5b5035919050565b60008060006060848603121561080657600080fd5b833592506020808501359250604085013567ffffffffffffffff8082111561082d57600080fd5b818701915087601f83011261084157600080fd5b81358181111561085357610853610b28565b8060051b9150610864848301610942565b8181528481019084860184860187018c101561087f57600080fd5b600095505b838610156108a2578035835260019590950194918601918601610884565b508096505050505050509250925092565b6000825160005b818110156108d457602081860181015185830152016108ba565b818111156108e3576000828501525b509190910192915050565b60208082526034908201527f23537973636f696e4d6573736167654c696272617279207061727365566172496040820152736e7428293a2073697a6520746f6f206c6172676560601b606082015260800190565b604051601f8201601f1916810167ffffffffffffffff8111828210171561096b5761096b610b28565b604052919050565b6000821982111561098657610986610ae6565b500190565b60008261099a5761099a610afc565b500490565b600181815b808511156109da5781600019048211156109c0576109c0610ae6565b808516156109cd57918102915b93841c93908002906109a4565b509250929050565b60006109ee83836109f5565b9392505050565b600082610a0457506001610a92565b81610a1157506000610a92565b8160018114610a275760028114610a3157610a4d565b6001915050610a92565b60ff841115610a4257610a42610ae6565b50506001821b610a92565b5060208310610133831016604e8410600b8410161715610a70575081810a610a92565b610a7a838361099f565b8060001904821115610a8e57610a8e610ae6565b0290505b92915050565b6000816000190483118215151615610ab257610ab2610ae6565b500290565b6000600019821415610acb57610acb610ae6565b5060010190565b600082610ae157610ae1610afc565b500690565b634e487b7160e01b600052601160045260246000fd5b634e487b7160e01b600052601260045260246000fd5b634e487b7160e01b600052603260045260246000fd5b634e487b7160e01b600052604160045260246000fdfea2646970667358221220e6edd9a247826962a06cfd201d7bf6519f4225522c90f19750e7f3612c1080a764736f6c63782a302e382e372d646576656c6f702e323032312e372e372b636f6d6d69742e34363531346666612e6d6f64005b",
  "immutableReferences": {},
  "source": "// SPDX-License-Identifier: MIT\npragma solidity ^0.8.6;\n\n\n// parse a raw Syscoin transaction byte array\ncontract SyscoinMessageLibrary {\n\n    // Convert a compact size for wire for variable length fields\n    function parseCompactSize(bytes memory txBytes, uint pos) public pure returns (uint, uint) {\n        // the first byte tells us how big the integer is\n        uint8 ibit = uint8(txBytes[pos]);\n        pos += 1;  // skip ibit\n\n        if (ibit < 0xfd) {\n            return (ibit, pos);\n        } else if (ibit == 0xfd) {\n            return (getBytesLE(txBytes, pos, 16), pos + 2);\n        } else if (ibit == 0xfe) {\n            return (getBytesLE(txBytes, pos, 32), pos + 4);\n        } else if (ibit == 0xff) {\n            return (getBytesLE(txBytes, pos, 64), pos + 8);\n        }\n        revert('#SyscoinMessageLibrary parseCompactSize invalid opcode');\n    }\n    // Convert a variable integer into something useful and return it and\n    // the index to after it.\n    function parseVarInt(bytes memory txBytes, uint pos, uint max) public pure returns (uint, uint) {\n        uint n = 0;\n        while(true) {\n            uint8 chData = uint8(txBytes[pos]);\n            require(n <= (max >> 7), \"#SyscoinMessageLibrary parseVarInt(): size too large\");\n            pos += 1;\n            n = (n << 7) | (chData & 0x7F);\n            if ((chData & 0x80) > 0) {\n                require((n != max), \"#SyscoinMessageLibrary parseVarInt(): size too large\");\n                n++;\n            } else {\n                return (n, pos);\n            }\n        }\n        revert('#SyscoinMessageLibrary parseVarInt invalid opcode');\n    }\n\n    // convert little endian bytes to uint\n    function getBytesLE(bytes memory data, uint pos, uint bits)\n        public\n        pure\n        returns (uint256 result)\n    {\n        for (uint256 i = 0; i < bits / 8; i++) {\n            result += uint256(uint8(data[pos + i])) * 2 ** (i * 8);\n        }\n    }\n\n    // @dev - Converts a bytes of size 4 to uint32,\n    // e.g. for input [0x01, 0x02, 0x03 0x04] returns 0x01020304\n    function bytesToUint32Flipped(bytes memory input, uint pos)\n        public\n        pure\n        returns (uint32 result)\n    {\n        assembly {\n            let data := mload(add(add(input, 0x20), pos))\n            let flip := mload(0x40)\n            mstore8(add(flip, 0), byte(3, data))\n            mstore8(add(flip, 1), byte(2, data))\n            mstore8(add(flip, 2), byte(1, data))\n            mstore8(add(flip, 3), byte(0, data))\n            result := shr(mul(8, 28), mload(flip))\n        }\n    }\n\n    // @dev - convert an unsigned integer from little-endian to big-endian representation\n    //\n    // @param _input - little-endian value\n    // @return - input value in big-endian format\n    function flip32Bytes(uint _input) public pure returns (uint result) {\n        assembly {\n            let pos := mload(0x40)\n            mstore8(add(pos, 0), byte(31, _input))\n            mstore8(add(pos, 1), byte(30, _input))\n            mstore8(add(pos, 2), byte(29, _input))\n            mstore8(add(pos, 3), byte(28, _input))\n            mstore8(add(pos, 4), byte(27, _input))\n            mstore8(add(pos, 5), byte(26, _input))\n            mstore8(add(pos, 6), byte(25, _input))\n            mstore8(add(pos, 7), byte(24, _input))\n            mstore8(add(pos, 8), byte(23, _input))\n            mstore8(add(pos, 9), byte(22, _input))\n            mstore8(add(pos, 10), byte(21, _input))\n            mstore8(add(pos, 11), byte(20, _input))\n            mstore8(add(pos, 12), byte(19, _input))\n            mstore8(add(pos, 13), byte(18, _input))\n            mstore8(add(pos, 14), byte(17, _input))\n            mstore8(add(pos, 15), byte(16, _input))\n            mstore8(add(pos, 16), byte(15, _input))\n            mstore8(add(pos, 17), byte(14, _input))\n            mstore8(add(pos, 18), byte(13, _input))\n            mstore8(add(pos, 19), byte(12, _input))\n            mstore8(add(pos, 20), byte(11, _input))\n            mstore8(add(pos, 21), byte(10, _input))\n            mstore8(add(pos, 22), byte(9, _input))\n            mstore8(add(pos, 23), byte(8, _input))\n            mstore8(add(pos, 24), byte(7, _input))\n            mstore8(add(pos, 25), byte(6, _input))\n            mstore8(add(pos, 26), byte(5, _input))\n            mstore8(add(pos, 27), byte(4, _input))\n            mstore8(add(pos, 28), byte(3, _input))\n            mstore8(add(pos, 29), byte(2, _input))\n            mstore8(add(pos, 30), byte(1, _input))\n            mstore8(add(pos, 31), byte(0, _input))\n            result := mload(pos)\n        }\n    }\n    \n    // @dev - For a valid proof, returns the root of the Merkle tree.\n    //\n    // @param _txHash - transaction hash\n    // @param _txIndex - transaction's index within the block it's assumed to be in\n    // @param _siblings - transaction's Merkle siblings\n    // @return - Merkle tree root of the block the transaction belongs to if the proof is valid,\n    // garbage if it's invalid\n    function computeMerkle(uint _txHash, uint _txIndex, uint[] memory _siblings)\n        public\n        pure\n        returns (uint)\n    {\n        uint length = _siblings.length;\n        uint i;\n        for (i = 0; i < length; i++) {\n            _siblings[i] = flip32Bytes(_siblings[i]);\n        }\n\n        i = 0;\n        uint resultHash = flip32Bytes(_txHash);        \n\n        while (i < length) {\n            uint proofHex = _siblings[i];\n\n            uint left;\n            uint right;\n            if (_txIndex % 2 == 1) { // 0 means _siblings is on the right; 1 means left\n                left = proofHex;\n                right = resultHash;\n            } else {\n                left = resultHash;\n                right = proofHex;\n            }\n            resultHash = uint(sha256(abi.encodePacked(sha256(abi.encodePacked(left, right)))));\n\n            _txIndex /= 2;\n            i += 1;\n        }\n\n        return flip32Bytes(resultHash);\n    }\n}\n",
  "sourcePath": "/Users/jagsidhu/work/Documents/GitHub/sysethereum-contracts/contracts/SyscoinParser/SyscoinMessageLibrary.sol",
  "compiler": {
    "name": "solc",
    "version": "0.8.7-develop.2021.7.7+commit.46514ffa.mod.Darwin.appleclang"
  },
  "schemaVersion": "3.4.3",
  "updatedAt": "2021-09-27T20:59:35.427Z",
  "networkType": "ethereum",
  "devdoc": {
    "kind": "dev",
    "methods": {},
    "version": 1
  },
  "userdoc": {
    "kind": "user",
    "methods": {},
    "version": 1
  }
}